{
  "address": "0x665Cc3Bd13d5d83d6B217caB4fc8c1759147fF58",
  "abi": [
    {
      "anonymous": false,
      "inputs": [
        {
          "indexed": true,
          "internalType": "address",
          "name": "owner",
          "type": "address"
        },
        {
          "indexed": true,
          "internalType": "address",
          "name": "spender",
          "type": "address"
        },
        {
          "indexed": false,
          "internalType": "uint256",
          "name": "value",
          "type": "uint256"
        }
      ],
      "name": "Approval",
      "type": "event"
    },
    {
      "anonymous": false,
      "inputs": [
        {
          "indexed": false,
          "internalType": "uint8",
          "name": "version",
          "type": "uint8"
        }
      ],
      "name": "Initialized",
      "type": "event"
    },
    {
      "anonymous": false,
      "inputs": [
        {
          "indexed": false,
          "internalType": "address",
          "name": "account",
          "type": "address"
        }
      ],
      "name": "Paused",
      "type": "event"
    },
    {
      "anonymous": false,
      "inputs": [
        {
          "indexed": true,
          "internalType": "bytes32",
          "name": "role",
          "type": "bytes32"
        },
        {
          "indexed": true,
          "internalType": "bytes32",
          "name": "previousAdminRole",
          "type": "bytes32"
        },
        {
          "indexed": true,
          "internalType": "bytes32",
          "name": "newAdminRole",
          "type": "bytes32"
        }
      ],
      "name": "RoleAdminChanged",
      "type": "event"
    },
    {
      "anonymous": false,
      "inputs": [
        {
          "indexed": true,
          "internalType": "bytes32",
          "name": "role",
          "type": "bytes32"
        },
        {
          "indexed": true,
          "internalType": "address",
          "name": "account",
          "type": "address"
        },
        {
          "indexed": true,
          "internalType": "address",
          "name": "sender",
          "type": "address"
        }
      ],
      "name": "RoleGranted",
      "type": "event"
    },
    {
      "anonymous": false,
      "inputs": [
        {
          "indexed": true,
          "internalType": "bytes32",
          "name": "role",
          "type": "bytes32"
        },
        {
          "indexed": true,
          "internalType": "address",
          "name": "account",
          "type": "address"
        },
        {
          "indexed": true,
          "internalType": "address",
          "name": "sender",
          "type": "address"
        }
      ],
      "name": "RoleRevoked",
      "type": "event"
    },
    {
      "anonymous": false,
      "inputs": [
        {
          "indexed": true,
          "internalType": "address",
          "name": "from",
          "type": "address"
        },
        {
          "indexed": true,
          "internalType": "address",
          "name": "to",
          "type": "address"
        },
        {
          "indexed": false,
          "internalType": "uint256",
          "name": "value",
          "type": "uint256"
        }
      ],
      "name": "Transfer",
      "type": "event"
    },
    {
      "anonymous": false,
      "inputs": [
        {
          "indexed": false,
          "internalType": "address",
          "name": "account",
          "type": "address"
        }
      ],
      "name": "Unpaused",
      "type": "event"
    },
    {
      "inputs": [],
      "name": "DEFAULT_ADMIN_ROLE",
      "outputs": [
        {
          "internalType": "bytes32",
          "name": "",
          "type": "bytes32"
        }
      ],
      "stateMutability": "view",
      "type": "function"
    },
    {
      "inputs": [],
      "name": "MINTER_ROLE",
      "outputs": [
        {
          "internalType": "bytes32",
          "name": "",
          "type": "bytes32"
        }
      ],
      "stateMutability": "view",
      "type": "function"
    },
    {
      "inputs": [],
      "name": "PAUSER_ROLE",
      "outputs": [
        {
          "internalType": "bytes32",
          "name": "",
          "type": "bytes32"
        }
      ],
      "stateMutability": "view",
      "type": "function"
    },
    {
      "inputs": [
        {
          "internalType": "address",
          "name": "owner",
          "type": "address"
        },
        {
          "internalType": "address",
          "name": "spender",
          "type": "address"
        }
      ],
      "name": "allowance",
      "outputs": [
        {
          "internalType": "uint256",
          "name": "",
          "type": "uint256"
        }
      ],
      "stateMutability": "view",
      "type": "function"
    },
    {
      "inputs": [
        {
          "internalType": "address",
          "name": "spender",
          "type": "address"
        },
        {
          "internalType": "uint256",
          "name": "amount",
          "type": "uint256"
        }
      ],
      "name": "approve",
      "outputs": [
        {
          "internalType": "bool",
          "name": "",
          "type": "bool"
        }
      ],
      "stateMutability": "nonpayable",
      "type": "function"
    },
    {
      "inputs": [
        {
          "internalType": "address",
          "name": "account",
          "type": "address"
        }
      ],
      "name": "balanceOf",
      "outputs": [
        {
          "internalType": "uint256",
          "name": "",
          "type": "uint256"
        }
      ],
      "stateMutability": "view",
      "type": "function"
    },
    {
      "inputs": [
        {
          "internalType": "uint256",
          "name": "amount",
          "type": "uint256"
        }
      ],
      "name": "burn",
      "outputs": [],
      "stateMutability": "nonpayable",
      "type": "function"
    },
    {
      "inputs": [
        {
          "internalType": "address",
          "name": "account",
          "type": "address"
        },
        {
          "internalType": "uint256",
          "name": "amount",
          "type": "uint256"
        }
      ],
      "name": "burnFrom",
      "outputs": [],
      "stateMutability": "nonpayable",
      "type": "function"
    },
    {
      "inputs": [],
      "name": "decimals",
      "outputs": [
        {
          "internalType": "uint8",
          "name": "",
          "type": "uint8"
        }
      ],
      "stateMutability": "view",
      "type": "function"
    },
    {
      "inputs": [
        {
          "internalType": "address",
          "name": "spender",
          "type": "address"
        },
        {
          "internalType": "uint256",
          "name": "subtractedValue",
          "type": "uint256"
        }
      ],
      "name": "decreaseAllowance",
      "outputs": [
        {
          "internalType": "bool",
          "name": "",
          "type": "bool"
        }
      ],
      "stateMutability": "nonpayable",
      "type": "function"
    },
    {
      "inputs": [
        {
          "internalType": "bytes32",
          "name": "role",
          "type": "bytes32"
        }
      ],
      "name": "getRoleAdmin",
      "outputs": [
        {
          "internalType": "bytes32",
          "name": "",
          "type": "bytes32"
        }
      ],
      "stateMutability": "view",
      "type": "function"
    },
    {
      "inputs": [
        {
          "internalType": "bytes32",
          "name": "role",
          "type": "bytes32"
        },
        {
          "internalType": "uint256",
          "name": "index",
          "type": "uint256"
        }
      ],
      "name": "getRoleMember",
      "outputs": [
        {
          "internalType": "address",
          "name": "",
          "type": "address"
        }
      ],
      "stateMutability": "view",
      "type": "function"
    },
    {
      "inputs": [
        {
          "internalType": "bytes32",
          "name": "role",
          "type": "bytes32"
        }
      ],
      "name": "getRoleMemberCount",
      "outputs": [
        {
          "internalType": "uint256",
          "name": "",
          "type": "uint256"
        }
      ],
      "stateMutability": "view",
      "type": "function"
    },
    {
      "inputs": [
        {
          "internalType": "bytes32",
          "name": "role",
          "type": "bytes32"
        },
        {
          "internalType": "address",
          "name": "account",
          "type": "address"
        }
      ],
      "name": "grantRole",
      "outputs": [],
      "stateMutability": "nonpayable",
      "type": "function"
    },
    {
      "inputs": [
        {
          "internalType": "bytes32",
          "name": "role",
          "type": "bytes32"
        },
        {
          "internalType": "address",
          "name": "account",
          "type": "address"
        }
      ],
      "name": "hasRole",
      "outputs": [
        {
          "internalType": "bool",
          "name": "",
          "type": "bool"
        }
      ],
      "stateMutability": "view",
      "type": "function"
    },
    {
      "inputs": [
        {
          "internalType": "address",
          "name": "spender",
          "type": "address"
        },
        {
          "internalType": "uint256",
          "name": "addedValue",
          "type": "uint256"
        }
      ],
      "name": "increaseAllowance",
      "outputs": [
        {
          "internalType": "bool",
          "name": "",
          "type": "bool"
        }
      ],
      "stateMutability": "nonpayable",
      "type": "function"
    },
    {
      "inputs": [
        {
          "internalType": "string",
          "name": "name",
          "type": "string"
        },
        {
          "internalType": "string",
          "name": "symbol",
          "type": "string"
        }
      ],
      "name": "initialize",
      "outputs": [],
      "stateMutability": "nonpayable",
      "type": "function"
    },
    {
      "inputs": [
        {
          "internalType": "string",
          "name": "name",
          "type": "string"
        },
        {
          "internalType": "string",
          "name": "symbol",
          "type": "string"
        },
        {
          "internalType": "uint8",
          "name": "decimalsOfToken",
          "type": "uint8"
        },
        {
          "internalType": "address",
          "name": "poolAddressOfToken",
          "type": "address"
        },
        {
          "internalType": "uint8",
          "name": "typeOfToken",
          "type": "uint8"
        }
      ],
      "name": "initialize",
      "outputs": [],
      "stateMutability": "nonpayable",
      "type": "function"
    },
    {
      "inputs": [
        {
          "internalType": "address",
          "name": "receiver",
          "type": "address"
        },
        {
          "internalType": "uint256",
          "name": "amount",
          "type": "uint256"
        }
      ],
      "name": "mint",
      "outputs": [],
      "stateMutability": "nonpayable",
      "type": "function"
    },
    {
      "inputs": [],
      "name": "name",
      "outputs": [
        {
          "internalType": "string",
          "name": "",
          "type": "string"
        }
      ],
      "stateMutability": "view",
      "type": "function"
    },
    {
      "inputs": [],
      "name": "noteTokenType",
      "outputs": [
        {
          "internalType": "uint8",
          "name": "",
          "type": "uint8"
        }
      ],
      "stateMutability": "view",
      "type": "function"
    },
    {
      "inputs": [],
      "name": "pause",
      "outputs": [],
      "stateMutability": "nonpayable",
      "type": "function"
    },
    {
      "inputs": [],
      "name": "paused",
      "outputs": [
        {
          "internalType": "bool",
          "name": "",
          "type": "bool"
        }
      ],
      "stateMutability": "view",
      "type": "function"
    },
    {
      "inputs": [],
      "name": "poolAddress",
      "outputs": [
        {
          "internalType": "address",
          "name": "",
          "type": "address"
        }
      ],
      "stateMutability": "view",
      "type": "function"
    },
    {
      "inputs": [
        {
          "internalType": "bytes32",
          "name": "role",
          "type": "bytes32"
        },
        {
          "internalType": "address",
          "name": "account",
          "type": "address"
        }
      ],
      "name": "renounceRole",
      "outputs": [],
      "stateMutability": "nonpayable",
      "type": "function"
    },
    {
      "inputs": [
        {
          "internalType": "bytes32",
          "name": "role",
          "type": "bytes32"
        },
        {
          "internalType": "address",
          "name": "account",
          "type": "address"
        }
      ],
      "name": "revokeRole",
      "outputs": [],
      "stateMutability": "nonpayable",
      "type": "function"
    },
    {
      "inputs": [
        {
          "internalType": "bytes4",
          "name": "interfaceId",
          "type": "bytes4"
        }
      ],
      "name": "supportsInterface",
      "outputs": [
        {
          "internalType": "bool",
          "name": "",
          "type": "bool"
        }
      ],
      "stateMutability": "view",
      "type": "function"
    },
    {
      "inputs": [],
      "name": "symbol",
      "outputs": [
        {
          "internalType": "string",
          "name": "",
          "type": "string"
        }
      ],
      "stateMutability": "view",
      "type": "function"
    },
    {
      "inputs": [],
      "name": "totalSupply",
      "outputs": [
        {
          "internalType": "uint256",
          "name": "",
          "type": "uint256"
        }
      ],
      "stateMutability": "view",
      "type": "function"
    },
    {
      "inputs": [
        {
          "internalType": "address",
          "name": "to",
          "type": "address"
        },
        {
          "internalType": "uint256",
          "name": "amount",
          "type": "uint256"
        }
      ],
      "name": "transfer",
      "outputs": [
        {
          "internalType": "bool",
          "name": "",
          "type": "bool"
        }
      ],
      "stateMutability": "nonpayable",
      "type": "function"
    },
    {
      "inputs": [
        {
          "internalType": "address",
          "name": "from",
          "type": "address"
        },
        {
          "internalType": "address",
          "name": "to",
          "type": "address"
        },
        {
          "internalType": "uint256",
          "name": "amount",
          "type": "uint256"
        }
      ],
      "name": "transferFrom",
      "outputs": [
        {
          "internalType": "bool",
          "name": "",
          "type": "bool"
        }
      ],
      "stateMutability": "nonpayable",
      "type": "function"
    },
    {
      "inputs": [],
      "name": "unpause",
      "outputs": [],
      "stateMutability": "nonpayable",
      "type": "function"
    }
  ],
  "transactionHash": "0xe85ac658223ca4543ac9bdc66802a6fceddecc656760d57484d1d23c239e7eb9",
  "args": [],
  "numDeployments": 1,
  "solcInputHash": "de1d8595d5a61486333789579f16c07b",
  "bytecode": "0x608060405234801561001057600080fd5b506120f1806100206000396000f3fe608060405234801561001057600080fd5b50600436106101ef5760003560e01c8063569067111161010f578063a217fddf116100a2578063d539139311610071578063d539139314610430578063d547741f14610457578063dd62ed3e1461046a578063e63ab1e91461047d57600080fd5b8063a217fddf146103ef578063a457c2d7146103f7578063a9059cbb1461040a578063ca15c8731461041d57600080fd5b80638456cb59116100de5780638456cb59146103b95780639010d07c146103c157806391d14854146103d457806395d89b41146103e757600080fd5b806356906711146103625780635c975abb1461037557806370a082311461037d57806379cc6790146103a657600080fd5b80632f2ff15d116101875780633f4ba83a116101565780633f4ba83a1461032157806340c10f191461032957806342966c681461033c5780634cd88b761461034f57600080fd5b80632f2ff15d146102d3578063313ce567146102e857806336568abe146102fb578063395093511461030e57600080fd5b80631755ff21116101c35780631755ff211461026557806318160ddd1461028b57806323b872dd1461029d578063248a9ca3146102b057600080fd5b8062b7f681146101f457806301ffc9a71461021a57806306fdde031461023d578063095ea7b314610252575b600080fd5b6101c354600160a01b900460ff165b60405160ff90911681526020015b60405180910390f35b61022d610228366004611a0a565b610492565b6040519015158152602001610211565b6102456104bd565b6040516102119190611a58565b61022d610260366004611aa0565b61054f565b6101c3546001600160a01b03165b6040516001600160a01b039091168152602001610211565b60cb545b604051908152602001610211565b61022d6102ab366004611acc565b610567565b61028f6102be366004611b0d565b60009081526065602052604090206001015490565b6102e66102e1366004611b26565b61058b565b005b6101c354600160a81b900460ff16610203565b6102e6610309366004611b26565b6105b5565b61022d61031c366004611aa0565b610638565b6102e661065a565b6102e6610337366004611aa0565b610664565b6102e661034a366004611b0d565b61066e565b6102e661035d366004611bf9565b61067a565b6102e6610370366004611c73565b610747565b61022d6108b2565b61028f61038b366004611d0b565b6001600160a01b0316600090815260c9602052604090205490565b6102e66103b4366004611aa0565b6108c6565b6102e66108db565b6102736103cf366004611d28565b6108e3565b61022d6103e2366004611b26565b610902565b61024561092d565b61028f600081565b61022d610405366004611aa0565b61093c565b61022d610418366004611aa0565b6109b7565b61028f61042b366004611b0d565b6109c5565b61028f7f9f2df0fed2c77648de5860a4cc508cd0818c85b8b8a1ab4ceeef8d981c8956a681565b6102e6610465366004611b26565b6109dc565b61028f610478366004611d4a565b610a01565b61028f60008051602061209c83398151915281565b60006001600160e01b03198216635a05180f60e01b14806104b757506104b782610a2c565b92915050565b606060cc80546104cc90611d78565b80601f01602080910402602001604051908101604052809291908181526020018280546104f890611d78565b80156105455780601f1061051a57610100808354040283529160200191610545565b820191906000526020600020905b81548152906001019060200180831161052857829003601f168201915b5050505050905090565b60003361055d818585610a61565b5060019392505050565b600033610575858285610b85565b610580858585610bff565b506001949350505050565b6000828152606560205260409020600101546105a681610db5565b6105b08383610dbf565b505050565b6001600160a01b038116331461062a5760405162461bcd60e51b815260206004820152602f60248201527f416363657373436f6e74726f6c3a2063616e206f6e6c792072656e6f756e636560448201526e103937b632b9903337b91039b2b63360891b60648201526084015b60405180910390fd5b6106348282610de1565b5050565b60003361055d81858561064b8383610a01565b6106559190611dc8565b610a61565b610662610e03565b565b6106348282610e95565b61067781610f34565b50565b600054610100900460ff161580801561069a5750600054600160ff909116105b806106b45750303b1580156106b4575060005460ff166001145b6106d05760405162461bcd60e51b815260040161062190611ddb565b6000805460ff1916600117905580156106f3576000805461ff0019166101001790555b6106fd8383610f3e565b80156105b0576000805461ff0019169055604051600181527f7f26b83ff96e1f2b6a682f133852f6798a09c465da95921460cefb38474024989060200160405180910390a1505050565b600054610100900460ff16158080156107675750600054600160ff909116105b806107815750303b158015610781575060005460ff166001145b61079d5760405162461bcd60e51b815260040161062190611ddb565b6000805460ff1916600117905580156107c0576000805461ff0019166101001790555b6107ca8686610f3e565b6001600160a01b0383166108205760405162461bcd60e51b815260206004820152601f60248201527f4e6f7465546f6b656e3a20496e76616c696420706f6f6c2061646472657373006044820152606401610621565b6101c3805460ff848116600160a01b026001600160a81b0319918816600160a81b02919091166001600160b01b0319909216919091176001600160a01b0386161717905580156108aa576000805461ff0019169055604051600181527f7f26b83ff96e1f2b6a682f133852f6798a09c465da95921460cefb38474024989060200160405180910390a15b505050505050565b60006108c161012d5460ff1690565b905090565b6108d1823383610b85565b6106348282610f81565b6106626110c1565b60008281526097602052604081206108fb9083611153565b9392505050565b60009182526065602090815260408084206001600160a01b0393909316845291905290205460ff1690565b606060cd80546104cc90611d78565b6000338161094a8286610a01565b9050838110156109aa5760405162461bcd60e51b815260206004820152602560248201527f45524332303a2064656372656173656420616c6c6f77616e63652062656c6f77604482015264207a65726f60d81b6064820152608401610621565b6105808286868403610a61565b60003361055d818585610bff565b60008181526097602052604081206104b79061115f565b6000828152606560205260409020600101546109f781610db5565b6105b08383610de1565b6001600160a01b03918216600090815260ca6020908152604080832093909416825291909152205490565b60006001600160e01b03198216637965db0b60e01b14806104b757506301ffc9a760e01b6001600160e01b03198316146104b7565b6001600160a01b038316610ac35760405162461bcd60e51b8152602060048201526024808201527f45524332303a20617070726f76652066726f6d20746865207a65726f206164646044820152637265737360e01b6064820152608401610621565b6001600160a01b038216610b245760405162461bcd60e51b815260206004820152602260248201527f45524332303a20617070726f766520746f20746865207a65726f206164647265604482015261737360f01b6064820152608401610621565b6001600160a01b03838116600081815260ca602090815260408083209487168084529482529182902085905590518481527f8c5be1e5ebec7d5bd14f71427d1e84f3dd0314c0f7b2291e5b200ac8c7c3b925910160405180910390a3505050565b6000610b918484610a01565b90506000198114610bf95781811015610bec5760405162461bcd60e51b815260206004820152601d60248201527f45524332303a20696e73756666696369656e7420616c6c6f77616e63650000006044820152606401610621565b610bf98484848403610a61565b50505050565b6001600160a01b038316610c635760405162461bcd60e51b815260206004820152602560248201527f45524332303a207472616e736665722066726f6d20746865207a65726f206164604482015264647265737360d81b6064820152608401610621565b6001600160a01b038216610cc55760405162461bcd60e51b815260206004820152602360248201527f45524332303a207472616e7366657220746f20746865207a65726f206164647260448201526265737360e81b6064820152608401610621565b610cd0838383611169565b6001600160a01b038316600090815260c9602052604090205481811015610d485760405162461bcd60e51b815260206004820152602660248201527f45524332303a207472616e7366657220616d6f756e7420657863656564732062604482015265616c616e636560d01b6064820152608401610621565b6001600160a01b03808516600081815260c9602052604080822086860390559286168082529083902080548601905591517fddf252ad1be2c89b69c2b068fc378daa952ba7f163c4a11628f55a4df523b3ef90610da89086815260200190565b60405180910390a3610bf9565b610677813361129d565b610dc982826112f6565b60008281526097602052604090206105b0908261137c565b610deb8282611391565b60008281526097602052604090206105b090826113f8565b610e1b60008051602061209c83398151915233610902565b610e8d5760405162461bcd60e51b815260206004820152603960248201527f45524332305072657365744d696e7465725061757365723a206d75737420686160448201527f76652070617573657220726f6c6520746f20756e7061757365000000000000006064820152608401610621565b61066261140d565b610ebf7f9f2df0fed2c77648de5860a4cc508cd0818c85b8b8a1ab4ceeef8d981c8956a633610902565b610f2a5760405162461bcd60e51b815260206004820152603660248201527f45524332305072657365744d696e7465725061757365723a206d7573742068616044820152751d99481b5a5b9d195c881c9bdb19481d1bc81b5a5b9d60521b6064820152608401610621565b6106348282611460565b6106773382610f81565b600054610100900460ff16610f655760405162461bcd60e51b815260040161062190611e29565b610f6f828261152d565b610f7761156d565b61063482826115a1565b6001600160a01b038216610fe15760405162461bcd60e51b815260206004820152602160248201527f45524332303a206275726e2066726f6d20746865207a65726f206164647265736044820152607360f81b6064820152608401610621565b610fed82600083611169565b6001600160a01b038216600090815260c96020526040902054818110156110615760405162461bcd60e51b815260206004820152602260248201527f45524332303a206275726e20616d6f756e7420657863656564732062616c616e604482015261636560f01b6064820152608401610621565b6001600160a01b038316600081815260c960209081526040808320868603905560cb80548790039055518581529192917fddf252ad1be2c89b69c2b068fc378daa952ba7f163c4a11628f55a4df523b3ef910160405180910390a3505050565b6110d960008051602061209c83398151915233610902565b61114b5760405162461bcd60e51b815260206004820152603760248201527f45524332305072657365744d696e7465725061757365723a206d75737420686160448201527f76652070617573657220726f6c6520746f2070617573650000000000000000006064820152608401610621565b610662611615565b60006108fb8383611653565b60006104b7825490565b6101c35460408051637b10399960e01b815290516000926001600160a01b031691637b103999916004808301926020929190829003018187875af11580156111b5573d6000803e3d6000fd5b505050506040513d601f19601f820116820180604052508101906111d99190611e74565b90506001600160a01b038416158061125e57506040516303d8e1d560e31b81526001600160a01b0385811660048301528481166024830152821690631ec70ea890604401602060405180830381865afa15801561123a573d6000803e3d6000fd5b505050506040513d601f19601f8201168201806040525081019061125e9190611e91565b610bf95760405162461bcd60e51b815260206004820152601060248201526f24b73b30b634b2103a3930b739b332b960811b6044820152606401610621565b6112a78282610902565b610634576112b48161167d565b6112bf83602061168f565b6040516020016112d0929190611eb3565b60408051601f198184030181529082905262461bcd60e51b825261062191600401611a58565b6113008282610902565b6106345760008281526065602090815260408083206001600160a01b03851684529091529020805460ff191660011790556113383390565b6001600160a01b0316816001600160a01b0316837f2f8788117e7eff1d82e926ec794901d17c78024a50270940304540a733656f0d60405160405180910390a45050565b60006108fb836001600160a01b03841661182b565b61139b8282610902565b156106345760008281526065602090815260408083206001600160a01b0385168085529252808320805460ff1916905551339285917ff6391f5c32d9c69d2a47ea670b442974b53935d1edc7fd64eb21e047a839171b9190a45050565b60006108fb836001600160a01b03841661187a565b61141561196d565b61012d805460ff191690557f5db9ee0a495bf2e6ff9c91a7834c1ba4fdd244a5e8aa4e537bd38aeae4b073aa335b6040516001600160a01b03909116815260200160405180910390a1565b6001600160a01b0382166114b65760405162461bcd60e51b815260206004820152601f60248201527f45524332303a206d696e7420746f20746865207a65726f2061646472657373006044820152606401610621565b6114c260008383611169565b8060cb60008282546114d49190611dc8565b90915550506001600160a01b038216600081815260c960209081526040808320805486019055518481527fddf252ad1be2c89b69c2b068fc378daa952ba7f163c4a11628f55a4df523b3ef910160405180910390a35050565b600054610100900460ff166115545760405162461bcd60e51b815260040161062190611e29565b60cc6115608382611f6e565b5060cd6105b08282611f6e565b600054610100900460ff166115945760405162461bcd60e51b815260040161062190611e29565b61012d805460ff19169055565b600054610100900460ff166115c85760405162461bcd60e51b815260040161062190611e29565b6115d36000336119b8565b6115fd7f9f2df0fed2c77648de5860a4cc508cd0818c85b8b8a1ab4ceeef8d981c8956a6336119b8565b61063460008051602061209c833981519152336119b8565b61161d6119c2565b61012d805460ff191660011790557f62e78cea01bee320cd4e420270b5ea74000d11b0c9f74754ebdbfc544b05a2586114433390565b600082600001828154811061166a5761166a61202e565b9060005260206000200154905092915050565b60606104b76001600160a01b03831660145b6060600061169e836002612044565b6116a9906002611dc8565b67ffffffffffffffff8111156116c1576116c1611b56565b6040519080825280601f01601f1916602001820160405280156116eb576020820181803683370190505b509050600360fc1b816000815181106117065761170661202e565b60200101906001600160f81b031916908160001a905350600f60fb1b816001815181106117355761173561202e565b60200101906001600160f81b031916908160001a9053506000611759846002612044565b611764906001611dc8565b90505b60018111156117dc576f181899199a1a9b1b9c1cb0b131b232b360811b85600f16601081106117985761179861202e565b1a60f81b8282815181106117ae576117ae61202e565b60200101906001600160f81b031916908160001a90535060049490941c936117d58161205b565b9050611767565b5083156108fb5760405162461bcd60e51b815260206004820181905260248201527f537472696e67733a20686578206c656e67746820696e73756666696369656e746044820152606401610621565b6000818152600183016020526040812054611872575081546001818101845560008481526020808220909301849055845484825282860190935260409020919091556104b7565b5060006104b7565b6000818152600183016020526040812054801561196357600061189e600183612072565b85549091506000906118b290600190612072565b90508181146119175760008660000182815481106118d2576118d261202e565b90600052602060002001549050808760000184815481106118f5576118f561202e565b6000918252602080832090910192909255918252600188019052604090208390555b855486908061192857611928612085565b6001900381819060005260206000200160009055905585600101600086815260200190815260200160002060009055600193505050506104b7565b60009150506104b7565b6119756108b2565b6106625760405162461bcd60e51b815260206004820152601460248201527314185d5cd8589b194e881b9bdd081c185d5cd95960621b6044820152606401610621565b6106348282610dbf565b6119ca6108b2565b156106625760405162461bcd60e51b815260206004820152601060248201526f14185d5cd8589b194e881c185d5cd95960821b6044820152606401610621565b600060208284031215611a1c57600080fd5b81356001600160e01b0319811681146108fb57600080fd5b60005b83811015611a4f578181015183820152602001611a37565b50506000910152565b6020815260008251806020840152611a77816040850160208701611a34565b601f01601f19169190910160400192915050565b6001600160a01b038116811461067757600080fd5b60008060408385031215611ab357600080fd5b8235611abe81611a8b565b946020939093013593505050565b600080600060608486031215611ae157600080fd5b8335611aec81611a8b565b92506020840135611afc81611a8b565b929592945050506040919091013590565b600060208284031215611b1f57600080fd5b5035919050565b60008060408385031215611b3957600080fd5b823591506020830135611b4b81611a8b565b809150509250929050565b634e487b7160e01b600052604160045260246000fd5b600082601f830112611b7d57600080fd5b813567ffffffffffffffff80821115611b9857611b98611b56565b604051601f8301601f19908116603f01168101908282118183101715611bc057611bc0611b56565b81604052838152866020858801011115611bd957600080fd5b836020870160208301376000602085830101528094505050505092915050565b60008060408385031215611c0c57600080fd5b823567ffffffffffffffff80821115611c2457600080fd5b611c3086838701611b6c565b93506020850135915080821115611c4657600080fd5b50611c5385828601611b6c565b9150509250929050565b803560ff81168114611c6e57600080fd5b919050565b600080600080600060a08688031215611c8b57600080fd5b853567ffffffffffffffff80821115611ca357600080fd5b611caf89838a01611b6c565b96506020880135915080821115611cc557600080fd5b50611cd288828901611b6c565b945050611ce160408701611c5d565b92506060860135611cf181611a8b565b9150611cff60808701611c5d565b90509295509295909350565b600060208284031215611d1d57600080fd5b81356108fb81611a8b565b60008060408385031215611d3b57600080fd5b50508035926020909101359150565b60008060408385031215611d5d57600080fd5b8235611d6881611a8b565b91506020830135611b4b81611a8b565b600181811c90821680611d8c57607f821691505b602082108103611dac57634e487b7160e01b600052602260045260246000fd5b50919050565b634e487b7160e01b600052601160045260246000fd5b808201808211156104b7576104b7611db2565b6020808252602e908201527f496e697469616c697a61626c653a20636f6e747261637420697320616c72656160408201526d191e481a5b9a5d1a585b1a5e995960921b606082015260800190565b6020808252602b908201527f496e697469616c697a61626c653a20636f6e7472616374206973206e6f74206960408201526a6e697469616c697a696e6760a81b606082015260800190565b600060208284031215611e8657600080fd5b81516108fb81611a8b565b600060208284031215611ea357600080fd5b815180151581146108fb57600080fd5b7f416363657373436f6e74726f6c3a206163636f756e7420000000000000000000815260008351611eeb816017850160208801611a34565b7001034b99036b4b9b9b4b733903937b6329607d1b6017918401918201528351611f1c816028840160208801611a34565b01602801949350505050565b601f8211156105b057600081815260208120601f850160051c81016020861015611f4f5750805b601f850160051c820191505b818110156108aa57828155600101611f5b565b815167ffffffffffffffff811115611f8857611f88611b56565b611f9c81611f968454611d78565b84611f28565b602080601f831160018114611fd15760008415611fb95750858301515b600019600386901b1c1916600185901b1785556108aa565b600085815260208120601f198616915b8281101561200057888601518255948401946001909101908401611fe1565b508582101561201e5787850151600019600388901b60f8161c191681555b5050505050600190811b01905550565b634e487b7160e01b600052603260045260246000fd5b80820281158282048414176104b7576104b7611db2565b60008161206a5761206a611db2565b506000190190565b818103818111156104b7576104b7611db2565b634e487b7160e01b600052603160045260246000fdfe65d7a28e3265b37a6474929f336521b332c1681b933f6cb9f3376673440d862aa26469706673582212208df91d7a53bdfa99dbd70636e9c532bab81a8fe1cf0022a86caa2196e44a8d5a64736f6c63430008130033",
  "devdoc": {
    "author": "Untangled Team",
    "details": "Template for SOT/JOT token",
    "events": {
      "Approval(address,address,uint256)": {
        "details": "Emitted when the allowance of a `spender` for an `owner` is set by a call to {approve}. `value` is the new allowance."
      },
      "Initialized(uint8)": {
        "details": "Triggered when the contract has been initialized or reinitialized."
      },
      "Paused(address)": {
        "details": "Emitted when the pause is triggered by `account`."
      },
      "RoleAdminChanged(bytes32,bytes32,bytes32)": {
        "details": "Emitted when `newAdminRole` is set as ``role``'s admin role, replacing `previousAdminRole` `DEFAULT_ADMIN_ROLE` is the starting admin for all roles, despite {RoleAdminChanged} not being emitted signaling this. _Available since v3.1._"
      },
      "RoleGranted(bytes32,address,address)": {
        "details": "Emitted when `account` is granted `role`. `sender` is the account that originated the contract call, an admin role bearer except when using {AccessControl-_setupRole}."
      },
      "RoleRevoked(bytes32,address,address)": {
        "details": "Emitted when `account` is revoked `role`. `sender` is the account that originated the contract call:   - if using `revokeRole`, it is the admin role bearer   - if using `renounceRole`, it is the role bearer (i.e. `account`)"
      },
      "Transfer(address,address,uint256)": {
        "details": "Emitted when `value` tokens are moved from one account (`from`) to another (`to`). Note that `value` may be zero."
      },
      "Unpaused(address)": {
        "details": "Emitted when the pause is lifted by `account`."
      }
    },
    "kind": "dev",
    "methods": {
      "allowance(address,address)": {
        "details": "See {IERC20-allowance}."
      },
      "approve(address,uint256)": {
        "details": "See {IERC20-approve}. NOTE: If `amount` is the maximum `uint256`, the allowance is not updated on `transferFrom`. This is semantically equivalent to an infinite approval. Requirements: - `spender` cannot be the zero address."
      },
      "balanceOf(address)": {
        "details": "See {IERC20-balanceOf}."
      },
      "burnFrom(address,uint256)": {
        "details": "Destroys `amount` tokens from `account`, deducting from the caller's allowance. See {ERC20-_burn} and {ERC20-allowance}. Requirements: - the caller must have allowance for ``accounts``'s tokens of at least `amount`."
      },
      "decreaseAllowance(address,uint256)": {
        "details": "Atomically decreases the allowance granted to `spender` by the caller. This is an alternative to {approve} that can be used as a mitigation for problems described in {IERC20-approve}. Emits an {Approval} event indicating the updated allowance. Requirements: - `spender` cannot be the zero address. - `spender` must have allowance for the caller of at least `subtractedValue`."
      },
      "getRoleAdmin(bytes32)": {
        "details": "Returns the admin role that controls `role`. See {grantRole} and {revokeRole}. To change a role's admin, use {_setRoleAdmin}."
      },
      "getRoleMember(bytes32,uint256)": {
        "details": "Returns one of the accounts that have `role`. `index` must be a value between 0 and {getRoleMemberCount}, non-inclusive. Role bearers are not sorted in any particular way, and their ordering may change at any point. WARNING: When using {getRoleMember} and {getRoleMemberCount}, make sure you perform all queries on the same block. See the following https://forum.openzeppelin.com/t/iterating-over-elements-on-enumerableset-in-openzeppelin-contracts/2296[forum post] for more information."
      },
      "getRoleMemberCount(bytes32)": {
        "details": "Returns the number of accounts that have `role`. Can be used together with {getRoleMember} to enumerate all bearers of a role."
      },
      "grantRole(bytes32,address)": {
        "details": "Grants `role` to `account`. If `account` had not been already granted `role`, emits a {RoleGranted} event. Requirements: - the caller must have ``role``'s admin role. May emit a {RoleGranted} event."
      },
      "hasRole(bytes32,address)": {
        "details": "Returns `true` if `account` has been granted `role`."
      },
      "increaseAllowance(address,uint256)": {
        "details": "Atomically increases the allowance granted to `spender` by the caller. This is an alternative to {approve} that can be used as a mitigation for problems described in {IERC20-approve}. Emits an {Approval} event indicating the updated allowance. Requirements: - `spender` cannot be the zero address."
      },
      "name()": {
        "details": "Returns the name of the token."
      },
      "renounceRole(bytes32,address)": {
        "details": "Revokes `role` from the calling account. Roles are often managed via {grantRole} and {revokeRole}: this function's purpose is to provide a mechanism for accounts to lose their privileges if they are compromised (such as when a trusted device is misplaced). If the calling account had been revoked `role`, emits a {RoleRevoked} event. Requirements: - the caller must be `account`. May emit a {RoleRevoked} event."
      },
      "revokeRole(bytes32,address)": {
        "details": "Revokes `role` from `account`. If `account` had been granted `role`, emits a {RoleRevoked} event. Requirements: - the caller must have ``role``'s admin role. May emit a {RoleRevoked} event."
      },
      "supportsInterface(bytes4)": {
        "details": "See {IERC165-supportsInterface}."
      },
      "symbol()": {
        "details": "Returns the symbol of the token, usually a shorter version of the name."
      },
      "totalSupply()": {
        "details": "See {IERC20-totalSupply}."
      },
      "transfer(address,uint256)": {
        "details": "See {IERC20-transfer}. Requirements: - `to` cannot be the zero address. - the caller must have a balance of at least `amount`."
      },
      "transferFrom(address,address,uint256)": {
        "details": "See {IERC20-transferFrom}. Emits an {Approval} event indicating the updated allowance. This is not required by the EIP. See the note at the beginning of {ERC20}. NOTE: Does not update the allowance if the current allowance is the maximum `uint256`. Requirements: - `from` and `to` cannot be the zero address. - `from` must have a balance of at least `amount`. - the caller must have allowance for ``from``'s tokens of at least `amount`."
      }
    },
    "title": "NoteToken",
    "version": 1
  },
  "userdoc": {
    "kind": "user",
    "methods": {},
    "version": 1
  },
  "storageLayout": {
    "storage": [
      {
        "astId": 759,
        "contract": "contracts/tokens/ERC20/NoteToken.sol:NoteToken",
        "label": "_initialized",
        "offset": 0,
        "slot": "0",
        "type": "t_uint8"
      },
      {
        "astId": 762,
        "contract": "contracts/tokens/ERC20/NoteToken.sol:NoteToken",
        "label": "_initializing",
        "offset": 1,
        "slot": "0",
        "type": "t_bool"
      },
      {
        "astId": 5888,
        "contract": "contracts/tokens/ERC20/NoteToken.sol:NoteToken",
        "label": "__gap",
        "offset": 0,
        "slot": "1",
        "type": "t_array(t_uint256)50_storage"
      },
      {
        "astId": 7178,
        "contract": "contracts/tokens/ERC20/NoteToken.sol:NoteToken",
        "label": "__gap",
        "offset": 0,
        "slot": "51",
        "type": "t_array(t_uint256)50_storage"
      },
      {
        "astId": 184,
        "contract": "contracts/tokens/ERC20/NoteToken.sol:NoteToken",
        "label": "_roles",
        "offset": 0,
        "slot": "101",
        "type": "t_mapping(t_bytes32,t_struct(RoleData)179_storage)"
      },
      {
        "astId": 479,
        "contract": "contracts/tokens/ERC20/NoteToken.sol:NoteToken",
        "label": "__gap",
        "offset": 0,
        "slot": "102",
        "type": "t_array(t_uint256)49_storage"
      },
      {
        "astId": 33,
        "contract": "contracts/tokens/ERC20/NoteToken.sol:NoteToken",
        "label": "_roleMembers",
        "offset": 0,
        "slot": "151",
        "type": "t_mapping(t_bytes32,t_struct(AddressSet)8488_storage)"
      },
      {
        "astId": 143,
        "contract": "contracts/tokens/ERC20/NoteToken.sol:NoteToken",
        "label": "__gap",
        "offset": 0,
        "slot": "152",
        "type": "t_array(t_uint256)49_storage"
      },
      {
        "astId": 2645,
        "contract": "contracts/tokens/ERC20/NoteToken.sol:NoteToken",
        "label": "_balances",
        "offset": 0,
        "slot": "201",
        "type": "t_mapping(t_address,t_uint256)"
      },
      {
        "astId": 2651,
        "contract": "contracts/tokens/ERC20/NoteToken.sol:NoteToken",
        "label": "_allowances",
        "offset": 0,
        "slot": "202",
        "type": "t_mapping(t_address,t_mapping(t_address,t_uint256))"
      },
      {
        "astId": 2653,
        "contract": "contracts/tokens/ERC20/NoteToken.sol:NoteToken",
        "label": "_totalSupply",
        "offset": 0,
        "slot": "203",
        "type": "t_uint256"
      },
      {
        "astId": 2655,
        "contract": "contracts/tokens/ERC20/NoteToken.sol:NoteToken",
        "label": "_name",
        "offset": 0,
        "slot": "204",
        "type": "t_string_storage"
      },
      {
        "astId": 2657,
        "contract": "contracts/tokens/ERC20/NoteToken.sol:NoteToken",
        "label": "_symbol",
        "offset": 0,
        "slot": "205",
        "type": "t_string_storage"
      },
      {
        "astId": 3237,
        "contract": "contracts/tokens/ERC20/NoteToken.sol:NoteToken",
        "label": "__gap",
        "offset": 0,
        "slot": "206",
        "type": "t_array(t_uint256)45_storage"
      },
      {
        "astId": 3379,
        "contract": "contracts/tokens/ERC20/NoteToken.sol:NoteToken",
        "label": "__gap",
        "offset": 0,
        "slot": "251",
        "type": "t_array(t_uint256)50_storage"
      },
      {
        "astId": 942,
        "contract": "contracts/tokens/ERC20/NoteToken.sol:NoteToken",
        "label": "_paused",
        "offset": 0,
        "slot": "301",
        "type": "t_bool"
      },
      {
        "astId": 1047,
        "contract": "contracts/tokens/ERC20/NoteToken.sol:NoteToken",
        "label": "__gap",
        "offset": 0,
        "slot": "302",
        "type": "t_array(t_uint256)49_storage"
      },
      {
        "astId": 3439,
        "contract": "contracts/tokens/ERC20/NoteToken.sol:NoteToken",
        "label": "__gap",
        "offset": 0,
        "slot": "351",
        "type": "t_array(t_uint256)50_storage"
      },
      {
        "astId": 3644,
        "contract": "contracts/tokens/ERC20/NoteToken.sol:NoteToken",
        "label": "__gap",
        "offset": 0,
        "slot": "401",
        "type": "t_array(t_uint256)50_storage"
      },
      {
        "astId": 30239,
        "contract": "contracts/tokens/ERC20/NoteToken.sol:NoteToken",
        "label": "_poolAddress",
        "offset": 0,
        "slot": "451",
        "type": "t_address"
      },
      {
        "astId": 30241,
        "contract": "contracts/tokens/ERC20/NoteToken.sol:NoteToken",
        "label": "_noteTokenType",
        "offset": 20,
        "slot": "451",
        "type": "t_uint8"
      },
      {
        "astId": 30243,
        "contract": "contracts/tokens/ERC20/NoteToken.sol:NoteToken",
        "label": "_decimals",
        "offset": 21,
        "slot": "451",
        "type": "t_uint8"
      }
    ],
    "types": {
      "t_address": {
        "encoding": "inplace",
        "label": "address",
        "numberOfBytes": "20"
      },
      "t_array(t_bytes32)dyn_storage": {
        "base": "t_bytes32",
        "encoding": "dynamic_array",
        "label": "bytes32[]",
        "numberOfBytes": "32"
      },
      "t_array(t_uint256)45_storage": {
        "base": "t_uint256",
        "encoding": "inplace",
        "label": "uint256[45]",
        "numberOfBytes": "1440"
      },
      "t_array(t_uint256)49_storage": {
        "base": "t_uint256",
        "encoding": "inplace",
        "label": "uint256[49]",
        "numberOfBytes": "1568"
      },
      "t_array(t_uint256)50_storage": {
        "base": "t_uint256",
        "encoding": "inplace",
        "label": "uint256[50]",
        "numberOfBytes": "1600"
      },
      "t_bool": {
        "encoding": "inplace",
        "label": "bool",
        "numberOfBytes": "1"
      },
      "t_bytes32": {
        "encoding": "inplace",
        "label": "bytes32",
        "numberOfBytes": "32"
      },
      "t_mapping(t_address,t_bool)": {
        "encoding": "mapping",
        "key": "t_address",
        "label": "mapping(address => bool)",
        "numberOfBytes": "32",
        "value": "t_bool"
      },
      "t_mapping(t_address,t_mapping(t_address,t_uint256))": {
        "encoding": "mapping",
        "key": "t_address",
        "label": "mapping(address => mapping(address => uint256))",
        "numberOfBytes": "32",
        "value": "t_mapping(t_address,t_uint256)"
      },
      "t_mapping(t_address,t_uint256)": {
        "encoding": "mapping",
        "key": "t_address",
        "label": "mapping(address => uint256)",
        "numberOfBytes": "32",
        "value": "t_uint256"
      },
      "t_mapping(t_bytes32,t_struct(AddressSet)8488_storage)": {
        "encoding": "mapping",
        "key": "t_bytes32",
        "label": "mapping(bytes32 => struct EnumerableSetUpgradeable.AddressSet)",
        "numberOfBytes": "32",
        "value": "t_struct(AddressSet)8488_storage"
      },
      "t_mapping(t_bytes32,t_struct(RoleData)179_storage)": {
        "encoding": "mapping",
        "key": "t_bytes32",
        "label": "mapping(bytes32 => struct AccessControlUpgradeable.RoleData)",
        "numberOfBytes": "32",
        "value": "t_struct(RoleData)179_storage"
      },
      "t_mapping(t_bytes32,t_uint256)": {
        "encoding": "mapping",
        "key": "t_bytes32",
        "label": "mapping(bytes32 => uint256)",
        "numberOfBytes": "32",
        "value": "t_uint256"
      },
      "t_string_storage": {
        "encoding": "bytes",
        "label": "string",
        "numberOfBytes": "32"
      },
      "t_struct(AddressSet)8488_storage": {
        "encoding": "inplace",
        "label": "struct EnumerableSetUpgradeable.AddressSet",
        "members": [
          {
            "astId": 8487,
            "contract": "contracts/tokens/ERC20/NoteToken.sol:NoteToken",
            "label": "_inner",
            "offset": 0,
            "slot": "0",
            "type": "t_struct(Set)8173_storage"
          }
        ],
        "numberOfBytes": "64"
      },
      "t_struct(RoleData)179_storage": {
        "encoding": "inplace",
        "label": "struct AccessControlUpgradeable.RoleData",
        "members": [
          {
            "astId": 176,
            "contract": "contracts/tokens/ERC20/NoteToken.sol:NoteToken",
            "label": "members",
            "offset": 0,
            "slot": "0",
            "type": "t_mapping(t_address,t_bool)"
          },
          {
            "astId": 178,
            "contract": "contracts/tokens/ERC20/NoteToken.sol:NoteToken",
            "label": "adminRole",
            "offset": 0,
            "slot": "1",
            "type": "t_bytes32"
          }
        ],
        "numberOfBytes": "64"
      },
      "t_struct(Set)8173_storage": {
        "encoding": "inplace",
        "label": "struct EnumerableSetUpgradeable.Set",
        "members": [
          {
            "astId": 8168,
            "contract": "contracts/tokens/ERC20/NoteToken.sol:NoteToken",
            "label": "_values",
            "offset": 0,
            "slot": "0",
            "type": "t_array(t_bytes32)dyn_storage"
          },
          {
            "astId": 8172,
            "contract": "contracts/tokens/ERC20/NoteToken.sol:NoteToken",
            "label": "_indexes",
            "offset": 0,
            "slot": "1",
            "type": "t_mapping(t_bytes32,t_uint256)"
          }
        ],
        "numberOfBytes": "64"
      },
      "t_uint256": {
        "encoding": "inplace",
        "label": "uint256",
        "numberOfBytes": "32"
      },
      "t_uint8": {
        "encoding": "inplace",
        "label": "uint8",
        "numberOfBytes": "1"
      }
    }
  }
}