{
  "address": "0x8c671C1ea0206f317363C20F4ae983EbbFfBBe5c",
  "abi": [
    {
      "anonymous": false,
      "inputs": [
        {
          "indexed": false,
          "internalType": "uint8",
          "name": "version",
          "type": "uint8"
        }
      ],
      "name": "Initialized",
      "type": "event"
    },
    {
      "anonymous": false,
      "inputs": [
        {
          "indexed": false,
          "internalType": "address",
          "name": "account",
          "type": "address"
        }
      ],
      "name": "Paused",
      "type": "event"
    },
    {
      "anonymous": false,
      "inputs": [
        {
          "indexed": false,
          "internalType": "address",
          "name": "account",
          "type": "address"
        }
      ],
      "name": "Unpaused",
      "type": "event"
    },
    {
      "inputs": [
        {
          "internalType": "address",
          "name": "account",
          "type": "address"
        }
      ],
      "name": "balanceOf",
      "outputs": [
        {
          "internalType": "uint256",
          "name": "",
          "type": "uint256"
        }
      ],
      "stateMutability": "view",
      "type": "function"
    },
    {
      "inputs": [
        {
          "internalType": "address",
          "name": "user",
          "type": "address"
        }
      ],
      "name": "calcUserIncome",
      "outputs": [
        {
          "internalType": "uint256",
          "name": "",
          "type": "uint256"
        }
      ],
      "stateMutability": "view",
      "type": "function"
    },
    {
      "inputs": [
        {
          "internalType": "address",
          "name": "",
          "type": "address"
        }
      ],
      "name": "capitalBalance",
      "outputs": [
        {
          "internalType": "uint256",
          "name": "",
          "type": "uint256"
        }
      ],
      "stateMutability": "view",
      "type": "function"
    },
    {
      "inputs": [
        {
          "internalType": "address",
          "name": "user",
          "type": "address"
        }
      ],
      "name": "claimIncome",
      "outputs": [],
      "stateMutability": "nonpayable",
      "type": "function"
    },
    {
      "inputs": [],
      "name": "decimals",
      "outputs": [
        {
          "internalType": "uint256",
          "name": "",
          "type": "uint256"
        }
      ],
      "stateMutability": "view",
      "type": "function"
    },
    {
      "inputs": [
        {
          "internalType": "uint256",
          "name": "currencyAmount",
          "type": "uint256"
        }
      ],
      "name": "distributeIncome",
      "outputs": [],
      "stateMutability": "nonpayable",
      "type": "function"
    },
    {
      "inputs": [],
      "name": "getPrice",
      "outputs": [
        {
          "internalType": "uint256",
          "name": "price",
          "type": "uint256"
        }
      ],
      "stateMutability": "view",
      "type": "function"
    },
    {
      "inputs": [
        {
          "internalType": "string",
          "name": "name_",
          "type": "string"
        },
        {
          "internalType": "string",
          "name": "symbol_",
          "type": "string"
        },
        {
          "internalType": "uint256",
          "name": "decimals_",
          "type": "uint256"
        },
        {
          "internalType": "address",
          "name": "poolAddress",
          "type": "address"
        },
        {
          "internalType": "address",
          "name": "noteTokenManagerAddress",
          "type": "address"
        },
        {
          "internalType": "uint8",
          "name": "tokenType",
          "type": "uint8"
        }
      ],
      "name": "initialize",
      "outputs": [],
      "stateMutability": "nonpayable",
      "type": "function"
    },
    {
      "inputs": [
        {
          "internalType": "address",
          "name": "to",
          "type": "address"
        },
        {
          "internalType": "uint256",
          "name": "currencyAmount",
          "type": "uint256"
        }
      ],
      "name": "mint",
      "outputs": [],
      "stateMutability": "nonpayable",
      "type": "function"
    },
    {
      "inputs": [],
      "name": "name",
      "outputs": [
        {
          "internalType": "string",
          "name": "",
          "type": "string"
        }
      ],
      "stateMutability": "view",
      "type": "function"
    },
    {
      "inputs": [],
      "name": "paused",
      "outputs": [
        {
          "internalType": "bool",
          "name": "",
          "type": "bool"
        }
      ],
      "stateMutability": "view",
      "type": "function"
    },
    {
      "inputs": [],
      "name": "pool",
      "outputs": [
        {
          "internalType": "address",
          "name": "",
          "type": "address"
        }
      ],
      "stateMutability": "view",
      "type": "function"
    },
    {
      "inputs": [
        {
          "internalType": "address",
          "name": "user",
          "type": "address"
        },
        {
          "internalType": "uint256",
          "name": "currencyAmount",
          "type": "uint256"
        }
      ],
      "name": "redeem",
      "outputs": [],
      "stateMutability": "nonpayable",
      "type": "function"
    },
    {
      "inputs": [],
      "name": "registry",
      "outputs": [
        {
          "internalType": "contract Registry",
          "name": "",
          "type": "address"
        }
      ],
      "stateMutability": "view",
      "type": "function"
    },
    {
      "inputs": [],
      "name": "symbol",
      "outputs": [
        {
          "internalType": "string",
          "name": "",
          "type": "string"
        }
      ],
      "stateMutability": "view",
      "type": "function"
    },
    {
      "inputs": [],
      "name": "totalSupply",
      "outputs": [
        {
          "internalType": "uint256",
          "name": "",
          "type": "uint256"
        }
      ],
      "stateMutability": "view",
      "type": "function"
    },
    {
      "inputs": [
        {
          "internalType": "address",
          "name": "to",
          "type": "address"
        },
        {
          "internalType": "uint256",
          "name": "currencyAmount",
          "type": "uint256"
        }
      ],
      "name": "transfer",
      "outputs": [
        {
          "internalType": "bool",
          "name": "",
          "type": "bool"
        }
      ],
      "stateMutability": "nonpayable",
      "type": "function"
    },
    {
      "inputs": [
        {
          "internalType": "address",
          "name": "",
          "type": "address"
        }
      ],
      "name": "unclaimedIncomeBalance",
      "outputs": [
        {
          "internalType": "uint256",
          "name": "",
          "type": "uint256"
        }
      ],
      "stateMutability": "view",
      "type": "function"
    },
    {
      "inputs": [
        {
          "internalType": "address",
          "name": "",
          "type": "address"
        }
      ],
      "name": "userIndex",
      "outputs": [
        {
          "internalType": "uint256",
          "name": "",
          "type": "uint256"
        }
      ],
      "stateMutability": "view",
      "type": "function"
    }
  ],
  "transactionHash": "0xd0d038f452eb002dd6d6db92ad29ae870e2e515c1750c0d934f669bb313ef19d",
  "args": [],
  "numDeployments": 1,
  "solcInputHash": "d74ce3ac52532bb456b599bdc8ee57ee",
  "bytecode": "0x608060405234801561001057600080fd5b5061124e806100206000396000f3fe608060405234801561001057600080fd5b50600436106101215760003560e01c80638262ad24116100ad578063c96679fe11610071578063c96679fe1461023e578063cdabbc061461025e578063ef06fb7314610271578063fe0ce2b714610284578063fe4e593c1461029757600080fd5b80638262ad24146101e85780638da4576e1461020857806395d89b411461021b57806398d5fdca14610223578063a9059cbb1461022b57600080fd5b8063313ce567116100f4578063313ce5671461019057806340c10f19146101985780635c975abb146101ab57806370a08231146101c25780637b103999146101d557600080fd5b806306fdde031461012657806316f0115b1461014457806318160ddd146101695780631e9a69501461017b575b600080fd5b61012e6102b7565b60405161013b9190610cf4565b60405180910390f35b6069546001600160a01b03165b6040516001600160a01b03909116815260200161013b565b6067545b60405190815260200161013b565b61018e610189366004610d5e565b610345565b005b60685461016d565b61018e6101a6366004610d5e565b6103f6565b60335460ff165b604051901515815260200161013b565b61016d6101d0366004610d88565b6104b9565b606b54610151906001600160a01b031681565b61016d6101f6366004610d88565b606f6020526000908152604090205481565b61018e610216366004610d88565b610504565b61012e610537565b61016d610544565b6101b2610239366004610d5e565b610671565b61016d61024c366004610d88565b60706020526000908152604090205481565b61018e61026c366004610e4d565b61073f565b61018e61027f366004610ef5565b610944565b61016d610292366004610d88565b610994565b61016d6102a5366004610d88565b60716020526000908152604090205481565b606d80546102c490610f0e565b80601f01602080910402602001604051908101604052809291908181526020018280546102f090610f0e565b801561033d5780601f106103125761010080835404028352916020019161033d565b820191906000526020600020905b81548152906001019060200180831161032057829003601f168201915b505050505081565b61034d610a0e565b6001600160a01b0382166000908152606f60205260409020548111156103b25760405162461bcd60e51b81526020600482015260156024820152741a5b9d985b1a59081c995919595b48185b5bdd5b9d605a1b60448201526064015b60405180910390fd5b6103bb82610a6a565b6001600160a01b0382166000908152606f6020526040812080548392906103e3908490610f5e565b909155506103f2905081610aa1565b5050565b6103fe610a0e565b606a546040516373bc6ee960e11b81526001600160a01b0384811660048301529091169063e778ddd290602401602060405180830381865afa158015610448573d6000803e3d6000fd5b505050506040513d601f19601f8201168201806040525081019061046c9190610f71565b6104a65760405162461bcd60e51b815260206004820152600b60248201526a1a5b9d985b1a59081d5a5960aa1b60448201526064016103a9565b6104af82610a6a565b6103f28282610b3b565b60006104c3610544565b6068546104d190600a611077565b6001600160a01b0384166000908152606f60205260409020546104f49190611083565b6104fe919061109a565b92915050565b61050c610a0e565b6001600160a01b03166000908152607160209081526040808320839055606654607090925290912055565b606e80546102c490610f0e565b60006001606b54600160a01b900460ff166001811115610566576105666110bc565b036105da57606954604080516303a6fd3960e21b815281516001600160a01b0390931692630e9bf4e4926004808401939192918290030181865afa1580156105b2573d6000803e3d6000fd5b505050506040513d601f19601f820116820180604052508101906105d691906110d2565b5090505b6000606b54600160a01b900460ff1660018111156105fa576105fa6110bc565b0361066e57606954604080516303a6fd3960e21b815281516001600160a01b0390931692630e9bf4e4926004808401939192918290030181865afa158015610646573d6000803e3d6000fd5b505050506040513d601f19601f8201168201806040525081019061066a91906110d2565b9150505b90565b606a546040516373bc6ee960e11b81526001600160a01b038481166004830152600092169063e778ddd290602401602060405180830381865afa1580156106bc573d6000803e3d6000fd5b505050506040513d601f19601f820116820180604052508101906106e09190610f71565b61071a5760405162461bcd60e51b815260206004820152600b60248201526a1a5b9d985b1a59081d5a5960aa1b60448201526064016103a9565b61072383610a6a565b61072c33610a6a565b6107368383610bbd565b50600192915050565b600054610100900460ff161580801561075f5750600054600160ff909116105b806107795750303b158015610779575060005460ff166001145b6107dc5760405162461bcd60e51b815260206004820152602e60248201527f496e697469616c697a61626c653a20636f6e747261637420697320616c72656160448201526d191e481a5b9a5d1a585b1a5e995960921b60648201526084016103a9565b6000805460ff1916600117905580156107ff576000805461ff0019166101001790555b6001600160a01b03841661086a5760405162461bcd60e51b815260206004820152602c60248201527f4e6f7465546f6b656e3a20506f6f6c20616464726573732063616e277420626560448201526b01030b2323932b9b9941814960a51b60648201526084016103a9565b606d6108768882611145565b50606e6108838782611145565b506068859055606980546001600160a01b038087166001600160a01b031992831617909255606a80549286169290911691909117905560ff821660018111156108ce576108ce6110bc565b606b805460ff60a01b1916600160a01b8360018111156108f0576108f06110bc565b0217905550801561093b576000805461ff0019169055604051600181527f7f26b83ff96e1f2b6a682f133852f6798a09c465da95921460cefb38474024989060200160405180910390a15b50505050505050565b61094c610cae565b60655460685461095d90600a611077565b6109679083611083565b610971919061109a565b606660008282546109829190611205565b90915550610991905081610aa1565b50565b6000606854600a6109a59190611077565b6001600160a01b0383166000908152606f60209081526040808320546070909252909120546066546109d79190610f5e565b6109e19190611083565b6109eb919061109a565b6001600160a01b0383166000908152607160205260409020546104fe9190611205565b606a546001600160a01b03163314610a685760405162461bcd60e51b815260206004820152601760248201527f6f6e6c79206e6f746520746f6b656e206d616e6167657200000000000000000060448201526064016103a9565b565b610a7381610994565b6001600160a01b03909116600090815260716020908152604080832093909355606654607090915291902055565b6000610aab610544565b606854610ab990600a611077565b610ac39084611083565b610acd919061109a565b90506067548110610b205760405162461bcd60e51b815260206004820152601960248201527f696e76616c6964206275726e20746f6b656e20616d6f756e740000000000000060448201526064016103a9565b8060676000828254610b329190610f5e565b90915550505050565b6001600160a01b0382166000908152606f602052604081208054839290610b63908490611205565b90915550610b719050610544565b606854610b7f90600a611077565b610b899083611083565b610b93919061109a565b60676000828254610ba49190611205565b925050819055508060656000828254610b329190611205565b6001600160a01b038216610c0c5760405162461bcd60e51b81526020600482015260166024820152757472616e7366657220746f206164647265737328302960501b60448201526064016103a9565b336000908152606f6020526040902054811115610c625760405162461bcd60e51b8152602060048201526014602482015273696e73756666696369656e742062616c616e636560601b60448201526064016103a9565b336000908152606f602052604081208054839290610c81908490610f5e565b90915550506001600160a01b0382166000908152606f602052604081208054839290610b32908490611205565b6069546001600160a01b03163314610a685760405162461bcd60e51b81526020600482015260096024820152681bdb9b1e481c1bdbdb60ba1b60448201526064016103a9565b600060208083528351808285015260005b81811015610d2157858101830151858201604001528201610d05565b506000604082860101526040601f19601f8301168501019250505092915050565b80356001600160a01b0381168114610d5957600080fd5b919050565b60008060408385031215610d7157600080fd5b610d7a83610d42565b946020939093013593505050565b600060208284031215610d9a57600080fd5b610da382610d42565b9392505050565b634e487b7160e01b600052604160045260246000fd5b600082601f830112610dd157600080fd5b813567ffffffffffffffff80821115610dec57610dec610daa565b604051601f8301601f19908116603f01168101908282118183101715610e1457610e14610daa565b81604052838152866020858801011115610e2d57600080fd5b836020870160208301376000602085830101528094505050505092915050565b60008060008060008060c08789031215610e6657600080fd5b863567ffffffffffffffff80821115610e7e57600080fd5b610e8a8a838b01610dc0565b97506020890135915080821115610ea057600080fd5b50610ead89828a01610dc0565b95505060408701359350610ec360608801610d42565b9250610ed160808801610d42565b915060a087013560ff81168114610ee757600080fd5b809150509295509295509295565b600060208284031215610f0757600080fd5b5035919050565b600181811c90821680610f2257607f821691505b602082108103610f4257634e487b7160e01b600052602260045260246000fd5b50919050565b634e487b7160e01b600052601160045260246000fd5b818103818111156104fe576104fe610f48565b600060208284031215610f8357600080fd5b81518015158114610da357600080fd5b600181815b80851115610fce578160001904821115610fb457610fb4610f48565b80851615610fc157918102915b93841c9390800290610f98565b509250929050565b600082610fe5575060016104fe565b81610ff2575060006104fe565b816001811461100857600281146110125761102e565b60019150506104fe565b60ff84111561102357611023610f48565b50506001821b6104fe565b5060208310610133831016604e8410600b8410161715611051575081810a6104fe565b61105b8383610f93565b806000190482111561106f5761106f610f48565b029392505050565b6000610da38383610fd6565b80820281158282048414176104fe576104fe610f48565b6000826110b757634e487b7160e01b600052601260045260246000fd5b500490565b634e487b7160e01b600052602160045260246000fd5b600080604083850312156110e557600080fd5b505080516020909101519092909150565b601f82111561114057600081815260208120601f850160051c8101602086101561111d5750805b601f850160051c820191505b8181101561113c57828155600101611129565b5050505b505050565b815167ffffffffffffffff81111561115f5761115f610daa565b6111738161116d8454610f0e565b846110f6565b602080601f8311600181146111a857600084156111905750858301515b600019600386901b1c1916600185901b17855561113c565b600085815260208120601f198616915b828110156111d7578886015182559484019460019091019084016111b8565b50858210156111f55787850151600019600388901b60f8161c191681555b5050505050600190811b01905550565b808201808211156104fe576104fe610f4856fea26469706673582212204c8a4b7b6060f92da1924eba963562db2fa3329ac4add50a44ae8daf4a0ad46364736f6c63430008130033",
  "devdoc": {
    "events": {
      "Initialized(uint8)": {
        "details": "Triggered when the contract has been initialized or reinitialized."
      },
      "Paused(address)": {
        "details": "Emitted when the pause is triggered by `account`."
      },
      "Unpaused(address)": {
        "details": "Emitted when the pause is lifted by `account`."
      }
    },
    "kind": "dev",
    "methods": {
      "paused()": {
        "details": "Returns true if the contract is paused, and false otherwise."
      }
    },
    "version": 1
  },
  "userdoc": {
    "kind": "user",
    "methods": {},
    "version": 1
  },
  "storageLayout": {
    "storage": [
      {
        "astId": 759,
        "contract": "contracts/tokens/ERC20/NoteToken.sol:NoteToken",
        "label": "_initialized",
        "offset": 0,
        "slot": "0",
        "type": "t_uint8"
      },
      {
        "astId": 762,
        "contract": "contracts/tokens/ERC20/NoteToken.sol:NoteToken",
        "label": "_initializing",
        "offset": 1,
        "slot": "0",
        "type": "t_bool"
      },
      {
        "astId": 4947,
        "contract": "contracts/tokens/ERC20/NoteToken.sol:NoteToken",
        "label": "__gap",
        "offset": 0,
        "slot": "1",
        "type": "t_array(t_uint256)50_storage"
      },
      {
        "astId": 942,
        "contract": "contracts/tokens/ERC20/NoteToken.sol:NoteToken",
        "label": "_paused",
        "offset": 0,
        "slot": "51",
        "type": "t_bool"
      },
      {
        "astId": 1047,
        "contract": "contracts/tokens/ERC20/NoteToken.sol:NoteToken",
        "label": "__gap",
        "offset": 0,
        "slot": "52",
        "type": "t_array(t_uint256)49_storage"
      },
      {
        "astId": 29843,
        "contract": "contracts/tokens/ERC20/NoteToken.sol:NoteToken",
        "label": "totalCapital",
        "offset": 0,
        "slot": "101",
        "type": "t_uint256"
      },
      {
        "astId": 29845,
        "contract": "contracts/tokens/ERC20/NoteToken.sol:NoteToken",
        "label": "systemIndex",
        "offset": 0,
        "slot": "102",
        "type": "t_uint256"
      },
      {
        "astId": 29847,
        "contract": "contracts/tokens/ERC20/NoteToken.sol:NoteToken",
        "label": "_totalSupply",
        "offset": 0,
        "slot": "103",
        "type": "t_uint256"
      },
      {
        "astId": 29849,
        "contract": "contracts/tokens/ERC20/NoteToken.sol:NoteToken",
        "label": "_decimals",
        "offset": 0,
        "slot": "104",
        "type": "t_uint256"
      },
      {
        "astId": 29851,
        "contract": "contracts/tokens/ERC20/NoteToken.sol:NoteToken",
        "label": "_pool",
        "offset": 0,
        "slot": "105",
        "type": "t_address"
      },
      {
        "astId": 29853,
        "contract": "contracts/tokens/ERC20/NoteToken.sol:NoteToken",
        "label": "_noteTokenManager",
        "offset": 0,
        "slot": "106",
        "type": "t_address"
      },
      {
        "astId": 29856,
        "contract": "contracts/tokens/ERC20/NoteToken.sol:NoteToken",
        "label": "registry",
        "offset": 0,
        "slot": "107",
        "type": "t_contract(Registry)29773"
      },
      {
        "astId": 29859,
        "contract": "contracts/tokens/ERC20/NoteToken.sol:NoteToken",
        "label": "_noteTokenType",
        "offset": 20,
        "slot": "107",
        "type": "t_enum(NOTE_TOKEN_TYPE)13490"
      },
      {
        "astId": 29862,
        "contract": "contracts/tokens/ERC20/NoteToken.sol:NoteToken",
        "label": "allowedUIDTypes",
        "offset": 0,
        "slot": "108",
        "type": "t_array(t_uint256)dyn_storage"
      },
      {
        "astId": 29864,
        "contract": "contracts/tokens/ERC20/NoteToken.sol:NoteToken",
        "label": "name",
        "offset": 0,
        "slot": "109",
        "type": "t_string_storage"
      },
      {
        "astId": 29866,
        "contract": "contracts/tokens/ERC20/NoteToken.sol:NoteToken",
        "label": "symbol",
        "offset": 0,
        "slot": "110",
        "type": "t_string_storage"
      },
      {
        "astId": 29870,
        "contract": "contracts/tokens/ERC20/NoteToken.sol:NoteToken",
        "label": "capitalBalance",
        "offset": 0,
        "slot": "111",
        "type": "t_mapping(t_address,t_uint256)"
      },
      {
        "astId": 29874,
        "contract": "contracts/tokens/ERC20/NoteToken.sol:NoteToken",
        "label": "userIndex",
        "offset": 0,
        "slot": "112",
        "type": "t_mapping(t_address,t_uint256)"
      },
      {
        "astId": 29878,
        "contract": "contracts/tokens/ERC20/NoteToken.sol:NoteToken",
        "label": "unclaimedIncomeBalance",
        "offset": 0,
        "slot": "113",
        "type": "t_mapping(t_address,t_uint256)"
      }
    ],
    "types": {
      "t_address": {
        "encoding": "inplace",
        "label": "address",
        "numberOfBytes": "20"
      },
      "t_array(t_uint256)49_storage": {
        "base": "t_uint256",
        "encoding": "inplace",
        "label": "uint256[49]",
        "numberOfBytes": "1568"
      },
      "t_array(t_uint256)50_storage": {
        "base": "t_uint256",
        "encoding": "inplace",
        "label": "uint256[50]",
        "numberOfBytes": "1600"
      },
      "t_array(t_uint256)dyn_storage": {
        "base": "t_uint256",
        "encoding": "dynamic_array",
        "label": "uint256[]",
        "numberOfBytes": "32"
      },
      "t_bool": {
        "encoding": "inplace",
        "label": "bool",
        "numberOfBytes": "1"
      },
      "t_contract(Registry)29773": {
        "encoding": "inplace",
        "label": "contract Registry",
        "numberOfBytes": "20"
      },
      "t_enum(NOTE_TOKEN_TYPE)13490": {
        "encoding": "inplace",
        "label": "enum Configuration.NOTE_TOKEN_TYPE",
        "numberOfBytes": "1"
      },
      "t_mapping(t_address,t_uint256)": {
        "encoding": "mapping",
        "key": "t_address",
        "label": "mapping(address => uint256)",
        "numberOfBytes": "32",
        "value": "t_uint256"
      },
      "t_string_storage": {
        "encoding": "bytes",
        "label": "string",
        "numberOfBytes": "32"
      },
      "t_uint256": {
        "encoding": "inplace",
        "label": "uint256",
        "numberOfBytes": "32"
      },
      "t_uint8": {
        "encoding": "inplace",
        "label": "uint8",
        "numberOfBytes": "1"
      }
    }
  }
}