{
  "address": "0xF1B7282B919e9C8A4F774EeeeF87dE94A7f6c1f2",
  "abi": [
    {
      "anonymous": false,
      "inputs": [
        {
          "indexed": false,
          "internalType": "address",
          "name": "pot",
          "type": "address"
        },
        {
          "indexed": false,
          "internalType": "address",
          "name": "recipientWallet",
          "type": "address"
        },
        {
          "indexed": false,
          "internalType": "uint256",
          "name": "balance",
          "type": "uint256"
        }
      ],
      "name": "ClaimCashRemain",
      "type": "event"
    },
    {
      "anonymous": false,
      "inputs": [
        {
          "indexed": false,
          "internalType": "uint256",
          "name": "decreasingAmount",
          "type": "uint256"
        },
        {
          "indexed": false,
          "internalType": "uint256",
          "name": "currencyAmount",
          "type": "uint256"
        }
      ],
      "name": "DecreaseCapitalReserve",
      "type": "event"
    },
    {
      "anonymous": false,
      "inputs": [
        {
          "indexed": false,
          "internalType": "uint256",
          "name": "decreasingAmount",
          "type": "uint256"
        },
        {
          "indexed": false,
          "internalType": "uint256",
          "name": "currencyAmount",
          "type": "uint256"
        }
      ],
      "name": "DecreaseIncomeReserve",
      "type": "event"
    },
    {
      "anonymous": false,
      "inputs": [
        {
          "indexed": false,
          "internalType": "uint256",
          "name": "decreasingAmount",
          "type": "uint256"
        },
        {
          "indexed": false,
          "internalType": "uint256",
          "name": "currencyAmount",
          "type": "uint256"
        }
      ],
      "name": "DecreaseReserve",
      "type": "event"
    },
    {
      "anonymous": false,
      "inputs": [
        {
          "indexed": false,
          "internalType": "uint256",
          "name": "increasingAmount",
          "type": "uint256"
        },
        {
          "indexed": false,
          "internalType": "uint256",
          "name": "currencyAmount",
          "type": "uint256"
        }
      ],
      "name": "IncreaseCapitalReserve",
      "type": "event"
    },
    {
      "anonymous": false,
      "inputs": [
        {
          "indexed": false,
          "internalType": "uint256",
          "name": "increasingAmount",
          "type": "uint256"
        },
        {
          "indexed": false,
          "internalType": "uint256",
          "name": "currencyAmount",
          "type": "uint256"
        }
      ],
      "name": "IncreaseReserve",
      "type": "event"
    },
    {
      "anonymous": false,
      "inputs": [
        {
          "indexed": false,
          "internalType": "uint8",
          "name": "version",
          "type": "uint8"
        }
      ],
      "name": "Initialized",
      "type": "event"
    },
    {
      "anonymous": false,
      "inputs": [
        {
          "indexed": false,
          "internalType": "address",
          "name": "token",
          "type": "address"
        },
        {
          "indexed": false,
          "internalType": "uint256",
          "name": "tokenId",
          "type": "uint256"
        }
      ],
      "name": "InsertNFTAsset",
      "type": "event"
    },
    {
      "anonymous": false,
      "inputs": [
        {
          "indexed": false,
          "internalType": "address",
          "name": "account",
          "type": "address"
        }
      ],
      "name": "Paused",
      "type": "event"
    },
    {
      "anonymous": false,
      "inputs": [
        {
          "indexed": false,
          "internalType": "address",
          "name": "poolAddress",
          "type": "address"
        },
        {
          "indexed": false,
          "internalType": "uint256",
          "name": "increaseInterestRepay",
          "type": "uint256"
        },
        {
          "indexed": false,
          "internalType": "uint256",
          "name": "increasePrincipalRepay",
          "type": "uint256"
        },
        {
          "indexed": false,
          "internalType": "uint256",
          "name": "timestamp",
          "type": "uint256"
        }
      ],
      "name": "Repay",
      "type": "event"
    },
    {
      "anonymous": false,
      "inputs": [
        {
          "indexed": true,
          "internalType": "bytes32",
          "name": "role",
          "type": "bytes32"
        },
        {
          "indexed": true,
          "internalType": "bytes32",
          "name": "previousAdminRole",
          "type": "bytes32"
        },
        {
          "indexed": true,
          "internalType": "bytes32",
          "name": "newAdminRole",
          "type": "bytes32"
        }
      ],
      "name": "RoleAdminChanged",
      "type": "event"
    },
    {
      "anonymous": false,
      "inputs": [
        {
          "indexed": true,
          "internalType": "bytes32",
          "name": "role",
          "type": "bytes32"
        },
        {
          "indexed": true,
          "internalType": "address",
          "name": "account",
          "type": "address"
        },
        {
          "indexed": true,
          "internalType": "address",
          "name": "sender",
          "type": "address"
        }
      ],
      "name": "RoleGranted",
      "type": "event"
    },
    {
      "anonymous": false,
      "inputs": [
        {
          "indexed": true,
          "internalType": "bytes32",
          "name": "role",
          "type": "bytes32"
        },
        {
          "indexed": true,
          "internalType": "address",
          "name": "account",
          "type": "address"
        },
        {
          "indexed": true,
          "internalType": "address",
          "name": "sender",
          "type": "address"
        }
      ],
      "name": "RoleRevoked",
      "type": "event"
    },
    {
      "anonymous": false,
      "inputs": [
        {
          "indexed": false,
          "internalType": "address",
          "name": "account",
          "type": "address"
        }
      ],
      "name": "Unpaused",
      "type": "event"
    },
    {
      "anonymous": false,
      "inputs": [
        {
          "indexed": false,
          "internalType": "uint256",
          "name": "_debtCeiling",
          "type": "uint256"
        }
      ],
      "name": "UpdateDebtCeiling",
      "type": "event"
    },
    {
      "anonymous": false,
      "inputs": [
        {
          "indexed": false,
          "internalType": "uint32",
          "name": "_interestRateSot",
          "type": "uint32"
        }
      ],
      "name": "UpdateInterestRateSot",
      "type": "event"
    },
    {
      "anonymous": false,
      "inputs": [
        {
          "indexed": false,
          "internalType": "uint32",
          "name": "_mintFirstLoss",
          "type": "uint32"
        }
      ],
      "name": "UpdateMintFirstLoss",
      "type": "event"
    },
    {
      "anonymous": false,
      "inputs": [
        {
          "indexed": false,
          "internalType": "address",
          "name": "tge",
          "type": "address"
        },
        {
          "indexed": false,
          "internalType": "enum Configuration.NOTE_TOKEN_TYPE",
          "name": "noteType",
          "type": "uint8"
        }
      ],
      "name": "UpdateTGEAddress",
      "type": "event"
    },
    {
      "anonymous": false,
      "inputs": [
        {
          "indexed": false,
          "internalType": "address",
          "name": "originatorAddress",
          "type": "address"
        },
        {
          "indexed": false,
          "internalType": "uint256",
          "name": "amount",
          "type": "uint256"
        }
      ],
      "name": "Withdraw",
      "type": "event"
    },
    {
      "inputs": [],
      "name": "DEFAULT_ADMIN_ROLE",
      "outputs": [
        {
          "internalType": "bytes32",
          "name": "",
          "type": "bytes32"
        }
      ],
      "stateMutability": "view",
      "type": "function"
    },
    {
      "inputs": [],
      "name": "calcJuniorRatio",
      "outputs": [
        {
          "internalType": "uint256",
          "name": "juniorRatio",
          "type": "uint256"
        }
      ],
      "stateMutability": "view",
      "type": "function"
    },
    {
      "inputs": [],
      "name": "calcTokenPrices",
      "outputs": [
        {
          "internalType": "uint256",
          "name": "juniorTokenPrice",
          "type": "uint256"
        },
        {
          "internalType": "uint256",
          "name": "seniorTokenPrice",
          "type": "uint256"
        }
      ],
      "stateMutability": "view",
      "type": "function"
    },
    {
      "inputs": [],
      "name": "capitalReserve",
      "outputs": [
        {
          "internalType": "uint256",
          "name": "",
          "type": "uint256"
        }
      ],
      "stateMutability": "view",
      "type": "function"
    },
    {
      "inputs": [
        {
          "internalType": "uint256",
          "name": "_seniorSupply",
          "type": "uint256"
        },
        {
          "internalType": "uint256",
          "name": "_seniorRedeem",
          "type": "uint256"
        }
      ],
      "name": "changeSeniorAsset",
      "outputs": [],
      "stateMutability": "nonpayable",
      "type": "function"
    },
    {
      "inputs": [
        {
          "internalType": "uint256[]",
          "name": "tokenIds",
          "type": "uint256[]"
        },
        {
          "components": [
            {
              "internalType": "address",
              "name": "debtor",
              "type": "address"
            },
            {
              "internalType": "address",
              "name": "principalTokenAddress",
              "type": "address"
            },
            {
              "internalType": "bytes32",
              "name": "termsParam",
              "type": "bytes32"
            },
            {
              "internalType": "uint256",
              "name": "salt",
              "type": "uint256"
            },
            {
              "internalType": "uint256",
              "name": "issuanceBlockTimestamp",
              "type": "uint256"
            },
            {
              "internalType": "uint256",
              "name": "expirationTimestamp",
              "type": "uint256"
            },
            {
              "internalType": "uint8",
              "name": "riskScore",
              "type": "uint8"
            },
            {
              "internalType": "enum Configuration.ASSET_PURPOSE",
              "name": "assetPurpose",
              "type": "uint8"
            }
          ],
          "internalType": "struct DataTypes.LoanEntry[]",
          "name": "loanEntries",
          "type": "tuple[]"
        }
      ],
      "name": "collectAssets",
      "outputs": [
        {
          "internalType": "uint256",
          "name": "",
          "type": "uint256"
        }
      ],
      "stateMutability": "nonpayable",
      "type": "function"
    },
    {
      "inputs": [
        {
          "internalType": "address",
          "name": "tokenAddresss",
          "type": "address"
        }
      ],
      "name": "collectERC20Asset",
      "outputs": [],
      "stateMutability": "nonpayable",
      "type": "function"
    },
    {
      "inputs": [],
      "name": "currentNAV",
      "outputs": [
        {
          "internalType": "uint256",
          "name": "nav_",
          "type": "uint256"
        }
      ],
      "stateMutability": "view",
      "type": "function"
    },
    {
      "inputs": [
        {
          "internalType": "bytes32",
          "name": "tokenId",
          "type": "bytes32"
        }
      ],
      "name": "currentNAVAsset",
      "outputs": [
        {
          "internalType": "uint256",
          "name": "",
          "type": "uint256"
        }
      ],
      "stateMutability": "view",
      "type": "function"
    },
    {
      "inputs": [
        {
          "internalType": "uint256",
          "name": "loan",
          "type": "uint256"
        }
      ],
      "name": "debt",
      "outputs": [
        {
          "internalType": "uint256",
          "name": "loanDebt",
          "type": "uint256"
        }
      ],
      "stateMutability": "view",
      "type": "function"
    },
    {
      "inputs": [],
      "name": "debtCeiling",
      "outputs": [
        {
          "internalType": "uint256",
          "name": "",
          "type": "uint256"
        }
      ],
      "stateMutability": "view",
      "type": "function"
    },
    {
      "inputs": [
        {
          "internalType": "uint256",
          "name": "currencyAmount",
          "type": "uint256"
        }
      ],
      "name": "decreaseCapitalReserve",
      "outputs": [],
      "stateMutability": "nonpayable",
      "type": "function"
    },
    {
      "inputs": [
        {
          "internalType": "uint256",
          "name": "currencyAmount",
          "type": "uint256"
        }
      ],
      "name": "decreaseIncomeReserve",
      "outputs": [],
      "stateMutability": "nonpayable",
      "type": "function"
    },
    {
      "inputs": [
        {
          "internalType": "address",
          "name": "usr",
          "type": "address"
        },
        {
          "internalType": "uint256",
          "name": "currencyAmount",
          "type": "uint256"
        }
      ],
      "name": "disburse",
      "outputs": [],
      "stateMutability": "nonpayable",
      "type": "function"
    },
    {
      "inputs": [],
      "name": "discountRate",
      "outputs": [
        {
          "internalType": "uint256",
          "name": "",
          "type": "uint256"
        }
      ],
      "stateMutability": "view",
      "type": "function"
    },
    {
      "inputs": [],
      "name": "distributeIncome",
      "outputs": [],
      "stateMutability": "nonpayable",
      "type": "function"
    },
    {
      "inputs": [
        {
          "internalType": "address",
          "name": "tokenAddress",
          "type": "address"
        },
        {
          "internalType": "address",
          "name": "toPoolAddress",
          "type": "address"
        },
        {
          "internalType": "uint256[]",
          "name": "tokenIds",
          "type": "uint256[]"
        }
      ],
      "name": "exportAssets",
      "outputs": [],
      "stateMutability": "nonpayable",
      "type": "function"
    },
    {
      "inputs": [
        {
          "internalType": "bytes32",
          "name": "nft_",
          "type": "bytes32"
        }
      ],
      "name": "futureValue",
      "outputs": [
        {
          "internalType": "uint256",
          "name": "",
          "type": "uint256"
        }
      ],
      "stateMutability": "view",
      "type": "function"
    },
    {
      "inputs": [
        {
          "internalType": "bytes32",
          "name": "agreementId",
          "type": "bytes32"
        }
      ],
      "name": "getAsset",
      "outputs": [
        {
          "components": [
            {
              "internalType": "uint128",
              "name": "futureValue",
              "type": "uint128"
            },
            {
              "internalType": "uint128",
              "name": "maturityDate",
              "type": "uint128"
            },
            {
              "internalType": "uint128",
              "name": "risk",
              "type": "uint128"
            },
            {
              "internalType": "address",
              "name": "debtor",
              "type": "address"
            },
            {
              "internalType": "address",
              "name": "principalTokenAddress",
              "type": "address"
            },
            {
              "internalType": "uint256",
              "name": "salt",
              "type": "uint256"
            },
            {
              "internalType": "uint256",
              "name": "issuanceBlockTimestamp",
              "type": "uint256"
            },
            {
              "internalType": "uint256",
              "name": "expirationTimestamp",
              "type": "uint256"
            },
            {
              "internalType": "enum Configuration.ASSET_PURPOSE",
              "name": "assetPurpose",
              "type": "uint8"
            },
            {
              "internalType": "bytes32",
              "name": "termsParam",
              "type": "bytes32"
            },
            {
              "internalType": "uint256",
              "name": "principalAmount",
              "type": "uint256"
            },
            {
              "internalType": "uint256",
              "name": "termStartUnixTimestamp",
              "type": "uint256"
            },
            {
              "internalType": "uint256",
              "name": "termEndUnixTimestamp",
              "type": "uint256"
            },
            {
              "internalType": "enum UnpackLoanParamtersLib.AmortizationUnitType",
              "name": "amortizationUnitType",
              "type": "uint8"
            },
            {
              "internalType": "uint256",
              "name": "termLengthInAmortizationUnits",
              "type": "uint256"
            },
            {
              "internalType": "uint256",
              "name": "interestRate",
              "type": "uint256"
            }
          ],
          "internalType": "struct DataTypes.NFTDetails",
          "name": "",
          "type": "tuple"
        }
      ],
      "stateMutability": "view",
      "type": "function"
    },
    {
      "inputs": [],
      "name": "getBeneficiary",
      "outputs": [
        {
          "internalType": "address",
          "name": "",
          "type": "address"
        }
      ],
      "stateMutability": "view",
      "type": "function"
    },
    {
      "inputs": [],
      "name": "getEarlyExitInfor",
      "outputs": [
        {
          "internalType": "uint256",
          "name": "",
          "type": "uint256"
        },
        {
          "internalType": "uint256",
          "name": "",
          "type": "uint256"
        }
      ],
      "stateMutability": "view",
      "type": "function"
    },
    {
      "inputs": [],
      "name": "getInitializedVersion",
      "outputs": [
        {
          "internalType": "uint256",
          "name": "",
          "type": "uint256"
        }
      ],
      "stateMutability": "view",
      "type": "function"
    },
    {
      "inputs": [
        {
          "internalType": "uint256[]",
          "name": "tokenIds",
          "type": "uint256[]"
        },
        {
          "components": [
            {
              "internalType": "address",
              "name": "debtor",
              "type": "address"
            },
            {
              "internalType": "address",
              "name": "principalTokenAddress",
              "type": "address"
            },
            {
              "internalType": "bytes32",
              "name": "termsParam",
              "type": "bytes32"
            },
            {
              "internalType": "uint256",
              "name": "salt",
              "type": "uint256"
            },
            {
              "internalType": "uint256",
              "name": "issuanceBlockTimestamp",
              "type": "uint256"
            },
            {
              "internalType": "uint256",
              "name": "expirationTimestamp",
              "type": "uint256"
            },
            {
              "internalType": "uint8",
              "name": "riskScore",
              "type": "uint8"
            },
            {
              "internalType": "enum Configuration.ASSET_PURPOSE",
              "name": "assetPurpose",
              "type": "uint8"
            }
          ],
          "internalType": "struct DataTypes.LoanEntry[]",
          "name": "loanEntries",
          "type": "tuple[]"
        }
      ],
      "name": "getLoansValue",
      "outputs": [
        {
          "internalType": "uint256",
          "name": "",
          "type": "uint256"
        },
        {
          "internalType": "uint256[]",
          "name": "",
          "type": "uint256[]"
        }
      ],
      "stateMutability": "view",
      "type": "function"
    },
    {
      "inputs": [],
      "name": "getNFTAssetsLength",
      "outputs": [
        {
          "internalType": "uint256",
          "name": "",
          "type": "uint256"
        }
      ],
      "stateMutability": "view",
      "type": "function"
    },
    {
      "inputs": [],
      "name": "getRepaidAmount",
      "outputs": [
        {
          "internalType": "uint256",
          "name": "",
          "type": "uint256"
        },
        {
          "internalType": "uint256",
          "name": "",
          "type": "uint256"
        }
      ],
      "stateMutability": "view",
      "type": "function"
    },
    {
      "inputs": [],
      "name": "getRiskScoresLength",
      "outputs": [
        {
          "internalType": "uint256",
          "name": "",
          "type": "uint256"
        }
      ],
      "stateMutability": "view",
      "type": "function"
    },
    {
      "inputs": [
        {
          "internalType": "bytes32",
          "name": "role",
          "type": "bytes32"
        }
      ],
      "name": "getRoleAdmin",
      "outputs": [
        {
          "internalType": "bytes32",
          "name": "",
          "type": "bytes32"
        }
      ],
      "stateMutability": "view",
      "type": "function"
    },
    {
      "inputs": [
        {
          "internalType": "bytes32",
          "name": "role",
          "type": "bytes32"
        },
        {
          "internalType": "uint256",
          "name": "index",
          "type": "uint256"
        }
      ],
      "name": "getRoleMember",
      "outputs": [
        {
          "internalType": "address",
          "name": "",
          "type": "address"
        }
      ],
      "stateMutability": "view",
      "type": "function"
    },
    {
      "inputs": [
        {
          "internalType": "bytes32",
          "name": "role",
          "type": "bytes32"
        }
      ],
      "name": "getRoleMemberCount",
      "outputs": [
        {
          "internalType": "uint256",
          "name": "",
          "type": "uint256"
        }
      ],
      "stateMutability": "view",
      "type": "function"
    },
    {
      "inputs": [],
      "name": "getTokenAssetAddresses",
      "outputs": [
        {
          "internalType": "address[]",
          "name": "",
          "type": "address[]"
        }
      ],
      "stateMutability": "view",
      "type": "function"
    },
    {
      "inputs": [
        {
          "internalType": "bytes32",
          "name": "role",
          "type": "bytes32"
        },
        {
          "internalType": "address",
          "name": "account",
          "type": "address"
        }
      ],
      "name": "grantRole",
      "outputs": [],
      "stateMutability": "nonpayable",
      "type": "function"
    },
    {
      "inputs": [
        {
          "internalType": "bytes32",
          "name": "role",
          "type": "bytes32"
        },
        {
          "internalType": "address",
          "name": "account",
          "type": "address"
        }
      ],
      "name": "hasRole",
      "outputs": [
        {
          "internalType": "bool",
          "name": "",
          "type": "bool"
        }
      ],
      "stateMutability": "view",
      "type": "function"
    },
    {
      "inputs": [],
      "name": "incomeReserve",
      "outputs": [
        {
          "internalType": "uint256",
          "name": "",
          "type": "uint256"
        }
      ],
      "stateMutability": "view",
      "type": "function"
    },
    {
      "inputs": [
        {
          "internalType": "uint256",
          "name": "currencyAmount",
          "type": "uint256"
        }
      ],
      "name": "increaseCapitalReserve",
      "outputs": [],
      "stateMutability": "nonpayable",
      "type": "function"
    },
    {
      "inputs": [
        {
          "internalType": "uint256",
          "name": "amount",
          "type": "uint256"
        }
      ],
      "name": "increaseTotalAssetRepaidCurrency",
      "outputs": [],
      "stateMutability": "nonpayable",
      "type": "function"
    },
    {
      "inputs": [
        {
          "internalType": "address",
          "name": "_registryAddress",
          "type": "address"
        },
        {
          "internalType": "bytes",
          "name": "params",
          "type": "bytes"
        }
      ],
      "name": "initialize",
      "outputs": [],
      "stateMutability": "nonpayable",
      "type": "function"
    },
    {
      "inputs": [],
      "name": "injectNoteToken",
      "outputs": [],
      "stateMutability": "nonpayable",
      "type": "function"
    },
    {
      "inputs": [],
      "name": "interestRateSOT",
      "outputs": [
        {
          "internalType": "uint256",
          "name": "",
          "type": "uint256"
        }
      ],
      "stateMutability": "view",
      "type": "function"
    },
    {
      "inputs": [],
      "name": "isAdmin",
      "outputs": [
        {
          "internalType": "bool",
          "name": "",
          "type": "bool"
        }
      ],
      "stateMutability": "view",
      "type": "function"
    },
    {
      "inputs": [],
      "name": "isMinFirstLossValid",
      "outputs": [
        {
          "internalType": "bool",
          "name": "",
          "type": "bool"
        }
      ],
      "stateMutability": "view",
      "type": "function"
    },
    {
      "inputs": [],
      "name": "jotToken",
      "outputs": [
        {
          "internalType": "address",
          "name": "",
          "type": "address"
        }
      ],
      "stateMutability": "view",
      "type": "function"
    },
    {
      "inputs": [
        {
          "internalType": "bytes32",
          "name": "nft_",
          "type": "bytes32"
        }
      ],
      "name": "maturityDate",
      "outputs": [
        {
          "internalType": "uint256",
          "name": "",
          "type": "uint256"
        }
      ],
      "stateMutability": "view",
      "type": "function"
    },
    {
      "inputs": [],
      "name": "minFirstLossCushion",
      "outputs": [
        {
          "internalType": "uint32",
          "name": "",
          "type": "uint32"
        }
      ],
      "stateMutability": "view",
      "type": "function"
    },
    {
      "inputs": [
        {
          "internalType": "uint256",
          "name": "idx",
          "type": "uint256"
        }
      ],
      "name": "nftAssets",
      "outputs": [
        {
          "components": [
            {
              "internalType": "address",
              "name": "tokenAddress",
              "type": "address"
            },
            {
              "internalType": "uint256",
              "name": "tokenId",
              "type": "uint256"
            }
          ],
          "internalType": "struct DataTypes.NFTAsset",
          "name": "",
          "type": "tuple"
        }
      ],
      "stateMutability": "view",
      "type": "function"
    },
    {
      "inputs": [
        {
          "internalType": "address",
          "name": "",
          "type": "address"
        },
        {
          "internalType": "address",
          "name": "",
          "type": "address"
        },
        {
          "internalType": "uint256",
          "name": "tokenId",
          "type": "uint256"
        },
        {
          "internalType": "bytes",
          "name": "",
          "type": "bytes"
        }
      ],
      "name": "onERC721Received",
      "outputs": [
        {
          "internalType": "bytes4",
          "name": "",
          "type": "bytes4"
        }
      ],
      "stateMutability": "nonpayable",
      "type": "function"
    },
    {
      "inputs": [],
      "name": "openingBlockTimestamp",
      "outputs": [
        {
          "internalType": "uint64",
          "name": "",
          "type": "uint64"
        }
      ],
      "stateMutability": "view",
      "type": "function"
    },
    {
      "inputs": [],
      "name": "paidPrincipalAmountSOT",
      "outputs": [
        {
          "internalType": "uint256",
          "name": "",
          "type": "uint256"
        }
      ],
      "stateMutability": "view",
      "type": "function"
    },
    {
      "inputs": [],
      "name": "pause",
      "outputs": [],
      "stateMutability": "nonpayable",
      "type": "function"
    },
    {
      "inputs": [],
      "name": "paused",
      "outputs": [
        {
          "internalType": "bool",
          "name": "",
          "type": "bool"
        }
      ],
      "stateMutability": "view",
      "type": "function"
    },
    {
      "inputs": [],
      "name": "pot",
      "outputs": [
        {
          "internalType": "address",
          "name": "",
          "type": "address"
        }
      ],
      "stateMutability": "view",
      "type": "function"
    },
    {
      "inputs": [],
      "name": "rebase",
      "outputs": [],
      "stateMutability": "nonpayable",
      "type": "function"
    },
    {
      "inputs": [],
      "name": "registry",
      "outputs": [
        {
          "internalType": "contract Registry",
          "name": "",
          "type": "address"
        }
      ],
      "stateMutability": "view",
      "type": "function"
    },
    {
      "inputs": [
        {
          "internalType": "bytes32",
          "name": "role",
          "type": "bytes32"
        },
        {
          "internalType": "address",
          "name": "account",
          "type": "address"
        }
      ],
      "name": "renounceRole",
      "outputs": [],
      "stateMutability": "nonpayable",
      "type": "function"
    },
    {
      "inputs": [
        {
          "internalType": "uint256[]",
          "name": "loans",
          "type": "uint256[]"
        },
        {
          "internalType": "uint256[]",
          "name": "amounts",
          "type": "uint256[]"
        }
      ],
      "name": "repayLoan",
      "outputs": [
        {
          "internalType": "uint256[]",
          "name": "",
          "type": "uint256[]"
        },
        {
          "internalType": "uint256[]",
          "name": "",
          "type": "uint256[]"
        }
      ],
      "stateMutability": "nonpayable",
      "type": "function"
    },
    {
      "inputs": [],
      "name": "reserve",
      "outputs": [
        {
          "internalType": "uint256",
          "name": "",
          "type": "uint256"
        }
      ],
      "stateMutability": "view",
      "type": "function"
    },
    {
      "inputs": [
        {
          "internalType": "bytes32",
          "name": "role",
          "type": "bytes32"
        },
        {
          "internalType": "address",
          "name": "account",
          "type": "address"
        }
      ],
      "name": "revokeRole",
      "outputs": [],
      "stateMutability": "nonpayable",
      "type": "function"
    },
    {
      "inputs": [
        {
          "internalType": "bytes32",
          "name": "nft_",
          "type": "bytes32"
        }
      ],
      "name": "risk",
      "outputs": [
        {
          "internalType": "uint256",
          "name": "risk_",
          "type": "uint256"
        }
      ],
      "stateMutability": "view",
      "type": "function"
    },
    {
      "inputs": [
        {
          "internalType": "uint256",
          "name": "index",
          "type": "uint256"
        }
      ],
      "name": "riskScores",
      "outputs": [
        {
          "components": [
            {
              "internalType": "uint32",
              "name": "daysPastDue",
              "type": "uint32"
            },
            {
              "internalType": "uint32",
              "name": "advanceRate",
              "type": "uint32"
            },
            {
              "internalType": "uint32",
              "name": "penaltyRate",
              "type": "uint32"
            },
            {
              "internalType": "uint32",
              "name": "interestRate",
              "type": "uint32"
            },
            {
              "internalType": "uint32",
              "name": "probabilityOfDefault",
              "type": "uint32"
            },
            {
              "internalType": "uint32",
              "name": "lossGivenDefault",
              "type": "uint32"
            },
            {
              "internalType": "uint32",
              "name": "writeOffAfterGracePeriod",
              "type": "uint32"
            },
            {
              "internalType": "uint32",
              "name": "gracePeriod",
              "type": "uint32"
            },
            {
              "internalType": "uint32",
              "name": "collectionPeriod",
              "type": "uint32"
            },
            {
              "internalType": "uint32",
              "name": "writeOffAfterCollectionPeriod",
              "type": "uint32"
            },
            {
              "internalType": "uint32",
              "name": "discountRate",
              "type": "uint32"
            }
          ],
          "internalType": "struct DataTypes.RiskScore",
          "name": "",
          "type": "tuple"
        }
      ],
      "stateMutability": "view",
      "type": "function"
    },
    {
      "inputs": [],
      "name": "seniorDebtAndBalance",
      "outputs": [
        {
          "internalType": "uint256",
          "name": "",
          "type": "uint256"
        },
        {
          "internalType": "uint256",
          "name": "",
          "type": "uint256"
        }
      ],
      "stateMutability": "view",
      "type": "function"
    },
    {
      "inputs": [
        {
          "internalType": "uint256",
          "name": "_debtCeiling",
          "type": "uint256"
        }
      ],
      "name": "setDebtCeiling",
      "outputs": [],
      "stateMutability": "nonpayable",
      "type": "function"
    },
    {
      "inputs": [
        {
          "internalType": "uint32",
          "name": "_newRate",
          "type": "uint32"
        }
      ],
      "name": "setInterestRateSOT",
      "outputs": [],
      "stateMutability": "nonpayable",
      "type": "function"
    },
    {
      "inputs": [
        {
          "internalType": "uint32",
          "name": "_minFirstLossCushion",
          "type": "uint32"
        }
      ],
      "name": "setMinFirstLossCushion",
      "outputs": [],
      "stateMutability": "nonpayable",
      "type": "function"
    },
    {
      "inputs": [
        {
          "internalType": "address",
          "name": "_pot",
          "type": "address"
        }
      ],
      "name": "setPot",
      "outputs": [],
      "stateMutability": "nonpayable",
      "type": "function"
    },
    {
      "inputs": [
        {
          "internalType": "bytes32",
          "name": "role",
          "type": "bytes32"
        },
        {
          "internalType": "bytes32",
          "name": "adminRole",
          "type": "bytes32"
        }
      ],
      "name": "setRoleAdmin",
      "outputs": [],
      "stateMutability": "nonpayable",
      "type": "function"
    },
    {
      "inputs": [
        {
          "internalType": "uint32[]",
          "name": "_daysPastDues",
          "type": "uint32[]"
        },
        {
          "internalType": "uint32[]",
          "name": "_ratesAndDefaults",
          "type": "uint32[]"
        },
        {
          "internalType": "uint32[]",
          "name": "_periodsAndWriteOffs",
          "type": "uint32[]"
        }
      ],
      "name": "setupRiskScores",
      "outputs": [],
      "stateMutability": "nonpayable",
      "type": "function"
    },
    {
      "inputs": [],
      "name": "sotToken",
      "outputs": [
        {
          "internalType": "address",
          "name": "",
          "type": "address"
        }
      ],
      "stateMutability": "view",
      "type": "function"
    },
    {
      "inputs": [
        {
          "internalType": "bytes4",
          "name": "interfaceId",
          "type": "bytes4"
        }
      ],
      "name": "supportsInterface",
      "outputs": [
        {
          "internalType": "bool",
          "name": "",
          "type": "bool"
        }
      ],
      "stateMutability": "view",
      "type": "function"
    },
    {
      "inputs": [],
      "name": "totalAssetRepaidCurrency",
      "outputs": [
        {
          "internalType": "uint256",
          "name": "",
          "type": "uint256"
        }
      ],
      "stateMutability": "view",
      "type": "function"
    },
    {
      "inputs": [],
      "name": "underlyingCurrency",
      "outputs": [
        {
          "internalType": "address",
          "name": "",
          "type": "address"
        }
      ],
      "stateMutability": "view",
      "type": "function"
    },
    {
      "inputs": [],
      "name": "unpause",
      "outputs": [],
      "stateMutability": "nonpayable",
      "type": "function"
    },
    {
      "inputs": [
        {
          "internalType": "bytes32",
          "name": "nftID_",
          "type": "bytes32"
        },
        {
          "internalType": "uint256",
          "name": "risk_",
          "type": "uint256"
        }
      ],
      "name": "updateAssetRiskScore",
      "outputs": [],
      "stateMutability": "nonpayable",
      "type": "function"
    },
    {
      "inputs": [],
      "name": "validatorRequired",
      "outputs": [
        {
          "internalType": "bool",
          "name": "",
          "type": "bool"
        }
      ],
      "stateMutability": "view",
      "type": "function"
    },
    {
      "inputs": [
        {
          "internalType": "address",
          "name": "to",
          "type": "address"
        },
        {
          "internalType": "uint256",
          "name": "amount",
          "type": "uint256"
        }
      ],
      "name": "withdraw",
      "outputs": [],
      "stateMutability": "nonpayable",
      "type": "function"
    },
    {
      "inputs": [
        {
          "internalType": "address[]",
          "name": "tokenAddresses",
          "type": "address[]"
        },
        {
          "internalType": "uint256[]",
          "name": "tokenIds",
          "type": "uint256[]"
        },
        {
          "internalType": "address[]",
          "name": "recipients",
          "type": "address[]"
        }
      ],
      "name": "withdrawAssets",
      "outputs": [],
      "stateMutability": "nonpayable",
      "type": "function"
    },
    {
      "inputs": [
        {
          "internalType": "address[]",
          "name": "tokenAddresses",
          "type": "address[]"
        },
        {
          "internalType": "address[]",
          "name": "recipients",
          "type": "address[]"
        },
        {
          "internalType": "uint256[]",
          "name": "amounts",
          "type": "uint256[]"
        }
      ],
      "name": "withdrawERC20Assets",
      "outputs": [],
      "stateMutability": "nonpayable",
      "type": "function"
    },
    {
      "inputs": [
        {
          "internalType": "uint256",
          "name": "loan",
          "type": "uint256"
        }
      ],
      "name": "writeOff",
      "outputs": [],
      "stateMutability": "nonpayable",
      "type": "function"
    }
  ],
  "transactionHash": "0x8baa38c8beb5a4f1347df473df0d9648837b53bfa11cbe168b11f68136d714f0",
  "args": [],
  "numDeployments": 2,
  "solcInputHash": "ac11c7409cbaf8a618e73b8329d5c73b",
  "bytecode": "0x608060405234801561001057600080fd5b50615a5e80620000216000396000f3fe608060405234801561001057600080fd5b50600436106104545760003560e01c80636b70f71d11610241578063c3d2129d1161013b578063e3178bc4116100c3578063ed34889511610087578063ed3488951461098d578063f3fef3a3146109a0578063f70a726e146109b3578063fa3908b1146109c6578063febd6018146109fd57600080fd5b8063e3178bc414610941578063e3adb7f014610954578063e681542d14610967578063e6c0e6d51461097a578063e87ac8431461098257600080fd5b8063cee7b6a11161010a578063cee7b6a1146108f8578063d1f5789414610900578063d547741f14610913578063dec2858714610926578063e1c84ea41461093957600080fd5b8063c3d2129d146108b4578063ca15c873146108d5578063cd3293de146108e8578063ce8fcab1146108f057600080fd5b80639b3e2291116101c9578063af14052c1161018d578063af14052c14610876578063b1511cc91461087e578063b3c6501514610891578063b6db75a014610899578063ba81a936146108a157600080fd5b80639b3e229114610838578063a217fddf1461084b578063a5688a9014610853578063a6c595471461085b578063ade0ea6d1461086e57600080fd5b80638456cb59116102105780638456cb59146107df5780638fd6b71e146107e75780639010d07c146107ff578063901617051461081257806391d148541461082557600080fd5b80636b70f71d1461079d57806373ffe3c7146107a55780637b103999146107b85780637f3bd56e146107cc57600080fd5b80632f2ff15d11610352578063477035d1116102da578063586fd8a11161029e578063586fd8a1146107295780635c975abb1461074a5780636421cede14610755578063644b4ead1461076a578063659306461461078a57600080fd5b8063477035d1146106c157806349110ac4146106ed5780634ba2363a146106f557806353069df61461070d578063565a2e2c1461071857600080fd5b80633bf4045f116103215780633bf4045f146106675780633f12dc101461067a5780633f4ba83a146106a65780634020c8d1146106ae57806340301264146106b957600080fd5b80632f2ff15d1461061b578063339443571461062e57806336568abe146106415780633aa29d7a1461065457600080fd5b8063185acf74116103e05780632b71b450116103a45780632b71b450146105db5780632bb14ff0146105e35780632bcc3682146105eb5780632cbf3da0146105f35780632cc3ce80146105fb57600080fd5b8063185acf741461056c5780631bf51b701461057f5780631e0029c8146105925780631e4e0091146105a5578063248a9ca3146105b857600080fd5b80630b7792f1116104275780630b7792f1146104ec5780630bc6bffc146104f45780630e9bf4e414610519578063150b7a021461053657806317a7ad1d1461056257600080fd5b806301ffc9a71461045957806304a3f19c14610481578063065dad8f1461049357806306823e8c146104c3575b600080fd5b61046c6104673660046145e6565b610a05565b60405190151581526020015b60405180910390f35b6009545b604051908152602001610478565b6104856104a1366004614610565b600090815260196020526040902054600160801b90046001600160801b031690565b6104856104d1366004614610565b6000908152601960205260409020546001600160801b031690565b600254610485565b6007546001600160a01b03165b6040516001600160a01b039091168152602001610478565b610521610a30565b60408051928352602083019190915201610478565b61054961054436600461472c565b610cfd565b6040516001600160e01b03199091168152602001610478565b61056a610e7b565b005b61056a61057a366004614610565b610f4f565b61056a61058d3660046147db565b611043565b6104856105a0366004614610565b6110e8565b61056a6105b3366004614874565b6110f5565b6104856105c6366004614610565b600090815260f3602052604090206001015490565b61050161110f565b601054610485565b600154610485565b610485611197565b61060e610609366004614610565b6111a3565b60405161047891906148d0565b61056a6106293660046149df565b6112dd565b61048561063c366004614a0f565b611302565b61056a61064f3660046149df565b6113ae565b61056a610662366004614874565b61142c565b61056a6106753660046147db565b6115f0565b610485610688366004614610565b6000908152601960205260409020600101546001600160801b031690565b61056a6116d7565b60005460ff1661046c565b600854610485565b600e5464010000000090046001600160401b03166040516001600160401b039091168152602001610478565b61046c611705565b600e54600160601b90046001600160a01b0316610501565b602554602654610521565b600a546001600160a01b0316610501565b61073c610737366004614aa8565b61171f565b604051610478929190614b4e565b605d5460ff1661046c565b61075d611b77565b6040516104789190614b73565b61077d610778366004614610565b611bdc565b6040516104789190614bc0565b61056a610798366004614cba565b611d0d565b610521611d65565b61056a6107b3366004614ce9565b611dea565b61018954610501906001600160a01b031681565b61056a6107da366004614d06565b611f1b565b61056a61204a565b600e5460405163ffffffff9091168152602001610478565b61050161080d366004614874565b612076565b61056a610820366004614610565b612096565b61046c6108333660046149df565b6120bb565b61056a610846366004614610565b6120e6565b610485600081565b61048561215b565b61056a6108693660046147db565b612274565b600f54610485565b61056a612311565b61056a61088c366004614610565b61239f565b61048561242e565b61046c612444565b61056a6108af366004614ce9565b61246f565b6108c76108c2366004614e60565b6124b4565b604051610478929190614f18565b6104856108e3366004614610565b612545565b61048561255d565b61056a612569565b601154610485565b61056a61090e366004614f31565b612756565b61056a6109213660046149df565b612b13565b61056a610934366004614f76565b612b38565b601254610485565b61048561094f366004614610565b612c14565b61056a610962366004614874565b612c21565b61056a610975366004614610565b612c7f565b601d54610485565b600c54600d54610521565b61056a61099b366004614cba565b612cd8565b61056a6109ae366004614d06565b612e2a565b61056a6109c1366004614610565b612f18565b6109d96109d4366004614610565b612fa5565b6040805182516001600160a01b031681526020928301519281019290925201610478565b610501613006565b60006001600160e01b03198216635a05180f60e01b1480610a2a5750610a2a8261301f565b92915050565b6000806000610a3d61110f565b90506000610a49613006565b90506000816001600160a01b031663313ce5676040518163ffffffff1660e01b8152600401602060405180830381865afa158015610a8b573d6000803e3d6000fd5b505050506040513d601f19601f82011682018060405250810190610aaf9190614fce565b610aba90600a6150e1565b905060008073786EC98A0f46782fc4065Ff8D47Fd52DD20dF2466328774cad610ae36000613054565b610aed600061307c565b604051639a1140b960e01b81526000600482015273786EC98A0f46782fc4065Ff8D47Fd52DD20dF24690639a1140b990602401602060405180830381865af4158015610b3d573d6000803e3d6000fd5b505050506040513d601f19601f82011682018060405250810190610b619190614fce565b6000602801548a6001600160a01b03166318160ddd6040518163ffffffff1660e01b8152600401602060405180830381865afa158015610ba5573d6000803e3d6000fd5b505050506040513d601f19601f82011682018060405250810190610bc99190614fce565b8a6001600160a01b03166318160ddd6040518163ffffffff1660e01b8152600401602060405180830381865afa158015610c07573d6000803e3d6000fd5b505050506040513d601f19601f82011682018060405250810190610c2b9190614fce565b6040516001600160e01b031960e089901b1681526004810196909652602486019490945260448501929092526064840152608483015260a482015260c4016040805180830381865af4158015610c85573d6000803e3d6000fd5b505050506040513d601f19601f82011682018060405250810190610ca991906150ed565b90925090506b033b2e3c9fd0803ce8000000610cc58484615111565b610ccf9190615128565b6b033b2e3c9fd0803ce8000000610ce68584615111565b610cf09190615128565b9650965050505050509091565b610189546000903390610d18906001600160a01b0316613090565b6001600160a01b0316816001600160a01b031614610d9b5760405162461bcd60e51b815260206004820152603560248201527f53656375726974697a6174696f6e506f6f6c3a204d75737420626520746f6b656044820152741b881a5cdcdd595908189e48155b9d185b99db1959605a1b60648201526084015b60405180910390fd5b6040805180820182526001600160a01b03838116808352602080840189815260028054600181018255600082905295517f405787fa12a823e0f2b7631cc41b3ba8828b3321ca811111fa75cd3aa3bb5ace96820296870180546001600160a01b0319169190961617909455517f405787fa12a823e0f2b7631cc41b3ba8828b3321ca811111fa75cd3aa3bb5acf909401939093558351908152918201879052917ff1c19e8856063adce43b5f307c6ac9d0af46fd0787c590550c51d7cf02d2e5f4910160405180910390a150630a85bd0160e11b9150505b949350505050565b610e8361309d565b610e9b335b610189546001600160a01b0316906130e3565b610189546000908190610eb6906001600160a01b0316613158565b6040516304a2828b60e41b81523060048201526001600160a01b039190911690634a2828b0906024016040805180830381865afa158015610efb573d6000803e3d6000fd5b505050506040513d601f19601f82011682018060405250810190610f1f919061514a565b600580546001600160a01b039384166001600160a01b031991821617909155600680549290931691161790555050565b610f5761309d565b61018954610f6d906001600160a01b0316613158565b6001600160a01b0316336001600160a01b031614610fd55760405162461bcd60e51b81526020600482015260316024820152600080516020615a09833981519152604482015270031329022b837b1b422bc32b1baba37b91607d1b6064820152608401610d92565b6040516338ca404b60e21b8152600060048201526024810182905273739c93545CAD9EE3202A524ef50ebfDaf452C8dF9063e329012c906044015b60006040518083038186803b15801561102857600080fd5b505af415801561103c573d6000803e3d6000fd5b5050505050565b61104b61309d565b6000805160206159e983398151915261106381613165565b6040516318d6411560e31b815273Fb94240006b52111570eB6C28Bb195f9b5908c999063c6b208a8906110a7906000908b908b908b908b908b908b906004016151b4565b60006040518083038186803b1580156110bf57600080fd5b505af41580156110d3573d6000803e3d6000fd5b505050506110df612311565b50505050505050565b6000610a2a60008361316f565b600061110081613165565b61110a8383613272565b505050565b61018954600090611128906001600160a01b03166132bd565b60405163b8d7b66960e01b81523060048201526001600160a01b03919091169063b8d7b66990602401602060405180830381865afa15801561116e573d6000803e3d6000fd5b505050506040513d601f19601f820116820180604052508101906111929190615204565b905090565b60006111926000613054565b6111ab614563565b60008281526019602090815260409182902082516102008101845281546001600160801b038082168352600160801b9091048116938201939093526001808301549093169381019390935260028101546001600160a01b0390811660608501526003820154166080840152600481015460a0840152600581015460c0840152600681015460e08401526007810154909161010084019160ff169081111561125457611254614896565b600181111561126557611265614896565b81526008820154602082015260098201546040820152600a8201546060820152600b8201546080820152600c82015460a09091019060ff1660058111156112ae576112ae614896565b60058111156112bf576112bf614896565b8152600d8201546020820152600e9091015460409091015292915050565b600082815260f360205260409020600101546112f881613165565b61110a83836132ca565b600061130c61309d565b611324335b610189546001600160a01b0316906132ed565b604051637f337ae160e11b815273Fb94240006b52111570eB6C28Bb195f9b5908c999063fe66f5c290611364906000908990899089908990600401615253565b602060405180830381865af4158015611381573d6000803e3d6000fd5b505050506040513d601f19601f820116820180604052508101906113a59190614fce565b95945050505050565b6001600160a01b038116331461141e5760405162461bcd60e51b815260206004820152602f60248201527f416363657373436f6e74726f6c3a2063616e206f6e6c792072656e6f756e636560448201526e103937b632b9903337b91039b2b63360891b6064820152608401610d92565b6114288282613356565b5050565b61018954611442906001600160a01b0316613379565b6001600160a01b0316336001600160a01b03161480611487575061018954611472906001600160a01b0316613158565b6001600160a01b0316336001600160a01b0316145b6114f95760405162461bcd60e51b81526020600482015260496024820152600080516020615a0983398151915260448201527f62652053656375726974697a6174696f6e4d616e61676572206f722045706f636064820152683422bc32b1baba37b960b91b608482015260a401610d92565b73786EC98A0f46782fc4065Ff8D47Fd52DD20dF246632fb86262600061151f6000613054565b611529600061307c565b6040516001600160e01b031960e086901b168152600481019390935260248301919091526044820152606481018590526084810184905260a40160006040518083038186803b15801561157b57600080fd5b505af415801561158f573d6000803e3d6000fd5b505050506000821115611428576115a4611705565b6114285760405162461bcd60e51b815260206004820152601a60248201527f506f6f6c3a2045786365656473204d696e46697273744c6f73730000000000006044820152606401610d92565b6115f861309d565b611600613386565b6116186000805160206159e9833981519152336120bb565b8061163657506116366000805160206159c9833981519152336120bb565b6116525760405162461bcd60e51b8152600401610d929061532e565b60405163563bc1a160e01b815273Fb94240006b52111570eB6C28Bb195f9b5908c999063563bc1a190611695906004908a908a908a908a908a908a9087016153b1565b60006040518083038186803b1580156116ad57600080fd5b505af41580156116c1573d6000803e3d6000fd5b505050506116cf6001608f55565b505050505050565b6116df612444565b6116fb5760405162461bcd60e51b8152600401610d92906153f3565b6117036133e6565b565b600061170f61215b565b600e5463ffffffff161115919050565b610189546060908190339061173c906001600160a01b0316613438565b6001600160a01b0316146117835760405162461bcd60e51b815260206004820152600e60248201526d1b9bdd08185d5d1a1bdc9a5e995960921b6044820152606401610d92565b848381146117c45760405162461bcd60e51b815260206004820152600e60248201526d092dcecc2d8d2c840d8cadccee8d60931b6044820152606401610d92565b6000816001600160401b038111156117de576117de61464e565b604051908082528060200260200182016040528015611807578160200160208202803683370190505b50905060005b828110156118bf5760008061186360008c8c8681811061182f5761182f615450565b9050602002013560009081526015820160209081526040808320548352601390930190522060018101546004909101549091565b9150915061188c60008c8c8681811061187e5761187e615450565b905060200201358484613445565b84848151811061189e5761189e615450565b602002602001018181525050505080806118b790615466565b91505061180d565b5060008073dFFd058059e26fF1a76be0cf6371A008C108A0e0632f3e0ce060008c8c8c8c6040518663ffffffff1660e01b815260040161190395949392919061547f565b600060405180830381865af4158015611920573d6000803e3d6000fd5b505050506040513d6000823e601f3d908101601f191682016040526119489190810190615513565b9150915060008060005b86811015611a3957600086828151811061196e5761196e615450565b602002602001015185838151811061198857611988615450565b602002602001015161199a919061556c565b9050808683815181106119af576119af615450565b6020026020010151116119e8578582815181106119ce576119ce615450565b6020026020010151846119e1919061557f565b9350611a26565b6119f2818561557f565b935080868381518110611a0757611a07615450565b6020026020010151611a19919061556c565b611a23908461557f565b92505b5080611a3181615466565b915050611952565b506000611a496127106064615111565b600b54611a569085615111565b611a609190615128565b600a54604051630837ca3160e11b8152600060048201526001600160a01b0390911660248201526044810182905290915073739c93545CAD9EE3202A524ef50ebfDaf452C8dF9063106f94629060640160006040518083038186803b158015611ac857600080fd5b505af4158015611adc573d6000803e3d6000fd5b505050508083611aec919061556c565b60088054600090611afe90849061557f565b909155505060098054839190600090611b1890849061557f565b909155505060408051308152602081018590529081018390524260608201527f2fe77b1c99aca6b022b8efc6e3e8dd1b48b30748709339b65c50ef3263443e099060800160405180910390a150929b919a509098505050505050505050565b60606000600301805480602002602001604051908101604052809291908181526020018280548015611bd257602002820191906000526020600020905b81546001600160a01b03168152600190910190602001808311611bb4575b5050505050905090565b6040805161016081018252600080825260208201819052918101829052606081018290526080810182905260a0810182905260c0810182905260e08101829052610100810182905261012081018290526101408101919091526001805483908110611c4957611c49615450565b600091825260209182902060408051610160810182526002909302909101805463ffffffff808216855264010000000080830482169686019690965268010000000000000000808304821694860194909452600160601b820481166060860152600160801b820481166080860152600160a01b8204811660a0860152600160c01b8204811660c0860152600160e01b909104811660e08501526001909101548082166101008501529384048116610120840152920490911661014082015292915050565b611d1561309d565b611d1e33610e88565b60405163af2f761760e01b8152600060048201526001600160a01b038216602482015273Fb94240006b52111570eB6C28Bb195f9b5908c999063af2f761790604401611010565b604051639a1140b960e01b815260006004820181905290819073786EC98A0f46782fc4065Ff8D47Fd52DD20dF24690639a1140b990602401602060405180830381865af4158015611dba573d6000803e3d6000fd5b505050506040513d601f19601f82011682018060405250810190611dde9190614fce565b60285490939092509050565b611df261309d565b611e0a6000805160206159e9833981519152336120bb565b80611e285750611e286000805160206159c9833981519152336120bb565b611e445760405162461bcd60e51b8152600401610d929061532e565b611e516127106064615111565b8163ffffffff161115611ecc5760405162461bcd60e51b815260206004820152603b60248201527f53656375726974697a6174696f6e506f6f6c3a206d696e46697273744c6f737360448201527f43757368696f6e2069732067726561746572207468616e2031303000000000006064820152608401610d92565b600e805463ffffffff191663ffffffff83169081179091556040519081527f091193ea2a1d71a11f3479abe1d30b1ba8fecf8b18e1c728e3ee787de54d0399906020015b60405180910390a150565b611f2361309d565b61018954611f39906001600160a01b0316613495565b6001600160a01b0316336001600160a01b03161480611f7e575061018954611f69906001600160a01b03166132bd565b6001600160a01b0316336001600160a01b0316145b611fd45760405162461bcd60e51b81526020600482015260336024820152600080516020615a098339815191526044820152723132902737ba32aa37b5b2b726b0b730b3b2b960691b6064820152608401610d92565b604051630837ca3160e11b8152600060048201526001600160a01b03831660248201526044810182905273739c93545CAD9EE3202A524ef50ebfDaf452C8dF9063106f9462906064015b60006040518083038186803b15801561203657600080fd5b505af41580156116cf573d6000803e3d6000fd5b612052612444565b61206e5760405162461bcd60e51b8152600401610d92906153f3565b6117036134a2565b60008281526101256020526040812061208f90836134df565b9392505050565b61209e61309d565b6120a733611311565b6011546120b590829061557f565b60115550565b600091825260f3602090815260408084206001600160a01b0393909316845291905290205460ff1690565b604051632915c6ef60e21b8152600060048201526024810182905273dFFd058059e26fF1a76be0cf6371A008C108A0e09063a4571bbc9060440160006040518083038186803b15801561213857600080fd5b505af415801561214c573d6000803e3d6000fd5b50505050612158612311565b50565b600073786EC98A0f46782fc4065Ff8D47Fd52DD20dF24663937e8cbf6121816000613054565b61218b600061307c565b604051639a1140b960e01b81526000600482015273786EC98A0f46782fc4065Ff8D47Fd52DD20dF24690639a1140b990602401602060405180830381865af41580156121db573d6000803e3d6000fd5b505050506040513d601f19601f820116820180604052508101906121ff9190614fce565b60285460405160e086901b6001600160e01b03191681526004810194909452602484019290925260448301526064820152608401602060405180830381865af4158015612250573d6000803e3d6000fd5b505050506040513d601f19601f820116820180604052508101906111929190614fce565b61227c61309d565b6000805160206159c983398151915261229481613165565b60405163d37cc71360e01b815273Fb94240006b52111570eB6C28Bb195f9b5908c999063d37cc713906122d8906002908b908b908b908b908b908b90600401615592565b60006040518083038186803b1580156122f057600080fd5b505af4158015612304573d6000803e3d6000fd5b5050505050505050505050565b73786EC98A0f46782fc4065Ff8D47Fd52DD20dF24663c1a5db1c60006123376000613054565b612341600061307c565b6040516001600160e01b031960e086901b16815260048101939093526024830191909152604482015260640160006040518083038186803b15801561238557600080fd5b505af4158015612399573d6000803e3d6000fd5b50505050565b6123a761309d565b6123bf6000805160206159e9833981519152336120bb565b806123dd57506123dd6000805160206159c9833981519152336120bb565b6123f95760405162461bcd60e51b8152600401610d929061532e565b60128190556040518181527f3fb30b6090e6989c6819119c2885012949e75471ed4ce5e80c9be541ea0e2f3f90602001611f10565b600061243c602a5460ff1690565b60ff16905090565b600061245e6000805160206159c9833981519152336120bb565b8061119257506111926000336120bb565b61247833610e88565b63ffffffff811660108190556040519081527fae7402a7c6591be272f2a698eff734559f48c90b946dc122fec30db4033aa30d90602001611f10565b6000606073Fb94240006b52111570eB6C28Bb195f9b5908c9963aa12d15f600086866040518463ffffffff1660e01b81526004016124f4939291906155d4565b600060405180830381865af4158015612511573d6000803e3d6000fd5b505050506040513d6000823e601f3d908101601f1916820160405261253991908101906156bf565b915091505b9250929050565b600081815261012560205260408120610a2a906134eb565b6000611192600061307c565b61257233611311565b600061257c61215b565b9050600061258d6127106064615111565b60085461259b908490615111565b6125a59190615128565b90506000816000600801546125ba919061556c565b90506125c461110f565b6001600160a01b031663ef06fb73836040518263ffffffff1660e01b81526004016125f191815260200190565b600060405180830381600087803b15801561260b57600080fd5b505af115801561261f573d6000803e3d6000fd5b505050508160006008016000828254612638919061556c565b909155506126469050613006565b6001600160a01b031663ef06fb73826040518263ffffffff1660e01b815260040161267391815260200190565b600060405180830381600087803b15801561268d57600080fd5b505af11580156126a1573d6000803e3d6000fd5b5050505080600060080160008282546126ba919061556c565b9091555073786EC98A0f46782fc4065Ff8D47Fd52DD20dF2469050632fb8626260006126e581613054565b6126ef600061307c565b6040516001600160e01b031960e086901b168152600481019390935260248301919091526044820152600060648201526084810184905260a4015b60006040518083038186803b15801561274257600080fd5b505af41580156110df573d6000803e3d6000fd5b602a54610100900460ff16158080156127765750602a54600160ff909116105b806127905750303b1580156127905750602a5460ff166001145b6127f35760405162461bcd60e51b815260206004820152602e60248201527f496e697469616c697a61626c653a20636f6e747261637420697320616c72656160448201526d191e481a5b9a5d1a585b1a5e995960921b6064820152608401610d92565b602a805460ff19166001179055801561281657602a805461ff0019166101001790555b61281f336134f5565b6001600160a01b0383166128755760405162461bcd60e51b815260206004820181905260248201527f526567697374727920616464726573732063616e6e6f7420626520656d7074796044820152606401610d92565b61018980546001600160a01b0319166001600160a01b03851617905581516000906128a9906020908501810190850161570b565b60208101519091506001600160a01b03166128ff5760405162461bcd60e51b8152602060048201526016602482015275506f6f6c3a20496e76616c69642063757272656e637960501b6044820152606401610d92565b6020810151600780546001600160a01b0319166001600160a01b0390921691909117905560608101516000805460ff1916911515919091179055600e80546bffffffffffffffffffffffff1630600160601b02179055604081015161296390611dea565b805161296e9061239f565b602081015160405163095ea7b360e01b815230600482015260001960248201526001600160a01b039091169063095ea7b3906044016020604051808303816000875af11580156129c2573d6000803e3d6000fd5b505050506040513d601f19601f820116820180604052508101906129e69190615784565b612a325760405162461bcd60e51b815260206004820152601e60248201527f506f6f6c3a2043757272656e637920617070726f76616c206661696c656400006044820152606401610d92565b61018954612a48906001600160a01b0316613090565b610189546001600160a01b039182169163a22cb46591612a689116613438565b6040516001600160e01b031960e084901b1681526001600160a01b03909116600482015260016024820152604401600060405180830381600087803b158015612ab057600080fd5b505af1158015612ac4573d6000803e3d6000fd5b5050505050801561110a57602a805461ff0019169055604051600181527f7f26b83ff96e1f2b6a682f133852f6798a09c465da95921460cefb38474024989060200160405180910390a1505050565b600082815260f36020526040902060010154612b2e81613165565b61110a8383613356565b612b4061309d565b612b48613386565b612b606000805160206159e9833981519152336120bb565b80612b7e5750612b7e6000805160206159c9833981519152336120bb565b612b9a5760405162461bcd60e51b8152600401610d929061532e565b604051639178a8a160e01b815273Fb94240006b52111570eB6C28Bb195f9b5908c9990639178a8a190612bda90600290889088908890889060040161579f565b60006040518083038186803b158015612bf257600080fd5b505af4158015612c06573d6000803e3d6000fd5b505050506123996001608f55565b6000610a2a60008361353d565b6000805160206159e9833981519152612c3981613165565b6040516356a5a29960e01b815260006004820152602481018490526044810183905273dFFd058059e26fF1a76be0cf6371A008C108A0e0906356a5a2999060640161272a565b612c8761309d565b61018954612c9d906001600160a01b0316613158565b6001600160a01b0316336001600160a01b031614612ccd5760405162461bcd60e51b8152600401610d92906157dd565b61215860008261356b565b612ce061309d565b612ce8613386565b612d006000805160206159e9833981519152336120bb565b80612d1e5750612d1e6000805160206159c9833981519152336120bb565b612d3a5760405162461bcd60e51b8152600401610d929061532e565b604051635cd35d6360e11b8152600060048201526001600160a01b038216602482015273739c93545CAD9EE3202A524ef50ebfDaf452C8dF9063b9a6bac69060440160006040518083038186803b158015612d9457600080fd5b505af4158015612da8573d6000803e3d6000fd5b505061018954612dc392506001600160a01b03169050613379565b60405163dc90f9fd60e01b81526001600160a01b038381166004830152919091169063dc90f9fd90602401600060405180830381600087803b158015612e0857600080fd5b505af1158015612e1c573d6000803e3d6000fd5b505050506121586001608f55565b612e3261309d565b612e3b33611311565b612e657f59abfac6520ec36a6556b2a4dd949cc40007459bcd5cd2507f1e5cc77b6bc97e836120bb565b612eca5760405162461bcd60e51b815260206004820152603060248201527f53656375726974697a6174696f6e506f6f6c3a204f6e6c79204f726967696e6160448201526f3a37b91031b0b710323930bbb237bbb760811b6064820152608401610d92565b604051635d46333760e11b8152600060048201526001600160a01b03831660248201526044810182905273739c93545CAD9EE3202A524ef50ebfDaf452C8dF9063ba8c666e9060640161201e565b612f2061309d565b61018954612f36906001600160a01b0316613158565b6001600160a01b0316336001600160a01b031614612f665760405162461bcd60e51b8152600401610d92906157dd565b604051637564542160e11b8152600060048201526024810182905273739c93545CAD9EE3202A524ef50ebfDaf452C8dF9063eac8a84290604401611010565b60408051808201909152600080825260208201526002805483908110612fcd57612fcd615450565b60009182526020918290206040805180820190915260029092020180546001600160a01b03168252600101549181019190915292915050565b61018954600090611128906001600160a01b0316613495565b60006001600160e01b03198216637965db0b60e01b1480610a2a57506301ffc9a760e01b6001600160e01b0319831614610a2a565b600080600080613063856135be565b9250925092506113a58361307784846136c3565b6136c3565b6000610a2a826009015483600801546136c3565b6000610a2a826007613713565b605d5460ff16156117035760405162461bcd60e51b815260206004820152601060248201526f14185d5cd8589b194e881c185d5cd95960821b6044820152606401610d92565b6130ec82613379565b6001600160a01b0316816001600160a01b0316146114285760405162461bcd60e51b8152602060048201526024808201527f52656769737472793a204f6e6c792053656375726974697a6174696f6e4d616e60448201526330b3b2b960e11b6064820152608401610d92565b6000610a2a826005613713565b6121588133613798565b60008181526015830160209081526040808320548084526013860190925282206001810154600482015460059092015490919065ffffffffffff16421061321c5760008381526013870160205260409020600181015460028201546005909201546131e2929065ffffffffffff166137f1565b60008481526013880160205260409020600481015460038201546005909201549294506132199290919065ffffffffffff166137f1565b90505b8060000361324a576000858152601487016020526040902054613240908390613811565b9350505050610a2a565b6132408161326d848960140160008a815260200190815260200160002054613811565b613811565b600082815260f36020526040808220600101805490849055905190918391839186917fbd79b86ffe0ab8e8776151514217cd7cacd52c909f66475c3af44e129f0b00ff9190a4505050565b6000610a2a826004613713565b6132d4828261381d565b60008281526101256020526040902061110a90826138a3565b6132f682613438565b6001600160a01b0316816001600160a01b0316146114285760405162461bcd60e51b815260206004820152601960248201527f52656769737472793a204f6e6c79204c6f616e4b65726e656c000000000000006044820152606401610d92565b61336082826138b8565b60008281526101256020526040902061110a908261391f565b6000610a2a826000613713565b6002608f54036133d85760405162461bcd60e51b815260206004820152601f60248201527f5265656e7472616e637947756172643a207265656e7472616e742063616c6c006044820152606401610d92565b6002608f55565b6001608f55565b6133ee613934565b605d805460ff191690557f5db9ee0a495bf2e6ff9c91a7834c1ba4fdd244a5e8aa4e537bd38aeae4b073aa335b6040516001600160a01b03909116815260200160405180910390a1565b6000610a2a826008613713565b60008160000361347257600084815260148601602052604090205461346b908490613811565b9050610e73565b61346b8261326d8588601401600089815260200190815260200160002054613811565b6000610a2a826003613713565b6134aa61309d565b605d805460ff191660011790557f62e78cea01bee320cd4e420270b5ea74000d11b0c9f74754ebdbfc544b05a25861341b3390565b600061208f838361397d565b6000610a2a825490565b602a54610100900460ff1661351c5760405162461bcd60e51b8152600401610d929061581b565b6135246139a7565b61352c6139da565b613534613a01565b61215881613a28565b60008060008061354d8686613af3565b9250925092506135618361307784846136c3565b9695505050505050565b6135798260090154826136c3565b600983018190556040805183815260208101929092527f918efcc3fbab932d4dd5f5d71315810f6d34460b2a009f613454f4a7b3e6f385910160405180910390a15050565b601f8101546021820154601d8301546020840154600093849384939192909190838503613600576000836135f18a613c5e565b965096509650505050506136bc565b60008061360c42613cd0565b9050825b81811015613680576000818152601b8c016020526040902054801561366b5761365c84613077836136578a6136458989613cec565b6b033b2e3c9fd0803ce8000000613d3c565b613dfa565b93506136688a826136c3565b99505b50613679816201518061557f565b9050613610565b5061369c61369687613657876136458689613cec565b83613e1d565b6136a6868a6136c3565b6136af8c613c5e565b9850985098505050505050505b9193909250565b6000826136d0838261557f565b9150811015610a2a5760405162461bcd60e51b815260206004820152600f60248201526e1cd859994b5859190b59985a5b1959608a1b6044820152606401610d92565b6000826001600160a01b031663bcaa0c5583600a81111561373657613736614896565b6040516001600160e01b031960e084901b16815260ff9091166004820152602401602060405180830381865afa158015613774573d6000803e3d6000fd5b505050506040513d601f19601f8201168201806040525081019061208f9190615204565b6137a282826120bb565b611428576137af81613e39565b6137ba836020613e4b565b6040516020016137cb92919061588a565b60408051601f198184030181529082905262461bcd60e51b8252610d92916004016158ff565b60008142106138095761380684848442613fe6565b93505b509192915050565b600061208f8284613dfa565b61382782826120bb565b61142857600082815260f3602090815260408083206001600160a01b03851684529091529020805460ff1916600117905561385f3390565b6001600160a01b0316816001600160a01b0316837f2f8788117e7eff1d82e926ec794901d17c78024a50270940304540a733656f0d60405160405180910390a45050565b600061208f836001600160a01b038416613fff565b6138c282826120bb565b1561142857600082815260f3602090815260408083206001600160a01b0385168085529252808320805460ff1916905551339285917ff6391f5c32d9c69d2a47ea670b442974b53935d1edc7fd64eb21e047a839171b9190a45050565b600061208f836001600160a01b03841661404e565b605d5460ff166117035760405162461bcd60e51b815260206004820152601460248201527314185d5cd8589b194e881b9bdd081c185d5cd95960621b6044820152606401610d92565b600082600001828154811061399457613994615450565b9060005260206000200154905092915050565b602a54610100900460ff166139ce5760405162461bcd60e51b8152600401610d929061581b565b605d805460ff19169055565b602a54610100900460ff166133df5760405162461bcd60e51b8152600401610d929061581b565b602a54610100900460ff166117035760405162461bcd60e51b8152600401610d929061581b565b602a54610100900460ff16613a4f5760405162461bcd60e51b8152600401610d929061581b565b6001600160a01b038116613a605750335b613a6b600033614148565b613a836000805160206159c983398151915282614148565b613abb7f59abfac6520ec36a6556b2a4dd949cc40007459bcd5cd2507f1e5cc77b6bc97e6000805160206159c9833981519152613272565b6121587f21702c8af46127c7fa207f89d0b0a8441bb32959a0ac7df790e9ab1a25c989266000805160206159e9833981519152613272565b601d8201546000828152602284016020908152604080832054828701546023880190935290832054929384938493849391613b2e8a8a614152565b15613b86576000613b3f8b8b614185565b9050613b82613b4e8c8c61316f565b8c601c018381548110613b6357613b63615450565b60009182526020909120600290910201546001600160801b0316613dfa565b9550505b82600003613ba057600097509550929350613c5792505050565b600080613bac42613cd0565b60008c815260198e01602052604081205491925090613bda90600160801b90046001600160801b0316613cd0565b9050848110158015613beb57508181105b15613c225760008c815260198e0160205260409020546001600160801b0316613c1c816136578a6136458787613cec565b909a5092505b613c3d613c37876136578a613645878b613cec565b84613e1d565b613c47858c6136c3565b899a509a509a5050505050505050505b9250925092565b6000805b601c830154811015613cca57613cb682613077613ca18685613c926b033b2e3c9fd0803ce80000006103e8615111565b613c9c919061557f565b614304565b86601c018581548110613b6357613b63615450565b915080613cc281615466565b915050613c62565b50919050565b6000613cdf6201518083615128565b610a2a9062015180615111565b600082613cf9838261556c565b9150811115610a2a5760405162461bcd60e51b815260206004820152600f60248201526e1cd859994b5cdd588b59985a5b1959608a1b6044820152606401610d92565b6000838015613ddc57600184168015613d5757859250613d5b565b8392505b50600283046002850494505b8415613dd6578586028687820414613d7e57600080fd5b81810181811015613d8e57600080fd5b8590049650506001851615613dcb578583028387820414158715151615613db457600080fd5b81810181811015613dc457600080fd5b8590049350505b600285049450613d67565b50613df2565b838015613dec5760009250613df0565b8392505b505b509392505050565b60006b033b2e3c9fd0803ce8000000613e1384846143c4565b61208f9190615128565b600082821115613e2f57506000610a2a565b61208f8383613cec565b6060610a2a6001600160a01b03831660145b60606000613e5a836002615111565b613e6590600261557f565b6001600160401b03811115613e7c57613e7c61464e565b6040519080825280601f01601f191660200182016040528015613ea6576020820181803683370190505b509050600360fc1b81600081518110613ec157613ec1615450565b60200101906001600160f81b031916908160001a905350600f60fb1b81600181518110613ef057613ef0615450565b60200101906001600160f81b031916908160001a9053506000613f14846002615111565b613f1f90600161557f565b90505b6001811115613f97576f181899199a1a9b1b9c1cb0b131b232b360811b85600f1660108110613f5357613f53615450565b1a60f81b828281518110613f6957613f69615450565b60200101906001600160f81b031916908160001a90535060049490941c93613f9081615932565b9050613f22565b50831561208f5760405162461bcd60e51b815260206004820181905260248201527f537472696e67733a20686578206c656e67746820696e73756666696369656e746044820152606401610d92565b60006113a5613ff985613645868661556c565b86613dfa565b600081815260018301602052604081205461404657508154600181810184556000848152602080822090930184905584548482528286019093526040902091909155610a2a565b506000610a2a565b6000818152600183016020526040812054801561413757600061407260018361556c565b85549091506000906140869060019061556c565b90508181146140eb5760008660000182815481106140a6576140a6615450565b90600052602060002001549050808760000184815481106140c9576140c9615450565b6000918252602080832090910192909255918252600188019052604090208390555b85548690806140fc576140fc615949565b600190038181906000526020600020016000905590558560010160008681526020019081526020016000206000905560019350505050610a2a565b6000915050610a2a565b5092915050565b61142882826132ca565b600061416c6b033b2e3c9fd0803ce80000006103e8615111565b6000928352601593909301602052506040902054101590565b60008181526019830160205260408120548290600160801b90046001600160801b0316826141b242613cd0565b905060006141c08785614426565b90506000600182604001516141d5919061595f565b90506001600160801b036000805b601c8b01546001600160801b03821610156142ed5760008b601c01826001600160801b03168154811061421857614218615450565b906000526020600020906002020160000160109054906101000a90046001600160801b03169050846001600160801b03168c601c01836001600160801b03168154811061426757614267615450565b60009182526020909120600160029092020101546001600160801b03161480156142a35750826001600160801b0316816001600160801b031610155b80156142ce57506142b7816201518061597f565b6142ca906001600160801b03168961557f565b8710155b156142da578193508092505b50806142e5816159a2565b9150506141e3565b50506001600160801b031698975050505050505050565b600081815260138301602052604081206001810154600482015482546005909301549192909165ffffffffffff1642106143a457600085815260138701602052604090206001810154600282015460059092015461436a929065ffffffffffff166137f1565b60008681526013880160205260409020600481015460038201546005909201549295506143a19290919065ffffffffffff166137f1565b91505b816000036143b6576132408382613811565b6132408261326d8584613811565b60008115806143e8575082826143da8183615111565b92506143e69083615128565b145b610a2a5760405162461bcd60e51b815260206004820152600f60248201526e1cd859994b5b5d5b0b59985a5b1959608a1b6044820152606401610d92565b61442e614563565b600082815260198401602090815260409182902082516102008101845281546001600160801b038082168352600160801b9091048116938201939093526001808301549093169381019390935260028101546001600160a01b0390811660608501526003820154166080840152600481015460a0840152600581015460c0840152600681015460e08401526007810154909161010084019160ff16908111156144d9576144d9614896565b60018111156144ea576144ea614896565b81526008820154602082015260098201546040820152600a8201546060820152600b8201546080820152600c82015460a09091019060ff16600581111561453357614533614896565b600581111561454457614544614896565b8152600d8201546020820152600e909101546040909101529392505050565b6040805161020081018252600080825260208201819052918101829052606081018290526080810182905260a0810182905260c0810182905260e0810182905261010081018290526101208101829052610140810182905261016081018290526101808101829052906101a0820190815260200160008152602001600081525090565b6000602082840312156145f857600080fd5b81356001600160e01b03198116811461208f57600080fd5b60006020828403121561462257600080fd5b5035919050565b6001600160a01b038116811461215857600080fd5b803561464981614629565b919050565b634e487b7160e01b600052604160045260246000fd5b60405161010081016001600160401b03811182821017156146875761468761464e565b60405290565b604051601f8201601f191681016001600160401b03811182821017156146b5576146b561464e565b604052919050565b600082601f8301126146ce57600080fd5b81356001600160401b038111156146e7576146e761464e565b6146fa601f8201601f191660200161468d565b81815284602083860101111561470f57600080fd5b816020850160208301376000918101602001919091529392505050565b6000806000806080858703121561474257600080fd5b843561474d81614629565b9350602085013561475d81614629565b92506040850135915060608501356001600160401b0381111561477f57600080fd5b61478b878288016146bd565b91505092959194509250565b60008083601f8401126147a957600080fd5b5081356001600160401b038111156147c057600080fd5b6020830191508360208260051b850101111561253e57600080fd5b600080600080600080606087890312156147f457600080fd5b86356001600160401b038082111561480b57600080fd5b6148178a838b01614797565b9098509650602089013591508082111561483057600080fd5b61483c8a838b01614797565b9096509450604089013591508082111561485557600080fd5b5061486289828a01614797565b979a9699509497509295939492505050565b6000806040838503121561488757600080fd5b50508035926020909101359150565b634e487b7160e01b600052602160045260246000fd5b600281106148bc576148bc614896565b9052565b600681106148bc576148bc614896565b81516001600160801b03168152610200810160208301516148fc60208401826001600160801b03169052565b50604083015161491760408401826001600160801b03169052565b50606083015161493260608401826001600160a01b03169052565b50608083015161494d60808401826001600160a01b03169052565b5060a083015160a083015260c083015160c083015260e083015160e08301526101008084015161497f828501826148ac565b505061012083810151908301526101408084015190830152610160808401519083015261018080840151908301526101a0808401516149c0828501826148c0565b50506101c083810151908301526101e092830151929091019190915290565b600080604083850312156149f257600080fd5b823591506020830135614a0481614629565b809150509250929050565b60008060008060408587031215614a2557600080fd5b84356001600160401b0380821115614a3c57600080fd5b614a4888838901614797565b90965094506020870135915080821115614a6157600080fd5b818701915087601f830112614a7557600080fd5b813581811115614a8457600080fd5b8860208260081b8501011115614a9957600080fd5b95989497505060200194505050565b60008060008060408587031215614abe57600080fd5b84356001600160401b0380821115614ad557600080fd5b614ae188838901614797565b90965094506020870135915080821115614afa57600080fd5b50614b0787828801614797565b95989497509550505050565b600081518084526020808501945080840160005b83811015614b4357815187529582019590820190600101614b27565b509495945050505050565b604081526000614b616040830185614b13565b82810360208401526113a58185614b13565b6020808252825182820181905260009190848201906040850190845b81811015614bb45783516001600160a01b031683529284019291840191600101614b8f565b50909695505050505050565b815163ffffffff16815261016081016020830151614be6602084018263ffffffff169052565b506040830151614bfe604084018263ffffffff169052565b506060830151614c16606084018263ffffffff169052565b506080830151614c2e608084018263ffffffff169052565b5060a0830151614c4660a084018263ffffffff169052565b5060c0830151614c5e60c084018263ffffffff169052565b5060e0830151614c7660e084018263ffffffff169052565b506101008381015163ffffffff81168483015250506101208381015163ffffffff81168483015250506101408381015163ffffffff8116848301525b505092915050565b600060208284031215614ccc57600080fd5b813561208f81614629565b63ffffffff8116811461215857600080fd5b600060208284031215614cfb57600080fd5b813561208f81614cd7565b60008060408385031215614d1957600080fd5b8235614d2481614629565b946020939093013593505050565b60006001600160401b03821115614d4b57614d4b61464e565b5060051b60200190565b803560ff8116811461464957600080fd5b80356002811061464957600080fd5b600082601f830112614d8657600080fd5b81356020614d9b614d9683614d32565b61468d565b82815260089290921b84018101918181019086841115614dba57600080fd5b8286015b84811015614e55576101008189031215614dd85760008081fd5b614de0614664565b8135614deb81614629565b8152614df882860161463e565b8186015260408281013590820152606080830135908201526080808301359082015260a0808301359082015260c0614e31818401614d55565b9082015260e0614e42838201614d66565b9082015283529183019161010001614dbe565b509695505050505050565b60008060408385031215614e7357600080fd5b82356001600160401b0380821115614e8a57600080fd5b818501915085601f830112614e9e57600080fd5b81356020614eae614d9683614d32565b82815260059290921b84018101918181019089841115614ecd57600080fd5b948201945b83861015614eeb57853582529482019490820190614ed2565b96505086013592505080821115614f0157600080fd5b50614f0e85828601614d75565b9150509250929050565b828152604060208201526000610e736040830184614b13565b60008060408385031215614f4457600080fd5b8235614f4f81614629565b915060208301356001600160401b03811115614f6a57600080fd5b614f0e858286016146bd565b60008060008060608587031215614f8c57600080fd5b8435614f9781614629565b93506020850135614fa781614629565b925060408501356001600160401b03811115614fc257600080fd5b614b0787828801614797565b600060208284031215614fe057600080fd5b5051919050565b634e487b7160e01b600052601160045260246000fd5b600181815b8085111561503857816000190482111561501e5761501e614fe7565b8085161561502b57918102915b93841c9390800290615002565b509250929050565b60008261504f57506001610a2a565b8161505c57506000610a2a565b8160018114615072576002811461507c57615098565b6001915050610a2a565b60ff84111561508d5761508d614fe7565b50506001821b610a2a565b5060208310610133831016604e8410600b84101617156150bb575081810a610a2a565b6150c58383614ffd565b80600019048211156150d9576150d9614fe7565b029392505050565b600061208f8383615040565b6000806040838503121561510057600080fd5b505080516020909101519092909150565b8082028115828204841417610a2a57610a2a614fe7565b60008261514557634e487b7160e01b600052601260045260246000fd5b500490565b6000806040838503121561515d57600080fd5b825161516881614629565b6020840151909250614a0481614629565b8183526000602080850194508260005b85811015614b4357813561519c81614cd7565b63ffffffff1687529582019590820190600101615189565b8781526080602082015260006151ce60808301888a615179565b82810360408401526151e1818789615179565b905082810360608401526151f6818587615179565b9a9950505050505050505050565b60006020828403121561521657600080fd5b815161208f81614629565b81835260006001600160fb1b0383111561523a57600080fd5b8260051b80836020870137939093016020019392505050565b600060608783526020818185015261526e828501888a615221565b8481036040868101919091528682528791830160005b8881101561531e57833561529781614629565b6001600160a01b03908116835284860135906152b282614629565b1682860152838301358383015285840135868301526080808501359083015260a0808501359083015260c06152e8818601614d55565b60ff169083015260e06152fc858201614d66565b615308828501826148ac565b5050610100938401939190910190600101615284565b509b9a5050505050505050505050565b60208082526025908201527f506f6f6c3a204e6f7420616e20706f6f6c2061646d696e206f7220706f6f6c2060408201526437bbb732b960d91b606082015260800190565b8183526000602080850194508260005b85811015614b4357813561539681614629565b6001600160a01b031687529582019590820190600101615383565b8781526080602082015260006153cb60808301888a615373565b82810360408401526153de818789615373565b905082810360608401526151f6818587615221565b6020808252603a908201527f556e74616e676c6564426173653a204d75737420686176652061646d696e207260408201527f6f6c6520746f20706572666f726d207468697320616374696f6e000000000000606082015260800190565b634e487b7160e01b600052603260045260246000fd5b60006001820161547857615478614fe7565b5060010190565b858152606060208201526000615499606083018688615221565b82810360408401526154ac818587615221565b98975050505050505050565b600082601f8301126154c957600080fd5b815160206154d9614d9683614d32565b82815260059290921b840181019181810190868411156154f857600080fd5b8286015b84811015614e5557805183529183019183016154fc565b6000806040838503121561552657600080fd5b82516001600160401b038082111561553d57600080fd5b615549868387016154b8565b9350602085015191508082111561555f57600080fd5b50614f0e858286016154b8565b81810381811115610a2a57610a2a614fe7565b80820180821115610a2a57610a2a614fe7565b8781526080602082015260006155ac60808301888a615373565b82810360408401526155bf818789615221565b905082810360608401526151f6818587615373565b600060608083018684526020828186015281875180845260809350838701915082890160005b82811015615616578151845292840192908401906001016155fa565b50505085810360408781019190915287518083528389019284019060005b818110156156ae57845180516001600160a01b03908116855287820151168785015284810151858501528881015189850152878101518885015260a0808201519085015260c08082015160ff169085015260e09081015190615698818601836148ac565b5050938501936101009290920191600101615634565b50909b9a5050505050505050505050565b600080604083850312156156d257600080fd5b8251915060208301516001600160401b038111156156ef57600080fd5b614f0e858286016154b8565b8051801515811461464957600080fd5b60006080828403121561571d57600080fd5b604051608081018181106001600160401b038211171561573f5761573f61464e565b60405282518152602083015161575481614629565b6020820152604083015161576781614cd7565b6040820152615778606084016156fb565b60608201529392505050565b60006020828403121561579657600080fd5b61208f826156fb565b8581526001600160a01b038581166020830152841660408201526080606082018190526000906157d29083018486615221565b979650505050505050565b6020808252603090820152600080516020615a0983398151915260408201526f31329022b837b1b422bc32b1baba37b960811b606082015260800190565b6020808252602b908201527f496e697469616c697a61626c653a20636f6e7472616374206973206e6f74206960408201526a6e697469616c697a696e6760a81b606082015260800190565b60005b83811015615881578181015183820152602001615869565b50506000910152565b7f416363657373436f6e74726f6c3a206163636f756e74200000000000000000008152600083516158c2816017850160208801615866565b7001034b99036b4b9b9b4b733903937b6329607d1b60179184019182015283516158f3816028840160208801615866565b01602801949350505050565b602081526000825180602084015261591e816040850160208701615866565b601f01601f19169190910160400192915050565b60008161594157615941614fe7565b506000190190565b634e487b7160e01b600052603160045260246000fd5b6001600160801b0382811682821603908082111561414157614141614fe7565b6001600160801b03818116838216028082169190828114614cb257614cb2614fe7565b60006001600160801b038083168181036159be576159be614fe7565b600101939250505056feb19546dff01e856fb3f010c267a7b1c60363cf8a4664e21cc89c26224620214e3e9c05fb0f9da4414e033bb9bf190a6e2072adf7e3077394fce683220513b8d753656375726974697a6174696f6e506f6f6c3a2043616c6c6572206d75737420a2646970667358221220fbe656a08bbe3ca0d66823e07f78623e0f7f9ba6a6fb6c3383f47e815687dd0f64736f6c63430008130033",
  "deployedBytecode": "0x608060405234801561001057600080fd5b50600436106104545760003560e01c80636b70f71d11610241578063c3d2129d1161013b578063e3178bc4116100c3578063ed34889511610087578063ed3488951461098d578063f3fef3a3146109a0578063f70a726e146109b3578063fa3908b1146109c6578063febd6018146109fd57600080fd5b8063e3178bc414610941578063e3adb7f014610954578063e681542d14610967578063e6c0e6d51461097a578063e87ac8431461098257600080fd5b8063cee7b6a11161010a578063cee7b6a1146108f8578063d1f5789414610900578063d547741f14610913578063dec2858714610926578063e1c84ea41461093957600080fd5b8063c3d2129d146108b4578063ca15c873146108d5578063cd3293de146108e8578063ce8fcab1146108f057600080fd5b80639b3e2291116101c9578063af14052c1161018d578063af14052c14610876578063b1511cc91461087e578063b3c6501514610891578063b6db75a014610899578063ba81a936146108a157600080fd5b80639b3e229114610838578063a217fddf1461084b578063a5688a9014610853578063a6c595471461085b578063ade0ea6d1461086e57600080fd5b80638456cb59116102105780638456cb59146107df5780638fd6b71e146107e75780639010d07c146107ff578063901617051461081257806391d148541461082557600080fd5b80636b70f71d1461079d57806373ffe3c7146107a55780637b103999146107b85780637f3bd56e146107cc57600080fd5b80632f2ff15d11610352578063477035d1116102da578063586fd8a11161029e578063586fd8a1146107295780635c975abb1461074a5780636421cede14610755578063644b4ead1461076a578063659306461461078a57600080fd5b8063477035d1146106c157806349110ac4146106ed5780634ba2363a146106f557806353069df61461070d578063565a2e2c1461071857600080fd5b80633bf4045f116103215780633bf4045f146106675780633f12dc101461067a5780633f4ba83a146106a65780634020c8d1146106ae57806340301264146106b957600080fd5b80632f2ff15d1461061b578063339443571461062e57806336568abe146106415780633aa29d7a1461065457600080fd5b8063185acf74116103e05780632b71b450116103a45780632b71b450146105db5780632bb14ff0146105e35780632bcc3682146105eb5780632cbf3da0146105f35780632cc3ce80146105fb57600080fd5b8063185acf741461056c5780631bf51b701461057f5780631e0029c8146105925780631e4e0091146105a5578063248a9ca3146105b857600080fd5b80630b7792f1116104275780630b7792f1146104ec5780630bc6bffc146104f45780630e9bf4e414610519578063150b7a021461053657806317a7ad1d1461056257600080fd5b806301ffc9a71461045957806304a3f19c14610481578063065dad8f1461049357806306823e8c146104c3575b600080fd5b61046c6104673660046145e6565b610a05565b60405190151581526020015b60405180910390f35b6009545b604051908152602001610478565b6104856104a1366004614610565b600090815260196020526040902054600160801b90046001600160801b031690565b6104856104d1366004614610565b6000908152601960205260409020546001600160801b031690565b600254610485565b6007546001600160a01b03165b6040516001600160a01b039091168152602001610478565b610521610a30565b60408051928352602083019190915201610478565b61054961054436600461472c565b610cfd565b6040516001600160e01b03199091168152602001610478565b61056a610e7b565b005b61056a61057a366004614610565b610f4f565b61056a61058d3660046147db565b611043565b6104856105a0366004614610565b6110e8565b61056a6105b3366004614874565b6110f5565b6104856105c6366004614610565b600090815260f3602052604090206001015490565b61050161110f565b601054610485565b600154610485565b610485611197565b61060e610609366004614610565b6111a3565b60405161047891906148d0565b61056a6106293660046149df565b6112dd565b61048561063c366004614a0f565b611302565b61056a61064f3660046149df565b6113ae565b61056a610662366004614874565b61142c565b61056a6106753660046147db565b6115f0565b610485610688366004614610565b6000908152601960205260409020600101546001600160801b031690565b61056a6116d7565b60005460ff1661046c565b600854610485565b600e5464010000000090046001600160401b03166040516001600160401b039091168152602001610478565b61046c611705565b600e54600160601b90046001600160a01b0316610501565b602554602654610521565b600a546001600160a01b0316610501565b61073c610737366004614aa8565b61171f565b604051610478929190614b4e565b605d5460ff1661046c565b61075d611b77565b6040516104789190614b73565b61077d610778366004614610565b611bdc565b6040516104789190614bc0565b61056a610798366004614cba565b611d0d565b610521611d65565b61056a6107b3366004614ce9565b611dea565b61018954610501906001600160a01b031681565b61056a6107da366004614d06565b611f1b565b61056a61204a565b600e5460405163ffffffff9091168152602001610478565b61050161080d366004614874565b612076565b61056a610820366004614610565b612096565b61046c6108333660046149df565b6120bb565b61056a610846366004614610565b6120e6565b610485600081565b61048561215b565b61056a6108693660046147db565b612274565b600f54610485565b61056a612311565b61056a61088c366004614610565b61239f565b61048561242e565b61046c612444565b61056a6108af366004614ce9565b61246f565b6108c76108c2366004614e60565b6124b4565b604051610478929190614f18565b6104856108e3366004614610565b612545565b61048561255d565b61056a612569565b601154610485565b61056a61090e366004614f31565b612756565b61056a6109213660046149df565b612b13565b61056a610934366004614f76565b612b38565b601254610485565b61048561094f366004614610565b612c14565b61056a610962366004614874565b612c21565b61056a610975366004614610565b612c7f565b601d54610485565b600c54600d54610521565b61056a61099b366004614cba565b612cd8565b61056a6109ae366004614d06565b612e2a565b61056a6109c1366004614610565b612f18565b6109d96109d4366004614610565b612fa5565b6040805182516001600160a01b031681526020928301519281019290925201610478565b610501613006565b60006001600160e01b03198216635a05180f60e01b1480610a2a5750610a2a8261301f565b92915050565b6000806000610a3d61110f565b90506000610a49613006565b90506000816001600160a01b031663313ce5676040518163ffffffff1660e01b8152600401602060405180830381865afa158015610a8b573d6000803e3d6000fd5b505050506040513d601f19601f82011682018060405250810190610aaf9190614fce565b610aba90600a6150e1565b905060008073__$a68f613c3bdb728f6ba077784ec1fd15de$__6328774cad610ae36000613054565b610aed600061307c565b604051639a1140b960e01b81526000600482015273__$a68f613c3bdb728f6ba077784ec1fd15de$__90639a1140b990602401602060405180830381865af4158015610b3d573d6000803e3d6000fd5b505050506040513d601f19601f82011682018060405250810190610b619190614fce565b6000602801548a6001600160a01b03166318160ddd6040518163ffffffff1660e01b8152600401602060405180830381865afa158015610ba5573d6000803e3d6000fd5b505050506040513d601f19601f82011682018060405250810190610bc99190614fce565b8a6001600160a01b03166318160ddd6040518163ffffffff1660e01b8152600401602060405180830381865afa158015610c07573d6000803e3d6000fd5b505050506040513d601f19601f82011682018060405250810190610c2b9190614fce565b6040516001600160e01b031960e089901b1681526004810196909652602486019490945260448501929092526064840152608483015260a482015260c4016040805180830381865af4158015610c85573d6000803e3d6000fd5b505050506040513d601f19601f82011682018060405250810190610ca991906150ed565b90925090506b033b2e3c9fd0803ce8000000610cc58484615111565b610ccf9190615128565b6b033b2e3c9fd0803ce8000000610ce68584615111565b610cf09190615128565b9650965050505050509091565b610189546000903390610d18906001600160a01b0316613090565b6001600160a01b0316816001600160a01b031614610d9b5760405162461bcd60e51b815260206004820152603560248201527f53656375726974697a6174696f6e506f6f6c3a204d75737420626520746f6b656044820152741b881a5cdcdd595908189e48155b9d185b99db1959605a1b60648201526084015b60405180910390fd5b6040805180820182526001600160a01b03838116808352602080840189815260028054600181018255600082905295517f405787fa12a823e0f2b7631cc41b3ba8828b3321ca811111fa75cd3aa3bb5ace96820296870180546001600160a01b0319169190961617909455517f405787fa12a823e0f2b7631cc41b3ba8828b3321ca811111fa75cd3aa3bb5acf909401939093558351908152918201879052917ff1c19e8856063adce43b5f307c6ac9d0af46fd0787c590550c51d7cf02d2e5f4910160405180910390a150630a85bd0160e11b9150505b949350505050565b610e8361309d565b610e9b335b610189546001600160a01b0316906130e3565b610189546000908190610eb6906001600160a01b0316613158565b6040516304a2828b60e41b81523060048201526001600160a01b039190911690634a2828b0906024016040805180830381865afa158015610efb573d6000803e3d6000fd5b505050506040513d601f19601f82011682018060405250810190610f1f919061514a565b600580546001600160a01b039384166001600160a01b031991821617909155600680549290931691161790555050565b610f5761309d565b61018954610f6d906001600160a01b0316613158565b6001600160a01b0316336001600160a01b031614610fd55760405162461bcd60e51b81526020600482015260316024820152600080516020615a09833981519152604482015270031329022b837b1b422bc32b1baba37b91607d1b6064820152608401610d92565b6040516338ca404b60e21b8152600060048201526024810182905273__$4c26be947d349222af871a3168b3fe584b$__9063e329012c906044015b60006040518083038186803b15801561102857600080fd5b505af415801561103c573d6000803e3d6000fd5b5050505050565b61104b61309d565b6000805160206159e983398151915261106381613165565b6040516318d6411560e31b815273__$e2770451a2a37dcdd32d3c1720bab879c1$__9063c6b208a8906110a7906000908b908b908b908b908b908b906004016151b4565b60006040518083038186803b1580156110bf57600080fd5b505af41580156110d3573d6000803e3d6000fd5b505050506110df612311565b50505050505050565b6000610a2a60008361316f565b600061110081613165565b61110a8383613272565b505050565b61018954600090611128906001600160a01b03166132bd565b60405163b8d7b66960e01b81523060048201526001600160a01b03919091169063b8d7b66990602401602060405180830381865afa15801561116e573d6000803e3d6000fd5b505050506040513d601f19601f820116820180604052508101906111929190615204565b905090565b60006111926000613054565b6111ab614563565b60008281526019602090815260409182902082516102008101845281546001600160801b038082168352600160801b9091048116938201939093526001808301549093169381019390935260028101546001600160a01b0390811660608501526003820154166080840152600481015460a0840152600581015460c0840152600681015460e08401526007810154909161010084019160ff169081111561125457611254614896565b600181111561126557611265614896565b81526008820154602082015260098201546040820152600a8201546060820152600b8201546080820152600c82015460a09091019060ff1660058111156112ae576112ae614896565b60058111156112bf576112bf614896565b8152600d8201546020820152600e9091015460409091015292915050565b600082815260f360205260409020600101546112f881613165565b61110a83836132ca565b600061130c61309d565b611324335b610189546001600160a01b0316906132ed565b604051637f337ae160e11b815273__$e2770451a2a37dcdd32d3c1720bab879c1$__9063fe66f5c290611364906000908990899089908990600401615253565b602060405180830381865af4158015611381573d6000803e3d6000fd5b505050506040513d601f19601f820116820180604052508101906113a59190614fce565b95945050505050565b6001600160a01b038116331461141e5760405162461bcd60e51b815260206004820152602f60248201527f416363657373436f6e74726f6c3a2063616e206f6e6c792072656e6f756e636560448201526e103937b632b9903337b91039b2b63360891b6064820152608401610d92565b6114288282613356565b5050565b61018954611442906001600160a01b0316613379565b6001600160a01b0316336001600160a01b03161480611487575061018954611472906001600160a01b0316613158565b6001600160a01b0316336001600160a01b0316145b6114f95760405162461bcd60e51b81526020600482015260496024820152600080516020615a0983398151915260448201527f62652053656375726974697a6174696f6e4d616e61676572206f722045706f636064820152683422bc32b1baba37b960b91b608482015260a401610d92565b73__$a68f613c3bdb728f6ba077784ec1fd15de$__632fb86262600061151f6000613054565b611529600061307c565b6040516001600160e01b031960e086901b168152600481019390935260248301919091526044820152606481018590526084810184905260a40160006040518083038186803b15801561157b57600080fd5b505af415801561158f573d6000803e3d6000fd5b505050506000821115611428576115a4611705565b6114285760405162461bcd60e51b815260206004820152601a60248201527f506f6f6c3a2045786365656473204d696e46697273744c6f73730000000000006044820152606401610d92565b6115f861309d565b611600613386565b6116186000805160206159e9833981519152336120bb565b8061163657506116366000805160206159c9833981519152336120bb565b6116525760405162461bcd60e51b8152600401610d929061532e565b60405163563bc1a160e01b815273__$e2770451a2a37dcdd32d3c1720bab879c1$__9063563bc1a190611695906004908a908a908a908a908a908a9087016153b1565b60006040518083038186803b1580156116ad57600080fd5b505af41580156116c1573d6000803e3d6000fd5b505050506116cf6001608f55565b505050505050565b6116df612444565b6116fb5760405162461bcd60e51b8152600401610d92906153f3565b6117036133e6565b565b600061170f61215b565b600e5463ffffffff161115919050565b610189546060908190339061173c906001600160a01b0316613438565b6001600160a01b0316146117835760405162461bcd60e51b815260206004820152600e60248201526d1b9bdd08185d5d1a1bdc9a5e995960921b6044820152606401610d92565b848381146117c45760405162461bcd60e51b815260206004820152600e60248201526d092dcecc2d8d2c840d8cadccee8d60931b6044820152606401610d92565b6000816001600160401b038111156117de576117de61464e565b604051908082528060200260200182016040528015611807578160200160208202803683370190505b50905060005b828110156118bf5760008061186360008c8c8681811061182f5761182f615450565b9050602002013560009081526015820160209081526040808320548352601390930190522060018101546004909101549091565b9150915061188c60008c8c8681811061187e5761187e615450565b905060200201358484613445565b84848151811061189e5761189e615450565b602002602001018181525050505080806118b790615466565b91505061180d565b5060008073__$7f0f8de4978e89001c10ba53aee4a3ea4c$__632f3e0ce060008c8c8c8c6040518663ffffffff1660e01b815260040161190395949392919061547f565b600060405180830381865af4158015611920573d6000803e3d6000fd5b505050506040513d6000823e601f3d908101601f191682016040526119489190810190615513565b9150915060008060005b86811015611a3957600086828151811061196e5761196e615450565b602002602001015185838151811061198857611988615450565b602002602001015161199a919061556c565b9050808683815181106119af576119af615450565b6020026020010151116119e8578582815181106119ce576119ce615450565b6020026020010151846119e1919061557f565b9350611a26565b6119f2818561557f565b935080868381518110611a0757611a07615450565b6020026020010151611a19919061556c565b611a23908461557f565b92505b5080611a3181615466565b915050611952565b506000611a496127106064615111565b600b54611a569085615111565b611a609190615128565b600a54604051630837ca3160e11b8152600060048201526001600160a01b0390911660248201526044810182905290915073__$4c26be947d349222af871a3168b3fe584b$__9063106f94629060640160006040518083038186803b158015611ac857600080fd5b505af4158015611adc573d6000803e3d6000fd5b505050508083611aec919061556c565b60088054600090611afe90849061557f565b909155505060098054839190600090611b1890849061557f565b909155505060408051308152602081018590529081018390524260608201527f2fe77b1c99aca6b022b8efc6e3e8dd1b48b30748709339b65c50ef3263443e099060800160405180910390a150929b919a509098505050505050505050565b60606000600301805480602002602001604051908101604052809291908181526020018280548015611bd257602002820191906000526020600020905b81546001600160a01b03168152600190910190602001808311611bb4575b5050505050905090565b6040805161016081018252600080825260208201819052918101829052606081018290526080810182905260a0810182905260c0810182905260e08101829052610100810182905261012081018290526101408101919091526001805483908110611c4957611c49615450565b600091825260209182902060408051610160810182526002909302909101805463ffffffff808216855264010000000080830482169686019690965268010000000000000000808304821694860194909452600160601b820481166060860152600160801b820481166080860152600160a01b8204811660a0860152600160c01b8204811660c0860152600160e01b909104811660e08501526001909101548082166101008501529384048116610120840152920490911661014082015292915050565b611d1561309d565b611d1e33610e88565b60405163af2f761760e01b8152600060048201526001600160a01b038216602482015273__$e2770451a2a37dcdd32d3c1720bab879c1$__9063af2f761790604401611010565b604051639a1140b960e01b815260006004820181905290819073__$a68f613c3bdb728f6ba077784ec1fd15de$__90639a1140b990602401602060405180830381865af4158015611dba573d6000803e3d6000fd5b505050506040513d601f19601f82011682018060405250810190611dde9190614fce565b60285490939092509050565b611df261309d565b611e0a6000805160206159e9833981519152336120bb565b80611e285750611e286000805160206159c9833981519152336120bb565b611e445760405162461bcd60e51b8152600401610d929061532e565b611e516127106064615111565b8163ffffffff161115611ecc5760405162461bcd60e51b815260206004820152603b60248201527f53656375726974697a6174696f6e506f6f6c3a206d696e46697273744c6f737360448201527f43757368696f6e2069732067726561746572207468616e2031303000000000006064820152608401610d92565b600e805463ffffffff191663ffffffff83169081179091556040519081527f091193ea2a1d71a11f3479abe1d30b1ba8fecf8b18e1c728e3ee787de54d0399906020015b60405180910390a150565b611f2361309d565b61018954611f39906001600160a01b0316613495565b6001600160a01b0316336001600160a01b03161480611f7e575061018954611f69906001600160a01b03166132bd565b6001600160a01b0316336001600160a01b0316145b611fd45760405162461bcd60e51b81526020600482015260336024820152600080516020615a098339815191526044820152723132902737ba32aa37b5b2b726b0b730b3b2b960691b6064820152608401610d92565b604051630837ca3160e11b8152600060048201526001600160a01b03831660248201526044810182905273__$4c26be947d349222af871a3168b3fe584b$__9063106f9462906064015b60006040518083038186803b15801561203657600080fd5b505af41580156116cf573d6000803e3d6000fd5b612052612444565b61206e5760405162461bcd60e51b8152600401610d92906153f3565b6117036134a2565b60008281526101256020526040812061208f90836134df565b9392505050565b61209e61309d565b6120a733611311565b6011546120b590829061557f565b60115550565b600091825260f3602090815260408084206001600160a01b0393909316845291905290205460ff1690565b604051632915c6ef60e21b8152600060048201526024810182905273__$7f0f8de4978e89001c10ba53aee4a3ea4c$__9063a4571bbc9060440160006040518083038186803b15801561213857600080fd5b505af415801561214c573d6000803e3d6000fd5b50505050612158612311565b50565b600073__$a68f613c3bdb728f6ba077784ec1fd15de$__63937e8cbf6121816000613054565b61218b600061307c565b604051639a1140b960e01b81526000600482015273__$a68f613c3bdb728f6ba077784ec1fd15de$__90639a1140b990602401602060405180830381865af41580156121db573d6000803e3d6000fd5b505050506040513d601f19601f820116820180604052508101906121ff9190614fce565b60285460405160e086901b6001600160e01b03191681526004810194909452602484019290925260448301526064820152608401602060405180830381865af4158015612250573d6000803e3d6000fd5b505050506040513d601f19601f820116820180604052508101906111929190614fce565b61227c61309d565b6000805160206159c983398151915261229481613165565b60405163d37cc71360e01b815273__$e2770451a2a37dcdd32d3c1720bab879c1$__9063d37cc713906122d8906002908b908b908b908b908b908b90600401615592565b60006040518083038186803b1580156122f057600080fd5b505af4158015612304573d6000803e3d6000fd5b5050505050505050505050565b73__$a68f613c3bdb728f6ba077784ec1fd15de$__63c1a5db1c60006123376000613054565b612341600061307c565b6040516001600160e01b031960e086901b16815260048101939093526024830191909152604482015260640160006040518083038186803b15801561238557600080fd5b505af4158015612399573d6000803e3d6000fd5b50505050565b6123a761309d565b6123bf6000805160206159e9833981519152336120bb565b806123dd57506123dd6000805160206159c9833981519152336120bb565b6123f95760405162461bcd60e51b8152600401610d929061532e565b60128190556040518181527f3fb30b6090e6989c6819119c2885012949e75471ed4ce5e80c9be541ea0e2f3f90602001611f10565b600061243c602a5460ff1690565b60ff16905090565b600061245e6000805160206159c9833981519152336120bb565b8061119257506111926000336120bb565b61247833610e88565b63ffffffff811660108190556040519081527fae7402a7c6591be272f2a698eff734559f48c90b946dc122fec30db4033aa30d90602001611f10565b6000606073__$e2770451a2a37dcdd32d3c1720bab879c1$__63aa12d15f600086866040518463ffffffff1660e01b81526004016124f4939291906155d4565b600060405180830381865af4158015612511573d6000803e3d6000fd5b505050506040513d6000823e601f3d908101601f1916820160405261253991908101906156bf565b915091505b9250929050565b600081815261012560205260408120610a2a906134eb565b6000611192600061307c565b61257233611311565b600061257c61215b565b9050600061258d6127106064615111565b60085461259b908490615111565b6125a59190615128565b90506000816000600801546125ba919061556c565b90506125c461110f565b6001600160a01b031663ef06fb73836040518263ffffffff1660e01b81526004016125f191815260200190565b600060405180830381600087803b15801561260b57600080fd5b505af115801561261f573d6000803e3d6000fd5b505050508160006008016000828254612638919061556c565b909155506126469050613006565b6001600160a01b031663ef06fb73826040518263ffffffff1660e01b815260040161267391815260200190565b600060405180830381600087803b15801561268d57600080fd5b505af11580156126a1573d6000803e3d6000fd5b5050505080600060080160008282546126ba919061556c565b9091555073__$a68f613c3bdb728f6ba077784ec1fd15de$__9050632fb8626260006126e581613054565b6126ef600061307c565b6040516001600160e01b031960e086901b168152600481019390935260248301919091526044820152600060648201526084810184905260a4015b60006040518083038186803b15801561274257600080fd5b505af41580156110df573d6000803e3d6000fd5b602a54610100900460ff16158080156127765750602a54600160ff909116105b806127905750303b1580156127905750602a5460ff166001145b6127f35760405162461bcd60e51b815260206004820152602e60248201527f496e697469616c697a61626c653a20636f6e747261637420697320616c72656160448201526d191e481a5b9a5d1a585b1a5e995960921b6064820152608401610d92565b602a805460ff19166001179055801561281657602a805461ff0019166101001790555b61281f336134f5565b6001600160a01b0383166128755760405162461bcd60e51b815260206004820181905260248201527f526567697374727920616464726573732063616e6e6f7420626520656d7074796044820152606401610d92565b61018980546001600160a01b0319166001600160a01b03851617905581516000906128a9906020908501810190850161570b565b60208101519091506001600160a01b03166128ff5760405162461bcd60e51b8152602060048201526016602482015275506f6f6c3a20496e76616c69642063757272656e637960501b6044820152606401610d92565b6020810151600780546001600160a01b0319166001600160a01b0390921691909117905560608101516000805460ff1916911515919091179055600e80546bffffffffffffffffffffffff1630600160601b02179055604081015161296390611dea565b805161296e9061239f565b602081015160405163095ea7b360e01b815230600482015260001960248201526001600160a01b039091169063095ea7b3906044016020604051808303816000875af11580156129c2573d6000803e3d6000fd5b505050506040513d601f19601f820116820180604052508101906129e69190615784565b612a325760405162461bcd60e51b815260206004820152601e60248201527f506f6f6c3a2043757272656e637920617070726f76616c206661696c656400006044820152606401610d92565b61018954612a48906001600160a01b0316613090565b610189546001600160a01b039182169163a22cb46591612a689116613438565b6040516001600160e01b031960e084901b1681526001600160a01b03909116600482015260016024820152604401600060405180830381600087803b158015612ab057600080fd5b505af1158015612ac4573d6000803e3d6000fd5b5050505050801561110a57602a805461ff0019169055604051600181527f7f26b83ff96e1f2b6a682f133852f6798a09c465da95921460cefb38474024989060200160405180910390a1505050565b600082815260f36020526040902060010154612b2e81613165565b61110a8383613356565b612b4061309d565b612b48613386565b612b606000805160206159e9833981519152336120bb565b80612b7e5750612b7e6000805160206159c9833981519152336120bb565b612b9a5760405162461bcd60e51b8152600401610d929061532e565b604051639178a8a160e01b815273__$e2770451a2a37dcdd32d3c1720bab879c1$__90639178a8a190612bda90600290889088908890889060040161579f565b60006040518083038186803b158015612bf257600080fd5b505af4158015612c06573d6000803e3d6000fd5b505050506123996001608f55565b6000610a2a60008361353d565b6000805160206159e9833981519152612c3981613165565b6040516356a5a29960e01b815260006004820152602481018490526044810183905273__$7f0f8de4978e89001c10ba53aee4a3ea4c$__906356a5a2999060640161272a565b612c8761309d565b61018954612c9d906001600160a01b0316613158565b6001600160a01b0316336001600160a01b031614612ccd5760405162461bcd60e51b8152600401610d92906157dd565b61215860008261356b565b612ce061309d565b612ce8613386565b612d006000805160206159e9833981519152336120bb565b80612d1e5750612d1e6000805160206159c9833981519152336120bb565b612d3a5760405162461bcd60e51b8152600401610d929061532e565b604051635cd35d6360e11b8152600060048201526001600160a01b038216602482015273__$4c26be947d349222af871a3168b3fe584b$__9063b9a6bac69060440160006040518083038186803b158015612d9457600080fd5b505af4158015612da8573d6000803e3d6000fd5b505061018954612dc392506001600160a01b03169050613379565b60405163dc90f9fd60e01b81526001600160a01b038381166004830152919091169063dc90f9fd90602401600060405180830381600087803b158015612e0857600080fd5b505af1158015612e1c573d6000803e3d6000fd5b505050506121586001608f55565b612e3261309d565b612e3b33611311565b612e657f59abfac6520ec36a6556b2a4dd949cc40007459bcd5cd2507f1e5cc77b6bc97e836120bb565b612eca5760405162461bcd60e51b815260206004820152603060248201527f53656375726974697a6174696f6e506f6f6c3a204f6e6c79204f726967696e6160448201526f3a37b91031b0b710323930bbb237bbb760811b6064820152608401610d92565b604051635d46333760e11b8152600060048201526001600160a01b03831660248201526044810182905273__$4c26be947d349222af871a3168b3fe584b$__9063ba8c666e9060640161201e565b612f2061309d565b61018954612f36906001600160a01b0316613158565b6001600160a01b0316336001600160a01b031614612f665760405162461bcd60e51b8152600401610d92906157dd565b604051637564542160e11b8152600060048201526024810182905273__$4c26be947d349222af871a3168b3fe584b$__9063eac8a84290604401611010565b60408051808201909152600080825260208201526002805483908110612fcd57612fcd615450565b60009182526020918290206040805180820190915260029092020180546001600160a01b03168252600101549181019190915292915050565b61018954600090611128906001600160a01b0316613495565b60006001600160e01b03198216637965db0b60e01b1480610a2a57506301ffc9a760e01b6001600160e01b0319831614610a2a565b600080600080613063856135be565b9250925092506113a58361307784846136c3565b6136c3565b6000610a2a826009015483600801546136c3565b6000610a2a826007613713565b605d5460ff16156117035760405162461bcd60e51b815260206004820152601060248201526f14185d5cd8589b194e881c185d5cd95960821b6044820152606401610d92565b6130ec82613379565b6001600160a01b0316816001600160a01b0316146114285760405162461bcd60e51b8152602060048201526024808201527f52656769737472793a204f6e6c792053656375726974697a6174696f6e4d616e60448201526330b3b2b960e11b6064820152608401610d92565b6000610a2a826005613713565b6121588133613798565b60008181526015830160209081526040808320548084526013860190925282206001810154600482015460059092015490919065ffffffffffff16421061321c5760008381526013870160205260409020600181015460028201546005909201546131e2929065ffffffffffff166137f1565b60008481526013880160205260409020600481015460038201546005909201549294506132199290919065ffffffffffff166137f1565b90505b8060000361324a576000858152601487016020526040902054613240908390613811565b9350505050610a2a565b6132408161326d848960140160008a815260200190815260200160002054613811565b613811565b600082815260f36020526040808220600101805490849055905190918391839186917fbd79b86ffe0ab8e8776151514217cd7cacd52c909f66475c3af44e129f0b00ff9190a4505050565b6000610a2a826004613713565b6132d4828261381d565b60008281526101256020526040902061110a90826138a3565b6132f682613438565b6001600160a01b0316816001600160a01b0316146114285760405162461bcd60e51b815260206004820152601960248201527f52656769737472793a204f6e6c79204c6f616e4b65726e656c000000000000006044820152606401610d92565b61336082826138b8565b60008281526101256020526040902061110a908261391f565b6000610a2a826000613713565b6002608f54036133d85760405162461bcd60e51b815260206004820152601f60248201527f5265656e7472616e637947756172643a207265656e7472616e742063616c6c006044820152606401610d92565b6002608f55565b6001608f55565b6133ee613934565b605d805460ff191690557f5db9ee0a495bf2e6ff9c91a7834c1ba4fdd244a5e8aa4e537bd38aeae4b073aa335b6040516001600160a01b03909116815260200160405180910390a1565b6000610a2a826008613713565b60008160000361347257600084815260148601602052604090205461346b908490613811565b9050610e73565b61346b8261326d8588601401600089815260200190815260200160002054613811565b6000610a2a826003613713565b6134aa61309d565b605d805460ff191660011790557f62e78cea01bee320cd4e420270b5ea74000d11b0c9f74754ebdbfc544b05a25861341b3390565b600061208f838361397d565b6000610a2a825490565b602a54610100900460ff1661351c5760405162461bcd60e51b8152600401610d929061581b565b6135246139a7565b61352c6139da565b613534613a01565b61215881613a28565b60008060008061354d8686613af3565b9250925092506135618361307784846136c3565b9695505050505050565b6135798260090154826136c3565b600983018190556040805183815260208101929092527f918efcc3fbab932d4dd5f5d71315810f6d34460b2a009f613454f4a7b3e6f385910160405180910390a15050565b601f8101546021820154601d8301546020840154600093849384939192909190838503613600576000836135f18a613c5e565b965096509650505050506136bc565b60008061360c42613cd0565b9050825b81811015613680576000818152601b8c016020526040902054801561366b5761365c84613077836136578a6136458989613cec565b6b033b2e3c9fd0803ce8000000613d3c565b613dfa565b93506136688a826136c3565b99505b50613679816201518061557f565b9050613610565b5061369c61369687613657876136458689613cec565b83613e1d565b6136a6868a6136c3565b6136af8c613c5e565b9850985098505050505050505b9193909250565b6000826136d0838261557f565b9150811015610a2a5760405162461bcd60e51b815260206004820152600f60248201526e1cd859994b5859190b59985a5b1959608a1b6044820152606401610d92565b6000826001600160a01b031663bcaa0c5583600a81111561373657613736614896565b6040516001600160e01b031960e084901b16815260ff9091166004820152602401602060405180830381865afa158015613774573d6000803e3d6000fd5b505050506040513d601f19601f8201168201806040525081019061208f9190615204565b6137a282826120bb565b611428576137af81613e39565b6137ba836020613e4b565b6040516020016137cb92919061588a565b60408051601f198184030181529082905262461bcd60e51b8252610d92916004016158ff565b60008142106138095761380684848442613fe6565b93505b509192915050565b600061208f8284613dfa565b61382782826120bb565b61142857600082815260f3602090815260408083206001600160a01b03851684529091529020805460ff1916600117905561385f3390565b6001600160a01b0316816001600160a01b0316837f2f8788117e7eff1d82e926ec794901d17c78024a50270940304540a733656f0d60405160405180910390a45050565b600061208f836001600160a01b038416613fff565b6138c282826120bb565b1561142857600082815260f3602090815260408083206001600160a01b0385168085529252808320805460ff1916905551339285917ff6391f5c32d9c69d2a47ea670b442974b53935d1edc7fd64eb21e047a839171b9190a45050565b600061208f836001600160a01b03841661404e565b605d5460ff166117035760405162461bcd60e51b815260206004820152601460248201527314185d5cd8589b194e881b9bdd081c185d5cd95960621b6044820152606401610d92565b600082600001828154811061399457613994615450565b9060005260206000200154905092915050565b602a54610100900460ff166139ce5760405162461bcd60e51b8152600401610d929061581b565b605d805460ff19169055565b602a54610100900460ff166133df5760405162461bcd60e51b8152600401610d929061581b565b602a54610100900460ff166117035760405162461bcd60e51b8152600401610d929061581b565b602a54610100900460ff16613a4f5760405162461bcd60e51b8152600401610d929061581b565b6001600160a01b038116613a605750335b613a6b600033614148565b613a836000805160206159c983398151915282614148565b613abb7f59abfac6520ec36a6556b2a4dd949cc40007459bcd5cd2507f1e5cc77b6bc97e6000805160206159c9833981519152613272565b6121587f21702c8af46127c7fa207f89d0b0a8441bb32959a0ac7df790e9ab1a25c989266000805160206159e9833981519152613272565b601d8201546000828152602284016020908152604080832054828701546023880190935290832054929384938493849391613b2e8a8a614152565b15613b86576000613b3f8b8b614185565b9050613b82613b4e8c8c61316f565b8c601c018381548110613b6357613b63615450565b60009182526020909120600290910201546001600160801b0316613dfa565b9550505b82600003613ba057600097509550929350613c5792505050565b600080613bac42613cd0565b60008c815260198e01602052604081205491925090613bda90600160801b90046001600160801b0316613cd0565b9050848110158015613beb57508181105b15613c225760008c815260198e0160205260409020546001600160801b0316613c1c816136578a6136458787613cec565b909a5092505b613c3d613c37876136578a613645878b613cec565b84613e1d565b613c47858c6136c3565b899a509a509a5050505050505050505b9250925092565b6000805b601c830154811015613cca57613cb682613077613ca18685613c926b033b2e3c9fd0803ce80000006103e8615111565b613c9c919061557f565b614304565b86601c018581548110613b6357613b63615450565b915080613cc281615466565b915050613c62565b50919050565b6000613cdf6201518083615128565b610a2a9062015180615111565b600082613cf9838261556c565b9150811115610a2a5760405162461bcd60e51b815260206004820152600f60248201526e1cd859994b5cdd588b59985a5b1959608a1b6044820152606401610d92565b6000838015613ddc57600184168015613d5757859250613d5b565b8392505b50600283046002850494505b8415613dd6578586028687820414613d7e57600080fd5b81810181811015613d8e57600080fd5b8590049650506001851615613dcb578583028387820414158715151615613db457600080fd5b81810181811015613dc457600080fd5b8590049350505b600285049450613d67565b50613df2565b838015613dec5760009250613df0565b8392505b505b509392505050565b60006b033b2e3c9fd0803ce8000000613e1384846143c4565b61208f9190615128565b600082821115613e2f57506000610a2a565b61208f8383613cec565b6060610a2a6001600160a01b03831660145b60606000613e5a836002615111565b613e6590600261557f565b6001600160401b03811115613e7c57613e7c61464e565b6040519080825280601f01601f191660200182016040528015613ea6576020820181803683370190505b509050600360fc1b81600081518110613ec157613ec1615450565b60200101906001600160f81b031916908160001a905350600f60fb1b81600181518110613ef057613ef0615450565b60200101906001600160f81b031916908160001a9053506000613f14846002615111565b613f1f90600161557f565b90505b6001811115613f97576f181899199a1a9b1b9c1cb0b131b232b360811b85600f1660108110613f5357613f53615450565b1a60f81b828281518110613f6957613f69615450565b60200101906001600160f81b031916908160001a90535060049490941c93613f9081615932565b9050613f22565b50831561208f5760405162461bcd60e51b815260206004820181905260248201527f537472696e67733a20686578206c656e67746820696e73756666696369656e746044820152606401610d92565b60006113a5613ff985613645868661556c565b86613dfa565b600081815260018301602052604081205461404657508154600181810184556000848152602080822090930184905584548482528286019093526040902091909155610a2a565b506000610a2a565b6000818152600183016020526040812054801561413757600061407260018361556c565b85549091506000906140869060019061556c565b90508181146140eb5760008660000182815481106140a6576140a6615450565b90600052602060002001549050808760000184815481106140c9576140c9615450565b6000918252602080832090910192909255918252600188019052604090208390555b85548690806140fc576140fc615949565b600190038181906000526020600020016000905590558560010160008681526020019081526020016000206000905560019350505050610a2a565b6000915050610a2a565b5092915050565b61142882826132ca565b600061416c6b033b2e3c9fd0803ce80000006103e8615111565b6000928352601593909301602052506040902054101590565b60008181526019830160205260408120548290600160801b90046001600160801b0316826141b242613cd0565b905060006141c08785614426565b90506000600182604001516141d5919061595f565b90506001600160801b036000805b601c8b01546001600160801b03821610156142ed5760008b601c01826001600160801b03168154811061421857614218615450565b906000526020600020906002020160000160109054906101000a90046001600160801b03169050846001600160801b03168c601c01836001600160801b03168154811061426757614267615450565b60009182526020909120600160029092020101546001600160801b03161480156142a35750826001600160801b0316816001600160801b031610155b80156142ce57506142b7816201518061597f565b6142ca906001600160801b03168961557f565b8710155b156142da578193508092505b50806142e5816159a2565b9150506141e3565b50506001600160801b031698975050505050505050565b600081815260138301602052604081206001810154600482015482546005909301549192909165ffffffffffff1642106143a457600085815260138701602052604090206001810154600282015460059092015461436a929065ffffffffffff166137f1565b60008681526013880160205260409020600481015460038201546005909201549295506143a19290919065ffffffffffff166137f1565b91505b816000036143b6576132408382613811565b6132408261326d8584613811565b60008115806143e8575082826143da8183615111565b92506143e69083615128565b145b610a2a5760405162461bcd60e51b815260206004820152600f60248201526e1cd859994b5b5d5b0b59985a5b1959608a1b6044820152606401610d92565b61442e614563565b600082815260198401602090815260409182902082516102008101845281546001600160801b038082168352600160801b9091048116938201939093526001808301549093169381019390935260028101546001600160a01b0390811660608501526003820154166080840152600481015460a0840152600581015460c0840152600681015460e08401526007810154909161010084019160ff16908111156144d9576144d9614896565b60018111156144ea576144ea614896565b81526008820154602082015260098201546040820152600a8201546060820152600b8201546080820152600c82015460a09091019060ff16600581111561453357614533614896565b600581111561454457614544614896565b8152600d8201546020820152600e909101546040909101529392505050565b6040805161020081018252600080825260208201819052918101829052606081018290526080810182905260a0810182905260c0810182905260e0810182905261010081018290526101208101829052610140810182905261016081018290526101808101829052906101a0820190815260200160008152602001600081525090565b6000602082840312156145f857600080fd5b81356001600160e01b03198116811461208f57600080fd5b60006020828403121561462257600080fd5b5035919050565b6001600160a01b038116811461215857600080fd5b803561464981614629565b919050565b634e487b7160e01b600052604160045260246000fd5b60405161010081016001600160401b03811182821017156146875761468761464e565b60405290565b604051601f8201601f191681016001600160401b03811182821017156146b5576146b561464e565b604052919050565b600082601f8301126146ce57600080fd5b81356001600160401b038111156146e7576146e761464e565b6146fa601f8201601f191660200161468d565b81815284602083860101111561470f57600080fd5b816020850160208301376000918101602001919091529392505050565b6000806000806080858703121561474257600080fd5b843561474d81614629565b9350602085013561475d81614629565b92506040850135915060608501356001600160401b0381111561477f57600080fd5b61478b878288016146bd565b91505092959194509250565b60008083601f8401126147a957600080fd5b5081356001600160401b038111156147c057600080fd5b6020830191508360208260051b850101111561253e57600080fd5b600080600080600080606087890312156147f457600080fd5b86356001600160401b038082111561480b57600080fd5b6148178a838b01614797565b9098509650602089013591508082111561483057600080fd5b61483c8a838b01614797565b9096509450604089013591508082111561485557600080fd5b5061486289828a01614797565b979a9699509497509295939492505050565b6000806040838503121561488757600080fd5b50508035926020909101359150565b634e487b7160e01b600052602160045260246000fd5b600281106148bc576148bc614896565b9052565b600681106148bc576148bc614896565b81516001600160801b03168152610200810160208301516148fc60208401826001600160801b03169052565b50604083015161491760408401826001600160801b03169052565b50606083015161493260608401826001600160a01b03169052565b50608083015161494d60808401826001600160a01b03169052565b5060a083015160a083015260c083015160c083015260e083015160e08301526101008084015161497f828501826148ac565b505061012083810151908301526101408084015190830152610160808401519083015261018080840151908301526101a0808401516149c0828501826148c0565b50506101c083810151908301526101e092830151929091019190915290565b600080604083850312156149f257600080fd5b823591506020830135614a0481614629565b809150509250929050565b60008060008060408587031215614a2557600080fd5b84356001600160401b0380821115614a3c57600080fd5b614a4888838901614797565b90965094506020870135915080821115614a6157600080fd5b818701915087601f830112614a7557600080fd5b813581811115614a8457600080fd5b8860208260081b8501011115614a9957600080fd5b95989497505060200194505050565b60008060008060408587031215614abe57600080fd5b84356001600160401b0380821115614ad557600080fd5b614ae188838901614797565b90965094506020870135915080821115614afa57600080fd5b50614b0787828801614797565b95989497509550505050565b600081518084526020808501945080840160005b83811015614b4357815187529582019590820190600101614b27565b509495945050505050565b604081526000614b616040830185614b13565b82810360208401526113a58185614b13565b6020808252825182820181905260009190848201906040850190845b81811015614bb45783516001600160a01b031683529284019291840191600101614b8f565b50909695505050505050565b815163ffffffff16815261016081016020830151614be6602084018263ffffffff169052565b506040830151614bfe604084018263ffffffff169052565b506060830151614c16606084018263ffffffff169052565b506080830151614c2e608084018263ffffffff169052565b5060a0830151614c4660a084018263ffffffff169052565b5060c0830151614c5e60c084018263ffffffff169052565b5060e0830151614c7660e084018263ffffffff169052565b506101008381015163ffffffff81168483015250506101208381015163ffffffff81168483015250506101408381015163ffffffff8116848301525b505092915050565b600060208284031215614ccc57600080fd5b813561208f81614629565b63ffffffff8116811461215857600080fd5b600060208284031215614cfb57600080fd5b813561208f81614cd7565b60008060408385031215614d1957600080fd5b8235614d2481614629565b946020939093013593505050565b60006001600160401b03821115614d4b57614d4b61464e565b5060051b60200190565b803560ff8116811461464957600080fd5b80356002811061464957600080fd5b600082601f830112614d8657600080fd5b81356020614d9b614d9683614d32565b61468d565b82815260089290921b84018101918181019086841115614dba57600080fd5b8286015b84811015614e55576101008189031215614dd85760008081fd5b614de0614664565b8135614deb81614629565b8152614df882860161463e565b8186015260408281013590820152606080830135908201526080808301359082015260a0808301359082015260c0614e31818401614d55565b9082015260e0614e42838201614d66565b9082015283529183019161010001614dbe565b509695505050505050565b60008060408385031215614e7357600080fd5b82356001600160401b0380821115614e8a57600080fd5b818501915085601f830112614e9e57600080fd5b81356020614eae614d9683614d32565b82815260059290921b84018101918181019089841115614ecd57600080fd5b948201945b83861015614eeb57853582529482019490820190614ed2565b96505086013592505080821115614f0157600080fd5b50614f0e85828601614d75565b9150509250929050565b828152604060208201526000610e736040830184614b13565b60008060408385031215614f4457600080fd5b8235614f4f81614629565b915060208301356001600160401b03811115614f6a57600080fd5b614f0e858286016146bd565b60008060008060608587031215614f8c57600080fd5b8435614f9781614629565b93506020850135614fa781614629565b925060408501356001600160401b03811115614fc257600080fd5b614b0787828801614797565b600060208284031215614fe057600080fd5b5051919050565b634e487b7160e01b600052601160045260246000fd5b600181815b8085111561503857816000190482111561501e5761501e614fe7565b8085161561502b57918102915b93841c9390800290615002565b509250929050565b60008261504f57506001610a2a565b8161505c57506000610a2a565b8160018114615072576002811461507c57615098565b6001915050610a2a565b60ff84111561508d5761508d614fe7565b50506001821b610a2a565b5060208310610133831016604e8410600b84101617156150bb575081810a610a2a565b6150c58383614ffd565b80600019048211156150d9576150d9614fe7565b029392505050565b600061208f8383615040565b6000806040838503121561510057600080fd5b505080516020909101519092909150565b8082028115828204841417610a2a57610a2a614fe7565b60008261514557634e487b7160e01b600052601260045260246000fd5b500490565b6000806040838503121561515d57600080fd5b825161516881614629565b6020840151909250614a0481614629565b8183526000602080850194508260005b85811015614b4357813561519c81614cd7565b63ffffffff1687529582019590820190600101615189565b8781526080602082015260006151ce60808301888a615179565b82810360408401526151e1818789615179565b905082810360608401526151f6818587615179565b9a9950505050505050505050565b60006020828403121561521657600080fd5b815161208f81614629565b81835260006001600160fb1b0383111561523a57600080fd5b8260051b80836020870137939093016020019392505050565b600060608783526020818185015261526e828501888a615221565b8481036040868101919091528682528791830160005b8881101561531e57833561529781614629565b6001600160a01b03908116835284860135906152b282614629565b1682860152838301358383015285840135868301526080808501359083015260a0808501359083015260c06152e8818601614d55565b60ff169083015260e06152fc858201614d66565b615308828501826148ac565b5050610100938401939190910190600101615284565b509b9a5050505050505050505050565b60208082526025908201527f506f6f6c3a204e6f7420616e20706f6f6c2061646d696e206f7220706f6f6c2060408201526437bbb732b960d91b606082015260800190565b8183526000602080850194508260005b85811015614b4357813561539681614629565b6001600160a01b031687529582019590820190600101615383565b8781526080602082015260006153cb60808301888a615373565b82810360408401526153de818789615373565b905082810360608401526151f6818587615221565b6020808252603a908201527f556e74616e676c6564426173653a204d75737420686176652061646d696e207260408201527f6f6c6520746f20706572666f726d207468697320616374696f6e000000000000606082015260800190565b634e487b7160e01b600052603260045260246000fd5b60006001820161547857615478614fe7565b5060010190565b858152606060208201526000615499606083018688615221565b82810360408401526154ac818587615221565b98975050505050505050565b600082601f8301126154c957600080fd5b815160206154d9614d9683614d32565b82815260059290921b840181019181810190868411156154f857600080fd5b8286015b84811015614e5557805183529183019183016154fc565b6000806040838503121561552657600080fd5b82516001600160401b038082111561553d57600080fd5b615549868387016154b8565b9350602085015191508082111561555f57600080fd5b50614f0e858286016154b8565b81810381811115610a2a57610a2a614fe7565b80820180821115610a2a57610a2a614fe7565b8781526080602082015260006155ac60808301888a615373565b82810360408401526155bf818789615221565b905082810360608401526151f6818587615373565b600060608083018684526020828186015281875180845260809350838701915082890160005b82811015615616578151845292840192908401906001016155fa565b50505085810360408781019190915287518083528389019284019060005b818110156156ae57845180516001600160a01b03908116855287820151168785015284810151858501528881015189850152878101518885015260a0808201519085015260c08082015160ff169085015260e09081015190615698818601836148ac565b5050938501936101009290920191600101615634565b50909b9a5050505050505050505050565b600080604083850312156156d257600080fd5b8251915060208301516001600160401b038111156156ef57600080fd5b614f0e858286016154b8565b8051801515811461464957600080fd5b60006080828403121561571d57600080fd5b604051608081018181106001600160401b038211171561573f5761573f61464e565b60405282518152602083015161575481614629565b6020820152604083015161576781614cd7565b6040820152615778606084016156fb565b60608201529392505050565b60006020828403121561579657600080fd5b61208f826156fb565b8581526001600160a01b038581166020830152841660408201526080606082018190526000906157d29083018486615221565b979650505050505050565b6020808252603090820152600080516020615a0983398151915260408201526f31329022b837b1b422bc32b1baba37b960811b606082015260800190565b6020808252602b908201527f496e697469616c697a61626c653a20636f6e7472616374206973206e6f74206960408201526a6e697469616c697a696e6760a81b606082015260800190565b60005b83811015615881578181015183820152602001615869565b50506000910152565b7f416363657373436f6e74726f6c3a206163636f756e74200000000000000000008152600083516158c2816017850160208801615866565b7001034b99036b4b9b9b4b733903937b6329607d1b60179184019182015283516158f3816028840160208801615866565b01602801949350505050565b602081526000825180602084015261591e816040850160208701615866565b601f01601f19169190910160400192915050565b60008161594157615941614fe7565b506000190190565b634e487b7160e01b600052603160045260246000fd5b6001600160801b0382811682821603908082111561414157614141614fe7565b6001600160801b03818116838216028082169190828114614cb257614cb2614fe7565b60006001600160801b038083168181036159be576159be614fe7565b600101939250505056feb19546dff01e856fb3f010c267a7b1c60363cf8a4664e21cc89c26224620214e3e9c05fb0f9da4414e033bb9bf190a6e2072adf7e3077394fce683220513b8d753656375726974697a6174696f6e506f6f6c3a2043616c6c6572206d75737420a2646970667358221220fbe656a08bbe3ca0d66823e07f78623e0f7f9ba6a6fb6c3383f47e815687dd0f64736f6c63430008130033",
  "libraries": {
    "PoolAssetLogic": "0xFb94240006b52111570eB6C28Bb195f9b5908c99",
    "PoolNAVLogic": "0xdFFd058059e26fF1a76be0cf6371A008C108A0e0",
    "GenericLogic": "0x739c93545CAD9EE3202A524ef50ebfDaf452C8dF",
    "RebaseLogic": "0x786EC98A0f46782fc4065Ff8D47Fd52DD20dF246"
  },
  "devdoc": {
    "author": "Untangled Team",
    "events": {
      "Initialized(uint8)": {
        "details": "Triggered when the contract has been initialized or reinitialized."
      },
      "Paused(address)": {
        "details": "Emitted when the pause is triggered by `account`."
      },
      "RoleAdminChanged(bytes32,bytes32,bytes32)": {
        "details": "Emitted when `newAdminRole` is set as ``role``'s admin role, replacing `previousAdminRole` `DEFAULT_ADMIN_ROLE` is the starting admin for all roles, despite {RoleAdminChanged} not being emitted signaling this. _Available since v3.1._"
      },
      "RoleGranted(bytes32,address,address)": {
        "details": "Emitted when `account` is granted `role`. `sender` is the account that originated the contract call, an admin role bearer except when using {AccessControl-_setupRole}."
      },
      "RoleRevoked(bytes32,address,address)": {
        "details": "Emitted when `account` is revoked `role`. `sender` is the account that originated the contract call:   - if using `revokeRole`, it is the admin role bearer   - if using `renounceRole`, it is the role bearer (i.e. `account`)"
      },
      "Unpaused(address)": {
        "details": "Emitted when the pause is lifted by `account`."
      }
    },
    "kind": "dev",
    "methods": {
      "changeSeniorAsset(uint256,uint256)": {
        "params": {
          "_seniorRedeem": "senior redeem amount",
          "_seniorSupply": "senior supply amount"
        }
      },
      "currentNAV()": {
        "returns": {
          "nav_": "current NAV"
        }
      },
      "decreaseIncomeReserve(uint256)": {
        "details": "trigger update reserve"
      },
      "disburse(address,uint256)": {
        "details": "Disburses a specified amount of currency to the given user.",
        "params": {
          "currencyAmount": "The amount of currency to disburse.",
          "usr": "The address of the user to receive the currency."
        }
      },
      "getRiskScoresLength()": {
        "returns": {
          "_0": "the length of the risk scores array"
        }
      },
      "getRoleAdmin(bytes32)": {
        "details": "Returns the admin role that controls `role`. See {grantRole} and {revokeRole}. To change a role's admin, use {_setRoleAdmin}."
      },
      "getRoleMember(bytes32,uint256)": {
        "details": "Returns one of the accounts that have `role`. `index` must be a value between 0 and {getRoleMemberCount}, non-inclusive. Role bearers are not sorted in any particular way, and their ordering may change at any point. WARNING: When using {getRoleMember} and {getRoleMemberCount}, make sure you perform all queries on the same block. See the following https://forum.openzeppelin.com/t/iterating-over-elements-on-enumerableset-in-openzeppelin-contracts/2296[forum post] for more information."
      },
      "getRoleMemberCount(bytes32)": {
        "details": "Returns the number of accounts that have `role`. Can be used together with {getRoleMember} to enumerate all bearers of a role."
      },
      "grantRole(bytes32,address)": {
        "details": "Grants `role` to `account`. If `account` had not been already granted `role`, emits a {RoleGranted} event. Requirements: - the caller must have ``role``'s admin role. May emit a {RoleGranted} event."
      },
      "hasRole(bytes32,address)": {
        "details": "Returns `true` if `account` has been granted `role`."
      },
      "increaseCapitalReserve(uint256)": {
        "details": "trigger update reserve when buy note token action happens"
      },
      "increaseTotalAssetRepaidCurrency(uint256)": {
        "details": "trigger update asset value repaid"
      },
      "onERC721Received(address,address,uint256,bytes)": {
        "details": "Trigger set up opening block timestamp"
      },
      "paused()": {
        "details": "Returns true if the contract is paused, and false otherwise."
      },
      "renounceRole(bytes32,address)": {
        "details": "Revokes `role` from the calling account. Roles are often managed via {grantRole} and {revokeRole}: this function's purpose is to provide a mechanism for accounts to lose their privileges if they are compromised (such as when a trusted device is misplaced). If the calling account had been revoked `role`, emits a {RoleRevoked} event. Requirements: - the caller must be `account`. May emit a {RoleRevoked} event."
      },
      "revokeRole(bytes32,address)": {
        "details": "Revokes `role` from `account`. If `account` had been granted `role`, emits a {RoleRevoked} event. Requirements: - the caller must have ``role``'s admin role. May emit a {RoleRevoked} event."
      },
      "supportsInterface(bytes4)": {
        "details": "See {IERC165-supportsInterface}."
      }
    },
    "title": "Untangled's SecuritizationPool contract",
    "version": 1
  },
  "userdoc": {
    "kind": "user",
    "methods": {
      "changeSeniorAsset(uint256,uint256)": {
        "notice": "changes the senior asset value based on new supply or redeems"
      },
      "collectAssets(uint256[],(address,address,bytes32,uint256,uint256,uint256,uint8,uint8)[])": {
        "notice": "collects NFT assets from a specified address"
      },
      "collectERC20Asset(address)": {
        "notice": "collects ERC20 assets from specified senders"
      },
      "currentNAV()": {
        "notice": "calculates and returns the current NAV"
      },
      "exportAssets(address,address,uint256[])": {
        "notice": "exports NFT assets to another pool address"
      },
      "getAsset(bytes32)": {
        "notice": "retrieves loan information"
      },
      "getRiskScoresLength()": {
        "notice": "Riks scores length"
      },
      "getTokenAssetAddresses()": {
        "notice": "A view function that returns an array of token asset addresses"
      },
      "initialize(address,bytes)": {
        "notice": "CONSTRUCTOR "
      },
      "rebase()": {
        "notice": "rebase the debt and balance of the senior tranche according to the current ratio between senior and junior"
      },
      "setDebtCeiling(uint256)": {
        "notice": "sets debt ceiling value"
      },
      "setMinFirstLossCushion(uint32)": {
        "notice": "sets mint first loss value"
      },
      "setupRiskScores(uint32[],uint32[],uint32[])": {
        "notice": "sets up the risk scores for the contract for pool"
      },
      "withdraw(address,uint256)": {
        "notice": "allows the originator to withdraw from reserve"
      },
      "withdrawAssets(address[],uint256[],address[])": {
        "notice": "withdraws NFT assets from the contract and transfers them to recipients"
      },
      "withdrawERC20Assets(address[],address[],uint256[])": {
        "notice": "withdraws ERC20 assets from the contract and transfers them to recipients\\ound"
      }
    },
    "notice": "Main entry point for senior LPs (a.k.a. capital providers)  Automatically invests across borrower pools using an adjustable strategy.",
    "version": 1
  },
  "storageLayout": {
    "storage": [
      {
        "astId": 25743,
        "contract": "contracts/protocol/pool/Pool.sol:Pool",
        "label": "_poolStorage",
        "offset": 0,
        "slot": "0",
        "type": "t_struct(Storage)12102_storage"
      },
      {
        "astId": 759,
        "contract": "contracts/protocol/pool/Pool.sol:Pool",
        "label": "_initialized",
        "offset": 0,
        "slot": "42",
        "type": "t_uint8"
      },
      {
        "astId": 762,
        "contract": "contracts/protocol/pool/Pool.sol:Pool",
        "label": "_initializing",
        "offset": 1,
        "slot": "42",
        "type": "t_bool"
      },
      {
        "astId": 3575,
        "contract": "contracts/protocol/pool/Pool.sol:Pool",
        "label": "__gap",
        "offset": 0,
        "slot": "43",
        "type": "t_array(t_uint256)50_storage"
      },
      {
        "astId": 942,
        "contract": "contracts/protocol/pool/Pool.sol:Pool",
        "label": "_paused",
        "offset": 0,
        "slot": "93",
        "type": "t_bool"
      },
      {
        "astId": 1047,
        "contract": "contracts/protocol/pool/Pool.sol:Pool",
        "label": "__gap",
        "offset": 0,
        "slot": "94",
        "type": "t_array(t_uint256)49_storage"
      },
      {
        "astId": 1062,
        "contract": "contracts/protocol/pool/Pool.sol:Pool",
        "label": "_status",
        "offset": 0,
        "slot": "143",
        "type": "t_uint256"
      },
      {
        "astId": 1131,
        "contract": "contracts/protocol/pool/Pool.sol:Pool",
        "label": "__gap",
        "offset": 0,
        "slot": "144",
        "type": "t_array(t_uint256)49_storage"
      },
      {
        "astId": 4865,
        "contract": "contracts/protocol/pool/Pool.sol:Pool",
        "label": "__gap",
        "offset": 0,
        "slot": "193",
        "type": "t_array(t_uint256)50_storage"
      },
      {
        "astId": 184,
        "contract": "contracts/protocol/pool/Pool.sol:Pool",
        "label": "_roles",
        "offset": 0,
        "slot": "243",
        "type": "t_mapping(t_bytes32,t_struct(RoleData)179_storage)"
      },
      {
        "astId": 479,
        "contract": "contracts/protocol/pool/Pool.sol:Pool",
        "label": "__gap",
        "offset": 0,
        "slot": "244",
        "type": "t_array(t_uint256)49_storage"
      },
      {
        "astId": 33,
        "contract": "contracts/protocol/pool/Pool.sol:Pool",
        "label": "_roleMembers",
        "offset": 0,
        "slot": "293",
        "type": "t_mapping(t_bytes32,t_struct(AddressSet)6175_storage)"
      },
      {
        "astId": 143,
        "contract": "contracts/protocol/pool/Pool.sol:Pool",
        "label": "__gap",
        "offset": 0,
        "slot": "294",
        "type": "t_array(t_uint256)49_storage"
      },
      {
        "astId": 10019,
        "contract": "contracts/protocol/pool/Pool.sol:Pool",
        "label": "__gap",
        "offset": 0,
        "slot": "343",
        "type": "t_array(t_uint256)50_storage"
      },
      {
        "astId": 24118,
        "contract": "contracts/protocol/pool/Pool.sol:Pool",
        "label": "registry",
        "offset": 0,
        "slot": "393",
        "type": "t_contract(Registry)27710"
      }
    ],
    "types": {
      "t_address": {
        "encoding": "inplace",
        "label": "address",
        "numberOfBytes": "20"
      },
      "t_array(t_address)dyn_storage": {
        "base": "t_address",
        "encoding": "dynamic_array",
        "label": "address[]",
        "numberOfBytes": "32"
      },
      "t_array(t_bytes32)dyn_storage": {
        "base": "t_bytes32",
        "encoding": "dynamic_array",
        "label": "bytes32[]",
        "numberOfBytes": "32"
      },
      "t_array(t_struct(NFTAsset)11905_storage)dyn_storage": {
        "base": "t_struct(NFTAsset)11905_storage",
        "encoding": "dynamic_array",
        "label": "struct DataTypes.NFTAsset[]",
        "numberOfBytes": "32"
      },
      "t_array(t_struct(RiskScore)11882_storage)dyn_storage": {
        "base": "t_struct(RiskScore)11882_storage",
        "encoding": "dynamic_array",
        "label": "struct DataTypes.RiskScore[]",
        "numberOfBytes": "32"
      },
      "t_array(t_struct(WriteOffGroup)11976_storage)dyn_storage": {
        "base": "t_struct(WriteOffGroup)11976_storage",
        "encoding": "dynamic_array",
        "label": "struct DataTypes.WriteOffGroup[]",
        "numberOfBytes": "32"
      },
      "t_array(t_uint256)49_storage": {
        "base": "t_uint256",
        "encoding": "inplace",
        "label": "uint256[49]",
        "numberOfBytes": "1568"
      },
      "t_array(t_uint256)50_storage": {
        "base": "t_uint256",
        "encoding": "inplace",
        "label": "uint256[50]",
        "numberOfBytes": "1600"
      },
      "t_bool": {
        "encoding": "inplace",
        "label": "bool",
        "numberOfBytes": "1"
      },
      "t_bytes32": {
        "encoding": "inplace",
        "label": "bytes32",
        "numberOfBytes": "32"
      },
      "t_contract(Registry)27710": {
        "encoding": "inplace",
        "label": "contract Registry",
        "numberOfBytes": "20"
      },
      "t_enum(ASSET_PURPOSE)11765": {
        "encoding": "inplace",
        "label": "enum Configuration.ASSET_PURPOSE",
        "numberOfBytes": "1"
      },
      "t_enum(AmortizationUnitType)12631": {
        "encoding": "inplace",
        "label": "enum UnpackLoanParamtersLib.AmortizationUnitType",
        "numberOfBytes": "1"
      },
      "t_mapping(t_address,t_bool)": {
        "encoding": "mapping",
        "key": "t_address",
        "label": "mapping(address => bool)",
        "numberOfBytes": "32",
        "value": "t_bool"
      },
      "t_mapping(t_bytes32,t_struct(AddressSet)6175_storage)": {
        "encoding": "mapping",
        "key": "t_bytes32",
        "label": "mapping(bytes32 => struct EnumerableSetUpgradeable.AddressSet)",
        "numberOfBytes": "32",
        "value": "t_struct(AddressSet)6175_storage"
      },
      "t_mapping(t_bytes32,t_struct(NFTDetails)11949_storage)": {
        "encoding": "mapping",
        "key": "t_bytes32",
        "label": "mapping(bytes32 => struct DataTypes.NFTDetails)",
        "numberOfBytes": "32",
        "value": "t_struct(NFTDetails)11949_storage"
      },
      "t_mapping(t_bytes32,t_struct(RoleData)179_storage)": {
        "encoding": "mapping",
        "key": "t_bytes32",
        "label": "mapping(bytes32 => struct AccessControlUpgradeable.RoleData)",
        "numberOfBytes": "32",
        "value": "t_struct(RoleData)179_storage"
      },
      "t_mapping(t_bytes32,t_uint256)": {
        "encoding": "mapping",
        "key": "t_bytes32",
        "label": "mapping(bytes32 => uint256)",
        "numberOfBytes": "32",
        "value": "t_uint256"
      },
      "t_mapping(t_uint256,t_bytes32)": {
        "encoding": "mapping",
        "key": "t_uint256",
        "label": "mapping(uint256 => bytes32)",
        "numberOfBytes": "32",
        "value": "t_bytes32"
      },
      "t_mapping(t_uint256,t_struct(LoanDetails)11969_storage)": {
        "encoding": "mapping",
        "key": "t_uint256",
        "label": "mapping(uint256 => struct DataTypes.LoanDetails)",
        "numberOfBytes": "32",
        "value": "t_struct(LoanDetails)11969_storage"
      },
      "t_mapping(t_uint256,t_struct(Rate)11964_storage)": {
        "encoding": "mapping",
        "key": "t_uint256",
        "label": "mapping(uint256 => struct DataTypes.Rate)",
        "numberOfBytes": "32",
        "value": "t_struct(Rate)11964_storage"
      },
      "t_mapping(t_uint256,t_uint256)": {
        "encoding": "mapping",
        "key": "t_uint256",
        "label": "mapping(uint256 => uint256)",
        "numberOfBytes": "32",
        "value": "t_uint256"
      },
      "t_struct(AddressSet)6175_storage": {
        "encoding": "inplace",
        "label": "struct EnumerableSetUpgradeable.AddressSet",
        "members": [
          {
            "astId": 6174,
            "contract": "contracts/protocol/pool/Pool.sol:Pool",
            "label": "_inner",
            "offset": 0,
            "slot": "0",
            "type": "t_struct(Set)5860_storage"
          }
        ],
        "numberOfBytes": "64"
      },
      "t_struct(LoanDetails)11969_storage": {
        "encoding": "inplace",
        "label": "struct DataTypes.LoanDetails",
        "members": [
          {
            "astId": 11966,
            "contract": "contracts/protocol/pool/Pool.sol:Pool",
            "label": "borrowed",
            "offset": 0,
            "slot": "0",
            "type": "t_uint128"
          },
          {
            "astId": 11968,
            "contract": "contracts/protocol/pool/Pool.sol:Pool",
            "label": "authWriteOff",
            "offset": 16,
            "slot": "0",
            "type": "t_bool"
          }
        ],
        "numberOfBytes": "32"
      },
      "t_struct(NFTAsset)11905_storage": {
        "encoding": "inplace",
        "label": "struct DataTypes.NFTAsset",
        "members": [
          {
            "astId": 11902,
            "contract": "contracts/protocol/pool/Pool.sol:Pool",
            "label": "tokenAddress",
            "offset": 0,
            "slot": "0",
            "type": "t_address"
          },
          {
            "astId": 11904,
            "contract": "contracts/protocol/pool/Pool.sol:Pool",
            "label": "tokenId",
            "offset": 0,
            "slot": "1",
            "type": "t_uint256"
          }
        ],
        "numberOfBytes": "64"
      },
      "t_struct(NFTDetails)11949_storage": {
        "encoding": "inplace",
        "label": "struct DataTypes.NFTDetails",
        "members": [
          {
            "astId": 11916,
            "contract": "contracts/protocol/pool/Pool.sol:Pool",
            "label": "futureValue",
            "offset": 0,
            "slot": "0",
            "type": "t_uint128"
          },
          {
            "astId": 11918,
            "contract": "contracts/protocol/pool/Pool.sol:Pool",
            "label": "maturityDate",
            "offset": 16,
            "slot": "0",
            "type": "t_uint128"
          },
          {
            "astId": 11920,
            "contract": "contracts/protocol/pool/Pool.sol:Pool",
            "label": "risk",
            "offset": 0,
            "slot": "1",
            "type": "t_uint128"
          },
          {
            "astId": 11922,
            "contract": "contracts/protocol/pool/Pool.sol:Pool",
            "label": "debtor",
            "offset": 0,
            "slot": "2",
            "type": "t_address"
          },
          {
            "astId": 11924,
            "contract": "contracts/protocol/pool/Pool.sol:Pool",
            "label": "principalTokenAddress",
            "offset": 0,
            "slot": "3",
            "type": "t_address"
          },
          {
            "astId": 11926,
            "contract": "contracts/protocol/pool/Pool.sol:Pool",
            "label": "salt",
            "offset": 0,
            "slot": "4",
            "type": "t_uint256"
          },
          {
            "astId": 11928,
            "contract": "contracts/protocol/pool/Pool.sol:Pool",
            "label": "issuanceBlockTimestamp",
            "offset": 0,
            "slot": "5",
            "type": "t_uint256"
          },
          {
            "astId": 11930,
            "contract": "contracts/protocol/pool/Pool.sol:Pool",
            "label": "expirationTimestamp",
            "offset": 0,
            "slot": "6",
            "type": "t_uint256"
          },
          {
            "astId": 11933,
            "contract": "contracts/protocol/pool/Pool.sol:Pool",
            "label": "assetPurpose",
            "offset": 0,
            "slot": "7",
            "type": "t_enum(ASSET_PURPOSE)11765"
          },
          {
            "astId": 11935,
            "contract": "contracts/protocol/pool/Pool.sol:Pool",
            "label": "termsParam",
            "offset": 0,
            "slot": "8",
            "type": "t_bytes32"
          },
          {
            "astId": 11937,
            "contract": "contracts/protocol/pool/Pool.sol:Pool",
            "label": "principalAmount",
            "offset": 0,
            "slot": "9",
            "type": "t_uint256"
          },
          {
            "astId": 11939,
            "contract": "contracts/protocol/pool/Pool.sol:Pool",
            "label": "termStartUnixTimestamp",
            "offset": 0,
            "slot": "10",
            "type": "t_uint256"
          },
          {
            "astId": 11941,
            "contract": "contracts/protocol/pool/Pool.sol:Pool",
            "label": "termEndUnixTimestamp",
            "offset": 0,
            "slot": "11",
            "type": "t_uint256"
          },
          {
            "astId": 11944,
            "contract": "contracts/protocol/pool/Pool.sol:Pool",
            "label": "amortizationUnitType",
            "offset": 0,
            "slot": "12",
            "type": "t_enum(AmortizationUnitType)12631"
          },
          {
            "astId": 11946,
            "contract": "contracts/protocol/pool/Pool.sol:Pool",
            "label": "termLengthInAmortizationUnits",
            "offset": 0,
            "slot": "13",
            "type": "t_uint256"
          },
          {
            "astId": 11948,
            "contract": "contracts/protocol/pool/Pool.sol:Pool",
            "label": "interestRate",
            "offset": 0,
            "slot": "14",
            "type": "t_uint256"
          }
        ],
        "numberOfBytes": "480"
      },
      "t_struct(Rate)11964_storage": {
        "encoding": "inplace",
        "label": "struct DataTypes.Rate",
        "members": [
          {
            "astId": 11951,
            "contract": "contracts/protocol/pool/Pool.sol:Pool",
            "label": "pie",
            "offset": 0,
            "slot": "0",
            "type": "t_uint256"
          },
          {
            "astId": 11953,
            "contract": "contracts/protocol/pool/Pool.sol:Pool",
            "label": "chi",
            "offset": 0,
            "slot": "1",
            "type": "t_uint256"
          },
          {
            "astId": 11955,
            "contract": "contracts/protocol/pool/Pool.sol:Pool",
            "label": "ratePerSecond",
            "offset": 0,
            "slot": "2",
            "type": "t_uint256"
          },
          {
            "astId": 11957,
            "contract": "contracts/protocol/pool/Pool.sol:Pool",
            "label": "penaltyRatePerSecond",
            "offset": 0,
            "slot": "3",
            "type": "t_uint256"
          },
          {
            "astId": 11959,
            "contract": "contracts/protocol/pool/Pool.sol:Pool",
            "label": "penaltyChi",
            "offset": 0,
            "slot": "4",
            "type": "t_uint256"
          },
          {
            "astId": 11961,
            "contract": "contracts/protocol/pool/Pool.sol:Pool",
            "label": "lastUpdated",
            "offset": 0,
            "slot": "5",
            "type": "t_uint48"
          },
          {
            "astId": 11963,
            "contract": "contracts/protocol/pool/Pool.sol:Pool",
            "label": "timeStartPenalty",
            "offset": 6,
            "slot": "5",
            "type": "t_uint48"
          }
        ],
        "numberOfBytes": "192"
      },
      "t_struct(RiskScore)11882_storage": {
        "encoding": "inplace",
        "label": "struct DataTypes.RiskScore",
        "members": [
          {
            "astId": 11861,
            "contract": "contracts/protocol/pool/Pool.sol:Pool",
            "label": "daysPastDue",
            "offset": 0,
            "slot": "0",
            "type": "t_uint32"
          },
          {
            "astId": 11863,
            "contract": "contracts/protocol/pool/Pool.sol:Pool",
            "label": "advanceRate",
            "offset": 4,
            "slot": "0",
            "type": "t_uint32"
          },
          {
            "astId": 11865,
            "contract": "contracts/protocol/pool/Pool.sol:Pool",
            "label": "penaltyRate",
            "offset": 8,
            "slot": "0",
            "type": "t_uint32"
          },
          {
            "astId": 11867,
            "contract": "contracts/protocol/pool/Pool.sol:Pool",
            "label": "interestRate",
            "offset": 12,
            "slot": "0",
            "type": "t_uint32"
          },
          {
            "astId": 11869,
            "contract": "contracts/protocol/pool/Pool.sol:Pool",
            "label": "probabilityOfDefault",
            "offset": 16,
            "slot": "0",
            "type": "t_uint32"
          },
          {
            "astId": 11871,
            "contract": "contracts/protocol/pool/Pool.sol:Pool",
            "label": "lossGivenDefault",
            "offset": 20,
            "slot": "0",
            "type": "t_uint32"
          },
          {
            "astId": 11873,
            "contract": "contracts/protocol/pool/Pool.sol:Pool",
            "label": "writeOffAfterGracePeriod",
            "offset": 24,
            "slot": "0",
            "type": "t_uint32"
          },
          {
            "astId": 11875,
            "contract": "contracts/protocol/pool/Pool.sol:Pool",
            "label": "gracePeriod",
            "offset": 28,
            "slot": "0",
            "type": "t_uint32"
          },
          {
            "astId": 11877,
            "contract": "contracts/protocol/pool/Pool.sol:Pool",
            "label": "collectionPeriod",
            "offset": 0,
            "slot": "1",
            "type": "t_uint32"
          },
          {
            "astId": 11879,
            "contract": "contracts/protocol/pool/Pool.sol:Pool",
            "label": "writeOffAfterCollectionPeriod",
            "offset": 4,
            "slot": "1",
            "type": "t_uint32"
          },
          {
            "astId": 11881,
            "contract": "contracts/protocol/pool/Pool.sol:Pool",
            "label": "discountRate",
            "offset": 8,
            "slot": "1",
            "type": "t_uint32"
          }
        ],
        "numberOfBytes": "64"
      },
      "t_struct(RoleData)179_storage": {
        "encoding": "inplace",
        "label": "struct AccessControlUpgradeable.RoleData",
        "members": [
          {
            "astId": 176,
            "contract": "contracts/protocol/pool/Pool.sol:Pool",
            "label": "members",
            "offset": 0,
            "slot": "0",
            "type": "t_mapping(t_address,t_bool)"
          },
          {
            "astId": 178,
            "contract": "contracts/protocol/pool/Pool.sol:Pool",
            "label": "adminRole",
            "offset": 0,
            "slot": "1",
            "type": "t_bytes32"
          }
        ],
        "numberOfBytes": "64"
      },
      "t_struct(Set)5860_storage": {
        "encoding": "inplace",
        "label": "struct EnumerableSetUpgradeable.Set",
        "members": [
          {
            "astId": 5855,
            "contract": "contracts/protocol/pool/Pool.sol:Pool",
            "label": "_values",
            "offset": 0,
            "slot": "0",
            "type": "t_array(t_bytes32)dyn_storage"
          },
          {
            "astId": 5859,
            "contract": "contracts/protocol/pool/Pool.sol:Pool",
            "label": "_indexes",
            "offset": 0,
            "slot": "1",
            "type": "t_mapping(t_bytes32,t_uint256)"
          }
        ],
        "numberOfBytes": "64"
      },
      "t_struct(Storage)12102_storage": {
        "encoding": "inplace",
        "label": "struct DataTypes.Storage",
        "members": [
          {
            "astId": 11978,
            "contract": "contracts/protocol/pool/Pool.sol:Pool",
            "label": "validatorRequired",
            "offset": 0,
            "slot": "0",
            "type": "t_bool"
          },
          {
            "astId": 11980,
            "contract": "contracts/protocol/pool/Pool.sol:Pool",
            "label": "firstAssetTimestamp",
            "offset": 1,
            "slot": "0",
            "type": "t_uint64"
          },
          {
            "astId": 11984,
            "contract": "contracts/protocol/pool/Pool.sol:Pool",
            "label": "riskScores",
            "offset": 0,
            "slot": "1",
            "type": "t_array(t_struct(RiskScore)11882_storage)dyn_storage"
          },
          {
            "astId": 11988,
            "contract": "contracts/protocol/pool/Pool.sol:Pool",
            "label": "nftAssets",
            "offset": 0,
            "slot": "2",
            "type": "t_array(t_struct(NFTAsset)11905_storage)dyn_storage"
          },
          {
            "astId": 11991,
            "contract": "contracts/protocol/pool/Pool.sol:Pool",
            "label": "tokenAssetAddresses",
            "offset": 0,
            "slot": "3",
            "type": "t_array(t_address)dyn_storage"
          },
          {
            "astId": 11995,
            "contract": "contracts/protocol/pool/Pool.sol:Pool",
            "label": "existsTokenAssetAddress",
            "offset": 0,
            "slot": "4",
            "type": "t_mapping(t_address,t_bool)"
          },
          {
            "astId": 11997,
            "contract": "contracts/protocol/pool/Pool.sol:Pool",
            "label": "sotToken",
            "offset": 0,
            "slot": "5",
            "type": "t_address"
          },
          {
            "astId": 11999,
            "contract": "contracts/protocol/pool/Pool.sol:Pool",
            "label": "jotToken",
            "offset": 0,
            "slot": "6",
            "type": "t_address"
          },
          {
            "astId": 12001,
            "contract": "contracts/protocol/pool/Pool.sol:Pool",
            "label": "underlyingCurrency",
            "offset": 0,
            "slot": "7",
            "type": "t_address"
          },
          {
            "astId": 12003,
            "contract": "contracts/protocol/pool/Pool.sol:Pool",
            "label": "incomeReserve",
            "offset": 0,
            "slot": "8",
            "type": "t_uint256"
          },
          {
            "astId": 12005,
            "contract": "contracts/protocol/pool/Pool.sol:Pool",
            "label": "capitalReserve",
            "offset": 0,
            "slot": "9",
            "type": "t_uint256"
          },
          {
            "astId": 12007,
            "contract": "contracts/protocol/pool/Pool.sol:Pool",
            "label": "beneficiary",
            "offset": 0,
            "slot": "10",
            "type": "t_address"
          },
          {
            "astId": 12009,
            "contract": "contracts/protocol/pool/Pool.sol:Pool",
            "label": "protocolFee",
            "offset": 0,
            "slot": "11",
            "type": "t_uint256"
          },
          {
            "astId": 12011,
            "contract": "contracts/protocol/pool/Pool.sol:Pool",
            "label": "earlyExitFee",
            "offset": 0,
            "slot": "12",
            "type": "t_uint256"
          },
          {
            "astId": 12013,
            "contract": "contracts/protocol/pool/Pool.sol:Pool",
            "label": "exitTimestamp",
            "offset": 0,
            "slot": "13",
            "type": "t_uint256"
          },
          {
            "astId": 12015,
            "contract": "contracts/protocol/pool/Pool.sol:Pool",
            "label": "minFirstLossCushion",
            "offset": 0,
            "slot": "14",
            "type": "t_uint32"
          },
          {
            "astId": 12017,
            "contract": "contracts/protocol/pool/Pool.sol:Pool",
            "label": "openingBlockTimestamp",
            "offset": 4,
            "slot": "14",
            "type": "t_uint64"
          },
          {
            "astId": 12019,
            "contract": "contracts/protocol/pool/Pool.sol:Pool",
            "label": "pot",
            "offset": 12,
            "slot": "14",
            "type": "t_address"
          },
          {
            "astId": 12021,
            "contract": "contracts/protocol/pool/Pool.sol:Pool",
            "label": "paidPrincipalAmountSOT",
            "offset": 0,
            "slot": "15",
            "type": "t_uint256"
          },
          {
            "astId": 12023,
            "contract": "contracts/protocol/pool/Pool.sol:Pool",
            "label": "interestRateSOT",
            "offset": 0,
            "slot": "16",
            "type": "t_uint256"
          },
          {
            "astId": 12025,
            "contract": "contracts/protocol/pool/Pool.sol:Pool",
            "label": "totalAssetRepaidCurrency",
            "offset": 0,
            "slot": "17",
            "type": "t_uint256"
          },
          {
            "astId": 12027,
            "contract": "contracts/protocol/pool/Pool.sol:Pool",
            "label": "debtCeiling",
            "offset": 0,
            "slot": "18",
            "type": "t_uint256"
          },
          {
            "astId": 12033,
            "contract": "contracts/protocol/pool/Pool.sol:Pool",
            "label": "rates",
            "offset": 0,
            "slot": "19",
            "type": "t_mapping(t_uint256,t_struct(Rate)11964_storage)"
          },
          {
            "astId": 12037,
            "contract": "contracts/protocol/pool/Pool.sol:Pool",
            "label": "pie",
            "offset": 0,
            "slot": "20",
            "type": "t_mapping(t_uint256,t_uint256)"
          },
          {
            "astId": 12042,
            "contract": "contracts/protocol/pool/Pool.sol:Pool",
            "label": "loanRates",
            "offset": 0,
            "slot": "21",
            "type": "t_mapping(t_uint256,t_uint256)"
          },
          {
            "astId": 12045,
            "contract": "contracts/protocol/pool/Pool.sol:Pool",
            "label": "loanCount",
            "offset": 0,
            "slot": "22",
            "type": "t_uint256"
          },
          {
            "astId": 12049,
            "contract": "contracts/protocol/pool/Pool.sol:Pool",
            "label": "balances",
            "offset": 0,
            "slot": "23",
            "type": "t_mapping(t_uint256,t_uint256)"
          },
          {
            "astId": 12051,
            "contract": "contracts/protocol/pool/Pool.sol:Pool",
            "label": "balance",
            "offset": 0,
            "slot": "24",
            "type": "t_uint256"
          },
          {
            "astId": 12056,
            "contract": "contracts/protocol/pool/Pool.sol:Pool",
            "label": "details",
            "offset": 0,
            "slot": "25",
            "type": "t_mapping(t_bytes32,t_struct(NFTDetails)11949_storage)"
          },
          {
            "astId": 12061,
            "contract": "contracts/protocol/pool/Pool.sol:Pool",
            "label": "loanDetails",
            "offset": 0,
            "slot": "26",
            "type": "t_mapping(t_uint256,t_struct(LoanDetails)11969_storage)"
          },
          {
            "astId": 12065,
            "contract": "contracts/protocol/pool/Pool.sol:Pool",
            "label": "buckets",
            "offset": 0,
            "slot": "27",
            "type": "t_mapping(t_uint256,t_uint256)"
          },
          {
            "astId": 12069,
            "contract": "contracts/protocol/pool/Pool.sol:Pool",
            "label": "writeOffGroups",
            "offset": 0,
            "slot": "28",
            "type": "t_array(t_struct(WriteOffGroup)11976_storage)dyn_storage"
          },
          {
            "astId": 12071,
            "contract": "contracts/protocol/pool/Pool.sol:Pool",
            "label": "discountRate",
            "offset": 0,
            "slot": "29",
            "type": "t_uint256"
          },
          {
            "astId": 12073,
            "contract": "contracts/protocol/pool/Pool.sol:Pool",
            "label": "latestNAV",
            "offset": 0,
            "slot": "30",
            "type": "t_uint256"
          },
          {
            "astId": 12075,
            "contract": "contracts/protocol/pool/Pool.sol:Pool",
            "label": "latestDiscount",
            "offset": 0,
            "slot": "31",
            "type": "t_uint256"
          },
          {
            "astId": 12077,
            "contract": "contracts/protocol/pool/Pool.sol:Pool",
            "label": "lastNAVUpdate",
            "offset": 0,
            "slot": "32",
            "type": "t_uint256"
          },
          {
            "astId": 12079,
            "contract": "contracts/protocol/pool/Pool.sol:Pool",
            "label": "overdueLoans",
            "offset": 0,
            "slot": "33",
            "type": "t_uint256"
          },
          {
            "astId": 12083,
            "contract": "contracts/protocol/pool/Pool.sol:Pool",
            "label": "latestDiscountOfNavAssets",
            "offset": 0,
            "slot": "34",
            "type": "t_mapping(t_bytes32,t_uint256)"
          },
          {
            "astId": 12087,
            "contract": "contracts/protocol/pool/Pool.sol:Pool",
            "label": "overdueLoansOfNavAssets",
            "offset": 0,
            "slot": "35",
            "type": "t_mapping(t_bytes32,t_uint256)"
          },
          {
            "astId": 12091,
            "contract": "contracts/protocol/pool/Pool.sol:Pool",
            "label": "loanToNFT",
            "offset": 0,
            "slot": "36",
            "type": "t_mapping(t_uint256,t_bytes32)"
          },
          {
            "astId": 12093,
            "contract": "contracts/protocol/pool/Pool.sol:Pool",
            "label": "totalPrincipalRepaid",
            "offset": 0,
            "slot": "37",
            "type": "t_uint256"
          },
          {
            "astId": 12095,
            "contract": "contracts/protocol/pool/Pool.sol:Pool",
            "label": "totalInterestRepaid",
            "offset": 0,
            "slot": "38",
            "type": "t_uint256"
          },
          {
            "astId": 12097,
            "contract": "contracts/protocol/pool/Pool.sol:Pool",
            "label": "seniorDebt",
            "offset": 0,
            "slot": "39",
            "type": "t_uint256"
          },
          {
            "astId": 12099,
            "contract": "contracts/protocol/pool/Pool.sol:Pool",
            "label": "seniorBalance",
            "offset": 0,
            "slot": "40",
            "type": "t_uint256"
          },
          {
            "astId": 12101,
            "contract": "contracts/protocol/pool/Pool.sol:Pool",
            "label": "lastUpdateSeniorInterest",
            "offset": 0,
            "slot": "41",
            "type": "t_uint64"
          }
        ],
        "numberOfBytes": "1344"
      },
      "t_struct(WriteOffGroup)11976_storage": {
        "encoding": "inplace",
        "label": "struct DataTypes.WriteOffGroup",
        "members": [
          {
            "astId": 11971,
            "contract": "contracts/protocol/pool/Pool.sol:Pool",
            "label": "percentage",
            "offset": 0,
            "slot": "0",
            "type": "t_uint128"
          },
          {
            "astId": 11973,
            "contract": "contracts/protocol/pool/Pool.sol:Pool",
            "label": "overdueDays",
            "offset": 16,
            "slot": "0",
            "type": "t_uint128"
          },
          {
            "astId": 11975,
            "contract": "contracts/protocol/pool/Pool.sol:Pool",
            "label": "riskIndex",
            "offset": 0,
            "slot": "1",
            "type": "t_uint128"
          }
        ],
        "numberOfBytes": "64"
      },
      "t_uint128": {
        "encoding": "inplace",
        "label": "uint128",
        "numberOfBytes": "16"
      },
      "t_uint256": {
        "encoding": "inplace",
        "label": "uint256",
        "numberOfBytes": "32"
      },
      "t_uint32": {
        "encoding": "inplace",
        "label": "uint32",
        "numberOfBytes": "4"
      },
      "t_uint48": {
        "encoding": "inplace",
        "label": "uint48",
        "numberOfBytes": "6"
      },
      "t_uint64": {
        "encoding": "inplace",
        "label": "uint64",
        "numberOfBytes": "8"
      },
      "t_uint8": {
        "encoding": "inplace",
        "label": "uint8",
        "numberOfBytes": "1"
      }
    }
  }
}