{
  "address": "0x26Fa77B7c576713903CFCa3223E63ee3185A41b3",
  "abi": [
    {
      "anonymous": false,
      "inputs": [
        {
          "indexed": false,
          "internalType": "uint8",
          "name": "version",
          "type": "uint8"
        }
      ],
      "name": "Initialized",
      "type": "event"
    },
    {
      "anonymous": false,
      "inputs": [
        {
          "indexed": true,
          "internalType": "address",
          "name": "jotAddress",
          "type": "address"
        },
        {
          "indexed": false,
          "internalType": "address",
          "name": "tgeAddress",
          "type": "address"
        },
        {
          "indexed": false,
          "internalType": "address",
          "name": "poolAddress",
          "type": "address"
        }
      ],
      "name": "JotDeployed",
      "type": "event"
    },
    {
      "anonymous": false,
      "inputs": [
        {
          "indexed": true,
          "internalType": "address",
          "name": "instanceAddress",
          "type": "address"
        }
      ],
      "name": "NewPoolCreated",
      "type": "event"
    },
    {
      "anonymous": false,
      "inputs": [
        {
          "indexed": true,
          "internalType": "address",
          "name": "instanceAddress",
          "type": "address"
        },
        {
          "indexed": false,
          "internalType": "address",
          "name": "poolOwner",
          "type": "address"
        },
        {
          "components": [
            {
              "internalType": "uint256",
              "name": "debtCeiling",
              "type": "uint256"
            },
            {
              "internalType": "address",
              "name": "currency",
              "type": "address"
            },
            {
              "internalType": "uint32",
              "name": "minFirstLossCushion",
              "type": "uint32"
            },
            {
              "internalType": "bool",
              "name": "validatorRequired",
              "type": "bool"
            }
          ],
          "indexed": false,
          "internalType": "struct DataTypes.NewPoolParams",
          "name": "newPoolParams",
          "type": "tuple"
        }
      ],
      "name": "NewPoolDeployed",
      "type": "event"
    },
    {
      "anonymous": false,
      "inputs": [
        {
          "indexed": false,
          "internalType": "address",
          "name": "pool",
          "type": "address"
        },
        {
          "indexed": false,
          "internalType": "address",
          "name": "tokenAddress",
          "type": "address"
        },
        {
          "indexed": false,
          "internalType": "string",
          "name": "tokenType",
          "type": "string"
        }
      ],
      "name": "NewTokenCreated",
      "type": "event"
    },
    {
      "anonymous": false,
      "inputs": [
        {
          "indexed": true,
          "internalType": "address",
          "name": "investor",
          "type": "address"
        },
        {
          "indexed": true,
          "internalType": "address",
          "name": "tgeAddress",
          "type": "address"
        },
        {
          "indexed": false,
          "internalType": "address",
          "name": "poolAddress",
          "type": "address"
        },
        {
          "indexed": false,
          "internalType": "uint256",
          "name": "amount",
          "type": "uint256"
        },
        {
          "indexed": false,
          "internalType": "uint256",
          "name": "tokenAmount",
          "type": "uint256"
        }
      ],
      "name": "NoteTokenPurchased",
      "type": "event"
    },
    {
      "anonymous": false,
      "inputs": [
        {
          "indexed": false,
          "internalType": "address",
          "name": "account",
          "type": "address"
        }
      ],
      "name": "Paused",
      "type": "event"
    },
    {
      "anonymous": false,
      "inputs": [
        {
          "indexed": true,
          "internalType": "bytes32",
          "name": "role",
          "type": "bytes32"
        },
        {
          "indexed": true,
          "internalType": "bytes32",
          "name": "previousAdminRole",
          "type": "bytes32"
        },
        {
          "indexed": true,
          "internalType": "bytes32",
          "name": "newAdminRole",
          "type": "bytes32"
        }
      ],
      "name": "RoleAdminChanged",
      "type": "event"
    },
    {
      "anonymous": false,
      "inputs": [
        {
          "indexed": true,
          "internalType": "bytes32",
          "name": "role",
          "type": "bytes32"
        },
        {
          "indexed": true,
          "internalType": "address",
          "name": "account",
          "type": "address"
        },
        {
          "indexed": true,
          "internalType": "address",
          "name": "sender",
          "type": "address"
        }
      ],
      "name": "RoleGranted",
      "type": "event"
    },
    {
      "anonymous": false,
      "inputs": [
        {
          "indexed": true,
          "internalType": "bytes32",
          "name": "role",
          "type": "bytes32"
        },
        {
          "indexed": true,
          "internalType": "address",
          "name": "account",
          "type": "address"
        },
        {
          "indexed": true,
          "internalType": "address",
          "name": "sender",
          "type": "address"
        }
      ],
      "name": "RoleRevoked",
      "type": "event"
    },
    {
      "anonymous": false,
      "inputs": [
        {
          "indexed": true,
          "internalType": "address",
          "name": "jotAddress",
          "type": "address"
        },
        {
          "indexed": false,
          "internalType": "address",
          "name": "tgeAddress",
          "type": "address"
        },
        {
          "components": [
            {
              "internalType": "address",
              "name": "issuerTokenController",
              "type": "address"
            },
            {
              "internalType": "address",
              "name": "pool",
              "type": "address"
            },
            {
              "internalType": "uint256",
              "name": "minBidAmount",
              "type": "uint256"
            },
            {
              "internalType": "uint256",
              "name": "totalCap",
              "type": "uint256"
            },
            {
              "internalType": "uint256",
              "name": "openingTime",
              "type": "uint256"
            },
            {
              "internalType": "string",
              "name": "ticker",
              "type": "string"
            },
            {
              "internalType": "uint8",
              "name": "saleType",
              "type": "uint8"
            }
          ],
          "indexed": false,
          "internalType": "struct ISecuritizationManager.TGEParam",
          "name": "tgeParam",
          "type": "tuple"
        },
        {
          "indexed": false,
          "internalType": "uint256",
          "name": "initialJOTAmount",
          "type": "uint256"
        }
      ],
      "name": "SetupJot",
      "type": "event"
    },
    {
      "anonymous": false,
      "inputs": [
        {
          "indexed": true,
          "internalType": "address",
          "name": "sotAddress",
          "type": "address"
        },
        {
          "indexed": false,
          "internalType": "address",
          "name": "tgeAddress",
          "type": "address"
        },
        {
          "components": [
            {
              "internalType": "address",
              "name": "issuerTokenController",
              "type": "address"
            },
            {
              "internalType": "address",
              "name": "pool",
              "type": "address"
            },
            {
              "internalType": "uint256",
              "name": "minBidAmount",
              "type": "uint256"
            },
            {
              "internalType": "uint256",
              "name": "totalCap",
              "type": "uint256"
            },
            {
              "internalType": "uint256",
              "name": "openingTime",
              "type": "uint256"
            },
            {
              "internalType": "string",
              "name": "ticker",
              "type": "string"
            },
            {
              "internalType": "uint8",
              "name": "saleType",
              "type": "uint8"
            }
          ],
          "indexed": false,
          "internalType": "struct ISecuritizationManager.TGEParam",
          "name": "tgeParam",
          "type": "tuple"
        },
        {
          "indexed": false,
          "internalType": "uint256",
          "name": "interestRate",
          "type": "uint256"
        }
      ],
      "name": "SetupSot",
      "type": "event"
    },
    {
      "anonymous": false,
      "inputs": [
        {
          "indexed": true,
          "internalType": "address",
          "name": "sotAddress",
          "type": "address"
        },
        {
          "indexed": false,
          "internalType": "address",
          "name": "tgeAddress",
          "type": "address"
        },
        {
          "indexed": false,
          "internalType": "address",
          "name": "poolAddress",
          "type": "address"
        }
      ],
      "name": "SotDeployed",
      "type": "event"
    },
    {
      "anonymous": false,
      "inputs": [
        {
          "indexed": true,
          "internalType": "address",
          "name": "investor",
          "type": "address"
        },
        {
          "indexed": true,
          "internalType": "address",
          "name": "tgeAddress",
          "type": "address"
        },
        {
          "indexed": false,
          "internalType": "uint256",
          "name": "amount",
          "type": "uint256"
        },
        {
          "indexed": false,
          "internalType": "uint256",
          "name": "tokenAmount",
          "type": "uint256"
        }
      ],
      "name": "TokensPurchased",
      "type": "event"
    },
    {
      "anonymous": false,
      "inputs": [
        {
          "indexed": false,
          "internalType": "address",
          "name": "account",
          "type": "address"
        }
      ],
      "name": "Unpaused",
      "type": "event"
    },
    {
      "anonymous": false,
      "inputs": [
        {
          "indexed": false,
          "internalType": "uint256[]",
          "name": "uids",
          "type": "uint256[]"
        }
      ],
      "name": "UpdateAllowedUIDTypes",
      "type": "event"
    },
    {
      "anonymous": false,
      "inputs": [
        {
          "indexed": true,
          "internalType": "address",
          "name": "pot",
          "type": "address"
        },
        {
          "indexed": true,
          "internalType": "address",
          "name": "pool",
          "type": "address"
        }
      ],
      "name": "UpdatePotToPool",
      "type": "event"
    },
    {
      "anonymous": false,
      "inputs": [
        {
          "components": [
            {
              "internalType": "address",
              "name": "tgeAddress",
              "type": "address"
            },
            {
              "internalType": "uint256",
              "name": "totalCap",
              "type": "uint256"
            },
            {
              "internalType": "uint256",
              "name": "minBidAmount",
              "type": "uint256"
            }
          ],
          "indexed": false,
          "internalType": "struct ISecuritizationManager.TGEInfoParam[]",
          "name": "tgeInfos",
          "type": "tuple[]"
        }
      ],
      "name": "UpdateTGEInfo",
      "type": "event"
    },
    {
      "inputs": [],
      "name": "DEFAULT_ADMIN_ROLE",
      "outputs": [
        {
          "internalType": "bytes32",
          "name": "",
          "type": "bytes32"
        }
      ],
      "stateMutability": "view",
      "type": "function"
    },
    {
      "inputs": [],
      "name": "POOL_INIT_FUNC_SELECTOR",
      "outputs": [
        {
          "internalType": "bytes4",
          "name": "",
          "type": "bytes4"
        }
      ],
      "stateMutability": "view",
      "type": "function"
    },
    {
      "inputs": [
        {
          "internalType": "uint256",
          "name": "",
          "type": "uint256"
        }
      ],
      "name": "allowedUIDTypes",
      "outputs": [
        {
          "internalType": "uint256",
          "name": "",
          "type": "uint256"
        }
      ],
      "stateMutability": "view",
      "type": "function"
    },
    {
      "inputs": [],
      "name": "factoryAdmin",
      "outputs": [
        {
          "internalType": "address",
          "name": "",
          "type": "address"
        }
      ],
      "stateMutability": "view",
      "type": "function"
    },
    {
      "inputs": [],
      "name": "getInitializedVersion",
      "outputs": [
        {
          "internalType": "uint256",
          "name": "",
          "type": "uint256"
        }
      ],
      "stateMutability": "view",
      "type": "function"
    },
    {
      "inputs": [],
      "name": "getPoolsLength",
      "outputs": [
        {
          "internalType": "uint256",
          "name": "",
          "type": "uint256"
        }
      ],
      "stateMutability": "view",
      "type": "function"
    },
    {
      "inputs": [
        {
          "internalType": "bytes32",
          "name": "role",
          "type": "bytes32"
        }
      ],
      "name": "getRoleAdmin",
      "outputs": [
        {
          "internalType": "bytes32",
          "name": "",
          "type": "bytes32"
        }
      ],
      "stateMutability": "view",
      "type": "function"
    },
    {
      "inputs": [
        {
          "internalType": "bytes32",
          "name": "role",
          "type": "bytes32"
        },
        {
          "internalType": "uint256",
          "name": "index",
          "type": "uint256"
        }
      ],
      "name": "getRoleMember",
      "outputs": [
        {
          "internalType": "address",
          "name": "",
          "type": "address"
        }
      ],
      "stateMutability": "view",
      "type": "function"
    },
    {
      "inputs": [
        {
          "internalType": "bytes32",
          "name": "role",
          "type": "bytes32"
        }
      ],
      "name": "getRoleMemberCount",
      "outputs": [
        {
          "internalType": "uint256",
          "name": "",
          "type": "uint256"
        }
      ],
      "stateMutability": "view",
      "type": "function"
    },
    {
      "inputs": [
        {
          "internalType": "bytes32",
          "name": "role",
          "type": "bytes32"
        },
        {
          "internalType": "address",
          "name": "account",
          "type": "address"
        }
      ],
      "name": "grantRole",
      "outputs": [],
      "stateMutability": "nonpayable",
      "type": "function"
    },
    {
      "inputs": [
        {
          "internalType": "address",
          "name": "sender",
          "type": "address"
        }
      ],
      "name": "hasAllowedUID",
      "outputs": [
        {
          "internalType": "bool",
          "name": "",
          "type": "bool"
        }
      ],
      "stateMutability": "view",
      "type": "function"
    },
    {
      "inputs": [
        {
          "internalType": "bytes32",
          "name": "role",
          "type": "bytes32"
        },
        {
          "internalType": "address",
          "name": "account",
          "type": "address"
        }
      ],
      "name": "hasRole",
      "outputs": [
        {
          "internalType": "bool",
          "name": "",
          "type": "bool"
        }
      ],
      "stateMutability": "view",
      "type": "function"
    },
    {
      "inputs": [
        {
          "internalType": "contract Registry",
          "name": "_registry",
          "type": "address"
        },
        {
          "internalType": "address",
          "name": "_factoryAdmin",
          "type": "address"
        }
      ],
      "name": "initialize",
      "outputs": [],
      "stateMutability": "nonpayable",
      "type": "function"
    },
    {
      "inputs": [],
      "name": "isAdmin",
      "outputs": [
        {
          "internalType": "bool",
          "name": "",
          "type": "bool"
        }
      ],
      "stateMutability": "view",
      "type": "function"
    },
    {
      "inputs": [
        {
          "internalType": "address",
          "name": "",
          "type": "address"
        }
      ],
      "name": "isExistingPools",
      "outputs": [
        {
          "internalType": "bool",
          "name": "",
          "type": "bool"
        }
      ],
      "stateMutability": "view",
      "type": "function"
    },
    {
      "inputs": [
        {
          "internalType": "address",
          "name": "",
          "type": "address"
        }
      ],
      "name": "isExistingTGEs",
      "outputs": [
        {
          "internalType": "bool",
          "name": "",
          "type": "bool"
        }
      ],
      "stateMutability": "view",
      "type": "function"
    },
    {
      "inputs": [
        {
          "internalType": "bytes32",
          "name": "salt",
          "type": "bytes32"
        },
        {
          "internalType": "address",
          "name": "poolOwner",
          "type": "address"
        },
        {
          "internalType": "bytes",
          "name": "params",
          "type": "bytes"
        }
      ],
      "name": "newPoolInstance",
      "outputs": [
        {
          "internalType": "address",
          "name": "",
          "type": "address"
        }
      ],
      "stateMutability": "nonpayable",
      "type": "function"
    },
    {
      "inputs": [],
      "name": "pause",
      "outputs": [],
      "stateMutability": "nonpayable",
      "type": "function"
    },
    {
      "inputs": [],
      "name": "paused",
      "outputs": [
        {
          "internalType": "bool",
          "name": "",
          "type": "bool"
        }
      ],
      "stateMutability": "view",
      "type": "function"
    },
    {
      "inputs": [
        {
          "internalType": "uint256",
          "name": "",
          "type": "uint256"
        }
      ],
      "name": "pools",
      "outputs": [
        {
          "internalType": "address",
          "name": "",
          "type": "address"
        }
      ],
      "stateMutability": "view",
      "type": "function"
    },
    {
      "inputs": [
        {
          "internalType": "address",
          "name": "",
          "type": "address"
        }
      ],
      "name": "potToPool",
      "outputs": [
        {
          "internalType": "address",
          "name": "",
          "type": "address"
        }
      ],
      "stateMutability": "view",
      "type": "function"
    },
    {
      "inputs": [
        {
          "internalType": "address",
          "name": "pot",
          "type": "address"
        }
      ],
      "name": "registerPot",
      "outputs": [],
      "stateMutability": "nonpayable",
      "type": "function"
    },
    {
      "inputs": [],
      "name": "registry",
      "outputs": [
        {
          "internalType": "contract Registry",
          "name": "",
          "type": "address"
        }
      ],
      "stateMutability": "view",
      "type": "function"
    },
    {
      "inputs": [
        {
          "internalType": "bytes32",
          "name": "role",
          "type": "bytes32"
        },
        {
          "internalType": "address",
          "name": "account",
          "type": "address"
        }
      ],
      "name": "renounceRole",
      "outputs": [],
      "stateMutability": "nonpayable",
      "type": "function"
    },
    {
      "inputs": [
        {
          "internalType": "bytes32",
          "name": "role",
          "type": "bytes32"
        },
        {
          "internalType": "address",
          "name": "account",
          "type": "address"
        }
      ],
      "name": "revokeRole",
      "outputs": [],
      "stateMutability": "nonpayable",
      "type": "function"
    },
    {
      "inputs": [
        {
          "internalType": "uint256[]",
          "name": "ids",
          "type": "uint256[]"
        }
      ],
      "name": "setAllowedUIDTypes",
      "outputs": [],
      "stateMutability": "nonpayable",
      "type": "function"
    },
    {
      "inputs": [
        {
          "internalType": "address",
          "name": "_factoryAdmin",
          "type": "address"
        }
      ],
      "name": "setFactoryAdmin",
      "outputs": [],
      "stateMutability": "nonpayable",
      "type": "function"
    },
    {
      "inputs": [
        {
          "internalType": "bytes32",
          "name": "role",
          "type": "bytes32"
        },
        {
          "internalType": "bytes32",
          "name": "adminRole",
          "type": "bytes32"
        }
      ],
      "name": "setRoleAdmin",
      "outputs": [],
      "stateMutability": "nonpayable",
      "type": "function"
    },
    {
      "inputs": [
        {
          "internalType": "address",
          "name": "pool",
          "type": "address"
        },
        {
          "internalType": "enum Configuration.NOTE_TOKEN_TYPE",
          "name": "tokenType",
          "type": "uint8"
        },
        {
          "internalType": "uint256",
          "name": "minBidAmount",
          "type": "uint256"
        },
        {
          "internalType": "uint32",
          "name": "interestRate",
          "type": "uint32"
        },
        {
          "internalType": "string",
          "name": "ticker",
          "type": "string"
        }
      ],
      "name": "setupNoteTokenSale",
      "outputs": [],
      "stateMutability": "nonpayable",
      "type": "function"
    },
    {
      "inputs": [
        {
          "internalType": "bytes4",
          "name": "interfaceId",
          "type": "bytes4"
        }
      ],
      "name": "supportsInterface",
      "outputs": [
        {
          "internalType": "bool",
          "name": "",
          "type": "bool"
        }
      ],
      "stateMutability": "view",
      "type": "function"
    },
    {
      "inputs": [],
      "name": "unpause",
      "outputs": [],
      "stateMutability": "nonpayable",
      "type": "function"
    }
  ],
  "transactionHash": "0x86f808920758478b5279701825320b337b02b2c2acda0d55229bbb311ea5673b",
  "args": [],
  "numDeployments": 1,
  "solcInputHash": "d74ce3ac52532bb456b599bdc8ee57ee",
  "bytecode": "0x608060405234801561001057600080fd5b50613a01806100206000396000f3fe60806040523480156200001157600080fd5b50600436106200020d5760003560e01c80639010d07c1162000125578063ca15c87311620000af578063dc90f9fd116200007a578063dc90f9fd14620004d2578063e2a657f914620004e9578063f94f5a121462000500578063fa10cd63146200051757600080fd5b8063ca15c8731462000473578063ce883cdb146200048a578063d113058c1462000494578063d547741f14620004bb57600080fd5b8063ac4afa3811620000f0578063ac4afa38146200042f578063b3c650151462000446578063b6db75a01462000452578063b9317d86146200045c57600080fd5b80639010d07c14620003e157806391d1485414620003f857806394cf5631146200040f578063a217fddf146200042657600080fd5b806336568abe11620001a7578063485cc9551162000172578063485cc955146200039f5780635c975abb14620003b65780637b10399914620003c25780638456cb5914620003d757600080fd5b806336568abe146200031557806337731944146200032c5780633f4ba83a146200036e5780634172f80a146200037857600080fd5b80631e4e009111620001e85780631e4e00911462000285578063248a9ca3146200029c5780632c9bdbe014620002d15780632f2ff15d14620002fe57600080fd5b806301ffc9a7146200021257806305dfd86f146200023e57806317d8ec7f1462000257575b600080fd5b620002296200022336600462002339565b6200052e565b60405190151581526020015b60405180910390f35b620002556200024f3660046200237b565b6200055c565b005b61015f546200026c906001600160a01b031681565b6040516001600160a01b03909116815260200162000235565b62000255620002963660046200239b565b62000578565b620002c2620002ad366004620023be565b600090815260c9602052604090206001015490565b60405190815260200162000235565b6200026c620002e23660046200237b565b610195602052600090815260409020546001600160a01b031681565b620002556200030f366004620023d8565b62000596565b6200025562000326366004620023d8565b620005bf565b620003547fd1f578946981755ee8ffb900bf2e79846feedf4642746695df147d68656840a381565b6040516001600160e01b0319909116815260200162000235565b6200025562000641565b62000229620003893660046200237b565b6101966020526000908152604090205460ff1681565b62000255620003b03660046200240b565b62000676565b60335460ff1662000229565b610192546200026c906001600160a01b031681565b62000255620007e4565b6200026c620003f23660046200239b565b62000817565b6200022962000409366004620023d8565b62000838565b620002556200042036600462002451565b62000863565b620002c2600081565b6200026c62000440366004620023be565b62000e63565b60005460ff16620002c2565b6200022962000e8f565b620002556200046d36600462002512565b62000ec5565b620002c262000484366004620023be565b62000f15565b61019454620002c2565b62000229620004a53660046200237b565b6101936020526000908152604090205460ff1681565b62000255620004cc366004620023d8565b62000f2e565b62000255620004e33660046200237b565b62000f57565b620002c2620004fa366004620023be565b620010b6565b62000229620005113660046200237b565b620010d9565b6200026c62000528366004620025d6565b62001169565b60006001600160e01b03198216635a05180f60e01b14806200055657506200055682620014c6565b92915050565b60006200056981620014fd565b62000574826200150c565b5050565b60006200058581620014fd565b6200059183836200152f565b505050565b600082815260c96020526040902060010154620005b381620014fd565b6200059183836200157a565b6001600160a01b0381163314620006355760405162461bcd60e51b815260206004820152602f60248201527f416363657373436f6e74726f6c3a2063616e206f6e6c792072656e6f756e636560448201526e103937b632b9903337b91039b2b63360891b60648201526084015b60405180910390fd5b620005748282620015a0565b6200064b62000e8f565b6200066a5760405162461bcd60e51b81526004016200062c9062002692565b62000674620015c6565b565b600054610100900460ff1615808015620006975750600054600160ff909116105b80620006b35750303b158015620006b3575060005460ff166001145b620007185760405162461bcd60e51b815260206004820152602e60248201527f496e697469616c697a61626c653a20636f6e747261637420697320616c72656160448201526d191e481a5b9a5d1a585b1a5e995960921b60648201526084016200062c565b6000805460ff1916600117905580156200073c576000805461ff0019166101001790555b62000747336200161a565b62000752826200166d565b6200077c600080516020620039ac8339815191526000805160206200398c8339815191526200152f565b61019280546001600160a01b0319166001600160a01b038516179055801562000591576000805461ff0019169055604051600181527f7f26b83ff96e1f2b6a682f133852f6798a09c465da95921460cefb3847402498906020015b60405180910390a1505050565b620007ee62000e8f565b6200080d5760405162461bcd60e51b81526004016200062c9062002692565b62000674620016a2565b600082815260fb60205260408120620008319083620016e2565b9392505050565b600091825260c9602090815260408084206001600160a01b0393909316845291905290205460ff1690565b6200086d620016f0565b856001600160a01b0381166391d148546000805160206200398c833981519152336040516001600160e01b031960e085901b16815260048101929092526001600160a01b03166024820152604401602060405180830381865afa158015620008d9573d6000803e3d6000fd5b505050506040513d601f19601f82011682018060405250810190620008ff919062002705565b620009735760405162461bcd60e51b815260206004820152603860248201527f53656375726974697a6174696f6e4d616e616765723a204e6f7420746865206360448201527f6f6e74726f6c6c6572206f66207468652070726f6a656374000000000000000060648201526084016200062c565b610192546000906200098e906001600160a01b031662001738565b90506001600160a01b03811662000a0e5760405162461bcd60e51b815260206004820152603c60248201527f53656375726974697a6174696f6e4d616e616765723a204e6f746520546f6b6560448201527f6e20466163746f727920776173206e6f7420726567697374657265640000000060648201526084016200062c565b6000886001600160a01b0316630bc6bffc6040518163ffffffff1660e01b8152600401602060405180830381865afa15801562000a4f573d6000803e3d6000fd5b505050506040513d601f19601f8201168201806040525081019062000a75919062002723565b90506000826001600160a01b031663841370828b8b856001600160a01b031663313ce5676040518163ffffffff1660e01b8152600401602060405180830381865afa15801562000ac9573d6000803e3d6000fd5b505050506040513d601f19601f8201168201806040525081019062000aef919062002743565b8a8a6040518663ffffffff1660e01b815260040162000b139594939291906200277e565b6020604051808303816000875af115801562000b33573d6000803e3d6000fd5b505050506040513d601f19601f8201168201806040525081019062000b59919062002723565b90506001600160a01b03811662000bc85760405162461bcd60e51b815260206004820152602c60248201527f53656375726974697a6174696f6e4d616e616765723a20746f6b656e206d757360448201526b1d0818994818dc99585d195960a21b60648201526084016200062c565b600089600181111562000bdf5762000bdf62002768565b0362000d40576101925460009062000c00906001600160a01b031662001747565b60405163544bc3af60e11b81526001600160a01b038d811660048301528481166024830152604482018c90529192509082169063a897875e90606401600060405180830381600087803b15801562000c5757600080fd5b505af115801562000c6c573d6000803e3d6000fd5b5050604051635d40d49b60e11b815263ffffffff8b1660048201526001600160a01b038e16925063ba81a9369150602401600060405180830381600087803b15801562000cb857600080fd5b505af115801562000ccd573d6000803e3d6000fd5b505050507f79954864503d642d937c26a2ddfb1e2aeb958abc3f368d303924f6dafa40443e8b8360405162000d369291906001600160a01b039283168152911660208201526060604082018190526006908201526529a2a724a7a960d11b608082015260a00190565b60405180910390a1505b600189600181111562000d575762000d5762002768565b0362000e57576101925460009062000d78906001600160a01b031662001756565b60405163544bc3af60e11b81526001600160a01b038d811660048301528481166024830152604482018c90529192509082169063a897875e90606401600060405180830381600087803b15801562000dcf57600080fd5b505af115801562000de4573d6000803e3d6000fd5b505050507f79954864503d642d937c26a2ddfb1e2aeb958abc3f368d303924f6dafa40443e8b8360405162000e4d9291906001600160a01b0392831681529116602082015260606040820181905260069082015265252aa724a7a960d11b608082015260a00190565b60405180910390a1505b50505050505050505050565b610194818154811062000e7557600080fd5b6000918252602090912001546001600160a01b0316905081565b600062000eac6000805160206200398c8339815191523362000838565b8062000ec0575062000ec060003362000838565b905090565b600062000ed281620014fd565b62000ee16101c48484620022c4565b507f2567070ac9f6f65f8ca84dde489e75853a5bc36fb8044e0597a2f75eabee88308383604051620007d7929190620027f0565b600081815260fb60205260408120620005569062001765565b600082815260c9602052604090206001015462000f4b81620014fd565b620005918383620015a0565b62000f61620016f0565b336000908152610193602052604090205460ff1662000fda5760405162461bcd60e51b815260206004820152602e60248201527f53656375726974697a6174696f6e4d616e616765723a204f6e6c79205365637560448201526d1c9a5d1a5e985d1a5bdb941bdbdb60921b60648201526084016200062c565b6001600160a01b038181166000908152610195602052604090205416156200105e5760405162461bcd60e51b815260206004820152603060248201527f53656375726974697a6174696f6e4d616e616765723a20706f7420757365642060448201526f199bdc88185b9bdd1a195c881c1bdbdb60821b60648201526084016200062c565b6001600160a01b0381166000818152610195602052604080822080546001600160a01b0319163390811790915590519092917fc6dc08fde4be745ee1b3025914ee663853b06abf95b4a4d28ed10187d5d4841291a350565b6101c48181548110620010c857600080fd5b600091825260209091200154905081565b61019254600090620010f4906001600160a01b031662001770565b6001600160a01b0316631852f200836101c46040518363ffffffff1660e01b8152600401620011259291906200282a565b602060405180830381865afa15801562001143573d6000803e3d6000fd5b505050506040513d601f19601f8201168201806040525081019062000556919062002705565b600062001175620016f0565b600080516020620039ac8339815191526200119081620014fd565b61019254600090620011ab906001600160a01b03166200177f565b610192546040519192506000917fd1f578946981755ee8ffb900bf2e79846feedf4642746695df147d68656840a391620011f6916001600160a01b03909116908890602401620028db565b60408051601f198184030181529190526020810180516001600160e01b03166001600160e01b031990931692909217909152905060006200123983838a6200178e565b6001600160a01b0381811660008181526101936020526040808220805460ff19166001908117909155610194805491820181559092527fa6f1ac7ad7b125ba5a5e1c96b00ad6914f90a503b1ac3d85a9dadbb4c639df9290910180546001600160a01b0319168317905551632f2ff15d60e01b81526000805160206200398c8339815191526004820152918a166024830152919250829190632f2ff15d90604401600060405180830381600087803b158015620012f557600080fd5b505af11580156200130a573d6000803e3d6000fd5b50505050806001600160a01b0316632f2ff15d600080516020620039ac833981519152620013353390565b6040516001600160e01b031960e085901b16815260048101929092526001600160a01b03166024820152604401600060405180830381600087803b1580156200137d57600080fd5b505af115801562001392573d6000803e3d6000fd5b5050604051631b2b455f60e11b8152600060048201523060248201526001600160a01b03841692506336568abe9150604401600060405180830381600087803b158015620013df57600080fd5b505af1158015620013f4573d6000803e3d6000fd5b50506040516001600160a01b03851692507f84beea356a8ed330e56f7d55aad6858501748effc667b5536021b83e1ca6bbf59150600090a2816001600160a01b03167f7fd83852bce59a9bce52821bbea29f956dd69c890af66e7fc184ae29d38d27d689898060200190518101906200146e919062002901565b604080516001600160a01b03938416815282516020808301919091528301519093168382015281015163ffffffff1660608084019190915201511515608082015260a00160405180910390a250979650505050505050565b60006001600160e01b03198216637965db0b60e01b14806200055657506301ffc9a760e01b6001600160e01b031983161462000556565b6200150981336200189b565b50565b61015f80546001600160a01b0319166001600160a01b0392909216919091179055565b600082815260c96020526040808220600101805490849055905190918391839186917fbd79b86ffe0ab8e8776151514217cd7cacd52c909f66475c3af44e129f0b00ff9190a4505050565b620015868282620018ff565b600082815260fb6020526040902062000591908262001989565b620015ac8282620019a0565b600082815260fb6020526040902062000591908262001a0a565b620015d062001a21565b6033805460ff191690557f5db9ee0a495bf2e6ff9c91a7834c1ba4fdd244a5e8aa4e537bd38aeae4b073aa335b6040516001600160a01b03909116815260200160405180910390a1565b600054610100900460ff16620016445760405162461bcd60e51b81526004016200062c9062002985565b6200164e62001a6c565b6200165862001aa2565b6200166262001ad3565b620015098162001afd565b600054610100900460ff16620016975760405162461bcd60e51b81526004016200062c9062002985565b620015098162001bd7565b620016ac620016f0565b6033805460ff191660011790557f62e78cea01bee320cd4e420270b5ea74000d11b0c9f74754ebdbfc544b05a258620015fd3390565b600062000831838362001c01565b60335460ff1615620006745760405162461bcd60e51b815260206004820152601060248201526f14185d5cd8589b194e881c185d5cd95960821b60448201526064016200062c565b60006200055682600262001c2e565b60006200055682600362001c2e565b60006200055682600462001c2e565b600062000556825490565b60006200055682600a62001c2e565b60006200055682600162001c2e565b6000806200181860008460405180602001620017aa9062002314565b601f1982820381018352601f9091011660408181526001600160a01b038b16602083015230908201526060808201526000608082015260a00160408051601f1981840301815290829052620018039291602001620029d0565b60405160208183030381529060405262001cb9565b61015f546040516308f2839760e41b81526001600160a01b039182166004820152919250821690638f28397090602401600060405180830381600087803b1580156200186357600080fd5b505af115801562001878573d6000803e3d6000fd5b5062001892925050506001600160a01b0382168562001dc3565b50949350505050565b620018a7828262000838565b6200057457620018b78162001e09565b620018c483602062001e1c565b604051602001620018d792919062002a03565b60408051601f198184030181529082905262461bcd60e51b82526200062c9160040162002a7c565b6200190b828262000838565b6200057457600082815260c9602090815260408083206001600160a01b03851684529091529020805460ff19166001179055620019453390565b6001600160a01b0316816001600160a01b0316837f2f8788117e7eff1d82e926ec794901d17c78024a50270940304540a733656f0d60405160405180910390a45050565b600062000831836001600160a01b03841662001fd6565b620019ac828262000838565b156200057457600082815260c9602090815260408083206001600160a01b0385168085529252808320805460ff1916905551339285917ff6391f5c32d9c69d2a47ea670b442974b53935d1edc7fd64eb21e047a839171b9190a45050565b600062000831836001600160a01b03841662002028565b60335460ff16620006745760405162461bcd60e51b815260206004820152601460248201527314185d5cd8589b194e881b9bdd081c185d5cd95960621b60448201526064016200062c565b600054610100900460ff1662001a965760405162461bcd60e51b81526004016200062c9062002985565b6033805460ff19169055565b600054610100900460ff1662001acc5760405162461bcd60e51b81526004016200062c9062002985565b6001606555565b600054610100900460ff16620006745760405162461bcd60e51b81526004016200062c9062002985565b600054610100900460ff1662001b275760405162461bcd60e51b81526004016200062c9062002985565b6001600160a01b03811662001b395750335b62001b466000336200212c565b62001b616000805160206200398c833981519152826200212c565b62001b9c7f59abfac6520ec36a6556b2a4dd949cc40007459bcd5cd2507f1e5cc77b6bc97e6000805160206200398c8339815191526200152f565b620015097f21702c8af46127c7fa207f89d0b0a8441bb32959a0ac7df790e9ab1a25c98926600080516020620039ac8339815191526200152f565b600054610100900460ff166200150c5760405162461bcd60e51b81526004016200062c9062002985565b600082600001828154811062001c1b5762001c1b62002a91565b9060005260206000200154905092915050565b6000826001600160a01b031663bcaa0c5583600a81111562001c545762001c5462002768565b6040516001600160e01b031960e084901b16815260ff9091166004820152602401602060405180830381865afa15801562001c93573d6000803e3d6000fd5b505050506040513d601f19601f8201168201806040525081019062000831919062002723565b60008347101562001d0d5760405162461bcd60e51b815260206004820152601d60248201527f437265617465323a20696e73756666696369656e742062616c616e636500000060448201526064016200062c565b815160000362001d605760405162461bcd60e51b815260206004820181905260248201527f437265617465323a2062797465636f6465206c656e677468206973207a65726f60448201526064016200062c565b8282516020840186f590506001600160a01b038116620008315760405162461bcd60e51b815260206004820152601960248201527f437265617465323a204661696c6564206f6e206465706c6f790000000000000060448201526064016200062c565b606062000831838360006040518060400160405280601e81526020017f416464726573733a206c6f772d6c6576656c2063616c6c206661696c6564000081525062002138565b6060620005566001600160a01b03831660145b6060600062001e2d83600262002abd565b62001e3a90600262002ad7565b67ffffffffffffffff81111562001e555762001e556200258c565b6040519080825280601f01601f19166020018201604052801562001e80576020820181803683370190505b509050600360fc1b8160008151811062001e9e5762001e9e62002a91565b60200101906001600160f81b031916908160001a905350600f60fb1b8160018151811062001ed05762001ed062002a91565b60200101906001600160f81b031916908160001a905350600062001ef684600262002abd565b62001f0390600162002ad7565b90505b600181111562001f85576f181899199a1a9b1b9c1cb0b131b232b360811b85600f166010811062001f3b5762001f3b62002a91565b1a60f81b82828151811062001f545762001f5462002a91565b60200101906001600160f81b031916908160001a90535060049490941c9362001f7d8162002aed565b905062001f06565b508315620008315760405162461bcd60e51b815260206004820181905260248201527f537472696e67733a20686578206c656e67746820696e73756666696369656e7460448201526064016200062c565b60008181526001830160205260408120546200201f5750815460018181018455600084815260208082209093018490558454848252828601909352604090209190915562000556565b50600062000556565b60008181526001830160205260408120548015620021215760006200204f60018362002b07565b8554909150600090620020659060019062002b07565b9050818114620020d157600086600001828154811062002089576200208962002a91565b9060005260206000200154905080876000018481548110620020af57620020af62002a91565b6000918252602080832090910192909255918252600188019052604090208390555b8554869080620020e557620020e562002b1d565b60019003818190600052602060002001600090559055856001016000868152602001908152602001600020600090556001935050505062000556565b600091505062000556565b6200057482826200157a565b6060824710156200219b5760405162461bcd60e51b815260206004820152602660248201527f416464726573733a20696e73756666696369656e742062616c616e636520666f6044820152651c8818d85b1b60d21b60648201526084016200062c565b600080866001600160a01b03168587604051620021b9919062002b33565b60006040518083038185875af1925050503d8060008114620021f8576040519150601f19603f3d011682016040523d82523d6000602084013e620021fd565b606091505b509150915062002210878383876200221d565b925050505b949350505050565b606083156200229157825160000362002289576001600160a01b0385163b620022895760405162461bcd60e51b815260206004820152601d60248201527f416464726573733a2063616c6c20746f206e6f6e2d636f6e747261637400000060448201526064016200062c565b508162002215565b620022158383815115620022a85781518083602001fd5b8060405162461bcd60e51b81526004016200062c919062002a7c565b82805482825590600052602060002090810192821562002302579160200282015b8281111562002302578235825591602001919060010190620022e5565b506200231092915062002322565b5090565b610e3a8062002b5283390190565b5b8082111562002310576000815560010162002323565b6000602082840312156200234c57600080fd5b81356001600160e01b0319811681146200083157600080fd5b6001600160a01b03811681146200150957600080fd5b6000602082840312156200238e57600080fd5b8135620008318162002365565b60008060408385031215620023af57600080fd5b50508035926020909101359150565b600060208284031215620023d157600080fd5b5035919050565b60008060408385031215620023ec57600080fd5b823591506020830135620024008162002365565b809150509250929050565b600080604083850312156200241f57600080fd5b82356200242c8162002365565b91506020830135620024008162002365565b63ffffffff811681146200150957600080fd5b60008060008060008060a087890312156200246b57600080fd5b8635620024788162002365565b95506020870135600281106200248d57600080fd5b9450604087013593506060870135620024a6816200243e565b9250608087013567ffffffffffffffff80821115620024c457600080fd5b818901915089601f830112620024d957600080fd5b813581811115620024e957600080fd5b8a6020828501011115620024fc57600080fd5b6020830194508093505050509295509295509295565b600080602083850312156200252657600080fd5b823567ffffffffffffffff808211156200253f57600080fd5b818501915085601f8301126200255457600080fd5b8135818111156200256457600080fd5b8660208260051b85010111156200257a57600080fd5b60209290920196919550909350505050565b634e487b7160e01b600052604160045260246000fd5b604051601f8201601f1916810167ffffffffffffffff81118282101715620025ce57620025ce6200258c565b604052919050565b600080600060608486031215620025ec57600080fd5b83359250602080850135620026018162002365565b9250604085013567ffffffffffffffff808211156200261f57600080fd5b818701915087601f8301126200263457600080fd5b8135818111156200264957620026496200258c565b6200265d601f8201601f19168501620025a2565b915080825288848285010111156200267457600080fd5b80848401858401376000848284010152508093505050509250925092565b6020808252603a908201527f556e74616e676c6564426173653a204d75737420686176652061646d696e207260408201527f6f6c6520746f20706572666f726d207468697320616374696f6e000000000000606082015260800190565b805180151581146200270057600080fd5b919050565b6000602082840312156200271857600080fd5b6200083182620026ef565b6000602082840312156200273657600080fd5b8151620008318162002365565b6000602082840312156200275657600080fd5b815160ff811681146200083157600080fd5b634e487b7160e01b600052602160045260246000fd5b6001600160a01b0386168152600060028610620027ab57634e487b7160e01b600052602160045260246000fd5b85602083015260ff8516604083015260806060830152826080830152828460a0840137600060a0848401015260a0601f19601f85011683010190509695505050505050565b6020808252810182905260006001600160fb1b038311156200281157600080fd5b8260051b80856040850137919091016040019392505050565b6001600160a01b0383168152604060208083018290528354918301829052600084815281812090929091906060850190845b818110156200287a578454835260019485019492840192016200285c565b5090979650505050505050565b60005b83811015620028a45781810151838201526020016200288a565b50506000910152565b60008151808452620028c781602086016020860162002887565b601f01601f19169290920160200192915050565b6001600160a01b03831681526040602082018190526000906200221590830184620028ad565b6000608082840312156200291457600080fd5b6040516080810181811067ffffffffffffffff821117156200293a576200293a6200258c565b604052825181526020830151620029518162002365565b6020820152604083015162002966816200243e565b60408201526200297960608401620026ef565b60608201529392505050565b6020808252602b908201527f496e697469616c697a61626c653a20636f6e7472616374206973206e6f74206960408201526a6e697469616c697a696e6760a81b606082015260800190565b60008351620029e481846020880162002887565b835190830190620029fa81836020880162002887565b01949350505050565b7f416363657373436f6e74726f6c3a206163636f756e742000000000000000000081526000835162002a3d81601785016020880162002887565b7001034b99036b4b9b9b4b733903937b6329607d1b601791840191820152835162002a7081602884016020880162002887565b01602801949350505050565b602081526000620008316020830184620028ad565b634e487b7160e01b600052603260045260246000fd5b634e487b7160e01b600052601160045260246000fd5b808202811582820484141762000556576200055662002aa7565b8082018082111562000556576200055662002aa7565b60008162002aff5762002aff62002aa7565b506000190190565b8181038181111562000556576200055662002aa7565b634e487b7160e01b600052603160045260246000fd5b6000825162002b4781846020870162002887565b919091019291505056fe608060405260405162000e3a38038062000e3a833981016040819052620000269162000424565b828162000036828260006200004d565b50620000449050826200007f565b50505062000557565b6200005883620000f1565b600082511180620000665750805b156200007a5762000078838362000133565b505b505050565b7f7e644d79422f17c01e4894b5f4f588d331ebfa28653d42ae832dc59e38c9798f620000c160008051602062000df3833981519152546001600160a01b031690565b604080516001600160a01b03928316815291841660208301520160405180910390a1620000ee8162000162565b50565b620000fc8162000200565b6040516001600160a01b038216907fbc7cd75a20ee27fd9adebab32041f755214dbc6bffa90cc0225b39da2e5c2d3b90600090a250565b60606200015b838360405180606001604052806027815260200162000e136027913962000297565b9392505050565b6001600160a01b038116620001cd5760405162461bcd60e51b815260206004820152602660248201527f455243313936373a206e65772061646d696e20697320746865207a65726f206160448201526564647265737360d01b60648201526084015b60405180910390fd5b8060008051602062000df38339815191525b80546001600160a01b0319166001600160a01b039290921691909117905550565b6001600160a01b0381163b6200026f5760405162461bcd60e51b815260206004820152602d60248201527f455243313936373a206e657720696d706c656d656e746174696f6e206973206e60448201526c1bdd08184818dbdb9d1c9858dd609a1b6064820152608401620001c4565b807f360894a13ba1a3210667c828492db98dca3e2076cc3735a920a3ca505d382bbc620001df565b6060600080856001600160a01b031685604051620002b6919062000504565b600060405180830381855af49150503d8060008114620002f3576040519150601f19603f3d011682016040523d82523d6000602084013e620002f8565b606091505b5090925090506200030c8683838762000316565b9695505050505050565b606083156200038a57825160000362000382576001600160a01b0385163b620003825760405162461bcd60e51b815260206004820152601d60248201527f416464726573733a2063616c6c20746f206e6f6e2d636f6e74726163740000006044820152606401620001c4565b508162000396565b6200039683836200039e565b949350505050565b815115620003af5781518083602001fd5b8060405162461bcd60e51b8152600401620001c4919062000522565b80516001600160a01b0381168114620003e357600080fd5b919050565b634e487b7160e01b600052604160045260246000fd5b60005b838110156200041b57818101518382015260200162000401565b50506000910152565b6000806000606084860312156200043a57600080fd5b6200044584620003cb565b92506200045560208501620003cb565b60408501519092506001600160401b03808211156200047357600080fd5b818601915086601f8301126200048857600080fd5b8151818111156200049d576200049d620003e8565b604051601f8201601f19908116603f01168101908382118183101715620004c857620004c8620003e8565b81604052828152896020848701011115620004e257600080fd5b620004f5836020830160208801620003fe565b80955050505050509250925092565b6000825162000518818460208701620003fe565b9190910192915050565b602081526000825180602084015262000543816040850160208701620003fe565b601f01601f19169190910160400192915050565b61088c80620005676000396000f3fe60806040523661001357610011610017565b005b6100115b61001f610169565b6001600160a01b0316330361015f5760606001600160e01b0319600035166364d3180d60e11b810161005a5761005361019c565b9150610157565b63587086bd60e11b6001600160e01b031982160161007a576100536101f3565b63070d7c6960e41b6001600160e01b031982160161009a57610053610239565b621eb96f60e61b6001600160e01b03198216016100b95761005361026a565b63a39f25e560e01b6001600160e01b03198216016100d9576100536102aa565b60405162461bcd60e51b815260206004820152604260248201527f5472616e73706172656e745570677261646561626c6550726f78793a2061646d60448201527f696e2063616e6e6f742066616c6c6261636b20746f2070726f78792074617267606482015261195d60f21b608482015260a4015b60405180910390fd5b815160208301f35b6101676102be565b565b60007fb53127684a568b3173ae13b9f8a6016e243e63b6e8ee1178d6a717850b5d61035b546001600160a01b0316919050565b60606101a66102ce565b60006101b53660048184610683565b8101906101c291906106c9565b90506101df816040518060200160405280600081525060006102d9565b505060408051602081019091526000815290565b60606000806102053660048184610683565b81019061021291906106fa565b91509150610222828260016102d9565b604051806020016040528060008152509250505090565b60606102436102ce565b60006102523660048184610683565b81019061025f91906106c9565b90506101df81610305565b60606102746102ce565b600061027e610169565b604080516001600160a01b03831660208201529192500160405160208183030381529060405291505090565b60606102b46102ce565b600061027e61035c565b6101676102c961035c565b61036b565b341561016757600080fd5b6102e28361038f565b6000825111806102ef5750805b15610300576102fe83836103cf565b505b505050565b7f7e644d79422f17c01e4894b5f4f588d331ebfa28653d42ae832dc59e38c9798f61032e610169565b604080516001600160a01b03928316815291841660208301520160405180910390a1610359816103fb565b50565b60006103666104a4565b905090565b3660008037600080366000845af43d6000803e80801561038a573d6000f35b3d6000fd5b610398816104cc565b6040516001600160a01b038216907fbc7cd75a20ee27fd9adebab32041f755214dbc6bffa90cc0225b39da2e5c2d3b90600090a250565b60606103f4838360405180606001604052806027815260200161083060279139610560565b9392505050565b6001600160a01b0381166104605760405162461bcd60e51b815260206004820152602660248201527f455243313936373a206e65772061646d696e20697320746865207a65726f206160448201526564647265737360d01b606482015260840161014e565b807fb53127684a568b3173ae13b9f8a6016e243e63b6e8ee1178d6a717850b5d61035b80546001600160a01b0319166001600160a01b039290921691909117905550565b60007f360894a13ba1a3210667c828492db98dca3e2076cc3735a920a3ca505d382bbc61018d565b6001600160a01b0381163b6105395760405162461bcd60e51b815260206004820152602d60248201527f455243313936373a206e657720696d706c656d656e746174696f6e206973206e60448201526c1bdd08184818dbdb9d1c9858dd609a1b606482015260840161014e565b807f360894a13ba1a3210667c828492db98dca3e2076cc3735a920a3ca505d382bbc610483565b6060600080856001600160a01b03168560405161057d91906107e0565b600060405180830381855af49150503d80600081146105b8576040519150601f19603f3d011682016040523d82523d6000602084013e6105bd565b606091505b50915091506105ce868383876105d8565b9695505050505050565b60608315610647578251600003610640576001600160a01b0385163b6106405760405162461bcd60e51b815260206004820152601d60248201527f416464726573733a2063616c6c20746f206e6f6e2d636f6e7472616374000000604482015260640161014e565b5081610651565b6106518383610659565b949350505050565b8151156106695781518083602001fd5b8060405162461bcd60e51b815260040161014e91906107fc565b6000808585111561069357600080fd5b838611156106a057600080fd5b5050820193919092039150565b80356001600160a01b03811681146106c457600080fd5b919050565b6000602082840312156106db57600080fd5b6103f4826106ad565b634e487b7160e01b600052604160045260246000fd5b6000806040838503121561070d57600080fd5b610716836106ad565b9150602083013567ffffffffffffffff8082111561073357600080fd5b818501915085601f83011261074757600080fd5b813581811115610759576107596106e4565b604051601f8201601f19908116603f01168101908382118183101715610781576107816106e4565b8160405282815288602084870101111561079a57600080fd5b8260208601602083013760006020848301015280955050505050509250929050565b60005b838110156107d75781810151838201526020016107bf565b50506000910152565b600082516107f28184602087016107bc565b9190910192915050565b602081526000825180602084015261081b8160408501602087016107bc565b601f01601f1916919091016040019291505056fe416464726573733a206c6f772d6c6576656c2064656c65676174652063616c6c206661696c6564a26469706673582212203ee2f73ab410cffabdfe09f9ebcfce29461addacfddf586afaf2ba05c7d1b40864736f6c63430008130033b53127684a568b3173ae13b9f8a6016e243e63b6e8ee1178d6a717850b5d6103416464726573733a206c6f772d6c6576656c2064656c65676174652063616c6c206661696c6564b19546dff01e856fb3f010c267a7b1c60363cf8a4664e21cc89c26224620214e3e9c05fb0f9da4414e033bb9bf190a6e2072adf7e3077394fce683220513b8d7a26469706673582212203de59e61cf76944a226b9eaddeabddd04678cba0cbd8e7b974424b65838d6ec764736f6c63430008130033",
  "devdoc": {
    "author": "Untangled Team",
    "events": {
      "Initialized(uint8)": {
        "details": "Triggered when the contract has been initialized or reinitialized."
      },
      "Paused(address)": {
        "details": "Emitted when the pause is triggered by `account`."
      },
      "RoleAdminChanged(bytes32,bytes32,bytes32)": {
        "details": "Emitted when `newAdminRole` is set as ``role``'s admin role, replacing `previousAdminRole` `DEFAULT_ADMIN_ROLE` is the starting admin for all roles, despite {RoleAdminChanged} not being emitted signaling this. _Available since v3.1._"
      },
      "RoleGranted(bytes32,address,address)": {
        "details": "Emitted when `account` is granted `role`. `sender` is the account that originated the contract call, an admin role bearer except when using {AccessControl-_setupRole}."
      },
      "RoleRevoked(bytes32,address,address)": {
        "details": "Emitted when `account` is revoked `role`. `sender` is the account that originated the contract call:   - if using `revokeRole`, it is the admin role bearer   - if using `renounceRole`, it is the role bearer (i.e. `account`)"
      },
      "Unpaused(address)": {
        "details": "Emitted when the pause is lifted by `account`."
      }
    },
    "kind": "dev",
    "methods": {
      "getRoleAdmin(bytes32)": {
        "details": "Returns the admin role that controls `role`. See {grantRole} and {revokeRole}. To change a role's admin, use {_setRoleAdmin}."
      },
      "getRoleMember(bytes32,uint256)": {
        "details": "Returns one of the accounts that have `role`. `index` must be a value between 0 and {getRoleMemberCount}, non-inclusive. Role bearers are not sorted in any particular way, and their ordering may change at any point. WARNING: When using {getRoleMember} and {getRoleMemberCount}, make sure you perform all queries on the same block. See the following https://forum.openzeppelin.com/t/iterating-over-elements-on-enumerableset-in-openzeppelin-contracts/2296[forum post] for more information."
      },
      "getRoleMemberCount(bytes32)": {
        "details": "Returns the number of accounts that have `role`. Can be used together with {getRoleMember} to enumerate all bearers of a role."
      },
      "grantRole(bytes32,address)": {
        "details": "Grants `role` to `account`. If `account` had not been already granted `role`, emits a {RoleGranted} event. Requirements: - the caller must have ``role``'s admin role. May emit a {RoleGranted} event."
      },
      "hasRole(bytes32,address)": {
        "details": "Returns `true` if `account` has been granted `role`."
      },
      "newPoolInstance(bytes32,address,bytes)": {
        "details": "Creates a new instance of a securitization pool. Set msg sender as owner of the new pool",
        "params": {
          "params": "params data of the securitization pool"
        }
      },
      "paused()": {
        "details": "Returns true if the contract is paused, and false otherwise."
      },
      "registerPot(address)": {
        "details": "Register pot to pool instance",
        "params": {
          "pot": "Pool linked wallet"
        }
      },
      "renounceRole(bytes32,address)": {
        "details": "Revokes `role` from the calling account. Roles are often managed via {grantRole} and {revokeRole}: this function's purpose is to provide a mechanism for accounts to lose their privileges if they are compromised (such as when a trusted device is misplaced). If the calling account had been revoked `role`, emits a {RoleRevoked} event. Requirements: - the caller must be `account`. May emit a {RoleRevoked} event."
      },
      "revokeRole(bytes32,address)": {
        "details": "Revokes `role` from `account`. If `account` had been granted `role`, emits a {RoleRevoked} event. Requirements: - the caller must have ``role``'s admin role. May emit a {RoleRevoked} event."
      },
      "supportsInterface(bytes4)": {
        "details": "See {IERC165-supportsInterface}."
      }
    },
    "title": "SecuritizationManager",
    "version": 1
  },
  "userdoc": {
    "kind": "user",
    "methods": {
      "hasAllowedUID(address)": {
        "notice": "Check if an user has valid UID type"
      },
      "newPoolInstance(bytes32,address,bytes)": {
        "notice": "Creates a new securitization pool"
      }
    },
    "notice": "You can use this contract for creating new pool, setting up note toke sale, buying note token",
    "version": 1
  },
  "storageLayout": {
    "storage": [
      {
        "astId": 759,
        "contract": "contracts/protocol/pool/SecuritizationManager.sol:SecuritizationManager",
        "label": "_initialized",
        "offset": 0,
        "slot": "0",
        "type": "t_uint8"
      },
      {
        "astId": 762,
        "contract": "contracts/protocol/pool/SecuritizationManager.sol:SecuritizationManager",
        "label": "_initializing",
        "offset": 1,
        "slot": "0",
        "type": "t_bool"
      },
      {
        "astId": 4947,
        "contract": "contracts/protocol/pool/SecuritizationManager.sol:SecuritizationManager",
        "label": "__gap",
        "offset": 0,
        "slot": "1",
        "type": "t_array(t_uint256)50_storage"
      },
      {
        "astId": 942,
        "contract": "contracts/protocol/pool/SecuritizationManager.sol:SecuritizationManager",
        "label": "_paused",
        "offset": 0,
        "slot": "51",
        "type": "t_bool"
      },
      {
        "astId": 1047,
        "contract": "contracts/protocol/pool/SecuritizationManager.sol:SecuritizationManager",
        "label": "__gap",
        "offset": 0,
        "slot": "52",
        "type": "t_array(t_uint256)49_storage"
      },
      {
        "astId": 1062,
        "contract": "contracts/protocol/pool/SecuritizationManager.sol:SecuritizationManager",
        "label": "_status",
        "offset": 0,
        "slot": "101",
        "type": "t_uint256"
      },
      {
        "astId": 1131,
        "contract": "contracts/protocol/pool/SecuritizationManager.sol:SecuritizationManager",
        "label": "__gap",
        "offset": 0,
        "slot": "102",
        "type": "t_array(t_uint256)49_storage"
      },
      {
        "astId": 6237,
        "contract": "contracts/protocol/pool/SecuritizationManager.sol:SecuritizationManager",
        "label": "__gap",
        "offset": 0,
        "slot": "151",
        "type": "t_array(t_uint256)50_storage"
      },
      {
        "astId": 184,
        "contract": "contracts/protocol/pool/SecuritizationManager.sol:SecuritizationManager",
        "label": "_roles",
        "offset": 0,
        "slot": "201",
        "type": "t_mapping(t_bytes32,t_struct(RoleData)179_storage)"
      },
      {
        "astId": 479,
        "contract": "contracts/protocol/pool/SecuritizationManager.sol:SecuritizationManager",
        "label": "__gap",
        "offset": 0,
        "slot": "202",
        "type": "t_array(t_uint256)49_storage"
      },
      {
        "astId": 33,
        "contract": "contracts/protocol/pool/SecuritizationManager.sol:SecuritizationManager",
        "label": "_roleMembers",
        "offset": 0,
        "slot": "251",
        "type": "t_mapping(t_bytes32,t_struct(AddressSet)7547_storage)"
      },
      {
        "astId": 143,
        "contract": "contracts/protocol/pool/SecuritizationManager.sol:SecuritizationManager",
        "label": "__gap",
        "offset": 0,
        "slot": "252",
        "type": "t_array(t_uint256)49_storage"
      },
      {
        "astId": 11391,
        "contract": "contracts/protocol/pool/SecuritizationManager.sol:SecuritizationManager",
        "label": "__gap",
        "offset": 0,
        "slot": "301",
        "type": "t_array(t_uint256)50_storage"
      },
      {
        "astId": 11135,
        "contract": "contracts/protocol/pool/SecuritizationManager.sol:SecuritizationManager",
        "label": "factoryAdmin",
        "offset": 0,
        "slot": "351",
        "type": "t_address"
      },
      {
        "astId": 11231,
        "contract": "contracts/protocol/pool/SecuritizationManager.sol:SecuritizationManager",
        "label": "__gap",
        "offset": 0,
        "slot": "352",
        "type": "t_array(t_uint256)50_storage"
      },
      {
        "astId": 27844,
        "contract": "contracts/protocol/pool/SecuritizationManager.sol:SecuritizationManager",
        "label": "registry",
        "offset": 0,
        "slot": "402",
        "type": "t_contract(Registry)29773"
      },
      {
        "astId": 27849,
        "contract": "contracts/protocol/pool/SecuritizationManager.sol:SecuritizationManager",
        "label": "isExistingPools",
        "offset": 0,
        "slot": "403",
        "type": "t_mapping(t_address,t_bool)"
      },
      {
        "astId": 27853,
        "contract": "contracts/protocol/pool/SecuritizationManager.sol:SecuritizationManager",
        "label": "pools",
        "offset": 0,
        "slot": "404",
        "type": "t_array(t_address)dyn_storage"
      },
      {
        "astId": 27858,
        "contract": "contracts/protocol/pool/SecuritizationManager.sol:SecuritizationManager",
        "label": "potToPool",
        "offset": 0,
        "slot": "405",
        "type": "t_mapping(t_address,t_address)"
      },
      {
        "astId": 27863,
        "contract": "contracts/protocol/pool/SecuritizationManager.sol:SecuritizationManager",
        "label": "isExistingTGEs",
        "offset": 0,
        "slot": "406",
        "type": "t_mapping(t_address,t_bool)"
      },
      {
        "astId": 27867,
        "contract": "contracts/protocol/pool/SecuritizationManager.sol:SecuritizationManager",
        "label": "__gap",
        "offset": 0,
        "slot": "407",
        "type": "t_array(t_uint256)45_storage"
      },
      {
        "astId": 27900,
        "contract": "contracts/protocol/pool/SecuritizationManager.sol:SecuritizationManager",
        "label": "allowedUIDTypes",
        "offset": 0,
        "slot": "452",
        "type": "t_array(t_uint256)dyn_storage"
      }
    ],
    "types": {
      "t_address": {
        "encoding": "inplace",
        "label": "address",
        "numberOfBytes": "20"
      },
      "t_array(t_address)dyn_storage": {
        "base": "t_address",
        "encoding": "dynamic_array",
        "label": "address[]",
        "numberOfBytes": "32"
      },
      "t_array(t_bytes32)dyn_storage": {
        "base": "t_bytes32",
        "encoding": "dynamic_array",
        "label": "bytes32[]",
        "numberOfBytes": "32"
      },
      "t_array(t_uint256)45_storage": {
        "base": "t_uint256",
        "encoding": "inplace",
        "label": "uint256[45]",
        "numberOfBytes": "1440"
      },
      "t_array(t_uint256)49_storage": {
        "base": "t_uint256",
        "encoding": "inplace",
        "label": "uint256[49]",
        "numberOfBytes": "1568"
      },
      "t_array(t_uint256)50_storage": {
        "base": "t_uint256",
        "encoding": "inplace",
        "label": "uint256[50]",
        "numberOfBytes": "1600"
      },
      "t_array(t_uint256)dyn_storage": {
        "base": "t_uint256",
        "encoding": "dynamic_array",
        "label": "uint256[]",
        "numberOfBytes": "32"
      },
      "t_bool": {
        "encoding": "inplace",
        "label": "bool",
        "numberOfBytes": "1"
      },
      "t_bytes32": {
        "encoding": "inplace",
        "label": "bytes32",
        "numberOfBytes": "32"
      },
      "t_contract(Registry)29773": {
        "encoding": "inplace",
        "label": "contract Registry",
        "numberOfBytes": "20"
      },
      "t_mapping(t_address,t_address)": {
        "encoding": "mapping",
        "key": "t_address",
        "label": "mapping(address => address)",
        "numberOfBytes": "32",
        "value": "t_address"
      },
      "t_mapping(t_address,t_bool)": {
        "encoding": "mapping",
        "key": "t_address",
        "label": "mapping(address => bool)",
        "numberOfBytes": "32",
        "value": "t_bool"
      },
      "t_mapping(t_bytes32,t_struct(AddressSet)7547_storage)": {
        "encoding": "mapping",
        "key": "t_bytes32",
        "label": "mapping(bytes32 => struct EnumerableSetUpgradeable.AddressSet)",
        "numberOfBytes": "32",
        "value": "t_struct(AddressSet)7547_storage"
      },
      "t_mapping(t_bytes32,t_struct(RoleData)179_storage)": {
        "encoding": "mapping",
        "key": "t_bytes32",
        "label": "mapping(bytes32 => struct AccessControlUpgradeable.RoleData)",
        "numberOfBytes": "32",
        "value": "t_struct(RoleData)179_storage"
      },
      "t_mapping(t_bytes32,t_uint256)": {
        "encoding": "mapping",
        "key": "t_bytes32",
        "label": "mapping(bytes32 => uint256)",
        "numberOfBytes": "32",
        "value": "t_uint256"
      },
      "t_struct(AddressSet)7547_storage": {
        "encoding": "inplace",
        "label": "struct EnumerableSetUpgradeable.AddressSet",
        "members": [
          {
            "astId": 7546,
            "contract": "contracts/protocol/pool/SecuritizationManager.sol:SecuritizationManager",
            "label": "_inner",
            "offset": 0,
            "slot": "0",
            "type": "t_struct(Set)7232_storage"
          }
        ],
        "numberOfBytes": "64"
      },
      "t_struct(RoleData)179_storage": {
        "encoding": "inplace",
        "label": "struct AccessControlUpgradeable.RoleData",
        "members": [
          {
            "astId": 176,
            "contract": "contracts/protocol/pool/SecuritizationManager.sol:SecuritizationManager",
            "label": "members",
            "offset": 0,
            "slot": "0",
            "type": "t_mapping(t_address,t_bool)"
          },
          {
            "astId": 178,
            "contract": "contracts/protocol/pool/SecuritizationManager.sol:SecuritizationManager",
            "label": "adminRole",
            "offset": 0,
            "slot": "1",
            "type": "t_bytes32"
          }
        ],
        "numberOfBytes": "64"
      },
      "t_struct(Set)7232_storage": {
        "encoding": "inplace",
        "label": "struct EnumerableSetUpgradeable.Set",
        "members": [
          {
            "astId": 7227,
            "contract": "contracts/protocol/pool/SecuritizationManager.sol:SecuritizationManager",
            "label": "_values",
            "offset": 0,
            "slot": "0",
            "type": "t_array(t_bytes32)dyn_storage"
          },
          {
            "astId": 7231,
            "contract": "contracts/protocol/pool/SecuritizationManager.sol:SecuritizationManager",
            "label": "_indexes",
            "offset": 0,
            "slot": "1",
            "type": "t_mapping(t_bytes32,t_uint256)"
          }
        ],
        "numberOfBytes": "64"
      },
      "t_uint256": {
        "encoding": "inplace",
        "label": "uint256",
        "numberOfBytes": "32"
      },
      "t_uint8": {
        "encoding": "inplace",
        "label": "uint8",
        "numberOfBytes": "1"
      }
    }
  }
}