{
  "address": "0x63D66BD25e0025C2FE0cf214b24272Bf10595942",
  "abi": [
    {
      "anonymous": false,
      "inputs": [
        {
          "indexed": true,
          "internalType": "address",
          "name": "account",
          "type": "address"
        },
        {
          "indexed": true,
          "internalType": "address",
          "name": "operator",
          "type": "address"
        },
        {
          "indexed": false,
          "internalType": "bool",
          "name": "approved",
          "type": "bool"
        }
      ],
      "name": "ApprovalForAll",
      "type": "event"
    },
    {
      "anonymous": false,
      "inputs": [
        {
          "indexed": false,
          "internalType": "uint8",
          "name": "version",
          "type": "uint8"
        }
      ],
      "name": "Initialized",
      "type": "event"
    },
    {
      "anonymous": false,
      "inputs": [
        {
          "indexed": false,
          "internalType": "address",
          "name": "account",
          "type": "address"
        }
      ],
      "name": "Paused",
      "type": "event"
    },
    {
      "anonymous": false,
      "inputs": [
        {
          "indexed": true,
          "internalType": "bytes32",
          "name": "role",
          "type": "bytes32"
        },
        {
          "indexed": true,
          "internalType": "bytes32",
          "name": "previousAdminRole",
          "type": "bytes32"
        },
        {
          "indexed": true,
          "internalType": "bytes32",
          "name": "newAdminRole",
          "type": "bytes32"
        }
      ],
      "name": "RoleAdminChanged",
      "type": "event"
    },
    {
      "anonymous": false,
      "inputs": [
        {
          "indexed": true,
          "internalType": "bytes32",
          "name": "role",
          "type": "bytes32"
        },
        {
          "indexed": true,
          "internalType": "address",
          "name": "account",
          "type": "address"
        },
        {
          "indexed": true,
          "internalType": "address",
          "name": "sender",
          "type": "address"
        }
      ],
      "name": "RoleGranted",
      "type": "event"
    },
    {
      "anonymous": false,
      "inputs": [
        {
          "indexed": true,
          "internalType": "bytes32",
          "name": "role",
          "type": "bytes32"
        },
        {
          "indexed": true,
          "internalType": "address",
          "name": "account",
          "type": "address"
        },
        {
          "indexed": true,
          "internalType": "address",
          "name": "sender",
          "type": "address"
        }
      ],
      "name": "RoleRevoked",
      "type": "event"
    },
    {
      "anonymous": false,
      "inputs": [
        {
          "indexed": true,
          "internalType": "address",
          "name": "operator",
          "type": "address"
        },
        {
          "indexed": true,
          "internalType": "address",
          "name": "from",
          "type": "address"
        },
        {
          "indexed": true,
          "internalType": "address",
          "name": "to",
          "type": "address"
        },
        {
          "indexed": false,
          "internalType": "uint256[]",
          "name": "ids",
          "type": "uint256[]"
        },
        {
          "indexed": false,
          "internalType": "uint256[]",
          "name": "values",
          "type": "uint256[]"
        }
      ],
      "name": "TransferBatch",
      "type": "event"
    },
    {
      "anonymous": false,
      "inputs": [
        {
          "indexed": true,
          "internalType": "address",
          "name": "operator",
          "type": "address"
        },
        {
          "indexed": true,
          "internalType": "address",
          "name": "from",
          "type": "address"
        },
        {
          "indexed": true,
          "internalType": "address",
          "name": "to",
          "type": "address"
        },
        {
          "indexed": false,
          "internalType": "uint256",
          "name": "id",
          "type": "uint256"
        },
        {
          "indexed": false,
          "internalType": "uint256",
          "name": "value",
          "type": "uint256"
        }
      ],
      "name": "TransferSingle",
      "type": "event"
    },
    {
      "anonymous": false,
      "inputs": [
        {
          "indexed": false,
          "internalType": "string",
          "name": "value",
          "type": "string"
        },
        {
          "indexed": true,
          "internalType": "uint256",
          "name": "id",
          "type": "uint256"
        }
      ],
      "name": "URI",
      "type": "event"
    },
    {
      "anonymous": false,
      "inputs": [
        {
          "indexed": false,
          "internalType": "address",
          "name": "account",
          "type": "address"
        }
      ],
      "name": "Unpaused",
      "type": "event"
    },
    {
      "inputs": [],
      "name": "DEFAULT_ADMIN_ROLE",
      "outputs": [
        {
          "internalType": "bytes32",
          "name": "",
          "type": "bytes32"
        }
      ],
      "stateMutability": "view",
      "type": "function"
    },
    {
      "inputs": [],
      "name": "ID_TYPE_0",
      "outputs": [
        {
          "internalType": "uint256",
          "name": "",
          "type": "uint256"
        }
      ],
      "stateMutability": "view",
      "type": "function"
    },
    {
      "inputs": [],
      "name": "ID_TYPE_1",
      "outputs": [
        {
          "internalType": "uint256",
          "name": "",
          "type": "uint256"
        }
      ],
      "stateMutability": "view",
      "type": "function"
    },
    {
      "inputs": [],
      "name": "ID_TYPE_10",
      "outputs": [
        {
          "internalType": "uint256",
          "name": "",
          "type": "uint256"
        }
      ],
      "stateMutability": "view",
      "type": "function"
    },
    {
      "inputs": [],
      "name": "ID_TYPE_2",
      "outputs": [
        {
          "internalType": "uint256",
          "name": "",
          "type": "uint256"
        }
      ],
      "stateMutability": "view",
      "type": "function"
    },
    {
      "inputs": [],
      "name": "ID_TYPE_3",
      "outputs": [
        {
          "internalType": "uint256",
          "name": "",
          "type": "uint256"
        }
      ],
      "stateMutability": "view",
      "type": "function"
    },
    {
      "inputs": [],
      "name": "ID_TYPE_4",
      "outputs": [
        {
          "internalType": "uint256",
          "name": "",
          "type": "uint256"
        }
      ],
      "stateMutability": "view",
      "type": "function"
    },
    {
      "inputs": [],
      "name": "ID_TYPE_5",
      "outputs": [
        {
          "internalType": "uint256",
          "name": "",
          "type": "uint256"
        }
      ],
      "stateMutability": "view",
      "type": "function"
    },
    {
      "inputs": [],
      "name": "ID_TYPE_6",
      "outputs": [
        {
          "internalType": "uint256",
          "name": "",
          "type": "uint256"
        }
      ],
      "stateMutability": "view",
      "type": "function"
    },
    {
      "inputs": [],
      "name": "ID_TYPE_7",
      "outputs": [
        {
          "internalType": "uint256",
          "name": "",
          "type": "uint256"
        }
      ],
      "stateMutability": "view",
      "type": "function"
    },
    {
      "inputs": [],
      "name": "ID_TYPE_8",
      "outputs": [
        {
          "internalType": "uint256",
          "name": "",
          "type": "uint256"
        }
      ],
      "stateMutability": "view",
      "type": "function"
    },
    {
      "inputs": [],
      "name": "ID_TYPE_9",
      "outputs": [
        {
          "internalType": "uint256",
          "name": "",
          "type": "uint256"
        }
      ],
      "stateMutability": "view",
      "type": "function"
    },
    {
      "inputs": [],
      "name": "MINT_COST_PER_TOKEN",
      "outputs": [
        {
          "internalType": "uint256",
          "name": "",
          "type": "uint256"
        }
      ],
      "stateMutability": "view",
      "type": "function"
    },
    {
      "inputs": [
        {
          "internalType": "address",
          "name": "account",
          "type": "address"
        }
      ],
      "name": "addSuperAdmin",
      "outputs": [],
      "stateMutability": "nonpayable",
      "type": "function"
    },
    {
      "inputs": [
        {
          "internalType": "address",
          "name": "account",
          "type": "address"
        },
        {
          "internalType": "uint256",
          "name": "id",
          "type": "uint256"
        }
      ],
      "name": "balanceOf",
      "outputs": [
        {
          "internalType": "uint256",
          "name": "",
          "type": "uint256"
        }
      ],
      "stateMutability": "view",
      "type": "function"
    },
    {
      "inputs": [
        {
          "internalType": "address[]",
          "name": "accounts",
          "type": "address[]"
        },
        {
          "internalType": "uint256[]",
          "name": "ids",
          "type": "uint256[]"
        }
      ],
      "name": "balanceOfBatch",
      "outputs": [
        {
          "internalType": "uint256[]",
          "name": "",
          "type": "uint256[]"
        }
      ],
      "stateMutability": "view",
      "type": "function"
    },
    {
      "inputs": [
        {
          "internalType": "address",
          "name": "account",
          "type": "address"
        },
        {
          "internalType": "uint256",
          "name": "id",
          "type": "uint256"
        },
        {
          "internalType": "uint256",
          "name": "expiresAt",
          "type": "uint256"
        },
        {
          "internalType": "bytes",
          "name": "signature",
          "type": "bytes"
        }
      ],
      "name": "burn",
      "outputs": [],
      "stateMutability": "nonpayable",
      "type": "function"
    },
    {
      "inputs": [
        {
          "internalType": "address",
          "name": "account",
          "type": "address"
        },
        {
          "internalType": "uint256",
          "name": "id",
          "type": "uint256"
        }
      ],
      "name": "burnFrom",
      "outputs": [],
      "stateMutability": "nonpayable",
      "type": "function"
    },
    {
      "inputs": [
        {
          "internalType": "bytes32",
          "name": "role",
          "type": "bytes32"
        }
      ],
      "name": "getRoleAdmin",
      "outputs": [
        {
          "internalType": "bytes32",
          "name": "",
          "type": "bytes32"
        }
      ],
      "stateMutability": "view",
      "type": "function"
    },
    {
      "inputs": [
        {
          "internalType": "bytes32",
          "name": "role",
          "type": "bytes32"
        },
        {
          "internalType": "uint256",
          "name": "index",
          "type": "uint256"
        }
      ],
      "name": "getRoleMember",
      "outputs": [
        {
          "internalType": "address",
          "name": "",
          "type": "address"
        }
      ],
      "stateMutability": "view",
      "type": "function"
    },
    {
      "inputs": [
        {
          "internalType": "bytes32",
          "name": "role",
          "type": "bytes32"
        }
      ],
      "name": "getRoleMemberCount",
      "outputs": [
        {
          "internalType": "uint256",
          "name": "",
          "type": "uint256"
        }
      ],
      "stateMutability": "view",
      "type": "function"
    },
    {
      "inputs": [
        {
          "internalType": "bytes32",
          "name": "role",
          "type": "bytes32"
        },
        {
          "internalType": "address",
          "name": "account",
          "type": "address"
        }
      ],
      "name": "grantRole",
      "outputs": [],
      "stateMutability": "nonpayable",
      "type": "function"
    },
    {
      "inputs": [
        {
          "internalType": "bytes32",
          "name": "role",
          "type": "bytes32"
        },
        {
          "internalType": "address",
          "name": "account",
          "type": "address"
        }
      ],
      "name": "hasRole",
      "outputs": [
        {
          "internalType": "bool",
          "name": "",
          "type": "bool"
        }
      ],
      "stateMutability": "view",
      "type": "function"
    },
    {
      "inputs": [
        {
          "internalType": "address",
          "name": "owner",
          "type": "address"
        },
        {
          "internalType": "string",
          "name": "uri",
          "type": "string"
        }
      ],
      "name": "initialize",
      "outputs": [],
      "stateMutability": "nonpayable",
      "type": "function"
    },
    {
      "inputs": [],
      "name": "isAdmin",
      "outputs": [
        {
          "internalType": "bool",
          "name": "",
          "type": "bool"
        }
      ],
      "stateMutability": "view",
      "type": "function"
    },
    {
      "inputs": [
        {
          "internalType": "address",
          "name": "account",
          "type": "address"
        },
        {
          "internalType": "address",
          "name": "operator",
          "type": "address"
        }
      ],
      "name": "isApprovedForAll",
      "outputs": [
        {
          "internalType": "bool",
          "name": "",
          "type": "bool"
        }
      ],
      "stateMutability": "view",
      "type": "function"
    },
    {
      "inputs": [
        {
          "internalType": "uint256",
          "name": "id",
          "type": "uint256"
        },
        {
          "internalType": "uint256",
          "name": "expiresAt",
          "type": "uint256"
        },
        {
          "internalType": "bytes",
          "name": "signature",
          "type": "bytes"
        }
      ],
      "name": "mint",
      "outputs": [],
      "stateMutability": "payable",
      "type": "function"
    },
    {
      "inputs": [
        {
          "internalType": "address",
          "name": "recipient",
          "type": "address"
        },
        {
          "internalType": "uint256",
          "name": "id",
          "type": "uint256"
        },
        {
          "internalType": "uint256",
          "name": "expiresAt",
          "type": "uint256"
        },
        {
          "internalType": "bytes",
          "name": "signature",
          "type": "bytes"
        }
      ],
      "name": "mintTo",
      "outputs": [],
      "stateMutability": "payable",
      "type": "function"
    },
    {
      "inputs": [],
      "name": "name",
      "outputs": [
        {
          "internalType": "string",
          "name": "",
          "type": "string"
        }
      ],
      "stateMutability": "pure",
      "type": "function"
    },
    {
      "inputs": [
        {
          "internalType": "address",
          "name": "",
          "type": "address"
        }
      ],
      "name": "nonces",
      "outputs": [
        {
          "internalType": "uint256",
          "name": "",
          "type": "uint256"
        }
      ],
      "stateMutability": "view",
      "type": "function"
    },
    {
      "inputs": [],
      "name": "pause",
      "outputs": [],
      "stateMutability": "nonpayable",
      "type": "function"
    },
    {
      "inputs": [],
      "name": "paused",
      "outputs": [
        {
          "internalType": "bool",
          "name": "",
          "type": "bool"
        }
      ],
      "stateMutability": "view",
      "type": "function"
    },
    {
      "inputs": [
        {
          "internalType": "bytes32",
          "name": "role",
          "type": "bytes32"
        },
        {
          "internalType": "address",
          "name": "account",
          "type": "address"
        }
      ],
      "name": "renounceRole",
      "outputs": [],
      "stateMutability": "nonpayable",
      "type": "function"
    },
    {
      "inputs": [
        {
          "internalType": "bytes32",
          "name": "role",
          "type": "bytes32"
        },
        {
          "internalType": "address",
          "name": "account",
          "type": "address"
        }
      ],
      "name": "revokeRole",
      "outputs": [],
      "stateMutability": "nonpayable",
      "type": "function"
    },
    {
      "inputs": [
        {
          "internalType": "address",
          "name": "from",
          "type": "address"
        },
        {
          "internalType": "address",
          "name": "to",
          "type": "address"
        },
        {
          "internalType": "uint256[]",
          "name": "ids",
          "type": "uint256[]"
        },
        {
          "internalType": "uint256[]",
          "name": "amounts",
          "type": "uint256[]"
        },
        {
          "internalType": "bytes",
          "name": "data",
          "type": "bytes"
        }
      ],
      "name": "safeBatchTransferFrom",
      "outputs": [],
      "stateMutability": "nonpayable",
      "type": "function"
    },
    {
      "inputs": [
        {
          "internalType": "address",
          "name": "from",
          "type": "address"
        },
        {
          "internalType": "address",
          "name": "to",
          "type": "address"
        },
        {
          "internalType": "uint256",
          "name": "id",
          "type": "uint256"
        },
        {
          "internalType": "uint256",
          "name": "amount",
          "type": "uint256"
        },
        {
          "internalType": "bytes",
          "name": "data",
          "type": "bytes"
        }
      ],
      "name": "safeTransferFrom",
      "outputs": [],
      "stateMutability": "nonpayable",
      "type": "function"
    },
    {
      "inputs": [
        {
          "internalType": "address",
          "name": "operator",
          "type": "address"
        },
        {
          "internalType": "bool",
          "name": "approved",
          "type": "bool"
        }
      ],
      "name": "setApprovalForAll",
      "outputs": [],
      "stateMutability": "nonpayable",
      "type": "function"
    },
    {
      "inputs": [
        {
          "internalType": "uint256[]",
          "name": "ids",
          "type": "uint256[]"
        },
        {
          "internalType": "bool[]",
          "name": "values",
          "type": "bool[]"
        }
      ],
      "name": "setSupportedUIDTypes",
      "outputs": [],
      "stateMutability": "nonpayable",
      "type": "function"
    },
    {
      "inputs": [
        {
          "internalType": "string",
          "name": "newuri",
          "type": "string"
        }
      ],
      "name": "setURI",
      "outputs": [],
      "stateMutability": "nonpayable",
      "type": "function"
    },
    {
      "inputs": [
        {
          "internalType": "uint256",
          "name": "",
          "type": "uint256"
        }
      ],
      "name": "supportedUIDTypes",
      "outputs": [
        {
          "internalType": "bool",
          "name": "",
          "type": "bool"
        }
      ],
      "stateMutability": "view",
      "type": "function"
    },
    {
      "inputs": [
        {
          "internalType": "bytes4",
          "name": "interfaceId",
          "type": "bytes4"
        }
      ],
      "name": "supportsInterface",
      "outputs": [
        {
          "internalType": "bool",
          "name": "",
          "type": "bool"
        }
      ],
      "stateMutability": "view",
      "type": "function"
    },
    {
      "inputs": [],
      "name": "symbol",
      "outputs": [
        {
          "internalType": "string",
          "name": "",
          "type": "string"
        }
      ],
      "stateMutability": "pure",
      "type": "function"
    },
    {
      "inputs": [
        {
          "internalType": "address",
          "name": "token",
          "type": "address"
        }
      ],
      "name": "unlockWrongToken",
      "outputs": [],
      "stateMutability": "nonpayable",
      "type": "function"
    },
    {
      "inputs": [],
      "name": "unpause",
      "outputs": [],
      "stateMutability": "nonpayable",
      "type": "function"
    },
    {
      "inputs": [
        {
          "internalType": "uint256",
          "name": "",
          "type": "uint256"
        }
      ],
      "name": "uri",
      "outputs": [
        {
          "internalType": "string",
          "name": "",
          "type": "string"
        }
      ],
      "stateMutability": "view",
      "type": "function"
    }
  ],
  "transactionHash": "0x093d11afe77747843b66880bd047741d16883ca5656dba0e185193acce85f5f0",
  "args": [],
  "numDeployments": 1,
  "solcInputHash": "28c74a8c94428243a2756fd51ab4a3b9",
  "bytecode": "0x608060405234801561001057600080fd5b50613d38806100206000396000f3fe6080604052600436106102715760003560e01c8063801dfa901161014f578063a22cb465116100c1578063e57a2a501161007a578063e57a2a5014610731578063e985e9c514610746578063ec2e8a751461078f578063f242432a146107a4578063f399e22e146107c4578063fb79a684146107e457600080fd5b8063a22cb46514610687578063b3292ff0146106a7578063b6db75a0146106c7578063ca15c873146106dc578063d547741f146106fc578063ddd8f6871461071c57600080fd5b80639010d07c116101135780639010d07c146105bd5780639142575d146105f557806391d148541461062657806395d89b41146106465780639b56d78814610672578063a217fddf1461067257600080fd5b8063801dfa901461053e57806380f87802146105535780638456cb5914610568578063879dcceb1461057d5780638a94b05f1461059d57600080fd5b80632eb2c2d6116101e85780634e1273f4116101ac5780634e1273f4146104815780635344626a146104ae5780635c975abb146104c3578063701d240a146104db57806379cc6790146104f05780637ecebe001461051057600080fd5b80632eb2c2d6146103f75780632f2ff15d1461041757806336568abe146104375780633f4ba83a14610457578063479e743c1461046c57600080fd5b80630e89341c1161023a5780630e89341c1461034f5780631484bddd1461036f578063248a9ca314610384578063280f4e28146103b45780632dc2c007146103c75780632e82d895146103e257600080fd5b8062fdd58e1461027657806301ffc9a7146102a957806302fe5305146102d957806306fdde03146102fb57806308dc9f421461033c575b600080fd5b34801561028257600080fd5b50610296610291366004612e90565b610804565b6040519081526020015b60405180910390f35b3480156102b557600080fd5b506102c96102c4366004612ed0565b61089f565b60405190151581526020016102a0565b3480156102e557600080fd5b506102f96102f4366004612fa2565b6108aa565b005b34801561030757600080fd5b5060408051808201909152600f81526e556e69717565204964656e7469747960881b60208201525b6040516102a0919061302e565b6102f961034a366004613082565b6108da565b34801561035b57600080fd5b5061032f61036a3660046130d4565b610a04565b34801561037b57600080fd5b50610296600881565b34801561039057600080fd5b5061029661039f3660046130d4565b60009081526065602052604090206001015490565b6102f96103c23660046130ed565b610a98565b3480156103d357600080fd5b506102966602f2e16f29e00081565b3480156103ee57600080fd5b50610296600381565b34801561040357600080fd5b506102f96104123660046131e8565b610c48565b34801561042357600080fd5b506102f9610432366004613291565b610c94565b34801561044357600080fd5b506102f9610452366004613291565b610cbe565b34801561046357600080fd5b506102f9610d3c565b34801561047857600080fd5b50610296600581565b34801561048d57600080fd5b506104a161049c3660046132bd565b610dc8565b6040516102a091906133c2565b3480156104ba57600080fd5b50610296600681565b3480156104cf57600080fd5b5060fb5460ff166102c9565b3480156104e757600080fd5b50610296600181565b3480156104fc57600080fd5b506102f961050b366004612e90565b610ef1565b34801561051c57600080fd5b5061029661052b3660046133d5565b6101916020526000908152604090205481565b34801561054a57600080fd5b50610296600781565b34801561055f57600080fd5b50610296600281565b34801561057457600080fd5b506102f9610f77565b34801561058957600080fd5b506102f9610598366004613434565b610fff565b3480156105a957600080fd5b506102f96105b83660046130ed565b6110f8565b3480156105c957600080fd5b506105dd6105d8366004613493565b61128d565b6040516001600160a01b0390911681526020016102a0565b34801561060157600080fd5b506102c96106103660046130d4565b6101926020526000908152604090205460ff1681565b34801561063257600080fd5b506102c9610641366004613291565b6112ac565b34801561065257600080fd5b5060408051808201909152600381526215525160ea1b602082015261032f565b34801561067e57600080fd5b50610296600081565b34801561069357600080fd5b506102f96106a23660046134c3565b6112d7565b3480156106b357600080fd5b506102f96106c23660046133d5565b6112e2565b3480156106d357600080fd5b506102c961131e565b3480156106e857600080fd5b506102966106f73660046130d4565b61133d565b34801561070857600080fd5b506102f9610717366004613291565b611354565b34801561072857600080fd5b50610296600a81565b34801561073d57600080fd5b50610296600981565b34801561075257600080fd5b506102c96107613660046134fa565b6001600160a01b03918216600090815260ca6020908152604080832093909416825291909152205460ff1690565b34801561079b57600080fd5b50610296600481565b3480156107b057600080fd5b506102f96107bf366004613524565b611379565b3480156107d057600080fd5b506102f96107df366004613588565b6113be565b3480156107f057600080fd5b506102f96107ff3660046133d5565b611531565b60006001600160a01b0383166108745760405162461bcd60e51b815260206004820152602a60248201527f455243313135353a2061646472657373207a65726f206973206e6f742061207660448201526930b634b21037bbb732b960b11b60648201526084015b60405180910390fd5b50600081815260c9602090815260408083206001600160a01b03861684529091529020545b92915050565b600061089982611714565b6108b261131e565b6108ce5760405162461bcd60e51b815260040161086b906135cb565b6108d781611754565b50565b33848484848242106108fe5760405162461bcd60e51b815260040161086b90613616565b6001600160a01b03851660009081526101916020908152604080832054905161093292899289928992309291469101613645565b604051602081830303815290604052805190602001209050600061095582611760565b90506109a9600080516020613ce38339815191526106418387878080601f01602080910402602001604051908101604052809392919081815260200183838082843760009201919091525061179392505050565b6109c55760405162461bcd60e51b815260040161086b9061368b565b336000818152610191602052604081208054600192906109e69084906136c9565b909155506109f69050338d6117af565b505050505050505050505050565b606060cb8054610a13906136dc565b80601f0160208091040260200160405190810160405280929190818152602001828054610a3f906136dc565b8015610a8c5780601f10610a6157610100808354040283529160200191610a8c565b820191906000526020600020905b815481529060010190602001808311610a6f57829003601f168201915b50505050509050919050565b8484848484824210610abc5760405162461bcd60e51b815260040161086b90613616565b336000818152610191602090815260408083205481516bffffffffffffffffffffffff19606096871b8116828601528b871b81166034830152604882018b9052606882018a90523090961b9095166088860152609c8501524660bc808601919091528151808603909101815260dc9094019052825192019190912090610b4182611760565b9050610b95600080516020613ce38339815191526106418387878080601f01602080910402602001604051908101604052809392919081815260200183838082843760009201919091525061179392505050565b610bb15760405162461bcd60e51b815260040161086b9061368b565b33600081815261019160205260408120805460019290610bd29084906136c9565b90915550610be29050338d610804565b15610c2f5760405162461bcd60e51b815260206004820152601a60248201527f6d736753656e64657220616c7265616479206f776e7320554944000000000000604482015260640161086b565b610c398d8d6117af565b50505050505050505050505050565b6001600160a01b038516331480610c645750610c648533610761565b610c805760405162461bcd60e51b815260040161086b90613716565b610c8d85858585856118d1565b5050505050565b600082815260656020526040902060010154610caf81611abf565b610cb98383611ac9565b505050565b6001600160a01b0381163314610d2e5760405162461bcd60e51b815260206004820152602f60248201527f416363657373436f6e74726f6c3a2063616e206f6e6c792072656e6f756e636560448201526e103937b632b9903337b91039b2b63360891b606482015260840161086b565b610d388282611aeb565b5050565b610d54600080516020613cc3833981519152336112ac565b610dbe5760405162461bcd60e51b815260206004820152603560248201527f455243313135355072657365745061757365723a206d75737420686176652070604482015274617573657220726f6c6520746f20756e706175736560581b606482015260840161086b565b610dc6611b0d565b565b60608151835114610e2d5760405162461bcd60e51b815260206004820152602960248201527f455243313135353a206163636f756e747320616e6420696473206c656e677468604482015268040dad2e6dac2e8c6d60bb1b606482015260840161086b565b600083516001600160401b03811115610e4857610e48612eed565b604051908082528060200260200182016040528015610e71578160200160208202803683370190505b50905060005b8451811015610ee957610ebc858281518110610e9557610e95613764565b6020026020010151858381518110610eaf57610eaf613764565b6020026020010151610804565b828281518110610ece57610ece613764565b6020908102919091010152610ee28161377a565b9050610e77565b509392505050565b600080516020613c83833981519152610f0981611abf565b610f1583836001611b5f565b6000610f218484610804565b90508015610f715760405162461bcd60e51b815260206004820152601c60248201527f42616c616e6365206166746572206275726e206d757374206265203000000000604482015260640161086b565b50505050565b610f8f600080516020613cc3833981519152336112ac565b610ff75760405162461bcd60e51b815260206004820152603360248201527f455243313135355072657365745061757365723a206d75737420686176652070604482015272617573657220726f6c6520746f20706175736560681b606482015260840161086b565b610dc6611cf8565b61100761131e565b6110235760405162461bcd60e51b815260040161086b906135cb565b8281146110725760405162461bcd60e51b815260206004820181905260248201527f6163636f756e747320616e6420696473206c656e677468206d69736d61746368604482015260640161086b565b60005b83811015610c8d5782828281811061108f5761108f613764565b90506020020160208101906110a49190613793565b61019260008787858181106110bb576110bb613764565b90506020020135815260200190815260200160002060006101000a81548160ff021916908315150217905550806110f19061377a565b9050611075565b848484848482421061111c5760405162461bcd60e51b815260040161086b90613616565b6001600160a01b03851660009081526101916020908152604080832054905161115092899289928992309291469101613645565b604051602081830303815290604052805190602001209050600061117382611760565b90506111c7600080516020613ce38339815191526106418387878080601f01602080910402602001604051908101604052809392919081815260200183838082843760009201919091525061179392505050565b6111e35760405162461bcd60e51b815260040161086b9061368b565b6001600160a01b038c1660009081526101916020526040812080548e926001929161120f9084906136c9565b9091555061122190508d8d6001611b5f565b600061122d8e8e610804565b9050801561127d5760405162461bcd60e51b815260206004820152601c60248201527f42616c616e6365206166746572206275726e206d757374206265203000000000604482015260640161086b565b5050505050505050505050505050565b60008281526097602052604081206112a59083611d35565b9392505050565b60009182526065602090815260408084206001600160a01b0393909316845291905290205460ff1690565b610d38338383611d41565b6112ea61131e565b6113065760405162461bcd60e51b815260040161086b906135cb565b6108d7600080516020613c8383398151915282611e21565b6000611338600080516020613ca3833981519152336112ac565b905090565b600081815260976020526040812061089990611e2b565b60008281526065602052604090206001015461136f81611abf565b610cb98383611aeb565b6001600160a01b03851633148061139557506113958533610761565b6113b15760405162461bcd60e51b815260040161086b90613716565b610c8d8585858585611e35565b600054610100900460ff16158080156113de5750600054600160ff909116105b806113f85750303b1580156113f8575060005460ff166001145b61145b5760405162461bcd60e51b815260206004820152602e60248201527f496e697469616c697a61626c653a20636f6e747261637420697320616c72656160448201526d191e481a5b9a5d1a585b1a5e995960921b606482015260840161086b565b6000805460ff19166001179055801561147e576000805461ff0019166101001790555b6001600160a01b0383166114d45760405162461bcd60e51b815260206004820152601d60248201527f4f776e657220616464726573732063616e6e6f7420626520656d707479000000604482015260640161086b565b6114de8383611f71565b6114e783611fda565b8015610cb9576000805461ff0019169055604051600181527f7f26b83ff96e1f2b6a682f133852f6798a09c465da95921460cefb38474024989060200160405180910390a1505050565b61153961131e565b6115555760405162461bcd60e51b815260040161086b906135cb565b6001600160a01b0381166115ee57604051600090339047908381818185875af1925050503d80600081146115a5576040519150601f19603f3d011682016040523d82523d6000602084013e6115aa565b606091505b5050905080610d385760405162461bcd60e51b815260206004820152601060248201526f2a3930b739b332b9103330b4b632b21760811b604482015260640161086b565b6001600160a01b03811663a9059cbb336040516370a0823160e01b81523060048201526001600160a01b038516906370a0823190602401602060405180830381865afa158015611642573d6000803e3d6000fd5b505050506040513d601f19601f8201168201806040525081019061166691906137b0565b6040516001600160e01b031960e085901b1681526001600160a01b03909216600483015260248201526044016020604051808303816000875af11580156116b1573d6000803e3d6000fd5b505050506040513d601f19601f820116820180604052508101906116d591906137c9565b6108d75760405162461bcd60e51b815260206004820152601060248201526f2a3930b739b332b9103330b4b632b21760811b604482015260640161086b565b60006001600160e01b03198216636cdb3d1360e11b148061174557506001600160e01b031982166303a24d0760e21b145b8061089957506108998261200a565b60cb610d38828261382c565b7f19457468657265756d205369676e6564204d6573736167653a0a3332000000006000908152601c91909152603c902090565b60008060006117a2858561202f565b91509150610ee981612074565b6602f2e16f29e0003410156118065760405162461bcd60e51b815260206004820152601f60248201527f546f6b656e206d696e7420726571756972657320302e30303038332045544800604482015260640161086b565b6000818152610192602052604090205460ff1661185e5760405162461bcd60e51b8152602060048201526016602482015275151bdad95b881a59081b9bdd081cdd5c1c1bdc9d195960521b604482015260640161086b565b6118688282610804565b156118b55760405162461bcd60e51b815260206004820152601d60248201527f42616c616e6365206265666f7265206d696e74206d7573742062652030000000604482015260640161086b565b610d3882826001604051806020016040528060008152506121be565b81518351146119335760405162461bcd60e51b815260206004820152602860248201527f455243313135353a2069647320616e6420616d6f756e7473206c656e677468206044820152670dad2e6dac2e8c6d60c31b606482015260840161086b565b6001600160a01b0384166119595760405162461bcd60e51b815260040161086b906138eb565b336119688187878787876122da565b60005b8451811015611a5157600085828151811061198857611988613764565b6020026020010151905060008583815181106119a6576119a6613764565b602090810291909101810151600084815260c9835260408082206001600160a01b038e1683529093529190912054909150818110156119f75760405162461bcd60e51b815260040161086b90613930565b600083815260c9602090815260408083206001600160a01b038e8116855292528083208585039055908b16825281208054849290611a369084906136c9565b9250508190555050505080611a4a9061377a565b905061196b565b50846001600160a01b0316866001600160a01b0316826001600160a01b03167f4a39dc06d4c0dbc64b70af90fd698a233a518aa5d07e595d983b8c0526c8f7fb8787604051611aa192919061397a565b60405180910390a4611ab7818787878787612388565b505050505050565b6108d781336124e3565b611ad3828261253c565b6000828152609760205260409020610cb990826125c2565b611af582826125d7565b6000828152609760205260409020610cb9908261263e565b611b15612653565b60fb805460ff191690557f5db9ee0a495bf2e6ff9c91a7834c1ba4fdd244a5e8aa4e537bd38aeae4b073aa335b6040516001600160a01b03909116815260200160405180910390a1565b6001600160a01b038316611bc15760405162461bcd60e51b815260206004820152602360248201527f455243313135353a206275726e2066726f6d20746865207a65726f206164647260448201526265737360e81b606482015260840161086b565b336000611bcd8461269c565b90506000611bda8461269c565b9050611bfa838760008585604051806020016040528060008152506122da565b600085815260c9602090815260408083206001600160a01b038a16845290915290205484811015611c795760405162461bcd60e51b8152602060048201526024808201527f455243313135353a206275726e20616d6f756e7420657863656564732062616c604482015263616e636560e01b606482015260840161086b565b600086815260c9602090815260408083206001600160a01b038b81168086529184528285208a8703905582518b81529384018a90529092908816917fc3d58168c5ae7397731d063d5bbf3d657854427343f4c083240f7aacaa2d0f62910160405180910390a46040805160208101909152600090525b50505050505050565b611d006126e7565b60fb805460ff191660011790557f62e78cea01bee320cd4e420270b5ea74000d11b0c9f74754ebdbfc544b05a258611b423390565b60006112a5838361272d565b816001600160a01b0316836001600160a01b031603611db45760405162461bcd60e51b815260206004820152602960248201527f455243313135353a2073657474696e6720617070726f76616c20737461747573604482015268103337b91039b2b63360b91b606482015260840161086b565b6001600160a01b03838116600081815260ca6020908152604080832094871680845294825291829020805460ff191686151590811790915591519182527f17307eab39ab6107e8899845ad3d59bd9653f200f220920489ca2b5937696c31910160405180910390a3505050565b610d388282611ac9565b6000610899825490565b6001600160a01b038416611e5b5760405162461bcd60e51b815260040161086b906138eb565b336000611e678561269c565b90506000611e748561269c565b9050611e848389898585896122da565b600086815260c9602090815260408083206001600160a01b038c16845290915290205485811015611ec75760405162461bcd60e51b815260040161086b90613930565b600087815260c9602090815260408083206001600160a01b038d8116855292528083208985039055908a16825281208054889290611f069084906136c9565b909155505060408051888152602081018890526001600160a01b03808b16928c821692918816917fc3d58168c5ae7397731d063d5bbf3d657854427343f4c083240f7aacaa2d0f62910160405180910390a4611f66848a8a8a8a8a612757565b505050505050505050565b600054610100900460ff16611f985760405162461bcd60e51b815260040161086b906139a8565b611fa0612812565b611fa8612812565b611fb0612812565b611fb8612812565b611fc181612839565b611fc9612860565b611fd1612812565b610d3882612893565b600054610100900460ff166120015760405162461bcd60e51b815260040161086b906139a8565b6108d781612928565b60006001600160e01b03198216635a05180f60e01b14806108995750610899826129cb565b60008082516041036120655760208301516040840151606085015160001a61205987828585612a00565b9450945050505061206d565b506000905060025b9250929050565b6000816004811115612088576120886139f3565b036120905750565b60018160048111156120a4576120a46139f3565b036120f15760405162461bcd60e51b815260206004820152601860248201527f45434453413a20696e76616c6964207369676e61747572650000000000000000604482015260640161086b565b6002816004811115612105576121056139f3565b036121525760405162461bcd60e51b815260206004820152601f60248201527f45434453413a20696e76616c6964207369676e6174757265206c656e67746800604482015260640161086b565b6003816004811115612166576121666139f3565b036108d75760405162461bcd60e51b815260206004820152602260248201527f45434453413a20696e76616c6964207369676e6174757265202773272076616c604482015261756560f01b606482015260840161086b565b6001600160a01b03841661221e5760405162461bcd60e51b815260206004820152602160248201527f455243313135353a206d696e7420746f20746865207a65726f206164647265736044820152607360f81b606482015260840161086b565b33600061222a8561269c565b905060006122378561269c565b9050612248836000898585896122da565b600086815260c9602090815260408083206001600160a01b038b1684529091528120805487929061227a9084906136c9565b909155505060408051878152602081018790526001600160a01b03808a1692600092918716917fc3d58168c5ae7397731d063d5bbf3d657854427343f4c083240f7aacaa2d0f62910160405180910390a4611cef83600089898989612757565b6001600160a01b0385161580156122f957506001600160a01b03841615155b8061231e57506001600160a01b0385161580159061231e57506001600160a01b038416155b61237a5760405162461bcd60e51b815260206004820152602760248201527f4f6e6c79206d696e74206f72206275726e207472616e73666572732061726520604482015266185b1b1bddd95960ca1b606482015260840161086b565b611ab7868686868686612ac4565b6001600160a01b0384163b15611ab75760405163bc197c8160e01b81526001600160a01b0385169063bc197c81906123cc9089908990889088908890600401613a09565b6020604051808303816000875af1925050508015612407575060408051601f3d908101601f1916820190925261240491810190613a67565b60015b6124b357612413613a84565b806308c379a00361244c5750612427613aa0565b80612432575061244e565b8060405162461bcd60e51b815260040161086b919061302e565b505b60405162461bcd60e51b815260206004820152603460248201527f455243313135353a207472616e7366657220746f206e6f6e2d455243313135356044820152732932b1b2b4bb32b91034b6b83632b6b2b73a32b960611b606482015260840161086b565b6001600160e01b0319811663bc197c8160e01b14611cef5760405162461bcd60e51b815260040161086b90613b29565b6124ed82826112ac565b610d38576124fa81612ad2565b612505836020612ae4565b604051602001612516929190613b71565b60408051601f198184030181529082905262461bcd60e51b825261086b9160040161302e565b61254682826112ac565b610d385760008281526065602090815260408083206001600160a01b03851684529091529020805460ff1916600117905561257e3390565b6001600160a01b0316816001600160a01b0316837f2f8788117e7eff1d82e926ec794901d17c78024a50270940304540a733656f0d60405160405180910390a45050565b60006112a5836001600160a01b038416612c7f565b6125e182826112ac565b15610d385760008281526065602090815260408083206001600160a01b0385168085529252808320805460ff1916905551339285917ff6391f5c32d9c69d2a47ea670b442974b53935d1edc7fd64eb21e047a839171b9190a45050565b60006112a5836001600160a01b038416612cce565b60fb5460ff16610dc65760405162461bcd60e51b815260206004820152601460248201527314185d5cd8589b194e881b9bdd081c185d5cd95960621b604482015260640161086b565b604080516001808252818301909252606091600091906020808301908036833701905050905082816000815181106126d6576126d6613764565b602090810291909101015292915050565b60fb5460ff1615610dc65760405162461bcd60e51b815260206004820152601060248201526f14185d5cd8589b194e881c185d5cd95960821b604482015260640161086b565b600082600001828154811061274457612744613764565b9060005260206000200154905092915050565b6001600160a01b0384163b15611ab75760405163f23a6e6160e01b81526001600160a01b0385169063f23a6e619061279b9089908990889088908890600401613be6565b6020604051808303816000875af19250505080156127d6575060408051601f3d908101601f191682019092526127d391810190613a67565b60015b6127e257612413613a84565b6001600160e01b0319811663f23a6e6160e01b14611cef5760405162461bcd60e51b815260040161086b90613b29565b600054610100900460ff16610dc65760405162461bcd60e51b815260040161086b906139a8565b600054610100900460ff166108ce5760405162461bcd60e51b815260040161086b906139a8565b600054610100900460ff166128875760405162461bcd60e51b815260040161086b906139a8565b60fb805460ff19169055565b600054610100900460ff166128ba5760405162461bcd60e51b815260040161086b906139a8565b6128d2600080516020613ca383398151915282611e21565b6128ea600080516020613cc383398151915282611e21565b612910600080516020613cc3833981519152600080516020613ca3833981519152612dc1565b6108d7600080516020613ca383398151915280612dc1565b600054610100900460ff1661294f5760405162461bcd60e51b815260040161086b906139a8565b612967600080516020613ce383398151915282611e21565b61298d600080516020613ce3833981519152600080516020613ca3833981519152612dc1565b6129a5600080516020613c8383398151915282611e21565b6108d7600080516020613c83833981519152600080516020613ca3833981519152612dc1565b60006001600160e01b03198216637965db0b60e01b148061089957506301ffc9a760e01b6001600160e01b0319831614610899565b6000807f7fffffffffffffffffffffffffffffff5d576e7357a4501ddfe92f46681b20a0831115612a375750600090506003612abb565b6040805160008082526020820180845289905260ff881692820192909252606081018690526080810185905260019060a0016020604051602081039080840390855afa158015612a8b573d6000803e3d6000fd5b5050604051601f1901519150506001600160a01b038116612ab457600060019250925050612abb565b9150600090505b94509492505050565b611ab7868686868686612e0c565b60606108996001600160a01b03831660145b60606000612af3836002613c2b565b612afe9060026136c9565b6001600160401b03811115612b1557612b15612eed565b6040519080825280601f01601f191660200182016040528015612b3f576020820181803683370190505b509050600360fc1b81600081518110612b5a57612b5a613764565b60200101906001600160f81b031916908160001a905350600f60fb1b81600181518110612b8957612b89613764565b60200101906001600160f81b031916908160001a9053506000612bad846002613c2b565b612bb89060016136c9565b90505b6001811115612c30576f181899199a1a9b1b9c1cb0b131b232b360811b85600f1660108110612bec57612bec613764565b1a60f81b828281518110612c0257612c02613764565b60200101906001600160f81b031916908160001a90535060049490941c93612c2981613c42565b9050612bbb565b5083156112a55760405162461bcd60e51b815260206004820181905260248201527f537472696e67733a20686578206c656e67746820696e73756666696369656e74604482015260640161086b565b6000818152600183016020526040812054612cc657508154600181810184556000848152602080822090930184905584548482528286019093526040902091909155610899565b506000610899565b60008181526001830160205260408120548015612db7576000612cf2600183613c59565b8554909150600090612d0690600190613c59565b9050818114612d6b576000866000018281548110612d2657612d26613764565b9060005260206000200154905080876000018481548110612d4957612d49613764565b6000918252602080832090910192909255918252600188019052604090208390555b8554869080612d7c57612d7c613c6c565b600190038181906000526020600020016000905590558560010160008681526020019081526020016000206000905560019350505050610899565b6000915050610899565b600082815260656020526040808220600101805490849055905190918391839186917fbd79b86ffe0ab8e8776151514217cd7cacd52c909f66475c3af44e129f0b00ff9190a4505050565b60fb5460ff1615611ab75760405162461bcd60e51b815260206004820152602c60248201527f455243313135355061757361626c653a20746f6b656e207472616e736665722060448201526b1dda1a5b19481c185d5cd95960a21b606482015260840161086b565b80356001600160a01b0381168114612e8b57600080fd5b919050565b60008060408385031215612ea357600080fd5b612eac83612e74565b946020939093013593505050565b6001600160e01b0319811681146108d757600080fd5b600060208284031215612ee257600080fd5b81356112a581612eba565b634e487b7160e01b600052604160045260246000fd5b601f8201601f191681016001600160401b0381118282101715612f2857612f28612eed565b6040525050565b600082601f830112612f4057600080fd5b81356001600160401b03811115612f5957612f59612eed565b604051612f70601f8301601f191660200182612f03565b818152846020838601011115612f8557600080fd5b816020850160208301376000918101602001919091529392505050565b600060208284031215612fb457600080fd5b81356001600160401b03811115612fca57600080fd5b612fd684828501612f2f565b949350505050565b60005b83811015612ff9578181015183820152602001612fe1565b50506000910152565b6000815180845261301a816020860160208601612fde565b601f01601f19169290920160200192915050565b6020815260006112a56020830184613002565b60008083601f84011261305357600080fd5b5081356001600160401b0381111561306a57600080fd5b60208301915083602082850101111561206d57600080fd5b6000806000806060858703121561309857600080fd5b843593506020850135925060408501356001600160401b038111156130bc57600080fd5b6130c887828801613041565b95989497509550505050565b6000602082840312156130e657600080fd5b5035919050565b60008060008060006080868803121561310557600080fd5b61310e86612e74565b9450602086013593506040860135925060608601356001600160401b0381111561313757600080fd5b61314388828901613041565b969995985093965092949392505050565b60006001600160401b0382111561316d5761316d612eed565b5060051b60200190565b600082601f83011261318857600080fd5b8135602061319582613154565b6040516131a28282612f03565b83815260059390931b85018201928281019150868411156131c257600080fd5b8286015b848110156131dd57803583529183019183016131c6565b509695505050505050565b600080600080600060a0868803121561320057600080fd5b61320986612e74565b945061321760208701612e74565b935060408601356001600160401b038082111561323357600080fd5b61323f89838a01613177565b9450606088013591508082111561325557600080fd5b61326189838a01613177565b9350608088013591508082111561327757600080fd5b5061328488828901612f2f565b9150509295509295909350565b600080604083850312156132a457600080fd5b823591506132b460208401612e74565b90509250929050565b600080604083850312156132d057600080fd5b82356001600160401b03808211156132e757600080fd5b818501915085601f8301126132fb57600080fd5b8135602061330882613154565b6040516133158282612f03565b83815260059390931b850182019282810191508984111561333557600080fd5b948201945b8386101561335a5761334b86612e74565b8252948201949082019061333a565b9650508601359250508082111561337057600080fd5b5061337d85828601613177565b9150509250929050565b600081518084526020808501945080840160005b838110156133b75781518752958201959082019060010161339b565b509495945050505050565b6020815260006112a56020830184613387565b6000602082840312156133e757600080fd5b6112a582612e74565b60008083601f84011261340257600080fd5b5081356001600160401b0381111561341957600080fd5b6020830191508360208260051b850101111561206d57600080fd5b6000806000806040858703121561344a57600080fd5b84356001600160401b038082111561346157600080fd5b61346d888389016133f0565b9096509450602087013591508082111561348657600080fd5b506130c8878288016133f0565b600080604083850312156134a657600080fd5b50508035926020909101359150565b80151581146108d757600080fd5b600080604083850312156134d657600080fd5b6134df83612e74565b915060208301356134ef816134b5565b809150509250929050565b6000806040838503121561350d57600080fd5b61351683612e74565b91506132b460208401612e74565b600080600080600060a0868803121561353c57600080fd5b61354586612e74565b945061355360208701612e74565b9350604086013592506060860135915060808601356001600160401b0381111561357c57600080fd5b61328488828901612f2f565b6000806040838503121561359b57600080fd5b6135a483612e74565b915060208301356001600160401b038111156135bf57600080fd5b61337d85828601612f2f565b6020808252602b908201527f4d75737420686176652061646d696e20726f6c6520746f20706572666f726d2060408201526a3a3434b99030b1ba34b7b760a91b606082015260800190565b60208082526015908201527414da59db985d1d5c99481a185cc8195e1c1a5c9959605a1b604082015260600190565b6bffffffffffffffffffffffff19606097881b81168252601482019690965260348101949094529190941b90921660548201526068810192909252608882015260a80190565b6020808252600e908201526d24b73b30b634b21039b4b3b732b960911b604082015260600190565b634e487b7160e01b600052601160045260246000fd5b80820180821115610899576108996136b3565b600181811c908216806136f057607f821691505b60208210810361371057634e487b7160e01b600052602260045260246000fd5b50919050565b6020808252602e908201527f455243313135353a2063616c6c6572206973206e6f7420746f6b656e206f776e60408201526d195c881bdc88185c1c1c9bdd995960921b606082015260800190565b634e487b7160e01b600052603260045260246000fd5b60006001820161378c5761378c6136b3565b5060010190565b6000602082840312156137a557600080fd5b81356112a5816134b5565b6000602082840312156137c257600080fd5b5051919050565b6000602082840312156137db57600080fd5b81516112a5816134b5565b601f821115610cb957600081815260208120601f850160051c8101602086101561380d5750805b601f850160051c820191505b81811015611ab757828155600101613819565b81516001600160401b0381111561384557613845612eed565b6138598161385384546136dc565b846137e6565b602080601f83116001811461388e57600084156138765750858301515b600019600386901b1c1916600185901b178555611ab7565b600085815260208120601f198616915b828110156138bd5788860151825594840194600190910190840161389e565b50858210156138db5787850151600019600388901b60f8161c191681555b5050505050600190811b01905550565b60208082526025908201527f455243313135353a207472616e7366657220746f20746865207a65726f206164604082015264647265737360d81b606082015260800190565b6020808252602a908201527f455243313135353a20696e73756666696369656e742062616c616e636520666f60408201526939103a3930b739b332b960b11b606082015260800190565b60408152600061398d6040830185613387565b828103602084015261399f8185613387565b95945050505050565b6020808252602b908201527f496e697469616c697a61626c653a20636f6e7472616374206973206e6f74206960408201526a6e697469616c697a696e6760a81b606082015260800190565b634e487b7160e01b600052602160045260246000fd5b6001600160a01b0386811682528516602082015260a060408201819052600090613a3590830186613387565b8281036060840152613a478186613387565b90508281036080840152613a5b8185613002565b98975050505050505050565b600060208284031215613a7957600080fd5b81516112a581612eba565b600060033d1115613a9d5760046000803e5060005160e01c5b90565b600060443d1015613aae5790565b6040516003193d81016004833e81513d6001600160401b038160248401118184111715613add57505050505090565b8285019150815181811115613af55750505050505090565b843d8701016020828501011115613b0f5750505050505090565b613b1e60208286010187612f03565b509095945050505050565b60208082526028908201527f455243313135353a204552433131353552656365697665722072656a656374656040820152676420746f6b656e7360c01b606082015260800190565b7f416363657373436f6e74726f6c3a206163636f756e7420000000000000000000815260008351613ba9816017850160208801612fde565b7001034b99036b4b9b9b4b733903937b6329607d1b6017918401918201528351613bda816028840160208801612fde565b01602801949350505050565b6001600160a01b03868116825285166020820152604081018490526060810183905260a060808201819052600090613c2090830184613002565b979650505050505050565b8082028115828204841417610899576108996136b3565b600081613c5157613c516136b3565b506000190190565b81810381811115610899576108996136b3565b634e487b7160e01b600052603160045260246000fdfed980155b32cf66e6af51e0972d64b9d5efe0e6f237dfaa4bdc83f990dd79e9c8b19546dff01e856fb3f010c267a7b1c60363cf8a4664e21cc89c26224620214e65d7a28e3265b37a6474929f336521b332c1681b933f6cb9f3376673440d862ae2f4eaae4a9751e85a3e4a7b9587827a877f29914755229b07a7b2da98285f70a2646970667358221220009b47ea62d4ea043601e902d94bc0164a010aa2388ef35db53bc086f9d3c9e564736f6c63430008130033",
  "devdoc": {
    "author": "Untangled",
    "events": {
      "ApprovalForAll(address,address,bool)": {
        "details": "Emitted when `account` grants or revokes permission to `operator` to transfer their tokens, according to `approved`."
      },
      "Initialized(uint8)": {
        "details": "Triggered when the contract has been initialized or reinitialized."
      },
      "Paused(address)": {
        "details": "Emitted when the pause is triggered by `account`."
      },
      "RoleAdminChanged(bytes32,bytes32,bytes32)": {
        "details": "Emitted when `newAdminRole` is set as ``role``'s admin role, replacing `previousAdminRole` `DEFAULT_ADMIN_ROLE` is the starting admin for all roles, despite {RoleAdminChanged} not being emitted signaling this. _Available since v3.1._"
      },
      "RoleGranted(bytes32,address,address)": {
        "details": "Emitted when `account` is granted `role`. `sender` is the account that originated the contract call, an admin role bearer except when using {AccessControl-_setupRole}."
      },
      "RoleRevoked(bytes32,address,address)": {
        "details": "Emitted when `account` is revoked `role`. `sender` is the account that originated the contract call:   - if using `revokeRole`, it is the admin role bearer   - if using `renounceRole`, it is the role bearer (i.e. `account`)"
      },
      "TransferBatch(address,address,address,uint256[],uint256[])": {
        "details": "Equivalent to multiple {TransferSingle} events, where `operator`, `from` and `to` are the same for all transfers."
      },
      "TransferSingle(address,address,address,uint256,uint256)": {
        "details": "Emitted when `value` tokens of token type `id` are transferred from `from` to `to` by `operator`."
      },
      "URI(string,uint256)": {
        "details": "Emitted when the URI for token type `id` changes to `value`, if it is a non-programmatic URI. If an {URI} event was emitted for `id`, the standard https://eips.ethereum.org/EIPS/eip-1155#metadata-extensions[guarantees] that `value` will equal the value returned by {IERC1155MetadataURI-uri}."
      },
      "Unpaused(address)": {
        "details": "Emitted when the pause is lifted by `account`."
      }
    },
    "kind": "dev",
    "methods": {
      "balanceOf(address,uint256)": {
        "details": "See {IERC1155-balanceOf}. Requirements: - `account` cannot be the zero address."
      },
      "balanceOfBatch(address[],uint256[])": {
        "details": "See {IERC1155-balanceOfBatch}. Requirements: - `accounts` and `ids` must have the same length."
      },
      "burn(address,uint256,uint256,bytes)": {
        "params": {
          "account": "The account which currently owns the UID",
          "expiresAt": "The expiration time of the signature",
          "id": "The id representing the KYC type of the UniqueIdentity",
          "signature": "An EIP-191 signature of the corresponding burn params:                  (account, id, expiresAt, address(this), nonces[account], block.chainid)                  from an address with the SIGNER_ROLE."
        }
      },
      "burnFrom(address,uint256)": {
        "params": {
          "account": "The account which currently owns the UID",
          "id": "The id representing the KYC type of the UniqueIdentity"
        }
      },
      "getRoleAdmin(bytes32)": {
        "details": "Returns the admin role that controls `role`. See {grantRole} and {revokeRole}. To change a role's admin, use {_setRoleAdmin}."
      },
      "getRoleMember(bytes32,uint256)": {
        "details": "Returns one of the accounts that have `role`. `index` must be a value between 0 and {getRoleMemberCount}, non-inclusive. Role bearers are not sorted in any particular way, and their ordering may change at any point. WARNING: When using {getRoleMember} and {getRoleMemberCount}, make sure you perform all queries on the same block. See the following https://forum.openzeppelin.com/t/iterating-over-elements-on-enumerableset-in-openzeppelin-contracts/2296[forum post] for more information."
      },
      "getRoleMemberCount(bytes32)": {
        "details": "Returns the number of accounts that have `role`. Can be used together with {getRoleMember} to enumerate all bearers of a role."
      },
      "grantRole(bytes32,address)": {
        "details": "Grants `role` to `account`. If `account` had not been already granted `role`, emits a {RoleGranted} event. Requirements: - the caller must have ``role``'s admin role. May emit a {RoleGranted} event."
      },
      "hasRole(bytes32,address)": {
        "details": "Returns `true` if `account` has been granted `role`."
      },
      "isApprovedForAll(address,address)": {
        "details": "See {IERC1155-isApprovedForAll}."
      },
      "mint(uint256,uint256,bytes)": {
        "params": {
          "expiresAt": "The expiration time of the signature",
          "id": "The id representing the KYC type of the UniqueIdentity",
          "signature": "An EIP-191 signature of the corresponding mint params:                  account, id, expiresAt, address(this), nonces[account], block.chainid                  from an address with the SIGNER_ROLE."
        }
      },
      "mintTo(address,uint256,uint256,bytes)": {
        "params": {
          "expiresAt": "The expiration time of the signature",
          "id": "The id representing the KYC type of the UniqueIdentity",
          "recipient": "The recipient address to be minted to.",
          "signature": "An EIP-191 signature of the corresponding mintTo params:                  (account, recipient, id, expiresAt, address(this), nonces[account], block.chainid)                  from an address with the SIGNER_ROLE."
        }
      },
      "name()": {
        "details": "Gets the token name.",
        "returns": {
          "_0": "string representing the token name"
        }
      },
      "pause()": {
        "details": "Pauses all token transfers. See {ERC1155Pausable} and {Pausable-_pause}. Requirements: - the caller must have the `PAUSER_ROLE`."
      },
      "paused()": {
        "details": "Returns true if the contract is paused, and false otherwise."
      },
      "renounceRole(bytes32,address)": {
        "details": "Revokes `role` from the calling account. Roles are often managed via {grantRole} and {revokeRole}: this function's purpose is to provide a mechanism for accounts to lose their privileges if they are compromised (such as when a trusted device is misplaced). If the calling account had been revoked `role`, emits a {RoleRevoked} event. Requirements: - the caller must be `account`. May emit a {RoleRevoked} event."
      },
      "revokeRole(bytes32,address)": {
        "details": "Revokes `role` from `account`. If `account` had been granted `role`, emits a {RoleRevoked} event. Requirements: - the caller must have ``role``'s admin role. May emit a {RoleRevoked} event."
      },
      "safeBatchTransferFrom(address,address,uint256[],uint256[],bytes)": {
        "details": "See {IERC1155-safeBatchTransferFrom}."
      },
      "safeTransferFrom(address,address,uint256,uint256,bytes)": {
        "details": "See {IERC1155-safeTransferFrom}."
      },
      "setApprovalForAll(address,bool)": {
        "details": "See {IERC1155-setApprovalForAll}."
      },
      "supportsInterface(bytes4)": {
        "details": "See {IERC165-supportsInterface}."
      },
      "symbol()": {
        "details": "Gets the token symbol.",
        "returns": {
          "_0": "string representing the token symbol"
        }
      },
      "unpause()": {
        "details": "Unpauses all token transfers. See {ERC1155Pausable} and {Pausable-_unpause}. Requirements: - the caller must have the `PAUSER_ROLE`."
      },
      "uri(uint256)": {
        "details": "See {IERC1155MetadataURI-uri}. This implementation returns the same URI for *all* token types. It relies on the token type ID substitution mechanism https://eips.ethereum.org/EIPS/eip-1155#metadata[defined in the EIP]. Clients calling this function must replace the `\\{id\\}` substring with the actual token type ID."
      }
    },
    "stateVariables": {
      "nonces": {
        "details": "We include a nonce in every hashed message, and increment the nonce as part of a state-changing operation, so as to prevent replay attacks, i.e. the reuse of a signature."
      }
    },
    "title": "UniqueIdentity",
    "version": 1
  },
  "userdoc": {
    "kind": "user",
    "methods": {
      "burn(address,uint256,uint256,bytes)": {
        "notice": "Burn a UniqueIdentity token of `id` from the `account`"
      },
      "burnFrom(address,uint256)": {
        "notice": "Burn a UniqueIdentity token of `id` from the `account` by using SUPPER_ADMIN wallet"
      },
      "mint(uint256,uint256,bytes)": {
        "notice": "Mint a new UniqueIdentity token to the msgSender"
      },
      "mintTo(address,uint256,uint256,bytes)": {
        "notice": "Mint a new UniqueIdentity token to the `recipient`"
      }
    },
    "notice": "UniqueIdentity is an ERC1155-compliant contract for representing the identity verification status of addresses.",
    "version": 1
  },
  "storageLayout": {
    "storage": [
      {
        "astId": 759,
        "contract": "contracts/uid/UniqueIdentity.sol:UniqueIdentity",
        "label": "_initialized",
        "offset": 0,
        "slot": "0",
        "type": "t_uint8"
      },
      {
        "astId": 762,
        "contract": "contracts/uid/UniqueIdentity.sol:UniqueIdentity",
        "label": "_initializing",
        "offset": 1,
        "slot": "0",
        "type": "t_bool"
      },
      {
        "astId": 4972,
        "contract": "contracts/uid/UniqueIdentity.sol:UniqueIdentity",
        "label": "__gap",
        "offset": 0,
        "slot": "1",
        "type": "t_array(t_uint256)50_storage"
      },
      {
        "astId": 6262,
        "contract": "contracts/uid/UniqueIdentity.sol:UniqueIdentity",
        "label": "__gap",
        "offset": 0,
        "slot": "51",
        "type": "t_array(t_uint256)50_storage"
      },
      {
        "astId": 184,
        "contract": "contracts/uid/UniqueIdentity.sol:UniqueIdentity",
        "label": "_roles",
        "offset": 0,
        "slot": "101",
        "type": "t_mapping(t_bytes32,t_struct(RoleData)179_storage)"
      },
      {
        "astId": 479,
        "contract": "contracts/uid/UniqueIdentity.sol:UniqueIdentity",
        "label": "__gap",
        "offset": 0,
        "slot": "102",
        "type": "t_array(t_uint256)49_storage"
      },
      {
        "astId": 33,
        "contract": "contracts/uid/UniqueIdentity.sol:UniqueIdentity",
        "label": "_roleMembers",
        "offset": 0,
        "slot": "151",
        "type": "t_mapping(t_bytes32,t_struct(AddressSet)7572_storage)"
      },
      {
        "astId": 143,
        "contract": "contracts/uid/UniqueIdentity.sol:UniqueIdentity",
        "label": "__gap",
        "offset": 0,
        "slot": "152",
        "type": "t_array(t_uint256)49_storage"
      },
      {
        "astId": 1161,
        "contract": "contracts/uid/UniqueIdentity.sol:UniqueIdentity",
        "label": "_balances",
        "offset": 0,
        "slot": "201",
        "type": "t_mapping(t_uint256,t_mapping(t_address,t_uint256))"
      },
      {
        "astId": 1167,
        "contract": "contracts/uid/UniqueIdentity.sol:UniqueIdentity",
        "label": "_operatorApprovals",
        "offset": 0,
        "slot": "202",
        "type": "t_mapping(t_address,t_mapping(t_address,t_bool))"
      },
      {
        "astId": 1169,
        "contract": "contracts/uid/UniqueIdentity.sol:UniqueIdentity",
        "label": "_uri",
        "offset": 0,
        "slot": "203",
        "type": "t_string_storage"
      },
      {
        "astId": 2376,
        "contract": "contracts/uid/UniqueIdentity.sol:UniqueIdentity",
        "label": "__gap",
        "offset": 0,
        "slot": "204",
        "type": "t_array(t_uint256)47_storage"
      },
      {
        "astId": 942,
        "contract": "contracts/uid/UniqueIdentity.sol:UniqueIdentity",
        "label": "_paused",
        "offset": 0,
        "slot": "251",
        "type": "t_bool"
      },
      {
        "astId": 1047,
        "contract": "contracts/uid/UniqueIdentity.sol:UniqueIdentity",
        "label": "__gap",
        "offset": 0,
        "slot": "252",
        "type": "t_array(t_uint256)49_storage"
      },
      {
        "astId": 2610,
        "contract": "contracts/uid/UniqueIdentity.sol:UniqueIdentity",
        "label": "__gap",
        "offset": 0,
        "slot": "301",
        "type": "t_array(t_uint256)50_storage"
      },
      {
        "astId": 10987,
        "contract": "contracts/uid/UniqueIdentity.sol:UniqueIdentity",
        "label": "__gap",
        "offset": 0,
        "slot": "351",
        "type": "t_array(t_uint256)50_storage"
      },
      {
        "astId": 25368,
        "contract": "contracts/uid/UniqueIdentity.sol:UniqueIdentity",
        "label": "nonces",
        "offset": 0,
        "slot": "401",
        "type": "t_mapping(t_address,t_uint256)"
      },
      {
        "astId": 25372,
        "contract": "contracts/uid/UniqueIdentity.sol:UniqueIdentity",
        "label": "supportedUIDTypes",
        "offset": 0,
        "slot": "402",
        "type": "t_mapping(t_uint256,t_bool)"
      }
    ],
    "types": {
      "t_address": {
        "encoding": "inplace",
        "label": "address",
        "numberOfBytes": "20"
      },
      "t_array(t_bytes32)dyn_storage": {
        "base": "t_bytes32",
        "encoding": "dynamic_array",
        "label": "bytes32[]",
        "numberOfBytes": "32"
      },
      "t_array(t_uint256)47_storage": {
        "base": "t_uint256",
        "encoding": "inplace",
        "label": "uint256[47]",
        "numberOfBytes": "1504"
      },
      "t_array(t_uint256)49_storage": {
        "base": "t_uint256",
        "encoding": "inplace",
        "label": "uint256[49]",
        "numberOfBytes": "1568"
      },
      "t_array(t_uint256)50_storage": {
        "base": "t_uint256",
        "encoding": "inplace",
        "label": "uint256[50]",
        "numberOfBytes": "1600"
      },
      "t_bool": {
        "encoding": "inplace",
        "label": "bool",
        "numberOfBytes": "1"
      },
      "t_bytes32": {
        "encoding": "inplace",
        "label": "bytes32",
        "numberOfBytes": "32"
      },
      "t_mapping(t_address,t_bool)": {
        "encoding": "mapping",
        "key": "t_address",
        "label": "mapping(address => bool)",
        "numberOfBytes": "32",
        "value": "t_bool"
      },
      "t_mapping(t_address,t_mapping(t_address,t_bool))": {
        "encoding": "mapping",
        "key": "t_address",
        "label": "mapping(address => mapping(address => bool))",
        "numberOfBytes": "32",
        "value": "t_mapping(t_address,t_bool)"
      },
      "t_mapping(t_address,t_uint256)": {
        "encoding": "mapping",
        "key": "t_address",
        "label": "mapping(address => uint256)",
        "numberOfBytes": "32",
        "value": "t_uint256"
      },
      "t_mapping(t_bytes32,t_struct(AddressSet)7572_storage)": {
        "encoding": "mapping",
        "key": "t_bytes32",
        "label": "mapping(bytes32 => struct EnumerableSetUpgradeable.AddressSet)",
        "numberOfBytes": "32",
        "value": "t_struct(AddressSet)7572_storage"
      },
      "t_mapping(t_bytes32,t_struct(RoleData)179_storage)": {
        "encoding": "mapping",
        "key": "t_bytes32",
        "label": "mapping(bytes32 => struct AccessControlUpgradeable.RoleData)",
        "numberOfBytes": "32",
        "value": "t_struct(RoleData)179_storage"
      },
      "t_mapping(t_bytes32,t_uint256)": {
        "encoding": "mapping",
        "key": "t_bytes32",
        "label": "mapping(bytes32 => uint256)",
        "numberOfBytes": "32",
        "value": "t_uint256"
      },
      "t_mapping(t_uint256,t_bool)": {
        "encoding": "mapping",
        "key": "t_uint256",
        "label": "mapping(uint256 => bool)",
        "numberOfBytes": "32",
        "value": "t_bool"
      },
      "t_mapping(t_uint256,t_mapping(t_address,t_uint256))": {
        "encoding": "mapping",
        "key": "t_uint256",
        "label": "mapping(uint256 => mapping(address => uint256))",
        "numberOfBytes": "32",
        "value": "t_mapping(t_address,t_uint256)"
      },
      "t_string_storage": {
        "encoding": "bytes",
        "label": "string",
        "numberOfBytes": "32"
      },
      "t_struct(AddressSet)7572_storage": {
        "encoding": "inplace",
        "label": "struct EnumerableSetUpgradeable.AddressSet",
        "members": [
          {
            "astId": 7571,
            "contract": "contracts/uid/UniqueIdentity.sol:UniqueIdentity",
            "label": "_inner",
            "offset": 0,
            "slot": "0",
            "type": "t_struct(Set)7257_storage"
          }
        ],
        "numberOfBytes": "64"
      },
      "t_struct(RoleData)179_storage": {
        "encoding": "inplace",
        "label": "struct AccessControlUpgradeable.RoleData",
        "members": [
          {
            "astId": 176,
            "contract": "contracts/uid/UniqueIdentity.sol:UniqueIdentity",
            "label": "members",
            "offset": 0,
            "slot": "0",
            "type": "t_mapping(t_address,t_bool)"
          },
          {
            "astId": 178,
            "contract": "contracts/uid/UniqueIdentity.sol:UniqueIdentity",
            "label": "adminRole",
            "offset": 0,
            "slot": "1",
            "type": "t_bytes32"
          }
        ],
        "numberOfBytes": "64"
      },
      "t_struct(Set)7257_storage": {
        "encoding": "inplace",
        "label": "struct EnumerableSetUpgradeable.Set",
        "members": [
          {
            "astId": 7252,
            "contract": "contracts/uid/UniqueIdentity.sol:UniqueIdentity",
            "label": "_values",
            "offset": 0,
            "slot": "0",
            "type": "t_array(t_bytes32)dyn_storage"
          },
          {
            "astId": 7256,
            "contract": "contracts/uid/UniqueIdentity.sol:UniqueIdentity",
            "label": "_indexes",
            "offset": 0,
            "slot": "1",
            "type": "t_mapping(t_bytes32,t_uint256)"
          }
        ],
        "numberOfBytes": "64"
      },
      "t_uint256": {
        "encoding": "inplace",
        "label": "uint256",
        "numberOfBytes": "32"
      },
      "t_uint8": {
        "encoding": "inplace",
        "label": "uint8",
        "numberOfBytes": "1"
      }
    }
  }
}