{
  "address": "0x0963312Ed546cF3fA4f59168F123a5621437520A",
  "abi": [
    {
      "anonymous": false,
      "inputs": [
        {
          "indexed": false,
          "internalType": "uint8",
          "name": "version",
          "type": "uint8"
        }
      ],
      "name": "Initialized",
      "type": "event"
    },
    {
      "anonymous": false,
      "inputs": [
        {
          "indexed": true,
          "internalType": "bytes32",
          "name": "role",
          "type": "bytes32"
        },
        {
          "indexed": true,
          "internalType": "bytes32",
          "name": "previousAdminRole",
          "type": "bytes32"
        },
        {
          "indexed": true,
          "internalType": "bytes32",
          "name": "newAdminRole",
          "type": "bytes32"
        }
      ],
      "name": "RoleAdminChanged",
      "type": "event"
    },
    {
      "anonymous": false,
      "inputs": [
        {
          "indexed": true,
          "internalType": "bytes32",
          "name": "role",
          "type": "bytes32"
        },
        {
          "indexed": true,
          "internalType": "address",
          "name": "account",
          "type": "address"
        },
        {
          "indexed": true,
          "internalType": "address",
          "name": "sender",
          "type": "address"
        }
      ],
      "name": "RoleGranted",
      "type": "event"
    },
    {
      "anonymous": false,
      "inputs": [
        {
          "indexed": true,
          "internalType": "bytes32",
          "name": "role",
          "type": "bytes32"
        },
        {
          "indexed": true,
          "internalType": "address",
          "name": "account",
          "type": "address"
        },
        {
          "indexed": true,
          "internalType": "address",
          "name": "sender",
          "type": "address"
        }
      ],
      "name": "RoleRevoked",
      "type": "event"
    },
    {
      "inputs": [],
      "name": "DEFAULT_ADMIN_ROLE",
      "outputs": [
        {
          "internalType": "bytes32",
          "name": "",
          "type": "bytes32"
        }
      ],
      "stateMutability": "view",
      "type": "function"
    },
    {
      "inputs": [],
      "name": "ID_TYPE_0",
      "outputs": [
        {
          "internalType": "uint256",
          "name": "",
          "type": "uint256"
        }
      ],
      "stateMutability": "view",
      "type": "function"
    },
    {
      "inputs": [],
      "name": "ID_TYPE_1",
      "outputs": [
        {
          "internalType": "uint256",
          "name": "",
          "type": "uint256"
        }
      ],
      "stateMutability": "view",
      "type": "function"
    },
    {
      "inputs": [],
      "name": "ID_TYPE_10",
      "outputs": [
        {
          "internalType": "uint256",
          "name": "",
          "type": "uint256"
        }
      ],
      "stateMutability": "view",
      "type": "function"
    },
    {
      "inputs": [],
      "name": "ID_TYPE_2",
      "outputs": [
        {
          "internalType": "uint256",
          "name": "",
          "type": "uint256"
        }
      ],
      "stateMutability": "view",
      "type": "function"
    },
    {
      "inputs": [],
      "name": "ID_TYPE_3",
      "outputs": [
        {
          "internalType": "uint256",
          "name": "",
          "type": "uint256"
        }
      ],
      "stateMutability": "view",
      "type": "function"
    },
    {
      "inputs": [],
      "name": "ID_TYPE_4",
      "outputs": [
        {
          "internalType": "uint256",
          "name": "",
          "type": "uint256"
        }
      ],
      "stateMutability": "view",
      "type": "function"
    },
    {
      "inputs": [],
      "name": "ID_TYPE_5",
      "outputs": [
        {
          "internalType": "uint256",
          "name": "",
          "type": "uint256"
        }
      ],
      "stateMutability": "view",
      "type": "function"
    },
    {
      "inputs": [],
      "name": "ID_TYPE_6",
      "outputs": [
        {
          "internalType": "uint256",
          "name": "",
          "type": "uint256"
        }
      ],
      "stateMutability": "view",
      "type": "function"
    },
    {
      "inputs": [],
      "name": "ID_TYPE_7",
      "outputs": [
        {
          "internalType": "uint256",
          "name": "",
          "type": "uint256"
        }
      ],
      "stateMutability": "view",
      "type": "function"
    },
    {
      "inputs": [],
      "name": "ID_TYPE_8",
      "outputs": [
        {
          "internalType": "uint256",
          "name": "",
          "type": "uint256"
        }
      ],
      "stateMutability": "view",
      "type": "function"
    },
    {
      "inputs": [],
      "name": "ID_TYPE_9",
      "outputs": [
        {
          "internalType": "uint256",
          "name": "",
          "type": "uint256"
        }
      ],
      "stateMutability": "view",
      "type": "function"
    },
    {
      "inputs": [
        {
          "internalType": "uint256",
          "name": "",
          "type": "uint256"
        }
      ],
      "name": "allIdTypes",
      "outputs": [
        {
          "internalType": "uint256",
          "name": "",
          "type": "uint256"
        }
      ],
      "stateMutability": "view",
      "type": "function"
    },
    {
      "inputs": [],
      "name": "getAllIdTypes",
      "outputs": [
        {
          "internalType": "uint256[]",
          "name": "",
          "type": "uint256[]"
        }
      ],
      "stateMutability": "view",
      "type": "function"
    },
    {
      "inputs": [
        {
          "internalType": "bytes32",
          "name": "role",
          "type": "bytes32"
        }
      ],
      "name": "getRoleAdmin",
      "outputs": [
        {
          "internalType": "bytes32",
          "name": "",
          "type": "bytes32"
        }
      ],
      "stateMutability": "view",
      "type": "function"
    },
    {
      "inputs": [
        {
          "internalType": "bytes32",
          "name": "role",
          "type": "bytes32"
        },
        {
          "internalType": "uint256",
          "name": "index",
          "type": "uint256"
        }
      ],
      "name": "getRoleMember",
      "outputs": [
        {
          "internalType": "address",
          "name": "",
          "type": "address"
        }
      ],
      "stateMutability": "view",
      "type": "function"
    },
    {
      "inputs": [
        {
          "internalType": "bytes32",
          "name": "role",
          "type": "bytes32"
        }
      ],
      "name": "getRoleMemberCount",
      "outputs": [
        {
          "internalType": "uint256",
          "name": "",
          "type": "uint256"
        }
      ],
      "stateMutability": "view",
      "type": "function"
    },
    {
      "inputs": [
        {
          "internalType": "address",
          "name": "account",
          "type": "address"
        }
      ],
      "name": "go",
      "outputs": [
        {
          "internalType": "bool",
          "name": "",
          "type": "bool"
        }
      ],
      "stateMutability": "view",
      "type": "function"
    },
    {
      "inputs": [
        {
          "internalType": "address",
          "name": "account",
          "type": "address"
        },
        {
          "internalType": "uint256[]",
          "name": "onlyIdTypes",
          "type": "uint256[]"
        }
      ],
      "name": "goOnlyIdTypes",
      "outputs": [
        {
          "internalType": "bool",
          "name": "",
          "type": "bool"
        }
      ],
      "stateMutability": "view",
      "type": "function"
    },
    {
      "inputs": [
        {
          "internalType": "bytes32",
          "name": "role",
          "type": "bytes32"
        },
        {
          "internalType": "address",
          "name": "account",
          "type": "address"
        }
      ],
      "name": "grantRole",
      "outputs": [],
      "stateMutability": "nonpayable",
      "type": "function"
    },
    {
      "inputs": [
        {
          "internalType": "bytes32",
          "name": "role",
          "type": "bytes32"
        },
        {
          "internalType": "address",
          "name": "account",
          "type": "address"
        }
      ],
      "name": "hasRole",
      "outputs": [
        {
          "internalType": "bool",
          "name": "",
          "type": "bool"
        }
      ],
      "stateMutability": "view",
      "type": "function"
    },
    {
      "inputs": [],
      "name": "initZapperRole",
      "outputs": [],
      "stateMutability": "nonpayable",
      "type": "function"
    },
    {
      "inputs": [
        {
          "internalType": "address",
          "name": "owner",
          "type": "address"
        },
        {
          "internalType": "contract IUniqueIdentity",
          "name": "_uniqueIdentity",
          "type": "address"
        }
      ],
      "name": "initialize",
      "outputs": [],
      "stateMutability": "nonpayable",
      "type": "function"
    },
    {
      "inputs": [],
      "name": "performUpgrade",
      "outputs": [],
      "stateMutability": "nonpayable",
      "type": "function"
    },
    {
      "inputs": [
        {
          "internalType": "bytes32",
          "name": "role",
          "type": "bytes32"
        },
        {
          "internalType": "address",
          "name": "account",
          "type": "address"
        }
      ],
      "name": "renounceRole",
      "outputs": [],
      "stateMutability": "nonpayable",
      "type": "function"
    },
    {
      "inputs": [
        {
          "internalType": "bytes32",
          "name": "role",
          "type": "bytes32"
        },
        {
          "internalType": "address",
          "name": "account",
          "type": "address"
        }
      ],
      "name": "revokeRole",
      "outputs": [],
      "stateMutability": "nonpayable",
      "type": "function"
    },
    {
      "inputs": [
        {
          "internalType": "bytes4",
          "name": "interfaceId",
          "type": "bytes4"
        }
      ],
      "name": "supportsInterface",
      "outputs": [
        {
          "internalType": "bool",
          "name": "",
          "type": "bool"
        }
      ],
      "stateMutability": "view",
      "type": "function"
    },
    {
      "inputs": [],
      "name": "uniqueIdentity",
      "outputs": [
        {
          "internalType": "contract IUniqueIdentity",
          "name": "",
          "type": "address"
        }
      ],
      "stateMutability": "view",
      "type": "function"
    }
  ],
  "transactionHash": "0x2cba1b627294fc15dd26ac6490fdd010e1975f474db38ed4e0aacd5b358fc0bb",
  "args": [],
  "numDeployments": 1,
  "solcInputHash": "1baf9673ffed0a4f05d863965d32ab54",
  "bytecode": "0x608060405234801561001057600080fd5b50611552806100206000396000f3fe608060405234801561001057600080fd5b50600436106101c45760003560e01c80639010d07c116100f9578063d547741f11610097578063ec2e8a7511610071578063ec2e8a7514610354578063f2b607811461035c578063f66256bf1461036f578063fb285ed01461038257600080fd5b8063d547741f14610331578063ddd8f68714610344578063e57a2a501461034c57600080fd5b8063a217fddf116100d3578063a217fddf146102f9578063a4eca0c214610301578063ca15c87314610316578063d00d472e1461032957600080fd5b80639010d07c146102bb57806391d14854146102e65780639b56d788146102f957600080fd5b806336568abe116101665780635344626a116101405780635344626a1461029b578063701d240a146102a3578063801dfa90146102ab57806380f87802146102b357600080fd5b806336568abe1461026d578063479e743c14610280578063485cc9551461028857600080fd5b8063248a9ca3116101a2578063248a9ca31461021a5780632e82d8951461023d5780632f2ff15d146102455780633434e7491461025a57600080fd5b806301ffc9a7146101c95780631484bddd146101f15780631852f20014610207575b600080fd5b6101dc6101d73660046110d9565b61038a565b60405190151581526020015b60405180910390f35b6101f9600881565b6040519081526020016101e8565b6101dc61021536600461112e565b6103b5565b6101f9610228366004611201565b60009081526065602052604090206001015490565b6101f9600381565b61025861025336600461121a565b610618565b005b6101dc61026836600461124a565b610642565b61025861027b36600461121a565b610650565b6101f9600581565b610258610296366004611267565b6106ce565b6101f9600681565b6101f9600181565b6101f9600781565b6101f9600281565b6102ce6102c9366004611295565b6108f9565b6040516001600160a01b0390911681526020016101e8565b6101dc6102f436600461121a565b610918565b6101f9600081565b610309610943565b6040516101e891906112b7565b6101f9610324366004611201565b6109c2565b6102586109d9565b61025861033f36600461121a565b610a4b565b6101f9600a81565b6101f9600981565b6101f9600481565b6101f961036a366004611201565b610a70565b60c9546102ce906001600160a01b031681565b610258610a87565b60006001600160e01b03198216635a05180f60e01b14806103af57506103af82610af3565b92915050565b60006001600160a01b0383166104125760405162461bcd60e51b815260206004820152601d60248201527f5a65726f2061646472657373206973206e6f7420676f2d6c697374656400000060448201526064015b60405180910390fd5b61043c7fd624b04b6a86de88625cc0780256b85157c5a615db56d1357e0a97a30fde276784610918565b15610449575060016103af565b60005b825181101561060e576000838281518110610469576104696112fb565b602090810291909101015160c954604051627eeac760e11b81526001600160a01b038881166004830152602482018490529293506000929091169062fdd58e90604401602060405180830381865afa1580156104c9573d6000803e3d6000fd5b505050506040513d601f19601f820116820180604052508101906104ed9190611311565b9050801561050157600193505050506103af565b60c954604051627eeac760e11b8152326004820152602481018490526000916001600160a01b03169062fdd58e90604401602060405180830381865afa15801561054f573d6000803e3d6000fd5b505050506040513d601f19601f820116820180604052508101906105739190611311565b905080156105fa5760c95460405163e985e9c560e01b81523260048201526001600160a01b0389811660248301529091169063e985e9c590604401602060405180830381865afa1580156105cb573d6000803e3d6000fd5b505050506040513d601f19601f820116820180604052508101906105ef919061132a565b9450505050506103af565b5050508061060790611362565b905061044c565b5060009392505050565b60008281526065602052604090206001015461063381610b28565b61063d8383610b35565b505050565b60006103af82610215610943565b6001600160a01b03811633146106c05760405162461bcd60e51b815260206004820152602f60248201527f416363657373436f6e74726f6c3a2063616e206f6e6c792072656e6f756e636560448201526e103937b632b9903337b91039b2b63360891b6064820152608401610409565b6106ca8282610b57565b5050565b600054610100900460ff16158080156106ee5750600054600160ff909116105b806107085750303b158015610708575060005460ff166001145b61076b5760405162461bcd60e51b815260206004820152602e60248201527f496e697469616c697a61626c653a20636f6e747261637420697320616c72656160448201526d191e481a5b9a5d1a585b1a5e995960921b6064820152608401610409565b6000805460ff19166001179055801561078e576000805461ff0019166101001790555b6001600160a01b038316158015906107ae57506001600160a01b03821615155b6108205760405162461bcd60e51b815260206004820152603d60248201527f4f776e657220616e6420636f6e66696720616e6420556e697175654964656e7460448201527f697479206164647265737365732063616e6e6f7420626520656d7074790000006064820152608401610409565b610828610b79565b6108406000805160206114fd83398151915284610be4565b6108586000805160206114fd83398151915280610bee565b610894600060ca55600160cb55600260cc55600360cd55600460ce55600560cf55600660d055600760d155600860d255600960d355600a60d455565b60c980546001600160a01b0319166001600160a01b038416179055801561063d576000805461ff0019169055604051600181527f7f26b83ff96e1f2b6a682f133852f6798a09c465da95921460cefb38474024989060200160405180910390a1505050565b60008281526097602052604081206109119083610c39565b9392505050565b60009182526065602090815260408084206001600160a01b0393909316845291905290205460ff1690565b60408051600b808252610180820190925260609160009190602082016101608036833701905050905060005b81518110156109bc5760ca81600b811061098b5761098b6112fb565b015482828151811061099f5761099f6112fb565b6020908102919091010152806109b481611362565b91505061096f565b50919050565b60008181526097602052604081206103af90610c45565b6109f16000805160206114fd83398151915233610918565b610a0d5760405162461bcd60e51b81526004016104099061137b565b610a49600060ca55600160cb55600260cc55600360cd55600460ce55600560cf55600660d055600760d155600860d255600960d355600a60d455565b565b600082815260656020526040902060010154610a6681610b28565b61063d8383610b57565b60ca81600b8110610a8057600080fd5b0154905081565b610a9f6000805160206114fd83398151915233610918565b610abb5760405162461bcd60e51b81526004016104099061137b565b610a497fd624b04b6a86de88625cc0780256b85157c5a615db56d1357e0a97a30fde27676000805160206114fd833981519152610bee565b60006001600160e01b03198216637965db0b60e01b14806103af57506301ffc9a760e01b6001600160e01b03198316146103af565b610b328133610c4f565b50565b610b3f8282610ca8565b600082815260976020526040902061063d9082610d2e565b610b618282610d43565b600082815260976020526040902061063d9082610daa565b600054610100900460ff16610a495760405162461bcd60e51b815260206004820152602b60248201527f496e697469616c697a61626c653a20636f6e7472616374206973206e6f74206960448201526a6e697469616c697a696e6760a81b6064820152608401610409565b6106ca8282610b35565b600082815260656020526040808220600101805490849055905190918391839186917fbd79b86ffe0ab8e8776151514217cd7cacd52c909f66475c3af44e129f0b00ff9190a4505050565b60006109118383610dbf565b60006103af825490565b610c598282610918565b6106ca57610c6681610de9565b610c71836020610dfb565b604051602001610c829291906113ea565b60408051601f198184030181529082905262461bcd60e51b82526104099160040161145f565b610cb28282610918565b6106ca5760008281526065602090815260408083206001600160a01b03851684529091529020805460ff19166001179055610cea3390565b6001600160a01b0316816001600160a01b0316837f2f8788117e7eff1d82e926ec794901d17c78024a50270940304540a733656f0d60405160405180910390a45050565b6000610911836001600160a01b038416610f97565b610d4d8282610918565b156106ca5760008281526065602090815260408083206001600160a01b0385168085529252808320805460ff1916905551339285917ff6391f5c32d9c69d2a47ea670b442974b53935d1edc7fd64eb21e047a839171b9190a45050565b6000610911836001600160a01b038416610fe6565b6000826000018281548110610dd657610dd66112fb565b9060005260206000200154905092915050565b60606103af6001600160a01b03831660145b60606000610e0a836002611492565b610e159060026114a9565b67ffffffffffffffff811115610e2d57610e2d611118565b6040519080825280601f01601f191660200182016040528015610e57576020820181803683370190505b509050600360fc1b81600081518110610e7257610e726112fb565b60200101906001600160f81b031916908160001a905350600f60fb1b81600181518110610ea157610ea16112fb565b60200101906001600160f81b031916908160001a9053506000610ec5846002611492565b610ed09060016114a9565b90505b6001811115610f48576f181899199a1a9b1b9c1cb0b131b232b360811b85600f1660108110610f0457610f046112fb565b1a60f81b828281518110610f1a57610f1a6112fb565b60200101906001600160f81b031916908160001a90535060049490941c93610f41816114bc565b9050610ed3565b5083156109115760405162461bcd60e51b815260206004820181905260248201527f537472696e67733a20686578206c656e67746820696e73756666696369656e746044820152606401610409565b6000818152600183016020526040812054610fde575081546001818101845560008481526020808220909301849055845484825282860190935260409020919091556103af565b5060006103af565b600081815260018301602052604081205480156110cf57600061100a6001836114d3565b855490915060009061101e906001906114d3565b905081811461108357600086600001828154811061103e5761103e6112fb565b9060005260206000200154905080876000018481548110611061576110616112fb565b6000918252602080832090910192909255918252600188019052604090208390555b8554869080611094576110946114e6565b6001900381819060005260206000200160009055905585600101600086815260200190815260200160002060009055600193505050506103af565b60009150506103af565b6000602082840312156110eb57600080fd5b81356001600160e01b03198116811461091157600080fd5b6001600160a01b0381168114610b3257600080fd5b634e487b7160e01b600052604160045260246000fd5b6000806040838503121561114157600080fd5b823561114c81611103565b915060208381013567ffffffffffffffff8082111561116a57600080fd5b818601915086601f83011261117e57600080fd5b81358181111561119057611190611118565b8060051b604051601f19603f830116810181811085821117156111b5576111b5611118565b6040529182528482019250838101850191898311156111d357600080fd5b938501935b828510156111f1578435845293850193928501926111d8565b8096505050505050509250929050565b60006020828403121561121357600080fd5b5035919050565b6000806040838503121561122d57600080fd5b82359150602083013561123f81611103565b809150509250929050565b60006020828403121561125c57600080fd5b813561091181611103565b6000806040838503121561127a57600080fd5b823561128581611103565b9150602083013561123f81611103565b600080604083850312156112a857600080fd5b50508035926020909101359150565b6020808252825182820181905260009190848201906040850190845b818110156112ef578351835292840192918401916001016112d3565b50909695505050505050565b634e487b7160e01b600052603260045260246000fd5b60006020828403121561132357600080fd5b5051919050565b60006020828403121561133c57600080fd5b8151801515811461091157600080fd5b634e487b7160e01b600052601160045260246000fd5b6000600182016113745761137461134c565b5060010190565b6020808252602b908201527f4d75737420686176652061646d696e20726f6c6520746f20706572666f726d2060408201526a3a3434b99030b1ba34b7b760a91b606082015260800190565b60005b838110156113e15781810151838201526020016113c9565b50506000910152565b7f416363657373436f6e74726f6c3a206163636f756e74200000000000000000008152600083516114228160178501602088016113c6565b7001034b99036b4b9b9b4b733903937b6329607d1b60179184019182015283516114538160288401602088016113c6565b01602801949350505050565b602081526000825180602084015261147e8160408501602087016113c6565b601f01601f19169190910160400192915050565b80820281158282048414176103af576103af61134c565b808201808211156103af576103af61134c565b6000816114cb576114cb61134c565b506000190190565b818103818111156103af576103af61134c565b634e487b7160e01b600052603160045260246000fdfeb19546dff01e856fb3f010c267a7b1c60363cf8a4664e21cc89c26224620214ea2646970667358221220256ad7491417b7dd4ddd8a596e16f8f2d1dab15ce8794d6c611758410a111d0464736f6c63430008130033",
  "devdoc": {
    "author": "Untangled Team",
    "details": "Provides functions with UID",
    "events": {
      "Initialized(uint8)": {
        "details": "Triggered when the contract has been initialized or reinitialized."
      },
      "RoleAdminChanged(bytes32,bytes32,bytes32)": {
        "details": "Emitted when `newAdminRole` is set as ``role``'s admin role, replacing `previousAdminRole` `DEFAULT_ADMIN_ROLE` is the starting admin for all roles, despite {RoleAdminChanged} not being emitted signaling this. _Available since v3.1._"
      },
      "RoleGranted(bytes32,address,address)": {
        "details": "Emitted when `account` is granted `role`. `sender` is the account that originated the contract call, an admin role bearer except when using {AccessControl-_setupRole}."
      },
      "RoleRevoked(bytes32,address,address)": {
        "details": "Emitted when `account` is revoked `role`. `sender` is the account that originated the contract call:   - if using `revokeRole`, it is the admin role bearer   - if using `renounceRole`, it is the role bearer (i.e. `account`)"
      }
    },
    "kind": "dev",
    "methods": {
      "getRoleAdmin(bytes32)": {
        "details": "Returns the admin role that controls `role`. See {grantRole} and {revokeRole}. To change a role's admin, use {_setRoleAdmin}."
      },
      "getRoleMember(bytes32,uint256)": {
        "details": "Returns one of the accounts that have `role`. `index` must be a value between 0 and {getRoleMemberCount}, non-inclusive. Role bearers are not sorted in any particular way, and their ordering may change at any point. WARNING: When using {getRoleMember} and {getRoleMemberCount}, make sure you perform all queries on the same block. See the following https://forum.openzeppelin.com/t/iterating-over-elements-on-enumerableset-in-openzeppelin-contracts/2296[forum post] for more information."
      },
      "getRoleMemberCount(bytes32)": {
        "details": "Returns the number of accounts that have `role`. Can be used together with {getRoleMember} to enumerate all bearers of a role."
      },
      "go(address)": {
        "params": {
          "account": "The account whose go status to obtain"
        },
        "returns": {
          "_0": "The account's go status"
        }
      },
      "goOnlyIdTypes(address,uint256[])": {
        "details": "If tx.origin is 0x0 (e.g. in blockchain explorers such as Etherscan) this function will      throw an error if the account is not go listed.",
        "params": {
          "account": "The account whose go status to obtain",
          "onlyIdTypes": "Array of id types to check balances"
        },
        "returns": {
          "_0": "The account's go status"
        }
      },
      "grantRole(bytes32,address)": {
        "details": "Grants `role` to `account`. If `account` had not been already granted `role`, emits a {RoleGranted} event. Requirements: - the caller must have ``role``'s admin role. May emit a {RoleGranted} event."
      },
      "hasRole(bytes32,address)": {
        "details": "Returns `true` if `account` has been granted `role`."
      },
      "performUpgrade()": {
        "details": "Update allIdTypes values"
      },
      "renounceRole(bytes32,address)": {
        "details": "Revokes `role` from the calling account. Roles are often managed via {grantRole} and {revokeRole}: this function's purpose is to provide a mechanism for accounts to lose their privileges if they are compromised (such as when a trusted device is misplaced). If the calling account had been revoked `role`, emits a {RoleRevoked} event. Requirements: - the caller must be `account`. May emit a {RoleRevoked} event."
      },
      "revokeRole(bytes32,address)": {
        "details": "Revokes `role` from `account`. If `account` had been granted `role`, emits a {RoleRevoked} event. Requirements: - the caller must have ``role``'s admin role. May emit a {RoleRevoked} event."
      },
      "supportsInterface(bytes4)": {
        "details": "See {IERC165-supportsInterface}."
      }
    },
    "title": "Go",
    "version": 1
  },
  "userdoc": {
    "kind": "user",
    "methods": {
      "getAllIdTypes()": {
        "notice": "Returns a dynamic array of all UID types"
      },
      "go(address)": {
        "notice": "Returns whether the provided account is go-listed for any UID type"
      },
      "goOnlyIdTypes(address,uint256[])": {
        "notice": "Returns whether the provided account is: 1. go-listed for use of the Untangled protocol for any of the provided UID token types 2. is allowed to act on behalf of the go-listed EOA initiating this transaction Go-listed is defined as: whether `balanceOf(account, id)` on the UniqueIdentity contract is non-zero (where `id` is a supported token id on UniqueIdentity), falling back to the account's status on the legacy go-list."
      },
      "uniqueIdentity()": {
        "notice": "Returns the address of the UniqueIdentity contract."
      }
    },
    "version": 1
  },
  "storageLayout": {
    "storage": [
      {
        "astId": 759,
        "contract": "contracts/protocol/Go.sol:Go",
        "label": "_initialized",
        "offset": 0,
        "slot": "0",
        "type": "t_uint8"
      },
      {
        "astId": 762,
        "contract": "contracts/protocol/Go.sol:Go",
        "label": "_initializing",
        "offset": 1,
        "slot": "0",
        "type": "t_bool"
      },
      {
        "astId": 5888,
        "contract": "contracts/protocol/Go.sol:Go",
        "label": "__gap",
        "offset": 0,
        "slot": "1",
        "type": "t_array(t_uint256)50_storage"
      },
      {
        "astId": 7178,
        "contract": "contracts/protocol/Go.sol:Go",
        "label": "__gap",
        "offset": 0,
        "slot": "51",
        "type": "t_array(t_uint256)50_storage"
      },
      {
        "astId": 184,
        "contract": "contracts/protocol/Go.sol:Go",
        "label": "_roles",
        "offset": 0,
        "slot": "101",
        "type": "t_mapping(t_bytes32,t_struct(RoleData)179_storage)"
      },
      {
        "astId": 479,
        "contract": "contracts/protocol/Go.sol:Go",
        "label": "__gap",
        "offset": 0,
        "slot": "102",
        "type": "t_array(t_uint256)49_storage"
      },
      {
        "astId": 33,
        "contract": "contracts/protocol/Go.sol:Go",
        "label": "_roleMembers",
        "offset": 0,
        "slot": "151",
        "type": "t_mapping(t_bytes32,t_struct(AddressSet)8488_storage)"
      },
      {
        "astId": 143,
        "contract": "contracts/protocol/Go.sol:Go",
        "label": "__gap",
        "offset": 0,
        "slot": "152",
        "type": "t_array(t_uint256)49_storage"
      },
      {
        "astId": 21126,
        "contract": "contracts/protocol/Go.sol:Go",
        "label": "uniqueIdentity",
        "offset": 0,
        "slot": "201",
        "type": "t_contract(IUniqueIdentity)13121"
      },
      {
        "astId": 21130,
        "contract": "contracts/protocol/Go.sol:Go",
        "label": "allIdTypes",
        "offset": 0,
        "slot": "202",
        "type": "t_array(t_uint256)11_storage"
      }
    ],
    "types": {
      "t_address": {
        "encoding": "inplace",
        "label": "address",
        "numberOfBytes": "20"
      },
      "t_array(t_bytes32)dyn_storage": {
        "base": "t_bytes32",
        "encoding": "dynamic_array",
        "label": "bytes32[]",
        "numberOfBytes": "32"
      },
      "t_array(t_uint256)11_storage": {
        "base": "t_uint256",
        "encoding": "inplace",
        "label": "uint256[11]",
        "numberOfBytes": "352"
      },
      "t_array(t_uint256)49_storage": {
        "base": "t_uint256",
        "encoding": "inplace",
        "label": "uint256[49]",
        "numberOfBytes": "1568"
      },
      "t_array(t_uint256)50_storage": {
        "base": "t_uint256",
        "encoding": "inplace",
        "label": "uint256[50]",
        "numberOfBytes": "1600"
      },
      "t_bool": {
        "encoding": "inplace",
        "label": "bool",
        "numberOfBytes": "1"
      },
      "t_bytes32": {
        "encoding": "inplace",
        "label": "bytes32",
        "numberOfBytes": "32"
      },
      "t_contract(IUniqueIdentity)13121": {
        "encoding": "inplace",
        "label": "contract IUniqueIdentity",
        "numberOfBytes": "20"
      },
      "t_mapping(t_address,t_bool)": {
        "encoding": "mapping",
        "key": "t_address",
        "label": "mapping(address => bool)",
        "numberOfBytes": "32",
        "value": "t_bool"
      },
      "t_mapping(t_bytes32,t_struct(AddressSet)8488_storage)": {
        "encoding": "mapping",
        "key": "t_bytes32",
        "label": "mapping(bytes32 => struct EnumerableSetUpgradeable.AddressSet)",
        "numberOfBytes": "32",
        "value": "t_struct(AddressSet)8488_storage"
      },
      "t_mapping(t_bytes32,t_struct(RoleData)179_storage)": {
        "encoding": "mapping",
        "key": "t_bytes32",
        "label": "mapping(bytes32 => struct AccessControlUpgradeable.RoleData)",
        "numberOfBytes": "32",
        "value": "t_struct(RoleData)179_storage"
      },
      "t_mapping(t_bytes32,t_uint256)": {
        "encoding": "mapping",
        "key": "t_bytes32",
        "label": "mapping(bytes32 => uint256)",
        "numberOfBytes": "32",
        "value": "t_uint256"
      },
      "t_struct(AddressSet)8488_storage": {
        "encoding": "inplace",
        "label": "struct EnumerableSetUpgradeable.AddressSet",
        "members": [
          {
            "astId": 8487,
            "contract": "contracts/protocol/Go.sol:Go",
            "label": "_inner",
            "offset": 0,
            "slot": "0",
            "type": "t_struct(Set)8173_storage"
          }
        ],
        "numberOfBytes": "64"
      },
      "t_struct(RoleData)179_storage": {
        "encoding": "inplace",
        "label": "struct AccessControlUpgradeable.RoleData",
        "members": [
          {
            "astId": 176,
            "contract": "contracts/protocol/Go.sol:Go",
            "label": "members",
            "offset": 0,
            "slot": "0",
            "type": "t_mapping(t_address,t_bool)"
          },
          {
            "astId": 178,
            "contract": "contracts/protocol/Go.sol:Go",
            "label": "adminRole",
            "offset": 0,
            "slot": "1",
            "type": "t_bytes32"
          }
        ],
        "numberOfBytes": "64"
      },
      "t_struct(Set)8173_storage": {
        "encoding": "inplace",
        "label": "struct EnumerableSetUpgradeable.Set",
        "members": [
          {
            "astId": 8168,
            "contract": "contracts/protocol/Go.sol:Go",
            "label": "_values",
            "offset": 0,
            "slot": "0",
            "type": "t_array(t_bytes32)dyn_storage"
          },
          {
            "astId": 8172,
            "contract": "contracts/protocol/Go.sol:Go",
            "label": "_indexes",
            "offset": 0,
            "slot": "1",
            "type": "t_mapping(t_bytes32,t_uint256)"
          }
        ],
        "numberOfBytes": "64"
      },
      "t_uint256": {
        "encoding": "inplace",
        "label": "uint256",
        "numberOfBytes": "32"
      },
      "t_uint8": {
        "encoding": "inplace",
        "label": "uint8",
        "numberOfBytes": "1"
      }
    }
  }
}