{
  "address": "0x8753a95e4d563F883bBD40589E1ae6C0F0a48697",
  "abi": [
    {
      "anonymous": false,
      "inputs": [
        {
          "indexed": false,
          "internalType": "uint8",
          "name": "version",
          "type": "uint8"
        }
      ],
      "name": "Initialized",
      "type": "event"
    },
    {
      "anonymous": false,
      "inputs": [
        {
          "indexed": false,
          "internalType": "address",
          "name": "token",
          "type": "address"
        },
        {
          "indexed": false,
          "internalType": "uint256",
          "name": "tokenId",
          "type": "uint256"
        }
      ],
      "name": "InsertNFTAsset",
      "type": "event"
    },
    {
      "anonymous": false,
      "inputs": [
        {
          "indexed": false,
          "internalType": "address",
          "name": "account",
          "type": "address"
        }
      ],
      "name": "Paused",
      "type": "event"
    },
    {
      "anonymous": false,
      "inputs": [
        {
          "indexed": false,
          "internalType": "address",
          "name": "poolAddress",
          "type": "address"
        },
        {
          "indexed": false,
          "internalType": "uint256",
          "name": "increaseInterestRepay",
          "type": "uint256"
        },
        {
          "indexed": false,
          "internalType": "uint256",
          "name": "increasePrincipalRepay",
          "type": "uint256"
        },
        {
          "indexed": false,
          "internalType": "uint256",
          "name": "timestamp",
          "type": "uint256"
        }
      ],
      "name": "Repay",
      "type": "event"
    },
    {
      "anonymous": false,
      "inputs": [
        {
          "indexed": true,
          "internalType": "bytes32",
          "name": "role",
          "type": "bytes32"
        },
        {
          "indexed": true,
          "internalType": "bytes32",
          "name": "previousAdminRole",
          "type": "bytes32"
        },
        {
          "indexed": true,
          "internalType": "bytes32",
          "name": "newAdminRole",
          "type": "bytes32"
        }
      ],
      "name": "RoleAdminChanged",
      "type": "event"
    },
    {
      "anonymous": false,
      "inputs": [
        {
          "indexed": true,
          "internalType": "bytes32",
          "name": "role",
          "type": "bytes32"
        },
        {
          "indexed": true,
          "internalType": "address",
          "name": "account",
          "type": "address"
        },
        {
          "indexed": true,
          "internalType": "address",
          "name": "sender",
          "type": "address"
        }
      ],
      "name": "RoleGranted",
      "type": "event"
    },
    {
      "anonymous": false,
      "inputs": [
        {
          "indexed": true,
          "internalType": "bytes32",
          "name": "role",
          "type": "bytes32"
        },
        {
          "indexed": true,
          "internalType": "address",
          "name": "account",
          "type": "address"
        },
        {
          "indexed": true,
          "internalType": "address",
          "name": "sender",
          "type": "address"
        }
      ],
      "name": "RoleRevoked",
      "type": "event"
    },
    {
      "anonymous": false,
      "inputs": [
        {
          "indexed": false,
          "internalType": "address",
          "name": "account",
          "type": "address"
        }
      ],
      "name": "Unpaused",
      "type": "event"
    },
    {
      "inputs": [],
      "name": "DEFAULT_ADMIN_ROLE",
      "outputs": [
        {
          "internalType": "bytes32",
          "name": "",
          "type": "bytes32"
        }
      ],
      "stateMutability": "view",
      "type": "function"
    },
    {
      "inputs": [
        {
          "internalType": "bytes32[]",
          "name": "nftIDs",
          "type": "bytes32[]"
        },
        {
          "internalType": "uint256[]",
          "name": "riskIDs",
          "type": "uint256[]"
        }
      ],
      "name": "batchUpdateAssetRiskScore",
      "outputs": [],
      "stateMutability": "nonpayable",
      "type": "function"
    },
    {
      "inputs": [],
      "name": "calcJuniorRatio",
      "outputs": [
        {
          "internalType": "uint256",
          "name": "juniorRatio",
          "type": "uint256"
        }
      ],
      "stateMutability": "view",
      "type": "function"
    },
    {
      "inputs": [],
      "name": "calcTokenPrices",
      "outputs": [
        {
          "internalType": "uint256",
          "name": "juniorTokenPrice",
          "type": "uint256"
        },
        {
          "internalType": "uint256",
          "name": "seniorTokenPrice",
          "type": "uint256"
        }
      ],
      "stateMutability": "view",
      "type": "function"
    },
    {
      "inputs": [
        {
          "internalType": "uint256",
          "name": "_seniorSupply",
          "type": "uint256"
        },
        {
          "internalType": "uint256",
          "name": "_seniorRedeem",
          "type": "uint256"
        }
      ],
      "name": "changeSeniorAsset",
      "outputs": [],
      "stateMutability": "nonpayable",
      "type": "function"
    },
    {
      "inputs": [
        {
          "internalType": "address",
          "name": "recipientWallet",
          "type": "address"
        }
      ],
      "name": "claimCashRemain",
      "outputs": [],
      "stateMutability": "nonpayable",
      "type": "function"
    },
    {
      "inputs": [
        {
          "internalType": "uint256[]",
          "name": "tokenIds",
          "type": "uint256[]"
        },
        {
          "components": [
            {
              "internalType": "address",
              "name": "debtor",
              "type": "address"
            },
            {
              "internalType": "address",
              "name": "principalTokenAddress",
              "type": "address"
            },
            {
              "internalType": "bytes32",
              "name": "termsParam",
              "type": "bytes32"
            },
            {
              "internalType": "uint256",
              "name": "salt",
              "type": "uint256"
            },
            {
              "internalType": "uint256",
              "name": "issuanceBlockTimestamp",
              "type": "uint256"
            },
            {
              "internalType": "uint256",
              "name": "expirationTimestamp",
              "type": "uint256"
            },
            {
              "internalType": "uint8",
              "name": "riskScore",
              "type": "uint8"
            },
            {
              "internalType": "enum Configuration.ASSET_PURPOSE",
              "name": "assetPurpose",
              "type": "uint8"
            }
          ],
          "internalType": "struct DataTypes.LoanEntry[]",
          "name": "loanEntries",
          "type": "tuple[]"
        }
      ],
      "name": "collectAssets",
      "outputs": [
        {
          "internalType": "uint256",
          "name": "",
          "type": "uint256"
        }
      ],
      "stateMutability": "nonpayable",
      "type": "function"
    },
    {
      "inputs": [
        {
          "internalType": "uint256",
          "name": "amount",
          "type": "uint256"
        }
      ],
      "name": "contributeToCapitalReserve",
      "outputs": [],
      "stateMutability": "nonpayable",
      "type": "function"
    },
    {
      "inputs": [],
      "name": "currentNAV",
      "outputs": [
        {
          "internalType": "uint256",
          "name": "nav_",
          "type": "uint256"
        }
      ],
      "stateMutability": "view",
      "type": "function"
    },
    {
      "inputs": [
        {
          "internalType": "bytes32",
          "name": "tokenId",
          "type": "bytes32"
        }
      ],
      "name": "currentNAVAsset",
      "outputs": [
        {
          "internalType": "uint256",
          "name": "",
          "type": "uint256"
        }
      ],
      "stateMutability": "view",
      "type": "function"
    },
    {
      "inputs": [
        {
          "internalType": "uint256",
          "name": "loan",
          "type": "uint256"
        }
      ],
      "name": "debt",
      "outputs": [
        {
          "internalType": "uint256",
          "name": "loanDebt",
          "type": "uint256"
        }
      ],
      "stateMutability": "view",
      "type": "function"
    },
    {
      "inputs": [],
      "name": "debtCeiling",
      "outputs": [
        {
          "internalType": "uint256",
          "name": "",
          "type": "uint256"
        }
      ],
      "stateMutability": "view",
      "type": "function"
    },
    {
      "inputs": [
        {
          "internalType": "uint256",
          "name": "currencyAmount",
          "type": "uint256"
        }
      ],
      "name": "decreaseCapitalReserve",
      "outputs": [],
      "stateMutability": "nonpayable",
      "type": "function"
    },
    {
      "inputs": [
        {
          "internalType": "uint256",
          "name": "currencyAmount",
          "type": "uint256"
        }
      ],
      "name": "decreaseIncomeReserve",
      "outputs": [],
      "stateMutability": "nonpayable",
      "type": "function"
    },
    {
      "inputs": [
        {
          "internalType": "address",
          "name": "usr",
          "type": "address"
        },
        {
          "internalType": "uint256",
          "name": "currencyAmount",
          "type": "uint256"
        }
      ],
      "name": "disburse",
      "outputs": [],
      "stateMutability": "nonpayable",
      "type": "function"
    },
    {
      "inputs": [],
      "name": "discountRate",
      "outputs": [
        {
          "internalType": "uint256",
          "name": "",
          "type": "uint256"
        }
      ],
      "stateMutability": "view",
      "type": "function"
    },
    {
      "inputs": [
        {
          "internalType": "address",
          "name": "tokenAddress",
          "type": "address"
        },
        {
          "internalType": "address",
          "name": "toPoolAddress",
          "type": "address"
        },
        {
          "internalType": "uint256[]",
          "name": "tokenIds",
          "type": "uint256[]"
        }
      ],
      "name": "exportAssets",
      "outputs": [],
      "stateMutability": "nonpayable",
      "type": "function"
    },
    {
      "inputs": [
        {
          "internalType": "bytes32",
          "name": "nft_",
          "type": "bytes32"
        }
      ],
      "name": "futureValue",
      "outputs": [
        {
          "internalType": "uint256",
          "name": "",
          "type": "uint256"
        }
      ],
      "stateMutability": "view",
      "type": "function"
    },
    {
      "inputs": [
        {
          "internalType": "bytes32",
          "name": "agreementId",
          "type": "bytes32"
        }
      ],
      "name": "getAsset",
      "outputs": [
        {
          "components": [
            {
              "internalType": "uint128",
              "name": "futureValue",
              "type": "uint128"
            },
            {
              "internalType": "uint128",
              "name": "maturityDate",
              "type": "uint128"
            },
            {
              "internalType": "uint128",
              "name": "risk",
              "type": "uint128"
            },
            {
              "internalType": "address",
              "name": "debtor",
              "type": "address"
            },
            {
              "internalType": "address",
              "name": "principalTokenAddress",
              "type": "address"
            },
            {
              "internalType": "uint256",
              "name": "salt",
              "type": "uint256"
            },
            {
              "internalType": "uint256",
              "name": "issuanceBlockTimestamp",
              "type": "uint256"
            },
            {
              "internalType": "uint256",
              "name": "expirationTimestamp",
              "type": "uint256"
            },
            {
              "internalType": "enum Configuration.ASSET_PURPOSE",
              "name": "assetPurpose",
              "type": "uint8"
            },
            {
              "internalType": "bytes32",
              "name": "termsParam",
              "type": "bytes32"
            },
            {
              "internalType": "uint256",
              "name": "principalAmount",
              "type": "uint256"
            },
            {
              "internalType": "uint256",
              "name": "termStartUnixTimestamp",
              "type": "uint256"
            },
            {
              "internalType": "uint256",
              "name": "termEndUnixTimestamp",
              "type": "uint256"
            },
            {
              "internalType": "enum UnpackLoanParamtersLib.AmortizationUnitType",
              "name": "amortizationUnitType",
              "type": "uint8"
            },
            {
              "internalType": "uint256",
              "name": "termLengthInAmortizationUnits",
              "type": "uint256"
            },
            {
              "internalType": "uint256",
              "name": "interestRate",
              "type": "uint256"
            }
          ],
          "internalType": "struct DataTypes.NFTDetails",
          "name": "",
          "type": "tuple"
        }
      ],
      "stateMutability": "view",
      "type": "function"
    },
    {
      "inputs": [],
      "name": "getInitializedVersion",
      "outputs": [
        {
          "internalType": "uint256",
          "name": "",
          "type": "uint256"
        }
      ],
      "stateMutability": "view",
      "type": "function"
    },
    {
      "inputs": [
        {
          "internalType": "uint256[]",
          "name": "tokenIds",
          "type": "uint256[]"
        },
        {
          "components": [
            {
              "internalType": "address",
              "name": "debtor",
              "type": "address"
            },
            {
              "internalType": "address",
              "name": "principalTokenAddress",
              "type": "address"
            },
            {
              "internalType": "bytes32",
              "name": "termsParam",
              "type": "bytes32"
            },
            {
              "internalType": "uint256",
              "name": "salt",
              "type": "uint256"
            },
            {
              "internalType": "uint256",
              "name": "issuanceBlockTimestamp",
              "type": "uint256"
            },
            {
              "internalType": "uint256",
              "name": "expirationTimestamp",
              "type": "uint256"
            },
            {
              "internalType": "uint8",
              "name": "riskScore",
              "type": "uint8"
            },
            {
              "internalType": "enum Configuration.ASSET_PURPOSE",
              "name": "assetPurpose",
              "type": "uint8"
            }
          ],
          "internalType": "struct DataTypes.LoanEntry[]",
          "name": "loanEntries",
          "type": "tuple[]"
        }
      ],
      "name": "getLoansValue",
      "outputs": [
        {
          "internalType": "uint256",
          "name": "",
          "type": "uint256"
        },
        {
          "internalType": "uint256[]",
          "name": "",
          "type": "uint256[]"
        }
      ],
      "stateMutability": "view",
      "type": "function"
    },
    {
      "inputs": [],
      "name": "getNFTAssetsLength",
      "outputs": [
        {
          "internalType": "uint256",
          "name": "",
          "type": "uint256"
        }
      ],
      "stateMutability": "view",
      "type": "function"
    },
    {
      "inputs": [],
      "name": "getRepaidAmount",
      "outputs": [
        {
          "internalType": "uint256",
          "name": "",
          "type": "uint256"
        },
        {
          "internalType": "uint256",
          "name": "",
          "type": "uint256"
        }
      ],
      "stateMutability": "view",
      "type": "function"
    },
    {
      "inputs": [],
      "name": "getReserves",
      "outputs": [
        {
          "internalType": "uint256",
          "name": "",
          "type": "uint256"
        },
        {
          "internalType": "uint256",
          "name": "",
          "type": "uint256"
        }
      ],
      "stateMutability": "view",
      "type": "function"
    },
    {
      "inputs": [],
      "name": "getRiskScoresLength",
      "outputs": [
        {
          "internalType": "uint256",
          "name": "",
          "type": "uint256"
        }
      ],
      "stateMutability": "view",
      "type": "function"
    },
    {
      "inputs": [
        {
          "internalType": "bytes32",
          "name": "role",
          "type": "bytes32"
        }
      ],
      "name": "getRoleAdmin",
      "outputs": [
        {
          "internalType": "bytes32",
          "name": "",
          "type": "bytes32"
        }
      ],
      "stateMutability": "view",
      "type": "function"
    },
    {
      "inputs": [
        {
          "internalType": "bytes32",
          "name": "role",
          "type": "bytes32"
        },
        {
          "internalType": "uint256",
          "name": "index",
          "type": "uint256"
        }
      ],
      "name": "getRoleMember",
      "outputs": [
        {
          "internalType": "address",
          "name": "",
          "type": "address"
        }
      ],
      "stateMutability": "view",
      "type": "function"
    },
    {
      "inputs": [
        {
          "internalType": "bytes32",
          "name": "role",
          "type": "bytes32"
        }
      ],
      "name": "getRoleMemberCount",
      "outputs": [
        {
          "internalType": "uint256",
          "name": "",
          "type": "uint256"
        }
      ],
      "stateMutability": "view",
      "type": "function"
    },
    {
      "inputs": [
        {
          "internalType": "bytes32",
          "name": "role",
          "type": "bytes32"
        },
        {
          "internalType": "address",
          "name": "account",
          "type": "address"
        }
      ],
      "name": "grantRole",
      "outputs": [],
      "stateMutability": "nonpayable",
      "type": "function"
    },
    {
      "inputs": [],
      "name": "hasFinishedRedemption",
      "outputs": [
        {
          "internalType": "bool",
          "name": "",
          "type": "bool"
        }
      ],
      "stateMutability": "view",
      "type": "function"
    },
    {
      "inputs": [
        {
          "internalType": "bytes32",
          "name": "role",
          "type": "bytes32"
        },
        {
          "internalType": "address",
          "name": "account",
          "type": "address"
        }
      ],
      "name": "hasRole",
      "outputs": [
        {
          "internalType": "bool",
          "name": "",
          "type": "bool"
        }
      ],
      "stateMutability": "view",
      "type": "function"
    },
    {
      "inputs": [
        {
          "internalType": "uint256",
          "name": "currencyAmount",
          "type": "uint256"
        }
      ],
      "name": "increaseCapitalReserve",
      "outputs": [],
      "stateMutability": "nonpayable",
      "type": "function"
    },
    {
      "inputs": [
        {
          "internalType": "uint256",
          "name": "amount",
          "type": "uint256"
        }
      ],
      "name": "increaseTotalAssetRepaidCurrency",
      "outputs": [],
      "stateMutability": "nonpayable",
      "type": "function"
    },
    {
      "inputs": [
        {
          "internalType": "address",
          "name": "_registryAddress",
          "type": "address"
        },
        {
          "internalType": "bytes",
          "name": "params",
          "type": "bytes"
        }
      ],
      "name": "initialize",
      "outputs": [],
      "stateMutability": "nonpayable",
      "type": "function"
    },
    {
      "inputs": [
        {
          "internalType": "address",
          "name": "_tgeAddress",
          "type": "address"
        },
        {
          "internalType": "enum Configuration.NOTE_TOKEN_TYPE",
          "name": "_noteToken",
          "type": "uint8"
        }
      ],
      "name": "injectTGEAddress",
      "outputs": [],
      "stateMutability": "nonpayable",
      "type": "function"
    },
    {
      "inputs": [],
      "name": "interestRateSOT",
      "outputs": [
        {
          "internalType": "uint256",
          "name": "",
          "type": "uint256"
        }
      ],
      "stateMutability": "view",
      "type": "function"
    },
    {
      "inputs": [],
      "name": "isAdmin",
      "outputs": [
        {
          "internalType": "bool",
          "name": "",
          "type": "bool"
        }
      ],
      "stateMutability": "view",
      "type": "function"
    },
    {
      "inputs": [],
      "name": "isDebtCeilingValid",
      "outputs": [
        {
          "internalType": "bool",
          "name": "",
          "type": "bool"
        }
      ],
      "stateMutability": "view",
      "type": "function"
    },
    {
      "inputs": [],
      "name": "isMinFirstLossValid",
      "outputs": [
        {
          "internalType": "bool",
          "name": "",
          "type": "bool"
        }
      ],
      "stateMutability": "view",
      "type": "function"
    },
    {
      "inputs": [],
      "name": "jotToken",
      "outputs": [
        {
          "internalType": "address",
          "name": "",
          "type": "address"
        }
      ],
      "stateMutability": "view",
      "type": "function"
    },
    {
      "inputs": [
        {
          "internalType": "bytes32",
          "name": "nft_",
          "type": "bytes32"
        }
      ],
      "name": "maturityDate",
      "outputs": [
        {
          "internalType": "uint256",
          "name": "",
          "type": "uint256"
        }
      ],
      "stateMutability": "view",
      "type": "function"
    },
    {
      "inputs": [],
      "name": "minFirstLossCushion",
      "outputs": [
        {
          "internalType": "uint32",
          "name": "",
          "type": "uint32"
        }
      ],
      "stateMutability": "view",
      "type": "function"
    },
    {
      "inputs": [
        {
          "internalType": "uint256",
          "name": "idx",
          "type": "uint256"
        }
      ],
      "name": "nftAssets",
      "outputs": [
        {
          "components": [
            {
              "internalType": "address",
              "name": "tokenAddress",
              "type": "address"
            },
            {
              "internalType": "uint256",
              "name": "tokenId",
              "type": "uint256"
            }
          ],
          "internalType": "struct DataTypes.NFTAsset",
          "name": "",
          "type": "tuple"
        }
      ],
      "stateMutability": "view",
      "type": "function"
    },
    {
      "inputs": [
        {
          "internalType": "address",
          "name": "",
          "type": "address"
        },
        {
          "internalType": "address",
          "name": "",
          "type": "address"
        },
        {
          "internalType": "uint256",
          "name": "tokenId",
          "type": "uint256"
        },
        {
          "internalType": "bytes",
          "name": "",
          "type": "bytes"
        }
      ],
      "name": "onERC721Received",
      "outputs": [
        {
          "internalType": "bytes4",
          "name": "",
          "type": "bytes4"
        }
      ],
      "stateMutability": "nonpayable",
      "type": "function"
    },
    {
      "inputs": [],
      "name": "openingBlockTimestamp",
      "outputs": [
        {
          "internalType": "uint64",
          "name": "",
          "type": "uint64"
        }
      ],
      "stateMutability": "view",
      "type": "function"
    },
    {
      "inputs": [],
      "name": "pause",
      "outputs": [],
      "stateMutability": "nonpayable",
      "type": "function"
    },
    {
      "inputs": [],
      "name": "paused",
      "outputs": [
        {
          "internalType": "bool",
          "name": "",
          "type": "bool"
        }
      ],
      "stateMutability": "view",
      "type": "function"
    },
    {
      "inputs": [],
      "name": "pot",
      "outputs": [
        {
          "internalType": "address",
          "name": "",
          "type": "address"
        }
      ],
      "stateMutability": "view",
      "type": "function"
    },
    {
      "inputs": [],
      "name": "rebase",
      "outputs": [],
      "stateMutability": "nonpayable",
      "type": "function"
    },
    {
      "inputs": [],
      "name": "registry",
      "outputs": [
        {
          "internalType": "contract Registry",
          "name": "",
          "type": "address"
        }
      ],
      "stateMutability": "view",
      "type": "function"
    },
    {
      "inputs": [
        {
          "internalType": "bytes32",
          "name": "role",
          "type": "bytes32"
        },
        {
          "internalType": "address",
          "name": "account",
          "type": "address"
        }
      ],
      "name": "renounceRole",
      "outputs": [],
      "stateMutability": "nonpayable",
      "type": "function"
    },
    {
      "inputs": [
        {
          "internalType": "uint256[]",
          "name": "loans",
          "type": "uint256[]"
        },
        {
          "internalType": "uint256[]",
          "name": "amounts",
          "type": "uint256[]"
        }
      ],
      "name": "repayLoan",
      "outputs": [
        {
          "internalType": "uint256[]",
          "name": "",
          "type": "uint256[]"
        },
        {
          "internalType": "uint256[]",
          "name": "",
          "type": "uint256[]"
        }
      ],
      "stateMutability": "nonpayable",
      "type": "function"
    },
    {
      "inputs": [],
      "name": "reserve",
      "outputs": [
        {
          "internalType": "uint256",
          "name": "",
          "type": "uint256"
        }
      ],
      "stateMutability": "view",
      "type": "function"
    },
    {
      "inputs": [
        {
          "internalType": "bytes32",
          "name": "role",
          "type": "bytes32"
        },
        {
          "internalType": "address",
          "name": "account",
          "type": "address"
        }
      ],
      "name": "revokeRole",
      "outputs": [],
      "stateMutability": "nonpayable",
      "type": "function"
    },
    {
      "inputs": [
        {
          "internalType": "bytes32",
          "name": "nft_",
          "type": "bytes32"
        }
      ],
      "name": "risk",
      "outputs": [
        {
          "internalType": "uint256",
          "name": "risk_",
          "type": "uint256"
        }
      ],
      "stateMutability": "view",
      "type": "function"
    },
    {
      "inputs": [
        {
          "internalType": "uint256",
          "name": "index",
          "type": "uint256"
        }
      ],
      "name": "riskScores",
      "outputs": [
        {
          "components": [
            {
              "internalType": "uint32",
              "name": "daysPastDue",
              "type": "uint32"
            },
            {
              "internalType": "uint32",
              "name": "advanceRate",
              "type": "uint32"
            },
            {
              "internalType": "uint32",
              "name": "penaltyRate",
              "type": "uint32"
            },
            {
              "internalType": "uint32",
              "name": "interestRate",
              "type": "uint32"
            },
            {
              "internalType": "uint32",
              "name": "probabilityOfDefault",
              "type": "uint32"
            },
            {
              "internalType": "uint32",
              "name": "lossGivenDefault",
              "type": "uint32"
            },
            {
              "internalType": "uint32",
              "name": "writeOffAfterGracePeriod",
              "type": "uint32"
            },
            {
              "internalType": "uint32",
              "name": "gracePeriod",
              "type": "uint32"
            },
            {
              "internalType": "uint32",
              "name": "collectionPeriod",
              "type": "uint32"
            },
            {
              "internalType": "uint32",
              "name": "writeOffAfterCollectionPeriod",
              "type": "uint32"
            },
            {
              "internalType": "uint32",
              "name": "discountRate",
              "type": "uint32"
            }
          ],
          "internalType": "struct DataTypes.RiskScore",
          "name": "",
          "type": "tuple"
        }
      ],
      "stateMutability": "view",
      "type": "function"
    },
    {
      "inputs": [],
      "name": "secondTGEAddress",
      "outputs": [
        {
          "internalType": "address",
          "name": "",
          "type": "address"
        }
      ],
      "stateMutability": "view",
      "type": "function"
    },
    {
      "inputs": [],
      "name": "seniorDebtAndBalance",
      "outputs": [
        {
          "internalType": "uint256",
          "name": "",
          "type": "uint256"
        },
        {
          "internalType": "uint256",
          "name": "",
          "type": "uint256"
        }
      ],
      "stateMutability": "view",
      "type": "function"
    },
    {
      "inputs": [
        {
          "internalType": "uint256",
          "name": "_debtCeiling",
          "type": "uint256"
        }
      ],
      "name": "setDebtCeiling",
      "outputs": [],
      "stateMutability": "nonpayable",
      "type": "function"
    },
    {
      "inputs": [
        {
          "internalType": "uint32",
          "name": "_newRate",
          "type": "uint32"
        }
      ],
      "name": "setInterestRateSOT",
      "outputs": [],
      "stateMutability": "nonpayable",
      "type": "function"
    },
    {
      "inputs": [
        {
          "internalType": "uint32",
          "name": "_minFirstLossCushion",
          "type": "uint32"
        }
      ],
      "name": "setMinFirstLossCushion",
      "outputs": [],
      "stateMutability": "nonpayable",
      "type": "function"
    },
    {
      "inputs": [
        {
          "internalType": "address",
          "name": "_pot",
          "type": "address"
        }
      ],
      "name": "setPot",
      "outputs": [],
      "stateMutability": "nonpayable",
      "type": "function"
    },
    {
      "inputs": [
        {
          "internalType": "bytes32",
          "name": "role",
          "type": "bytes32"
        },
        {
          "internalType": "bytes32",
          "name": "adminRole",
          "type": "bytes32"
        }
      ],
      "name": "setRoleAdmin",
      "outputs": [],
      "stateMutability": "nonpayable",
      "type": "function"
    },
    {
      "inputs": [],
      "name": "setUpOpeningBlockTimestamp",
      "outputs": [],
      "stateMutability": "nonpayable",
      "type": "function"
    },
    {
      "inputs": [
        {
          "internalType": "uint32[]",
          "name": "_daysPastDues",
          "type": "uint32[]"
        },
        {
          "internalType": "uint32[]",
          "name": "_ratesAndDefaults",
          "type": "uint32[]"
        },
        {
          "internalType": "uint32[]",
          "name": "_periodsAndWriteOffs",
          "type": "uint32[]"
        }
      ],
      "name": "setupRiskScores",
      "outputs": [],
      "stateMutability": "nonpayable",
      "type": "function"
    },
    {
      "inputs": [],
      "name": "sotToken",
      "outputs": [
        {
          "internalType": "address",
          "name": "",
          "type": "address"
        }
      ],
      "stateMutability": "view",
      "type": "function"
    },
    {
      "inputs": [
        {
          "internalType": "bytes4",
          "name": "interfaceId",
          "type": "bytes4"
        }
      ],
      "name": "supportsInterface",
      "outputs": [
        {
          "internalType": "bool",
          "name": "",
          "type": "bool"
        }
      ],
      "stateMutability": "view",
      "type": "function"
    },
    {
      "inputs": [],
      "name": "tgeAddress",
      "outputs": [
        {
          "internalType": "address",
          "name": "",
          "type": "address"
        }
      ],
      "stateMutability": "view",
      "type": "function"
    },
    {
      "inputs": [],
      "name": "totalAssetRepaidCurrency",
      "outputs": [
        {
          "internalType": "uint256",
          "name": "",
          "type": "uint256"
        }
      ],
      "stateMutability": "view",
      "type": "function"
    },
    {
      "inputs": [],
      "name": "underlyingCurrency",
      "outputs": [
        {
          "internalType": "address",
          "name": "",
          "type": "address"
        }
      ],
      "stateMutability": "view",
      "type": "function"
    },
    {
      "inputs": [],
      "name": "unpause",
      "outputs": [],
      "stateMutability": "nonpayable",
      "type": "function"
    },
    {
      "inputs": [
        {
          "internalType": "bytes32",
          "name": "nftID_",
          "type": "bytes32"
        },
        {
          "internalType": "uint256",
          "name": "risk_",
          "type": "uint256"
        }
      ],
      "name": "updateAssetRiskScore",
      "outputs": [],
      "stateMutability": "nonpayable",
      "type": "function"
    },
    {
      "inputs": [
        {
          "internalType": "bytes32[]",
          "name": "nftIDs",
          "type": "bytes32[]"
        },
        {
          "internalType": "address",
          "name": "credioAdapter",
          "type": "address"
        }
      ],
      "name": "updateAssetRiskScoreWithCredio",
      "outputs": [],
      "stateMutability": "nonpayable",
      "type": "function"
    },
    {
      "inputs": [],
      "name": "validatorRequired",
      "outputs": [
        {
          "internalType": "bool",
          "name": "",
          "type": "bool"
        }
      ],
      "stateMutability": "view",
      "type": "function"
    },
    {
      "inputs": [
        {
          "internalType": "address",
          "name": "to",
          "type": "address"
        },
        {
          "internalType": "uint256",
          "name": "amount",
          "type": "uint256"
        }
      ],
      "name": "withdraw",
      "outputs": [],
      "stateMutability": "nonpayable",
      "type": "function"
    },
    {
      "inputs": [
        {
          "internalType": "address[]",
          "name": "tokenAddresses",
          "type": "address[]"
        },
        {
          "internalType": "uint256[]",
          "name": "tokenIds",
          "type": "uint256[]"
        },
        {
          "internalType": "address[]",
          "name": "recipients",
          "type": "address[]"
        }
      ],
      "name": "withdrawAssets",
      "outputs": [],
      "stateMutability": "nonpayable",
      "type": "function"
    },
    {
      "inputs": [
        {
          "internalType": "uint256",
          "name": "loan",
          "type": "uint256"
        }
      ],
      "name": "writeOff",
      "outputs": [],
      "stateMutability": "nonpayable",
      "type": "function"
    }
  ],
  "transactionHash": "0xa9c0d0125f6c3d3039b0ada7a828b1778e2af4786ee2fdd80dacbd621a491bf3",
  "args": [],
  "numDeployments": 1,
  "solcInputHash": "8a925af5273d563ae7a54328d0a76ec5",
  "bytecode": "0x608060405234801561001057600080fd5b50615dd380620000216000396000f3fe608060405234801561001057600080fd5b506004361061045f5760003560e01c80636b70f71d1161024c578063ba81a93611610146578063e3178bc4116100c3578063f3fef3a311610087578063f3fef3a3146109bd578063f4ba39a7146109d0578063f70a726e146109e3578063fa3908b1146109f6578063febd601814610a2d57600080fd5b8063e3178bc414610969578063e3adb7f01461097c578063e681542d1461098f578063e6c0e6d5146109a2578063ed348895146109aa57600080fd5b8063d1f578941161010a578063d1f5789414610920578063d547741f14610933578063dd688b0e14610946578063dec285871461094e578063e1c84ea41461096157600080fd5b8063ba81a936146108c9578063c3d2129d146108dc578063ca15c873146108fd578063cd3293de14610910578063cee7b6a11461091857600080fd5b806390161705116101d4578063a6c5954711610198578063a6c595471461088b578063af14052c1461089e578063b1511cc9146108a6578063b3c65015146108b9578063b6db75a0146108c157600080fd5b8063901617051461084257806391d14854146108555780639b3e229114610868578063a217fddf1461087b578063a5688a901461088357600080fd5b80637f3bd56e1161021b5780637f3bd56e146107e95780638456cb59146107fc5780638fd6b71e1461080457806390071cf31461081c5780639010d07c1461082f57600080fd5b80636b70f71d146107b257806373ffe3c7146107ba57806375b1bce7146107cd5780637b103999146107d557600080fd5b80632cc3ce801161035d5780634020c8d1116102e55780635648abeb116102a95780635648abeb14610742578063586fd8a1146107555780635c975abb14610776578063644b4ead146107815780636456a3ee146107a157600080fd5b80634020c8d1146106e0578063477035d1146106eb57806349110ac4146107175780634ba2363a1461071f57806353069df61461073757600080fd5b806336568abe1161032c57806336568abe146106735780633aa29d7a146106865780633b2f880c146106995780633f12dc10146106ac5780633f4ba83a146106d857600080fd5b80632cc3ce801461061a5780632f2ff15d1461063a578063339443571461064d578063362fc6a01461066057600080fd5b8063185acf74116103eb578063248a9ca3116103af578063248a9ca3146105d75780632b71b450146105fa5780632bb14ff0146106025780632bcc36821461060a5780632cbf3da01461061257600080fd5b8063185acf741461057a5780631bf51b701461058d5780631e0029c8146105a05780631e4e0091146105b3578063221dc593146105c657600080fd5b80630902f1ac116104325780630902f1ac146104fd5780630b7792f1146105195780630bc6bffc146105215780630e9bf4e414610546578063150b7a021461054e57600080fd5b806301ffc9a714610464578063065dad8f1461048c57806306823e8c146104ca57806306aac7ec146104f3575b600080fd5b6104776104723660046148f9565b610a35565b60405190151581526020015b60405180910390f35b6104bc61049a366004614923565b600090815260146020526040902054600160801b90046001600160801b031690565b604051908152602001610483565b6104bc6104d8366004614923565b6000908152601460205260409020546001600160801b031690565b6104fb610a60565b005b6008546009545b60408051928352602083019190915201610483565b6002546104bc565b6007546001600160a01b03165b6040516001600160a01b039091168152602001610483565b610504610b31565b61056161055c366004614a3f565b610f05565b6040516001600160e01b03199091168152602001610483565b6104fb610588366004614923565b61107e565b6104fb61059b366004614aee565b61116b565b6104bc6105ae366004614923565b611210565b6104fb6105c1366004614b87565b61121d565b6004546001600160a01b031661052e565b6104bc6105e5366004614923565b600090815260ee602052604090206001015490565b61052e611237565b600b546104bc565b6001546104bc565b6104bc6112b4565b61062d610628366004614923565b6112c0565b6040516104839190614bec565b6104fb610648366004614cfb565b6113fa565b6104bc61065b366004614d2b565b61141f565b6104fb61066e366004614dc4565b6114cb565b6104fb610681366004614cfb565b61158b565b6104fb610694366004614b87565b611609565b6104fb6106a7366004614e47565b611777565b6104bc6106ba366004614923565b6000908152601460205260409020600101546001600160801b031690565b6104fb6117ff565b60005460ff16610477565b600a5464010000000090046001600160401b03166040516001600160401b039091168152602001610483565b61047761182d565b600a54600160601b90046001600160a01b031661052e565b602054602154610504565b6104fb610750366004614923565b611847565b610768610763366004614dc4565b6118ca565b604051610483929190614eb0565b60585460ff16610477565b61079461078f366004614923565b611c71565b6040516104839190614ed5565b6003546001600160a01b031661052e565b610504611da2565b6104fb6107c8366004614fe1565b611e27565b610477611ec5565b6101845461052e906001600160a01b031681565b6104fb6107f7366004614ffe565b611f3d565b6104fb612023565b600a5460405163ffffffff9091168152602001610483565b6104fb61082a36600461502a565b61204f565b61052e61083d366004614b87565b61218e565b6104fb610850366004614923565b6121ae565b610477610863366004614cfb565b6121fe565b6104fb610876366004614923565b612229565b6104bc600081565b6104bc6122b3565b6104fb610899366004614aee565b6123cc565b6104fb612469565b6104fb6108b4366004614923565b6124ca565b6104bc612563565b610477612579565b6104fb6108d7366004614fe1565b6125a4565b6108ef6108ea36600461516f565b6125f1565b604051610483929190615227565b6104bc61090b366004614923565b612682565b6104bc61269a565b600c546104bc565b6104fb61092e366004615240565b6126a6565b6104fb610941366004614cfb565b612a5f565b610477612a84565b6104fb61095c366004615285565b612abf565b600d546104bc565b6104bc610977366004614923565b612b9b565b6104fb61098a366004614b87565b612ba8565b6104fb61099d366004614923565b612c39565b6018546104bc565b6104fb6109b836600461502a565b612cf7565b6104fb6109cb366004614ffe565b612e49565b6104fb6109de3660046152dd565b613010565b6104fb6109f1366004614923565b613133565b610a09610a04366004614923565b6131f1565b6040805182516001600160a01b031681526020928301519281019290925201610483565b61052e613252565b60006001600160e01b03198216635a05180f60e01b1480610a5a5750610a5a8261328d565b92915050565b6003546001600160a01b03163314610acb5760405162461bcd60e51b8152602060048201526024808201527f53656375726974697a6174696f6e506f6f6c3a204f6e6c7920746765206164646044820152637265737360e01b60648201526084015b60405180910390fd5b604051632fc9435560e01b815260006004820152737C45ae0575c0201Ea59555cD48879d5c4d8948Ad90632fc94355906024015b60006040518083038186803b158015610b1757600080fd5b505af4158015610b2b573d6000803e3d6000fd5b50505050565b600080600073286Db326EAf230B448DD86a3e6c9e734F3A1cEC3634892cc1660006040518263ffffffff1660e01b8152600401610b7091815260200190565b602060405180830381865af4158015610b8d573d6000803e3d6000fd5b505050506040513d601f19601f82011682018060405250810190610bb19190615333565b604051631c87621560e31b815260006004820181905291925073286Db326EAf230B448DD86a3e6c9e734F3A1cEC39063e43b10a890602401602060405180830381865af4158015610c06573d6000803e3d6000fd5b505050506040513d601f19601f82011682018060405250810190610c2a9190615333565b90506000826001600160a01b031663313ce5676040518163ffffffff1660e01b8152600401602060405180830381865afa158015610c6c573d6000803e3d6000fd5b505050506040513d601f19601f82011682018060405250810190610c909190615350565b610c9b90600a615467565b90506000806001600160a01b03851615610d1457846001600160a01b03166318160ddd6040518163ffffffff1660e01b8152600401602060405180830381865afa158015610ced573d6000803e3d6000fd5b505050506040513d601f19601f82011682018060405250810190610d119190615476565b91505b6001600160a01b03841615610d8857836001600160a01b03166318160ddd6040518163ffffffff1660e01b8152600401602060405180830381865afa158015610d61573d6000803e3d6000fd5b505050506040513d601f19601f82011682018060405250810190610d859190615476565b90505b60008073E9e0CC175676C1401A0eA294BB99f78dCe01e65B6328774cad610daf60006132c2565b610db960006132ea565b604051639a1140b960e01b81526000600482015273E9e0CC175676C1401A0eA294BB99f78dCe01e65B90639a1140b990602401602060405180830381865af4158015610e09573d6000803e3d6000fd5b505050506040513d601f19601f82011682018060405250810190610e2d9190615476565b60235460405160e086901b6001600160e01b031916815260048101949094526024840192909252604483015260648201526084810187905260a4810186905260c4016040805180830381865af4158015610e8b573d6000803e3d6000fd5b505050506040513d601f19601f82011682018060405250810190610eaf919061548f565b90925090506b033b2e3c9fd0803ce8000000610ecb86846154b3565b610ed591906154ca565b6b033b2e3c9fd0803ce8000000610eec87846154b3565b610ef691906154ca565b98509850505050505050509091565b610184546000903390610f20906001600160a01b03166132fe565b6001600160a01b0316816001600160a01b031614610f9e5760405162461bcd60e51b815260206004820152603560248201527f53656375726974697a6174696f6e506f6f6c3a204d75737420626520746f6b656044820152741b881a5cdcdd595908189e48155b9d185b99db1959605a1b6064820152608401610ac2565b6040805180820182526001600160a01b03838116808352602080840189815260028054600181018255600082905295517f405787fa12a823e0f2b7631cc41b3ba8828b3321ca811111fa75cd3aa3bb5ace96820296870180546001600160a01b0319169190961617909455517f405787fa12a823e0f2b7631cc41b3ba8828b3321ca811111fa75cd3aa3bb5acf909401939093558351908152918201879052917ff1c19e8856063adce43b5f307c6ac9d0af46fd0787c590550c51d7cf02d2e5f4910160405180910390a150630a85bd0160e11b9150505b949350505050565b61108661330b565b6101845461109c906001600160a01b0316613351565b6001600160a01b0316336001600160a01b031614806110e15750610184546110cc906001600160a01b031661335e565b6001600160a01b0316336001600160a01b0316145b6110fd5760405162461bcd60e51b8152600401610ac2906154ec565b6040516338ca404b60e21b8152600060048201526024810182905273286Db326EAf230B448DD86a3e6c9e734F3A1cEC39063e329012c906044015b60006040518083038186803b15801561115057600080fd5b505af4158015611164573d6000803e3d6000fd5b5050505050565b61117361330b565b600080516020615d7e83398151915261118b8161336b565b6040516318d6411560e31b8152737C45ae0575c0201Ea59555cD48879d5c4d8948Ad9063c6b208a8906111cf906000908b908b908b908b908b908b90600401615597565b60006040518083038186803b1580156111e757600080fd5b505af41580156111fb573d6000803e3d6000fd5b50505050611207612469565b50505050505050565b6000610a5a600083613375565b60006112288161336b565b6112328383613478565b505050565b604051632449660b60e11b81526000600482018190529073286Db326EAf230B448DD86a3e6c9e734F3A1cEC390634892cc16906024015b602060405180830381865af415801561128b573d6000803e3d6000fd5b505050506040513d601f19601f820116820180604052508101906112af9190615333565b905090565b60006112af60006132c2565b6112c8614876565b60008281526014602090815260409182902082516102008101845281546001600160801b038082168352600160801b9091048116938201939093526001808301549093169381019390935260028101546001600160a01b0390811660608501526003820154166080840152600481015460a0840152600581015460c0840152600681015460e08401526007810154909161010084019160ff169081111561137157611371614ba9565b600181111561138257611382614ba9565b81526008820154602082015260098201546040820152600a8201546060820152600b8201546080820152600c82015460a09091019060ff1660058111156113cb576113cb614ba9565b60058111156113dc576113dc614ba9565b8152600d8201546020820152600e9091015460409091015292915050565b600082815260ee60205260409020600101546114158161336b565b61123283836134c3565b600061142961330b565b611441335b610184546001600160a01b0316906134e6565b604051637f337ae160e11b8152737C45ae0575c0201Ea59555cD48879d5c4d8948Ad9063fe66f5c290611481906000908990899089908990600401615619565b602060405180830381865af415801561149e573d6000803e3d6000fd5b505050506040513d601f19601f820116820180604052508101906114c29190615476565b95945050505050565b600080516020615d7e8339815191526114e38161336b565b8382146115235760405162461bcd60e51b815260206004820152600e60248201526d0eadcdac2e8c6d040d8cadccee8d60931b6044820152606401610ac2565b60005b60ff81168511156115835761157186868360ff16818110611549576115496156f4565b9050602002013585858460ff16818110611565576115656156f4565b90506020020135612ba8565b8061157b8161570a565b915050611526565b505050505050565b6001600160a01b03811633146115fb5760405162461bcd60e51b815260206004820152602f60248201527f416363657373436f6e74726f6c3a2063616e206f6e6c792072656e6f756e636560448201526e103937b632b9903337b91039b2b63360891b6064820152608401610ac2565b611605828261354f565b5050565b6101845461161f906001600160a01b0316613351565b6001600160a01b0316336001600160a01b0316148061166457506101845461164f906001600160a01b031661335e565b6001600160a01b0316336001600160a01b0316145b6116805760405162461bcd60e51b8152600401610ac2906154ec565b73E9e0CC175676C1401A0eA294BB99f78dCe01e65B632fb8626260006116a660006132c2565b6116b060006132ea565b6040516001600160e01b031960e086901b168152600481019390935260248301919091526044820152606481018590526084810184905260a40160006040518083038186803b15801561170257600080fd5b505af4158015611716573d6000803e3d6000fd5b5050505060008211156116055761172b61182d565b6116055760405162461bcd60e51b815260206004820152601a60248201527f506f6f6c3a2045786365656473204d696e46697273744c6f73730000000000006044820152606401610ac2565b61177f61330b565b611797335b610184546001600160a01b031690613572565b6040516317f8caf760e31b815273286Db326EAf230B448DD86a3e6c9e734F3A1cEC39063bfc657b8906117d39060009086908690600401615729565b60006040518083038186803b1580156117eb57600080fd5b505af4158015611583573d6000803e3d6000fd5b611807612579565b6118235760405162461bcd60e51b8152600401610ac290615756565b61182b6135e7565b565b60006118376122b3565b600a5463ffffffff161115919050565b61184f61330b565b60405163b21b589960e01b8152600060048201523360248201526044810182905273286Db326EAf230B448DD86a3e6c9e734F3A1cEC39063b21b58999060640160006040518083038186803b1580156118a757600080fd5b505af41580156118bb573d6000803e3d6000fd5b505050506118c7612469565b50565b61018454606090819033906118e7906001600160a01b0316613639565b6001600160a01b03161461192e5760405162461bcd60e51b815260206004820152600e60248201526d1b9bdd08185d5d1a1bdc9a5e995960921b6044820152606401610ac2565b8483811461196f5760405162461bcd60e51b815260206004820152600e60248201526d092dcecc2d8d2c840d8cadccee8d60931b6044820152606401610ac2565b6000816001600160401b0381111561198957611989614961565b6040519080825280602002602001820160405280156119b2578160200160208202803683370190505b50905060005b82811015611a6a57600080611a0e60008c8c868181106119da576119da6156f4565b9050602002013560009081526010820160209081526040808320548352600e90930190522060018101546004909101549091565b91509150611a3760008c8c86818110611a2957611a296156f4565b905060200201358484613646565b848481518110611a4957611a496156f4565b60200260200101818152505050508080611a62906157b3565b9150506119b8565b50600080736d204Df1B40D52b1e3D9551A743d06f1a6b781Eb632f3e0ce060008c8c8c8c6040518663ffffffff1660e01b8152600401611aae9594939291906157cc565b600060405180830381865af4158015611acb573d6000803e3d6000fd5b505050506040513d6000823e601f3d908101601f19168201604052611af39190810190615860565b9150915060008060005b86811015611be4576000868281518110611b1957611b196156f4565b6020026020010151858381518110611b3357611b336156f4565b6020026020010151611b4591906158b9565b905080868381518110611b5a57611b5a6156f4565b602002602001015111611b9357858281518110611b7957611b796156f4565b602002602001015184611b8c91906158cc565b9350611bd1565b611b9d81856158cc565b935080868381518110611bb257611bb26156f4565b6020026020010151611bc491906158b9565b611bce90846158cc565b92505b5080611bdc816157b3565b915050611afd565b508160006008016000828254611bfa91906158cc565b909155505060098054829190600090611c149084906158cc565b909155505060408051308152602081018490529081018290524260608201527f2fe77b1c99aca6b022b8efc6e3e8dd1b48b30748709339b65c50ef3263443e099060800160405180910390a150919a909950975050505050505050565b6040805161016081018252600080825260208201819052918101829052606081018290526080810182905260a0810182905260c0810182905260e08101829052610100810182905261012081018290526101408101919091526001805483908110611cde57611cde6156f4565b600091825260209182902060408051610160810182526002909302909101805463ffffffff808216855264010000000080830482169686019690965268010000000000000000808304821694860194909452600160601b820481166060860152600160801b820481166080860152600160a01b8204811660a0860152600160c01b8204811660c0860152600160e01b909104811660e08501526001909101548082166101008501529384048116610120840152920490911661014082015292915050565b604051639a1140b960e01b815260006004820181905290819073E9e0CC175676C1401A0eA294BB99f78dCe01e65B90639a1140b990602401602060405180830381865af4158015611df7573d6000803e3d6000fd5b505050506040513d601f19601f82011682018060405250810190611e1b9190615476565b60235490939092509050565b611e2f61330b565b611e47600080516020615d7e833981519152336121fe565b80611e655750611e65600080516020615d5e833981519152336121fe565b611e815760405162461bcd60e51b8152600401610ac2906158df565b604051635b56e10160e01b81526000600482015263ffffffff8216602482015273286Db326EAf230B448DD86a3e6c9e734F3A1cEC390635b56e10190604401611138565b604051638d372cf960e01b81526000600482018190529073286Db326EAf230B448DD86a3e6c9e734F3A1cEC390638d372cf9906024015b602060405180830381865af4158015611f19573d6000803e3d6000fd5b505050506040513d601f19601f820116820180604052508101906112af9190615934565b611f4561330b565b61018454611f5b906001600160a01b031661335e565b6001600160a01b0316336001600160a01b031614611fd55760405162461bcd60e51b815260206004820152603160248201527f53656375726974697a6174696f6e506f6f6c3a2043616c6c6572206d75737420604482015270189948139bdd19551bdad95b95985d5b1d607a1b6064820152608401610ac2565b604051630837ca3160e11b8152600060048201526001600160a01b03831660248201526044810182905273286Db326EAf230B448DD86a3e6c9e734F3A1cEC39063106f9462906064016117d3565b61202b612579565b6120475760405162461bcd60e51b8152600401610ac290615756565b61182b613696565b61205761330b565b600080516020615d5e83398151915261206f8161336b565b604051638d372cf960e01b81526000600482015273286Db326EAf230B448DD86a3e6c9e734F3A1cEC390638d372cf990602401602060405180830381865af41580156120bf573d6000803e3d6000fd5b505050506040513d601f19601f820116820180604052508101906120e39190615934565b6121475760405162461bcd60e51b815260206004820152602f60248201527f53656375726974697a6174696f6e506f6f6c3a20526564656d7074696f6e206860448201526e185cc81b9bdd08199a5b9a5cda1959608a1b6064820152608401610ac2565b604051637d7c571760e11b8152600060048201526001600160a01b038316602482015273286Db326EAf230B448DD86a3e6c9e734F3A1cEC39063faf8ae2e906044016117d3565b6000828152610120602052604081206121a790836136d3565b9392505050565b6121b661330b565b6121bf3361142e565b604051637538156560e01b8152600060048201526024810182905273286Db326EAf230B448DD86a3e6c9e734F3A1cEC390637538156590604401611138565b600091825260ee602090815260408084206001600160a01b0393909316845291905290205460ff1690565b600080516020615d7e8339815191526122418161336b565b604051632915c6ef60e21b81526000600482015260248101839052736d204Df1B40D52b1e3D9551A743d06f1a6b781Eb9063a4571bbc9060440160006040518083038186803b15801561229357600080fd5b505af41580156122a7573d6000803e3d6000fd5b50505050611605612469565b600073E9e0CC175676C1401A0eA294BB99f78dCe01e65B63937e8cbf6122d960006132c2565b6122e360006132ea565b604051639a1140b960e01b81526000600482015273E9e0CC175676C1401A0eA294BB99f78dCe01e65B90639a1140b990602401602060405180830381865af4158015612333573d6000803e3d6000fd5b505050506040513d601f19601f820116820180604052508101906123579190615476565b60235460405160e086901b6001600160e01b03191681526004810194909452602484019290925260448301526064820152608401602060405180830381865af41580156123a8573d6000803e3d6000fd5b505050506040513d601f19601f820116820180604052508101906112af9190615476565b6123d461330b565b600080516020615d5e8339815191526123ec8161336b565b60405163d37cc71360e01b8152737C45ae0575c0201Ea59555cD48879d5c4d8948Ad9063d37cc71390612430906002908b908b908b908b908b908b9060040161598d565b60006040518083038186803b15801561244857600080fd5b505af415801561245c573d6000803e3d6000fd5b5050505050505050505050565b73E9e0CC175676C1401A0eA294BB99f78dCe01e65B63c1a5db1c600061248f60006132c2565b61249960006132ea565b6040516001600160e01b031960e086901b168152600481019390935260248301919091526044820152606401610aff565b6124d261330b565b6124ea600080516020615d7e833981519152336121fe565b806125085750612508600080516020615d5e833981519152336121fe565b6125245760405162461bcd60e51b8152600401610ac2906158df565b60405163070f0cf160e01b8152600060048201526024810182905273286Db326EAf230B448DD86a3e6c9e734F3A1cEC39063070f0cf190604401611138565b600061257160255460ff1690565b60ff16905090565b6000612593600080516020615d5e833981519152336121fe565b806112af57506112af6000336121fe565b6125ad33611784565b60405163ece6e31360e01b81526000600482015263ffffffff8216602482015273286Db326EAf230B448DD86a3e6c9e734F3A1cEC39063ece6e31390604401611138565b60006060737C45ae0575c0201Ea59555cD48879d5c4d8948Ad63aa12d15f600086866040518463ffffffff1660e01b8152600401612631939291906159cf565b600060405180830381865af415801561264e573d6000803e3d6000fd5b505050506040513d6000823e601f3d908101601f191682016040526126769190810190615aba565b915091505b9250929050565b600081815261012060205260408120610a5a906136df565b60006112af60006132ea565b602554610100900460ff16158080156126c65750602554600160ff909116105b806126e05750303b1580156126e0575060255460ff166001145b6127435760405162461bcd60e51b815260206004820152602e60248201527f496e697469616c697a61626c653a20636f6e747261637420697320616c72656160448201526d191e481a5b9a5d1a585b1a5e995960921b6064820152608401610ac2565b6025805460ff191660011790558015612766576025805461ff0019166101001790555b61276f336136e9565b6001600160a01b0383166127c55760405162461bcd60e51b815260206004820181905260248201527f526567697374727920616464726573732063616e6e6f7420626520656d7074796044820152606401610ac2565b61018480546001600160a01b0319166001600160a01b03851617905581516000906127f99060209085018101908501615af6565b80519091506001600160a01b031661284c5760405162461bcd60e51b8152602060048201526016602482015275506f6f6c3a20496e76616c69642063757272656e637960501b6044820152606401610ac2565b8051600780546001600160a01b0319166001600160a01b0390921691909117905560408101516000805460ff1916911515919091178155600a80546bffffffffffffffffffffffff1630600160601b0217905560208201516128ae9190613731565b6128bd6000826060015161380b565b805160405163095ea7b360e01b815230600482015260001960248201526001600160a01b039091169063095ea7b3906044016020604051808303816000875af115801561290e573d6000803e3d6000fd5b505050506040513d601f19601f820116820180604052508101906129329190615934565b61297e5760405162461bcd60e51b815260206004820152601e60248201527f506f6f6c3a2043757272656e637920617070726f76616c206661696c656400006044820152606401610ac2565b61018454612994906001600160a01b03166132fe565b610184546001600160a01b039182169163a22cb465916129b49116613639565b6040516001600160e01b031960e084901b1681526001600160a01b03909116600482015260016024820152604401600060405180830381600087803b1580156129fc57600080fd5b505af1158015612a10573d6000803e3d6000fd5b50505050508015611232576025805461ff0019169055604051600181527f7f26b83ff96e1f2b6a682f133852f6798a09c465da95921460cefb38474024989060200160405180910390a1505050565b600082815260ee6020526040902060010154612a7a8161336b565b611232838361354f565b6040516303954afb60e51b81526000600482018190529073286Db326EAf230B448DD86a3e6c9e734F3A1cEC3906372a95f6090602401611efc565b612ac761330b565b612acf613842565b612ae7600080516020615d7e833981519152336121fe565b80612b055750612b05600080516020615d5e833981519152336121fe565b612b215760405162461bcd60e51b8152600401610ac2906158df565b604051639178a8a160e01b8152737C45ae0575c0201Ea59555cD48879d5c4d8948Ad90639178a8a190612b61906002908890889088908890600401615b72565b60006040518083038186803b158015612b7957600080fd5b505af4158015612b8d573d6000803e3d6000fd5b50505050610b2b6001608a55565b6000610a5a6000836138a2565b600080516020615d7e833981519152612bc08161336b565b6040516356a5a29960e01b8152600060048201526024810184905260448101839052736d204Df1B40D52b1e3D9551A743d06f1a6b781Eb906356a5a2999060640160006040518083038186803b158015612c1957600080fd5b505af4158015612c2d573d6000803e3d6000fd5b50505050611232612469565b612c4161330b565b61018454612c57906001600160a01b0316613351565b6001600160a01b0316336001600160a01b03161480612c9c575061018454612c87906001600160a01b031661335e565b6001600160a01b0316336001600160a01b0316145b612cb85760405162461bcd60e51b8152600401610ac2906154ec565b60405163289cbccd60e21b8152600060048201526024810182905273286Db326EAf230B448DD86a3e6c9e734F3A1cEC39063a272f33490604401611138565b612cff61330b565b612d07613842565b612d1f600080516020615d7e833981519152336121fe565b80612d3d5750612d3d600080516020615d5e833981519152336121fe565b612d595760405162461bcd60e51b8152600401610ac2906158df565b604051635cd35d6360e11b8152600060048201526001600160a01b038216602482015273286Db326EAf230B448DD86a3e6c9e734F3A1cEC39063b9a6bac69060440160006040518083038186803b158015612db357600080fd5b505af4158015612dc7573d6000803e3d6000fd5b505061018454612de292506001600160a01b03169050613351565b60405163dc90f9fd60e01b81526001600160a01b038381166004830152919091169063dc90f9fd90602401600060405180830381600087803b158015612e2757600080fd5b505af1158015612e3b573d6000803e3d6000fd5b505050506118c76001608a55565b612e5161330b565b612e5a3361142e565b612e847f59abfac6520ec36a6556b2a4dd949cc40007459bcd5cd2507f1e5cc77b6bc97e836121fe565b612ee95760405162461bcd60e51b815260206004820152603060248201527f53656375726974697a6174696f6e506f6f6c3a204f6e6c79204f726967696e6160448201526f3a37b91031b0b710323930bbb237bbb760811b6064820152608401610ac2565b61018454612eff906001600160a01b031661335e565b604051634ce9451960e01b81523060048201526001600160a01b039190911690634ce9451990602401602060405180830381865afa158015612f45573d6000803e3d6000fd5b505050506040513d601f19601f82011682018060405250810190612f699190615934565b15612fc25760405162461bcd60e51b815260206004820152602360248201527f53656375726974697a6174696f6e506f6f6c3a207769746864726177207061756044820152621cd95960ea1b6064820152608401610ac2565b604051635d46333760e11b8152600060048201526001600160a01b03831660248201526044810182905273286Db326EAf230B448DD86a3e6c9e734F3A1cEC39063ba8c666e906064016117d3565b6001600160a01b0381166130665760405162461bcd60e51b815260206004820152601e60248201527f696e76616c69642063726564696f2061646170746572206164647265737300006044820152606401610ac2565b60005b82811015610b2b576000826001600160a01b031663057dc241868685818110613094576130946156f4565b905060200201356040518263ffffffff1660e01b81526004016130b991815260200190565b6020604051808303816000875af11580156130d8573d6000803e3d6000fd5b505050506040513d601f19601f820116820180604052508101906130fc9190615476565b9050613120858584818110613113576131136156f4565b9050602002013582612ba8565b508061312b816157b3565b915050613069565b61313b61330b565b61018454613151906001600160a01b0316613351565b6001600160a01b0316336001600160a01b03161480613196575061018454613181906001600160a01b031661335e565b6001600160a01b0316336001600160a01b0316145b6131b25760405162461bcd60e51b8152600401610ac2906154ec565b604051637564542160e11b8152600060048201526024810182905273286Db326EAf230B448DD86a3e6c9e734F3A1cEC39063eac8a84290604401611138565b60408051808201909152600080825260208201526002805483908110613219576132196156f4565b60009182526020918290206040805180820190915260029092020180546001600160a01b03168252600101549181019190915292915050565b604051631c87621560e31b81526000600482018190529073286Db326EAf230B448DD86a3e6c9e734F3A1cEC39063e43b10a89060240161126e565b60006001600160e01b03198216637965db0b60e01b1480610a5a57506301ffc9a760e01b6001600160e01b0319831614610a5a565b6000806000806132d1856138d0565b9250925092506114c2836132e584846139d5565b6139d5565b6000610a5a826009015483600801546139d5565b6000610a5a826005613a25565b60585460ff161561182b5760405162461bcd60e51b815260206004820152601060248201526f14185d5cd8589b194e881c185d5cd95960821b6044820152606401610ac2565b6000610a5a826000613a25565b6000610a5a826009613a25565b6118c78133613aaa565b6000818152601083016020908152604080832054808452600e860190925282206001810154600482015460059092015490919065ffffffffffff164210613422576000838152600e870160205260409020600181015460028201546005909201546133e8929065ffffffffffff16613b03565b6000848152600e8801602052604090206004810154600382015460059092015492945061341f9290919065ffffffffffff16613b03565b90505b80600003613450576000858152600f87016020526040902054613446908390613b23565b9350505050610a5a565b613446816134738489600f0160008a815260200190815260200160002054613b23565b613b23565b600082815260ee6020526040808220600101805490849055905190918391839186917fbd79b86ffe0ab8e8776151514217cd7cacd52c909f66475c3af44e129f0b00ff9190a4505050565b6134cd8282613b2f565b6000828152610120602052604090206112329082613bb5565b6134ef82613639565b6001600160a01b0316816001600160a01b0316146116055760405162461bcd60e51b815260206004820152601960248201527f52656769737472793a204f6e6c79204c6f616e4b65726e656c000000000000006044820152606401610ac2565b6135598282613bca565b6000828152610120602052604090206112329082613c31565b61357b82613351565b6001600160a01b0316816001600160a01b0316146116055760405162461bcd60e51b8152602060048201526024808201527f52656769737472793a204f6e6c792053656375726974697a6174696f6e4d616e60448201526330b3b2b960e11b6064820152608401610ac2565b6135ef613c46565b6058805460ff191690557f5db9ee0a495bf2e6ff9c91a7834c1ba4fdd244a5e8aa4e537bd38aeae4b073aa335b6040516001600160a01b03909116815260200160405180910390a1565b6000610a5a826006613a25565b600081600003613673576000848152600f8601602052604090205461366c908490613b23565b9050611076565b61366c826134738588600f01600089815260200190815260200160002054613b23565b61369e61330b565b6058805460ff191660011790557f62e78cea01bee320cd4e420270b5ea74000d11b0c9f74754ebdbfc544b05a25861361c3390565b60006121a78383613c8f565b6000610a5a825490565b602554610100900460ff166137105760405162461bcd60e51b8152600401610ac290615bb0565b613718613cb9565b613720613cec565b613728613d13565b6118c781613d3a565b61373e61271060646154b3565b8163ffffffff1611156137b95760405162461bcd60e51b815260206004820152603b60248201527f53656375726974697a6174696f6e506f6f6c3a206d696e46697273744c6f737360448201527f43757368696f6e2069732067726561746572207468616e2031303000000000006064820152608401610ac2565b600a8201805463ffffffff191663ffffffff83169081179091556040519081527f091193ea2a1d71a11f3479abe1d30b1ba8fecf8b18e1c728e3ee787de54d0399906020015b60405180910390a15050565b600d82018190556040518181527f3fb30b6090e6989c6819119c2885012949e75471ed4ce5e80c9be541ea0e2f3f906020016137ff565b6002608a54036138945760405162461bcd60e51b815260206004820152601f60248201527f5265656e7472616e637947756172643a207265656e7472616e742063616c6c006044820152606401610ac2565b6002608a55565b6001608a55565b6000806000806138b28686613e05565b9250925092506138c6836132e584846139d5565b9695505050505050565b601a810154601c8201546018830154601b840154600093849384939192909190838503613912576000836139038a613f71565b965096509650505050506139ce565b60008061391e42613fe3565b9050825b8181101561399257600081815260168c016020526040902054801561397d5761396e846132e5836139698a6139578989613fff565b6b033b2e3c9fd0803ce800000061404f565b61410d565b935061397a8a826139d5565b99505b5061398b81620151806158cc565b9050613922565b506139ae6139a887613969876139578689613fff565b83614130565b6139b8868a6139d5565b6139c18c613f71565b9850985098505050505050505b9193909250565b6000826139e283826158cc565b9150811015610a5a5760405162461bcd60e51b815260206004820152600f60248201526e1cd859994b5859190b59985a5b1959608a1b6044820152606401610ac2565b6000826001600160a01b031663bcaa0c55836009811115613a4857613a48614ba9565b6040516001600160e01b031960e084901b16815260ff9091166004820152602401602060405180830381865afa158015613a86573d6000803e3d6000fd5b505050506040513d601f19601f820116820180604052508101906121a79190615333565b613ab482826121fe565b61160557613ac18161414c565b613acc83602061415e565b604051602001613add929190615c1f565b60408051601f198184030181529082905262461bcd60e51b8252610ac291600401615c94565b6000814210613b1b57613b18848484426142f9565b93505b509192915050565b60006121a7828461410d565b613b3982826121fe565b61160557600082815260ee602090815260408083206001600160a01b03851684529091529020805460ff19166001179055613b713390565b6001600160a01b0316816001600160a01b0316837f2f8788117e7eff1d82e926ec794901d17c78024a50270940304540a733656f0d60405160405180910390a45050565b60006121a7836001600160a01b038416614312565b613bd482826121fe565b1561160557600082815260ee602090815260408083206001600160a01b0385168085529252808320805460ff1916905551339285917ff6391f5c32d9c69d2a47ea670b442974b53935d1edc7fd64eb21e047a839171b9190a45050565b60006121a7836001600160a01b038416614361565b60585460ff1661182b5760405162461bcd60e51b815260206004820152601460248201527314185d5cd8589b194e881b9bdd081c185d5cd95960621b6044820152606401610ac2565b6000826000018281548110613ca657613ca66156f4565b9060005260206000200154905092915050565b602554610100900460ff16613ce05760405162461bcd60e51b8152600401610ac290615bb0565b6058805460ff19169055565b602554610100900460ff1661389b5760405162461bcd60e51b8152600401610ac290615bb0565b602554610100900460ff1661182b5760405162461bcd60e51b8152600401610ac290615bb0565b602554610100900460ff16613d615760405162461bcd60e51b8152600401610ac290615bb0565b6001600160a01b038116613d725750335b613d7d60003361445b565b613d95600080516020615d5e8339815191528261445b565b613dcd7f59abfac6520ec36a6556b2a4dd949cc40007459bcd5cd2507f1e5cc77b6bc97e600080516020615d5e833981519152613478565b6118c77f21702c8af46127c7fa207f89d0b0a8441bb32959a0ac7df790e9ab1a25c98926600080516020615d7e833981519152613478565b60188201546000828152601d84016020908152604080832054601b870154601e880190935290832054929384938493849391613e418a8a614465565b15613e99576000613e528b8b614498565b9050613e95613e618c8c613375565b8c6017018381548110613e7657613e766156f4565b60009182526020909120600290910201546001600160801b031661410d565b9550505b82600003613eb357600097509550929350613f6a92505050565b600080613ebf42613fe3565b60008c815260148e01602052604081205491925090613eed90600160801b90046001600160801b0316613fe3565b9050848110158015613efe57508181105b15613f355760008c815260148e0160205260409020546001600160801b0316613f2f816139698a6139578787613fff565b909a5092505b613f50613f4a876139698a613957878b613fff565b84614130565b613f5a858c6139d5565b899a509a509a5050505050505050505b9250925092565b6000805b6017830154811015613fdd57613fc9826132e5613fb48685613fa56b033b2e3c9fd0803ce80000006103e86154b3565b613faf91906158cc565b614617565b866017018581548110613e7657613e766156f4565b915080613fd5816157b3565b915050613f75565b50919050565b6000613ff262015180836154ca565b610a5a90620151806154b3565b60008261400c83826158b9565b9150811115610a5a5760405162461bcd60e51b815260206004820152600f60248201526e1cd859994b5cdd588b59985a5b1959608a1b6044820152606401610ac2565b60008380156140ef5760018416801561406a5785925061406e565b8392505b50600283046002850494505b84156140e957858602868782041461409157600080fd5b818101818110156140a157600080fd5b85900496505060018516156140de5785830283878204141587151516156140c757600080fd5b818101818110156140d757600080fd5b8590049350505b60028504945061407a565b50614105565b8380156140ff5760009250614103565b8392505b505b509392505050565b60006b033b2e3c9fd0803ce800000061412684846146d7565b6121a791906154ca565b60008282111561414257506000610a5a565b6121a78383613fff565b6060610a5a6001600160a01b03831660145b6060600061416d8360026154b3565b6141789060026158cc565b6001600160401b0381111561418f5761418f614961565b6040519080825280601f01601f1916602001820160405280156141b9576020820181803683370190505b509050600360fc1b816000815181106141d4576141d46156f4565b60200101906001600160f81b031916908160001a905350600f60fb1b81600181518110614203576142036156f4565b60200101906001600160f81b031916908160001a90535060006142278460026154b3565b6142329060016158cc565b90505b60018111156142aa576f181899199a1a9b1b9c1cb0b131b232b360811b85600f1660108110614266576142666156f4565b1a60f81b82828151811061427c5761427c6156f4565b60200101906001600160f81b031916908160001a90535060049490941c936142a381615cc7565b9050614235565b5083156121a75760405162461bcd60e51b815260206004820181905260248201527f537472696e67733a20686578206c656e67746820696e73756666696369656e746044820152606401610ac2565b60006114c261430c8561395786866158b9565b8661410d565b600081815260018301602052604081205461435957508154600181810184556000848152602080822090930184905584548482528286019093526040902091909155610a5a565b506000610a5a565b6000818152600183016020526040812054801561444a5760006143856001836158b9565b8554909150600090614399906001906158b9565b90508181146143fe5760008660000182815481106143b9576143b96156f4565b90600052602060002001549050808760000184815481106143dc576143dc6156f4565b6000918252602080832090910192909255918252600188019052604090208390555b855486908061440f5761440f615cde565b600190038181906000526020600020016000905590558560010160008681526020019081526020016000206000905560019350505050610a5a565b6000915050610a5a565b5092915050565b61160582826134c3565b600061447f6b033b2e3c9fd0803ce80000006103e86154b3565b6000928352601093909301602052506040902054101590565b60008181526014830160205260408120548290600160801b90046001600160801b0316826144c542613fe3565b905060006144d38785614739565b90506000600182604001516144e89190615cf4565b90506001600160801b036000805b60178b01546001600160801b03821610156146005760008b601701826001600160801b03168154811061452b5761452b6156f4565b906000526020600020906002020160000160109054906101000a90046001600160801b03169050846001600160801b03168c601701836001600160801b03168154811061457a5761457a6156f4565b60009182526020909120600160029092020101546001600160801b03161480156145b65750826001600160801b0316816001600160801b031610155b80156145e157506145ca8162015180615d14565b6145dd906001600160801b0316896158cc565b8710155b156145ed578193508092505b50806145f881615d37565b9150506144f6565b50506001600160801b031698975050505050505050565b6000818152600e8301602052604081206001810154600482015482546005909301549192909165ffffffffffff1642106146b7576000858152600e8701602052604090206001810154600282015460059092015461467d929065ffffffffffff16613b03565b6000868152600e880160205260409020600481015460038201546005909201549295506146b49290919065ffffffffffff16613b03565b91505b816000036146c9576134468382613b23565b613446826134738584613b23565b60008115806146fb575082826146ed81836154b3565b92506146f990836154ca565b145b610a5a5760405162461bcd60e51b815260206004820152600f60248201526e1cd859994b5b5d5b0b59985a5b1959608a1b6044820152606401610ac2565b614741614876565b600082815260148401602090815260409182902082516102008101845281546001600160801b038082168352600160801b9091048116938201939093526001808301549093169381019390935260028101546001600160a01b0390811660608501526003820154166080840152600481015460a0840152600581015460c0840152600681015460e08401526007810154909161010084019160ff16908111156147ec576147ec614ba9565b60018111156147fd576147fd614ba9565b81526008820154602082015260098201546040820152600a8201546060820152600b8201546080820152600c82015460a09091019060ff16600581111561484657614846614ba9565b600581111561485757614857614ba9565b8152600d8201546020820152600e909101546040909101529392505050565b6040805161020081018252600080825260208201819052918101829052606081018290526080810182905260a0810182905260c0810182905260e0810182905261010081018290526101208101829052610140810182905261016081018290526101808101829052906101a0820190815260200160008152602001600081525090565b60006020828403121561490b57600080fd5b81356001600160e01b0319811681146121a757600080fd5b60006020828403121561493557600080fd5b5035919050565b6001600160a01b03811681146118c757600080fd5b803561495c8161493c565b919050565b634e487b7160e01b600052604160045260246000fd5b60405161010081016001600160401b038111828210171561499a5761499a614961565b60405290565b604051601f8201601f191681016001600160401b03811182821017156149c8576149c8614961565b604052919050565b600082601f8301126149e157600080fd5b81356001600160401b038111156149fa576149fa614961565b614a0d601f8201601f19166020016149a0565b818152846020838601011115614a2257600080fd5b816020850160208301376000918101602001919091529392505050565b60008060008060808587031215614a5557600080fd5b8435614a608161493c565b93506020850135614a708161493c565b92506040850135915060608501356001600160401b03811115614a9257600080fd5b614a9e878288016149d0565b91505092959194509250565b60008083601f840112614abc57600080fd5b5081356001600160401b03811115614ad357600080fd5b6020830191508360208260051b850101111561267b57600080fd5b60008060008060008060608789031215614b0757600080fd5b86356001600160401b0380821115614b1e57600080fd5b614b2a8a838b01614aaa565b90985096506020890135915080821115614b4357600080fd5b614b4f8a838b01614aaa565b90965094506040890135915080821115614b6857600080fd5b50614b7589828a01614aaa565b979a9699509497509295939492505050565b60008060408385031215614b9a57600080fd5b50508035926020909101359150565b634e487b7160e01b600052602160045260246000fd5b600281106118c7576118c7614ba9565b614bd881614bbf565b9052565b60068110614bd857614bd8614ba9565b81516001600160801b0316815261020081016020830151614c1860208401826001600160801b03169052565b506040830151614c3360408401826001600160801b03169052565b506060830151614c4e60608401826001600160a01b03169052565b506080830151614c6960808401826001600160a01b03169052565b5060a083015160a083015260c083015160c083015260e083015160e083015261010080840151614c9b82850182614bcf565b505061012083810151908301526101408084015190830152610160808401519083015261018080840151908301526101a080840151614cdc82850182614bdc565b50506101c083810151908301526101e092830151929091019190915290565b60008060408385031215614d0e57600080fd5b823591506020830135614d208161493c565b809150509250929050565b60008060008060408587031215614d4157600080fd5b84356001600160401b0380821115614d5857600080fd5b614d6488838901614aaa565b90965094506020870135915080821115614d7d57600080fd5b818701915087601f830112614d9157600080fd5b813581811115614da057600080fd5b8860208260081b8501011115614db557600080fd5b95989497505060200194505050565b60008060008060408587031215614dda57600080fd5b84356001600160401b0380821115614df157600080fd5b614dfd88838901614aaa565b90965094506020870135915080821115614e1657600080fd5b50614e2387828801614aaa565b95989497509550505050565b600281106118c757600080fd5b803561495c81614e2f565b60008060408385031215614e5a57600080fd5b8235614e658161493c565b91506020830135614d2081614e2f565b600081518084526020808501945080840160005b83811015614ea557815187529582019590820190600101614e89565b509495945050505050565b604081526000614ec36040830185614e75565b82810360208401526114c28185614e75565b815163ffffffff16815261016081016020830151614efb602084018263ffffffff169052565b506040830151614f13604084018263ffffffff169052565b506060830151614f2b606084018263ffffffff169052565b506080830151614f43608084018263ffffffff169052565b5060a0830151614f5b60a084018263ffffffff169052565b5060c0830151614f7360c084018263ffffffff169052565b5060e0830151614f8b60e084018263ffffffff169052565b506101008381015163ffffffff81168483015250506101208381015163ffffffff81168483015250506101408381015163ffffffff8116848301525b505092915050565b63ffffffff811681146118c757600080fd5b600060208284031215614ff357600080fd5b81356121a781614fcf565b6000806040838503121561501157600080fd5b823561501c8161493c565b946020939093013593505050565b60006020828403121561503c57600080fd5b81356121a78161493c565b60006001600160401b0382111561506057615060614961565b5060051b60200190565b60ff811681146118c757600080fd5b803561495c8161506a565b600082601f83011261509557600080fd5b813560206150aa6150a583615047565b6149a0565b82815260089290921b840181019181810190868411156150c957600080fd5b8286015b848110156151645761010081890312156150e75760008081fd5b6150ef614977565b81356150fa8161493c565b8152615107828601614951565b8186015260408281013590820152606080830135908201526080808301359082015260a0808301359082015260c0615140818401615079565b9082015260e0615151838201614e3c565b90820152835291830191610100016150cd565b509695505050505050565b6000806040838503121561518257600080fd5b82356001600160401b038082111561519957600080fd5b818501915085601f8301126151ad57600080fd5b813560206151bd6150a583615047565b82815260059290921b840181019181810190898411156151dc57600080fd5b948201945b838610156151fa578535825294820194908201906151e1565b9650508601359250508082111561521057600080fd5b5061521d85828601615084565b9150509250929050565b8281526040602082015260006110766040830184614e75565b6000806040838503121561525357600080fd5b823561525e8161493c565b915060208301356001600160401b0381111561527957600080fd5b61521d858286016149d0565b6000806000806060858703121561529b57600080fd5b84356152a68161493c565b935060208501356152b68161493c565b925060408501356001600160401b038111156152d157600080fd5b614e2387828801614aaa565b6000806000604084860312156152f257600080fd5b83356001600160401b0381111561530857600080fd5b61531486828701614aaa565b90945092505060208401356153288161493c565b809150509250925092565b60006020828403121561534557600080fd5b81516121a78161493c565b60006020828403121561536257600080fd5b81516121a78161506a565b634e487b7160e01b600052601160045260246000fd5b600181815b808511156153be5781600019048211156153a4576153a461536d565b808516156153b157918102915b93841c9390800290615388565b509250929050565b6000826153d557506001610a5a565b816153e257506000610a5a565b81600181146153f857600281146154025761541e565b6001915050610a5a565b60ff8411156154135761541361536d565b50506001821b610a5a565b5060208310610133831016604e8410600b8410161715615441575081810a610a5a565b61544b8383615383565b806000190482111561545f5761545f61536d565b029392505050565b60006121a760ff8416836153c6565b60006020828403121561548857600080fd5b5051919050565b600080604083850312156154a257600080fd5b505080516020909101519092909150565b8082028115828204841417610a5a57610a5a61536d565b6000826154e757634e487b7160e01b600052601260045260246000fd5b500490565b6020808252604a908201527f53656375726974697a6174696f6e506f6f6c3a2043616c6c6572206d7573742060408201527f62652053656375726974697a6174696f6e4d616e61676572206f72204e6f7465606082015269151bdad95b95985d5b1d60b21b608082015260a00190565b8183526000602080850194508260005b85811015614ea557813561557f81614fcf565b63ffffffff168752958201959082019060010161556c565b8781526080602082015260006155b160808301888a61555c565b82810360408401526155c481878961555c565b905082810360608401526155d981858761555c565b9a9950505050505050505050565b81835260006001600160fb1b0383111561560057600080fd5b8260051b80836020870137939093016020019392505050565b6000606087835260208181850152615634828501888a6155e7565b8481036040868101919091528682528791830160005b888110156156e457833561565d8161493c565b6001600160a01b03908116835284860135906156788261493c565b1682860152838301358383015285840135868301526080808501359083015260a0808501359083015260c06156ae818601615079565b60ff169083015260e06156c2858201614e3c565b6156ce82850182614bcf565b505061010093840193919091019060010161564a565b509b9a5050505050505050505050565b634e487b7160e01b600052603260045260246000fd5b600060ff821660ff81036157205761572061536d565b60010192915050565b8381526001600160a01b03831660208201526060810161574883614bbf565b826040830152949350505050565b6020808252603a908201527f556e74616e676c6564426173653a204d75737420686176652061646d696e207260408201527f6f6c6520746f20706572666f726d207468697320616374696f6e000000000000606082015260800190565b6000600182016157c5576157c561536d565b5060010190565b8581526060602082015260006157e66060830186886155e7565b82810360408401526157f98185876155e7565b98975050505050505050565b600082601f83011261581657600080fd5b815160206158266150a583615047565b82815260059290921b8401810191818101908684111561584557600080fd5b8286015b848110156151645780518352918301918301615849565b6000806040838503121561587357600080fd5b82516001600160401b038082111561588a57600080fd5b61589686838701615805565b935060208501519150808211156158ac57600080fd5b5061521d85828601615805565b81810381811115610a5a57610a5a61536d565b80820180821115610a5a57610a5a61536d565b60208082526025908201527f506f6f6c3a204e6f7420616e20706f6f6c2061646d696e206f7220706f6f6c2060408201526437bbb732b960d91b606082015260800190565b8051801515811461495c57600080fd5b60006020828403121561594657600080fd5b6121a782615924565b8183526000602080850194508260005b85811015614ea55781356159728161493c565b6001600160a01b03168752958201959082019060010161595f565b8781526080602082015260006159a760808301888a61594f565b82810360408401526159ba8187896155e7565b905082810360608401526155d981858761594f565b600060608083018684526020828186015281875180845260809350838701915082890160005b82811015615a11578151845292840192908401906001016159f5565b50505085810360408781019190915287518083528389019284019060005b81811015615aa957845180516001600160a01b03908116855287820151168785015284810151858501528881015189850152878101518885015260a0808201519085015260c08082015160ff169085015260e09081015190615a9381860183614bcf565b5050938501936101009290920191600101615a2f565b50909b9a5050505050505050505050565b60008060408385031215615acd57600080fd5b8251915060208301516001600160401b03811115615aea57600080fd5b61521d85828601615805565b600060808284031215615b0857600080fd5b604051608081018181106001600160401b0382111715615b2a57615b2a614961565b6040528251615b388161493c565b81526020830151615b4881614fcf565b6020820152615b5960408401615924565b6040820152606083015160608201528091505092915050565b8581526001600160a01b03858116602083015284166040820152608060608201819052600090615ba590830184866155e7565b979650505050505050565b6020808252602b908201527f496e697469616c697a61626c653a20636f6e7472616374206973206e6f74206960408201526a6e697469616c697a696e6760a81b606082015260800190565b60005b83811015615c16578181015183820152602001615bfe565b50506000910152565b7f416363657373436f6e74726f6c3a206163636f756e7420000000000000000000815260008351615c57816017850160208801615bfb565b7001034b99036b4b9b9b4b733903937b6329607d1b6017918401918201528351615c88816028840160208801615bfb565b01602801949350505050565b6020815260008251806020840152615cb3816040850160208701615bfb565b601f01601f19169190910160400192915050565b600081615cd657615cd661536d565b506000190190565b634e487b7160e01b600052603160045260246000fd5b6001600160801b038281168282160390808211156144545761445461536d565b6001600160801b03818116838216028082169190828114614fc757614fc761536d565b60006001600160801b03808316818103615d5357615d5361536d565b600101939250505056feb19546dff01e856fb3f010c267a7b1c60363cf8a4664e21cc89c26224620214e3e9c05fb0f9da4414e033bb9bf190a6e2072adf7e3077394fce683220513b8d7a2646970667358221220160cefd8f72a464801f6fbf99f60fcacd01ad37787ae90ce7d55d581cd2591c764736f6c63430008130033",
  "deployedBytecode": "0x608060405234801561001057600080fd5b506004361061045f5760003560e01c80636b70f71d1161024c578063ba81a93611610146578063e3178bc4116100c3578063f3fef3a311610087578063f3fef3a3146109bd578063f4ba39a7146109d0578063f70a726e146109e3578063fa3908b1146109f6578063febd601814610a2d57600080fd5b8063e3178bc414610969578063e3adb7f01461097c578063e681542d1461098f578063e6c0e6d5146109a2578063ed348895146109aa57600080fd5b8063d1f578941161010a578063d1f5789414610920578063d547741f14610933578063dd688b0e14610946578063dec285871461094e578063e1c84ea41461096157600080fd5b8063ba81a936146108c9578063c3d2129d146108dc578063ca15c873146108fd578063cd3293de14610910578063cee7b6a11461091857600080fd5b806390161705116101d4578063a6c5954711610198578063a6c595471461088b578063af14052c1461089e578063b1511cc9146108a6578063b3c65015146108b9578063b6db75a0146108c157600080fd5b8063901617051461084257806391d14854146108555780639b3e229114610868578063a217fddf1461087b578063a5688a901461088357600080fd5b80637f3bd56e1161021b5780637f3bd56e146107e95780638456cb59146107fc5780638fd6b71e1461080457806390071cf31461081c5780639010d07c1461082f57600080fd5b80636b70f71d146107b257806373ffe3c7146107ba57806375b1bce7146107cd5780637b103999146107d557600080fd5b80632cc3ce801161035d5780634020c8d1116102e55780635648abeb116102a95780635648abeb14610742578063586fd8a1146107555780635c975abb14610776578063644b4ead146107815780636456a3ee146107a157600080fd5b80634020c8d1146106e0578063477035d1146106eb57806349110ac4146107175780634ba2363a1461071f57806353069df61461073757600080fd5b806336568abe1161032c57806336568abe146106735780633aa29d7a146106865780633b2f880c146106995780633f12dc10146106ac5780633f4ba83a146106d857600080fd5b80632cc3ce801461061a5780632f2ff15d1461063a578063339443571461064d578063362fc6a01461066057600080fd5b8063185acf74116103eb578063248a9ca3116103af578063248a9ca3146105d75780632b71b450146105fa5780632bb14ff0146106025780632bcc36821461060a5780632cbf3da01461061257600080fd5b8063185acf741461057a5780631bf51b701461058d5780631e0029c8146105a05780631e4e0091146105b3578063221dc593146105c657600080fd5b80630902f1ac116104325780630902f1ac146104fd5780630b7792f1146105195780630bc6bffc146105215780630e9bf4e414610546578063150b7a021461054e57600080fd5b806301ffc9a714610464578063065dad8f1461048c57806306823e8c146104ca57806306aac7ec146104f3575b600080fd5b6104776104723660046148f9565b610a35565b60405190151581526020015b60405180910390f35b6104bc61049a366004614923565b600090815260146020526040902054600160801b90046001600160801b031690565b604051908152602001610483565b6104bc6104d8366004614923565b6000908152601460205260409020546001600160801b031690565b6104fb610a60565b005b6008546009545b60408051928352602083019190915201610483565b6002546104bc565b6007546001600160a01b03165b6040516001600160a01b039091168152602001610483565b610504610b31565b61056161055c366004614a3f565b610f05565b6040516001600160e01b03199091168152602001610483565b6104fb610588366004614923565b61107e565b6104fb61059b366004614aee565b61116b565b6104bc6105ae366004614923565b611210565b6104fb6105c1366004614b87565b61121d565b6004546001600160a01b031661052e565b6104bc6105e5366004614923565b600090815260ee602052604090206001015490565b61052e611237565b600b546104bc565b6001546104bc565b6104bc6112b4565b61062d610628366004614923565b6112c0565b6040516104839190614bec565b6104fb610648366004614cfb565b6113fa565b6104bc61065b366004614d2b565b61141f565b6104fb61066e366004614dc4565b6114cb565b6104fb610681366004614cfb565b61158b565b6104fb610694366004614b87565b611609565b6104fb6106a7366004614e47565b611777565b6104bc6106ba366004614923565b6000908152601460205260409020600101546001600160801b031690565b6104fb6117ff565b60005460ff16610477565b600a5464010000000090046001600160401b03166040516001600160401b039091168152602001610483565b61047761182d565b600a54600160601b90046001600160a01b031661052e565b602054602154610504565b6104fb610750366004614923565b611847565b610768610763366004614dc4565b6118ca565b604051610483929190614eb0565b60585460ff16610477565b61079461078f366004614923565b611c71565b6040516104839190614ed5565b6003546001600160a01b031661052e565b610504611da2565b6104fb6107c8366004614fe1565b611e27565b610477611ec5565b6101845461052e906001600160a01b031681565b6104fb6107f7366004614ffe565b611f3d565b6104fb612023565b600a5460405163ffffffff9091168152602001610483565b6104fb61082a36600461502a565b61204f565b61052e61083d366004614b87565b61218e565b6104fb610850366004614923565b6121ae565b610477610863366004614cfb565b6121fe565b6104fb610876366004614923565b612229565b6104bc600081565b6104bc6122b3565b6104fb610899366004614aee565b6123cc565b6104fb612469565b6104fb6108b4366004614923565b6124ca565b6104bc612563565b610477612579565b6104fb6108d7366004614fe1565b6125a4565b6108ef6108ea36600461516f565b6125f1565b604051610483929190615227565b6104bc61090b366004614923565b612682565b6104bc61269a565b600c546104bc565b6104fb61092e366004615240565b6126a6565b6104fb610941366004614cfb565b612a5f565b610477612a84565b6104fb61095c366004615285565b612abf565b600d546104bc565b6104bc610977366004614923565b612b9b565b6104fb61098a366004614b87565b612ba8565b6104fb61099d366004614923565b612c39565b6018546104bc565b6104fb6109b836600461502a565b612cf7565b6104fb6109cb366004614ffe565b612e49565b6104fb6109de3660046152dd565b613010565b6104fb6109f1366004614923565b613133565b610a09610a04366004614923565b6131f1565b6040805182516001600160a01b031681526020928301519281019290925201610483565b61052e613252565b60006001600160e01b03198216635a05180f60e01b1480610a5a5750610a5a8261328d565b92915050565b6003546001600160a01b03163314610acb5760405162461bcd60e51b8152602060048201526024808201527f53656375726974697a6174696f6e506f6f6c3a204f6e6c7920746765206164646044820152637265737360e01b60648201526084015b60405180910390fd5b604051632fc9435560e01b81526000600482015273__$e2770451a2a37dcdd32d3c1720bab879c1$__90632fc94355906024015b60006040518083038186803b158015610b1757600080fd5b505af4158015610b2b573d6000803e3d6000fd5b50505050565b600080600073__$f05580c97a29e5f8396272b0644dfc5da8$__634892cc1660006040518263ffffffff1660e01b8152600401610b7091815260200190565b602060405180830381865af4158015610b8d573d6000803e3d6000fd5b505050506040513d601f19601f82011682018060405250810190610bb19190615333565b604051631c87621560e31b815260006004820181905291925073__$f05580c97a29e5f8396272b0644dfc5da8$__9063e43b10a890602401602060405180830381865af4158015610c06573d6000803e3d6000fd5b505050506040513d601f19601f82011682018060405250810190610c2a9190615333565b90506000826001600160a01b031663313ce5676040518163ffffffff1660e01b8152600401602060405180830381865afa158015610c6c573d6000803e3d6000fd5b505050506040513d601f19601f82011682018060405250810190610c909190615350565b610c9b90600a615467565b90506000806001600160a01b03851615610d1457846001600160a01b03166318160ddd6040518163ffffffff1660e01b8152600401602060405180830381865afa158015610ced573d6000803e3d6000fd5b505050506040513d601f19601f82011682018060405250810190610d119190615476565b91505b6001600160a01b03841615610d8857836001600160a01b03166318160ddd6040518163ffffffff1660e01b8152600401602060405180830381865afa158015610d61573d6000803e3d6000fd5b505050506040513d601f19601f82011682018060405250810190610d859190615476565b90505b60008073__$a68f613c3bdb728f6ba077784ec1fd15de$__6328774cad610daf60006132c2565b610db960006132ea565b604051639a1140b960e01b81526000600482015273__$a68f613c3bdb728f6ba077784ec1fd15de$__90639a1140b990602401602060405180830381865af4158015610e09573d6000803e3d6000fd5b505050506040513d601f19601f82011682018060405250810190610e2d9190615476565b60235460405160e086901b6001600160e01b031916815260048101949094526024840192909252604483015260648201526084810187905260a4810186905260c4016040805180830381865af4158015610e8b573d6000803e3d6000fd5b505050506040513d601f19601f82011682018060405250810190610eaf919061548f565b90925090506b033b2e3c9fd0803ce8000000610ecb86846154b3565b610ed591906154ca565b6b033b2e3c9fd0803ce8000000610eec87846154b3565b610ef691906154ca565b98509850505050505050509091565b610184546000903390610f20906001600160a01b03166132fe565b6001600160a01b0316816001600160a01b031614610f9e5760405162461bcd60e51b815260206004820152603560248201527f53656375726974697a6174696f6e506f6f6c3a204d75737420626520746f6b656044820152741b881a5cdcdd595908189e48155b9d185b99db1959605a1b6064820152608401610ac2565b6040805180820182526001600160a01b03838116808352602080840189815260028054600181018255600082905295517f405787fa12a823e0f2b7631cc41b3ba8828b3321ca811111fa75cd3aa3bb5ace96820296870180546001600160a01b0319169190961617909455517f405787fa12a823e0f2b7631cc41b3ba8828b3321ca811111fa75cd3aa3bb5acf909401939093558351908152918201879052917ff1c19e8856063adce43b5f307c6ac9d0af46fd0787c590550c51d7cf02d2e5f4910160405180910390a150630a85bd0160e11b9150505b949350505050565b61108661330b565b6101845461109c906001600160a01b0316613351565b6001600160a01b0316336001600160a01b031614806110e15750610184546110cc906001600160a01b031661335e565b6001600160a01b0316336001600160a01b0316145b6110fd5760405162461bcd60e51b8152600401610ac2906154ec565b6040516338ca404b60e21b8152600060048201526024810182905273__$f05580c97a29e5f8396272b0644dfc5da8$__9063e329012c906044015b60006040518083038186803b15801561115057600080fd5b505af4158015611164573d6000803e3d6000fd5b5050505050565b61117361330b565b600080516020615d7e83398151915261118b8161336b565b6040516318d6411560e31b815273__$e2770451a2a37dcdd32d3c1720bab879c1$__9063c6b208a8906111cf906000908b908b908b908b908b908b90600401615597565b60006040518083038186803b1580156111e757600080fd5b505af41580156111fb573d6000803e3d6000fd5b50505050611207612469565b50505050505050565b6000610a5a600083613375565b60006112288161336b565b6112328383613478565b505050565b604051632449660b60e11b81526000600482018190529073__$f05580c97a29e5f8396272b0644dfc5da8$__90634892cc16906024015b602060405180830381865af415801561128b573d6000803e3d6000fd5b505050506040513d601f19601f820116820180604052508101906112af9190615333565b905090565b60006112af60006132c2565b6112c8614876565b60008281526014602090815260409182902082516102008101845281546001600160801b038082168352600160801b9091048116938201939093526001808301549093169381019390935260028101546001600160a01b0390811660608501526003820154166080840152600481015460a0840152600581015460c0840152600681015460e08401526007810154909161010084019160ff169081111561137157611371614ba9565b600181111561138257611382614ba9565b81526008820154602082015260098201546040820152600a8201546060820152600b8201546080820152600c82015460a09091019060ff1660058111156113cb576113cb614ba9565b60058111156113dc576113dc614ba9565b8152600d8201546020820152600e9091015460409091015292915050565b600082815260ee60205260409020600101546114158161336b565b61123283836134c3565b600061142961330b565b611441335b610184546001600160a01b0316906134e6565b604051637f337ae160e11b815273__$e2770451a2a37dcdd32d3c1720bab879c1$__9063fe66f5c290611481906000908990899089908990600401615619565b602060405180830381865af415801561149e573d6000803e3d6000fd5b505050506040513d601f19601f820116820180604052508101906114c29190615476565b95945050505050565b600080516020615d7e8339815191526114e38161336b565b8382146115235760405162461bcd60e51b815260206004820152600e60248201526d0eadcdac2e8c6d040d8cadccee8d60931b6044820152606401610ac2565b60005b60ff81168511156115835761157186868360ff16818110611549576115496156f4565b9050602002013585858460ff16818110611565576115656156f4565b90506020020135612ba8565b8061157b8161570a565b915050611526565b505050505050565b6001600160a01b03811633146115fb5760405162461bcd60e51b815260206004820152602f60248201527f416363657373436f6e74726f6c3a2063616e206f6e6c792072656e6f756e636560448201526e103937b632b9903337b91039b2b63360891b6064820152608401610ac2565b611605828261354f565b5050565b6101845461161f906001600160a01b0316613351565b6001600160a01b0316336001600160a01b0316148061166457506101845461164f906001600160a01b031661335e565b6001600160a01b0316336001600160a01b0316145b6116805760405162461bcd60e51b8152600401610ac2906154ec565b73__$a68f613c3bdb728f6ba077784ec1fd15de$__632fb8626260006116a660006132c2565b6116b060006132ea565b6040516001600160e01b031960e086901b168152600481019390935260248301919091526044820152606481018590526084810184905260a40160006040518083038186803b15801561170257600080fd5b505af4158015611716573d6000803e3d6000fd5b5050505060008211156116055761172b61182d565b6116055760405162461bcd60e51b815260206004820152601a60248201527f506f6f6c3a2045786365656473204d696e46697273744c6f73730000000000006044820152606401610ac2565b61177f61330b565b611797335b610184546001600160a01b031690613572565b6040516317f8caf760e31b815273__$f05580c97a29e5f8396272b0644dfc5da8$__9063bfc657b8906117d39060009086908690600401615729565b60006040518083038186803b1580156117eb57600080fd5b505af4158015611583573d6000803e3d6000fd5b611807612579565b6118235760405162461bcd60e51b8152600401610ac290615756565b61182b6135e7565b565b60006118376122b3565b600a5463ffffffff161115919050565b61184f61330b565b60405163b21b589960e01b8152600060048201523360248201526044810182905273__$f05580c97a29e5f8396272b0644dfc5da8$__9063b21b58999060640160006040518083038186803b1580156118a757600080fd5b505af41580156118bb573d6000803e3d6000fd5b505050506118c7612469565b50565b61018454606090819033906118e7906001600160a01b0316613639565b6001600160a01b03161461192e5760405162461bcd60e51b815260206004820152600e60248201526d1b9bdd08185d5d1a1bdc9a5e995960921b6044820152606401610ac2565b8483811461196f5760405162461bcd60e51b815260206004820152600e60248201526d092dcecc2d8d2c840d8cadccee8d60931b6044820152606401610ac2565b6000816001600160401b0381111561198957611989614961565b6040519080825280602002602001820160405280156119b2578160200160208202803683370190505b50905060005b82811015611a6a57600080611a0e60008c8c868181106119da576119da6156f4565b9050602002013560009081526010820160209081526040808320548352600e90930190522060018101546004909101549091565b91509150611a3760008c8c86818110611a2957611a296156f4565b905060200201358484613646565b848481518110611a4957611a496156f4565b60200260200101818152505050508080611a62906157b3565b9150506119b8565b5060008073__$7f0f8de4978e89001c10ba53aee4a3ea4c$__632f3e0ce060008c8c8c8c6040518663ffffffff1660e01b8152600401611aae9594939291906157cc565b600060405180830381865af4158015611acb573d6000803e3d6000fd5b505050506040513d6000823e601f3d908101601f19168201604052611af39190810190615860565b9150915060008060005b86811015611be4576000868281518110611b1957611b196156f4565b6020026020010151858381518110611b3357611b336156f4565b6020026020010151611b4591906158b9565b905080868381518110611b5a57611b5a6156f4565b602002602001015111611b9357858281518110611b7957611b796156f4565b602002602001015184611b8c91906158cc565b9350611bd1565b611b9d81856158cc565b935080868381518110611bb257611bb26156f4565b6020026020010151611bc491906158b9565b611bce90846158cc565b92505b5080611bdc816157b3565b915050611afd565b508160006008016000828254611bfa91906158cc565b909155505060098054829190600090611c149084906158cc565b909155505060408051308152602081018490529081018290524260608201527f2fe77b1c99aca6b022b8efc6e3e8dd1b48b30748709339b65c50ef3263443e099060800160405180910390a150919a909950975050505050505050565b6040805161016081018252600080825260208201819052918101829052606081018290526080810182905260a0810182905260c0810182905260e08101829052610100810182905261012081018290526101408101919091526001805483908110611cde57611cde6156f4565b600091825260209182902060408051610160810182526002909302909101805463ffffffff808216855264010000000080830482169686019690965268010000000000000000808304821694860194909452600160601b820481166060860152600160801b820481166080860152600160a01b8204811660a0860152600160c01b8204811660c0860152600160e01b909104811660e08501526001909101548082166101008501529384048116610120840152920490911661014082015292915050565b604051639a1140b960e01b815260006004820181905290819073__$a68f613c3bdb728f6ba077784ec1fd15de$__90639a1140b990602401602060405180830381865af4158015611df7573d6000803e3d6000fd5b505050506040513d601f19601f82011682018060405250810190611e1b9190615476565b60235490939092509050565b611e2f61330b565b611e47600080516020615d7e833981519152336121fe565b80611e655750611e65600080516020615d5e833981519152336121fe565b611e815760405162461bcd60e51b8152600401610ac2906158df565b604051635b56e10160e01b81526000600482015263ffffffff8216602482015273__$f05580c97a29e5f8396272b0644dfc5da8$__90635b56e10190604401611138565b604051638d372cf960e01b81526000600482018190529073__$f05580c97a29e5f8396272b0644dfc5da8$__90638d372cf9906024015b602060405180830381865af4158015611f19573d6000803e3d6000fd5b505050506040513d601f19601f820116820180604052508101906112af9190615934565b611f4561330b565b61018454611f5b906001600160a01b031661335e565b6001600160a01b0316336001600160a01b031614611fd55760405162461bcd60e51b815260206004820152603160248201527f53656375726974697a6174696f6e506f6f6c3a2043616c6c6572206d75737420604482015270189948139bdd19551bdad95b95985d5b1d607a1b6064820152608401610ac2565b604051630837ca3160e11b8152600060048201526001600160a01b03831660248201526044810182905273__$f05580c97a29e5f8396272b0644dfc5da8$__9063106f9462906064016117d3565b61202b612579565b6120475760405162461bcd60e51b8152600401610ac290615756565b61182b613696565b61205761330b565b600080516020615d5e83398151915261206f8161336b565b604051638d372cf960e01b81526000600482015273__$f05580c97a29e5f8396272b0644dfc5da8$__90638d372cf990602401602060405180830381865af41580156120bf573d6000803e3d6000fd5b505050506040513d601f19601f820116820180604052508101906120e39190615934565b6121475760405162461bcd60e51b815260206004820152602f60248201527f53656375726974697a6174696f6e506f6f6c3a20526564656d7074696f6e206860448201526e185cc81b9bdd08199a5b9a5cda1959608a1b6064820152608401610ac2565b604051637d7c571760e11b8152600060048201526001600160a01b038316602482015273__$f05580c97a29e5f8396272b0644dfc5da8$__9063faf8ae2e906044016117d3565b6000828152610120602052604081206121a790836136d3565b9392505050565b6121b661330b565b6121bf3361142e565b604051637538156560e01b8152600060048201526024810182905273__$f05580c97a29e5f8396272b0644dfc5da8$__90637538156590604401611138565b600091825260ee602090815260408084206001600160a01b0393909316845291905290205460ff1690565b600080516020615d7e8339815191526122418161336b565b604051632915c6ef60e21b8152600060048201526024810183905273__$7f0f8de4978e89001c10ba53aee4a3ea4c$__9063a4571bbc9060440160006040518083038186803b15801561229357600080fd5b505af41580156122a7573d6000803e3d6000fd5b50505050611605612469565b600073__$a68f613c3bdb728f6ba077784ec1fd15de$__63937e8cbf6122d960006132c2565b6122e360006132ea565b604051639a1140b960e01b81526000600482015273__$a68f613c3bdb728f6ba077784ec1fd15de$__90639a1140b990602401602060405180830381865af4158015612333573d6000803e3d6000fd5b505050506040513d601f19601f820116820180604052508101906123579190615476565b60235460405160e086901b6001600160e01b03191681526004810194909452602484019290925260448301526064820152608401602060405180830381865af41580156123a8573d6000803e3d6000fd5b505050506040513d601f19601f820116820180604052508101906112af9190615476565b6123d461330b565b600080516020615d5e8339815191526123ec8161336b565b60405163d37cc71360e01b815273__$e2770451a2a37dcdd32d3c1720bab879c1$__9063d37cc71390612430906002908b908b908b908b908b908b9060040161598d565b60006040518083038186803b15801561244857600080fd5b505af415801561245c573d6000803e3d6000fd5b5050505050505050505050565b73__$a68f613c3bdb728f6ba077784ec1fd15de$__63c1a5db1c600061248f60006132c2565b61249960006132ea565b6040516001600160e01b031960e086901b168152600481019390935260248301919091526044820152606401610aff565b6124d261330b565b6124ea600080516020615d7e833981519152336121fe565b806125085750612508600080516020615d5e833981519152336121fe565b6125245760405162461bcd60e51b8152600401610ac2906158df565b60405163070f0cf160e01b8152600060048201526024810182905273__$f05580c97a29e5f8396272b0644dfc5da8$__9063070f0cf190604401611138565b600061257160255460ff1690565b60ff16905090565b6000612593600080516020615d5e833981519152336121fe565b806112af57506112af6000336121fe565b6125ad33611784565b60405163ece6e31360e01b81526000600482015263ffffffff8216602482015273__$f05580c97a29e5f8396272b0644dfc5da8$__9063ece6e31390604401611138565b6000606073__$e2770451a2a37dcdd32d3c1720bab879c1$__63aa12d15f600086866040518463ffffffff1660e01b8152600401612631939291906159cf565b600060405180830381865af415801561264e573d6000803e3d6000fd5b505050506040513d6000823e601f3d908101601f191682016040526126769190810190615aba565b915091505b9250929050565b600081815261012060205260408120610a5a906136df565b60006112af60006132ea565b602554610100900460ff16158080156126c65750602554600160ff909116105b806126e05750303b1580156126e0575060255460ff166001145b6127435760405162461bcd60e51b815260206004820152602e60248201527f496e697469616c697a61626c653a20636f6e747261637420697320616c72656160448201526d191e481a5b9a5d1a585b1a5e995960921b6064820152608401610ac2565b6025805460ff191660011790558015612766576025805461ff0019166101001790555b61276f336136e9565b6001600160a01b0383166127c55760405162461bcd60e51b815260206004820181905260248201527f526567697374727920616464726573732063616e6e6f7420626520656d7074796044820152606401610ac2565b61018480546001600160a01b0319166001600160a01b03851617905581516000906127f99060209085018101908501615af6565b80519091506001600160a01b031661284c5760405162461bcd60e51b8152602060048201526016602482015275506f6f6c3a20496e76616c69642063757272656e637960501b6044820152606401610ac2565b8051600780546001600160a01b0319166001600160a01b0390921691909117905560408101516000805460ff1916911515919091178155600a80546bffffffffffffffffffffffff1630600160601b0217905560208201516128ae9190613731565b6128bd6000826060015161380b565b805160405163095ea7b360e01b815230600482015260001960248201526001600160a01b039091169063095ea7b3906044016020604051808303816000875af115801561290e573d6000803e3d6000fd5b505050506040513d601f19601f820116820180604052508101906129329190615934565b61297e5760405162461bcd60e51b815260206004820152601e60248201527f506f6f6c3a2043757272656e637920617070726f76616c206661696c656400006044820152606401610ac2565b61018454612994906001600160a01b03166132fe565b610184546001600160a01b039182169163a22cb465916129b49116613639565b6040516001600160e01b031960e084901b1681526001600160a01b03909116600482015260016024820152604401600060405180830381600087803b1580156129fc57600080fd5b505af1158015612a10573d6000803e3d6000fd5b50505050508015611232576025805461ff0019169055604051600181527f7f26b83ff96e1f2b6a682f133852f6798a09c465da95921460cefb38474024989060200160405180910390a1505050565b600082815260ee6020526040902060010154612a7a8161336b565b611232838361354f565b6040516303954afb60e51b81526000600482018190529073__$f05580c97a29e5f8396272b0644dfc5da8$__906372a95f6090602401611efc565b612ac761330b565b612acf613842565b612ae7600080516020615d7e833981519152336121fe565b80612b055750612b05600080516020615d5e833981519152336121fe565b612b215760405162461bcd60e51b8152600401610ac2906158df565b604051639178a8a160e01b815273__$e2770451a2a37dcdd32d3c1720bab879c1$__90639178a8a190612b61906002908890889088908890600401615b72565b60006040518083038186803b158015612b7957600080fd5b505af4158015612b8d573d6000803e3d6000fd5b50505050610b2b6001608a55565b6000610a5a6000836138a2565b600080516020615d7e833981519152612bc08161336b565b6040516356a5a29960e01b815260006004820152602481018490526044810183905273__$7f0f8de4978e89001c10ba53aee4a3ea4c$__906356a5a2999060640160006040518083038186803b158015612c1957600080fd5b505af4158015612c2d573d6000803e3d6000fd5b50505050611232612469565b612c4161330b565b61018454612c57906001600160a01b0316613351565b6001600160a01b0316336001600160a01b03161480612c9c575061018454612c87906001600160a01b031661335e565b6001600160a01b0316336001600160a01b0316145b612cb85760405162461bcd60e51b8152600401610ac2906154ec565b60405163289cbccd60e21b8152600060048201526024810182905273__$f05580c97a29e5f8396272b0644dfc5da8$__9063a272f33490604401611138565b612cff61330b565b612d07613842565b612d1f600080516020615d7e833981519152336121fe565b80612d3d5750612d3d600080516020615d5e833981519152336121fe565b612d595760405162461bcd60e51b8152600401610ac2906158df565b604051635cd35d6360e11b8152600060048201526001600160a01b038216602482015273__$f05580c97a29e5f8396272b0644dfc5da8$__9063b9a6bac69060440160006040518083038186803b158015612db357600080fd5b505af4158015612dc7573d6000803e3d6000fd5b505061018454612de292506001600160a01b03169050613351565b60405163dc90f9fd60e01b81526001600160a01b038381166004830152919091169063dc90f9fd90602401600060405180830381600087803b158015612e2757600080fd5b505af1158015612e3b573d6000803e3d6000fd5b505050506118c76001608a55565b612e5161330b565b612e5a3361142e565b612e847f59abfac6520ec36a6556b2a4dd949cc40007459bcd5cd2507f1e5cc77b6bc97e836121fe565b612ee95760405162461bcd60e51b815260206004820152603060248201527f53656375726974697a6174696f6e506f6f6c3a204f6e6c79204f726967696e6160448201526f3a37b91031b0b710323930bbb237bbb760811b6064820152608401610ac2565b61018454612eff906001600160a01b031661335e565b604051634ce9451960e01b81523060048201526001600160a01b039190911690634ce9451990602401602060405180830381865afa158015612f45573d6000803e3d6000fd5b505050506040513d601f19601f82011682018060405250810190612f699190615934565b15612fc25760405162461bcd60e51b815260206004820152602360248201527f53656375726974697a6174696f6e506f6f6c3a207769746864726177207061756044820152621cd95960ea1b6064820152608401610ac2565b604051635d46333760e11b8152600060048201526001600160a01b03831660248201526044810182905273__$f05580c97a29e5f8396272b0644dfc5da8$__9063ba8c666e906064016117d3565b6001600160a01b0381166130665760405162461bcd60e51b815260206004820152601e60248201527f696e76616c69642063726564696f2061646170746572206164647265737300006044820152606401610ac2565b60005b82811015610b2b576000826001600160a01b031663057dc241868685818110613094576130946156f4565b905060200201356040518263ffffffff1660e01b81526004016130b991815260200190565b6020604051808303816000875af11580156130d8573d6000803e3d6000fd5b505050506040513d601f19601f820116820180604052508101906130fc9190615476565b9050613120858584818110613113576131136156f4565b9050602002013582612ba8565b508061312b816157b3565b915050613069565b61313b61330b565b61018454613151906001600160a01b0316613351565b6001600160a01b0316336001600160a01b03161480613196575061018454613181906001600160a01b031661335e565b6001600160a01b0316336001600160a01b0316145b6131b25760405162461bcd60e51b8152600401610ac2906154ec565b604051637564542160e11b8152600060048201526024810182905273__$f05580c97a29e5f8396272b0644dfc5da8$__9063eac8a84290604401611138565b60408051808201909152600080825260208201526002805483908110613219576132196156f4565b60009182526020918290206040805180820190915260029092020180546001600160a01b03168252600101549181019190915292915050565b604051631c87621560e31b81526000600482018190529073__$f05580c97a29e5f8396272b0644dfc5da8$__9063e43b10a89060240161126e565b60006001600160e01b03198216637965db0b60e01b1480610a5a57506301ffc9a760e01b6001600160e01b0319831614610a5a565b6000806000806132d1856138d0565b9250925092506114c2836132e584846139d5565b6139d5565b6000610a5a826009015483600801546139d5565b6000610a5a826005613a25565b60585460ff161561182b5760405162461bcd60e51b815260206004820152601060248201526f14185d5cd8589b194e881c185d5cd95960821b6044820152606401610ac2565b6000610a5a826000613a25565b6000610a5a826009613a25565b6118c78133613aaa565b6000818152601083016020908152604080832054808452600e860190925282206001810154600482015460059092015490919065ffffffffffff164210613422576000838152600e870160205260409020600181015460028201546005909201546133e8929065ffffffffffff16613b03565b6000848152600e8801602052604090206004810154600382015460059092015492945061341f9290919065ffffffffffff16613b03565b90505b80600003613450576000858152600f87016020526040902054613446908390613b23565b9350505050610a5a565b613446816134738489600f0160008a815260200190815260200160002054613b23565b613b23565b600082815260ee6020526040808220600101805490849055905190918391839186917fbd79b86ffe0ab8e8776151514217cd7cacd52c909f66475c3af44e129f0b00ff9190a4505050565b6134cd8282613b2f565b6000828152610120602052604090206112329082613bb5565b6134ef82613639565b6001600160a01b0316816001600160a01b0316146116055760405162461bcd60e51b815260206004820152601960248201527f52656769737472793a204f6e6c79204c6f616e4b65726e656c000000000000006044820152606401610ac2565b6135598282613bca565b6000828152610120602052604090206112329082613c31565b61357b82613351565b6001600160a01b0316816001600160a01b0316146116055760405162461bcd60e51b8152602060048201526024808201527f52656769737472793a204f6e6c792053656375726974697a6174696f6e4d616e60448201526330b3b2b960e11b6064820152608401610ac2565b6135ef613c46565b6058805460ff191690557f5db9ee0a495bf2e6ff9c91a7834c1ba4fdd244a5e8aa4e537bd38aeae4b073aa335b6040516001600160a01b03909116815260200160405180910390a1565b6000610a5a826006613a25565b600081600003613673576000848152600f8601602052604090205461366c908490613b23565b9050611076565b61366c826134738588600f01600089815260200190815260200160002054613b23565b61369e61330b565b6058805460ff191660011790557f62e78cea01bee320cd4e420270b5ea74000d11b0c9f74754ebdbfc544b05a25861361c3390565b60006121a78383613c8f565b6000610a5a825490565b602554610100900460ff166137105760405162461bcd60e51b8152600401610ac290615bb0565b613718613cb9565b613720613cec565b613728613d13565b6118c781613d3a565b61373e61271060646154b3565b8163ffffffff1611156137b95760405162461bcd60e51b815260206004820152603b60248201527f53656375726974697a6174696f6e506f6f6c3a206d696e46697273744c6f737360448201527f43757368696f6e2069732067726561746572207468616e2031303000000000006064820152608401610ac2565b600a8201805463ffffffff191663ffffffff83169081179091556040519081527f091193ea2a1d71a11f3479abe1d30b1ba8fecf8b18e1c728e3ee787de54d0399906020015b60405180910390a15050565b600d82018190556040518181527f3fb30b6090e6989c6819119c2885012949e75471ed4ce5e80c9be541ea0e2f3f906020016137ff565b6002608a54036138945760405162461bcd60e51b815260206004820152601f60248201527f5265656e7472616e637947756172643a207265656e7472616e742063616c6c006044820152606401610ac2565b6002608a55565b6001608a55565b6000806000806138b28686613e05565b9250925092506138c6836132e584846139d5565b9695505050505050565b601a810154601c8201546018830154601b840154600093849384939192909190838503613912576000836139038a613f71565b965096509650505050506139ce565b60008061391e42613fe3565b9050825b8181101561399257600081815260168c016020526040902054801561397d5761396e846132e5836139698a6139578989613fff565b6b033b2e3c9fd0803ce800000061404f565b61410d565b935061397a8a826139d5565b99505b5061398b81620151806158cc565b9050613922565b506139ae6139a887613969876139578689613fff565b83614130565b6139b8868a6139d5565b6139c18c613f71565b9850985098505050505050505b9193909250565b6000826139e283826158cc565b9150811015610a5a5760405162461bcd60e51b815260206004820152600f60248201526e1cd859994b5859190b59985a5b1959608a1b6044820152606401610ac2565b6000826001600160a01b031663bcaa0c55836009811115613a4857613a48614ba9565b6040516001600160e01b031960e084901b16815260ff9091166004820152602401602060405180830381865afa158015613a86573d6000803e3d6000fd5b505050506040513d601f19601f820116820180604052508101906121a79190615333565b613ab482826121fe565b61160557613ac18161414c565b613acc83602061415e565b604051602001613add929190615c1f565b60408051601f198184030181529082905262461bcd60e51b8252610ac291600401615c94565b6000814210613b1b57613b18848484426142f9565b93505b509192915050565b60006121a7828461410d565b613b3982826121fe565b61160557600082815260ee602090815260408083206001600160a01b03851684529091529020805460ff19166001179055613b713390565b6001600160a01b0316816001600160a01b0316837f2f8788117e7eff1d82e926ec794901d17c78024a50270940304540a733656f0d60405160405180910390a45050565b60006121a7836001600160a01b038416614312565b613bd482826121fe565b1561160557600082815260ee602090815260408083206001600160a01b0385168085529252808320805460ff1916905551339285917ff6391f5c32d9c69d2a47ea670b442974b53935d1edc7fd64eb21e047a839171b9190a45050565b60006121a7836001600160a01b038416614361565b60585460ff1661182b5760405162461bcd60e51b815260206004820152601460248201527314185d5cd8589b194e881b9bdd081c185d5cd95960621b6044820152606401610ac2565b6000826000018281548110613ca657613ca66156f4565b9060005260206000200154905092915050565b602554610100900460ff16613ce05760405162461bcd60e51b8152600401610ac290615bb0565b6058805460ff19169055565b602554610100900460ff1661389b5760405162461bcd60e51b8152600401610ac290615bb0565b602554610100900460ff1661182b5760405162461bcd60e51b8152600401610ac290615bb0565b602554610100900460ff16613d615760405162461bcd60e51b8152600401610ac290615bb0565b6001600160a01b038116613d725750335b613d7d60003361445b565b613d95600080516020615d5e8339815191528261445b565b613dcd7f59abfac6520ec36a6556b2a4dd949cc40007459bcd5cd2507f1e5cc77b6bc97e600080516020615d5e833981519152613478565b6118c77f21702c8af46127c7fa207f89d0b0a8441bb32959a0ac7df790e9ab1a25c98926600080516020615d7e833981519152613478565b60188201546000828152601d84016020908152604080832054601b870154601e880190935290832054929384938493849391613e418a8a614465565b15613e99576000613e528b8b614498565b9050613e95613e618c8c613375565b8c6017018381548110613e7657613e766156f4565b60009182526020909120600290910201546001600160801b031661410d565b9550505b82600003613eb357600097509550929350613f6a92505050565b600080613ebf42613fe3565b60008c815260148e01602052604081205491925090613eed90600160801b90046001600160801b0316613fe3565b9050848110158015613efe57508181105b15613f355760008c815260148e0160205260409020546001600160801b0316613f2f816139698a6139578787613fff565b909a5092505b613f50613f4a876139698a613957878b613fff565b84614130565b613f5a858c6139d5565b899a509a509a5050505050505050505b9250925092565b6000805b6017830154811015613fdd57613fc9826132e5613fb48685613fa56b033b2e3c9fd0803ce80000006103e86154b3565b613faf91906158cc565b614617565b866017018581548110613e7657613e766156f4565b915080613fd5816157b3565b915050613f75565b50919050565b6000613ff262015180836154ca565b610a5a90620151806154b3565b60008261400c83826158b9565b9150811115610a5a5760405162461bcd60e51b815260206004820152600f60248201526e1cd859994b5cdd588b59985a5b1959608a1b6044820152606401610ac2565b60008380156140ef5760018416801561406a5785925061406e565b8392505b50600283046002850494505b84156140e957858602868782041461409157600080fd5b818101818110156140a157600080fd5b85900496505060018516156140de5785830283878204141587151516156140c757600080fd5b818101818110156140d757600080fd5b8590049350505b60028504945061407a565b50614105565b8380156140ff5760009250614103565b8392505b505b509392505050565b60006b033b2e3c9fd0803ce800000061412684846146d7565b6121a791906154ca565b60008282111561414257506000610a5a565b6121a78383613fff565b6060610a5a6001600160a01b03831660145b6060600061416d8360026154b3565b6141789060026158cc565b6001600160401b0381111561418f5761418f614961565b6040519080825280601f01601f1916602001820160405280156141b9576020820181803683370190505b509050600360fc1b816000815181106141d4576141d46156f4565b60200101906001600160f81b031916908160001a905350600f60fb1b81600181518110614203576142036156f4565b60200101906001600160f81b031916908160001a90535060006142278460026154b3565b6142329060016158cc565b90505b60018111156142aa576f181899199a1a9b1b9c1cb0b131b232b360811b85600f1660108110614266576142666156f4565b1a60f81b82828151811061427c5761427c6156f4565b60200101906001600160f81b031916908160001a90535060049490941c936142a381615cc7565b9050614235565b5083156121a75760405162461bcd60e51b815260206004820181905260248201527f537472696e67733a20686578206c656e67746820696e73756666696369656e746044820152606401610ac2565b60006114c261430c8561395786866158b9565b8661410d565b600081815260018301602052604081205461435957508154600181810184556000848152602080822090930184905584548482528286019093526040902091909155610a5a565b506000610a5a565b6000818152600183016020526040812054801561444a5760006143856001836158b9565b8554909150600090614399906001906158b9565b90508181146143fe5760008660000182815481106143b9576143b96156f4565b90600052602060002001549050808760000184815481106143dc576143dc6156f4565b6000918252602080832090910192909255918252600188019052604090208390555b855486908061440f5761440f615cde565b600190038181906000526020600020016000905590558560010160008681526020019081526020016000206000905560019350505050610a5a565b6000915050610a5a565b5092915050565b61160582826134c3565b600061447f6b033b2e3c9fd0803ce80000006103e86154b3565b6000928352601093909301602052506040902054101590565b60008181526014830160205260408120548290600160801b90046001600160801b0316826144c542613fe3565b905060006144d38785614739565b90506000600182604001516144e89190615cf4565b90506001600160801b036000805b60178b01546001600160801b03821610156146005760008b601701826001600160801b03168154811061452b5761452b6156f4565b906000526020600020906002020160000160109054906101000a90046001600160801b03169050846001600160801b03168c601701836001600160801b03168154811061457a5761457a6156f4565b60009182526020909120600160029092020101546001600160801b03161480156145b65750826001600160801b0316816001600160801b031610155b80156145e157506145ca8162015180615d14565b6145dd906001600160801b0316896158cc565b8710155b156145ed578193508092505b50806145f881615d37565b9150506144f6565b50506001600160801b031698975050505050505050565b6000818152600e8301602052604081206001810154600482015482546005909301549192909165ffffffffffff1642106146b7576000858152600e8701602052604090206001810154600282015460059092015461467d929065ffffffffffff16613b03565b6000868152600e880160205260409020600481015460038201546005909201549295506146b49290919065ffffffffffff16613b03565b91505b816000036146c9576134468382613b23565b613446826134738584613b23565b60008115806146fb575082826146ed81836154b3565b92506146f990836154ca565b145b610a5a5760405162461bcd60e51b815260206004820152600f60248201526e1cd859994b5b5d5b0b59985a5b1959608a1b6044820152606401610ac2565b614741614876565b600082815260148401602090815260409182902082516102008101845281546001600160801b038082168352600160801b9091048116938201939093526001808301549093169381019390935260028101546001600160a01b0390811660608501526003820154166080840152600481015460a0840152600581015460c0840152600681015460e08401526007810154909161010084019160ff16908111156147ec576147ec614ba9565b60018111156147fd576147fd614ba9565b81526008820154602082015260098201546040820152600a8201546060820152600b8201546080820152600c82015460a09091019060ff16600581111561484657614846614ba9565b600581111561485757614857614ba9565b8152600d8201546020820152600e909101546040909101529392505050565b6040805161020081018252600080825260208201819052918101829052606081018290526080810182905260a0810182905260c0810182905260e0810182905261010081018290526101208101829052610140810182905261016081018290526101808101829052906101a0820190815260200160008152602001600081525090565b60006020828403121561490b57600080fd5b81356001600160e01b0319811681146121a757600080fd5b60006020828403121561493557600080fd5b5035919050565b6001600160a01b03811681146118c757600080fd5b803561495c8161493c565b919050565b634e487b7160e01b600052604160045260246000fd5b60405161010081016001600160401b038111828210171561499a5761499a614961565b60405290565b604051601f8201601f191681016001600160401b03811182821017156149c8576149c8614961565b604052919050565b600082601f8301126149e157600080fd5b81356001600160401b038111156149fa576149fa614961565b614a0d601f8201601f19166020016149a0565b818152846020838601011115614a2257600080fd5b816020850160208301376000918101602001919091529392505050565b60008060008060808587031215614a5557600080fd5b8435614a608161493c565b93506020850135614a708161493c565b92506040850135915060608501356001600160401b03811115614a9257600080fd5b614a9e878288016149d0565b91505092959194509250565b60008083601f840112614abc57600080fd5b5081356001600160401b03811115614ad357600080fd5b6020830191508360208260051b850101111561267b57600080fd5b60008060008060008060608789031215614b0757600080fd5b86356001600160401b0380821115614b1e57600080fd5b614b2a8a838b01614aaa565b90985096506020890135915080821115614b4357600080fd5b614b4f8a838b01614aaa565b90965094506040890135915080821115614b6857600080fd5b50614b7589828a01614aaa565b979a9699509497509295939492505050565b60008060408385031215614b9a57600080fd5b50508035926020909101359150565b634e487b7160e01b600052602160045260246000fd5b600281106118c7576118c7614ba9565b614bd881614bbf565b9052565b60068110614bd857614bd8614ba9565b81516001600160801b0316815261020081016020830151614c1860208401826001600160801b03169052565b506040830151614c3360408401826001600160801b03169052565b506060830151614c4e60608401826001600160a01b03169052565b506080830151614c6960808401826001600160a01b03169052565b5060a083015160a083015260c083015160c083015260e083015160e083015261010080840151614c9b82850182614bcf565b505061012083810151908301526101408084015190830152610160808401519083015261018080840151908301526101a080840151614cdc82850182614bdc565b50506101c083810151908301526101e092830151929091019190915290565b60008060408385031215614d0e57600080fd5b823591506020830135614d208161493c565b809150509250929050565b60008060008060408587031215614d4157600080fd5b84356001600160401b0380821115614d5857600080fd5b614d6488838901614aaa565b90965094506020870135915080821115614d7d57600080fd5b818701915087601f830112614d9157600080fd5b813581811115614da057600080fd5b8860208260081b8501011115614db557600080fd5b95989497505060200194505050565b60008060008060408587031215614dda57600080fd5b84356001600160401b0380821115614df157600080fd5b614dfd88838901614aaa565b90965094506020870135915080821115614e1657600080fd5b50614e2387828801614aaa565b95989497509550505050565b600281106118c757600080fd5b803561495c81614e2f565b60008060408385031215614e5a57600080fd5b8235614e658161493c565b91506020830135614d2081614e2f565b600081518084526020808501945080840160005b83811015614ea557815187529582019590820190600101614e89565b509495945050505050565b604081526000614ec36040830185614e75565b82810360208401526114c28185614e75565b815163ffffffff16815261016081016020830151614efb602084018263ffffffff169052565b506040830151614f13604084018263ffffffff169052565b506060830151614f2b606084018263ffffffff169052565b506080830151614f43608084018263ffffffff169052565b5060a0830151614f5b60a084018263ffffffff169052565b5060c0830151614f7360c084018263ffffffff169052565b5060e0830151614f8b60e084018263ffffffff169052565b506101008381015163ffffffff81168483015250506101208381015163ffffffff81168483015250506101408381015163ffffffff8116848301525b505092915050565b63ffffffff811681146118c757600080fd5b600060208284031215614ff357600080fd5b81356121a781614fcf565b6000806040838503121561501157600080fd5b823561501c8161493c565b946020939093013593505050565b60006020828403121561503c57600080fd5b81356121a78161493c565b60006001600160401b0382111561506057615060614961565b5060051b60200190565b60ff811681146118c757600080fd5b803561495c8161506a565b600082601f83011261509557600080fd5b813560206150aa6150a583615047565b6149a0565b82815260089290921b840181019181810190868411156150c957600080fd5b8286015b848110156151645761010081890312156150e75760008081fd5b6150ef614977565b81356150fa8161493c565b8152615107828601614951565b8186015260408281013590820152606080830135908201526080808301359082015260a0808301359082015260c0615140818401615079565b9082015260e0615151838201614e3c565b90820152835291830191610100016150cd565b509695505050505050565b6000806040838503121561518257600080fd5b82356001600160401b038082111561519957600080fd5b818501915085601f8301126151ad57600080fd5b813560206151bd6150a583615047565b82815260059290921b840181019181810190898411156151dc57600080fd5b948201945b838610156151fa578535825294820194908201906151e1565b9650508601359250508082111561521057600080fd5b5061521d85828601615084565b9150509250929050565b8281526040602082015260006110766040830184614e75565b6000806040838503121561525357600080fd5b823561525e8161493c565b915060208301356001600160401b0381111561527957600080fd5b61521d858286016149d0565b6000806000806060858703121561529b57600080fd5b84356152a68161493c565b935060208501356152b68161493c565b925060408501356001600160401b038111156152d157600080fd5b614e2387828801614aaa565b6000806000604084860312156152f257600080fd5b83356001600160401b0381111561530857600080fd5b61531486828701614aaa565b90945092505060208401356153288161493c565b809150509250925092565b60006020828403121561534557600080fd5b81516121a78161493c565b60006020828403121561536257600080fd5b81516121a78161506a565b634e487b7160e01b600052601160045260246000fd5b600181815b808511156153be5781600019048211156153a4576153a461536d565b808516156153b157918102915b93841c9390800290615388565b509250929050565b6000826153d557506001610a5a565b816153e257506000610a5a565b81600181146153f857600281146154025761541e565b6001915050610a5a565b60ff8411156154135761541361536d565b50506001821b610a5a565b5060208310610133831016604e8410600b8410161715615441575081810a610a5a565b61544b8383615383565b806000190482111561545f5761545f61536d565b029392505050565b60006121a760ff8416836153c6565b60006020828403121561548857600080fd5b5051919050565b600080604083850312156154a257600080fd5b505080516020909101519092909150565b8082028115828204841417610a5a57610a5a61536d565b6000826154e757634e487b7160e01b600052601260045260246000fd5b500490565b6020808252604a908201527f53656375726974697a6174696f6e506f6f6c3a2043616c6c6572206d7573742060408201527f62652053656375726974697a6174696f6e4d616e61676572206f72204e6f7465606082015269151bdad95b95985d5b1d60b21b608082015260a00190565b8183526000602080850194508260005b85811015614ea557813561557f81614fcf565b63ffffffff168752958201959082019060010161556c565b8781526080602082015260006155b160808301888a61555c565b82810360408401526155c481878961555c565b905082810360608401526155d981858761555c565b9a9950505050505050505050565b81835260006001600160fb1b0383111561560057600080fd5b8260051b80836020870137939093016020019392505050565b6000606087835260208181850152615634828501888a6155e7565b8481036040868101919091528682528791830160005b888110156156e457833561565d8161493c565b6001600160a01b03908116835284860135906156788261493c565b1682860152838301358383015285840135868301526080808501359083015260a0808501359083015260c06156ae818601615079565b60ff169083015260e06156c2858201614e3c565b6156ce82850182614bcf565b505061010093840193919091019060010161564a565b509b9a5050505050505050505050565b634e487b7160e01b600052603260045260246000fd5b600060ff821660ff81036157205761572061536d565b60010192915050565b8381526001600160a01b03831660208201526060810161574883614bbf565b826040830152949350505050565b6020808252603a908201527f556e74616e676c6564426173653a204d75737420686176652061646d696e207260408201527f6f6c6520746f20706572666f726d207468697320616374696f6e000000000000606082015260800190565b6000600182016157c5576157c561536d565b5060010190565b8581526060602082015260006157e66060830186886155e7565b82810360408401526157f98185876155e7565b98975050505050505050565b600082601f83011261581657600080fd5b815160206158266150a583615047565b82815260059290921b8401810191818101908684111561584557600080fd5b8286015b848110156151645780518352918301918301615849565b6000806040838503121561587357600080fd5b82516001600160401b038082111561588a57600080fd5b61589686838701615805565b935060208501519150808211156158ac57600080fd5b5061521d85828601615805565b81810381811115610a5a57610a5a61536d565b80820180821115610a5a57610a5a61536d565b60208082526025908201527f506f6f6c3a204e6f7420616e20706f6f6c2061646d696e206f7220706f6f6c2060408201526437bbb732b960d91b606082015260800190565b8051801515811461495c57600080fd5b60006020828403121561594657600080fd5b6121a782615924565b8183526000602080850194508260005b85811015614ea55781356159728161493c565b6001600160a01b03168752958201959082019060010161595f565b8781526080602082015260006159a760808301888a61594f565b82810360408401526159ba8187896155e7565b905082810360608401526155d981858761594f565b600060608083018684526020828186015281875180845260809350838701915082890160005b82811015615a11578151845292840192908401906001016159f5565b50505085810360408781019190915287518083528389019284019060005b81811015615aa957845180516001600160a01b03908116855287820151168785015284810151858501528881015189850152878101518885015260a0808201519085015260c08082015160ff169085015260e09081015190615a9381860183614bcf565b5050938501936101009290920191600101615a2f565b50909b9a5050505050505050505050565b60008060408385031215615acd57600080fd5b8251915060208301516001600160401b03811115615aea57600080fd5b61521d85828601615805565b600060808284031215615b0857600080fd5b604051608081018181106001600160401b0382111715615b2a57615b2a614961565b6040528251615b388161493c565b81526020830151615b4881614fcf565b6020820152615b5960408401615924565b6040820152606083015160608201528091505092915050565b8581526001600160a01b03858116602083015284166040820152608060608201819052600090615ba590830184866155e7565b979650505050505050565b6020808252602b908201527f496e697469616c697a61626c653a20636f6e7472616374206973206e6f74206960408201526a6e697469616c697a696e6760a81b606082015260800190565b60005b83811015615c16578181015183820152602001615bfe565b50506000910152565b7f416363657373436f6e74726f6c3a206163636f756e7420000000000000000000815260008351615c57816017850160208801615bfb565b7001034b99036b4b9b9b4b733903937b6329607d1b6017918401918201528351615c88816028840160208801615bfb565b01602801949350505050565b6020815260008251806020840152615cb3816040850160208701615bfb565b601f01601f19169190910160400192915050565b600081615cd657615cd661536d565b506000190190565b634e487b7160e01b600052603160045260246000fd5b6001600160801b038281168282160390808211156144545761445461536d565b6001600160801b03818116838216028082169190828114614fc757614fc761536d565b60006001600160801b03808316818103615d5357615d5361536d565b600101939250505056feb19546dff01e856fb3f010c267a7b1c60363cf8a4664e21cc89c26224620214e3e9c05fb0f9da4414e033bb9bf190a6e2072adf7e3077394fce683220513b8d7a2646970667358221220160cefd8f72a464801f6fbf99f60fcacd01ad37787ae90ce7d55d581cd2591c764736f6c63430008130033",
  "libraries": {
    "PoolAssetLogic": "0x7C45ae0575c0201Ea59555cD48879d5c4d8948Ad",
    "PoolNAVLogic": "0x6d204Df1B40D52b1e3D9551A743d06f1a6b781Eb",
    "TGELogic": "0x286Db326EAf230B448DD86a3e6c9e734F3A1cEC3",
    "RebaseLogic": "0xE9e0CC175676C1401A0eA294BB99f78dCe01e65B"
  },
  "devdoc": {
    "author": "Untangled Team",
    "events": {
      "Initialized(uint8)": {
        "details": "Triggered when the contract has been initialized or reinitialized."
      },
      "Paused(address)": {
        "details": "Emitted when the pause is triggered by `account`."
      },
      "RoleAdminChanged(bytes32,bytes32,bytes32)": {
        "details": "Emitted when `newAdminRole` is set as ``role``'s admin role, replacing `previousAdminRole` `DEFAULT_ADMIN_ROLE` is the starting admin for all roles, despite {RoleAdminChanged} not being emitted signaling this. _Available since v3.1._"
      },
      "RoleGranted(bytes32,address,address)": {
        "details": "Emitted when `account` is granted `role`. `sender` is the account that originated the contract call, an admin role bearer except when using {AccessControl-_setupRole}."
      },
      "RoleRevoked(bytes32,address,address)": {
        "details": "Emitted when `account` is revoked `role`. `sender` is the account that originated the contract call:   - if using `revokeRole`, it is the admin role bearer   - if using `renounceRole`, it is the role bearer (i.e. `account`)"
      },
      "Unpaused(address)": {
        "details": "Emitted when the pause is lifted by `account`."
      }
    },
    "kind": "dev",
    "methods": {
      "calcJuniorRatio()": {
        "details": "Uses RebaseLogic's calcJuniorRatio method to calculate the junior ratio.",
        "returns": {
          "juniorRatio": "The calculated junior ratio as a uint256 number."
        }
      },
      "changeSeniorAsset(uint256,uint256)": {
        "params": {
          "_seniorRedeem": "senior redeem amount",
          "_seniorSupply": "senior supply amount"
        }
      },
      "currentNAV()": {
        "returns": {
          "nav_": "current NAV"
        }
      },
      "decreaseIncomeReserve(uint256)": {
        "details": "trigger update reserve"
      },
      "disburse(address,uint256)": {
        "details": "Disburses a specified amount of currency to the given user.",
        "params": {
          "currencyAmount": "The amount of currency to disburse.",
          "usr": "The address of the user to receive the currency."
        }
      },
      "getRiskScoresLength()": {
        "returns": {
          "_0": "the length of the risk scores array"
        }
      },
      "getRoleAdmin(bytes32)": {
        "details": "Returns the admin role that controls `role`. See {grantRole} and {revokeRole}. To change a role's admin, use {_setRoleAdmin}."
      },
      "getRoleMember(bytes32,uint256)": {
        "details": "Returns one of the accounts that have `role`. `index` must be a value between 0 and {getRoleMemberCount}, non-inclusive. Role bearers are not sorted in any particular way, and their ordering may change at any point. WARNING: When using {getRoleMember} and {getRoleMemberCount}, make sure you perform all queries on the same block. See the following https://forum.openzeppelin.com/t/iterating-over-elements-on-enumerableset-in-openzeppelin-contracts/2296[forum post] for more information."
      },
      "getRoleMemberCount(bytes32)": {
        "details": "Returns the number of accounts that have `role`. Can be used together with {getRoleMember} to enumerate all bearers of a role."
      },
      "grantRole(bytes32,address)": {
        "details": "Grants `role` to `account`. If `account` had not been already granted `role`, emits a {RoleGranted} event. Requirements: - the caller must have ``role``'s admin role. May emit a {RoleGranted} event."
      },
      "hasRole(bytes32,address)": {
        "details": "Returns `true` if `account` has been granted `role`."
      },
      "increaseCapitalReserve(uint256)": {
        "details": "trigger update reserve when buy note token action happens"
      },
      "increaseTotalAssetRepaidCurrency(uint256)": {
        "details": "trigger update asset value repaid"
      },
      "paused()": {
        "details": "Returns true if the contract is paused, and false otherwise."
      },
      "renounceRole(bytes32,address)": {
        "details": "Revokes `role` from the calling account. Roles are often managed via {grantRole} and {revokeRole}: this function's purpose is to provide a mechanism for accounts to lose their privileges if they are compromised (such as when a trusted device is misplaced). If the calling account had been revoked `role`, emits a {RoleRevoked} event. Requirements: - the caller must be `account`. May emit a {RoleRevoked} event."
      },
      "revokeRole(bytes32,address)": {
        "details": "Revokes `role` from `account`. If `account` had been granted `role`, emits a {RoleRevoked} event. Requirements: - the caller must have ``role``'s admin role. May emit a {RoleRevoked} event."
      },
      "setUpOpeningBlockTimestamp()": {
        "details": "Trigger set up opening block timestamp"
      },
      "supportsInterface(bytes4)": {
        "details": "See {IERC165-supportsInterface}."
      }
    },
    "title": "Untangled's SecuritizationPool contract",
    "version": 1
  },
  "userdoc": {
    "kind": "user",
    "methods": {
      "calcJuniorRatio()": {
        "notice": "Calculate junior ratio based on current NAV, reserve and senior debt/balance."
      },
      "changeSeniorAsset(uint256,uint256)": {
        "notice": "changes the senior asset value based on new supply or redeems"
      },
      "collectAssets(uint256[],(address,address,bytes32,uint256,uint256,uint256,uint8,uint8)[])": {
        "notice": "collects NFT assets from a specified address"
      },
      "currentNAV()": {
        "notice": "calculates and returns the current NAV"
      },
      "exportAssets(address,address,uint256[])": {
        "notice": "exports NFT assets to another pool address"
      },
      "getAsset(bytes32)": {
        "notice": "retrieves loan information"
      },
      "getRiskScoresLength()": {
        "notice": "Riks scores length"
      },
      "hasFinishedRedemption()": {
        "notice": "checks if the redemption process has finished"
      },
      "initialize(address,bytes)": {
        "notice": "CONSTRUCTOR "
      },
      "injectTGEAddress(address,uint8)": {
        "notice": "injects the address of the Token Generation Event (TGE) and the associated token address"
      },
      "isDebtCeilingValid()": {
        "notice": "check current debt ceiling is valid"
      },
      "rebase()": {
        "notice": "rebase the debt and balance of the senior tranche according to the current ratio between senior and junior"
      },
      "setDebtCeiling(uint256)": {
        "notice": "sets debt ceiling value"
      },
      "setMinFirstLossCushion(uint32)": {
        "notice": "sets mint first loss value"
      },
      "setupRiskScores(uint32[],uint32[],uint32[])": {
        "notice": "sets up the risk scores for the contract for pool"
      },
      "withdraw(address,uint256)": {
        "notice": "allows the originator to withdraw from reserve"
      },
      "withdrawAssets(address[],uint256[],address[])": {
        "notice": "withdraws NFT assets from the contract and transfers them to recipients"
      }
    },
    "notice": "Main entry point for senior LPs (a.k.a. capital providers)  Automatically invests across borrower pools using an adjustable strategy.",
    "version": 1
  },
  "storageLayout": {
    "storage": [
      {
        "astId": 18781,
        "contract": "contracts/protocol/pool/Pool.sol:Pool",
        "label": "_poolStorage",
        "offset": 0,
        "slot": "0",
        "type": "t_struct(Storage)9752_storage"
      },
      {
        "astId": 759,
        "contract": "contracts/protocol/pool/Pool.sol:Pool",
        "label": "_initialized",
        "offset": 0,
        "slot": "37",
        "type": "t_uint8"
      },
      {
        "astId": 762,
        "contract": "contracts/protocol/pool/Pool.sol:Pool",
        "label": "_initializing",
        "offset": 1,
        "slot": "37",
        "type": "t_bool"
      },
      {
        "astId": 3600,
        "contract": "contracts/protocol/pool/Pool.sol:Pool",
        "label": "__gap",
        "offset": 0,
        "slot": "38",
        "type": "t_array(t_uint256)50_storage"
      },
      {
        "astId": 942,
        "contract": "contracts/protocol/pool/Pool.sol:Pool",
        "label": "_paused",
        "offset": 0,
        "slot": "88",
        "type": "t_bool"
      },
      {
        "astId": 1047,
        "contract": "contracts/protocol/pool/Pool.sol:Pool",
        "label": "__gap",
        "offset": 0,
        "slot": "89",
        "type": "t_array(t_uint256)49_storage"
      },
      {
        "astId": 1062,
        "contract": "contracts/protocol/pool/Pool.sol:Pool",
        "label": "_status",
        "offset": 0,
        "slot": "138",
        "type": "t_uint256"
      },
      {
        "astId": 1131,
        "contract": "contracts/protocol/pool/Pool.sol:Pool",
        "label": "__gap",
        "offset": 0,
        "slot": "139",
        "type": "t_array(t_uint256)49_storage"
      },
      {
        "astId": 4890,
        "contract": "contracts/protocol/pool/Pool.sol:Pool",
        "label": "__gap",
        "offset": 0,
        "slot": "188",
        "type": "t_array(t_uint256)50_storage"
      },
      {
        "astId": 184,
        "contract": "contracts/protocol/pool/Pool.sol:Pool",
        "label": "_roles",
        "offset": 0,
        "slot": "238",
        "type": "t_mapping(t_bytes32,t_struct(RoleData)179_storage)"
      },
      {
        "astId": 479,
        "contract": "contracts/protocol/pool/Pool.sol:Pool",
        "label": "__gap",
        "offset": 0,
        "slot": "239",
        "type": "t_array(t_uint256)49_storage"
      },
      {
        "astId": 33,
        "contract": "contracts/protocol/pool/Pool.sol:Pool",
        "label": "_roleMembers",
        "offset": 0,
        "slot": "288",
        "type": "t_mapping(t_bytes32,t_struct(AddressSet)6200_storage)"
      },
      {
        "astId": 143,
        "contract": "contracts/protocol/pool/Pool.sol:Pool",
        "label": "__gap",
        "offset": 0,
        "slot": "289",
        "type": "t_array(t_uint256)49_storage"
      },
      {
        "astId": 7924,
        "contract": "contracts/protocol/pool/Pool.sol:Pool",
        "label": "__gap",
        "offset": 0,
        "slot": "338",
        "type": "t_array(t_uint256)50_storage"
      },
      {
        "astId": 17114,
        "contract": "contracts/protocol/pool/Pool.sol:Pool",
        "label": "registry",
        "offset": 0,
        "slot": "388",
        "type": "t_contract(Registry)19188"
      }
    ],
    "types": {
      "t_address": {
        "encoding": "inplace",
        "label": "address",
        "numberOfBytes": "20"
      },
      "t_array(t_bytes32)dyn_storage": {
        "base": "t_bytes32",
        "encoding": "dynamic_array",
        "label": "bytes32[]",
        "numberOfBytes": "32"
      },
      "t_array(t_struct(NFTAsset)9569_storage)dyn_storage": {
        "base": "t_struct(NFTAsset)9569_storage",
        "encoding": "dynamic_array",
        "label": "struct DataTypes.NFTAsset[]",
        "numberOfBytes": "32"
      },
      "t_array(t_struct(RiskScore)9546_storage)dyn_storage": {
        "base": "t_struct(RiskScore)9546_storage",
        "encoding": "dynamic_array",
        "label": "struct DataTypes.RiskScore[]",
        "numberOfBytes": "32"
      },
      "t_array(t_struct(WriteOffGroup)9640_storage)dyn_storage": {
        "base": "t_struct(WriteOffGroup)9640_storage",
        "encoding": "dynamic_array",
        "label": "struct DataTypes.WriteOffGroup[]",
        "numberOfBytes": "32"
      },
      "t_array(t_uint256)49_storage": {
        "base": "t_uint256",
        "encoding": "inplace",
        "label": "uint256[49]",
        "numberOfBytes": "1568"
      },
      "t_array(t_uint256)50_storage": {
        "base": "t_uint256",
        "encoding": "inplace",
        "label": "uint256[50]",
        "numberOfBytes": "1600"
      },
      "t_bool": {
        "encoding": "inplace",
        "label": "bool",
        "numberOfBytes": "1"
      },
      "t_bytes32": {
        "encoding": "inplace",
        "label": "bytes32",
        "numberOfBytes": "32"
      },
      "t_contract(Registry)19188": {
        "encoding": "inplace",
        "label": "contract Registry",
        "numberOfBytes": "20"
      },
      "t_enum(ASSET_PURPOSE)9438": {
        "encoding": "inplace",
        "label": "enum Configuration.ASSET_PURPOSE",
        "numberOfBytes": "1"
      },
      "t_enum(AmortizationUnitType)10281": {
        "encoding": "inplace",
        "label": "enum UnpackLoanParamtersLib.AmortizationUnitType",
        "numberOfBytes": "1"
      },
      "t_mapping(t_address,t_bool)": {
        "encoding": "mapping",
        "key": "t_address",
        "label": "mapping(address => bool)",
        "numberOfBytes": "32",
        "value": "t_bool"
      },
      "t_mapping(t_bytes32,t_struct(AddressSet)6200_storage)": {
        "encoding": "mapping",
        "key": "t_bytes32",
        "label": "mapping(bytes32 => struct EnumerableSetUpgradeable.AddressSet)",
        "numberOfBytes": "32",
        "value": "t_struct(AddressSet)6200_storage"
      },
      "t_mapping(t_bytes32,t_struct(NFTDetails)9613_storage)": {
        "encoding": "mapping",
        "key": "t_bytes32",
        "label": "mapping(bytes32 => struct DataTypes.NFTDetails)",
        "numberOfBytes": "32",
        "value": "t_struct(NFTDetails)9613_storage"
      },
      "t_mapping(t_bytes32,t_struct(RoleData)179_storage)": {
        "encoding": "mapping",
        "key": "t_bytes32",
        "label": "mapping(bytes32 => struct AccessControlUpgradeable.RoleData)",
        "numberOfBytes": "32",
        "value": "t_struct(RoleData)179_storage"
      },
      "t_mapping(t_bytes32,t_uint256)": {
        "encoding": "mapping",
        "key": "t_bytes32",
        "label": "mapping(bytes32 => uint256)",
        "numberOfBytes": "32",
        "value": "t_uint256"
      },
      "t_mapping(t_uint256,t_bytes32)": {
        "encoding": "mapping",
        "key": "t_uint256",
        "label": "mapping(uint256 => bytes32)",
        "numberOfBytes": "32",
        "value": "t_bytes32"
      },
      "t_mapping(t_uint256,t_struct(LoanDetails)9633_storage)": {
        "encoding": "mapping",
        "key": "t_uint256",
        "label": "mapping(uint256 => struct DataTypes.LoanDetails)",
        "numberOfBytes": "32",
        "value": "t_struct(LoanDetails)9633_storage"
      },
      "t_mapping(t_uint256,t_struct(Rate)9628_storage)": {
        "encoding": "mapping",
        "key": "t_uint256",
        "label": "mapping(uint256 => struct DataTypes.Rate)",
        "numberOfBytes": "32",
        "value": "t_struct(Rate)9628_storage"
      },
      "t_mapping(t_uint256,t_uint256)": {
        "encoding": "mapping",
        "key": "t_uint256",
        "label": "mapping(uint256 => uint256)",
        "numberOfBytes": "32",
        "value": "t_uint256"
      },
      "t_struct(AddressSet)6200_storage": {
        "encoding": "inplace",
        "label": "struct EnumerableSetUpgradeable.AddressSet",
        "members": [
          {
            "astId": 6199,
            "contract": "contracts/protocol/pool/Pool.sol:Pool",
            "label": "_inner",
            "offset": 0,
            "slot": "0",
            "type": "t_struct(Set)5885_storage"
          }
        ],
        "numberOfBytes": "64"
      },
      "t_struct(LoanDetails)9633_storage": {
        "encoding": "inplace",
        "label": "struct DataTypes.LoanDetails",
        "members": [
          {
            "astId": 9630,
            "contract": "contracts/protocol/pool/Pool.sol:Pool",
            "label": "borrowed",
            "offset": 0,
            "slot": "0",
            "type": "t_uint128"
          },
          {
            "astId": 9632,
            "contract": "contracts/protocol/pool/Pool.sol:Pool",
            "label": "authWriteOff",
            "offset": 16,
            "slot": "0",
            "type": "t_bool"
          }
        ],
        "numberOfBytes": "32"
      },
      "t_struct(NFTAsset)9569_storage": {
        "encoding": "inplace",
        "label": "struct DataTypes.NFTAsset",
        "members": [
          {
            "astId": 9566,
            "contract": "contracts/protocol/pool/Pool.sol:Pool",
            "label": "tokenAddress",
            "offset": 0,
            "slot": "0",
            "type": "t_address"
          },
          {
            "astId": 9568,
            "contract": "contracts/protocol/pool/Pool.sol:Pool",
            "label": "tokenId",
            "offset": 0,
            "slot": "1",
            "type": "t_uint256"
          }
        ],
        "numberOfBytes": "64"
      },
      "t_struct(NFTDetails)9613_storage": {
        "encoding": "inplace",
        "label": "struct DataTypes.NFTDetails",
        "members": [
          {
            "astId": 9580,
            "contract": "contracts/protocol/pool/Pool.sol:Pool",
            "label": "futureValue",
            "offset": 0,
            "slot": "0",
            "type": "t_uint128"
          },
          {
            "astId": 9582,
            "contract": "contracts/protocol/pool/Pool.sol:Pool",
            "label": "maturityDate",
            "offset": 16,
            "slot": "0",
            "type": "t_uint128"
          },
          {
            "astId": 9584,
            "contract": "contracts/protocol/pool/Pool.sol:Pool",
            "label": "risk",
            "offset": 0,
            "slot": "1",
            "type": "t_uint128"
          },
          {
            "astId": 9586,
            "contract": "contracts/protocol/pool/Pool.sol:Pool",
            "label": "debtor",
            "offset": 0,
            "slot": "2",
            "type": "t_address"
          },
          {
            "astId": 9588,
            "contract": "contracts/protocol/pool/Pool.sol:Pool",
            "label": "principalTokenAddress",
            "offset": 0,
            "slot": "3",
            "type": "t_address"
          },
          {
            "astId": 9590,
            "contract": "contracts/protocol/pool/Pool.sol:Pool",
            "label": "salt",
            "offset": 0,
            "slot": "4",
            "type": "t_uint256"
          },
          {
            "astId": 9592,
            "contract": "contracts/protocol/pool/Pool.sol:Pool",
            "label": "issuanceBlockTimestamp",
            "offset": 0,
            "slot": "5",
            "type": "t_uint256"
          },
          {
            "astId": 9594,
            "contract": "contracts/protocol/pool/Pool.sol:Pool",
            "label": "expirationTimestamp",
            "offset": 0,
            "slot": "6",
            "type": "t_uint256"
          },
          {
            "astId": 9597,
            "contract": "contracts/protocol/pool/Pool.sol:Pool",
            "label": "assetPurpose",
            "offset": 0,
            "slot": "7",
            "type": "t_enum(ASSET_PURPOSE)9438"
          },
          {
            "astId": 9599,
            "contract": "contracts/protocol/pool/Pool.sol:Pool",
            "label": "termsParam",
            "offset": 0,
            "slot": "8",
            "type": "t_bytes32"
          },
          {
            "astId": 9601,
            "contract": "contracts/protocol/pool/Pool.sol:Pool",
            "label": "principalAmount",
            "offset": 0,
            "slot": "9",
            "type": "t_uint256"
          },
          {
            "astId": 9603,
            "contract": "contracts/protocol/pool/Pool.sol:Pool",
            "label": "termStartUnixTimestamp",
            "offset": 0,
            "slot": "10",
            "type": "t_uint256"
          },
          {
            "astId": 9605,
            "contract": "contracts/protocol/pool/Pool.sol:Pool",
            "label": "termEndUnixTimestamp",
            "offset": 0,
            "slot": "11",
            "type": "t_uint256"
          },
          {
            "astId": 9608,
            "contract": "contracts/protocol/pool/Pool.sol:Pool",
            "label": "amortizationUnitType",
            "offset": 0,
            "slot": "12",
            "type": "t_enum(AmortizationUnitType)10281"
          },
          {
            "astId": 9610,
            "contract": "contracts/protocol/pool/Pool.sol:Pool",
            "label": "termLengthInAmortizationUnits",
            "offset": 0,
            "slot": "13",
            "type": "t_uint256"
          },
          {
            "astId": 9612,
            "contract": "contracts/protocol/pool/Pool.sol:Pool",
            "label": "interestRate",
            "offset": 0,
            "slot": "14",
            "type": "t_uint256"
          }
        ],
        "numberOfBytes": "480"
      },
      "t_struct(Rate)9628_storage": {
        "encoding": "inplace",
        "label": "struct DataTypes.Rate",
        "members": [
          {
            "astId": 9615,
            "contract": "contracts/protocol/pool/Pool.sol:Pool",
            "label": "pie",
            "offset": 0,
            "slot": "0",
            "type": "t_uint256"
          },
          {
            "astId": 9617,
            "contract": "contracts/protocol/pool/Pool.sol:Pool",
            "label": "chi",
            "offset": 0,
            "slot": "1",
            "type": "t_uint256"
          },
          {
            "astId": 9619,
            "contract": "contracts/protocol/pool/Pool.sol:Pool",
            "label": "ratePerSecond",
            "offset": 0,
            "slot": "2",
            "type": "t_uint256"
          },
          {
            "astId": 9621,
            "contract": "contracts/protocol/pool/Pool.sol:Pool",
            "label": "penaltyRatePerSecond",
            "offset": 0,
            "slot": "3",
            "type": "t_uint256"
          },
          {
            "astId": 9623,
            "contract": "contracts/protocol/pool/Pool.sol:Pool",
            "label": "penaltyChi",
            "offset": 0,
            "slot": "4",
            "type": "t_uint256"
          },
          {
            "astId": 9625,
            "contract": "contracts/protocol/pool/Pool.sol:Pool",
            "label": "lastUpdated",
            "offset": 0,
            "slot": "5",
            "type": "t_uint48"
          },
          {
            "astId": 9627,
            "contract": "contracts/protocol/pool/Pool.sol:Pool",
            "label": "timeStartPenalty",
            "offset": 6,
            "slot": "5",
            "type": "t_uint48"
          }
        ],
        "numberOfBytes": "192"
      },
      "t_struct(RiskScore)9546_storage": {
        "encoding": "inplace",
        "label": "struct DataTypes.RiskScore",
        "members": [
          {
            "astId": 9525,
            "contract": "contracts/protocol/pool/Pool.sol:Pool",
            "label": "daysPastDue",
            "offset": 0,
            "slot": "0",
            "type": "t_uint32"
          },
          {
            "astId": 9527,
            "contract": "contracts/protocol/pool/Pool.sol:Pool",
            "label": "advanceRate",
            "offset": 4,
            "slot": "0",
            "type": "t_uint32"
          },
          {
            "astId": 9529,
            "contract": "contracts/protocol/pool/Pool.sol:Pool",
            "label": "penaltyRate",
            "offset": 8,
            "slot": "0",
            "type": "t_uint32"
          },
          {
            "astId": 9531,
            "contract": "contracts/protocol/pool/Pool.sol:Pool",
            "label": "interestRate",
            "offset": 12,
            "slot": "0",
            "type": "t_uint32"
          },
          {
            "astId": 9533,
            "contract": "contracts/protocol/pool/Pool.sol:Pool",
            "label": "probabilityOfDefault",
            "offset": 16,
            "slot": "0",
            "type": "t_uint32"
          },
          {
            "astId": 9535,
            "contract": "contracts/protocol/pool/Pool.sol:Pool",
            "label": "lossGivenDefault",
            "offset": 20,
            "slot": "0",
            "type": "t_uint32"
          },
          {
            "astId": 9537,
            "contract": "contracts/protocol/pool/Pool.sol:Pool",
            "label": "writeOffAfterGracePeriod",
            "offset": 24,
            "slot": "0",
            "type": "t_uint32"
          },
          {
            "astId": 9539,
            "contract": "contracts/protocol/pool/Pool.sol:Pool",
            "label": "gracePeriod",
            "offset": 28,
            "slot": "0",
            "type": "t_uint32"
          },
          {
            "astId": 9541,
            "contract": "contracts/protocol/pool/Pool.sol:Pool",
            "label": "collectionPeriod",
            "offset": 0,
            "slot": "1",
            "type": "t_uint32"
          },
          {
            "astId": 9543,
            "contract": "contracts/protocol/pool/Pool.sol:Pool",
            "label": "writeOffAfterCollectionPeriod",
            "offset": 4,
            "slot": "1",
            "type": "t_uint32"
          },
          {
            "astId": 9545,
            "contract": "contracts/protocol/pool/Pool.sol:Pool",
            "label": "discountRate",
            "offset": 8,
            "slot": "1",
            "type": "t_uint32"
          }
        ],
        "numberOfBytes": "64"
      },
      "t_struct(RoleData)179_storage": {
        "encoding": "inplace",
        "label": "struct AccessControlUpgradeable.RoleData",
        "members": [
          {
            "astId": 176,
            "contract": "contracts/protocol/pool/Pool.sol:Pool",
            "label": "members",
            "offset": 0,
            "slot": "0",
            "type": "t_mapping(t_address,t_bool)"
          },
          {
            "astId": 178,
            "contract": "contracts/protocol/pool/Pool.sol:Pool",
            "label": "adminRole",
            "offset": 0,
            "slot": "1",
            "type": "t_bytes32"
          }
        ],
        "numberOfBytes": "64"
      },
      "t_struct(Set)5885_storage": {
        "encoding": "inplace",
        "label": "struct EnumerableSetUpgradeable.Set",
        "members": [
          {
            "astId": 5880,
            "contract": "contracts/protocol/pool/Pool.sol:Pool",
            "label": "_values",
            "offset": 0,
            "slot": "0",
            "type": "t_array(t_bytes32)dyn_storage"
          },
          {
            "astId": 5884,
            "contract": "contracts/protocol/pool/Pool.sol:Pool",
            "label": "_indexes",
            "offset": 0,
            "slot": "1",
            "type": "t_mapping(t_bytes32,t_uint256)"
          }
        ],
        "numberOfBytes": "64"
      },
      "t_struct(Storage)9752_storage": {
        "encoding": "inplace",
        "label": "struct DataTypes.Storage",
        "members": [
          {
            "astId": 9642,
            "contract": "contracts/protocol/pool/Pool.sol:Pool",
            "label": "validatorRequired",
            "offset": 0,
            "slot": "0",
            "type": "t_bool"
          },
          {
            "astId": 9644,
            "contract": "contracts/protocol/pool/Pool.sol:Pool",
            "label": "firstAssetTimestamp",
            "offset": 1,
            "slot": "0",
            "type": "t_uint64"
          },
          {
            "astId": 9648,
            "contract": "contracts/protocol/pool/Pool.sol:Pool",
            "label": "riskScores",
            "offset": 0,
            "slot": "1",
            "type": "t_array(t_struct(RiskScore)9546_storage)dyn_storage"
          },
          {
            "astId": 9652,
            "contract": "contracts/protocol/pool/Pool.sol:Pool",
            "label": "nftAssets",
            "offset": 0,
            "slot": "2",
            "type": "t_array(t_struct(NFTAsset)9569_storage)dyn_storage"
          },
          {
            "astId": 9654,
            "contract": "contracts/protocol/pool/Pool.sol:Pool",
            "label": "tgeAddress",
            "offset": 0,
            "slot": "3",
            "type": "t_address"
          },
          {
            "astId": 9656,
            "contract": "contracts/protocol/pool/Pool.sol:Pool",
            "label": "secondTGEAddress",
            "offset": 0,
            "slot": "4",
            "type": "t_address"
          },
          {
            "astId": 9658,
            "contract": "contracts/protocol/pool/Pool.sol:Pool",
            "label": "sotToken",
            "offset": 0,
            "slot": "5",
            "type": "t_address"
          },
          {
            "astId": 9660,
            "contract": "contracts/protocol/pool/Pool.sol:Pool",
            "label": "jotToken",
            "offset": 0,
            "slot": "6",
            "type": "t_address"
          },
          {
            "astId": 9662,
            "contract": "contracts/protocol/pool/Pool.sol:Pool",
            "label": "underlyingCurrency",
            "offset": 0,
            "slot": "7",
            "type": "t_address"
          },
          {
            "astId": 9664,
            "contract": "contracts/protocol/pool/Pool.sol:Pool",
            "label": "incomeReserve",
            "offset": 0,
            "slot": "8",
            "type": "t_uint256"
          },
          {
            "astId": 9666,
            "contract": "contracts/protocol/pool/Pool.sol:Pool",
            "label": "capitalReserve",
            "offset": 0,
            "slot": "9",
            "type": "t_uint256"
          },
          {
            "astId": 9668,
            "contract": "contracts/protocol/pool/Pool.sol:Pool",
            "label": "minFirstLossCushion",
            "offset": 0,
            "slot": "10",
            "type": "t_uint32"
          },
          {
            "astId": 9670,
            "contract": "contracts/protocol/pool/Pool.sol:Pool",
            "label": "openingBlockTimestamp",
            "offset": 4,
            "slot": "10",
            "type": "t_uint64"
          },
          {
            "astId": 9672,
            "contract": "contracts/protocol/pool/Pool.sol:Pool",
            "label": "pot",
            "offset": 12,
            "slot": "10",
            "type": "t_address"
          },
          {
            "astId": 9674,
            "contract": "contracts/protocol/pool/Pool.sol:Pool",
            "label": "interestRateSOT",
            "offset": 0,
            "slot": "11",
            "type": "t_uint256"
          },
          {
            "astId": 9676,
            "contract": "contracts/protocol/pool/Pool.sol:Pool",
            "label": "totalAssetRepaidCurrency",
            "offset": 0,
            "slot": "12",
            "type": "t_uint256"
          },
          {
            "astId": 9678,
            "contract": "contracts/protocol/pool/Pool.sol:Pool",
            "label": "debtCeiling",
            "offset": 0,
            "slot": "13",
            "type": "t_uint256"
          },
          {
            "astId": 9683,
            "contract": "contracts/protocol/pool/Pool.sol:Pool",
            "label": "rates",
            "offset": 0,
            "slot": "14",
            "type": "t_mapping(t_uint256,t_struct(Rate)9628_storage)"
          },
          {
            "astId": 9687,
            "contract": "contracts/protocol/pool/Pool.sol:Pool",
            "label": "pie",
            "offset": 0,
            "slot": "15",
            "type": "t_mapping(t_uint256,t_uint256)"
          },
          {
            "astId": 9692,
            "contract": "contracts/protocol/pool/Pool.sol:Pool",
            "label": "loanRates",
            "offset": 0,
            "slot": "16",
            "type": "t_mapping(t_uint256,t_uint256)"
          },
          {
            "astId": 9695,
            "contract": "contracts/protocol/pool/Pool.sol:Pool",
            "label": "loanCount",
            "offset": 0,
            "slot": "17",
            "type": "t_uint256"
          },
          {
            "astId": 9699,
            "contract": "contracts/protocol/pool/Pool.sol:Pool",
            "label": "balances",
            "offset": 0,
            "slot": "18",
            "type": "t_mapping(t_uint256,t_uint256)"
          },
          {
            "astId": 9701,
            "contract": "contracts/protocol/pool/Pool.sol:Pool",
            "label": "balance",
            "offset": 0,
            "slot": "19",
            "type": "t_uint256"
          },
          {
            "astId": 9706,
            "contract": "contracts/protocol/pool/Pool.sol:Pool",
            "label": "details",
            "offset": 0,
            "slot": "20",
            "type": "t_mapping(t_bytes32,t_struct(NFTDetails)9613_storage)"
          },
          {
            "astId": 9711,
            "contract": "contracts/protocol/pool/Pool.sol:Pool",
            "label": "loanDetails",
            "offset": 0,
            "slot": "21",
            "type": "t_mapping(t_uint256,t_struct(LoanDetails)9633_storage)"
          },
          {
            "astId": 9715,
            "contract": "contracts/protocol/pool/Pool.sol:Pool",
            "label": "buckets",
            "offset": 0,
            "slot": "22",
            "type": "t_mapping(t_uint256,t_uint256)"
          },
          {
            "astId": 9719,
            "contract": "contracts/protocol/pool/Pool.sol:Pool",
            "label": "writeOffGroups",
            "offset": 0,
            "slot": "23",
            "type": "t_array(t_struct(WriteOffGroup)9640_storage)dyn_storage"
          },
          {
            "astId": 9721,
            "contract": "contracts/protocol/pool/Pool.sol:Pool",
            "label": "discountRate",
            "offset": 0,
            "slot": "24",
            "type": "t_uint256"
          },
          {
            "astId": 9723,
            "contract": "contracts/protocol/pool/Pool.sol:Pool",
            "label": "latestNAV",
            "offset": 0,
            "slot": "25",
            "type": "t_uint256"
          },
          {
            "astId": 9725,
            "contract": "contracts/protocol/pool/Pool.sol:Pool",
            "label": "latestDiscount",
            "offset": 0,
            "slot": "26",
            "type": "t_uint256"
          },
          {
            "astId": 9727,
            "contract": "contracts/protocol/pool/Pool.sol:Pool",
            "label": "lastNAVUpdate",
            "offset": 0,
            "slot": "27",
            "type": "t_uint256"
          },
          {
            "astId": 9729,
            "contract": "contracts/protocol/pool/Pool.sol:Pool",
            "label": "overdueLoans",
            "offset": 0,
            "slot": "28",
            "type": "t_uint256"
          },
          {
            "astId": 9733,
            "contract": "contracts/protocol/pool/Pool.sol:Pool",
            "label": "latestDiscountOfNavAssets",
            "offset": 0,
            "slot": "29",
            "type": "t_mapping(t_bytes32,t_uint256)"
          },
          {
            "astId": 9737,
            "contract": "contracts/protocol/pool/Pool.sol:Pool",
            "label": "overdueLoansOfNavAssets",
            "offset": 0,
            "slot": "30",
            "type": "t_mapping(t_bytes32,t_uint256)"
          },
          {
            "astId": 9741,
            "contract": "contracts/protocol/pool/Pool.sol:Pool",
            "label": "loanToNFT",
            "offset": 0,
            "slot": "31",
            "type": "t_mapping(t_uint256,t_bytes32)"
          },
          {
            "astId": 9743,
            "contract": "contracts/protocol/pool/Pool.sol:Pool",
            "label": "totalPrincipalRepaid",
            "offset": 0,
            "slot": "32",
            "type": "t_uint256"
          },
          {
            "astId": 9745,
            "contract": "contracts/protocol/pool/Pool.sol:Pool",
            "label": "totalInterestRepaid",
            "offset": 0,
            "slot": "33",
            "type": "t_uint256"
          },
          {
            "astId": 9747,
            "contract": "contracts/protocol/pool/Pool.sol:Pool",
            "label": "seniorDebt",
            "offset": 0,
            "slot": "34",
            "type": "t_uint256"
          },
          {
            "astId": 9749,
            "contract": "contracts/protocol/pool/Pool.sol:Pool",
            "label": "seniorBalance",
            "offset": 0,
            "slot": "35",
            "type": "t_uint256"
          },
          {
            "astId": 9751,
            "contract": "contracts/protocol/pool/Pool.sol:Pool",
            "label": "lastUpdateSeniorInterest",
            "offset": 0,
            "slot": "36",
            "type": "t_uint64"
          }
        ],
        "numberOfBytes": "1184"
      },
      "t_struct(WriteOffGroup)9640_storage": {
        "encoding": "inplace",
        "label": "struct DataTypes.WriteOffGroup",
        "members": [
          {
            "astId": 9635,
            "contract": "contracts/protocol/pool/Pool.sol:Pool",
            "label": "percentage",
            "offset": 0,
            "slot": "0",
            "type": "t_uint128"
          },
          {
            "astId": 9637,
            "contract": "contracts/protocol/pool/Pool.sol:Pool",
            "label": "overdueDays",
            "offset": 16,
            "slot": "0",
            "type": "t_uint128"
          },
          {
            "astId": 9639,
            "contract": "contracts/protocol/pool/Pool.sol:Pool",
            "label": "riskIndex",
            "offset": 0,
            "slot": "1",
            "type": "t_uint128"
          }
        ],
        "numberOfBytes": "64"
      },
      "t_uint128": {
        "encoding": "inplace",
        "label": "uint128",
        "numberOfBytes": "16"
      },
      "t_uint256": {
        "encoding": "inplace",
        "label": "uint256",
        "numberOfBytes": "32"
      },
      "t_uint32": {
        "encoding": "inplace",
        "label": "uint32",
        "numberOfBytes": "4"
      },
      "t_uint48": {
        "encoding": "inplace",
        "label": "uint48",
        "numberOfBytes": "6"
      },
      "t_uint64": {
        "encoding": "inplace",
        "label": "uint64",
        "numberOfBytes": "8"
      },
      "t_uint8": {
        "encoding": "inplace",
        "label": "uint8",
        "numberOfBytes": "1"
      }
    }
  }
}