{
  "address": "0x26Fa77B7c576713903CFCa3223E63ee3185A41b3",
  "abi": [
    {
      "anonymous": false,
      "inputs": [
        {
          "indexed": true,
          "internalType": "bytes32",
          "name": "_agreementId",
          "type": "bytes32"
        },
        {
          "indexed": true,
          "internalType": "address",
          "name": "_payer",
          "type": "address"
        },
        {
          "indexed": true,
          "internalType": "address",
          "name": "_pool",
          "type": "address"
        },
        {
          "indexed": false,
          "internalType": "uint256",
          "name": "_amount",
          "type": "uint256"
        },
        {
          "indexed": false,
          "internalType": "uint256",
          "name": "_outstandingAmount",
          "type": "uint256"
        },
        {
          "indexed": false,
          "internalType": "address",
          "name": "_token",
          "type": "address"
        }
      ],
      "name": "AssetRepay",
      "type": "event"
    },
    {
      "anonymous": false,
      "inputs": [
        {
          "indexed": false,
          "internalType": "bytes32[]",
          "name": "_agreementIds",
          "type": "bytes32[]"
        },
        {
          "indexed": false,
          "internalType": "address",
          "name": "_payer",
          "type": "address"
        },
        {
          "indexed": false,
          "internalType": "uint256[]",
          "name": "_amounts",
          "type": "uint256[]"
        },
        {
          "indexed": false,
          "internalType": "address",
          "name": "_token",
          "type": "address"
        }
      ],
      "name": "BatchAssetRepay",
      "type": "event"
    },
    {
      "anonymous": false,
      "inputs": [
        {
          "indexed": true,
          "internalType": "address",
          "name": "_poolAddress",
          "type": "address"
        },
        {
          "indexed": false,
          "internalType": "uint256",
          "name": "_drawdownAmount",
          "type": "uint256"
        }
      ],
      "name": "DrawdownAsset",
      "type": "event"
    },
    {
      "anonymous": false,
      "inputs": [
        {
          "indexed": false,
          "internalType": "uint8",
          "name": "version",
          "type": "uint8"
        }
      ],
      "name": "Initialized",
      "type": "event"
    },
    {
      "anonymous": false,
      "inputs": [
        {
          "indexed": true,
          "internalType": "uint8",
          "name": "_errorId",
          "type": "uint8"
        },
        {
          "indexed": true,
          "internalType": "bytes32",
          "name": "_agreementId",
          "type": "bytes32"
        }
      ],
      "name": "LogError",
      "type": "event"
    },
    {
      "anonymous": false,
      "inputs": [
        {
          "indexed": true,
          "internalType": "bytes32",
          "name": "_agreementId",
          "type": "bytes32"
        },
        {
          "indexed": true,
          "internalType": "uint256",
          "name": "_tokenIndex",
          "type": "uint256"
        },
        {
          "indexed": false,
          "internalType": "uint256",
          "name": "_totalAmount",
          "type": "uint256"
        }
      ],
      "name": "LogOutputSubmit",
      "type": "event"
    },
    {
      "anonymous": false,
      "inputs": [
        {
          "indexed": false,
          "internalType": "address",
          "name": "account",
          "type": "address"
        }
      ],
      "name": "Paused",
      "type": "event"
    },
    {
      "anonymous": false,
      "inputs": [
        {
          "indexed": true,
          "internalType": "bytes32",
          "name": "role",
          "type": "bytes32"
        },
        {
          "indexed": true,
          "internalType": "bytes32",
          "name": "previousAdminRole",
          "type": "bytes32"
        },
        {
          "indexed": true,
          "internalType": "bytes32",
          "name": "newAdminRole",
          "type": "bytes32"
        }
      ],
      "name": "RoleAdminChanged",
      "type": "event"
    },
    {
      "anonymous": false,
      "inputs": [
        {
          "indexed": true,
          "internalType": "bytes32",
          "name": "role",
          "type": "bytes32"
        },
        {
          "indexed": true,
          "internalType": "address",
          "name": "account",
          "type": "address"
        },
        {
          "indexed": true,
          "internalType": "address",
          "name": "sender",
          "type": "address"
        }
      ],
      "name": "RoleGranted",
      "type": "event"
    },
    {
      "anonymous": false,
      "inputs": [
        {
          "indexed": true,
          "internalType": "bytes32",
          "name": "role",
          "type": "bytes32"
        },
        {
          "indexed": true,
          "internalType": "address",
          "name": "account",
          "type": "address"
        },
        {
          "indexed": true,
          "internalType": "address",
          "name": "sender",
          "type": "address"
        }
      ],
      "name": "RoleRevoked",
      "type": "event"
    },
    {
      "anonymous": false,
      "inputs": [
        {
          "indexed": false,
          "internalType": "address",
          "name": "account",
          "type": "address"
        }
      ],
      "name": "Unpaused",
      "type": "event"
    },
    {
      "inputs": [],
      "name": "DEFAULT_ADMIN_ROLE",
      "outputs": [
        {
          "internalType": "bytes32",
          "name": "",
          "type": "bytes32"
        }
      ],
      "stateMutability": "view",
      "type": "function"
    },
    {
      "inputs": [
        {
          "components": [
            {
              "internalType": "address[]",
              "name": "orderAddresses",
              "type": "address[]"
            },
            {
              "internalType": "uint256[]",
              "name": "orderValues",
              "type": "uint256[]"
            },
            {
              "internalType": "bytes32[]",
              "name": "termsContractParameters",
              "type": "bytes32[]"
            },
            {
              "components": [
                {
                  "internalType": "uint256[]",
                  "name": "tokenIds",
                  "type": "uint256[]"
                },
                {
                  "internalType": "uint256[]",
                  "name": "nonces",
                  "type": "uint256[]"
                },
                {
                  "internalType": "address",
                  "name": "validator",
                  "type": "address"
                },
                {
                  "internalType": "bytes",
                  "name": "validateSignature",
                  "type": "bytes"
                }
              ],
              "internalType": "struct DataTypes.LoanAssetInfo[]",
              "name": "latInfo",
              "type": "tuple[]"
            }
          ],
          "internalType": "struct ILoanKernel.FillDebtOrderParam",
          "name": "fillDebtOrderParam",
          "type": "tuple"
        }
      ],
      "name": "fillDebtOrder",
      "outputs": [],
      "stateMutability": "nonpayable",
      "type": "function"
    },
    {
      "inputs": [],
      "name": "getInitializedVersion",
      "outputs": [
        {
          "internalType": "uint256",
          "name": "",
          "type": "uint256"
        }
      ],
      "stateMutability": "view",
      "type": "function"
    },
    {
      "inputs": [
        {
          "components": [
            {
              "internalType": "address[]",
              "name": "orderAddresses",
              "type": "address[]"
            },
            {
              "internalType": "uint256[]",
              "name": "orderValues",
              "type": "uint256[]"
            },
            {
              "internalType": "bytes32[]",
              "name": "termsContractParameters",
              "type": "bytes32[]"
            },
            {
              "components": [
                {
                  "internalType": "uint256[]",
                  "name": "tokenIds",
                  "type": "uint256[]"
                },
                {
                  "internalType": "uint256[]",
                  "name": "nonces",
                  "type": "uint256[]"
                },
                {
                  "internalType": "address",
                  "name": "validator",
                  "type": "address"
                },
                {
                  "internalType": "bytes",
                  "name": "validateSignature",
                  "type": "bytes"
                }
              ],
              "internalType": "struct DataTypes.LoanAssetInfo[]",
              "name": "latInfo",
              "type": "tuple[]"
            }
          ],
          "internalType": "struct ILoanKernel.FillDebtOrderParam",
          "name": "fillDebtOrderParam",
          "type": "tuple"
        }
      ],
      "name": "getLoansValue",
      "outputs": [
        {
          "internalType": "uint256",
          "name": "",
          "type": "uint256"
        },
        {
          "internalType": "uint256[][]",
          "name": "",
          "type": "uint256[][]"
        }
      ],
      "stateMutability": "view",
      "type": "function"
    },
    {
      "inputs": [
        {
          "internalType": "bytes32",
          "name": "role",
          "type": "bytes32"
        }
      ],
      "name": "getRoleAdmin",
      "outputs": [
        {
          "internalType": "bytes32",
          "name": "",
          "type": "bytes32"
        }
      ],
      "stateMutability": "view",
      "type": "function"
    },
    {
      "inputs": [
        {
          "internalType": "bytes32",
          "name": "role",
          "type": "bytes32"
        },
        {
          "internalType": "uint256",
          "name": "index",
          "type": "uint256"
        }
      ],
      "name": "getRoleMember",
      "outputs": [
        {
          "internalType": "address",
          "name": "",
          "type": "address"
        }
      ],
      "stateMutability": "view",
      "type": "function"
    },
    {
      "inputs": [
        {
          "internalType": "bytes32",
          "name": "role",
          "type": "bytes32"
        }
      ],
      "name": "getRoleMemberCount",
      "outputs": [
        {
          "internalType": "uint256",
          "name": "",
          "type": "uint256"
        }
      ],
      "stateMutability": "view",
      "type": "function"
    },
    {
      "inputs": [
        {
          "internalType": "bytes32",
          "name": "role",
          "type": "bytes32"
        },
        {
          "internalType": "address",
          "name": "account",
          "type": "address"
        }
      ],
      "name": "grantRole",
      "outputs": [],
      "stateMutability": "nonpayable",
      "type": "function"
    },
    {
      "inputs": [
        {
          "internalType": "bytes32",
          "name": "role",
          "type": "bytes32"
        },
        {
          "internalType": "address",
          "name": "account",
          "type": "address"
        }
      ],
      "name": "hasRole",
      "outputs": [
        {
          "internalType": "bool",
          "name": "",
          "type": "bool"
        }
      ],
      "stateMutability": "view",
      "type": "function"
    },
    {
      "inputs": [
        {
          "internalType": "contract Registry",
          "name": "_registry",
          "type": "address"
        }
      ],
      "name": "initialize",
      "outputs": [],
      "stateMutability": "nonpayable",
      "type": "function"
    },
    {
      "inputs": [],
      "name": "isAdmin",
      "outputs": [
        {
          "internalType": "bool",
          "name": "",
          "type": "bool"
        }
      ],
      "stateMutability": "view",
      "type": "function"
    },
    {
      "inputs": [],
      "name": "pause",
      "outputs": [],
      "stateMutability": "nonpayable",
      "type": "function"
    },
    {
      "inputs": [],
      "name": "paused",
      "outputs": [
        {
          "internalType": "bool",
          "name": "",
          "type": "bool"
        }
      ],
      "stateMutability": "view",
      "type": "function"
    },
    {
      "inputs": [],
      "name": "registry",
      "outputs": [
        {
          "internalType": "contract Registry",
          "name": "",
          "type": "address"
        }
      ],
      "stateMutability": "view",
      "type": "function"
    },
    {
      "inputs": [
        {
          "internalType": "bytes32",
          "name": "role",
          "type": "bytes32"
        },
        {
          "internalType": "address",
          "name": "account",
          "type": "address"
        }
      ],
      "name": "renounceRole",
      "outputs": [],
      "stateMutability": "nonpayable",
      "type": "function"
    },
    {
      "inputs": [
        {
          "internalType": "bytes32[]",
          "name": "agreementIds",
          "type": "bytes32[]"
        },
        {
          "internalType": "uint256[]",
          "name": "amounts",
          "type": "uint256[]"
        },
        {
          "internalType": "address",
          "name": "tokenAddress",
          "type": "address"
        }
      ],
      "name": "repayInBatch",
      "outputs": [
        {
          "internalType": "bool",
          "name": "",
          "type": "bool"
        }
      ],
      "stateMutability": "nonpayable",
      "type": "function"
    },
    {
      "inputs": [
        {
          "internalType": "bytes32",
          "name": "role",
          "type": "bytes32"
        },
        {
          "internalType": "address",
          "name": "account",
          "type": "address"
        }
      ],
      "name": "revokeRole",
      "outputs": [],
      "stateMutability": "nonpayable",
      "type": "function"
    },
    {
      "inputs": [
        {
          "internalType": "bytes32",
          "name": "role",
          "type": "bytes32"
        },
        {
          "internalType": "bytes32",
          "name": "adminRole",
          "type": "bytes32"
        }
      ],
      "name": "setRoleAdmin",
      "outputs": [],
      "stateMutability": "nonpayable",
      "type": "function"
    },
    {
      "inputs": [
        {
          "internalType": "bytes4",
          "name": "interfaceId",
          "type": "bytes4"
        }
      ],
      "name": "supportsInterface",
      "outputs": [
        {
          "internalType": "bool",
          "name": "",
          "type": "bool"
        }
      ],
      "stateMutability": "view",
      "type": "function"
    },
    {
      "inputs": [],
      "name": "unpause",
      "outputs": [],
      "stateMutability": "nonpayable",
      "type": "function"
    }
  ],
  "transactionHash": "0xa8f6ba5a6825f68f23bc317b88a1c040e039dc0a854438fb4be3b12b9fc7d37d",
  "args": [],
  "numDeployments": 1,
  "solcInputHash": "4969a41456f107ee29100ba1511f0f96",
  "bytecode": "0x608060405234801561001057600080fd5b50613e74806100206000396000f3fe608060405234801561001057600080fd5b506004361061012c5760003560e01c806391551265116100ad578063b6db75a011610071578063b6db75a014610279578063c4d66de814610281578063ca15c87314610294578063d547741f146102a7578063fc742962146102ba57600080fd5b8063915512651461021f57806391d1485414610232578063a217fddf14610245578063b3c650151461024d578063b4f3b4161461025857600080fd5b80633f4ba83a116100f45780633f4ba83a146101c55780635c975abb146101cd5780637b103999146101d85780638456cb59146102045780639010d07c1461020c57600080fd5b806301ffc9a7146101315780631e4e009114610159578063248a9ca31461016e5780632f2ff15d1461019f57806336568abe146101b2575b600080fd5b61014461013f366004613433565b6102cd565b60405190151581526020015b60405180910390f35b61016c61016736600461345d565b6102f8565b005b61019161017c36600461347f565b600090815260c9602052604090206001015490565b604051908152602001610150565b61016c6101ad3660046134ad565b610312565b61016c6101c03660046134ad565b610337565b61016c6103ba565b60335460ff16610144565b61015f546101ec906001600160a01b031681565b6040516001600160a01b039091168152602001610150565b61016c6103e8565b6101ec61021a36600461345d565b610414565b61016c61022d3660046134dd565b610433565b6101446102403660046134ad565b610e43565b610191600081565b60005460ff16610191565b61026b6102663660046134dd565b610e6e565b604051610150929190613517565b6101446114a0565b61016c61028f3660046135a9565b6114e2565b6101916102a236600461347f565b611610565b61016c6102b53660046134ad565b611627565b6101446102c8366004613611565b61164c565b60006001600160e01b03198216635a05180f60e01b14806102f257506102f282611bd2565b92915050565b600061030381611c07565b61030d8383611c11565b505050565b600082815260c9602052604090206001015461032d81611c07565b61030d8383611c5c565b6001600160a01b03811633146103ac5760405162461bcd60e51b815260206004820152602f60248201527f416363657373436f6e74726f6c3a2063616e206f6e6c792072656e6f756e636560448201526e103937b632b9903337b91039b2b63360891b60648201526084015b60405180910390fd5b6103b68282611c7e565b5050565b6103c26114a0565b6103de5760405162461bcd60e51b81526004016103a390613694565b6103e6611ca0565b565b6103f06114a0565b61040c5760405162461bcd60e51b81526004016103a390613694565b6103e6611cf2565b600082815260fb6020526040812061042c9083611d2f565b9392505050565b61043b611d3b565b610443611d81565b61044d81806136f1565b808060200260200160405190810160405280939291908181526020018383602002808284376000920182905250845190935084925083915061049157610491613750565b60200260200101516001600160a01b0316036104fb5760405162461bcd60e51b8152602060048201526024808201527f53454355524954495a4154494f4e5f504f4f4c206973207a65726f206164647260448201526332b9b99760e11b60648201526084016103a3565b600081600260ff168151811061051357610513613750565b60200260200101516001600160a01b03160361057b5760405162461bcd60e51b815260206004820152602160248201527f52455041594d454e545f524f55544552206973207a65726f20616464726573736044820152601760f91b60648201526084016103a3565b600081600160ff168151811061059357610593613750565b60200260200101516001600160a01b0316036106025760405162461bcd60e51b815260206004820152602860248201527f5052494e434950414c5f544f4b454e5f41444452455353206973207a65726f2060448201526730b2323932b9b99760c11b60648201526084016103a3565b600061060e83806136f1565b60008161061d5761061d613750565b905060200201602081019061063291906135a9565b905080600061064460408601866136f1565b9050116106635760405162461bcd60e51b81526004016103a390613766565b60006106bb61067560208701876136f1565b808060200260200160405190810160405280939291908181526020018383602002808284376000920191909152506106b49250505060408801886136f1565b9050611dda565b905060006107d66107156106cf88806136f1565b8080602002602001604051908101604052809392919081815260200183836020028082843760009201919091525061070e9250505060408a018a6136f1565b9050611ec2565b61071f88806136f1565b8080602002602001604051908101604052809392919081815260200183836020028082843760009201919091525061075e9250505060208a018a6136f1565b8080602002602001604051908101604052809392919081815260200183836020028082843760009201919091525061079d9250505060408b018b6136f1565b80806020026020016040519081016040528093929190818152602001838360200280828437600092019190915250899250611f78915050565b905060008060005b6107eb60608a018a6136f1565b9050811015610c7a5761015f5461080a906001600160a01b03166120aa565b6001600160a01b031663f0cb1d868861082660608d018d6136f1565b8581811061083657610836613750565b905060200281019061084891906137ae565b6040518363ffffffff1660e01b8152600401610865929190613871565b600060405180830381600087803b15801561087f57600080fd5b505af1158015610893573d6000803e3d6000fd5b50600092506108a891505060608b018b6136f1565b838181106108b8576108b8613750565b90506020028101906108ca91906137ae565b6108d490806136f1565b90506001600160401b038111156108ed576108ed613951565b60405190808252806020026020018201604052801561096357816020015b6109506040805161010081018252600080825260208201819052918101829052606081018290526080810182905260a0810182905260c081018290529060e082015290565b81526020019060019003908161090b5790505b50905060005b61097660608c018c6136f1565b8481811061098657610986613750565b905060200281019061099891906137ae565b6109a290806136f1565b9050811015610bba576109b860608c018c6136f1565b848181106109c8576109c8613750565b90506020028101906109da91906137ae565b6109e490806136f1565b828181106109f4576109f4613750565b9050602002013560001b8660000151606001518681518110610a1857610a18613750565b602002602001015114610a6d5760405162461bcd60e51b815260206004820181905260248201527f4c6f616e4b65726e656c3a20496e76616c6964204c415420546f6b656e20496460448201526064016103a3565b60006040518061010001604052808860000151602001518881518110610a9557610a95613750565b60200260200101516001600160a01b0316815260200188602001516001600160a01b031681526020018d8060400190610ace91906136f1565b89818110610ade57610ade613750565b905060200201358152602001898881518110610afc57610afc613750565b6020026020010151815260200142815260200188608001518881518110610b2557610b25613750565b602002602001015181526020018860c001518881518110610b4857610b48613750565b602002602001015160ff1681526020018860e0015160ff166001811115610b7157610b7161373a565b6001811115610b8257610b8261373a565b815250905080838381518110610b9a57610b9a613750565b6020026020010181905250610baf8660010190565b955050600101610969565b506001600160a01b0387166333944357610bd760608d018d6136f1565b85818110610be757610be7613750565b9050602002810190610bf991906137ae565b610c0390806136f1565b846040518463ffffffff1660e01b8152600401610c2293929190613989565b6020604051808303816000875af1158015610c41573d6000803e3d6000fd5b505050506040513d601f19601f82011682018060405250810190610c659190613a45565b610c6f9084613a74565b9250506001016107de565b506001600160a01b03851663f3fef3a3336040516001600160e01b031960e084901b1681526001600160a01b03909116600482015260248101849052604401600060405180830381600087803b158015610cd357600080fd5b505af1158015610ce7573d6000803e3d6000fd5b50505050846001600160a01b031663af14052c6040518163ffffffff1660e01b8152600401600060405180830381600087803b158015610d2657600080fd5b505af1158015610d3a573d6000803e3d6000fd5b50505050846001600160a01b03166349110ac46040518163ffffffff1660e01b8152600401602060405180830381865afa158015610d7c573d6000803e3d6000fd5b505050506040513d601f19601f82011682018060405250810190610da09190613a87565b610dec5760405162461bcd60e51b815260206004820181905260248201527f4c6f616e4b65726e656c3a2045786365656473204d696e46697273744c6f737360448201526064016103a3565b856001600160a01b03167f16844d9323dc2c1bad03e03909b2b7336ada806e1ff51a2b881500b53750ddd382604051610e2791815260200190565b60405180910390a250505050505050610e406001606555565b50565b600091825260c9602090815260408084206001600160a01b0393909316845291905290205460ff1690565b6000606081610e7d84806136f1565b600081610e8c57610e8c613750565b9050602002016020810190610ea191906135a9565b9050806000610eb360408701876136f1565b905011610ed25760405162461bcd60e51b81526004016103a390613766565b6000610f23610ee460208801886136f1565b808060200260200160405190810160405280939291908181526020018383602002808284376000920191909152506106b49250505060408901896136f1565b90506000610ffe610f76610f3789806136f1565b8080602002602001604051908101604052809392919081815260200183836020028082843760009201919091525061070e9250505060408b018b6136f1565b610f8089806136f1565b80806020026020016040519081016040528093929190818152602001838360200280828437600092019190915250610fbf9250505060208b018b6136f1565b8080602002602001604051908101604052809392919081815260200183836020028082843760009201919091525061079d9250505060408c018c6136f1565b90506000808061101160608b018b6136f1565b90506001600160401b0381111561102a5761102a613951565b60405190808252806020026020018201604052801561105d57816020015b60608152602001906001900390816110485790505b50905060005b61107060608c018c6136f1565b905081101561149057600061108860608d018d6136f1565b8381811061109857611098613750565b90506020028101906110aa91906137ae565b6110b490806136f1565b90506001600160401b038111156110cd576110cd613951565b60405190808252806020026020018201604052801561114357816020015b6111306040805161010081018252600080825260208201819052918101829052606081018290526080810182905260a0810182905260c081018290529060e082015290565b8152602001906001900390816110eb5790505b50905060005b61115660608e018e6136f1565b8481811061116657611166613750565b905060200281019061117891906137ae565b61118290806136f1565b905081101561139a5761119860608e018e6136f1565b848181106111a8576111a8613750565b90506020028101906111ba91906137ae565b6111c490806136f1565b828181106111d4576111d4613750565b9050602002013560001b87600001516060015187815181106111f8576111f8613750565b60200260200101511461124d5760405162461bcd60e51b815260206004820181905260248201527f4c6f616e4b65726e656c3a20496e76616c6964204c415420546f6b656e20496460448201526064016103a3565b6000604051806101000160405280896000015160200151898151811061127557611275613750565b60200260200101516001600160a01b0316815260200189602001516001600160a01b031681526020018f80604001906112ae91906136f1565b8a8181106112be576112be613750565b9050602002013581526020018a89815181106112dc576112dc613750565b602002602001015181526020014281526020018960800151898151811061130557611305613750565b602002602001015181526020018960c00151898151811061132857611328613750565b602002602001015160ff1681526020018960e0015160ff1660018111156113515761135161373a565b60018111156113625761136261373a565b81525090508083838151811061137a5761137a613750565b602002602001018190525061138f8760010190565b965050600101611149565b50600080896001600160a01b031663c3d2129d8f80606001906113bd91906136f1565b878181106113cd576113cd613750565b90506020028101906113df91906137ae565b6113e990806136f1565b866040518463ffffffff1660e01b815260040161140893929190613989565b600060405180830381865afa158015611425573d6000803e3d6000fd5b505050506040513d6000823e601f3d908101601f1916820160405261144d9190810190613b38565b909250905061145c8287613a74565b95508085858151811061147157611471613750565b60200260200101819052505050506114898160010190565b9050611063565b5090999098509650505050505050565b60006114cc7fb19546dff01e856fb3f010c267a7b1c60363cf8a4664e21cc89c26224620214e33610e43565b806114dd57506114dd600033610e43565b905090565b600054610100900460ff16158080156115025750600054600160ff909116105b8061151c5750303b15801561151c575060005460ff166001145b61157f5760405162461bcd60e51b815260206004820152602e60248201527f496e697469616c697a61626c653a20636f6e747261637420697320616c72656160448201526d191e481a5b9a5d1a585b1a5e995960921b60648201526084016103a3565b6000805460ff1916600117905580156115a2576000805461ff0019166101001790555b6115ab336120b7565b61015f80546001600160a01b0319166001600160a01b03841617905580156103b6576000805461ff0019169055604051600181527f7f26b83ff96e1f2b6a682f133852f6798a09c465da95921460cefb38474024989060200160405180910390a15050565b600081815260fb602052604081206102f2906121fc565b600082815260c9602052604090206001015461164281611c07565b61030d8383611c7e565b6000611656611d3b565b61165e611d81565b848381146116ba5760405162461bcd60e51b815260206004820152602360248201527f4c6f616e52657061796d656e74526f757465723a20496e76616c6964206c656e6044820152620cee8d60eb1b60648201526084016103a3565b6001600160a01b0383166117365760405162461bcd60e51b815260206004820152603b60248201527f4c6f616e52657061796d656e74526f757465723a20546f6b656e20616464726560448201527f7373206d75737420646966666572656e742077697468204e554c4c000000000060648201526084016103a3565b6000816001600160401b0381111561175057611750613951565b604051908082528060200260200182016040528015611779578160200160208202803683370190505b5061015f54909150600090611796906001600160a01b03166120aa565b6001600160a01b0316636352211e8a8a60008181106117b7576117b7613750565b9050602002013560001c6040518263ffffffff1660e01b81526004016117df91815260200190565b602060405180830381865afa1580156117fc573d6000803e3d6000fd5b505050506040513d601f19601f820116820180604052508101906118209190613b7e565b9050806001600160a01b0381166118495760405162461bcd60e51b81526004016103a390613b9b565b856001600160a01b0316816001600160a01b0316630bc6bffc6040518163ffffffff1660e01b8152600401602060405180830381865afa158015611891573d6000803e3d6000fd5b505050506040513d601f19601f820116820180604052508101906118b59190613b7e565b6001600160a01b03161461191a5760405162461bcd60e51b815260206004820152602660248201527f4c6f616e52657061796d656e74526f757465723a2063757272656e6379206d696044820152650e6dac2e8c6d60d31b60648201526084016103a3565b8989600081811061192d5761192d613750565b9050602002013560001c8360008151811061194a5761194a613750565b6020026020010181815250506001841115611a7e5760015b84811015611a7c578a8a8281811061197c5761197c613750565b9050602002013560001c84828151811061199857611998613750565b602090810291909101015261015f546001600160a01b03808516916119bd91166120aa565b6001600160a01b0316636352211e8684815181106119dd576119dd613750565b60200260200101516040518263ffffffff1660e01b8152600401611a0391815260200190565b602060405180830381865afa158015611a20573d6000803e3d6000fd5b505050506040513d601f19601f82011682018060405250810190611a449190613b7e565b6001600160a01b031614611a6a5760405162461bcd60e51b81526004016103a390613b9b565b80611a7481613be9565b915050611962565b505b611abf8184338b8b808060200260200160405190810160405280939291908181526020018383602002808284376000920191909152508d9250612206915050565b611b1d5760405162461bcd60e51b815260206004820152602960248201527f4c6f616e52657061796d656e74526f757465723a2052657061796d656e742068604482015268185cc819985a5b195960ba1b60648201526084016103a3565b806001600160a01b031663af14052c6040518163ffffffff1660e01b8152600401600060405180830381600087803b158015611b5857600080fd5b505af1158015611b6c573d6000803e3d6000fd5b505050507fc3ddefdb4c5801635c554e9856ef97808797e9d19731e8c3079133775d81e8dd8a8a611b9a3390565b8b8b8b604051611baf96959493929190613c02565b60405180910390a16001945050505050611bc96001606555565b95945050505050565b60006001600160e01b03198216637965db0b60e01b14806102f257506301ffc9a760e01b6001600160e01b03198316146102f2565b610e4081336125bc565b600082815260c96020526040808220600101805490849055905190918391839186917fbd79b86ffe0ab8e8776151514217cd7cacd52c909f66475c3af44e129f0b00ff9190a4505050565b611c668282612615565b600082815260fb6020526040902061030d908261269b565b611c8882826126b0565b600082815260fb6020526040902061030d9082612717565b611ca861272c565b6033805460ff191690557f5db9ee0a495bf2e6ff9c91a7834c1ba4fdd244a5e8aa4e537bd38aeae4b073aa335b6040516001600160a01b03909116815260200160405180910390a1565b611cfa611d3b565b6033805460ff191660011790557f62e78cea01bee320cd4e420270b5ea74000d11b0c9f74754ebdbfc544b05a258611cd53390565b600061042c8383612775565b60335460ff16156103e65760405162461bcd60e51b815260206004820152601060248201526f14185d5cd8589b194e881c185d5cd95960821b60448201526064016103a3565b600260655403611dd35760405162461bcd60e51b815260206004820152601f60248201527f5265656e7472616e637947756172643a207265656e7472616e742063616c6c0060448201526064016103a3565b6002606555565b60606000826001600160401b03811115611df657611df6613951565b604051908082528060200260200182016040528015611e1f578160200160208202803683370190505b5090506000611e2f846002613c50565b611e3a906002613a74565b90505b611e48846003613c50565b611e53906002613a74565b811015611eba57848181518110611e6c57611e6c613750565b602002602001015182856002611e829190613c50565b611e8d600285613c67565b611e979190613c67565b81518110611ea757611ea7613750565b6020908102919091010152600101611e3d565b509392505050565b60606000826001600160401b03811115611ede57611ede613951565b604051908082528060200260200182016040528015611f07578160200160208202803683370190505b50905060035b611f18846003613a74565b811015611eba57848181518110611f3157611f31613750565b602002602001015182600383611f479190613c67565b81518110611f5757611f57613750565b6001600160a01b039290921660209283029190910190910152600101611f0d565b611f806133a4565b600086516001600160401b03811115611f9b57611f9b613951565b604051908082528060200260200182016040528015611fc4578160200160208202803683370190505b5090506000604051806101000160405280611fe1898b898961279f565b815260200188600160ff1681518110611ffc57611ffc613750565b60200260200101516001600160a01b0316815260200161201d88885161283a565b815260200187600060ff168151811061203857612038613750565b602002602001015181526020016120508888516128e2565b81526020018381526020016120668888516129ad565b815260200187600160ff168151811061208157612081613750565b602002602001015160ff16815250905061209a81612a95565b60a0820152979650505050505050565b60006102f2826005612bdd565b600054610100900460ff166121225760405162461bcd60e51b815260206004820152602b60248201527f496e697469616c697a61626c653a20636f6e7472616374206973206e6f74206960448201526a6e697469616c697a696e6760a81b60648201526084016103a3565b6001600160a01b0381166121335750335b61213e600033612c62565b6121687fb19546dff01e856fb3f010c267a7b1c60363cf8a4664e21cc89c26224620214e82612c62565b6121b27f59abfac6520ec36a6556b2a4dd949cc40007459bcd5cd2507f1e5cc77b6bc97e7fb19546dff01e856fb3f010c267a7b1c60363cf8a4664e21cc89c26224620214e611c11565b610e407f21702c8af46127c7fa207f89d0b0a8441bb32959a0ac7df790e9ab1a25c989267f3e9c05fb0f9da4414e033bb9bf190a6e2072adf7e3077394fce683220513b8d7611c11565b60006102f2825490565b61015f546000908690612221906001600160a01b0316612c6c565b604051633444c16360e21b81526001600160a01b038381166004830152919091169063d113058c90602401602060405180830381865afa158015612269573d6000803e3d6000fd5b505050506040513d601f19601f8201168201806040525081019061228d9190613a87565b156122f757866001600160a01b0316634ba2363a6040518163ffffffff1660e01b8152600401602060405180830381865afa1580156122d0573d6000803e3d6000fd5b505050506040513d601f19601f820116820180604052508101906122f49190613b7e565b90505b6000806000896001600160a01b031663586fd8a18a896040518363ffffffff1660e01b815260040161232a929190613cb5565b6000604051808303816000875af1158015612349573d6000803e3d6000fd5b505050506040513d6000823e601f3d908101601f191682016040526123719190810190613cda565b9150915060005b82518110156125455760008b6001600160a01b0316631e0029c88c84815181106123a4576123a4613750565b60200260200101516040518263ffffffff1660e01b81526004016123ca91815260200190565b602060405180830381865afa1580156123e7573d6000803e3d6000fd5b505050506040513d601f19601f8201168201806040525081019061240b9190613a45565b905082828151811061241f5761241f613750565b602002602001015184838151811061243957612439613750565b60200260200101510361246c5761246c868c848151811061245c5761245c613750565b602002602001015160001b612c79565b83828151811061247e5761247e613750565b6020026020010151856124919190613a74565b94508b6001600160a01b03168a6001600160a01b03168c84815181106124b9576124b9613750565b602002602001015160001b7f9da9a6c51638610f182a89c69d6ab25dad9cf802834bac5a309dcafa2557265f8786815181106124f7576124f7613750565b6020026020010151858d60405161252a9392919092835260208301919091526001600160a01b0316604082015260600190565b60405180910390a4508061253d81613be9565b915050612378565b5061255286898686612d69565b604051639016170560e01b8152600481018490526001600160a01b038b1690639016170590602401600060405180830381600087803b15801561259457600080fd5b505af11580156125a8573d6000803e3d6000fd5b5060019d9c50505050505050505050505050565b6125c68282610e43565b6103b6576125d381612e73565b6125de836020612e85565b6040516020016125ef929190613d57565b60408051601f198184030181529082905262461bcd60e51b82526103a391600401613dcc565b61261f8282610e43565b6103b657600082815260c9602090815260408083206001600160a01b03851684529091529020805460ff191660011790556126573390565b6001600160a01b0316816001600160a01b0316837f2f8788117e7eff1d82e926ec794901d17c78024a50270940304540a733656f0d60405160405180910390a45050565b600061042c836001600160a01b038416613020565b6126ba8282610e43565b156103b657600082815260c9602090815260408083206001600160a01b0385168085529252808320805460ff1916905551339285917ff6391f5c32d9c69d2a47ea670b442974b53935d1edc7fd64eb21e047a839171b9190a45050565b600061042c836001600160a01b03841661306f565b60335460ff166103e65760405162461bcd60e51b815260206004820152601460248201527314185d5cd8589b194e881b9bdd081c185d5cd95960621b60448201526064016103a3565b600082600001828154811061278c5761278c613750565b9060005260206000200154905092915050565b6127a76133fb565b6040805160a081019091526000908087600260ff16815181106127cc576127cc613750565b60200260200101516001600160a01b03168152602001868152602001858152602001612827886002808111156128045761280461373a565b60ff168151811061281757612817613750565b6020026020010151888888613162565b8152602001849052915050949350505050565b60606000826001600160401b0381111561285657612856613951565b60405190808252806020026020018201604052801561287f578160200160208202803683370190505b50905060025b612890846002613a74565b811015611eba578481815181106128a9576128a9613750565b6020026020010151826002836128bf9190613c67565b815181106128cf576128cf613750565b6020908102919091010152600101612885565b60606000826001600160401b038111156128fe576128fe613951565b604051908082528060200260200182016040528015612927578160200160208202803683370190505b5090506000612937846002613a74565b90505b612945846002613c50565b612950906002613a74565b811015611eba5784818151811061296957612969613750565b602002602001015182856002846129809190613c67565b61298a9190613c67565b8151811061299a5761299a613750565b602090810291909101015260010161293a565b60606000826001600160401b038111156129c9576129c9613951565b6040519080825280602002602001820160405280156129f2578160200160208202803683370190505b5090506000612a02846003613c50565b612a0d906002613a74565b90505b612a1b846004613c50565b612a26906002613a74565b811015611eba57848181518110612a3f57612a3f613750565b602002602001015182856003612a559190613c50565b612a60600285613c67565b612a6a9190613c67565b81518110612a7a57612a7a613750565b60ff9290921660209283029190910190910152600101612a10565b805160200151516060906000816001600160401b03811115612ab957612ab9613951565b604051908082528060200260200182016040528015612ae2578160200160208202803683370190505b50905060005b82811015611eba57612bb88560000151606001518281518110612b0d57612b0d613750565b602002602001015186604001518381518110612b2b57612b2b613750565b6020026020010151876020015188608001518581518110612b4e57612b4e613750565b60200260200101516040516bffffffffffffffffffffffff1930606090811b82166020840152603483018790526054830186905284901b1660748201526088810182905260009060a801604051602081830303815290604052805190602001209050949350505050565b828281518110612bca57612bca613750565b6020908102919091010152600101612ae8565b6000826001600160a01b031663bcaa0c55836009811115612c0057612c0061373a565b6040516001600160e01b031960e084901b16815260ff9091166004820152602401602060405180830381865afa158015612c3e573d6000803e3d6000fd5b505050506040513d601f19601f8201168201806040525081019061042c9190613b7e565b6103b68282611c5c565b60006102f2826000612bdd565b6001600160a01b038216612ccf5760405162461bcd60e51b815260206004820152601960248201527f496e76616c6964206372656469746f72206163636f756e742e0000000000000060448201526064016103a3565b80612d145760405162461bcd60e51b815260206004820152601560248201527424b73b30b634b21030b3b932b2b6b2b73a1034b21760591b60448201526064016103a3565b612d1d81613298565b612d605760405162461bcd60e51b81526020600482015260146024820152734465627420646f6573206e6f742065787369747360601b60448201526064016103a3565b6103b68161332f565b604080516001600160a01b0385811660248301528481166044830152606480830185905283518084039091018152608490920183526020820180516001600160e01b03166323b872dd60e01b1790529151600092839290881691612dcd9190613dff565b6000604051808303816000865af19150503d8060008114612e0a576040519150601f19603f3d011682016040523d82523d6000602084013e612e0f565b606091505b5091509150818015612e39575080511580612e39575080806020019051810190612e399190613a87565b612e6b5760405162461bcd60e51b815260206004820152600360248201526229aa2360e91b60448201526064016103a3565b505050505050565b60606102f26001600160a01b03831660145b60606000612e94836002613c50565b612e9f906002613a74565b6001600160401b03811115612eb657612eb6613951565b6040519080825280601f01601f191660200182016040528015612ee0576020820181803683370190505b509050600360fc1b81600081518110612efb57612efb613750565b60200101906001600160f81b031916908160001a905350600f60fb1b81600181518110612f2a57612f2a613750565b60200101906001600160f81b031916908160001a9053506000612f4e846002613c50565b612f59906001613a74565b90505b6001811115612fd1576f181899199a1a9b1b9c1cb0b131b232b360811b85600f1660108110612f8d57612f8d613750565b1a60f81b828281518110612fa357612fa3613750565b60200101906001600160f81b031916908160001a90535060049490941c93612fca81613e11565b9050612f5c565b50831561042c5760405162461bcd60e51b815260206004820181905260248201527f537472696e67733a20686578206c656e67746820696e73756666696369656e7460448201526064016103a3565b6000818152600183016020526040812054613067575081546001818101845560008481526020808220909301849055845484825282860190935260409020919091556102f2565b5060006102f2565b60008181526001830160205260408120548015613158576000613093600183613c67565b85549091506000906130a790600190613c67565b905081811461310c5760008660000182815481106130c7576130c7613750565b90600052602060002001549050808760000184815481106130ea576130ea613750565b6000918252602080832090910192909255918252600188019052604090208390555b855486908061311d5761311d613e28565b6001900381819060005260206000200160009055905585600101600086815260200190815260200160002060009055600193505050506102f2565b60009150506102f2565b6060600082516001600160401b0381111561317f5761317f613951565b6040519080825280602002602001820160405280156131a8578160200160208202803683370190505b50905060005b83516131bb906000613a74565b81101561328e57868682815181106131d5576131d5613750565b60200260200101518683815181106131ef576131ef613750565b602002602001015186848151811061320957613209613750565b60200260200101516040516020016132539493929190606094851b6bffffffffffffffffffffffff1990811682529390941b90921660148401526028830152604882015260680190565b6040516020818303038152906040528051906020012082828151811061327b5761327b613750565b60209081029190910101526001016131ae565b5095945050505050565b61015f5460009081906132b3906001600160a01b03166120aa565b6040516331a9108f60e11b8152600481018590526001600160a01b039190911690636352211e90602401602060405180830381865afa1580156132fa573d6000803e3d6000fd5b505050506040513d601f19601f8201168201806040525081019061331e9190613b7e565b6001600160a01b0316141592915050565b61015f54613345906001600160a01b03166120aa565b604051630852cd8d60e31b8152600481018390526001600160a01b0391909116906342966c6890602401600060405180830381600087803b15801561338957600080fd5b505af115801561339d573d6000803e3d6000fd5b5050505050565b6040518061010001604052806133b86133fb565b815260200160006001600160a01b031681526020016060815260200160008152602001606081526020016060815260200160608152602001600060ff1681525090565b6040518060a0016040528060006001600160a01b03168152602001606081526020016060815260200160608152602001606081525090565b60006020828403121561344557600080fd5b81356001600160e01b03198116811461042c57600080fd5b6000806040838503121561347057600080fd5b50508035926020909101359150565b60006020828403121561349157600080fd5b5035919050565b6001600160a01b0381168114610e4057600080fd5b600080604083850312156134c057600080fd5b8235915060208301356134d281613498565b809150509250929050565b6000602082840312156134ef57600080fd5b81356001600160401b0381111561350557600080fd5b82016080818503121561042c57600080fd5b600060408201848352602060408185015281855180845260608601915060608160051b87010193508287016000805b8381101561359a57888703605f19018552825180518089529087019087890190845b8181101561358457835183529289019291890191600101613568565b5090985050509385019391850191600101613546565b50949998505050505050505050565b6000602082840312156135bb57600080fd5b813561042c81613498565b60008083601f8401126135d857600080fd5b5081356001600160401b038111156135ef57600080fd5b6020830191508360208260051b850101111561360a57600080fd5b9250929050565b60008060008060006060868803121561362957600080fd5b85356001600160401b038082111561364057600080fd5b61364c89838a016135c6565b9097509550602088013591508082111561366557600080fd5b50613672888289016135c6565b909450925050604086013561368681613498565b809150509295509295909350565b6020808252603a908201527f556e74616e676c6564426173653a204d75737420686176652061646d696e207260408201527f6f6c6520746f20706572666f726d207468697320616374696f6e000000000000606082015260800190565b6000808335601e1984360301811261370857600080fd5b8301803591506001600160401b0382111561372257600080fd5b6020019150600581901b360382131561360a57600080fd5b634e487b7160e01b600052602160045260246000fd5b634e487b7160e01b600052603260045260246000fd5b60208082526028908201527f4c6f616e4b65726e656c3a20496e76616c6964205465726d20436f6e747261636040820152677420706172616d7360c01b606082015260800190565b60008235607e198336030181126137c457600080fd5b9190910192915050565b6000808335601e198436030181126137e557600080fd5b83016020810192503590506001600160401b0381111561380457600080fd5b8060051b360382131561360a57600080fd5b81835260006001600160fb1b0383111561382f57600080fd5b8260051b80836020870137939093016020019392505050565b81835281816020850137506000828201602090810191909152601f909101601f19169091010190565b6001600160a01b0383811682526040602083015260009061389284806137ce565b608060408601526138a760c086018284613816565b9150506138b760208601866137ce565b603f19808785030160608801526138cf848385613816565b9350604088013592506138e183613498565b938216608087015260608701359336889003601e1901851261390257600080fd5b6020948801948501943592506001600160401b0383111561392257600080fd5b82360385131561393157600080fd5b8684030160a087015250613946828285613848565b979650505050505050565b634e487b7160e01b600052604160045260246000fd5b6002811061398557634e487b7160e01b600052602160045260246000fd5b9052565b6000604080835261399d8184018688613816565b83810360208581019190915285518083528682019282019060005b81811015613a3657845180516001600160a01b0390811685528582015116858501528681015187850152606080820151908501526080808201519085015260a0808201519085015260c08082015160ff169085015260e09081015190613a2081860183613967565b50509383019361010092909201916001016139b8565b50909998505050505050505050565b600060208284031215613a5757600080fd5b5051919050565b634e487b7160e01b600052601160045260246000fd5b808201808211156102f2576102f2613a5e565b600060208284031215613a9957600080fd5b8151801515811461042c57600080fd5b600082601f830112613aba57600080fd5b815160206001600160401b0380831115613ad657613ad6613951565b8260051b604051601f19603f83011681018181108482111715613afb57613afb613951565b604052938452858101830193838101925087851115613b1957600080fd5b83870191505b8482101561394657815183529183019190830190613b1f565b60008060408385031215613b4b57600080fd5b8251915060208301516001600160401b03811115613b6857600080fd5b613b7485828601613aa9565b9150509250929050565b600060208284031215613b9057600080fd5b815161042c81613498565b6020808252602e908201527f4c6f616e52657061796d656e74526f757465723a20496e76616c69642072657060408201526d185e5b595b9d081c995c5d595cdd60921b606082015260800190565b600060018201613bfb57613bfb613a5e565b5060010190565b608081526000613c1660808301888a613816565b6001600160a01b0387811660208501528382036040850152613c39828789613816565b925080851660608501525050979650505050505050565b80820281158282048414176102f2576102f2613a5e565b818103818111156102f2576102f2613a5e565b600081518084526020808501945080840160005b83811015613caa57815187529582019590820190600101613c8e565b509495945050505050565b604081526000613cc86040830185613c7a565b8281036020840152611bc98185613c7a565b60008060408385031215613ced57600080fd5b82516001600160401b0380821115613d0457600080fd5b613d1086838701613aa9565b93506020850151915080821115613d2657600080fd5b50613b7485828601613aa9565b60005b83811015613d4e578181015183820152602001613d36565b50506000910152565b7f416363657373436f6e74726f6c3a206163636f756e7420000000000000000000815260008351613d8f816017850160208801613d33565b7001034b99036b4b9b9b4b733903937b6329607d1b6017918401918201528351613dc0816028840160208801613d33565b01602801949350505050565b6020815260008251806020840152613deb816040850160208701613d33565b601f01601f19169190910160400192915050565b600082516137c4818460208701613d33565b600081613e2057613e20613a5e565b506000190190565b634e487b7160e01b600052603160045260246000fdfea2646970667358221220807afc6bd9870bab4700ed7570966a65e3846311ece763644709a1b454e0e1c464736f6c63430008130033",
  "devdoc": {
    "author": "Untangled Team",
    "events": {
      "Initialized(uint8)": {
        "details": "Triggered when the contract has been initialized or reinitialized."
      },
      "Paused(address)": {
        "details": "Emitted when the pause is triggered by `account`."
      },
      "RoleAdminChanged(bytes32,bytes32,bytes32)": {
        "details": "Emitted when `newAdminRole` is set as ``role``'s admin role, replacing `previousAdminRole` `DEFAULT_ADMIN_ROLE` is the starting admin for all roles, despite {RoleAdminChanged} not being emitted signaling this. _Available since v3.1._"
      },
      "RoleGranted(bytes32,address,address)": {
        "details": "Emitted when `account` is granted `role`. `sender` is the account that originated the contract call, an admin role bearer except when using {AccessControl-_setupRole}."
      },
      "RoleRevoked(bytes32,address,address)": {
        "details": "Emitted when `account` is revoked `role`. `sender` is the account that originated the contract call:   - if using `revokeRole`, it is the admin role bearer   - if using `renounceRole`, it is the role bearer (i.e. `account`)"
      },
      "Unpaused(address)": {
        "details": "Emitted when the pause is lifted by `account`."
      }
    },
    "kind": "dev",
    "methods": {
      "getRoleAdmin(bytes32)": {
        "details": "Returns the admin role that controls `role`. See {grantRole} and {revokeRole}. To change a role's admin, use {_setRoleAdmin}."
      },
      "getRoleMember(bytes32,uint256)": {
        "details": "Returns one of the accounts that have `role`. `index` must be a value between 0 and {getRoleMemberCount}, non-inclusive. Role bearers are not sorted in any particular way, and their ordering may change at any point. WARNING: When using {getRoleMember} and {getRoleMemberCount}, make sure you perform all queries on the same block. See the following https://forum.openzeppelin.com/t/iterating-over-elements-on-enumerableset-in-openzeppelin-contracts/2296[forum post] for more information."
      },
      "getRoleMemberCount(bytes32)": {
        "details": "Returns the number of accounts that have `role`. Can be used together with {getRoleMember} to enumerate all bearers of a role."
      },
      "grantRole(bytes32,address)": {
        "details": "Grants `role` to `account`. If `account` had not been already granted `role`, emits a {RoleGranted} event. Requirements: - the caller must have ``role``'s admin role. May emit a {RoleGranted} event."
      },
      "hasRole(bytes32,address)": {
        "details": "Returns `true` if `account` has been granted `role`."
      },
      "paused()": {
        "details": "Returns true if the contract is paused, and false otherwise."
      },
      "renounceRole(bytes32,address)": {
        "details": "Revokes `role` from the calling account. Roles are often managed via {grantRole} and {revokeRole}: this function's purpose is to provide a mechanism for accounts to lose their privileges if they are compromised (such as when a trusted device is misplaced). If the calling account had been revoked `role`, emits a {RoleRevoked} event. Requirements: - the caller must be `account`. May emit a {RoleRevoked} event."
      },
      "repayInBatch(bytes32[],uint256[],address)": {
        "details": "calls _assertRepaymentRequest and _doRepay for each repayment, and emits the LogRepayments event to indicate the successful batch repayment"
      },
      "revokeRole(bytes32,address)": {
        "details": "Revokes `role` from `account`. If `account` had been granted `role`, emits a {RoleRevoked} event. Requirements: - the caller must have ``role``'s admin role. May emit a {RoleRevoked} event."
      },
      "supportsInterface(bytes4)": {
        "details": "See {IERC165-supportsInterface}."
      }
    },
    "title": "LoanKernel",
    "version": 1
  },
  "userdoc": {
    "kind": "user",
    "methods": {
      "fillDebtOrder((address[],uint256[],bytes32[],(uint256[],uint256[],address,bytes)[]))": {
        "notice": "Filling new Debt Order Notice: - All Debt Order must to have same:   + TermContract   + Creditor Fee   + Debtor Fee"
      },
      "repayInBatch(bytes32[],uint256[],address)": {
        "notice": "allows batch repayment of multiple loans by iterating over the given agreement IDs and amounts"
      }
    },
    "notice": "Upload loan, Repay Loan and conclude loan",
    "version": 1
  },
  "storageLayout": {
    "storage": [
      {
        "astId": 759,
        "contract": "contracts/protocol/loan/LoanKernel.sol:LoanKernel",
        "label": "_initialized",
        "offset": 0,
        "slot": "0",
        "type": "t_uint8"
      },
      {
        "astId": 762,
        "contract": "contracts/protocol/loan/LoanKernel.sol:LoanKernel",
        "label": "_initializing",
        "offset": 1,
        "slot": "0",
        "type": "t_bool"
      },
      {
        "astId": 5888,
        "contract": "contracts/protocol/loan/LoanKernel.sol:LoanKernel",
        "label": "__gap",
        "offset": 0,
        "slot": "1",
        "type": "t_array(t_uint256)50_storage"
      },
      {
        "astId": 942,
        "contract": "contracts/protocol/loan/LoanKernel.sol:LoanKernel",
        "label": "_paused",
        "offset": 0,
        "slot": "51",
        "type": "t_bool"
      },
      {
        "astId": 1047,
        "contract": "contracts/protocol/loan/LoanKernel.sol:LoanKernel",
        "label": "__gap",
        "offset": 0,
        "slot": "52",
        "type": "t_array(t_uint256)49_storage"
      },
      {
        "astId": 1062,
        "contract": "contracts/protocol/loan/LoanKernel.sol:LoanKernel",
        "label": "_status",
        "offset": 0,
        "slot": "101",
        "type": "t_uint256"
      },
      {
        "astId": 1131,
        "contract": "contracts/protocol/loan/LoanKernel.sol:LoanKernel",
        "label": "__gap",
        "offset": 0,
        "slot": "102",
        "type": "t_array(t_uint256)49_storage"
      },
      {
        "astId": 7178,
        "contract": "contracts/protocol/loan/LoanKernel.sol:LoanKernel",
        "label": "__gap",
        "offset": 0,
        "slot": "151",
        "type": "t_array(t_uint256)50_storage"
      },
      {
        "astId": 184,
        "contract": "contracts/protocol/loan/LoanKernel.sol:LoanKernel",
        "label": "_roles",
        "offset": 0,
        "slot": "201",
        "type": "t_mapping(t_bytes32,t_struct(RoleData)179_storage)"
      },
      {
        "astId": 479,
        "contract": "contracts/protocol/loan/LoanKernel.sol:LoanKernel",
        "label": "__gap",
        "offset": 0,
        "slot": "202",
        "type": "t_array(t_uint256)49_storage"
      },
      {
        "astId": 33,
        "contract": "contracts/protocol/loan/LoanKernel.sol:LoanKernel",
        "label": "_roleMembers",
        "offset": 0,
        "slot": "251",
        "type": "t_mapping(t_bytes32,t_struct(AddressSet)8488_storage)"
      },
      {
        "astId": 143,
        "contract": "contracts/protocol/loan/LoanKernel.sol:LoanKernel",
        "label": "__gap",
        "offset": 0,
        "slot": "252",
        "type": "t_array(t_uint256)49_storage"
      },
      {
        "astId": 12581,
        "contract": "contracts/protocol/loan/LoanKernel.sol:LoanKernel",
        "label": "__gap",
        "offset": 0,
        "slot": "301",
        "type": "t_array(t_uint256)50_storage"
      },
      {
        "astId": 22657,
        "contract": "contracts/protocol/loan/LoanKernel.sol:LoanKernel",
        "label": "registry",
        "offset": 0,
        "slot": "351",
        "type": "t_contract(Registry)31072"
      }
    ],
    "types": {
      "t_address": {
        "encoding": "inplace",
        "label": "address",
        "numberOfBytes": "20"
      },
      "t_array(t_bytes32)dyn_storage": {
        "base": "t_bytes32",
        "encoding": "dynamic_array",
        "label": "bytes32[]",
        "numberOfBytes": "32"
      },
      "t_array(t_uint256)49_storage": {
        "base": "t_uint256",
        "encoding": "inplace",
        "label": "uint256[49]",
        "numberOfBytes": "1568"
      },
      "t_array(t_uint256)50_storage": {
        "base": "t_uint256",
        "encoding": "inplace",
        "label": "uint256[50]",
        "numberOfBytes": "1600"
      },
      "t_bool": {
        "encoding": "inplace",
        "label": "bool",
        "numberOfBytes": "1"
      },
      "t_bytes32": {
        "encoding": "inplace",
        "label": "bytes32",
        "numberOfBytes": "32"
      },
      "t_contract(Registry)31072": {
        "encoding": "inplace",
        "label": "contract Registry",
        "numberOfBytes": "20"
      },
      "t_mapping(t_address,t_bool)": {
        "encoding": "mapping",
        "key": "t_address",
        "label": "mapping(address => bool)",
        "numberOfBytes": "32",
        "value": "t_bool"
      },
      "t_mapping(t_bytes32,t_struct(AddressSet)8488_storage)": {
        "encoding": "mapping",
        "key": "t_bytes32",
        "label": "mapping(bytes32 => struct EnumerableSetUpgradeable.AddressSet)",
        "numberOfBytes": "32",
        "value": "t_struct(AddressSet)8488_storage"
      },
      "t_mapping(t_bytes32,t_struct(RoleData)179_storage)": {
        "encoding": "mapping",
        "key": "t_bytes32",
        "label": "mapping(bytes32 => struct AccessControlUpgradeable.RoleData)",
        "numberOfBytes": "32",
        "value": "t_struct(RoleData)179_storage"
      },
      "t_mapping(t_bytes32,t_uint256)": {
        "encoding": "mapping",
        "key": "t_bytes32",
        "label": "mapping(bytes32 => uint256)",
        "numberOfBytes": "32",
        "value": "t_uint256"
      },
      "t_struct(AddressSet)8488_storage": {
        "encoding": "inplace",
        "label": "struct EnumerableSetUpgradeable.AddressSet",
        "members": [
          {
            "astId": 8487,
            "contract": "contracts/protocol/loan/LoanKernel.sol:LoanKernel",
            "label": "_inner",
            "offset": 0,
            "slot": "0",
            "type": "t_struct(Set)8173_storage"
          }
        ],
        "numberOfBytes": "64"
      },
      "t_struct(RoleData)179_storage": {
        "encoding": "inplace",
        "label": "struct AccessControlUpgradeable.RoleData",
        "members": [
          {
            "astId": 176,
            "contract": "contracts/protocol/loan/LoanKernel.sol:LoanKernel",
            "label": "members",
            "offset": 0,
            "slot": "0",
            "type": "t_mapping(t_address,t_bool)"
          },
          {
            "astId": 178,
            "contract": "contracts/protocol/loan/LoanKernel.sol:LoanKernel",
            "label": "adminRole",
            "offset": 0,
            "slot": "1",
            "type": "t_bytes32"
          }
        ],
        "numberOfBytes": "64"
      },
      "t_struct(Set)8173_storage": {
        "encoding": "inplace",
        "label": "struct EnumerableSetUpgradeable.Set",
        "members": [
          {
            "astId": 8168,
            "contract": "contracts/protocol/loan/LoanKernel.sol:LoanKernel",
            "label": "_values",
            "offset": 0,
            "slot": "0",
            "type": "t_array(t_bytes32)dyn_storage"
          },
          {
            "astId": 8172,
            "contract": "contracts/protocol/loan/LoanKernel.sol:LoanKernel",
            "label": "_indexes",
            "offset": 0,
            "slot": "1",
            "type": "t_mapping(t_bytes32,t_uint256)"
          }
        ],
        "numberOfBytes": "64"
      },
      "t_uint256": {
        "encoding": "inplace",
        "label": "uint256",
        "numberOfBytes": "32"
      },
      "t_uint8": {
        "encoding": "inplace",
        "label": "uint8",
        "numberOfBytes": "1"
      }
    }
  }
}