{
  "address": "0x5477925E81F3Ba065F2b65e700A4a5CB6C300D68",
  "abi": [
    {
      "anonymous": false,
      "inputs": [
        {
          "indexed": false,
          "internalType": "uint8",
          "name": "version",
          "type": "uint8"
        }
      ],
      "name": "Initialized",
      "type": "event"
    },
    {
      "anonymous": false,
      "inputs": [
        {
          "indexed": false,
          "internalType": "address",
          "name": "account",
          "type": "address"
        }
      ],
      "name": "Paused",
      "type": "event"
    },
    {
      "anonymous": false,
      "inputs": [
        {
          "indexed": true,
          "internalType": "bytes32",
          "name": "role",
          "type": "bytes32"
        },
        {
          "indexed": true,
          "internalType": "bytes32",
          "name": "previousAdminRole",
          "type": "bytes32"
        },
        {
          "indexed": true,
          "internalType": "bytes32",
          "name": "newAdminRole",
          "type": "bytes32"
        }
      ],
      "name": "RoleAdminChanged",
      "type": "event"
    },
    {
      "anonymous": false,
      "inputs": [
        {
          "indexed": true,
          "internalType": "bytes32",
          "name": "role",
          "type": "bytes32"
        },
        {
          "indexed": true,
          "internalType": "address",
          "name": "account",
          "type": "address"
        },
        {
          "indexed": true,
          "internalType": "address",
          "name": "sender",
          "type": "address"
        }
      ],
      "name": "RoleGranted",
      "type": "event"
    },
    {
      "anonymous": false,
      "inputs": [
        {
          "indexed": true,
          "internalType": "bytes32",
          "name": "role",
          "type": "bytes32"
        },
        {
          "indexed": true,
          "internalType": "address",
          "name": "account",
          "type": "address"
        },
        {
          "indexed": true,
          "internalType": "address",
          "name": "sender",
          "type": "address"
        }
      ],
      "name": "RoleRevoked",
      "type": "event"
    },
    {
      "anonymous": false,
      "inputs": [
        {
          "indexed": true,
          "internalType": "address",
          "name": "token",
          "type": "address"
        },
        {
          "indexed": true,
          "internalType": "address",
          "name": "poolAddress",
          "type": "address"
        },
        {
          "indexed": true,
          "internalType": "enum Configuration.NOTE_TOKEN_TYPE",
          "name": "tokenType",
          "type": "uint8"
        },
        {
          "indexed": false,
          "internalType": "uint8",
          "name": "decimals",
          "type": "uint8"
        },
        {
          "indexed": false,
          "internalType": "string",
          "name": "ticker",
          "type": "string"
        }
      ],
      "name": "TokenCreated",
      "type": "event"
    },
    {
      "anonymous": false,
      "inputs": [
        {
          "indexed": false,
          "internalType": "address",
          "name": "account",
          "type": "address"
        }
      ],
      "name": "Unpaused",
      "type": "event"
    },
    {
      "anonymous": false,
      "inputs": [
        {
          "indexed": true,
          "internalType": "address",
          "name": "newAddress",
          "type": "address"
        }
      ],
      "name": "UpdateNoteTokenImplementation",
      "type": "event"
    },
    {
      "inputs": [],
      "name": "DEFAULT_ADMIN_ROLE",
      "outputs": [
        {
          "internalType": "bytes32",
          "name": "",
          "type": "bytes32"
        }
      ],
      "stateMutability": "view",
      "type": "function"
    },
    {
      "inputs": [
        {
          "internalType": "address",
          "name": "tokenAddress",
          "type": "address"
        },
        {
          "internalType": "address",
          "name": "newController",
          "type": "address"
        }
      ],
      "name": "changeMinterRole",
      "outputs": [],
      "stateMutability": "nonpayable",
      "type": "function"
    },
    {
      "inputs": [
        {
          "internalType": "address",
          "name": "_poolAddress",
          "type": "address"
        },
        {
          "internalType": "enum Configuration.NOTE_TOKEN_TYPE",
          "name": "_noteTokenType",
          "type": "uint8"
        },
        {
          "internalType": "uint8",
          "name": "_nDecimals",
          "type": "uint8"
        },
        {
          "internalType": "string",
          "name": "ticker",
          "type": "string"
        }
      ],
      "name": "createToken",
      "outputs": [
        {
          "internalType": "address",
          "name": "",
          "type": "address"
        }
      ],
      "stateMutability": "nonpayable",
      "type": "function"
    },
    {
      "inputs": [],
      "name": "factoryAdmin",
      "outputs": [
        {
          "internalType": "address",
          "name": "",
          "type": "address"
        }
      ],
      "stateMutability": "view",
      "type": "function"
    },
    {
      "inputs": [],
      "name": "getInitializedVersion",
      "outputs": [
        {
          "internalType": "uint256",
          "name": "",
          "type": "uint256"
        }
      ],
      "stateMutability": "view",
      "type": "function"
    },
    {
      "inputs": [
        {
          "internalType": "bytes32",
          "name": "role",
          "type": "bytes32"
        }
      ],
      "name": "getRoleAdmin",
      "outputs": [
        {
          "internalType": "bytes32",
          "name": "",
          "type": "bytes32"
        }
      ],
      "stateMutability": "view",
      "type": "function"
    },
    {
      "inputs": [
        {
          "internalType": "bytes32",
          "name": "role",
          "type": "bytes32"
        },
        {
          "internalType": "uint256",
          "name": "index",
          "type": "uint256"
        }
      ],
      "name": "getRoleMember",
      "outputs": [
        {
          "internalType": "address",
          "name": "",
          "type": "address"
        }
      ],
      "stateMutability": "view",
      "type": "function"
    },
    {
      "inputs": [
        {
          "internalType": "bytes32",
          "name": "role",
          "type": "bytes32"
        }
      ],
      "name": "getRoleMemberCount",
      "outputs": [
        {
          "internalType": "uint256",
          "name": "",
          "type": "uint256"
        }
      ],
      "stateMutability": "view",
      "type": "function"
    },
    {
      "inputs": [
        {
          "internalType": "bytes32",
          "name": "role",
          "type": "bytes32"
        },
        {
          "internalType": "address",
          "name": "account",
          "type": "address"
        }
      ],
      "name": "grantRole",
      "outputs": [],
      "stateMutability": "nonpayable",
      "type": "function"
    },
    {
      "inputs": [
        {
          "internalType": "bytes32",
          "name": "role",
          "type": "bytes32"
        },
        {
          "internalType": "address",
          "name": "account",
          "type": "address"
        }
      ],
      "name": "hasRole",
      "outputs": [
        {
          "internalType": "bool",
          "name": "",
          "type": "bool"
        }
      ],
      "stateMutability": "view",
      "type": "function"
    },
    {
      "inputs": [
        {
          "internalType": "contract Registry",
          "name": "_registry",
          "type": "address"
        },
        {
          "internalType": "address",
          "name": "_factoryAdmin",
          "type": "address"
        }
      ],
      "name": "initialize",
      "outputs": [],
      "stateMutability": "nonpayable",
      "type": "function"
    },
    {
      "inputs": [],
      "name": "isAdmin",
      "outputs": [
        {
          "internalType": "bool",
          "name": "",
          "type": "bool"
        }
      ],
      "stateMutability": "view",
      "type": "function"
    },
    {
      "inputs": [
        {
          "internalType": "address",
          "name": "",
          "type": "address"
        }
      ],
      "name": "isExistingTokens",
      "outputs": [
        {
          "internalType": "bool",
          "name": "",
          "type": "bool"
        }
      ],
      "stateMutability": "view",
      "type": "function"
    },
    {
      "inputs": [],
      "name": "noteTokenImplementation",
      "outputs": [
        {
          "internalType": "address",
          "name": "",
          "type": "address"
        }
      ],
      "stateMutability": "view",
      "type": "function"
    },
    {
      "inputs": [],
      "name": "pause",
      "outputs": [],
      "stateMutability": "nonpayable",
      "type": "function"
    },
    {
      "inputs": [],
      "name": "pauseAllTokens",
      "outputs": [],
      "stateMutability": "nonpayable",
      "type": "function"
    },
    {
      "inputs": [
        {
          "internalType": "address",
          "name": "tokenAddress",
          "type": "address"
        }
      ],
      "name": "pauseUnpauseToken",
      "outputs": [],
      "stateMutability": "nonpayable",
      "type": "function"
    },
    {
      "inputs": [],
      "name": "paused",
      "outputs": [
        {
          "internalType": "bool",
          "name": "",
          "type": "bool"
        }
      ],
      "stateMutability": "view",
      "type": "function"
    },
    {
      "inputs": [],
      "name": "registry",
      "outputs": [
        {
          "internalType": "contract Registry",
          "name": "",
          "type": "address"
        }
      ],
      "stateMutability": "view",
      "type": "function"
    },
    {
      "inputs": [
        {
          "internalType": "bytes32",
          "name": "role",
          "type": "bytes32"
        },
        {
          "internalType": "address",
          "name": "account",
          "type": "address"
        }
      ],
      "name": "renounceRole",
      "outputs": [],
      "stateMutability": "nonpayable",
      "type": "function"
    },
    {
      "inputs": [
        {
          "internalType": "bytes32",
          "name": "role",
          "type": "bytes32"
        },
        {
          "internalType": "address",
          "name": "account",
          "type": "address"
        }
      ],
      "name": "revokeRole",
      "outputs": [],
      "stateMutability": "nonpayable",
      "type": "function"
    },
    {
      "inputs": [
        {
          "internalType": "address",
          "name": "_factoryAdmin",
          "type": "address"
        }
      ],
      "name": "setFactoryAdmin",
      "outputs": [],
      "stateMutability": "nonpayable",
      "type": "function"
    },
    {
      "inputs": [
        {
          "internalType": "address",
          "name": "newAddress",
          "type": "address"
        }
      ],
      "name": "setNoteTokenImplementation",
      "outputs": [],
      "stateMutability": "nonpayable",
      "type": "function"
    },
    {
      "inputs": [
        {
          "internalType": "bytes32",
          "name": "role",
          "type": "bytes32"
        },
        {
          "internalType": "bytes32",
          "name": "adminRole",
          "type": "bytes32"
        }
      ],
      "name": "setRoleAdmin",
      "outputs": [],
      "stateMutability": "nonpayable",
      "type": "function"
    },
    {
      "inputs": [
        {
          "internalType": "bytes4",
          "name": "interfaceId",
          "type": "bytes4"
        }
      ],
      "name": "supportsInterface",
      "outputs": [
        {
          "internalType": "bool",
          "name": "",
          "type": "bool"
        }
      ],
      "stateMutability": "view",
      "type": "function"
    },
    {
      "inputs": [
        {
          "internalType": "uint256",
          "name": "",
          "type": "uint256"
        }
      ],
      "name": "tokens",
      "outputs": [
        {
          "internalType": "contract INoteToken",
          "name": "",
          "type": "address"
        }
      ],
      "stateMutability": "view",
      "type": "function"
    },
    {
      "inputs": [],
      "name": "unPauseAllTokens",
      "outputs": [],
      "stateMutability": "nonpayable",
      "type": "function"
    },
    {
      "inputs": [],
      "name": "unpause",
      "outputs": [],
      "stateMutability": "nonpayable",
      "type": "function"
    }
  ],
  "transactionHash": "0x89fc259da14b447e9d0c1872c68031156c9f2450f8458536c1405204b83fdf17",
  "args": [],
  "numDeployments": 1,
  "solcInputHash": "49d1e9b9ddfb8d34d2f756ae0084f3d9",
  "bytecode": "0x608060405234801561001057600080fd5b50612fa3806100206000396000f3fe60806040523480156200001157600080fd5b5060043610620001e95760003560e01c80637b103999116200010d578063a217fddf11620000a3578063b6db75a0116200007a578063b6db75a01462000416578063ca15c8731462000420578063d547741f1462000437578063f2919b1e146200044e57600080fd5b8063a217fddf14620003ea578063b0eb200614620003f3578063b3c65015146200040a57600080fd5b806384933c0c11620000e457806384933c0c14620003805780639010d07c14620003a757806391d1485414620003be57806399ed1a7214620003d557600080fd5b80637b103999146200034a57806384137082146200035f5780638456cb59146200037657600080fd5b806336568abe11620001835780634f64b2be116200015a5780634f64b2be14620003135780635c975abb146200032a5780636c57c2db14620003365780636d84fc12146200034057600080fd5b806336568abe14620002db5780633f4ba83a14620002f2578063485cc95514620002fc57600080fd5b80631e4e009111620001c45780631e4e00911462000261578063248a9ca3146200027857806324d08a6014620002ad5780632f2ff15d14620002c457600080fd5b806301ffc9a714620001ee57806305dfd86f146200021a57806317d8ec7f1462000233575b600080fd5b62000205620001ff36600462001b99565b62000465565b60405190151581526020015b60405180910390f35b620002316200022b36600462001bdb565b62000493565b005b61015f5462000248906001600160a01b031681565b6040516001600160a01b03909116815260200162000211565b620002316200027236600462001bfb565b620004af565b6200029e6200028936600462001c1e565b600090815260c9602052604090206001015490565b60405190815260200162000211565b62000231620002be36600462001c38565b620004cd565b62000231620002d536600462001c76565b620005ac565b62000231620002ec36600462001c76565b620005d5565b6200023162000653565b620002316200030d36600462001c38565b62000688565b620002486200032436600462001c1e565b620007cb565b60335460ff1662000205565b62000231620007f7565b620002316200094b565b6101925462000248906001600160a01b031681565b620002486200037036600462001c9e565b62000a90565b6200023162000d5f565b620002056200039136600462001bdb565b6101956020526000908152604090205460ff1681565b62000248620003b836600462001bfb565b62000d92565b62000205620003cf36600462001c76565b62000db3565b6101945462000248906001600160a01b031681565b6200029e600081565b620002316200040436600462001bdb565b62000dde565b60005460ff166200029e565b6200020562000ebf565b6200029e6200043136600462001c1e565b62000f06565b620002316200044836600462001c76565b62000f1f565b620002316200045f36600462001bdb565b62000f48565b60006001600160e01b03198216635a05180f60e01b14806200048d57506200048d82620010c1565b92915050565b6000620004a081620010f8565b620004ab8262001107565b5050565b6000620004bc81620010f8565b620004c883836200112a565b505050565b61019254620004e5906001600160a01b031662001175565b6001600160a01b0316336001600160a01b031614620005215760405162461bcd60e51b8152600401620005189062001d59565b60405180910390fd5b604051632f2ff15d60e01b81527f9f2df0fed2c77648de5860a4cc508cd0818c85b8b8a1ab4ceeef8d981c8956a660048201526001600160a01b038281166024830152839190821690632f2ff15d90604401600060405180830381600087803b1580156200058e57600080fd5b505af1158015620005a3573d6000803e3d6000fd5b50505050505050565b600082815260c96020526040902060010154620005c981620010f8565b620004c8838362001184565b6001600160a01b0381163314620006475760405162461bcd60e51b815260206004820152602f60248201527f416363657373436f6e74726f6c3a2063616e206f6e6c792072656e6f756e636560448201526e103937b632b9903337b91039b2b63360891b606482015260840162000518565b620004ab8282620011aa565b6200065d62000ebf565b6200067c5760405162461bcd60e51b8152600401620005189062001da7565b62000686620011d0565b565b600054610100900460ff1615808015620006a95750600054600160ff909116105b80620006c55750303b158015620006c5575060005460ff166001145b6200072a5760405162461bcd60e51b815260206004820152602e60248201527f496e697469616c697a61626c653a20636f6e747261637420697320616c72656160448201526d191e481a5b9a5d1a585b1a5e995960921b606482015260840162000518565b6000805460ff1916600117905580156200074e576000805461ff0019166101001790555b620007593362001224565b620007648262001277565b61019280546001600160a01b0319166001600160a01b0385161790558015620004c8576000805461ff0019169055604051600181527f7f26b83ff96e1f2b6a682f133852f6798a09c465da95921460cefb38474024989060200160405180910390a1505050565b6101938181548110620007dd57600080fd5b6000918252602090912001546001600160a01b0316905081565b62000801620012b6565b6200080b620012fe565b60006200081881620010f8565b6101935460005b818110156200093d5761019381815481106200083f576200083f62001e04565b6000918252602091829020015460408051635c975abb60e01b815290516001600160a01b0390921692635c975abb926004808401938290030181865afa1580156200088e573d6000803e3d6000fd5b505050506040513d601f19601f82011682018060405250810190620008b4919062001e1a565b1562000934576101938181548110620008d157620008d162001e04565b600091825260208220015460408051631fa5d41d60e11b815290516001600160a01b0390921692633f4ba83a9260048084019382900301818387803b1580156200091a57600080fd5b505af11580156200092f573d6000803e3d6000fd5b505050505b6001016200081f565b505050620006866001606555565b62000955620012b6565b6200095f620012fe565b60006200096c81620010f8565b6101935460005b818110156200093d57610193818154811062000993576200099362001e04565b6000918252602091829020015460408051635c975abb60e01b815290516001600160a01b0390921692635c975abb926004808401938290030181865afa158015620009e2573d6000803e3d6000fd5b505050506040513d601f19601f8201168201806040525081019062000a08919062001e1a565b62000a8757610193818154811062000a245762000a2462001e04565b600091825260208220015460408051638456cb5960e01b815290516001600160a01b0390921692638456cb599260048084019382900301818387803b15801562000a6d57600080fd5b505af115801562000a82573d6000803e3d6000fd5b505050505b60010162000973565b600062000a9c620012b6565b62000aa6620012fe565b6101925462000abe906001600160a01b031662001175565b6001600160a01b0316336001600160a01b03161462000af15760405162461bcd60e51b8152600401620005189062001d59565b606080600087600181111562000b0b5762000b0b62001e3e565b0362000b75576040518060400160405280601781526020017f53656e696f72204f626c69676174696f6e20546f6b656e0000000000000000008152509150848460405160200162000b5e92919062001e54565b604051602081830303815290604052905062000bd4565b6040518060400160405280601781526020017f4a756e696f72204f626c69676174696f6e20546f6b656e0000000000000000008152509150848460405160200162000bc292919062001e6d565b60405160208183030381529060405290505b60007f56906711ccaa075d6d2072223a15c4c6ed8ef59bac59e19f7ee62040efc781bf8383898c8c600181111562000c105762000c1062001e3e565b60405160240162000c2695949392919062001eda565b60408051601f198184030181529190526020810180516001600160e01b03166001600160e01b0319909316929092179091526101945490915060009062000c77906001600160a01b03168362001360565b610193805460018082019092557ffc8af01f449989052b52093a58fc9f42d0b11f0c6dd5dca0463dab62346ccc680180546001600160a01b0319166001600160a01b038416908117909155600090815261019560205260409020805460ff19168217905590915081908a9081111562000cf45762000cf462001e3e565b8b6001600160a01b0316826001600160a01b03167ff084ff67b6f43d67e4cc33ce386aceeff3a616731b0d86f1f387157ddf5fae178c8c8c60405162000d3d9392919062001f31565b60405180910390a494505050505062000d566001606555565b95945050505050565b62000d6962000ebf565b62000d885760405162461bcd60e51b8152600401620005189062001da7565b62000686620013b9565b600082815260fb6020526040812062000dac9083620013f9565b9392505050565b600091825260c9602090815260408084206001600160a01b0393909316845291905290205460ff1690565b62000de862000ebf565b62000e075760405162461bcd60e51b8152600401620005189062001da7565b6001600160a01b03811662000e745760405162461bcd60e51b815260206004820152602c60248201527f4e6f7465546f6b656e466163746f72793a206e6577206164647265737320636160448201526b6e6e6f74206265207a65726f60a01b606482015260840162000518565b61019480546001600160a01b0319166001600160a01b0383169081179091556040517f2e389d7053ad72bc8edbbcf9f9468103ffd9c07effc7a921c5da51ac9d8060fb90600090a250565b600062000eed7fb19546dff01e856fb3f010c267a7b1c60363cf8a4664e21cc89c26224620214e3362000db3565b8062000f01575062000f0160003362000db3565b905090565b600081815260fb602052604081206200048d9062001407565b600082815260c9602052604090206001015462000f3c81620010f8565b620004c88383620011aa565b62000f52620012b6565b600062000f5f81620010f8565b6001600160a01b0382166000908152610195602052604090205460ff1662000fd95760405162461bcd60e51b815260206004820152602660248201527f4e6f7465546f6b656e466163746f72793a20746f6b656e20646f6573206e6f7460448201526508195e1a5cdd60d21b606482015260840162000518565b6000829050806001600160a01b0316635c975abb6040518163ffffffff1660e01b8152600401602060405180830381865afa1580156200101d573d6000803e3d6000fd5b505050506040513d601f19601f8201168201806040525081019062001043919062001e1a565b156200108557806001600160a01b0316633f4ba83a6040518163ffffffff1660e01b8152600401600060405180830381600087803b1580156200058e57600080fd5b806001600160a01b0316638456cb596040518163ffffffff1660e01b8152600401600060405180830381600087803b1580156200058e57600080fd5b60006001600160e01b03198216637965db0b60e01b14806200048d57506301ffc9a760e01b6001600160e01b03198316146200048d565b62001104813362001412565b50565b61015f80546001600160a01b0319166001600160a01b0392909216919091179055565b600082815260c96020526040808220600101805490849055905190918391839186917fbd79b86ffe0ab8e8776151514217cd7cacd52c909f66475c3af44e129f0b00ff9190a4505050565b60006200048d82600062001476565b62001190828262001501565b600082815260fb60205260409020620004c890826200158b565b620011b68282620015a2565b600082815260fb60205260409020620004c890826200160c565b620011da62001623565b6033805460ff191690557f5db9ee0a495bf2e6ff9c91a7834c1ba4fdd244a5e8aa4e537bd38aeae4b073aa335b6040516001600160a01b03909116815260200160405180910390a1565b600054610100900460ff166200124e5760405162461bcd60e51b8152600401620005189062001f6a565b620012586200166e565b62001262620016a4565b6200126c620016ce565b6200110481620016f8565b600054610100900460ff16620012a15760405162461bcd60e51b8152600401620005189062001f6a565b620012ab620016ce565b620011048162001805565b60335460ff1615620006865760405162461bcd60e51b815260206004820152601060248201526f14185d5cd8589b194e881c185d5cd95960821b604482015260640162000518565b600260655403620013525760405162461bcd60e51b815260206004820152601f60248201527f5265656e7472616e637947756172643a207265656e7472616e742063616c6c00604482015260640162000518565b6002606555565b6001606555565b61015f54604051600091829185916001600160a01b0316908590620013859062001b8b565b620013939392919062001fb5565b604051809103906000f080158015620013b0573d6000803e3d6000fd5b50949350505050565b620013c3620012b6565b6033805460ff191660011790557f62e78cea01bee320cd4e420270b5ea74000d11b0c9f74754ebdbfc544b05a258620012073390565b600062000dac83836200182f565b60006200048d825490565b6200141e828262000db3565b620004ab576200142e816200185c565b6200143b8360206200186f565b6040516020016200144e92919062001fe3565b60408051601f198184030181529082905262461bcd60e51b825262000518916004016200205c565b6000826001600160a01b031663bcaa0c558360098111156200149c576200149c62001e3e565b6040516001600160e01b031960e084901b16815260ff9091166004820152602401602060405180830381865afa158015620014db573d6000803e3d6000fd5b505050506040513d601f19601f8201168201806040525081019062000dac919062002071565b6200150d828262000db3565b620004ab57600082815260c9602090815260408083206001600160a01b03851684529091529020805460ff19166001179055620015473390565b6001600160a01b0316816001600160a01b0316837f2f8788117e7eff1d82e926ec794901d17c78024a50270940304540a733656f0d60405160405180910390a45050565b600062000dac836001600160a01b03841662001a29565b620015ae828262000db3565b15620004ab57600082815260c9602090815260408083206001600160a01b0385168085529252808320805460ff1916905551339285917ff6391f5c32d9c69d2a47ea670b442974b53935d1edc7fd64eb21e047a839171b9190a45050565b600062000dac836001600160a01b03841662001a7b565b60335460ff16620006865760405162461bcd60e51b815260206004820152601460248201527314185d5cd8589b194e881b9bdd081c185d5cd95960621b604482015260640162000518565b600054610100900460ff16620016985760405162461bcd60e51b8152600401620005189062001f6a565b6033805460ff19169055565b600054610100900460ff16620013595760405162461bcd60e51b8152600401620005189062001f6a565b600054610100900460ff16620006865760405162461bcd60e51b8152600401620005189062001f6a565b600054610100900460ff16620017225760405162461bcd60e51b8152600401620005189062001f6a565b6001600160a01b038116620017345750335b6200174160003362001b7f565b6200176d7fb19546dff01e856fb3f010c267a7b1c60363cf8a4664e21cc89c26224620214e8262001b7f565b620017b97f59abfac6520ec36a6556b2a4dd949cc40007459bcd5cd2507f1e5cc77b6bc97e7fb19546dff01e856fb3f010c267a7b1c60363cf8a4664e21cc89c26224620214e6200112a565b620011047f21702c8af46127c7fa207f89d0b0a8441bb32959a0ac7df790e9ab1a25c989267f3e9c05fb0f9da4414e033bb9bf190a6e2072adf7e3077394fce683220513b8d76200112a565b600054610100900460ff16620011075760405162461bcd60e51b8152600401620005189062001f6a565b600082600001828154811062001849576200184962001e04565b9060005260206000200154905092915050565b60606200048d6001600160a01b03831660145b6060600062001880836002620020a7565b6200188d906002620020c1565b67ffffffffffffffff811115620018a857620018a8620020d7565b6040519080825280601f01601f191660200182016040528015620018d3576020820181803683370190505b509050600360fc1b81600081518110620018f157620018f162001e04565b60200101906001600160f81b031916908160001a905350600f60fb1b8160018151811062001923576200192362001e04565b60200101906001600160f81b031916908160001a905350600062001949846002620020a7565b62001956906001620020c1565b90505b6001811115620019d8576f181899199a1a9b1b9c1cb0b131b232b360811b85600f16601081106200198e576200198e62001e04565b1a60f81b828281518110620019a757620019a762001e04565b60200101906001600160f81b031916908160001a90535060049490941c93620019d081620020ed565b905062001959565b50831562000dac5760405162461bcd60e51b815260206004820181905260248201527f537472696e67733a20686578206c656e67746820696e73756666696369656e74604482015260640162000518565b600081815260018301602052604081205462001a72575081546001818101845560008481526020808220909301849055845484825282860190935260409020919091556200048d565b5060006200048d565b6000818152600183016020526040812054801562001b7457600062001aa260018362002107565b855490915060009062001ab89060019062002107565b905081811462001b2457600086600001828154811062001adc5762001adc62001e04565b906000526020600020015490508087600001848154811062001b025762001b0262001e04565b6000918252602080832090910192909255918252600188019052604090208390555b855486908062001b385762001b386200211d565b6001900381819060005260206000200160009055905585600101600086815260200190815260200160002060009055600193505050506200048d565b60009150506200048d565b620004ab828262001184565b610e3a806200213483390190565b60006020828403121562001bac57600080fd5b81356001600160e01b03198116811462000dac57600080fd5b6001600160a01b03811681146200110457600080fd5b60006020828403121562001bee57600080fd5b813562000dac8162001bc5565b6000806040838503121562001c0f57600080fd5b50508035926020909101359150565b60006020828403121562001c3157600080fd5b5035919050565b6000806040838503121562001c4c57600080fd5b823562001c598162001bc5565b9150602083013562001c6b8162001bc5565b809150509250929050565b6000806040838503121562001c8a57600080fd5b82359150602083013562001c6b8162001bc5565b60008060008060006080868803121562001cb757600080fd5b853562001cc48162001bc5565b945060208601356002811062001cd957600080fd5b9350604086013560ff8116811462001cf057600080fd5b9250606086013567ffffffffffffffff8082111562001d0e57600080fd5b818801915088601f83011262001d2357600080fd5b81358181111562001d3357600080fd5b89602082850101111562001d4657600080fd5b9699959850939650602001949392505050565b6020808252602e908201527f53656375726974697a6174696f6e506f6f6c3a204f6e6c79205365637572697460408201526d34bd30ba34b7b726b0b730b3b2b960911b606082015260800190565b6020808252603a908201527f556e74616e676c6564426173653a204d75737420686176652061646d696e207260408201527f6f6c6520746f20706572666f726d207468697320616374696f6e000000000000606082015260800190565b634e487b7160e01b600052603260045260246000fd5b60006020828403121562001e2d57600080fd5b8151801515811462000dac57600080fd5b634e487b7160e01b600052602160045260246000fd5b818382376317d4d3d560e21b9101908152600401919050565b818382376317d293d560e21b9101908152600401919050565b60005b8381101562001ea357818101518382015260200162001e89565b50506000910152565b6000815180845262001ec681602086016020860162001e86565b601f01601f19169290920160200192915050565b60a08152600062001eef60a083018862001eac565b828103602084015262001f03818862001eac565b60ff96871660408501526001600160a01b039590951660608401525050921660809092019190915292915050565b60ff8416815260406020820152816040820152818360608301376000818301606090810191909152601f909201601f1916010192915050565b6020808252602b908201527f496e697469616c697a61626c653a20636f6e7472616374206973206e6f74206960408201526a6e697469616c697a696e6760a81b606082015260800190565b6001600160a01b0384811682528316602082015260606040820181905260009062000d569083018462001eac565b7f416363657373436f6e74726f6c3a206163636f756e74200000000000000000008152600083516200201d81601785016020880162001e86565b7001034b99036b4b9b9b4b733903937b6329607d1b60179184019182015283516200205081602884016020880162001e86565b01602801949350505050565b60208152600062000dac602083018462001eac565b6000602082840312156200208457600080fd5b815162000dac8162001bc5565b634e487b7160e01b600052601160045260246000fd5b80820281158282048414176200048d576200048d62002091565b808201808211156200048d576200048d62002091565b634e487b7160e01b600052604160045260246000fd5b600081620020ff57620020ff62002091565b506000190190565b818103818111156200048d576200048d62002091565b634e487b7160e01b600052603160045260246000fdfe608060405260405162000e3a38038062000e3a833981016040819052620000269162000424565b828162000036828260006200004d565b50620000449050826200007f565b50505062000557565b6200005883620000f1565b600082511180620000665750805b156200007a5762000078838362000133565b505b505050565b7f7e644d79422f17c01e4894b5f4f588d331ebfa28653d42ae832dc59e38c9798f620000c160008051602062000df3833981519152546001600160a01b031690565b604080516001600160a01b03928316815291841660208301520160405180910390a1620000ee8162000162565b50565b620000fc8162000200565b6040516001600160a01b038216907fbc7cd75a20ee27fd9adebab32041f755214dbc6bffa90cc0225b39da2e5c2d3b90600090a250565b60606200015b838360405180606001604052806027815260200162000e136027913962000297565b9392505050565b6001600160a01b038116620001cd5760405162461bcd60e51b815260206004820152602660248201527f455243313936373a206e65772061646d696e20697320746865207a65726f206160448201526564647265737360d01b60648201526084015b60405180910390fd5b8060008051602062000df38339815191525b80546001600160a01b0319166001600160a01b039290921691909117905550565b6001600160a01b0381163b6200026f5760405162461bcd60e51b815260206004820152602d60248201527f455243313936373a206e657720696d706c656d656e746174696f6e206973206e60448201526c1bdd08184818dbdb9d1c9858dd609a1b6064820152608401620001c4565b807f360894a13ba1a3210667c828492db98dca3e2076cc3735a920a3ca505d382bbc620001df565b6060600080856001600160a01b031685604051620002b6919062000504565b600060405180830381855af49150503d8060008114620002f3576040519150601f19603f3d011682016040523d82523d6000602084013e620002f8565b606091505b5090925090506200030c8683838762000316565b9695505050505050565b606083156200038a57825160000362000382576001600160a01b0385163b620003825760405162461bcd60e51b815260206004820152601d60248201527f416464726573733a2063616c6c20746f206e6f6e2d636f6e74726163740000006044820152606401620001c4565b508162000396565b6200039683836200039e565b949350505050565b815115620003af5781518083602001fd5b8060405162461bcd60e51b8152600401620001c4919062000522565b80516001600160a01b0381168114620003e357600080fd5b919050565b634e487b7160e01b600052604160045260246000fd5b60005b838110156200041b57818101518382015260200162000401565b50506000910152565b6000806000606084860312156200043a57600080fd5b6200044584620003cb565b92506200045560208501620003cb565b60408501519092506001600160401b03808211156200047357600080fd5b818601915086601f8301126200048857600080fd5b8151818111156200049d576200049d620003e8565b604051601f8201601f19908116603f01168101908382118183101715620004c857620004c8620003e8565b81604052828152896020848701011115620004e257600080fd5b620004f5836020830160208801620003fe565b80955050505050509250925092565b6000825162000518818460208701620003fe565b9190910192915050565b602081526000825180602084015262000543816040850160208701620003fe565b601f01601f19169190910160400192915050565b61088c80620005676000396000f3fe60806040523661001357610011610017565b005b6100115b61001f610169565b6001600160a01b0316330361015f5760606001600160e01b0319600035166364d3180d60e11b810161005a5761005361019c565b9150610157565b63587086bd60e11b6001600160e01b031982160161007a576100536101f3565b63070d7c6960e41b6001600160e01b031982160161009a57610053610239565b621eb96f60e61b6001600160e01b03198216016100b95761005361026a565b63a39f25e560e01b6001600160e01b03198216016100d9576100536102aa565b60405162461bcd60e51b815260206004820152604260248201527f5472616e73706172656e745570677261646561626c6550726f78793a2061646d60448201527f696e2063616e6e6f742066616c6c6261636b20746f2070726f78792074617267606482015261195d60f21b608482015260a4015b60405180910390fd5b815160208301f35b6101676102be565b565b60007fb53127684a568b3173ae13b9f8a6016e243e63b6e8ee1178d6a717850b5d61035b546001600160a01b0316919050565b60606101a66102ce565b60006101b53660048184610683565b8101906101c291906106c9565b90506101df816040518060200160405280600081525060006102d9565b505060408051602081019091526000815290565b60606000806102053660048184610683565b81019061021291906106fa565b91509150610222828260016102d9565b604051806020016040528060008152509250505090565b60606102436102ce565b60006102523660048184610683565b81019061025f91906106c9565b90506101df81610305565b60606102746102ce565b600061027e610169565b604080516001600160a01b03831660208201529192500160405160208183030381529060405291505090565b60606102b46102ce565b600061027e61035c565b6101676102c961035c565b61036b565b341561016757600080fd5b6102e28361038f565b6000825111806102ef5750805b15610300576102fe83836103cf565b505b505050565b7f7e644d79422f17c01e4894b5f4f588d331ebfa28653d42ae832dc59e38c9798f61032e610169565b604080516001600160a01b03928316815291841660208301520160405180910390a1610359816103fb565b50565b60006103666104a4565b905090565b3660008037600080366000845af43d6000803e80801561038a573d6000f35b3d6000fd5b610398816104cc565b6040516001600160a01b038216907fbc7cd75a20ee27fd9adebab32041f755214dbc6bffa90cc0225b39da2e5c2d3b90600090a250565b60606103f4838360405180606001604052806027815260200161083060279139610560565b9392505050565b6001600160a01b0381166104605760405162461bcd60e51b815260206004820152602660248201527f455243313936373a206e65772061646d696e20697320746865207a65726f206160448201526564647265737360d01b606482015260840161014e565b807fb53127684a568b3173ae13b9f8a6016e243e63b6e8ee1178d6a717850b5d61035b80546001600160a01b0319166001600160a01b039290921691909117905550565b60007f360894a13ba1a3210667c828492db98dca3e2076cc3735a920a3ca505d382bbc61018d565b6001600160a01b0381163b6105395760405162461bcd60e51b815260206004820152602d60248201527f455243313936373a206e657720696d706c656d656e746174696f6e206973206e60448201526c1bdd08184818dbdb9d1c9858dd609a1b606482015260840161014e565b807f360894a13ba1a3210667c828492db98dca3e2076cc3735a920a3ca505d382bbc610483565b6060600080856001600160a01b03168560405161057d91906107e0565b600060405180830381855af49150503d80600081146105b8576040519150601f19603f3d011682016040523d82523d6000602084013e6105bd565b606091505b50915091506105ce868383876105d8565b9695505050505050565b60608315610647578251600003610640576001600160a01b0385163b6106405760405162461bcd60e51b815260206004820152601d60248201527f416464726573733a2063616c6c20746f206e6f6e2d636f6e7472616374000000604482015260640161014e565b5081610651565b6106518383610659565b949350505050565b8151156106695781518083602001fd5b8060405162461bcd60e51b815260040161014e91906107fc565b6000808585111561069357600080fd5b838611156106a057600080fd5b5050820193919092039150565b80356001600160a01b03811681146106c457600080fd5b919050565b6000602082840312156106db57600080fd5b6103f4826106ad565b634e487b7160e01b600052604160045260246000fd5b6000806040838503121561070d57600080fd5b610716836106ad565b9150602083013567ffffffffffffffff8082111561073357600080fd5b818501915085601f83011261074757600080fd5b813581811115610759576107596106e4565b604051601f8201601f19908116603f01168101908382118183101715610781576107816106e4565b8160405282815288602084870101111561079a57600080fd5b8260208601602083013760006020848301015280955050505050509250929050565b60005b838110156107d75781810151838201526020016107bf565b50506000910152565b600082516107f28184602087016107bc565b9190910192915050565b602081526000825180602084015261081b8160408501602087016107bc565b601f01601f1916919091016040019291505056fe416464726573733a206c6f772d6c6576656c2064656c65676174652063616c6c206661696c6564a26469706673582212203ee2f73ab410cffabdfe09f9ebcfce29461addacfddf586afaf2ba05c7d1b40864736f6c63430008130033b53127684a568b3173ae13b9f8a6016e243e63b6e8ee1178d6a717850b5d6103416464726573733a206c6f772d6c6576656c2064656c65676174652063616c6c206661696c6564a264697066735822122001343adc2e7cd9cf12026f20d0000a5ea5a7a2ac0ec3dc82e1f51798167be5be64736f6c63430008130033",
  "devdoc": {
    "events": {
      "Initialized(uint8)": {
        "details": "Triggered when the contract has been initialized or reinitialized."
      },
      "Paused(address)": {
        "details": "Emitted when the pause is triggered by `account`."
      },
      "RoleAdminChanged(bytes32,bytes32,bytes32)": {
        "details": "Emitted when `newAdminRole` is set as ``role``'s admin role, replacing `previousAdminRole` `DEFAULT_ADMIN_ROLE` is the starting admin for all roles, despite {RoleAdminChanged} not being emitted signaling this. _Available since v3.1._"
      },
      "RoleGranted(bytes32,address,address)": {
        "details": "Emitted when `account` is granted `role`. `sender` is the account that originated the contract call, an admin role bearer except when using {AccessControl-_setupRole}."
      },
      "RoleRevoked(bytes32,address,address)": {
        "details": "Emitted when `account` is revoked `role`. `sender` is the account that originated the contract call:   - if using `revokeRole`, it is the admin role bearer   - if using `renounceRole`, it is the role bearer (i.e. `account`)"
      },
      "Unpaused(address)": {
        "details": "Emitted when the pause is lifted by `account`."
      }
    },
    "kind": "dev",
    "methods": {
      "getRoleAdmin(bytes32)": {
        "details": "Returns the admin role that controls `role`. See {grantRole} and {revokeRole}. To change a role's admin, use {_setRoleAdmin}."
      },
      "getRoleMember(bytes32,uint256)": {
        "details": "Returns one of the accounts that have `role`. `index` must be a value between 0 and {getRoleMemberCount}, non-inclusive. Role bearers are not sorted in any particular way, and their ordering may change at any point. WARNING: When using {getRoleMember} and {getRoleMemberCount}, make sure you perform all queries on the same block. See the following https://forum.openzeppelin.com/t/iterating-over-elements-on-enumerableset-in-openzeppelin-contracts/2296[forum post] for more information."
      },
      "getRoleMemberCount(bytes32)": {
        "details": "Returns the number of accounts that have `role`. Can be used together with {getRoleMember} to enumerate all bearers of a role."
      },
      "grantRole(bytes32,address)": {
        "details": "Grants `role` to `account`. If `account` had not been already granted `role`, emits a {RoleGranted} event. Requirements: - the caller must have ``role``'s admin role. May emit a {RoleGranted} event."
      },
      "hasRole(bytes32,address)": {
        "details": "Returns `true` if `account` has been granted `role`."
      },
      "paused()": {
        "details": "Returns true if the contract is paused, and false otherwise."
      },
      "renounceRole(bytes32,address)": {
        "details": "Revokes `role` from the calling account. Roles are often managed via {grantRole} and {revokeRole}: this function's purpose is to provide a mechanism for accounts to lose their privileges if they are compromised (such as when a trusted device is misplaced). If the calling account had been revoked `role`, emits a {RoleRevoked} event. Requirements: - the caller must be `account`. May emit a {RoleRevoked} event."
      },
      "revokeRole(bytes32,address)": {
        "details": "Revokes `role` from `account`. If `account` had been granted `role`, emits a {RoleRevoked} event. Requirements: - the caller must have ``role``'s admin role. May emit a {RoleRevoked} event."
      },
      "supportsInterface(bytes4)": {
        "details": "See {IERC165-supportsInterface}."
      }
    },
    "version": 1
  },
  "userdoc": {
    "kind": "user",
    "methods": {},
    "version": 1
  },
  "storageLayout": {
    "storage": [
      {
        "astId": 759,
        "contract": "contracts/protocol/note-sale/fab/NoteTokenFactory.sol:NoteTokenFactory",
        "label": "_initialized",
        "offset": 0,
        "slot": "0",
        "type": "t_uint8"
      },
      {
        "astId": 762,
        "contract": "contracts/protocol/note-sale/fab/NoteTokenFactory.sol:NoteTokenFactory",
        "label": "_initializing",
        "offset": 1,
        "slot": "0",
        "type": "t_bool"
      },
      {
        "astId": 5888,
        "contract": "contracts/protocol/note-sale/fab/NoteTokenFactory.sol:NoteTokenFactory",
        "label": "__gap",
        "offset": 0,
        "slot": "1",
        "type": "t_array(t_uint256)50_storage"
      },
      {
        "astId": 942,
        "contract": "contracts/protocol/note-sale/fab/NoteTokenFactory.sol:NoteTokenFactory",
        "label": "_paused",
        "offset": 0,
        "slot": "51",
        "type": "t_bool"
      },
      {
        "astId": 1047,
        "contract": "contracts/protocol/note-sale/fab/NoteTokenFactory.sol:NoteTokenFactory",
        "label": "__gap",
        "offset": 0,
        "slot": "52",
        "type": "t_array(t_uint256)49_storage"
      },
      {
        "astId": 1062,
        "contract": "contracts/protocol/note-sale/fab/NoteTokenFactory.sol:NoteTokenFactory",
        "label": "_status",
        "offset": 0,
        "slot": "101",
        "type": "t_uint256"
      },
      {
        "astId": 1131,
        "contract": "contracts/protocol/note-sale/fab/NoteTokenFactory.sol:NoteTokenFactory",
        "label": "__gap",
        "offset": 0,
        "slot": "102",
        "type": "t_array(t_uint256)49_storage"
      },
      {
        "astId": 7178,
        "contract": "contracts/protocol/note-sale/fab/NoteTokenFactory.sol:NoteTokenFactory",
        "label": "__gap",
        "offset": 0,
        "slot": "151",
        "type": "t_array(t_uint256)50_storage"
      },
      {
        "astId": 184,
        "contract": "contracts/protocol/note-sale/fab/NoteTokenFactory.sol:NoteTokenFactory",
        "label": "_roles",
        "offset": 0,
        "slot": "201",
        "type": "t_mapping(t_bytes32,t_struct(RoleData)179_storage)"
      },
      {
        "astId": 479,
        "contract": "contracts/protocol/note-sale/fab/NoteTokenFactory.sol:NoteTokenFactory",
        "label": "__gap",
        "offset": 0,
        "slot": "202",
        "type": "t_array(t_uint256)49_storage"
      },
      {
        "astId": 33,
        "contract": "contracts/protocol/note-sale/fab/NoteTokenFactory.sol:NoteTokenFactory",
        "label": "_roleMembers",
        "offset": 0,
        "slot": "251",
        "type": "t_mapping(t_bytes32,t_struct(AddressSet)8488_storage)"
      },
      {
        "astId": 143,
        "contract": "contracts/protocol/note-sale/fab/NoteTokenFactory.sol:NoteTokenFactory",
        "label": "__gap",
        "offset": 0,
        "slot": "252",
        "type": "t_array(t_uint256)49_storage"
      },
      {
        "astId": 12581,
        "contract": "contracts/protocol/note-sale/fab/NoteTokenFactory.sol:NoteTokenFactory",
        "label": "__gap",
        "offset": 0,
        "slot": "301",
        "type": "t_array(t_uint256)50_storage"
      },
      {
        "astId": 12231,
        "contract": "contracts/protocol/note-sale/fab/NoteTokenFactory.sol:NoteTokenFactory",
        "label": "factoryAdmin",
        "offset": 0,
        "slot": "351",
        "type": "t_address"
      },
      {
        "astId": 12310,
        "contract": "contracts/protocol/note-sale/fab/NoteTokenFactory.sol:NoteTokenFactory",
        "label": "__gap",
        "offset": 0,
        "slot": "352",
        "type": "t_array(t_uint256)50_storage"
      },
      {
        "astId": 25056,
        "contract": "contracts/protocol/note-sale/fab/NoteTokenFactory.sol:NoteTokenFactory",
        "label": "registry",
        "offset": 0,
        "slot": "402",
        "type": "t_contract(Registry)31043"
      },
      {
        "astId": 25061,
        "contract": "contracts/protocol/note-sale/fab/NoteTokenFactory.sol:NoteTokenFactory",
        "label": "tokens",
        "offset": 0,
        "slot": "403",
        "type": "t_array(t_contract(INoteToken)13425)dyn_storage"
      },
      {
        "astId": 25064,
        "contract": "contracts/protocol/note-sale/fab/NoteTokenFactory.sol:NoteTokenFactory",
        "label": "noteTokenImplementation",
        "offset": 0,
        "slot": "404",
        "type": "t_address"
      },
      {
        "astId": 25069,
        "contract": "contracts/protocol/note-sale/fab/NoteTokenFactory.sol:NoteTokenFactory",
        "label": "isExistingTokens",
        "offset": 0,
        "slot": "405",
        "type": "t_mapping(t_address,t_bool)"
      }
    ],
    "types": {
      "t_address": {
        "encoding": "inplace",
        "label": "address",
        "numberOfBytes": "20"
      },
      "t_array(t_bytes32)dyn_storage": {
        "base": "t_bytes32",
        "encoding": "dynamic_array",
        "label": "bytes32[]",
        "numberOfBytes": "32"
      },
      "t_array(t_contract(INoteToken)13425)dyn_storage": {
        "base": "t_contract(INoteToken)13425",
        "encoding": "dynamic_array",
        "label": "contract INoteToken[]",
        "numberOfBytes": "32"
      },
      "t_array(t_uint256)49_storage": {
        "base": "t_uint256",
        "encoding": "inplace",
        "label": "uint256[49]",
        "numberOfBytes": "1568"
      },
      "t_array(t_uint256)50_storage": {
        "base": "t_uint256",
        "encoding": "inplace",
        "label": "uint256[50]",
        "numberOfBytes": "1600"
      },
      "t_bool": {
        "encoding": "inplace",
        "label": "bool",
        "numberOfBytes": "1"
      },
      "t_bytes32": {
        "encoding": "inplace",
        "label": "bytes32",
        "numberOfBytes": "32"
      },
      "t_contract(INoteToken)13425": {
        "encoding": "inplace",
        "label": "contract INoteToken",
        "numberOfBytes": "20"
      },
      "t_contract(Registry)31043": {
        "encoding": "inplace",
        "label": "contract Registry",
        "numberOfBytes": "20"
      },
      "t_mapping(t_address,t_bool)": {
        "encoding": "mapping",
        "key": "t_address",
        "label": "mapping(address => bool)",
        "numberOfBytes": "32",
        "value": "t_bool"
      },
      "t_mapping(t_bytes32,t_struct(AddressSet)8488_storage)": {
        "encoding": "mapping",
        "key": "t_bytes32",
        "label": "mapping(bytes32 => struct EnumerableSetUpgradeable.AddressSet)",
        "numberOfBytes": "32",
        "value": "t_struct(AddressSet)8488_storage"
      },
      "t_mapping(t_bytes32,t_struct(RoleData)179_storage)": {
        "encoding": "mapping",
        "key": "t_bytes32",
        "label": "mapping(bytes32 => struct AccessControlUpgradeable.RoleData)",
        "numberOfBytes": "32",
        "value": "t_struct(RoleData)179_storage"
      },
      "t_mapping(t_bytes32,t_uint256)": {
        "encoding": "mapping",
        "key": "t_bytes32",
        "label": "mapping(bytes32 => uint256)",
        "numberOfBytes": "32",
        "value": "t_uint256"
      },
      "t_struct(AddressSet)8488_storage": {
        "encoding": "inplace",
        "label": "struct EnumerableSetUpgradeable.AddressSet",
        "members": [
          {
            "astId": 8487,
            "contract": "contracts/protocol/note-sale/fab/NoteTokenFactory.sol:NoteTokenFactory",
            "label": "_inner",
            "offset": 0,
            "slot": "0",
            "type": "t_struct(Set)8173_storage"
          }
        ],
        "numberOfBytes": "64"
      },
      "t_struct(RoleData)179_storage": {
        "encoding": "inplace",
        "label": "struct AccessControlUpgradeable.RoleData",
        "members": [
          {
            "astId": 176,
            "contract": "contracts/protocol/note-sale/fab/NoteTokenFactory.sol:NoteTokenFactory",
            "label": "members",
            "offset": 0,
            "slot": "0",
            "type": "t_mapping(t_address,t_bool)"
          },
          {
            "astId": 178,
            "contract": "contracts/protocol/note-sale/fab/NoteTokenFactory.sol:NoteTokenFactory",
            "label": "adminRole",
            "offset": 0,
            "slot": "1",
            "type": "t_bytes32"
          }
        ],
        "numberOfBytes": "64"
      },
      "t_struct(Set)8173_storage": {
        "encoding": "inplace",
        "label": "struct EnumerableSetUpgradeable.Set",
        "members": [
          {
            "astId": 8168,
            "contract": "contracts/protocol/note-sale/fab/NoteTokenFactory.sol:NoteTokenFactory",
            "label": "_values",
            "offset": 0,
            "slot": "0",
            "type": "t_array(t_bytes32)dyn_storage"
          },
          {
            "astId": 8172,
            "contract": "contracts/protocol/note-sale/fab/NoteTokenFactory.sol:NoteTokenFactory",
            "label": "_indexes",
            "offset": 0,
            "slot": "1",
            "type": "t_mapping(t_bytes32,t_uint256)"
          }
        ],
        "numberOfBytes": "64"
      },
      "t_uint256": {
        "encoding": "inplace",
        "label": "uint256",
        "numberOfBytes": "32"
      },
      "t_uint8": {
        "encoding": "inplace",
        "label": "uint8",
        "numberOfBytes": "1"
      }
    }
  }
}