{
  "address": "0x063e63cAce71114B37e1DDEB5573d42579d4aB01",
  "abi": [
    {
      "inputs": [
        {
          "internalType": "uint256",
          "name": "_nav",
          "type": "uint256"
        },
        {
          "internalType": "uint256",
          "name": "_reserve",
          "type": "uint256"
        },
        {
          "internalType": "uint256",
          "name": "_seniorAsset",
          "type": "uint256"
        }
      ],
      "name": "_rebase",
      "outputs": [
        {
          "internalType": "uint256",
          "name": "",
          "type": "uint256"
        },
        {
          "internalType": "uint256",
          "name": "",
          "type": "uint256"
        }
      ],
      "stateMutability": "pure",
      "type": "function"
    },
    {
      "inputs": [
        {
          "internalType": "uint256",
          "name": "_seniorDebt",
          "type": "uint256"
        },
        {
          "internalType": "uint256",
          "name": "_seniorBalance",
          "type": "uint256"
        }
      ],
      "name": "calcExpectedSeniorAsset",
      "outputs": [
        {
          "internalType": "uint256",
          "name": "seniorAsset",
          "type": "uint256"
        }
      ],
      "stateMutability": "pure",
      "type": "function"
    },
    {
      "inputs": [
        {
          "internalType": "uint256",
          "name": "_seniorRedeem",
          "type": "uint256"
        },
        {
          "internalType": "uint256",
          "name": "_seniorSupply",
          "type": "uint256"
        },
        {
          "internalType": "uint256",
          "name": "_seniorBalance",
          "type": "uint256"
        },
        {
          "internalType": "uint256",
          "name": "_seniorDebt",
          "type": "uint256"
        }
      ],
      "name": "calcExpectedSeniorAsset",
      "outputs": [
        {
          "internalType": "uint256",
          "name": "expectedSeniorAsset",
          "type": "uint256"
        }
      ],
      "stateMutability": "pure",
      "type": "function"
    },
    {
      "inputs": [
        {
          "internalType": "uint256",
          "name": "_nav",
          "type": "uint256"
        },
        {
          "internalType": "uint256",
          "name": "_reserve",
          "type": "uint256"
        },
        {
          "internalType": "uint256",
          "name": "_seniorDebt",
          "type": "uint256"
        },
        {
          "internalType": "uint256",
          "name": "_seniorBalance",
          "type": "uint256"
        }
      ],
      "name": "calcJuniorRatio",
      "outputs": [
        {
          "internalType": "uint256",
          "name": "juniorRatio_",
          "type": "uint256"
        }
      ],
      "stateMutability": "pure",
      "type": "function"
    },
    {
      "inputs": [
        {
          "internalType": "uint256",
          "name": "_nav",
          "type": "uint256"
        },
        {
          "internalType": "uint256",
          "name": "_reserve",
          "type": "uint256"
        },
        {
          "internalType": "uint256",
          "name": "_seniorDebt",
          "type": "uint256"
        },
        {
          "internalType": "uint256",
          "name": "_seniorBalance",
          "type": "uint256"
        },
        {
          "internalType": "uint256",
          "name": "_jotTotalSupply",
          "type": "uint256"
        }
      ],
      "name": "calcJuniorTokenPrice",
      "outputs": [
        {
          "internalType": "uint256",
          "name": "juniorTokenPrice",
          "type": "uint256"
        }
      ],
      "stateMutability": "pure",
      "type": "function"
    },
    {
      "inputs": [
        {
          "internalType": "uint256",
          "name": "seniorAsset",
          "type": "uint256"
        },
        {
          "internalType": "uint256",
          "name": "nav",
          "type": "uint256"
        },
        {
          "internalType": "uint256",
          "name": "reserve",
          "type": "uint256"
        }
      ],
      "name": "calcSeniorRatio",
      "outputs": [
        {
          "internalType": "uint256",
          "name": "seniorRatio",
          "type": "uint256"
        }
      ],
      "stateMutability": "pure",
      "type": "function"
    },
    {
      "inputs": [
        {
          "internalType": "uint256",
          "name": "_nav",
          "type": "uint256"
        },
        {
          "internalType": "uint256",
          "name": "_reserve",
          "type": "uint256"
        },
        {
          "internalType": "uint256",
          "name": "_seniorDebt",
          "type": "uint256"
        },
        {
          "internalType": "uint256",
          "name": "_seniorBalance",
          "type": "uint256"
        },
        {
          "internalType": "uint256",
          "name": "_sotTotalSupply",
          "type": "uint256"
        }
      ],
      "name": "calcSeniorTokenPrice",
      "outputs": [
        {
          "internalType": "uint256",
          "name": "seniorTokenPrice",
          "type": "uint256"
        }
      ],
      "stateMutability": "pure",
      "type": "function"
    },
    {
      "inputs": [
        {
          "internalType": "uint256",
          "name": "_nav",
          "type": "uint256"
        },
        {
          "internalType": "uint256",
          "name": "_reserve",
          "type": "uint256"
        },
        {
          "internalType": "uint256",
          "name": "_seniorDebt",
          "type": "uint256"
        },
        {
          "internalType": "uint256",
          "name": "_seniorBalance",
          "type": "uint256"
        },
        {
          "internalType": "uint256",
          "name": "_jotTotalSupply",
          "type": "uint256"
        },
        {
          "internalType": "uint256",
          "name": "_sotTotalSupply",
          "type": "uint256"
        }
      ],
      "name": "calcTokenPrices",
      "outputs": [
        {
          "internalType": "uint256",
          "name": "juniorTokenPrice",
          "type": "uint256"
        },
        {
          "internalType": "uint256",
          "name": "seniorTokenPrice",
          "type": "uint256"
        }
      ],
      "stateMutability": "pure",
      "type": "function"
    }
  ],
  "transactionHash": "0x3bc9e3aaf4f5125f4b83b8fe02483a26e4d67a8a7649098b8d5745829ba91c9c",
  "args": [],
  "numDeployments": 2,
  "solcInputHash": "97e0272c87e65bccea37235cdd7847a9",
  "bytecode": "0x610a5b61003a600b82828239805160001a60731461002d57634e487b7160e01b600052600060045260246000fd5b30600052607381538281f3fe73000000000000000000000000000000000000000030146080604052600436106100be5760003560e01c80637c58e7ae1161007b5780637c58e7ae1461016c578063937e8cbf1461017f5780639a1140b9146101925780639e53aeed146101a5578063c1a5db1c146101c5578063ec846eee146101e557600080fd5b806314835b33146100c357806328774cad146100f05780632fb86262146101035780633e39cbb2146101255780635a14afa31461014657806362ee1eb714610159575b600080fd5b6100d66100d1366004610899565b6101f8565b604080519283526020830191909152015b60405180910390f35b6100d66100fe3660046108c5565b610266565b81801561010f57600080fd5b5061012361011e366004610908565b610292565b005b610138610133366004610899565b6102c6565b6040519081526020016100e7565b610138610154366004610943565b6102fc565b610138610167366004610908565b610311565b61013861017a366004610908565b61032c565b61013861018d366004610965565b61033b565b6101386101a0366004610997565b610408565b8180156101b157600080fd5b506101386101c0366004610997565b610492565b8180156101d157600080fd5b506101236101e0366004610899565b6104cc565b6101386101f3366004610965565b6104fc565b60008060006102088487876102c6565b9050676765c793fa10079d601b1b81111561022b5750676765c793fa10079d601b1b5b600080610238888461051a565b90508581111561024d5750600090508461025a565b610257868261053c565b91505b97909650945050505050565b6000806102768888888888610591565b6102838989898988610610565b91509150965096945050505050565b6000806102ad86866100d186888c602301546101f38e610492565b6022890191909155602390970196909655505050505050565b6000806102d38484610672565b9050806000036102e75760009150506102f5565b6102f185826106c2565b9150505b9392505050565b60006103088383610672565b90505b92915050565b60006103208686868686610610565b90505b95945050505050565b60006103208686868686610591565b6000806103488484610672565b905060006103568787610672565b905081158015610364575080155b1561037457600092505050610400565b811580156103825750600081115b1561039d5761039461271060646109c6565b92505050610400565b808211156103b057600092505050610400565b676765c793fa10079d601b1b6103c961271060646109c6565b6103e7676765c793fa10079d601b1b6103e286866106c2565b61053c565b6103f191906109c6565b6103fb91906109dd565b925050505b949350505050565b602481015460009067ffffffffffffffff1642811161048957600061043061271060646109c6565b61043e906301e133806109c6565b676765c793fa10079d601b1b85600b015461045991906109c6565b61046391906109dd565b61047890676765c793fa10079d601b1b6109ff565b90506104008460220154828461072f565b50506022015490565b60008061049e83610408565b602284018190556024909301805467ffffffffffffffff19164267ffffffffffffffff161790555090919050565b6000806104e584846100d188602301546101548a610492565b602287019190915560239095019490945550505050565b600061032361051461050e8486610672565b86610672565b8661053c565b6000676765c793fa10079d601b1b610532848461074f565b61030891906109dd565b6000826105498382610a12565b915081111561030b5760405162461bcd60e51b815260206004820152600f60248201526e1cd859994b5cdd588b59985a5b1959608a1b60448201526064015b60405180910390fd5b60008515801561059f575084155b806105ab575060028211155b156105c25750676765c793fa10079d601b1b610323565b60006105ce8787610672565b905060006105dc86866102fc565b9050808210156105f157600092505050610323565b6106046105fe838361053c565b856106c2565b98975050505050505050565b60008515801561061e575084155b8061062a575060028211155b156106415750676765c793fa10079d601b1b610323565b600061064d8787610672565b9050600061065b86866102fc565b9050808210156106685750805b61060481856106c2565b60008261067f83826109ff565b915081101561030b5760405162461bcd60e51b815260206004820152600f60248201526e1cd859994b5859190b59985a5b1959608a1b6044820152606401610588565b60008082116107065760405162461bcd60e51b815260206004820152601060248201526f6469766973696f6e206279207a65726f60801b6044820152606401610588565b8161053261071f85676765c793fa10079d601b1b61074f565b61072a6002866109dd565b610672565b600081421061074757610744848484426107b1565b93505b509192915050565b60008115806107735750828261076581836109c6565b925061077190836109dd565b145b61030b5760405162461bcd60e51b815260206004820152600f60248201526e1cd859994b5b5d5b0b59985a5b1959608a1b6044820152606401610588565b60006103236107d5856107c48686610a12565b676765c793fa10079d601b1b6107db565b8661051a565b600083801561087b576001841680156107f6578592506107fa565b8392505b50600283046002850494505b841561087557858602868782041461081d57600080fd5b8181018181101561082d57600080fd5b859004965050600185161561086a57858302838782041415871515161561085357600080fd5b8181018181101561086357600080fd5b8590049350505b600285049450610806565b50610891565b83801561088b576000925061088f565b8392505b505b509392505050565b6000806000606084860312156108ae57600080fd5b505081359360208301359350604090920135919050565b60008060008060008060c087890312156108de57600080fd5b505084359660208601359650604086013595606081013595506080810135945060a0013592509050565b600080600080600060a0868803121561092057600080fd5b505083359560208501359550604085013594606081013594506080013592509050565b6000806040838503121561095657600080fd5b50508035926020909101359150565b6000806000806080858703121561097b57600080fd5b5050823594602084013594506040840135936060013592509050565b6000602082840312156109a957600080fd5b5035919050565b634e487b7160e01b600052601160045260246000fd5b808202811582820484141761030b5761030b6109b0565b6000826109fa57634e487b7160e01b600052601260045260246000fd5b500490565b8082018082111561030b5761030b6109b0565b8181038181111561030b5761030b6109b056fea264697066735822122082b0e2e7abae40e1c5df551d9987a61f12a319feab7850103c0798f9922a8cac64736f6c63430008130033",
  "devdoc": {
    "author": "Untangled Team",
    "kind": "dev",
    "methods": {
      "_rebase(uint256,uint256,uint256)": {
        "params": {
          "_seniorAsset": "the expected senior asset value (senior debt + senior balance)"
        }
      },
      "calcExpectedSeniorAsset(uint256,uint256)": {
        "params": {
          "_seniorBalance": "the current senior balance",
          "_seniorDebt": "the current senior debt"
        },
        "returns": {
          "seniorAsset": "returns the senior asset value"
        }
      },
      "calcExpectedSeniorAsset(uint256,uint256,uint256,uint256)": {
        "params": {
          "_seniorBalance": "the current senior balance",
          "_seniorDebt": "the current senior debt",
          "_seniorRedeem": "the senior redeem amount",
          "_seniorSupply": "the senior supply amount"
        },
        "returns": {
          "expectedSeniorAsset": "the expected senior asset value"
        }
      },
      "calcJuniorRatio(uint256,uint256,uint256,uint256)": {
        "returns": {
          "juniorRatio_": "is denominated in RATE_SCALING_FACTOR"
        }
      },
      "calcJuniorTokenPrice(uint256,uint256,uint256,uint256,uint256)": {
        "returns": {
          "juniorTokenPrice": "the junior token price in RAY decimal (10^27)"
        }
      },
      "calcSeniorRatio(uint256,uint256,uint256)": {
        "params": {
          "nav": "the current NAV",
          "reserve": "the current reserve",
          "seniorAsset": "the current senior asset value"
        },
        "returns": {
          "seniorRatio": "the senior ratio"
        }
      },
      "calcSeniorTokenPrice(uint256,uint256,uint256,uint256,uint256)": {
        "returns": {
          "seniorTokenPrice": "the senior token price in RAY decimal (10^27)"
        }
      },
      "calcTokenPrices(uint256,uint256,uint256,uint256,uint256,uint256)": {
        "returns": {
          "juniorTokenPrice": "the junior token price in RAY decimal (10^27)",
          "seniorTokenPrice": "the senior token price in RAY decimal (10^27)"
        }
      },
      "changeSeniorAsset(DataTypes.Storage storage,uint256,uint256,uint256,uint256)": {
        "params": {
          "_seniorRedeem": "senior redeem amount",
          "_seniorSupply": "senior supply amount"
        }
      },
      "dripSeniorDebt(DataTypes.Storage storage)": {
        "returns": {
          "_0": "_seniorDebt the senior debt"
        }
      },
      "seniorDebt(DataTypes.Storage storage)": {
        "returns": {
          "_seniorDebt": "senior debt"
        }
      }
    },
    "title": "Untangled's Rebase Logic",
    "version": 1
  },
  "userdoc": {
    "kind": "user",
    "methods": {
      "_rebase(uint256,uint256,uint256)": {
        "notice": "internal function for the rebalance of senior debt and balance"
      },
      "calcExpectedSeniorAsset(uint256,uint256)": {
        "notice": "calculates the expected Senior asset value"
      },
      "calcExpectedSeniorAsset(uint256,uint256,uint256,uint256)": {
        "notice": "expected senior return if no losses occur"
      },
      "calcJuniorRatio(uint256,uint256,uint256,uint256)": {
        "notice": "returns the current junior ratio protection in the Tinlake"
      },
      "calcJuniorTokenPrice(uint256,uint256,uint256,uint256,uint256)": {
        "notice": "calculates the junior token price"
      },
      "calcSeniorRatio(uint256,uint256,uint256)": {
        "notice": "calculates the senior ratio"
      },
      "calcSeniorTokenPrice(uint256,uint256,uint256,uint256,uint256)": {
        "notice": "calculates the senior token price"
      },
      "calcTokenPrices(uint256,uint256,uint256,uint256,uint256,uint256)": {
        "notice": "calculates the senior and junior token price based on current NAV and reserve"
      },
      "changeSeniorAsset(DataTypes.Storage storage,uint256,uint256,uint256,uint256)": {
        "notice": "changes the senior asset value based on new supply or redeems"
      },
      "dripSeniorDebt(DataTypes.Storage storage)": {
        "notice": "accumulates the senior interest"
      },
      "seniorDebt(DataTypes.Storage storage)": {
        "notice": "returns the senior debt with up to date interest"
      }
    },
    "notice": "Provides pool's rebase functions",
    "version": 1
  },
  "storageLayout": {
    "storage": [],
    "types": null
  }
}