{
  "address": "0x2d6c61a0c1D550e1bfEc17c3BF77Fec61381F227",
  "abi": [
    {
      "anonymous": false,
      "inputs": [
        {
          "indexed": false,
          "internalType": "uint8",
          "name": "version",
          "type": "uint8"
        }
      ],
      "name": "Initialized",
      "type": "event"
    },
    {
      "anonymous": false,
      "inputs": [
        {
          "indexed": true,
          "internalType": "bytes32",
          "name": "role",
          "type": "bytes32"
        },
        {
          "indexed": true,
          "internalType": "bytes32",
          "name": "previousAdminRole",
          "type": "bytes32"
        },
        {
          "indexed": true,
          "internalType": "bytes32",
          "name": "newAdminRole",
          "type": "bytes32"
        }
      ],
      "name": "RoleAdminChanged",
      "type": "event"
    },
    {
      "anonymous": false,
      "inputs": [
        {
          "indexed": true,
          "internalType": "bytes32",
          "name": "role",
          "type": "bytes32"
        },
        {
          "indexed": true,
          "internalType": "address",
          "name": "account",
          "type": "address"
        },
        {
          "indexed": true,
          "internalType": "address",
          "name": "sender",
          "type": "address"
        }
      ],
      "name": "RoleGranted",
      "type": "event"
    },
    {
      "anonymous": false,
      "inputs": [
        {
          "indexed": true,
          "internalType": "bytes32",
          "name": "role",
          "type": "bytes32"
        },
        {
          "indexed": true,
          "internalType": "address",
          "name": "account",
          "type": "address"
        },
        {
          "indexed": true,
          "internalType": "address",
          "name": "sender",
          "type": "address"
        }
      ],
      "name": "RoleRevoked",
      "type": "event"
    },
    {
      "inputs": [],
      "name": "DEFAULT_ADMIN_ROLE",
      "outputs": [
        {
          "internalType": "bytes32",
          "name": "",
          "type": "bytes32"
        }
      ],
      "stateMutability": "view",
      "type": "function"
    },
    {
      "inputs": [],
      "name": "ID_TYPE_0",
      "outputs": [
        {
          "internalType": "uint256",
          "name": "",
          "type": "uint256"
        }
      ],
      "stateMutability": "view",
      "type": "function"
    },
    {
      "inputs": [],
      "name": "ID_TYPE_1",
      "outputs": [
        {
          "internalType": "uint256",
          "name": "",
          "type": "uint256"
        }
      ],
      "stateMutability": "view",
      "type": "function"
    },
    {
      "inputs": [],
      "name": "ID_TYPE_10",
      "outputs": [
        {
          "internalType": "uint256",
          "name": "",
          "type": "uint256"
        }
      ],
      "stateMutability": "view",
      "type": "function"
    },
    {
      "inputs": [],
      "name": "ID_TYPE_2",
      "outputs": [
        {
          "internalType": "uint256",
          "name": "",
          "type": "uint256"
        }
      ],
      "stateMutability": "view",
      "type": "function"
    },
    {
      "inputs": [],
      "name": "ID_TYPE_3",
      "outputs": [
        {
          "internalType": "uint256",
          "name": "",
          "type": "uint256"
        }
      ],
      "stateMutability": "view",
      "type": "function"
    },
    {
      "inputs": [],
      "name": "ID_TYPE_4",
      "outputs": [
        {
          "internalType": "uint256",
          "name": "",
          "type": "uint256"
        }
      ],
      "stateMutability": "view",
      "type": "function"
    },
    {
      "inputs": [],
      "name": "ID_TYPE_5",
      "outputs": [
        {
          "internalType": "uint256",
          "name": "",
          "type": "uint256"
        }
      ],
      "stateMutability": "view",
      "type": "function"
    },
    {
      "inputs": [],
      "name": "ID_TYPE_6",
      "outputs": [
        {
          "internalType": "uint256",
          "name": "",
          "type": "uint256"
        }
      ],
      "stateMutability": "view",
      "type": "function"
    },
    {
      "inputs": [],
      "name": "ID_TYPE_7",
      "outputs": [
        {
          "internalType": "uint256",
          "name": "",
          "type": "uint256"
        }
      ],
      "stateMutability": "view",
      "type": "function"
    },
    {
      "inputs": [],
      "name": "ID_TYPE_8",
      "outputs": [
        {
          "internalType": "uint256",
          "name": "",
          "type": "uint256"
        }
      ],
      "stateMutability": "view",
      "type": "function"
    },
    {
      "inputs": [],
      "name": "ID_TYPE_9",
      "outputs": [
        {
          "internalType": "uint256",
          "name": "",
          "type": "uint256"
        }
      ],
      "stateMutability": "view",
      "type": "function"
    },
    {
      "inputs": [],
      "name": "OWNER_ROLE",
      "outputs": [
        {
          "internalType": "bytes32",
          "name": "",
          "type": "bytes32"
        }
      ],
      "stateMutability": "view",
      "type": "function"
    },
    {
      "inputs": [],
      "name": "ZAPPER_ROLE",
      "outputs": [
        {
          "internalType": "bytes32",
          "name": "",
          "type": "bytes32"
        }
      ],
      "stateMutability": "view",
      "type": "function"
    },
    {
      "inputs": [
        {
          "internalType": "uint256",
          "name": "",
          "type": "uint256"
        }
      ],
      "name": "allIdTypes",
      "outputs": [
        {
          "internalType": "uint256",
          "name": "",
          "type": "uint256"
        }
      ],
      "stateMutability": "view",
      "type": "function"
    },
    {
      "inputs": [],
      "name": "getAllIdTypes",
      "outputs": [
        {
          "internalType": "uint256[]",
          "name": "",
          "type": "uint256[]"
        }
      ],
      "stateMutability": "view",
      "type": "function"
    },
    {
      "inputs": [
        {
          "internalType": "bytes32",
          "name": "role",
          "type": "bytes32"
        }
      ],
      "name": "getRoleAdmin",
      "outputs": [
        {
          "internalType": "bytes32",
          "name": "",
          "type": "bytes32"
        }
      ],
      "stateMutability": "view",
      "type": "function"
    },
    {
      "inputs": [
        {
          "internalType": "bytes32",
          "name": "role",
          "type": "bytes32"
        },
        {
          "internalType": "uint256",
          "name": "index",
          "type": "uint256"
        }
      ],
      "name": "getRoleMember",
      "outputs": [
        {
          "internalType": "address",
          "name": "",
          "type": "address"
        }
      ],
      "stateMutability": "view",
      "type": "function"
    },
    {
      "inputs": [
        {
          "internalType": "bytes32",
          "name": "role",
          "type": "bytes32"
        }
      ],
      "name": "getRoleMemberCount",
      "outputs": [
        {
          "internalType": "uint256",
          "name": "",
          "type": "uint256"
        }
      ],
      "stateMutability": "view",
      "type": "function"
    },
    {
      "inputs": [
        {
          "internalType": "address",
          "name": "account",
          "type": "address"
        }
      ],
      "name": "go",
      "outputs": [
        {
          "internalType": "bool",
          "name": "",
          "type": "bool"
        }
      ],
      "stateMutability": "view",
      "type": "function"
    },
    {
      "inputs": [
        {
          "internalType": "address",
          "name": "account",
          "type": "address"
        },
        {
          "internalType": "uint256[]",
          "name": "onlyIdTypes",
          "type": "uint256[]"
        }
      ],
      "name": "goOnlyIdTypes",
      "outputs": [
        {
          "internalType": "bool",
          "name": "",
          "type": "bool"
        }
      ],
      "stateMutability": "view",
      "type": "function"
    },
    {
      "inputs": [
        {
          "internalType": "bytes32",
          "name": "role",
          "type": "bytes32"
        },
        {
          "internalType": "address",
          "name": "account",
          "type": "address"
        }
      ],
      "name": "grantRole",
      "outputs": [],
      "stateMutability": "nonpayable",
      "type": "function"
    },
    {
      "inputs": [
        {
          "internalType": "bytes32",
          "name": "role",
          "type": "bytes32"
        },
        {
          "internalType": "address",
          "name": "account",
          "type": "address"
        }
      ],
      "name": "hasRole",
      "outputs": [
        {
          "internalType": "bool",
          "name": "",
          "type": "bool"
        }
      ],
      "stateMutability": "view",
      "type": "function"
    },
    {
      "inputs": [],
      "name": "initZapperRole",
      "outputs": [],
      "stateMutability": "nonpayable",
      "type": "function"
    },
    {
      "inputs": [
        {
          "internalType": "address",
          "name": "owner",
          "type": "address"
        },
        {
          "internalType": "contract IUniqueIdentity",
          "name": "_uniqueIdentity",
          "type": "address"
        }
      ],
      "name": "initialize",
      "outputs": [],
      "stateMutability": "nonpayable",
      "type": "function"
    },
    {
      "inputs": [],
      "name": "performUpgrade",
      "outputs": [],
      "stateMutability": "nonpayable",
      "type": "function"
    },
    {
      "inputs": [
        {
          "internalType": "bytes32",
          "name": "role",
          "type": "bytes32"
        },
        {
          "internalType": "address",
          "name": "account",
          "type": "address"
        }
      ],
      "name": "renounceRole",
      "outputs": [],
      "stateMutability": "nonpayable",
      "type": "function"
    },
    {
      "inputs": [
        {
          "internalType": "bytes32",
          "name": "role",
          "type": "bytes32"
        },
        {
          "internalType": "address",
          "name": "account",
          "type": "address"
        }
      ],
      "name": "revokeRole",
      "outputs": [],
      "stateMutability": "nonpayable",
      "type": "function"
    },
    {
      "inputs": [
        {
          "internalType": "bytes4",
          "name": "interfaceId",
          "type": "bytes4"
        }
      ],
      "name": "supportsInterface",
      "outputs": [
        {
          "internalType": "bool",
          "name": "",
          "type": "bool"
        }
      ],
      "stateMutability": "view",
      "type": "function"
    },
    {
      "inputs": [],
      "name": "uniqueIdentity",
      "outputs": [
        {
          "internalType": "contract IUniqueIdentity",
          "name": "",
          "type": "address"
        }
      ],
      "stateMutability": "view",
      "type": "function"
    }
  ],
  "transactionHash": "0xa5df423ddc6582fd5361bf9bdc70781a2af887abd33e2d80a63d2e14cc62b460",
  "args": [],
  "numDeployments": 1,
  "solcInputHash": "d0baee6f40bb1b66d70e754b821a78e1",
  "bytecode": "0x608060405234801561001057600080fd5b506115a4806100206000396000f3fe608060405234801561001057600080fd5b50600436106101da5760003560e01c80639010d07c11610104578063d547741f116100a2578063ec2e8a7511610071578063ec2e8a75146103a6578063f2b60781146103ae578063f66256bf146103c1578063fb285ed0146103d457600080fd5b8063d547741f1461036e578063ddd8f68714610381578063e57a2a5014610389578063e58378bb1461039157600080fd5b8063a217fddf116100de578063a217fddf14610336578063a4eca0c21461033e578063ca15c87314610353578063d00d472e1461036657600080fd5b80639010d07c146102f857806391d14854146103235780639b56d7881461033657600080fd5b806336568abe1161017c5780635344626a1161014b5780635344626a146102d8578063701d240a146102e0578063801dfa90146102e857806380f87802146102f057600080fd5b806336568abe14610283578063479e743c14610296578063485cc9551461029e5780634d4e3e0c146102b157600080fd5b8063248a9ca3116101b8578063248a9ca3146102305780632e82d895146102535780632f2ff15d1461025b5780633434e7491461027057600080fd5b806301ffc9a7146101df5780631484bddd146102075780631852f2001461021d575b600080fd5b6101f26101ed36600461112b565b6103dc565b60405190151581526020015b60405180910390f35b61020f600881565b6040519081526020016101fe565b6101f261022b366004611180565b610407565b61020f61023e366004611253565b60009081526065602052604090206001015490565b61020f600381565b61026e61026936600461126c565b61066a565b005b6101f261027e36600461129c565b610694565b61026e61029136600461126c565b6106a2565b61020f600581565b61026e6102ac3660046112b9565b610720565b61020f7fd624b04b6a86de88625cc0780256b85157c5a615db56d1357e0a97a30fde276781565b61020f600681565b61020f600181565b61020f600781565b61020f600281565b61030b6103063660046112e7565b61094b565b6040516001600160a01b0390911681526020016101fe565b6101f261033136600461126c565b61096a565b61020f600081565b610346610995565b6040516101fe9190611309565b61020f610361366004611253565b610a14565b61026e610a2b565b61026e61037c36600461126c565b610a9d565b61020f600a81565b61020f600981565b61020f60008051602061154f83398151915281565b61020f600481565b61020f6103bc366004611253565b610ac2565b60c95461030b906001600160a01b031681565b61026e610ad9565b60006001600160e01b03198216635a05180f60e01b1480610401575061040182610b45565b92915050565b60006001600160a01b0383166104645760405162461bcd60e51b815260206004820152601d60248201527f5a65726f2061646472657373206973206e6f7420676f2d6c697374656400000060448201526064015b60405180910390fd5b61048e7fd624b04b6a86de88625cc0780256b85157c5a615db56d1357e0a97a30fde27678461096a565b1561049b57506001610401565b60005b82518110156106605760008382815181106104bb576104bb61134d565b602090810291909101015160c954604051627eeac760e11b81526001600160a01b038881166004830152602482018490529293506000929091169062fdd58e90604401602060405180830381865afa15801561051b573d6000803e3d6000fd5b505050506040513d601f19601f8201168201806040525081019061053f9190611363565b905080156105535760019350505050610401565b60c954604051627eeac760e11b8152326004820152602481018490526000916001600160a01b03169062fdd58e90604401602060405180830381865afa1580156105a1573d6000803e3d6000fd5b505050506040513d601f19601f820116820180604052508101906105c59190611363565b9050801561064c5760c95460405163e985e9c560e01b81523260048201526001600160a01b0389811660248301529091169063e985e9c590604401602060405180830381865afa15801561061d573d6000803e3d6000fd5b505050506040513d601f19601f82011682018060405250810190610641919061137c565b945050505050610401565b50505080610659906113b4565b905061049e565b5060009392505050565b60008281526065602052604090206001015461068581610b7a565b61068f8383610b87565b505050565b60006104018261022b610995565b6001600160a01b03811633146107125760405162461bcd60e51b815260206004820152602f60248201527f416363657373436f6e74726f6c3a2063616e206f6e6c792072656e6f756e636560448201526e103937b632b9903337b91039b2b63360891b606482015260840161045b565b61071c8282610ba9565b5050565b600054610100900460ff16158080156107405750600054600160ff909116105b8061075a5750303b15801561075a575060005460ff166001145b6107bd5760405162461bcd60e51b815260206004820152602e60248201527f496e697469616c697a61626c653a20636f6e747261637420697320616c72656160448201526d191e481a5b9a5d1a585b1a5e995960921b606482015260840161045b565b6000805460ff1916600117905580156107e0576000805461ff0019166101001790555b6001600160a01b0383161580159061080057506001600160a01b03821615155b6108725760405162461bcd60e51b815260206004820152603d60248201527f4f776e657220616e6420636f6e66696720616e6420556e697175654964656e7460448201527f697479206164647265737365732063616e6e6f7420626520656d707479000000606482015260840161045b565b61087a610bcb565b61089260008051602061154f83398151915284610c36565b6108aa60008051602061154f83398151915280610c40565b6108e6600060ca55600160cb55600260cc55600360cd55600460ce55600560cf55600660d055600760d155600860d255600960d355600a60d455565b60c980546001600160a01b0319166001600160a01b038416179055801561068f576000805461ff0019169055604051600181527f7f26b83ff96e1f2b6a682f133852f6798a09c465da95921460cefb38474024989060200160405180910390a1505050565b60008281526097602052604081206109639083610c8b565b9392505050565b60009182526065602090815260408084206001600160a01b0393909316845291905290205460ff1690565b60408051600b808252610180820190925260609160009190602082016101608036833701905050905060005b8151811015610a0e5760ca81600b81106109dd576109dd61134d565b01548282815181106109f1576109f161134d565b602090810291909101015280610a06816113b4565b9150506109c1565b50919050565b600081815260976020526040812061040190610c97565b610a4360008051602061154f8339815191523361096a565b610a5f5760405162461bcd60e51b815260040161045b906113cd565b610a9b600060ca55600160cb55600260cc55600360cd55600460ce55600560cf55600660d055600760d155600860d255600960d355600a60d455565b565b600082815260656020526040902060010154610ab881610b7a565b61068f8383610ba9565b60ca81600b8110610ad257600080fd5b0154905081565b610af160008051602061154f8339815191523361096a565b610b0d5760405162461bcd60e51b815260040161045b906113cd565b610a9b7fd624b04b6a86de88625cc0780256b85157c5a615db56d1357e0a97a30fde276760008051602061154f833981519152610c40565b60006001600160e01b03198216637965db0b60e01b148061040157506301ffc9a760e01b6001600160e01b0319831614610401565b610b848133610ca1565b50565b610b918282610cfa565b600082815260976020526040902061068f9082610d80565b610bb38282610d95565b600082815260976020526040902061068f9082610dfc565b600054610100900460ff16610a9b5760405162461bcd60e51b815260206004820152602b60248201527f496e697469616c697a61626c653a20636f6e7472616374206973206e6f74206960448201526a6e697469616c697a696e6760a81b606482015260840161045b565b61071c8282610b87565b600082815260656020526040808220600101805490849055905190918391839186917fbd79b86ffe0ab8e8776151514217cd7cacd52c909f66475c3af44e129f0b00ff9190a4505050565b60006109638383610e11565b6000610401825490565b610cab828261096a565b61071c57610cb881610e3b565b610cc3836020610e4d565b604051602001610cd492919061143c565b60408051601f198184030181529082905262461bcd60e51b825261045b916004016114b1565b610d04828261096a565b61071c5760008281526065602090815260408083206001600160a01b03851684529091529020805460ff19166001179055610d3c3390565b6001600160a01b0316816001600160a01b0316837f2f8788117e7eff1d82e926ec794901d17c78024a50270940304540a733656f0d60405160405180910390a45050565b6000610963836001600160a01b038416610fe9565b610d9f828261096a565b1561071c5760008281526065602090815260408083206001600160a01b0385168085529252808320805460ff1916905551339285917ff6391f5c32d9c69d2a47ea670b442974b53935d1edc7fd64eb21e047a839171b9190a45050565b6000610963836001600160a01b038416611038565b6000826000018281548110610e2857610e2861134d565b9060005260206000200154905092915050565b60606104016001600160a01b03831660145b60606000610e5c8360026114e4565b610e679060026114fb565b67ffffffffffffffff811115610e7f57610e7f61116a565b6040519080825280601f01601f191660200182016040528015610ea9576020820181803683370190505b509050600360fc1b81600081518110610ec457610ec461134d565b60200101906001600160f81b031916908160001a905350600f60fb1b81600181518110610ef357610ef361134d565b60200101906001600160f81b031916908160001a9053506000610f178460026114e4565b610f229060016114fb565b90505b6001811115610f9a576f181899199a1a9b1b9c1cb0b131b232b360811b85600f1660108110610f5657610f5661134d565b1a60f81b828281518110610f6c57610f6c61134d565b60200101906001600160f81b031916908160001a90535060049490941c93610f938161150e565b9050610f25565b5083156109635760405162461bcd60e51b815260206004820181905260248201527f537472696e67733a20686578206c656e67746820696e73756666696369656e74604482015260640161045b565b600081815260018301602052604081205461103057508154600181810184556000848152602080822090930184905584548482528286019093526040902091909155610401565b506000610401565b6000818152600183016020526040812054801561112157600061105c600183611525565b855490915060009061107090600190611525565b90508181146110d55760008660000182815481106110905761109061134d565b90600052602060002001549050808760000184815481106110b3576110b361134d565b6000918252602080832090910192909255918252600188019052604090208390555b85548690806110e6576110e6611538565b600190038181906000526020600020016000905590558560010160008681526020019081526020016000206000905560019350505050610401565b6000915050610401565b60006020828403121561113d57600080fd5b81356001600160e01b03198116811461096357600080fd5b6001600160a01b0381168114610b8457600080fd5b634e487b7160e01b600052604160045260246000fd5b6000806040838503121561119357600080fd5b823561119e81611155565b915060208381013567ffffffffffffffff808211156111bc57600080fd5b818601915086601f8301126111d057600080fd5b8135818111156111e2576111e261116a565b8060051b604051601f19603f830116810181811085821117156112075761120761116a565b60405291825284820192508381018501918983111561122557600080fd5b938501935b828510156112435784358452938501939285019261122a565b8096505050505050509250929050565b60006020828403121561126557600080fd5b5035919050565b6000806040838503121561127f57600080fd5b82359150602083013561129181611155565b809150509250929050565b6000602082840312156112ae57600080fd5b813561096381611155565b600080604083850312156112cc57600080fd5b82356112d781611155565b9150602083013561129181611155565b600080604083850312156112fa57600080fd5b50508035926020909101359150565b6020808252825182820181905260009190848201906040850190845b8181101561134157835183529284019291840191600101611325565b50909695505050505050565b634e487b7160e01b600052603260045260246000fd5b60006020828403121561137557600080fd5b5051919050565b60006020828403121561138e57600080fd5b8151801515811461096357600080fd5b634e487b7160e01b600052601160045260246000fd5b6000600182016113c6576113c661139e565b5060010190565b6020808252602b908201527f4d75737420686176652061646d696e20726f6c6520746f20706572666f726d2060408201526a3a3434b99030b1ba34b7b760a91b606082015260800190565b60005b8381101561143357818101518382015260200161141b565b50506000910152565b7f416363657373436f6e74726f6c3a206163636f756e7420000000000000000000815260008351611474816017850160208801611418565b7001034b99036b4b9b9b4b733903937b6329607d1b60179184019182015283516114a5816028840160208801611418565b01602801949350505050565b60208152600082518060208401526114d0816040850160208701611418565b601f01601f19169190910160400192915050565b80820281158282048414176104015761040161139e565b808201808211156104015761040161139e565b60008161151d5761151d61139e565b506000190190565b818103818111156104015761040161139e565b634e487b7160e01b600052603160045260246000fdfeb19546dff01e856fb3f010c267a7b1c60363cf8a4664e21cc89c26224620214ea26469706673582212208802b6d3e8db63e8e190179ca11da08c2e9eb0367ebd3b39baf8a9d6d07ba03064736f6c63430008130033",
  "devdoc": {
    "author": "Untangled Team",
    "details": "Provides functions with UID",
    "events": {
      "Initialized(uint8)": {
        "details": "Triggered when the contract has been initialized or reinitialized."
      },
      "RoleAdminChanged(bytes32,bytes32,bytes32)": {
        "details": "Emitted when `newAdminRole` is set as ``role``'s admin role, replacing `previousAdminRole` `DEFAULT_ADMIN_ROLE` is the starting admin for all roles, despite {RoleAdminChanged} not being emitted signaling this. _Available since v3.1._"
      },
      "RoleGranted(bytes32,address,address)": {
        "details": "Emitted when `account` is granted `role`. `sender` is the account that originated the contract call, an admin role bearer except when using {AccessControl-_setupRole}."
      },
      "RoleRevoked(bytes32,address,address)": {
        "details": "Emitted when `account` is revoked `role`. `sender` is the account that originated the contract call:   - if using `revokeRole`, it is the admin role bearer   - if using `renounceRole`, it is the role bearer (i.e. `account`)"
      }
    },
    "kind": "dev",
    "methods": {
      "getRoleAdmin(bytes32)": {
        "details": "Returns the admin role that controls `role`. See {grantRole} and {revokeRole}. To change a role's admin, use {_setRoleAdmin}."
      },
      "getRoleMember(bytes32,uint256)": {
        "details": "Returns one of the accounts that have `role`. `index` must be a value between 0 and {getRoleMemberCount}, non-inclusive. Role bearers are not sorted in any particular way, and their ordering may change at any point. WARNING: When using {getRoleMember} and {getRoleMemberCount}, make sure you perform all queries on the same block. See the following https://forum.openzeppelin.com/t/iterating-over-elements-on-enumerableset-in-openzeppelin-contracts/2296[forum post] for more information."
      },
      "getRoleMemberCount(bytes32)": {
        "details": "Returns the number of accounts that have `role`. Can be used together with {getRoleMember} to enumerate all bearers of a role."
      },
      "go(address)": {
        "params": {
          "account": "The account whose go status to obtain"
        },
        "returns": {
          "_0": "The account's go status"
        }
      },
      "goOnlyIdTypes(address,uint256[])": {
        "details": "If tx.origin is 0x0 (e.g. in blockchain explorers such as Etherscan) this function will      throw an error if the account is not go listed.",
        "params": {
          "account": "The account whose go status to obtain",
          "onlyIdTypes": "Array of id types to check balances"
        },
        "returns": {
          "_0": "The account's go status"
        }
      },
      "grantRole(bytes32,address)": {
        "details": "Grants `role` to `account`. If `account` had not been already granted `role`, emits a {RoleGranted} event. Requirements: - the caller must have ``role``'s admin role. May emit a {RoleGranted} event."
      },
      "hasRole(bytes32,address)": {
        "details": "Returns `true` if `account` has been granted `role`."
      },
      "performUpgrade()": {
        "details": "Update allIdTypes values"
      },
      "renounceRole(bytes32,address)": {
        "details": "Revokes `role` from the calling account. Roles are often managed via {grantRole} and {revokeRole}: this function's purpose is to provide a mechanism for accounts to lose their privileges if they are compromised (such as when a trusted device is misplaced). If the calling account had been revoked `role`, emits a {RoleRevoked} event. Requirements: - the caller must be `account`. May emit a {RoleRevoked} event."
      },
      "revokeRole(bytes32,address)": {
        "details": "Revokes `role` from `account`. If `account` had been granted `role`, emits a {RoleRevoked} event. Requirements: - the caller must have ``role``'s admin role. May emit a {RoleRevoked} event."
      },
      "supportsInterface(bytes4)": {
        "details": "See {IERC165-supportsInterface}."
      }
    },
    "title": "Go",
    "version": 1
  },
  "userdoc": {
    "kind": "user",
    "methods": {
      "getAllIdTypes()": {
        "notice": "Returns a dynamic array of all UID types"
      },
      "go(address)": {
        "notice": "Returns whether the provided account is go-listed for any UID type"
      },
      "goOnlyIdTypes(address,uint256[])": {
        "notice": "Returns whether the provided account is: 1. go-listed for use of the Untangled protocol for any of the provided UID token types 2. is allowed to act on behalf of the go-listed EOA initiating this transaction Go-listed is defined as: whether `balanceOf(account, id)` on the UniqueIdentity contract is non-zero (where `id` is a supported token id on UniqueIdentity), falling back to the account's status on the legacy go-list."
      },
      "uniqueIdentity()": {
        "notice": "Returns the address of the UniqueIdentity contract."
      }
    },
    "version": 1
  },
  "storageLayout": {
    "storage": [
      {
        "astId": 759,
        "contract": "contracts/protocol/Go.sol:Go",
        "label": "_initialized",
        "offset": 0,
        "slot": "0",
        "type": "t_uint8"
      },
      {
        "astId": 762,
        "contract": "contracts/protocol/Go.sol:Go",
        "label": "_initializing",
        "offset": 1,
        "slot": "0",
        "type": "t_bool"
      },
      {
        "astId": 5888,
        "contract": "contracts/protocol/Go.sol:Go",
        "label": "__gap",
        "offset": 0,
        "slot": "1",
        "type": "t_array(t_uint256)50_storage"
      },
      {
        "astId": 7178,
        "contract": "contracts/protocol/Go.sol:Go",
        "label": "__gap",
        "offset": 0,
        "slot": "51",
        "type": "t_array(t_uint256)50_storage"
      },
      {
        "astId": 184,
        "contract": "contracts/protocol/Go.sol:Go",
        "label": "_roles",
        "offset": 0,
        "slot": "101",
        "type": "t_mapping(t_bytes32,t_struct(RoleData)179_storage)"
      },
      {
        "astId": 479,
        "contract": "contracts/protocol/Go.sol:Go",
        "label": "__gap",
        "offset": 0,
        "slot": "102",
        "type": "t_array(t_uint256)49_storage"
      },
      {
        "astId": 33,
        "contract": "contracts/protocol/Go.sol:Go",
        "label": "_roleMembers",
        "offset": 0,
        "slot": "151",
        "type": "t_mapping(t_bytes32,t_struct(AddressSet)8488_storage)"
      },
      {
        "astId": 143,
        "contract": "contracts/protocol/Go.sol:Go",
        "label": "__gap",
        "offset": 0,
        "slot": "152",
        "type": "t_array(t_uint256)49_storage"
      },
      {
        "astId": 20799,
        "contract": "contracts/protocol/Go.sol:Go",
        "label": "uniqueIdentity",
        "offset": 0,
        "slot": "201",
        "type": "t_contract(IUniqueIdentity)13415"
      },
      {
        "astId": 20803,
        "contract": "contracts/protocol/Go.sol:Go",
        "label": "allIdTypes",
        "offset": 0,
        "slot": "202",
        "type": "t_array(t_uint256)11_storage"
      }
    ],
    "types": {
      "t_address": {
        "encoding": "inplace",
        "label": "address",
        "numberOfBytes": "20"
      },
      "t_array(t_bytes32)dyn_storage": {
        "base": "t_bytes32",
        "encoding": "dynamic_array",
        "label": "bytes32[]",
        "numberOfBytes": "32"
      },
      "t_array(t_uint256)11_storage": {
        "base": "t_uint256",
        "encoding": "inplace",
        "label": "uint256[11]",
        "numberOfBytes": "352"
      },
      "t_array(t_uint256)49_storage": {
        "base": "t_uint256",
        "encoding": "inplace",
        "label": "uint256[49]",
        "numberOfBytes": "1568"
      },
      "t_array(t_uint256)50_storage": {
        "base": "t_uint256",
        "encoding": "inplace",
        "label": "uint256[50]",
        "numberOfBytes": "1600"
      },
      "t_bool": {
        "encoding": "inplace",
        "label": "bool",
        "numberOfBytes": "1"
      },
      "t_bytes32": {
        "encoding": "inplace",
        "label": "bytes32",
        "numberOfBytes": "32"
      },
      "t_contract(IUniqueIdentity)13415": {
        "encoding": "inplace",
        "label": "contract IUniqueIdentity",
        "numberOfBytes": "20"
      },
      "t_mapping(t_address,t_bool)": {
        "encoding": "mapping",
        "key": "t_address",
        "label": "mapping(address => bool)",
        "numberOfBytes": "32",
        "value": "t_bool"
      },
      "t_mapping(t_bytes32,t_struct(AddressSet)8488_storage)": {
        "encoding": "mapping",
        "key": "t_bytes32",
        "label": "mapping(bytes32 => struct EnumerableSetUpgradeable.AddressSet)",
        "numberOfBytes": "32",
        "value": "t_struct(AddressSet)8488_storage"
      },
      "t_mapping(t_bytes32,t_struct(RoleData)179_storage)": {
        "encoding": "mapping",
        "key": "t_bytes32",
        "label": "mapping(bytes32 => struct AccessControlUpgradeable.RoleData)",
        "numberOfBytes": "32",
        "value": "t_struct(RoleData)179_storage"
      },
      "t_mapping(t_bytes32,t_uint256)": {
        "encoding": "mapping",
        "key": "t_bytes32",
        "label": "mapping(bytes32 => uint256)",
        "numberOfBytes": "32",
        "value": "t_uint256"
      },
      "t_struct(AddressSet)8488_storage": {
        "encoding": "inplace",
        "label": "struct EnumerableSetUpgradeable.AddressSet",
        "members": [
          {
            "astId": 8487,
            "contract": "contracts/protocol/Go.sol:Go",
            "label": "_inner",
            "offset": 0,
            "slot": "0",
            "type": "t_struct(Set)8173_storage"
          }
        ],
        "numberOfBytes": "64"
      },
      "t_struct(RoleData)179_storage": {
        "encoding": "inplace",
        "label": "struct AccessControlUpgradeable.RoleData",
        "members": [
          {
            "astId": 176,
            "contract": "contracts/protocol/Go.sol:Go",
            "label": "members",
            "offset": 0,
            "slot": "0",
            "type": "t_mapping(t_address,t_bool)"
          },
          {
            "astId": 178,
            "contract": "contracts/protocol/Go.sol:Go",
            "label": "adminRole",
            "offset": 0,
            "slot": "1",
            "type": "t_bytes32"
          }
        ],
        "numberOfBytes": "64"
      },
      "t_struct(Set)8173_storage": {
        "encoding": "inplace",
        "label": "struct EnumerableSetUpgradeable.Set",
        "members": [
          {
            "astId": 8168,
            "contract": "contracts/protocol/Go.sol:Go",
            "label": "_values",
            "offset": 0,
            "slot": "0",
            "type": "t_array(t_bytes32)dyn_storage"
          },
          {
            "astId": 8172,
            "contract": "contracts/protocol/Go.sol:Go",
            "label": "_indexes",
            "offset": 0,
            "slot": "1",
            "type": "t_mapping(t_bytes32,t_uint256)"
          }
        ],
        "numberOfBytes": "64"
      },
      "t_uint256": {
        "encoding": "inplace",
        "label": "uint256",
        "numberOfBytes": "32"
      },
      "t_uint8": {
        "encoding": "inplace",
        "label": "uint8",
        "numberOfBytes": "1"
      }
    }
  }
}