{
  "address": "0x277539156BA936d620043ED28Fa0133d0E72E13E",
  "abi": [
    {
      "inputs": [],
      "stateMutability": "nonpayable",
      "type": "constructor"
    },
    {
      "anonymous": false,
      "inputs": [
        {
          "indexed": false,
          "internalType": "uint8",
          "name": "version",
          "type": "uint8"
        }
      ],
      "name": "Initialized",
      "type": "event"
    },
    {
      "anonymous": false,
      "inputs": [
        {
          "indexed": true,
          "internalType": "bytes32",
          "name": "role",
          "type": "bytes32"
        },
        {
          "indexed": true,
          "internalType": "address",
          "name": "account",
          "type": "address"
        },
        {
          "indexed": true,
          "internalType": "address",
          "name": "sender",
          "type": "address"
        }
      ],
      "name": "RoleGranted",
      "type": "event"
    },
    {
      "anonymous": false,
      "inputs": [
        {
          "indexed": false,
          "internalType": "address",
          "name": "registry",
          "type": "address"
        }
      ],
      "name": "UpdateRegistry",
      "type": "event"
    },
    {
      "stateMutability": "payable",
      "type": "fallback"
    },
    {
      "inputs": [
        {
          "internalType": "bytes4",
          "name": "",
          "type": "bytes4"
        }
      ],
      "name": "delegates",
      "outputs": [
        {
          "internalType": "address",
          "name": "",
          "type": "address"
        }
      ],
      "stateMutability": "view",
      "type": "function"
    },
    {
      "inputs": [
        {
          "internalType": "address",
          "name": "",
          "type": "address"
        },
        {
          "internalType": "uint256",
          "name": "",
          "type": "uint256"
        }
      ],
      "name": "extensionSignatures",
      "outputs": [
        {
          "internalType": "bytes4",
          "name": "",
          "type": "bytes4"
        }
      ],
      "stateMutability": "view",
      "type": "function"
    },
    {
      "inputs": [
        {
          "internalType": "uint256",
          "name": "",
          "type": "uint256"
        }
      ],
      "name": "extensions",
      "outputs": [
        {
          "internalType": "address",
          "name": "",
          "type": "address"
        }
      ],
      "stateMutability": "view",
      "type": "function"
    },
    {
      "inputs": [],
      "name": "extensionsLength",
      "outputs": [
        {
          "internalType": "uint256",
          "name": "",
          "type": "uint256"
        }
      ],
      "stateMutability": "view",
      "type": "function"
    },
    {
      "inputs": [
        {
          "internalType": "bytes32",
          "name": "role",
          "type": "bytes32"
        },
        {
          "internalType": "address",
          "name": "account",
          "type": "address"
        }
      ],
      "name": "hasPrivateRole",
      "outputs": [
        {
          "internalType": "bool",
          "name": "",
          "type": "bool"
        }
      ],
      "stateMutability": "view",
      "type": "function"
    },
    {
      "inputs": [
        {
          "internalType": "contract Registry",
          "name": "registry_",
          "type": "address"
        },
        {
          "internalType": "bytes",
          "name": "params",
          "type": "bytes"
        }
      ],
      "name": "initialize",
      "outputs": [],
      "stateMutability": "nonpayable",
      "type": "function"
    },
    {
      "inputs": [],
      "name": "original",
      "outputs": [
        {
          "internalType": "address",
          "name": "",
          "type": "address"
        }
      ],
      "stateMutability": "view",
      "type": "function"
    },
    {
      "inputs": [
        {
          "internalType": "address",
          "name": "ext",
          "type": "address"
        }
      ],
      "name": "registerExtension",
      "outputs": [],
      "stateMutability": "nonpayable",
      "type": "function"
    },
    {
      "inputs": [],
      "name": "registry",
      "outputs": [
        {
          "internalType": "contract Registry",
          "name": "",
          "type": "address"
        }
      ],
      "stateMutability": "view",
      "type": "function"
    },
    {
      "inputs": [
        {
          "internalType": "bytes4",
          "name": "interfaceId",
          "type": "bytes4"
        }
      ],
      "name": "supportsInterface",
      "outputs": [
        {
          "internalType": "bool",
          "name": "",
          "type": "bool"
        }
      ],
      "stateMutability": "view",
      "type": "function"
    },
    {
      "stateMutability": "payable",
      "type": "receive"
    }
  ],
  "transactionHash": "0x20b88304821294467cfc3e008aa290d807bbac609a7bc01206fe60aae7b86cff",
  "args": [],
  "numDeployments": 11,
  "solcInputHash": "3ddda2b0b9b4aca75f59a07a0994e6b3",
  "bytecode": "0x608060405234801561001057600080fd5b50603380546001600160a01b0319163017905561004d7fb19546dff01e856fb3f010c267a7b1c60363cf8a4664e21cc89c26224620214e33610052565b6100af565b6001600160a01b0381166000818152603760209081526040808320868452909152808220805460ff191660011790555133929185917f2f8788117e7eff1d82e926ec794901d17c78024a50270940304540a733656f0d9190a45050565b61141a806100be6000396000f3fe6080604052600436106100955760003560e01c8063a0a2daf011610059578063a0a2daf01461028d578063d1f57894146102c3578063db85d59c146102e3578063de420d7c14610303578063fc5b5c64146103235761009c565b806301ffc9a7146101aa5780630563aae5146101df57806346c715fa146101fd57806364c4a634146102355780637b103999146102785761009c565b3661009c57005b603354604051630a0a2daf60e41b8152600080356001600160e01b0319166004830152916001600160a01b03169063a0a2daf090602401602060405180830381865afa1580156100f0573d6000803e3d6000fd5b505050506040513d601f19601f820116820180604052508101906101149190610fab565b90506001600160a01b038116151561012b8261035c565b61013b60003560e01c6020610378565b60405160200161014c929190610fec565b604051602081830303815290604052906101825760405162461bcd60e51b81526004016101799190611089565b60405180910390fd5b5060405136600082376000803683855af43d806000843e8180156101a4578184f35b8184fd5b005b3480156101b657600080fd5b506101ca6101c53660046110b2565b61051b565b60405190151581526020015b60405180910390f35b3480156101eb57600080fd5b506034546040519081526020016101d6565b34801561020957600080fd5b5060335461021d906001600160a01b031681565b6040516001600160a01b0390911681526020016101d6565b34801561024157600080fd5b506101ca6102503660046110cf565b6001600160a01b03166000908152603760209081526040808320938352929052205460ff1690565b34801561028457600080fd5b5061021d61064d565b34801561029957600080fd5b5061021d6102a83660046110b2565b6035602052600090815260409020546001600160a01b031681565b3480156102cf57600080fd5b506101a86102de366004611146565b610680565b3480156102ef57600080fd5b5061021d6102fe3660046111ee565b610935565b34801561030f57600080fd5b506101a861031e366004611207565b61095f565b34801561032f57600080fd5b5061034361033e366004611224565b6109c5565b6040516001600160e01b031990911681526020016101d6565b60606103726001600160a01b0383166014610378565b92915050565b60606000610387836002611266565b61039290600261127d565b67ffffffffffffffff8111156103aa576103aa6110ff565b6040519080825280601f01601f1916602001820160405280156103d4576020820181803683370190505b509050600360fc1b816000815181106103ef576103ef611290565b60200101906001600160f81b031916908160001a905350600f60fb1b8160018151811061041e5761041e611290565b60200101906001600160f81b031916908160001a9053506000610442846002611266565b61044d90600161127d565b90505b60018111156104c5576f181899199a1a9b1b9c1cb0b131b232b360811b85600f166010811061048157610481611290565b1a60f81b82828151811061049757610497611290565b60200101906001600160f81b031916908160001a90535060049490941c936104be816112a6565b9050610450565b5083156105145760405162461bcd60e51b815260206004820181905260248201527f537472696e67733a20686578206c656e67746820696e73756666696369656e746044820152606401610179565b9392505050565b600080603360009054906101000a90046001600160a01b03166001600160a01b0316630563aae56040518163ffffffff1660e01b8152600401602060405180830381865afa158015610571573d6000803e3d6000fd5b505050506040513d601f19601f8201168201806040525081019061059591906112bd565b905060005b81811015610643576033546040516336e1756760e21b8152600481018390526106249186916001600160a01b039091169063db85d59c90602401602060405180830381865afa1580156105f1573d6000803e3d6000fd5b505050506040513d601f19601f820116820180604052508101906106159190610fab565b6001600160a01b031690610a0b565b15610633575060019392505050565b61063c816112d6565b905061059a565b5060009392505050565b60007f5f6bd0daaaf246715f06ec0ea7e99af4468b70381a38e1f10cb19776ed17ce005b546001600160a01b0316919050565b600054610100900460ff16158080156106a05750600054600160ff909116105b806106ba5750303b1580156106ba575060005460ff166001145b61071d5760405162461bcd60e51b815260206004820152602e60248201527f496e697469616c697a61626c653a20636f6e747261637420697320616c72656160448201526d191e481a5b9a5d1a585b1a5e995960921b6064820152608401610179565b6000805460ff191660011790558015610740576000805461ff0019166101001790555b610748610a27565b6000610752610a94565b90506001600160a01b0381166107bd5760405162461bcd60e51b815260206004820152602a60248201527f53656375726974697a6174696f6e506f6f6c3a204e6f20706f6f6c20696d706c60448201526932b6b2b73a30ba34b7b760b11b6064820152608401610179565b603380546001600160a01b0319166001600160a01b0383161790556107e184610abc565b60335460408051630563aae560e01b815290516000926001600160a01b031691630563aae59160048083019260209291908290030181865afa15801561082b573d6000803e3d6000fd5b505050506040513d601f19601f8201168201806040525081019061084f91906112bd565b905060005b818110156108e7576033546040516336e1756760e21b8152600481018390526000916001600160a01b03169063db85d59c90602401602060405180830381865afa1580156108a6573d6000803e3d6000fd5b505050506040513d601f19601f820116820180604052508101906108ca9190610fab565b90506108d68187610b2f565b506108e0816112d6565b9050610854565b5050508015610930576000805461ff0019169055604051600181527f7f26b83ff96e1f2b6a682f133852f6798a09c465da95921460cefb38474024989060200160405180910390a15b505050565b6034818154811061094557600080fd5b6000918252602090912001546001600160a01b0316905081565b6033546001600160a01b031630146109b95760405162461bcd60e51b815260206004820152601e60248201527f4f6e6c792063616c6c20696e206f726967696e616c20636f6e747261637400006044820152606401610179565b6109c281610b84565b50565b603660205281600052604060002081815481106109e157600080fd5b9060005260206000209060089182820401919006600402915091509054906101000a900460e01b81565b6000610a1683610cd6565b801561051457506105148383610d09565b600054610100900460ff16610a925760405162461bcd60e51b815260206004820152602b60248201527f496e697469616c697a61626c653a20636f6e7472616374206973206e6f74206960448201526a6e697469616c697a696e6760a81b6064820152608401610179565b565b60007f360894a13ba1a3210667c828492db98dca3e2076cc3735a920a3ca505d382bbc610671565b7f5f6bd0daaaf246715f06ec0ea7e99af4468b70381a38e1f10cb19776ed17ce0080546001600160a01b0383166001600160a01b03199091168117825560408051918252517fe882cd4ecccebb4897bd9859948ab1e5a95e1ff3a4769e6c2893f05230e912639181900360200190a15050565b61093063326cd97082604051602401610b489190611089565b60408051601f198184030181529190526020810180516001600160e01b031660e09390931b929092179091526001600160a01b03841690610d92565b6034805460018101825560009182527f46bddb1178e94d7f2892ff5f366840eb658911794f2c3a44c450aa2c505186c10180546001600160a01b0319166001600160a01b0384169081179091556040805163584ef9b560e11b8152905163b09df36a9160048082019286929091908290030181865afa158015610c0b573d6000803e3d6000fd5b505050506040513d6000823e601f3d908101601f19168201604052610c3391908101906112ef565b905060005b8151811015610cac578260356000848481518110610c5857610c58611290565b6020908102919091018101516001600160e01b031916825281019190915260400160002080546001600160a01b0319166001600160a01b039290921691909117905580610ca4816112d6565b915050610c38565b506001600160a01b0382166000908152603660209081526040909120825161093092840190610ed5565b6000610ce9826301ffc9a760e01b610d09565b80156103725750610d02826001600160e01b0319610d09565b1592915050565b604080516001600160e01b03198316602480830191909152825180830390910181526044909101909152602080820180516001600160e01b03166301ffc9a760e01b178152825160009392849283928392918391908a617530fa92503d91506000519050828015610d7b575060208210155b8015610d875750600081115b979650505050505050565b606061051483836040518060600160405280602781526020016113be602791396060600080856001600160a01b031685604051610dcf91906113a1565b600060405180830381855af49150503d8060008114610e0a576040519150601f19603f3d011682016040523d82523d6000602084013e610e0f565b606091505b5091509150610e2086838387610e2a565b9695505050505050565b60608315610e99578251600003610e92576001600160a01b0385163b610e925760405162461bcd60e51b815260206004820152601d60248201527f416464726573733a2063616c6c20746f206e6f6e2d636f6e74726163740000006044820152606401610179565b5081610ea3565b610ea38383610eab565b949350505050565b815115610ebb5781518083602001fd5b8060405162461bcd60e51b81526004016101799190611089565b82805482825590600052602060002090600701600890048101928215610f715791602002820160005b83821115610f3f57835183826101000a81548163ffffffff021916908360e01c02179055509260200192600401602081600301049283019260010302610efe565b8015610f6f5782816101000a81549063ffffffff0219169055600401602081600301049283019260010302610f3f565b505b50610f7d929150610f81565b5090565b5b80821115610f7d5760008155600101610f82565b6001600160a01b03811681146109c257600080fd5b600060208284031215610fbd57600080fd5b815161051481610f96565b60005b83811015610fe3578181015183820152602001610fcb565b50506000910152565b7f43616e206e6f742064656c65676174652063616c6c20746f2000000000000000815260008351611024816019850160208801610fc8565b6c0103bb4ba341036b2ba3437b21609d1b6019918401918201528351611051816026840160208801610fc8565b01602601949350505050565b60008151808452611075816020860160208601610fc8565b601f01601f19169290920160200192915050565b602081526000610514602083018461105d565b6001600160e01b0319811681146109c257600080fd5b6000602082840312156110c457600080fd5b81356105148161109c565b600080604083850312156110e257600080fd5b8235915060208301356110f481610f96565b809150509250929050565b634e487b7160e01b600052604160045260246000fd5b604051601f8201601f1916810167ffffffffffffffff8111828210171561113e5761113e6110ff565b604052919050565b6000806040838503121561115957600080fd5b823561116481610f96565b915060208381013567ffffffffffffffff8082111561118257600080fd5b818601915086601f83011261119657600080fd5b8135818111156111a8576111a86110ff565b6111ba601f8201601f19168501611115565b915080825287848285010111156111d057600080fd5b80848401858401376000848284010152508093505050509250929050565b60006020828403121561120057600080fd5b5035919050565b60006020828403121561121957600080fd5b813561051481610f96565b6000806040838503121561123757600080fd5b823561124281610f96565b946020939093013593505050565b634e487b7160e01b600052601160045260246000fd5b808202811582820484141761037257610372611250565b8082018082111561037257610372611250565b634e487b7160e01b600052603260045260246000fd5b6000816112b5576112b5611250565b506000190190565b6000602082840312156112cf57600080fd5b5051919050565b6000600182016112e8576112e8611250565b5060010190565b6000602080838503121561130257600080fd5b825167ffffffffffffffff8082111561131a57600080fd5b818501915085601f83011261132e57600080fd5b815181811115611340576113406110ff565b8060051b9150611351848301611115565b818152918301840191848101908884111561136b57600080fd5b938501935b8385101561139557845192506113858361109c565b8282529385019390850190611370565b98975050505050505050565b600082516113b3818460208701610fc8565b919091019291505056fe416464726573733a206c6f772d6c6576656c2064656c65676174652063616c6c206661696c6564a264697066735822122011077c201f293ea62c69ae0d794498f7b564a33768325d8b673a2854ef9442b064736f6c63430008130033"
}