{
  "address": "0x5318ce1B613E9b42ADaDa87134d30B41401cfDbD",
  "abi": [
    {
      "anonymous": false,
      "inputs": [
        {
          "indexed": true,
          "internalType": "bytes32",
          "name": "_agreementId",
          "type": "bytes32"
        },
        {
          "indexed": true,
          "internalType": "address",
          "name": "_payer",
          "type": "address"
        },
        {
          "indexed": true,
          "internalType": "address",
          "name": "_pool",
          "type": "address"
        },
        {
          "indexed": false,
          "internalType": "uint256",
          "name": "_amount",
          "type": "uint256"
        },
        {
          "indexed": false,
          "internalType": "uint256",
          "name": "_outstandingAmount",
          "type": "uint256"
        },
        {
          "indexed": false,
          "internalType": "address",
          "name": "_token",
          "type": "address"
        }
      ],
      "name": "AssetRepay",
      "type": "event"
    },
    {
      "anonymous": false,
      "inputs": [
        {
          "indexed": false,
          "internalType": "bytes32[]",
          "name": "_agreementIds",
          "type": "bytes32[]"
        },
        {
          "indexed": false,
          "internalType": "address",
          "name": "_payer",
          "type": "address"
        },
        {
          "indexed": false,
          "internalType": "uint256[]",
          "name": "_amounts",
          "type": "uint256[]"
        },
        {
          "indexed": false,
          "internalType": "address",
          "name": "_token",
          "type": "address"
        }
      ],
      "name": "BatchAssetRepay",
      "type": "event"
    },
    {
      "anonymous": false,
      "inputs": [
        {
          "indexed": false,
          "internalType": "uint8",
          "name": "version",
          "type": "uint8"
        }
      ],
      "name": "Initialized",
      "type": "event"
    },
    {
      "anonymous": false,
      "inputs": [
        {
          "indexed": true,
          "internalType": "uint8",
          "name": "_errorId",
          "type": "uint8"
        },
        {
          "indexed": true,
          "internalType": "bytes32",
          "name": "_agreementId",
          "type": "bytes32"
        }
      ],
      "name": "LogError",
      "type": "event"
    },
    {
      "anonymous": false,
      "inputs": [
        {
          "indexed": true,
          "internalType": "bytes32",
          "name": "_agreementId",
          "type": "bytes32"
        },
        {
          "indexed": true,
          "internalType": "uint256",
          "name": "_tokenIndex",
          "type": "uint256"
        },
        {
          "indexed": false,
          "internalType": "uint256",
          "name": "_totalAmount",
          "type": "uint256"
        }
      ],
      "name": "LogOutputSubmit",
      "type": "event"
    },
    {
      "anonymous": false,
      "inputs": [
        {
          "indexed": false,
          "internalType": "address",
          "name": "account",
          "type": "address"
        }
      ],
      "name": "Paused",
      "type": "event"
    },
    {
      "anonymous": false,
      "inputs": [
        {
          "indexed": true,
          "internalType": "bytes32",
          "name": "role",
          "type": "bytes32"
        },
        {
          "indexed": true,
          "internalType": "bytes32",
          "name": "previousAdminRole",
          "type": "bytes32"
        },
        {
          "indexed": true,
          "internalType": "bytes32",
          "name": "newAdminRole",
          "type": "bytes32"
        }
      ],
      "name": "RoleAdminChanged",
      "type": "event"
    },
    {
      "anonymous": false,
      "inputs": [
        {
          "indexed": true,
          "internalType": "bytes32",
          "name": "role",
          "type": "bytes32"
        },
        {
          "indexed": true,
          "internalType": "address",
          "name": "account",
          "type": "address"
        },
        {
          "indexed": true,
          "internalType": "address",
          "name": "sender",
          "type": "address"
        }
      ],
      "name": "RoleGranted",
      "type": "event"
    },
    {
      "anonymous": false,
      "inputs": [
        {
          "indexed": true,
          "internalType": "bytes32",
          "name": "role",
          "type": "bytes32"
        },
        {
          "indexed": true,
          "internalType": "address",
          "name": "account",
          "type": "address"
        },
        {
          "indexed": true,
          "internalType": "address",
          "name": "sender",
          "type": "address"
        }
      ],
      "name": "RoleRevoked",
      "type": "event"
    },
    {
      "anonymous": false,
      "inputs": [
        {
          "indexed": false,
          "internalType": "address",
          "name": "account",
          "type": "address"
        }
      ],
      "name": "Unpaused",
      "type": "event"
    },
    {
      "inputs": [],
      "name": "DEFAULT_ADMIN_ROLE",
      "outputs": [
        {
          "internalType": "bytes32",
          "name": "",
          "type": "bytes32"
        }
      ],
      "stateMutability": "view",
      "type": "function"
    },
    {
      "inputs": [
        {
          "components": [
            {
              "internalType": "address[]",
              "name": "orderAddresses",
              "type": "address[]"
            },
            {
              "internalType": "uint256[]",
              "name": "orderValues",
              "type": "uint256[]"
            },
            {
              "internalType": "bytes32[]",
              "name": "termsContractParameters",
              "type": "bytes32[]"
            },
            {
              "components": [
                {
                  "internalType": "uint256[]",
                  "name": "tokenIds",
                  "type": "uint256[]"
                },
                {
                  "internalType": "uint256[]",
                  "name": "nonces",
                  "type": "uint256[]"
                },
                {
                  "internalType": "address",
                  "name": "validator",
                  "type": "address"
                },
                {
                  "internalType": "bytes",
                  "name": "validateSignature",
                  "type": "bytes"
                }
              ],
              "internalType": "struct DataTypes.LoanAssetInfo[]",
              "name": "latInfo",
              "type": "tuple[]"
            }
          ],
          "internalType": "struct ILoanKernel.FillDebtOrderParam",
          "name": "fillDebtOrderParam",
          "type": "tuple"
        }
      ],
      "name": "fillDebtOrder",
      "outputs": [],
      "stateMutability": "nonpayable",
      "type": "function"
    },
    {
      "inputs": [],
      "name": "getInitializedVersion",
      "outputs": [
        {
          "internalType": "uint256",
          "name": "",
          "type": "uint256"
        }
      ],
      "stateMutability": "view",
      "type": "function"
    },
    {
      "inputs": [
        {
          "internalType": "bytes32",
          "name": "role",
          "type": "bytes32"
        }
      ],
      "name": "getRoleAdmin",
      "outputs": [
        {
          "internalType": "bytes32",
          "name": "",
          "type": "bytes32"
        }
      ],
      "stateMutability": "view",
      "type": "function"
    },
    {
      "inputs": [
        {
          "internalType": "bytes32",
          "name": "role",
          "type": "bytes32"
        },
        {
          "internalType": "uint256",
          "name": "index",
          "type": "uint256"
        }
      ],
      "name": "getRoleMember",
      "outputs": [
        {
          "internalType": "address",
          "name": "",
          "type": "address"
        }
      ],
      "stateMutability": "view",
      "type": "function"
    },
    {
      "inputs": [
        {
          "internalType": "bytes32",
          "name": "role",
          "type": "bytes32"
        }
      ],
      "name": "getRoleMemberCount",
      "outputs": [
        {
          "internalType": "uint256",
          "name": "",
          "type": "uint256"
        }
      ],
      "stateMutability": "view",
      "type": "function"
    },
    {
      "inputs": [
        {
          "internalType": "bytes32",
          "name": "role",
          "type": "bytes32"
        },
        {
          "internalType": "address",
          "name": "account",
          "type": "address"
        }
      ],
      "name": "grantRole",
      "outputs": [],
      "stateMutability": "nonpayable",
      "type": "function"
    },
    {
      "inputs": [
        {
          "internalType": "bytes32",
          "name": "role",
          "type": "bytes32"
        },
        {
          "internalType": "address",
          "name": "account",
          "type": "address"
        }
      ],
      "name": "hasRole",
      "outputs": [
        {
          "internalType": "bool",
          "name": "",
          "type": "bool"
        }
      ],
      "stateMutability": "view",
      "type": "function"
    },
    {
      "inputs": [
        {
          "internalType": "contract Registry",
          "name": "_registry",
          "type": "address"
        }
      ],
      "name": "initialize",
      "outputs": [],
      "stateMutability": "nonpayable",
      "type": "function"
    },
    {
      "inputs": [],
      "name": "isAdmin",
      "outputs": [
        {
          "internalType": "bool",
          "name": "",
          "type": "bool"
        }
      ],
      "stateMutability": "view",
      "type": "function"
    },
    {
      "inputs": [],
      "name": "pause",
      "outputs": [],
      "stateMutability": "nonpayable",
      "type": "function"
    },
    {
      "inputs": [],
      "name": "paused",
      "outputs": [
        {
          "internalType": "bool",
          "name": "",
          "type": "bool"
        }
      ],
      "stateMutability": "view",
      "type": "function"
    },
    {
      "inputs": [],
      "name": "registry",
      "outputs": [
        {
          "internalType": "contract Registry",
          "name": "",
          "type": "address"
        }
      ],
      "stateMutability": "view",
      "type": "function"
    },
    {
      "inputs": [
        {
          "internalType": "bytes32",
          "name": "role",
          "type": "bytes32"
        },
        {
          "internalType": "address",
          "name": "account",
          "type": "address"
        }
      ],
      "name": "renounceRole",
      "outputs": [],
      "stateMutability": "nonpayable",
      "type": "function"
    },
    {
      "inputs": [
        {
          "internalType": "bytes32[]",
          "name": "agreementIds",
          "type": "bytes32[]"
        },
        {
          "internalType": "uint256[]",
          "name": "amounts",
          "type": "uint256[]"
        },
        {
          "internalType": "address",
          "name": "tokenAddress",
          "type": "address"
        }
      ],
      "name": "repayInBatch",
      "outputs": [
        {
          "internalType": "bool",
          "name": "",
          "type": "bool"
        }
      ],
      "stateMutability": "nonpayable",
      "type": "function"
    },
    {
      "inputs": [
        {
          "internalType": "bytes32",
          "name": "role",
          "type": "bytes32"
        },
        {
          "internalType": "address",
          "name": "account",
          "type": "address"
        }
      ],
      "name": "revokeRole",
      "outputs": [],
      "stateMutability": "nonpayable",
      "type": "function"
    },
    {
      "inputs": [
        {
          "internalType": "bytes32",
          "name": "role",
          "type": "bytes32"
        },
        {
          "internalType": "bytes32",
          "name": "adminRole",
          "type": "bytes32"
        }
      ],
      "name": "setRoleAdmin",
      "outputs": [],
      "stateMutability": "nonpayable",
      "type": "function"
    },
    {
      "inputs": [
        {
          "internalType": "bytes4",
          "name": "interfaceId",
          "type": "bytes4"
        }
      ],
      "name": "supportsInterface",
      "outputs": [
        {
          "internalType": "bool",
          "name": "",
          "type": "bool"
        }
      ],
      "stateMutability": "view",
      "type": "function"
    },
    {
      "inputs": [],
      "name": "unpause",
      "outputs": [],
      "stateMutability": "nonpayable",
      "type": "function"
    }
  ],
  "transactionHash": "0x9064de728bef63f503bb0c7993bdc0770195acfaef810e64eebacb703fe54a4f",
  "args": [],
  "numDeployments": 4,
  "solcInputHash": "59588a77e86657edaa691fc549aaaac9",
  "bytecode": "0x608060405234801561001057600080fd5b506136fe806100206000396000f3fe608060405234801561001057600080fd5b50600436106101215760003560e01c80639010d07c116100ad578063b6db75a011610071578063b6db75a01461024d578063c4d66de814610255578063ca15c87314610268578063d547741f1461027b578063fc7429621461028e57600080fd5b80639010d07c14610201578063915512651461021457806391d1485414610227578063a217fddf1461023a578063b3c650151461024257600080fd5b806336568abe116100f457806336568abe146101a75780633f4ba83a146101ba5780635c975abb146101c25780637b103999146101cd5780638456cb59146101f957600080fd5b806301ffc9a7146101265780631e4e00911461014e578063248a9ca3146101635780632f2ff15d14610194575b600080fd5b610139610134366004612dd3565b6102a1565b60405190151581526020015b60405180910390f35b61016161015c366004612dfd565b6102cc565b005b610186610171366004612e1f565b600090815260c9602052604090206001015490565b604051908152602001610145565b6101616101a2366004612e4d565b6102e6565b6101616101b5366004612e4d565b61030b565b61016161038e565b60335460ff16610139565b61015f546101e1906001600160a01b031681565b6040516001600160a01b039091168152602001610145565b6101616103bc565b6101e161020f366004612dfd565b6103e8565b610161610222366004612e7d565b610407565b610139610235366004612e4d565b610e15565b610186600081565b60005460ff16610186565b610139610e40565b610161610263366004612eb7565b610e82565b610186610276366004612e1f565b610fb0565b610161610289366004612e4d565b610fc7565b61013961029c366004612f1f565b610fec565b60006001600160e01b03198216635a05180f60e01b14806102c657506102c682611572565b92915050565b60006102d7816115a7565b6102e183836115b1565b505050565b600082815260c96020526040902060010154610301816115a7565b6102e183836115fc565b6001600160a01b03811633146103805760405162461bcd60e51b815260206004820152602f60248201527f416363657373436f6e74726f6c3a2063616e206f6e6c792072656e6f756e636560448201526e103937b632b9903337b91039b2b63360891b60648201526084015b60405180910390fd5b61038a828261161e565b5050565b610396610e40565b6103b25760405162461bcd60e51b815260040161037790612fa2565b6103ba611640565b565b6103c4610e40565b6103e05760405162461bcd60e51b815260040161037790612fa2565b6103ba611692565b600082815260fb6020526040812061040090836116cf565b9392505050565b61040f6116db565b610417611721565b6104218180612fff565b80806020026020016040519081016040528093929190818152602001838360200280828437600092018290525084519093508492508391506104655761046561305e565b60200260200101516001600160a01b0316036104cf5760405162461bcd60e51b8152602060048201526024808201527f53454355524954495a4154494f4e5f504f4f4c206973207a65726f206164647260448201526332b9b99760e11b6064820152608401610377565b600081600260ff16815181106104e7576104e761305e565b60200260200101516001600160a01b03160361054f5760405162461bcd60e51b815260206004820152602160248201527f52455041594d454e545f524f55544552206973207a65726f20616464726573736044820152601760f91b6064820152608401610377565b600081600160ff16815181106105675761056761305e565b60200260200101516001600160a01b0316036105d65760405162461bcd60e51b815260206004820152602860248201527f5052494e434950414c5f544f4b454e5f41444452455353206973207a65726f2060448201526730b2323932b9b99760c11b6064820152608401610377565b60006105e28380612fff565b6000816105f1576105f161305e565b90506020020160208101906106069190612eb7565b90508060006106186040860186612fff565b9050116106785760405162461bcd60e51b815260206004820152602860248201527f4c6f616e4b65726e656c3a20496e76616c6964205465726d20436f6e747261636044820152677420706172616d7360c01b6064820152608401610377565b60006106d061068a6020870187612fff565b808060200260200160405190810160405280939291908181526020018383602002808284376000920191909152506106c9925050506040880188612fff565b905061177a565b905060006107eb61072a6106e48880612fff565b808060200260200160405190810160405280939291908181526020018383602002808284376000920191909152506107239250505060408a018a612fff565b9050611862565b6107348880612fff565b808060200260200160405190810160405280939291908181526020018383602002808284376000920191909152506107739250505060208a018a612fff565b808060200260200160405190810160405280939291908181526020018383602002808284376000920191909152506107b29250505060408b018b612fff565b80806020026020016040519081016040528093929190818152602001838360200280828437600092019190915250899250611918915050565b905060008060005b61080060608a018a612fff565b9050811015610c8f5761015f5461081f906001600160a01b0316611a4a565b6001600160a01b031663f0cb1d868861083b60608d018d612fff565b8581811061084b5761084b61305e565b905060200281019061085d9190613074565b6040518363ffffffff1660e01b815260040161087a929190613137565b600060405180830381600087803b15801561089457600080fd5b505af11580156108a8573d6000803e3d6000fd5b50600092506108bd91505060608b018b612fff565b838181106108cd576108cd61305e565b90506020028101906108df9190613074565b6108e99080612fff565b90506001600160401b0381111561090257610902613217565b60405190808252806020026020018201604052801561097857816020015b6109656040805161010081018252600080825260208201819052918101829052606081018290526080810182905260a0810182905260c081018290529060e082015290565b8152602001906001900390816109205790505b50905060005b61098b60608c018c612fff565b8481811061099b5761099b61305e565b90506020028101906109ad9190613074565b6109b79080612fff565b9050811015610bcf576109cd60608c018c612fff565b848181106109dd576109dd61305e565b90506020028101906109ef9190613074565b6109f99080612fff565b82818110610a0957610a0961305e565b9050602002013560001b8660000151606001518681518110610a2d57610a2d61305e565b602002602001015114610a825760405162461bcd60e51b815260206004820181905260248201527f4c6f616e4b65726e656c3a20496e76616c6964204c415420546f6b656e2049646044820152606401610377565b60006040518061010001604052808860000151602001518881518110610aaa57610aaa61305e565b60200260200101516001600160a01b0316815260200188602001516001600160a01b031681526020018d8060400190610ae39190612fff565b89818110610af357610af361305e565b905060200201358152602001898881518110610b1157610b1161305e565b6020026020010151815260200142815260200188608001518881518110610b3a57610b3a61305e565b602002602001015181526020018860c001518881518110610b5d57610b5d61305e565b602002602001015160ff1681526020018860e0015160ff166001811115610b8657610b86613048565b6001811115610b9757610b97613048565b815250905080838381518110610baf57610baf61305e565b6020026020010181905250610bc48660010190565b95505060010161097e565b506001600160a01b0387166333944357610bec60608d018d612fff565b85818110610bfc57610bfc61305e565b9050602002810190610c0e9190613074565b610c189080612fff565b846040518463ffffffff1660e01b8152600401610c379392919061324f565b6020604051808303816000875af1158015610c56573d6000803e3d6000fd5b505050506040513d601f19601f82011682018060405250810190610c7a919061330b565b610c84908461333a565b9250506001016107f3565b506001600160a01b03851663f3fef3a3336040516001600160e01b031960e084901b1681526001600160a01b03909116600482015260248101849052604401600060405180830381600087803b158015610ce857600080fd5b505af1158015610cfc573d6000803e3d6000fd5b50505050846001600160a01b031663af14052c6040518163ffffffff1660e01b8152600401600060405180830381600087803b158015610d3b57600080fd5b505af1158015610d4f573d6000803e3d6000fd5b50505050846001600160a01b03166349110ac46040518163ffffffff1660e01b8152600401602060405180830381865afa158015610d91573d6000803e3d6000fd5b505050506040513d601f19601f82011682018060405250810190610db5919061334d565b610e015760405162461bcd60e51b815260206004820181905260248201527f4c6f616e4b65726e656c3a2045786365656473204d696e46697273744c6f73736044820152606401610377565b50505050505050610e126001606555565b50565b600091825260c9602090815260408084206001600160a01b0393909316845291905290205460ff1690565b6000610e6c7fb19546dff01e856fb3f010c267a7b1c60363cf8a4664e21cc89c26224620214e33610e15565b80610e7d5750610e7d600033610e15565b905090565b600054610100900460ff1615808015610ea25750600054600160ff909116105b80610ebc5750303b158015610ebc575060005460ff166001145b610f1f5760405162461bcd60e51b815260206004820152602e60248201527f496e697469616c697a61626c653a20636f6e747261637420697320616c72656160448201526d191e481a5b9a5d1a585b1a5e995960921b6064820152608401610377565b6000805460ff191660011790558015610f42576000805461ff0019166101001790555b610f4b33611a57565b61015f80546001600160a01b0319166001600160a01b038416179055801561038a576000805461ff0019169055604051600181527f7f26b83ff96e1f2b6a682f133852f6798a09c465da95921460cefb38474024989060200160405180910390a15050565b600081815260fb602052604081206102c690611b9c565b600082815260c96020526040902060010154610fe2816115a7565b6102e1838361161e565b6000610ff66116db565b610ffe611721565b8483811461105a5760405162461bcd60e51b815260206004820152602360248201527f4c6f616e52657061796d656e74526f757465723a20496e76616c6964206c656e6044820152620cee8d60eb1b6064820152608401610377565b6001600160a01b0383166110d65760405162461bcd60e51b815260206004820152603b60248201527f4c6f616e52657061796d656e74526f757465723a20546f6b656e20616464726560448201527f7373206d75737420646966666572656e742077697468204e554c4c00000000006064820152608401610377565b6000816001600160401b038111156110f0576110f0613217565b604051908082528060200260200182016040528015611119578160200160208202803683370190505b5061015f54909150600090611136906001600160a01b0316611a4a565b6001600160a01b0316636352211e8a8a60008181106111575761115761305e565b9050602002013560001c6040518263ffffffff1660e01b815260040161117f91815260200190565b602060405180830381865afa15801561119c573d6000803e3d6000fd5b505050506040513d601f19601f820116820180604052508101906111c0919061336f565b9050806001600160a01b0381166111e95760405162461bcd60e51b81526004016103779061338c565b856001600160a01b0316816001600160a01b0316630bc6bffc6040518163ffffffff1660e01b8152600401602060405180830381865afa158015611231573d6000803e3d6000fd5b505050506040513d601f19601f82011682018060405250810190611255919061336f565b6001600160a01b0316146112ba5760405162461bcd60e51b815260206004820152602660248201527f4c6f616e52657061796d656e74526f757465723a2063757272656e6379206d696044820152650e6dac2e8c6d60d31b6064820152608401610377565b898960008181106112cd576112cd61305e565b9050602002013560001c836000815181106112ea576112ea61305e565b602002602001018181525050600184111561141e5760015b8481101561141c578a8a8281811061131c5761131c61305e565b9050602002013560001c8482815181106113385761133861305e565b602090810291909101015261015f546001600160a01b038085169161135d9116611a4a565b6001600160a01b0316636352211e86848151811061137d5761137d61305e565b60200260200101516040518263ffffffff1660e01b81526004016113a391815260200190565b602060405180830381865afa1580156113c0573d6000803e3d6000fd5b505050506040513d601f19601f820116820180604052508101906113e4919061336f565b6001600160a01b03161461140a5760405162461bcd60e51b81526004016103779061338c565b80611414816133da565b915050611302565b505b61145f8184338b8b808060200260200160405190810160405280939291908181526020018383602002808284376000920191909152508d9250611ba6915050565b6114bd5760405162461bcd60e51b815260206004820152602960248201527f4c6f616e52657061796d656e74526f757465723a2052657061796d656e742068604482015268185cc819985a5b195960ba1b6064820152608401610377565b806001600160a01b031663af14052c6040518163ffffffff1660e01b8152600401600060405180830381600087803b1580156114f857600080fd5b505af115801561150c573d6000803e3d6000fd5b505050507fc3ddefdb4c5801635c554e9856ef97808797e9d19731e8c3079133775d81e8dd8a8a61153a3390565b8b8b8b60405161154f969594939291906133f3565b60405180910390a160019450505050506115696001606555565b95945050505050565b60006001600160e01b03198216637965db0b60e01b14806102c657506301ffc9a760e01b6001600160e01b03198316146102c6565b610e128133611f5c565b600082815260c96020526040808220600101805490849055905190918391839186917fbd79b86ffe0ab8e8776151514217cd7cacd52c909f66475c3af44e129f0b00ff9190a4505050565b6116068282611fb5565b600082815260fb602052604090206102e1908261203b565b6116288282612050565b600082815260fb602052604090206102e190826120b7565b6116486120cc565b6033805460ff191690557f5db9ee0a495bf2e6ff9c91a7834c1ba4fdd244a5e8aa4e537bd38aeae4b073aa335b6040516001600160a01b03909116815260200160405180910390a1565b61169a6116db565b6033805460ff191660011790557f62e78cea01bee320cd4e420270b5ea74000d11b0c9f74754ebdbfc544b05a2586116753390565b60006104008383612115565b60335460ff16156103ba5760405162461bcd60e51b815260206004820152601060248201526f14185d5cd8589b194e881c185d5cd95960821b6044820152606401610377565b6002606554036117735760405162461bcd60e51b815260206004820152601f60248201527f5265656e7472616e637947756172643a207265656e7472616e742063616c6c006044820152606401610377565b6002606555565b60606000826001600160401b0381111561179657611796613217565b6040519080825280602002602001820160405280156117bf578160200160208202803683370190505b50905060006117cf846002613441565b6117da90600261333a565b90505b6117e8846003613441565b6117f390600261333a565b81101561185a5784818151811061180c5761180c61305e565b6020026020010151828560026118229190613441565b61182d600285613458565b6118379190613458565b815181106118475761184761305e565b60209081029190910101526001016117dd565b509392505050565b60606000826001600160401b0381111561187e5761187e613217565b6040519080825280602002602001820160405280156118a7578160200160208202803683370190505b50905060035b6118b884600361333a565b81101561185a578481815181106118d1576118d161305e565b6020026020010151826003836118e79190613458565b815181106118f7576118f761305e565b6001600160a01b0392909216602092830291909101909101526001016118ad565b611920612d44565b600086516001600160401b0381111561193b5761193b613217565b604051908082528060200260200182016040528015611964578160200160208202803683370190505b5090506000604051806101000160405280611981898b898961213f565b815260200188600160ff168151811061199c5761199c61305e565b60200260200101516001600160a01b031681526020016119bd8888516121da565b815260200187600060ff16815181106119d8576119d861305e565b602002602001015181526020016119f0888851612282565b8152602001838152602001611a0688885161234d565b815260200187600160ff1681518110611a2157611a2161305e565b602002602001015160ff168152509050611a3a81612435565b60a0820152979650505050505050565b60006102c682600561257d565b600054610100900460ff16611ac25760405162461bcd60e51b815260206004820152602b60248201527f496e697469616c697a61626c653a20636f6e7472616374206973206e6f74206960448201526a6e697469616c697a696e6760a81b6064820152608401610377565b6001600160a01b038116611ad35750335b611ade600033612602565b611b087fb19546dff01e856fb3f010c267a7b1c60363cf8a4664e21cc89c26224620214e82612602565b611b527f59abfac6520ec36a6556b2a4dd949cc40007459bcd5cd2507f1e5cc77b6bc97e7fb19546dff01e856fb3f010c267a7b1c60363cf8a4664e21cc89c26224620214e6115b1565b610e127f21702c8af46127c7fa207f89d0b0a8441bb32959a0ac7df790e9ab1a25c989267f3e9c05fb0f9da4414e033bb9bf190a6e2072adf7e3077394fce683220513b8d76115b1565b60006102c6825490565b61015f546000908690611bc1906001600160a01b031661260c565b604051633444c16360e21b81526001600160a01b038381166004830152919091169063d113058c90602401602060405180830381865afa158015611c09573d6000803e3d6000fd5b505050506040513d601f19601f82011682018060405250810190611c2d919061334d565b15611c9757866001600160a01b0316634ba2363a6040518163ffffffff1660e01b8152600401602060405180830381865afa158015611c70573d6000803e3d6000fd5b505050506040513d601f19601f82011682018060405250810190611c94919061336f565b90505b6000806000896001600160a01b031663586fd8a18a896040518363ffffffff1660e01b8152600401611cca9291906134a6565b6000604051808303816000875af1158015611ce9573d6000803e3d6000fd5b505050506040513d6000823e601f3d908101601f19168201604052611d11919081019061355a565b9150915060005b8251811015611ee55760008b6001600160a01b0316631e0029c88c8481518110611d4457611d4461305e565b60200260200101516040518263ffffffff1660e01b8152600401611d6a91815260200190565b602060405180830381865afa158015611d87573d6000803e3d6000fd5b505050506040513d601f19601f82011682018060405250810190611dab919061330b565b9050828281518110611dbf57611dbf61305e565b6020026020010151848381518110611dd957611dd961305e565b602002602001015103611e0c57611e0c868c8481518110611dfc57611dfc61305e565b602002602001015160001b612619565b838281518110611e1e57611e1e61305e565b602002602001015185611e31919061333a565b9450856001600160a01b03168a6001600160a01b03168c8481518110611e5957611e5961305e565b602002602001015160001b7f9da9a6c51638610f182a89c69d6ab25dad9cf802834bac5a309dcafa2557265f878681518110611e9757611e9761305e565b6020026020010151858d604051611eca9392919092835260208301919091526001600160a01b0316604082015260600190565b60405180910390a45080611edd816133da565b915050611d18565b50611ef286898686612709565b604051639016170560e01b8152600481018490526001600160a01b038b1690639016170590602401600060405180830381600087803b158015611f3457600080fd5b505af1158015611f48573d6000803e3d6000fd5b5060019d9c50505050505050505050505050565b611f668282610e15565b61038a57611f7381612813565b611f7e836020612825565b604051602001611f8f9291906135e1565b60408051601f198184030181529082905262461bcd60e51b825261037791600401613656565b611fbf8282610e15565b61038a57600082815260c9602090815260408083206001600160a01b03851684529091529020805460ff19166001179055611ff73390565b6001600160a01b0316816001600160a01b0316837f2f8788117e7eff1d82e926ec794901d17c78024a50270940304540a733656f0d60405160405180910390a45050565b6000610400836001600160a01b0384166129c0565b61205a8282610e15565b1561038a57600082815260c9602090815260408083206001600160a01b0385168085529252808320805460ff1916905551339285917ff6391f5c32d9c69d2a47ea670b442974b53935d1edc7fd64eb21e047a839171b9190a45050565b6000610400836001600160a01b038416612a0f565b60335460ff166103ba5760405162461bcd60e51b815260206004820152601460248201527314185d5cd8589b194e881b9bdd081c185d5cd95960621b6044820152606401610377565b600082600001828154811061212c5761212c61305e565b9060005260206000200154905092915050565b612147612d9b565b6040805160a081019091526000908087600260ff168151811061216c5761216c61305e565b60200260200101516001600160a01b031681526020018681526020018581526020016121c7886002808111156121a4576121a4613048565b60ff16815181106121b7576121b761305e565b6020026020010151888888612b02565b8152602001849052915050949350505050565b60606000826001600160401b038111156121f6576121f6613217565b60405190808252806020026020018201604052801561221f578160200160208202803683370190505b50905060025b61223084600261333a565b81101561185a578481815181106122495761224961305e565b60200260200101518260028361225f9190613458565b8151811061226f5761226f61305e565b6020908102919091010152600101612225565b60606000826001600160401b0381111561229e5761229e613217565b6040519080825280602002602001820160405280156122c7578160200160208202803683370190505b50905060006122d784600261333a565b90505b6122e5846002613441565b6122f090600261333a565b81101561185a578481815181106123095761230961305e565b602002602001015182856002846123209190613458565b61232a9190613458565b8151811061233a5761233a61305e565b60209081029190910101526001016122da565b60606000826001600160401b0381111561236957612369613217565b604051908082528060200260200182016040528015612392578160200160208202803683370190505b50905060006123a2846003613441565b6123ad90600261333a565b90505b6123bb846004613441565b6123c690600261333a565b81101561185a578481815181106123df576123df61305e565b6020026020010151828560036123f59190613441565b612400600285613458565b61240a9190613458565b8151811061241a5761241a61305e565b60ff92909216602092830291909101909101526001016123b0565b805160200151516060906000816001600160401b0381111561245957612459613217565b604051908082528060200260200182016040528015612482578160200160208202803683370190505b50905060005b8281101561185a5761255885600001516060015182815181106124ad576124ad61305e565b6020026020010151866040015183815181106124cb576124cb61305e565b60200260200101518760200151886080015185815181106124ee576124ee61305e565b60200260200101516040516bffffffffffffffffffffffff1930606090811b82166020840152603483018790526054830186905284901b1660748201526088810182905260009060a801604051602081830303815290604052805190602001209050949350505050565b82828151811061256a5761256a61305e565b6020908102919091010152600101612488565b6000826001600160a01b031663bcaa0c558360098111156125a0576125a0613048565b6040516001600160e01b031960e084901b16815260ff9091166004820152602401602060405180830381865afa1580156125de573d6000803e3d6000fd5b505050506040513d601f19601f82011682018060405250810190610400919061336f565b61038a82826115fc565b60006102c682600061257d565b6001600160a01b03821661266f5760405162461bcd60e51b815260206004820152601960248201527f496e76616c6964206372656469746f72206163636f756e742e000000000000006044820152606401610377565b806126b45760405162461bcd60e51b815260206004820152601560248201527424b73b30b634b21030b3b932b2b6b2b73a1034b21760591b6044820152606401610377565b6126bd81612c38565b6127005760405162461bcd60e51b81526020600482015260146024820152734465627420646f6573206e6f742065787369747360601b6044820152606401610377565b61038a81612ccf565b604080516001600160a01b0385811660248301528481166044830152606480830185905283518084039091018152608490920183526020820180516001600160e01b03166323b872dd60e01b179052915160009283929088169161276d9190613689565b6000604051808303816000865af19150503d80600081146127aa576040519150601f19603f3d011682016040523d82523d6000602084013e6127af565b606091505b50915091508180156127d95750805115806127d95750808060200190518101906127d9919061334d565b61280b5760405162461bcd60e51b815260206004820152600360248201526229aa2360e91b6044820152606401610377565b505050505050565b60606102c66001600160a01b03831660145b60606000612834836002613441565b61283f90600261333a565b6001600160401b0381111561285657612856613217565b6040519080825280601f01601f191660200182016040528015612880576020820181803683370190505b509050600360fc1b8160008151811061289b5761289b61305e565b60200101906001600160f81b031916908160001a905350600f60fb1b816001815181106128ca576128ca61305e565b60200101906001600160f81b031916908160001a90535060006128ee846002613441565b6128f990600161333a565b90505b6001811115612971576f181899199a1a9b1b9c1cb0b131b232b360811b85600f166010811061292d5761292d61305e565b1a60f81b8282815181106129435761294361305e565b60200101906001600160f81b031916908160001a90535060049490941c9361296a8161369b565b90506128fc565b5083156104005760405162461bcd60e51b815260206004820181905260248201527f537472696e67733a20686578206c656e67746820696e73756666696369656e746044820152606401610377565b6000818152600183016020526040812054612a07575081546001818101845560008481526020808220909301849055845484825282860190935260409020919091556102c6565b5060006102c6565b60008181526001830160205260408120548015612af8576000612a33600183613458565b8554909150600090612a4790600190613458565b9050818114612aac576000866000018281548110612a6757612a6761305e565b9060005260206000200154905080876000018481548110612a8a57612a8a61305e565b6000918252602080832090910192909255918252600188019052604090208390555b8554869080612abd57612abd6136b2565b6001900381819060005260206000200160009055905585600101600086815260200190815260200160002060009055600193505050506102c6565b60009150506102c6565b6060600082516001600160401b03811115612b1f57612b1f613217565b604051908082528060200260200182016040528015612b48578160200160208202803683370190505b50905060005b8351612b5b90600061333a565b811015612c2e5786868281518110612b7557612b7561305e565b6020026020010151868381518110612b8f57612b8f61305e565b6020026020010151868481518110612ba957612ba961305e565b6020026020010151604051602001612bf39493929190606094851b6bffffffffffffffffffffffff1990811682529390941b90921660148401526028830152604882015260680190565b60405160208183030381529060405280519060200120828281518110612c1b57612c1b61305e565b6020908102919091010152600101612b4e565b5095945050505050565b61015f546000908190612c53906001600160a01b0316611a4a565b6040516331a9108f60e11b8152600481018590526001600160a01b039190911690636352211e90602401602060405180830381865afa158015612c9a573d6000803e3d6000fd5b505050506040513d601f19601f82011682018060405250810190612cbe919061336f565b6001600160a01b0316141592915050565b61015f54612ce5906001600160a01b0316611a4a565b604051630852cd8d60e31b8152600481018390526001600160a01b0391909116906342966c6890602401600060405180830381600087803b158015612d2957600080fd5b505af1158015612d3d573d6000803e3d6000fd5b5050505050565b604051806101000160405280612d58612d9b565b815260200160006001600160a01b031681526020016060815260200160008152602001606081526020016060815260200160608152602001600060ff1681525090565b6040518060a0016040528060006001600160a01b03168152602001606081526020016060815260200160608152602001606081525090565b600060208284031215612de557600080fd5b81356001600160e01b03198116811461040057600080fd5b60008060408385031215612e1057600080fd5b50508035926020909101359150565b600060208284031215612e3157600080fd5b5035919050565b6001600160a01b0381168114610e1257600080fd5b60008060408385031215612e6057600080fd5b823591506020830135612e7281612e38565b809150509250929050565b600060208284031215612e8f57600080fd5b81356001600160401b03811115612ea557600080fd5b82016080818503121561040057600080fd5b600060208284031215612ec957600080fd5b813561040081612e38565b60008083601f840112612ee657600080fd5b5081356001600160401b03811115612efd57600080fd5b6020830191508360208260051b8501011115612f1857600080fd5b9250929050565b600080600080600060608688031215612f3757600080fd5b85356001600160401b0380821115612f4e57600080fd5b612f5a89838a01612ed4565b90975095506020880135915080821115612f7357600080fd5b50612f8088828901612ed4565b9094509250506040860135612f9481612e38565b809150509295509295909350565b6020808252603a908201527f556e74616e676c6564426173653a204d75737420686176652061646d696e207260408201527f6f6c6520746f20706572666f726d207468697320616374696f6e000000000000606082015260800190565b6000808335601e1984360301811261301657600080fd5b8301803591506001600160401b0382111561303057600080fd5b6020019150600581901b3603821315612f1857600080fd5b634e487b7160e01b600052602160045260246000fd5b634e487b7160e01b600052603260045260246000fd5b60008235607e1983360301811261308a57600080fd5b9190910192915050565b6000808335601e198436030181126130ab57600080fd5b83016020810192503590506001600160401b038111156130ca57600080fd5b8060051b3603821315612f1857600080fd5b81835260006001600160fb1b038311156130f557600080fd5b8260051b80836020870137939093016020019392505050565b81835281816020850137506000828201602090810191909152601f909101601f19169091010190565b6001600160a01b038381168252604060208301526000906131588480613094565b6080604086015261316d60c0860182846130dc565b91505061317d6020860186613094565b603f19808785030160608801526131958483856130dc565b9350604088013592506131a783612e38565b938216608087015260608701359336889003601e190185126131c857600080fd5b6020948801948501943592506001600160401b038311156131e857600080fd5b8236038513156131f757600080fd5b8684030160a08701525061320c82828561310e565b979650505050505050565b634e487b7160e01b600052604160045260246000fd5b6002811061324b57634e487b7160e01b600052602160045260246000fd5b9052565b6000604080835261326381840186886130dc565b83810360208581019190915285518083528682019282019060005b818110156132fc57845180516001600160a01b0390811685528582015116858501528681015187850152606080820151908501526080808201519085015260a0808201519085015260c08082015160ff169085015260e090810151906132e68186018361322d565b505093830193610100929092019160010161327e565b50909998505050505050505050565b60006020828403121561331d57600080fd5b5051919050565b634e487b7160e01b600052601160045260246000fd5b808201808211156102c6576102c6613324565b60006020828403121561335f57600080fd5b8151801515811461040057600080fd5b60006020828403121561338157600080fd5b815161040081612e38565b6020808252602e908201527f4c6f616e52657061796d656e74526f757465723a20496e76616c69642072657060408201526d185e5b595b9d081c995c5d595cdd60921b606082015260800190565b6000600182016133ec576133ec613324565b5060010190565b60808152600061340760808301888a6130dc565b6001600160a01b038781166020850152838203604085015261342a8287896130dc565b925080851660608501525050979650505050505050565b80820281158282048414176102c6576102c6613324565b818103818111156102c6576102c6613324565b600081518084526020808501945080840160005b8381101561349b5781518752958201959082019060010161347f565b509495945050505050565b6040815260006134b9604083018561346b565b8281036020840152611569818561346b565b600082601f8301126134dc57600080fd5b815160206001600160401b03808311156134f8576134f8613217565b8260051b604051601f19603f8301168101818110848211171561351d5761351d613217565b60405293845285810183019383810192508785111561353b57600080fd5b83870191505b8482101561320c57815183529183019190830190613541565b6000806040838503121561356d57600080fd5b82516001600160401b038082111561358457600080fd5b613590868387016134cb565b935060208501519150808211156135a657600080fd5b506135b3858286016134cb565b9150509250929050565b60005b838110156135d85781810151838201526020016135c0565b50506000910152565b7f416363657373436f6e74726f6c3a206163636f756e74200000000000000000008152600083516136198160178501602088016135bd565b7001034b99036b4b9b9b4b733903937b6329607d1b601791840191820152835161364a8160288401602088016135bd565b01602801949350505050565b60208152600082518060208401526136758160408501602087016135bd565b601f01601f19169190910160400192915050565b6000825161308a8184602087016135bd565b6000816136aa576136aa613324565b506000190190565b634e487b7160e01b600052603160045260246000fdfea26469706673582212208bdce72464d2f42dd1ade7aeab54681127323e21c3409ba5a6eb58a768e6179a64736f6c63430008130033",
  "devdoc": {
    "author": "Untangled Team",
    "events": {
      "Initialized(uint8)": {
        "details": "Triggered when the contract has been initialized or reinitialized."
      },
      "Paused(address)": {
        "details": "Emitted when the pause is triggered by `account`."
      },
      "RoleAdminChanged(bytes32,bytes32,bytes32)": {
        "details": "Emitted when `newAdminRole` is set as ``role``'s admin role, replacing `previousAdminRole` `DEFAULT_ADMIN_ROLE` is the starting admin for all roles, despite {RoleAdminChanged} not being emitted signaling this. _Available since v3.1._"
      },
      "RoleGranted(bytes32,address,address)": {
        "details": "Emitted when `account` is granted `role`. `sender` is the account that originated the contract call, an admin role bearer except when using {AccessControl-_setupRole}."
      },
      "RoleRevoked(bytes32,address,address)": {
        "details": "Emitted when `account` is revoked `role`. `sender` is the account that originated the contract call:   - if using `revokeRole`, it is the admin role bearer   - if using `renounceRole`, it is the role bearer (i.e. `account`)"
      },
      "Unpaused(address)": {
        "details": "Emitted when the pause is lifted by `account`."
      }
    },
    "kind": "dev",
    "methods": {
      "getRoleAdmin(bytes32)": {
        "details": "Returns the admin role that controls `role`. See {grantRole} and {revokeRole}. To change a role's admin, use {_setRoleAdmin}."
      },
      "getRoleMember(bytes32,uint256)": {
        "details": "Returns one of the accounts that have `role`. `index` must be a value between 0 and {getRoleMemberCount}, non-inclusive. Role bearers are not sorted in any particular way, and their ordering may change at any point. WARNING: When using {getRoleMember} and {getRoleMemberCount}, make sure you perform all queries on the same block. See the following https://forum.openzeppelin.com/t/iterating-over-elements-on-enumerableset-in-openzeppelin-contracts/2296[forum post] for more information."
      },
      "getRoleMemberCount(bytes32)": {
        "details": "Returns the number of accounts that have `role`. Can be used together with {getRoleMember} to enumerate all bearers of a role."
      },
      "grantRole(bytes32,address)": {
        "details": "Grants `role` to `account`. If `account` had not been already granted `role`, emits a {RoleGranted} event. Requirements: - the caller must have ``role``'s admin role. May emit a {RoleGranted} event."
      },
      "hasRole(bytes32,address)": {
        "details": "Returns `true` if `account` has been granted `role`."
      },
      "paused()": {
        "details": "Returns true if the contract is paused, and false otherwise."
      },
      "renounceRole(bytes32,address)": {
        "details": "Revokes `role` from the calling account. Roles are often managed via {grantRole} and {revokeRole}: this function's purpose is to provide a mechanism for accounts to lose their privileges if they are compromised (such as when a trusted device is misplaced). If the calling account had been revoked `role`, emits a {RoleRevoked} event. Requirements: - the caller must be `account`. May emit a {RoleRevoked} event."
      },
      "repayInBatch(bytes32[],uint256[],address)": {
        "details": "calls _assertRepaymentRequest and _doRepay for each repayment, and emits the LogRepayments event to indicate the successful batch repayment"
      },
      "revokeRole(bytes32,address)": {
        "details": "Revokes `role` from `account`. If `account` had been granted `role`, emits a {RoleRevoked} event. Requirements: - the caller must have ``role``'s admin role. May emit a {RoleRevoked} event."
      },
      "supportsInterface(bytes4)": {
        "details": "See {IERC165-supportsInterface}."
      }
    },
    "title": "LoanKernel",
    "version": 1
  },
  "userdoc": {
    "kind": "user",
    "methods": {
      "fillDebtOrder((address[],uint256[],bytes32[],(uint256[],uint256[],address,bytes)[]))": {
        "notice": "Filling new Debt Order Notice: - All Debt Order must to have same:   + TermContract   + Creditor Fee   + Debtor Fee"
      },
      "repayInBatch(bytes32[],uint256[],address)": {
        "notice": "allows batch repayment of multiple loans by iterating over the given agreement IDs and amounts"
      }
    },
    "notice": "Upload loan, Repay Loan and conclude loan",
    "version": 1
  },
  "storageLayout": {
    "storage": [
      {
        "astId": 759,
        "contract": "contracts/protocol/loan/LoanKernel.sol:LoanKernel",
        "label": "_initialized",
        "offset": 0,
        "slot": "0",
        "type": "t_uint8"
      },
      {
        "astId": 762,
        "contract": "contracts/protocol/loan/LoanKernel.sol:LoanKernel",
        "label": "_initializing",
        "offset": 1,
        "slot": "0",
        "type": "t_bool"
      },
      {
        "astId": 4972,
        "contract": "contracts/protocol/loan/LoanKernel.sol:LoanKernel",
        "label": "__gap",
        "offset": 0,
        "slot": "1",
        "type": "t_array(t_uint256)50_storage"
      },
      {
        "astId": 942,
        "contract": "contracts/protocol/loan/LoanKernel.sol:LoanKernel",
        "label": "_paused",
        "offset": 0,
        "slot": "51",
        "type": "t_bool"
      },
      {
        "astId": 1047,
        "contract": "contracts/protocol/loan/LoanKernel.sol:LoanKernel",
        "label": "__gap",
        "offset": 0,
        "slot": "52",
        "type": "t_array(t_uint256)49_storage"
      },
      {
        "astId": 1062,
        "contract": "contracts/protocol/loan/LoanKernel.sol:LoanKernel",
        "label": "_status",
        "offset": 0,
        "slot": "101",
        "type": "t_uint256"
      },
      {
        "astId": 1131,
        "contract": "contracts/protocol/loan/LoanKernel.sol:LoanKernel",
        "label": "__gap",
        "offset": 0,
        "slot": "102",
        "type": "t_array(t_uint256)49_storage"
      },
      {
        "astId": 6262,
        "contract": "contracts/protocol/loan/LoanKernel.sol:LoanKernel",
        "label": "__gap",
        "offset": 0,
        "slot": "151",
        "type": "t_array(t_uint256)50_storage"
      },
      {
        "astId": 184,
        "contract": "contracts/protocol/loan/LoanKernel.sol:LoanKernel",
        "label": "_roles",
        "offset": 0,
        "slot": "201",
        "type": "t_mapping(t_bytes32,t_struct(RoleData)179_storage)"
      },
      {
        "astId": 479,
        "contract": "contracts/protocol/loan/LoanKernel.sol:LoanKernel",
        "label": "__gap",
        "offset": 0,
        "slot": "202",
        "type": "t_array(t_uint256)49_storage"
      },
      {
        "astId": 33,
        "contract": "contracts/protocol/loan/LoanKernel.sol:LoanKernel",
        "label": "_roleMembers",
        "offset": 0,
        "slot": "251",
        "type": "t_mapping(t_bytes32,t_struct(AddressSet)7572_storage)"
      },
      {
        "astId": 143,
        "contract": "contracts/protocol/loan/LoanKernel.sol:LoanKernel",
        "label": "__gap",
        "offset": 0,
        "slot": "252",
        "type": "t_array(t_uint256)49_storage"
      },
      {
        "astId": 10782,
        "contract": "contracts/protocol/loan/LoanKernel.sol:LoanKernel",
        "label": "__gap",
        "offset": 0,
        "slot": "301",
        "type": "t_array(t_uint256)50_storage"
      },
      {
        "astId": 20527,
        "contract": "contracts/protocol/loan/LoanKernel.sol:LoanKernel",
        "label": "registry",
        "offset": 0,
        "slot": "351",
        "type": "t_contract(Registry)28621"
      }
    ],
    "types": {
      "t_address": {
        "encoding": "inplace",
        "label": "address",
        "numberOfBytes": "20"
      },
      "t_array(t_bytes32)dyn_storage": {
        "base": "t_bytes32",
        "encoding": "dynamic_array",
        "label": "bytes32[]",
        "numberOfBytes": "32"
      },
      "t_array(t_uint256)49_storage": {
        "base": "t_uint256",
        "encoding": "inplace",
        "label": "uint256[49]",
        "numberOfBytes": "1568"
      },
      "t_array(t_uint256)50_storage": {
        "base": "t_uint256",
        "encoding": "inplace",
        "label": "uint256[50]",
        "numberOfBytes": "1600"
      },
      "t_bool": {
        "encoding": "inplace",
        "label": "bool",
        "numberOfBytes": "1"
      },
      "t_bytes32": {
        "encoding": "inplace",
        "label": "bytes32",
        "numberOfBytes": "32"
      },
      "t_contract(Registry)28621": {
        "encoding": "inplace",
        "label": "contract Registry",
        "numberOfBytes": "20"
      },
      "t_mapping(t_address,t_bool)": {
        "encoding": "mapping",
        "key": "t_address",
        "label": "mapping(address => bool)",
        "numberOfBytes": "32",
        "value": "t_bool"
      },
      "t_mapping(t_bytes32,t_struct(AddressSet)7572_storage)": {
        "encoding": "mapping",
        "key": "t_bytes32",
        "label": "mapping(bytes32 => struct EnumerableSetUpgradeable.AddressSet)",
        "numberOfBytes": "32",
        "value": "t_struct(AddressSet)7572_storage"
      },
      "t_mapping(t_bytes32,t_struct(RoleData)179_storage)": {
        "encoding": "mapping",
        "key": "t_bytes32",
        "label": "mapping(bytes32 => struct AccessControlUpgradeable.RoleData)",
        "numberOfBytes": "32",
        "value": "t_struct(RoleData)179_storage"
      },
      "t_mapping(t_bytes32,t_uint256)": {
        "encoding": "mapping",
        "key": "t_bytes32",
        "label": "mapping(bytes32 => uint256)",
        "numberOfBytes": "32",
        "value": "t_uint256"
      },
      "t_struct(AddressSet)7572_storage": {
        "encoding": "inplace",
        "label": "struct EnumerableSetUpgradeable.AddressSet",
        "members": [
          {
            "astId": 7571,
            "contract": "contracts/protocol/loan/LoanKernel.sol:LoanKernel",
            "label": "_inner",
            "offset": 0,
            "slot": "0",
            "type": "t_struct(Set)7257_storage"
          }
        ],
        "numberOfBytes": "64"
      },
      "t_struct(RoleData)179_storage": {
        "encoding": "inplace",
        "label": "struct AccessControlUpgradeable.RoleData",
        "members": [
          {
            "astId": 176,
            "contract": "contracts/protocol/loan/LoanKernel.sol:LoanKernel",
            "label": "members",
            "offset": 0,
            "slot": "0",
            "type": "t_mapping(t_address,t_bool)"
          },
          {
            "astId": 178,
            "contract": "contracts/protocol/loan/LoanKernel.sol:LoanKernel",
            "label": "adminRole",
            "offset": 0,
            "slot": "1",
            "type": "t_bytes32"
          }
        ],
        "numberOfBytes": "64"
      },
      "t_struct(Set)7257_storage": {
        "encoding": "inplace",
        "label": "struct EnumerableSetUpgradeable.Set",
        "members": [
          {
            "astId": 7252,
            "contract": "contracts/protocol/loan/LoanKernel.sol:LoanKernel",
            "label": "_values",
            "offset": 0,
            "slot": "0",
            "type": "t_array(t_bytes32)dyn_storage"
          },
          {
            "astId": 7256,
            "contract": "contracts/protocol/loan/LoanKernel.sol:LoanKernel",
            "label": "_indexes",
            "offset": 0,
            "slot": "1",
            "type": "t_mapping(t_bytes32,t_uint256)"
          }
        ],
        "numberOfBytes": "64"
      },
      "t_uint256": {
        "encoding": "inplace",
        "label": "uint256",
        "numberOfBytes": "32"
      },
      "t_uint8": {
        "encoding": "inplace",
        "label": "uint8",
        "numberOfBytes": "1"
      }
    }
  }
}