{
  "address": "0x299eAb1041cFC69B49E023917427f85430fA5363",
  "abi": [
    {
      "anonymous": false,
      "inputs": [
        {
          "indexed": false,
          "internalType": "uint8",
          "name": "version",
          "type": "uint8"
        }
      ],
      "name": "Initialized",
      "type": "event"
    },
    {
      "anonymous": false,
      "inputs": [
        {
          "indexed": false,
          "internalType": "address",
          "name": "account",
          "type": "address"
        }
      ],
      "name": "Paused",
      "type": "event"
    },
    {
      "anonymous": false,
      "inputs": [
        {
          "indexed": true,
          "internalType": "bytes32",
          "name": "role",
          "type": "bytes32"
        },
        {
          "indexed": true,
          "internalType": "bytes32",
          "name": "previousAdminRole",
          "type": "bytes32"
        },
        {
          "indexed": true,
          "internalType": "bytes32",
          "name": "newAdminRole",
          "type": "bytes32"
        }
      ],
      "name": "RoleAdminChanged",
      "type": "event"
    },
    {
      "anonymous": false,
      "inputs": [
        {
          "indexed": true,
          "internalType": "bytes32",
          "name": "role",
          "type": "bytes32"
        },
        {
          "indexed": true,
          "internalType": "address",
          "name": "account",
          "type": "address"
        },
        {
          "indexed": true,
          "internalType": "address",
          "name": "sender",
          "type": "address"
        }
      ],
      "name": "RoleGranted",
      "type": "event"
    },
    {
      "anonymous": false,
      "inputs": [
        {
          "indexed": true,
          "internalType": "bytes32",
          "name": "role",
          "type": "bytes32"
        },
        {
          "indexed": true,
          "internalType": "address",
          "name": "account",
          "type": "address"
        },
        {
          "indexed": true,
          "internalType": "address",
          "name": "sender",
          "type": "address"
        }
      ],
      "name": "RoleRevoked",
      "type": "event"
    },
    {
      "anonymous": false,
      "inputs": [
        {
          "indexed": false,
          "internalType": "bool",
          "name": "hasStarted",
          "type": "bool"
        }
      ],
      "name": "SetHasStarted",
      "type": "event"
    },
    {
      "anonymous": false,
      "inputs": [
        {
          "indexed": true,
          "internalType": "address",
          "name": "purchaser",
          "type": "address"
        },
        {
          "indexed": true,
          "internalType": "address",
          "name": "beneficiary",
          "type": "address"
        },
        {
          "indexed": false,
          "internalType": "uint256",
          "name": "value",
          "type": "uint256"
        },
        {
          "indexed": false,
          "internalType": "uint256",
          "name": "amount",
          "type": "uint256"
        }
      ],
      "name": "TokensPurchased",
      "type": "event"
    },
    {
      "anonymous": false,
      "inputs": [
        {
          "indexed": false,
          "internalType": "address",
          "name": "account",
          "type": "address"
        }
      ],
      "name": "Unpaused",
      "type": "event"
    },
    {
      "anonymous": false,
      "inputs": [
        {
          "indexed": false,
          "internalType": "uint256",
          "name": "initialAmount",
          "type": "uint256"
        }
      ],
      "name": "UpdateInitialAmount",
      "type": "event"
    },
    {
      "anonymous": false,
      "inputs": [
        {
          "indexed": false,
          "internalType": "uint256",
          "name": "minBidAmount",
          "type": "uint256"
        }
      ],
      "name": "UpdateMinBidAmount",
      "type": "event"
    },
    {
      "anonymous": false,
      "inputs": [
        {
          "indexed": false,
          "internalType": "uint256",
          "name": "totalCap",
          "type": "uint256"
        }
      ],
      "name": "UpdateTotalCap",
      "type": "event"
    },
    {
      "inputs": [],
      "name": "DEFAULT_ADMIN_ROLE",
      "outputs": [
        {
          "internalType": "bytes32",
          "name": "",
          "type": "bytes32"
        }
      ],
      "stateMutability": "view",
      "type": "function"
    },
    {
      "inputs": [
        {
          "internalType": "address",
          "name": "",
          "type": "address"
        }
      ],
      "name": "_currencyRaisedByInvestor",
      "outputs": [
        {
          "internalType": "uint256",
          "name": "",
          "type": "uint256"
        }
      ],
      "stateMutability": "view",
      "type": "function"
    },
    {
      "inputs": [
        {
          "internalType": "address",
          "name": "payee",
          "type": "address"
        },
        {
          "internalType": "address",
          "name": "beneficiary",
          "type": "address"
        },
        {
          "internalType": "uint256",
          "name": "currencyAmount",
          "type": "uint256"
        }
      ],
      "name": "buyTokens",
      "outputs": [
        {
          "internalType": "uint256",
          "name": "",
          "type": "uint256"
        }
      ],
      "stateMutability": "nonpayable",
      "type": "function"
    },
    {
      "inputs": [],
      "name": "currency",
      "outputs": [
        {
          "internalType": "address",
          "name": "",
          "type": "address"
        }
      ],
      "stateMutability": "view",
      "type": "function"
    },
    {
      "inputs": [],
      "name": "currencyRaised",
      "outputs": [
        {
          "internalType": "uint256",
          "name": "",
          "type": "uint256"
        }
      ],
      "stateMutability": "view",
      "type": "function"
    },
    {
      "inputs": [
        {
          "internalType": "address",
          "name": "investor",
          "type": "address"
        }
      ],
      "name": "currencyRaisedByInvestor",
      "outputs": [
        {
          "internalType": "uint256",
          "name": "",
          "type": "uint256"
        }
      ],
      "stateMutability": "view",
      "type": "function"
    },
    {
      "inputs": [],
      "name": "firstNoteTokenMintedTimestamp",
      "outputs": [
        {
          "internalType": "uint256",
          "name": "",
          "type": "uint256"
        }
      ],
      "stateMutability": "view",
      "type": "function"
    },
    {
      "inputs": [],
      "name": "getCurrencyRemainAmount",
      "outputs": [
        {
          "internalType": "uint256",
          "name": "",
          "type": "uint256"
        }
      ],
      "stateMutability": "view",
      "type": "function"
    },
    {
      "inputs": [],
      "name": "getInitializedVersion",
      "outputs": [
        {
          "internalType": "uint256",
          "name": "",
          "type": "uint256"
        }
      ],
      "stateMutability": "view",
      "type": "function"
    },
    {
      "inputs": [
        {
          "internalType": "bytes32",
          "name": "role",
          "type": "bytes32"
        }
      ],
      "name": "getRoleAdmin",
      "outputs": [
        {
          "internalType": "bytes32",
          "name": "",
          "type": "bytes32"
        }
      ],
      "stateMutability": "view",
      "type": "function"
    },
    {
      "inputs": [
        {
          "internalType": "bytes32",
          "name": "role",
          "type": "bytes32"
        },
        {
          "internalType": "uint256",
          "name": "index",
          "type": "uint256"
        }
      ],
      "name": "getRoleMember",
      "outputs": [
        {
          "internalType": "address",
          "name": "",
          "type": "address"
        }
      ],
      "stateMutability": "view",
      "type": "function"
    },
    {
      "inputs": [
        {
          "internalType": "bytes32",
          "name": "role",
          "type": "bytes32"
        }
      ],
      "name": "getRoleMemberCount",
      "outputs": [
        {
          "internalType": "uint256",
          "name": "",
          "type": "uint256"
        }
      ],
      "stateMutability": "view",
      "type": "function"
    },
    {
      "inputs": [
        {
          "internalType": "uint256",
          "name": "currencyAmount",
          "type": "uint256"
        }
      ],
      "name": "getTokenAmount",
      "outputs": [
        {
          "internalType": "uint256",
          "name": "",
          "type": "uint256"
        }
      ],
      "stateMutability": "view",
      "type": "function"
    },
    {
      "inputs": [],
      "name": "getTokenPrice",
      "outputs": [
        {
          "internalType": "uint256",
          "name": "",
          "type": "uint256"
        }
      ],
      "stateMutability": "view",
      "type": "function"
    },
    {
      "inputs": [],
      "name": "getTokenRemainAmount",
      "outputs": [
        {
          "internalType": "uint256",
          "name": "",
          "type": "uint256"
        }
      ],
      "stateMutability": "view",
      "type": "function"
    },
    {
      "inputs": [
        {
          "internalType": "bytes32",
          "name": "role",
          "type": "bytes32"
        },
        {
          "internalType": "address",
          "name": "account",
          "type": "address"
        }
      ],
      "name": "grantRole",
      "outputs": [],
      "stateMutability": "nonpayable",
      "type": "function"
    },
    {
      "inputs": [
        {
          "internalType": "bytes32",
          "name": "role",
          "type": "bytes32"
        },
        {
          "internalType": "address",
          "name": "account",
          "type": "address"
        }
      ],
      "name": "hasRole",
      "outputs": [
        {
          "internalType": "bool",
          "name": "",
          "type": "bool"
        }
      ],
      "stateMutability": "view",
      "type": "function"
    },
    {
      "inputs": [],
      "name": "hasStarted",
      "outputs": [
        {
          "internalType": "bool",
          "name": "",
          "type": "bool"
        }
      ],
      "stateMutability": "view",
      "type": "function"
    },
    {
      "inputs": [],
      "name": "initialAmount",
      "outputs": [
        {
          "internalType": "uint256",
          "name": "",
          "type": "uint256"
        }
      ],
      "stateMutability": "view",
      "type": "function"
    },
    {
      "inputs": [
        {
          "internalType": "contract Registry",
          "name": "_registry",
          "type": "address"
        },
        {
          "internalType": "address",
          "name": "_pool",
          "type": "address"
        },
        {
          "internalType": "address",
          "name": "_token",
          "type": "address"
        },
        {
          "internalType": "address",
          "name": "_currency",
          "type": "address"
        },
        {
          "internalType": "uint256",
          "name": "_openingTime",
          "type": "uint256"
        }
      ],
      "name": "initialize",
      "outputs": [],
      "stateMutability": "nonpayable",
      "type": "function"
    },
    {
      "inputs": [],
      "name": "isAdmin",
      "outputs": [
        {
          "internalType": "bool",
          "name": "",
          "type": "bool"
        }
      ],
      "stateMutability": "view",
      "type": "function"
    },
    {
      "inputs": [],
      "name": "isDistributedFully",
      "outputs": [
        {
          "internalType": "bool",
          "name": "",
          "type": "bool"
        }
      ],
      "stateMutability": "view",
      "type": "function"
    },
    {
      "inputs": [],
      "name": "isOpen",
      "outputs": [
        {
          "internalType": "bool",
          "name": "",
          "type": "bool"
        }
      ],
      "stateMutability": "view",
      "type": "function"
    },
    {
      "inputs": [
        {
          "internalType": "uint256",
          "name": "currencyAmount",
          "type": "uint256"
        }
      ],
      "name": "isUnderTotalCap",
      "outputs": [
        {
          "internalType": "bool",
          "name": "",
          "type": "bool"
        }
      ],
      "stateMutability": "view",
      "type": "function"
    },
    {
      "inputs": [],
      "name": "minBidAmount",
      "outputs": [
        {
          "internalType": "uint256",
          "name": "",
          "type": "uint256"
        }
      ],
      "stateMutability": "view",
      "type": "function"
    },
    {
      "inputs": [
        {
          "internalType": "uint256",
          "name": "currencyAmount",
          "type": "uint256"
        }
      ],
      "name": "onRedeem",
      "outputs": [],
      "stateMutability": "nonpayable",
      "type": "function"
    },
    {
      "inputs": [],
      "name": "openingTime",
      "outputs": [
        {
          "internalType": "uint256",
          "name": "",
          "type": "uint256"
        }
      ],
      "stateMutability": "view",
      "type": "function"
    },
    {
      "inputs": [],
      "name": "pause",
      "outputs": [],
      "stateMutability": "nonpayable",
      "type": "function"
    },
    {
      "inputs": [],
      "name": "paused",
      "outputs": [
        {
          "internalType": "bool",
          "name": "",
          "type": "bool"
        }
      ],
      "stateMutability": "view",
      "type": "function"
    },
    {
      "inputs": [],
      "name": "pool",
      "outputs": [
        {
          "internalType": "address",
          "name": "",
          "type": "address"
        }
      ],
      "stateMutability": "view",
      "type": "function"
    },
    {
      "inputs": [],
      "name": "registry",
      "outputs": [
        {
          "internalType": "contract Registry",
          "name": "",
          "type": "address"
        }
      ],
      "stateMutability": "view",
      "type": "function"
    },
    {
      "inputs": [
        {
          "internalType": "bytes32",
          "name": "role",
          "type": "bytes32"
        },
        {
          "internalType": "address",
          "name": "account",
          "type": "address"
        }
      ],
      "name": "renounceRole",
      "outputs": [],
      "stateMutability": "nonpayable",
      "type": "function"
    },
    {
      "inputs": [
        {
          "internalType": "bytes32",
          "name": "role",
          "type": "bytes32"
        },
        {
          "internalType": "address",
          "name": "account",
          "type": "address"
        }
      ],
      "name": "revokeRole",
      "outputs": [],
      "stateMutability": "nonpayable",
      "type": "function"
    },
    {
      "inputs": [
        {
          "internalType": "bool",
          "name": "_hasStarted",
          "type": "bool"
        }
      ],
      "name": "setHasStarted",
      "outputs": [],
      "stateMutability": "nonpayable",
      "type": "function"
    },
    {
      "inputs": [
        {
          "internalType": "uint256",
          "name": "_initialAmount",
          "type": "uint256"
        }
      ],
      "name": "setInitialAmount",
      "outputs": [],
      "stateMutability": "nonpayable",
      "type": "function"
    },
    {
      "inputs": [
        {
          "internalType": "uint256",
          "name": "_minBidAmount",
          "type": "uint256"
        }
      ],
      "name": "setMinBidAmount",
      "outputs": [],
      "stateMutability": "nonpayable",
      "type": "function"
    },
    {
      "inputs": [
        {
          "internalType": "uint256",
          "name": "_openingTime",
          "type": "uint256"
        }
      ],
      "name": "setOpeningTime",
      "outputs": [],
      "stateMutability": "nonpayable",
      "type": "function"
    },
    {
      "inputs": [
        {
          "internalType": "bytes32",
          "name": "role",
          "type": "bytes32"
        },
        {
          "internalType": "bytes32",
          "name": "adminRole",
          "type": "bytes32"
        }
      ],
      "name": "setRoleAdmin",
      "outputs": [],
      "stateMutability": "nonpayable",
      "type": "function"
    },
    {
      "inputs": [
        {
          "internalType": "uint256",
          "name": "cap_",
          "type": "uint256"
        }
      ],
      "name": "setTotalCap",
      "outputs": [],
      "stateMutability": "nonpayable",
      "type": "function"
    },
    {
      "inputs": [
        {
          "internalType": "bytes4",
          "name": "interfaceId",
          "type": "bytes4"
        }
      ],
      "name": "supportsInterface",
      "outputs": [
        {
          "internalType": "bool",
          "name": "",
          "type": "bool"
        }
      ],
      "stateMutability": "view",
      "type": "function"
    },
    {
      "inputs": [],
      "name": "token",
      "outputs": [
        {
          "internalType": "address",
          "name": "",
          "type": "address"
        }
      ],
      "stateMutability": "view",
      "type": "function"
    },
    {
      "inputs": [],
      "name": "tokenRaised",
      "outputs": [
        {
          "internalType": "uint256",
          "name": "",
          "type": "uint256"
        }
      ],
      "stateMutability": "view",
      "type": "function"
    },
    {
      "inputs": [],
      "name": "totalCap",
      "outputs": [
        {
          "internalType": "uint256",
          "name": "",
          "type": "uint256"
        }
      ],
      "stateMutability": "view",
      "type": "function"
    },
    {
      "inputs": [],
      "name": "totalCapReached",
      "outputs": [
        {
          "internalType": "bool",
          "name": "",
          "type": "bool"
        }
      ],
      "stateMutability": "view",
      "type": "function"
    },
    {
      "inputs": [],
      "name": "unpause",
      "outputs": [],
      "stateMutability": "nonpayable",
      "type": "function"
    }
  ],
  "transactionHash": "0xf618ad25f3a32c9abded8336a298db3dbafa5218249a19d7e37287880460d652",
  "args": [],
  "numDeployments": 4,
  "solcInputHash": "59588a77e86657edaa691fc549aaaac9",
  "bytecode": "0x608060405234801561001057600080fd5b5061275c806100206000396000f3fe608060405234801561001057600080fd5b506004361061027f5760003560e01c80639010d07c1161015c578063c2507ac1116100ce578063e1884b0f11610087578063e1884b0f1461053b578063e5a6b10f1461054e578063ea7bb4bd14610562578063f7013ef614610575578063fc0c546a14610588578063fc1ed4371461059c57600080fd5b8063c2507ac1146104bb578063ca15c873146104ce578063d547741f146104e1578063d7d55a4a146104f4578063dcefa53814610507578063e17574a11461051a57600080fd5b8063abdd11a811610120578063abdd11a814610470578063b0efc32914610483578063b3c6501514610496578063b6db75a0146104a1578063b7a8807c146104a9578063b94883d5146104b357600080fd5b80639010d07c1461042f57806391d1485414610442578063998ba4fc146104555780639b52fe331461045e578063a217fddf1461046857600080fd5b8063417fd6b6116101f55780635c975abb116101b95780635c975abb146103df5780635d4eeb26146103ea5780637a0e80d7146103f25780637b103999146104005780637f01b46a146104145780638456cb591461042757600080fd5b8063417fd6b61461039957806344691f7e146103ac57806347535d7b146103c157806349751788146103cd5780634b94f50e146103d757600080fd5b80631e4e0091116102475780631e4e009114610329578063248a9ca31461033e57806326a21575146103615780632f2ff15d1461036b57806336568abe1461037e5780633f4ba83a1461039157600080fd5b806301ffc9a7146102845780630324be71146102ac57806316450092146102e457806316f0115b146102ee57806319f06e331461031a575b600080fd5b610297610292366004612159565b6105a6565b60405190151581526020015b60405180910390f35b6102d66102ba366004612198565b6001600160a01b0316600090815261016a602052604090205490565b6040519081526020016102a3565b6102d66101665481565b61016054610302906001600160a01b031681565b6040516001600160a01b0390911681526020016102a3565b61016654610164541015610297565b61033c6103373660046121b5565b6105d1565b005b6102d661034c3660046121d7565b600090815260c9602052604090206001015490565b6102d66101655481565b61033c6103793660046121f0565b6105eb565b61033c61038c3660046121f0565b610610565b61033c610693565b61033c6103a73660046121d7565b6106c1565b6101605461029790600160a01b900460ff1681565b61016954421015610297565b6102d66101675481565b6102d661076b565b60335460ff16610297565b6102d6610804565b610166546101645414610297565b61015f54610302906001600160a01b031681565b6102976104223660046121d7565b610836565b61033c610853565b61030261043d3660046121b5565b61087f565b6102976104503660046121f0565b61089e565b610164546102d6565b6102d66101635481565b6102d6600081565b61033c61047e3660046121d7565b6108c9565b61033c6104913660046121d7565b610934565b60005460ff166102d6565b6102976109d7565b6102d66101695481565b6102d6610a02565b6102d66104c93660046121d7565b610a16565b6102d66104dc3660046121d7565b610ac1565b61033c6104ef3660046121f0565b610ad8565b61033c6105023660046121d7565b610afd565b6102d6610515366004612220565b610ba7565b6102d6610528366004612198565b61016a6020526000908152604090205481565b61033c6105493660046121d7565b610ebf565b61016254610302906001600160a01b031681565b61033c61057036600461226f565b610f38565b61033c61058336600461228c565b610ff3565b61016154610302906001600160a01b031681565b6102d66101685481565b60006001600160e01b03198216635a05180f60e01b14806105cb57506105cb82611260565b92915050565b60006105dc81611295565b6105e6838361129f565b505050565b600082815260c9602052604090206001015461060681611295565b6105e683836112ea565b6001600160a01b03811633146106855760405162461bcd60e51b815260206004820152602f60248201527f416363657373436f6e74726f6c3a2063616e206f6e6c792072656e6f756e636560448201526e103937b632b9903337b91039b2b63360891b60648201526084015b60405180910390fd5b61068f828261130c565b5050565b61069b6109d7565b6106b75760405162461bcd60e51b815260040161067c906122f0565b6106bf61132e565b565b6106c9611380565b6106e16000805160206127078339815191523361089e565b80610712575061015f546106fd906001600160a01b03166113c6565b6001600160a01b0316336001600160a01b0316145b61072e5760405162461bcd60e51b815260040161067c9061234d565b6101678190556040518181527f2bc4b9fa5449471c716310263f78104dee5bcb66018bcdb48fd1f61f5de81a1b906020015b60405180910390a150565b61015f54600090610784906001600160a01b03166113d3565b6101605461016154604051637f26468d60e01b81526001600160a01b0392831660048201529082166024820152911690637f26468d906044015b602060405180830381865afa1580156107db573d6000803e3d6000fd5b505050506040513d601f19601f820116820180604052508101906107ff919061239d565b905090565b610161546040516370a0823160e01b81523060048201526000916001600160a01b0316906370a08231906024016107be565b600061016654826101645461084b91906123cc565b111592915050565b61085b6109d7565b6108775760405162461bcd60e51b815260040161067c906122f0565b6106bf6113e0565b600082815260fb60205260408120610897908361141d565b9392505050565b600091825260c9602090815260408084206001600160a01b0393909316845291905290205460ff1690565b6108e16000805160206127078339815191523361089e565b80610912575061015f546108fd906001600160a01b03166113c6565b6001600160a01b0316336001600160a01b0316145b61092e5760405162461bcd60e51b815260040161067c9061234d565b61016955565b61093c611380565b6109546000805160206127078339815191523361089e565b80610985575061015f54610970906001600160a01b03166113c6565b6001600160a01b0316336001600160a01b0316145b6109a15760405162461bcd60e51b815260040161067c906123df565b6101688190556040518181527f0979af31fa6fa6db518b12df0be48bc7e2d3f09c3c3eead5718d62e988960fc990602001610760565b60006109f16000805160206127078339815191523361089e565b806107ff57506107ff60003361089e565b600061016454610166546107ff919061242f565b600080610a2161076b565b905080600003610a345750600092915050565b610161546040805163313ce56760e01b8152905183926001600160a01b03169163313ce5679160048083019260209291908290030181865afa158015610a7e573d6000803e3d6000fd5b505050506040513d601f19601f82011682018060405250810190610aa29190612442565b610aad90600a612549565b610ab79085612558565b610897919061256f565b600081815260fb602052604081206105cb90611429565b600082815260c96020526040902060010154610af381611295565b6105e6838361130c565b61015f54610b13906001600160a01b0316611433565b6001600160a01b0316336001600160a01b031614610b8c5760405162461bcd60e51b815260206004820152603060248201527f4d696e7465644e6f726d616c5447453a2043616c6c6572206d7573742062652060448201526f139bdd19481d1bdad95b881d985d5b1d60821b606482015260840161067c565b806101646000828254610b9f919061242f565b909155505050565b6000610bb1611380565b610bb9611440565b61015f54610bcf906001600160a01b03166113c6565b6001600160a01b0316336001600160a01b031614610c4e5760405162461bcd60e51b815260206004820152603660248201527f4d696e7465644e6f726d616c5447453a2043616c6c6572206d7573742062652060448201527539b2b1bab934ba34bd30ba34b7b71036b0b730b3b2b960511b606482015260840161067c565b61016954421015610ca15760405162461bcd60e51b815260206004820181905260248201527f4d696e7465644e6f726d616c5447453a204e6f74206f70656e20746f20627579604482015260640161067c565b6000610cac83610a16565b9050610cb9848483611499565b826101646000828254610ccc91906123cc565b90915550506001600160a01b038416600090815261016a602052604081208054859290610cfa9084906123cc565b90915550506101605460408051636eb4458760e11b815290516001600160a01b0390921691829163dd688b0e9160048083019260209291908290030181865afa158015610d4b573d6000803e3d6000fd5b505050506040513d601f19601f82011682018060405250810190610d6f9190612591565b610dc95760405162461bcd60e51b815260206004820152602560248201527f4d696e7465644e6f726d616c5447453a20457863656564732044656274204365604482015264696c696e6760d81b606482015260840161067c565b816101656000828254610ddc91906123cc565b90915550610dec9050868561167b565b610df6858361175e565b61016054604080516325d11b1d60e11b81529051610e6c926001600160a01b031691634ba2363a9160048083019260209291908290030181865afa158015610e42573d6000803e3d6000fd5b505050506040513d601f19601f82011682018060405250810190610e6691906125ae565b85611911565b60408051858152602081018490526001600160a01b0387169133917f6faf93231a456e552dbc9961f58d9713ee4f2e69d15f1975b050ef0911053a7b910160405180910390a35090506108976001606555565b610ec7611380565b610edf6000805160206127078339815191523361089e565b80610f10575061015f54610efb906001600160a01b03166113c6565b6001600160a01b0316336001600160a01b0316145b610f2c5760405162461bcd60e51b815260040161067c906123df565b610f35816119e6565b50565b610f506000805160206127078339815191523361089e565b80610f81575061015f54610f6c906001600160a01b03166113c6565b6001600160a01b0316336001600160a01b0316145b610f9d5760405162461bcd60e51b815260040161067c9061234d565b610160805460ff60a01b1916600160a01b8315158102919091179182905560405160ff9190920416151581527fab34f9b8831f3ca42a730d92c06cef6c44746cf5c9ec3f2d7b510645dcba885790602001610760565b600054610100900460ff16158080156110135750600054600160ff909116105b8061102d5750303b15801561102d575060005460ff166001145b6110905760405162461bcd60e51b815260206004820152602e60248201527f496e697469616c697a61626c653a20636f6e747261637420697320616c72656160448201526d191e481a5b9a5d1a585b1a5e995960921b606482015260840161067c565b6000805460ff1916600117905580156110b3576000805461ff0019166101001790555b6110bc33611ad6565b6001600160a01b0385166111125760405162461bcd60e51b815260206004820152601c60248201527f506f6f6c20616464726573732063616e6e6f7420626520656d70747900000000604482015260640161067c565b6001600160a01b0384166111685760405162461bcd60e51b815260206004820152601d60248201527f546f6b656e20616464726573732063616e6e6f7420626520656d707479000000604482015260640161067c565b6001600160a01b0383166111be5760405162461bcd60e51b815260206004820181905260248201527f43757272656e637920616464726573732063616e6e6f7420626520656d707479604482015260640161067c565b61015f80546001600160a01b038089166001600160a01b031992831617909255610160805488841690831617905561016180548784169083161790556101628054928616929091169190911790556101698290558015611258576000805461ff0019169055604051600181527f7f26b83ff96e1f2b6a682f133852f6798a09c465da95921460cefb38474024989060200160405180910390a15b505050505050565b60006001600160e01b03198216637965db0b60e01b14806105cb57506301ffc9a760e01b6001600160e01b03198316146105cb565b610f358133611bf7565b600082815260c96020526040808220600101805490849055905190918391839186917fbd79b86ffe0ab8e8776151514217cd7cacd52c909f66475c3af44e129f0b00ff9190a4505050565b6112f48282611c50565b600082815260fb602052604090206105e69082611cd6565b6113168282611ceb565b600082815260fb602052604090206105e69082611d52565b611336611d67565b6033805460ff191690557f5db9ee0a495bf2e6ff9c91a7834c1ba4fdd244a5e8aa4e537bd38aeae4b073aa335b6040516001600160a01b03909116815260200160405180910390a1565b60335460ff16156106bf5760405162461bcd60e51b815260206004820152601060248201526f14185d5cd8589b194e881c185d5cd95960821b604482015260640161067c565b60006105cb826000611db0565b60006105cb826007611db0565b6113e8611380565b6033805460ff191660011790557f62e78cea01bee320cd4e420270b5ea74000d11b0c9f74754ebdbfc544b05a2586113633390565b60006108978383611e35565b60006105cb825490565b60006105cb826009611db0565b6002606554036114925760405162461bcd60e51b815260206004820152601f60248201527f5265656e7472616e637947756172643a207265656e7472616e742063616c6c00604482015260640161067c565b6002606555565b61016054600160a01b900460ff166114fd5760405162461bcd60e51b815260206004820152602160248201527f4d696e7465644e6f726d616c5447453a2073616c65206e6f74207374617274656044820152601960fa1b606482015260840161067c565b610167548210156115605760405162461bcd60e51b815260206004820152602760248201527f4d696e7465644e6f726d616c5447453a204c657373207468616e206d696e426960448201526619105b5bdd5b9d60ca1b606482015260840161067c565b6001600160a01b0383166115cb5760405162461bcd60e51b815260206004820152602c60248201527f4d696e7465644e6f726d616c5447453a2062656e65666963696172792069732060448201526b7a65726f206164647265737360a01b606482015260840161067c565b806000036116265760405162461bcd60e51b815260206004820152602260248201527f4d696e7465644e6f726d616c5447453a20746f6b656e20616d6f756e74206973604482015261020360f41b606482015260840161067c565b61162f82610836565b6105e65760405162461bcd60e51b815260206004820152601d60248201527f4d696e7465644e6f726d616c5447453a20636170206578636565646564000000604482015260640161067c565b610162546040516323b872dd60e01b81526001600160a01b03848116600483015230602483015260448201849052909116906323b872dd906064016020604051808303816000875af11580156116d5573d6000803e3d6000fd5b505050506040513d601f19601f820116820180604052508101906116f99190612591565b61068f5760405162461bcd60e51b815260206004820152603060248201527f4661696c20746f207472616e736665722063757272656e63792066726f6d207060448201526f185e5959481d1bc818dbdb9d1c9858dd60821b606482015260840161067c565b610161546001600160a01b0316600060ff16816001600160a01b031662b7f6816040518163ffffffff1660e01b8152600401602060405180830381865afa1580156117ad573d6000803e3d6000fd5b505050506040513d601f19601f820116820180604052508101906117d19190612442565b60ff161480156118405750806001600160a01b03166318160ddd6040518163ffffffff1660e01b8152600401602060405180830381865afa15801561181a573d6000803e3d6000fd5b505050506040513d601f19601f8201168201806040525081019061183e919061239d565b155b156118aa57426101635561016054604080516301aab1fb60e21b815290516001600160a01b03909216916306aac7ec9160048082019260009290919082900301818387803b15801561189157600080fd5b505af11580156118a5573d6000803e3d6000fd5b505050505b6040516340c10f1960e01b81526001600160a01b038481166004830152602482018490528216906340c10f1990604401600060405180830381600087803b1580156118f457600080fd5b505af1158015611908573d6000803e3d6000fd5b50505050505050565b6101625460405163a9059cbb60e01b81526001600160a01b038481166004830152602482018490529091169063a9059cbb906044016020604051808303816000875af1158015611965573d6000803e3d6000fd5b505050506040513d601f19601f820116820180604052508101906119899190612591565b61068f5760405162461bcd60e51b815260206004820152602860248201527f4661696c20746f207472616e736665722063757272656e637920746f2042656e604482015267656669636961727960c01b606482015260840161067c565b60008111611a365760405162461bcd60e51b815260206004820152601960248201527f4d696e7465644e6f726d616c5447453a20636170206973203000000000000000604482015260640161067c565b61016454811015611aa05760405162461bcd60e51b815260206004820152602e60248201527f4d696e7465644e6f726d616c5447453a206361702069732062656c6c6f77206360448201526d1d5c9c995b98de481c985a5cd95960921b606482015260840161067c565b6101668190556040518181527f04b847fea6b95515f8ef8fa76a5e06d1dc35b0c6dbf10ced7acd9d5d93808f8d90602001610760565b600054610100900460ff16611b415760405162461bcd60e51b815260206004820152602b60248201527f496e697469616c697a61626c653a20636f6e7472616374206973206e6f74206960448201526a6e697469616c697a696e6760a81b606482015260840161067c565b6001600160a01b038116611b525750335b611b5d600033611e5f565b611b7560008051602061270783398151915282611e5f565b611bad7f59abfac6520ec36a6556b2a4dd949cc40007459bcd5cd2507f1e5cc77b6bc97e60008051602061270783398151915261129f565b610f357f21702c8af46127c7fa207f89d0b0a8441bb32959a0ac7df790e9ab1a25c989267f3e9c05fb0f9da4414e033bb9bf190a6e2072adf7e3077394fce683220513b8d761129f565b611c01828261089e565b61068f57611c0e81611e69565b611c19836020611e7b565b604051602001611c2a929190612605565b60408051601f198184030181529082905262461bcd60e51b825261067c9160040161267a565b611c5a828261089e565b61068f57600082815260c9602090815260408083206001600160a01b03851684529091529020805460ff19166001179055611c923390565b6001600160a01b0316816001600160a01b0316837f2f8788117e7eff1d82e926ec794901d17c78024a50270940304540a733656f0d60405160405180910390a45050565b6000610897836001600160a01b038416612017565b611cf5828261089e565b1561068f57600082815260c9602090815260408083206001600160a01b0385168085529252808320805460ff1916905551339285917ff6391f5c32d9c69d2a47ea670b442974b53935d1edc7fd64eb21e047a839171b9190a45050565b6000610897836001600160a01b038416612066565b60335460ff166106bf5760405162461bcd60e51b815260206004820152601460248201527314185d5cd8589b194e881b9bdd081c185d5cd95960621b604482015260640161067c565b6000826001600160a01b031663bcaa0c55836009811115611dd357611dd36125cb565b6040516001600160e01b031960e084901b16815260ff9091166004820152602401602060405180830381865afa158015611e11573d6000803e3d6000fd5b505050506040513d601f19601f8201168201806040525081019061089791906125ae565b6000826000018281548110611e4c57611e4c6126ad565b9060005260206000200154905092915050565b61068f82826112ea565b60606105cb6001600160a01b03831660145b60606000611e8a836002612558565b611e959060026123cc565b67ffffffffffffffff811115611ead57611ead6126c3565b6040519080825280601f01601f191660200182016040528015611ed7576020820181803683370190505b509050600360fc1b81600081518110611ef257611ef26126ad565b60200101906001600160f81b031916908160001a905350600f60fb1b81600181518110611f2157611f216126ad565b60200101906001600160f81b031916908160001a9053506000611f45846002612558565b611f509060016123cc565b90505b6001811115611fc8576f181899199a1a9b1b9c1cb0b131b232b360811b85600f1660108110611f8457611f846126ad565b1a60f81b828281518110611f9a57611f9a6126ad565b60200101906001600160f81b031916908160001a90535060049490941c93611fc1816126d9565b9050611f53565b5083156108975760405162461bcd60e51b815260206004820181905260248201527f537472696e67733a20686578206c656e67746820696e73756666696369656e74604482015260640161067c565b600081815260018301602052604081205461205e575081546001818101845560008481526020808220909301849055845484825282860190935260409020919091556105cb565b5060006105cb565b6000818152600183016020526040812054801561214f57600061208a60018361242f565b855490915060009061209e9060019061242f565b90508181146121035760008660000182815481106120be576120be6126ad565b90600052602060002001549050808760000184815481106120e1576120e16126ad565b6000918252602080832090910192909255918252600188019052604090208390555b8554869080612114576121146126f0565b6001900381819060005260206000200160009055905585600101600086815260200190815260200160002060009055600193505050506105cb565b60009150506105cb565b60006020828403121561216b57600080fd5b81356001600160e01b03198116811461089757600080fd5b6001600160a01b0381168114610f3557600080fd5b6000602082840312156121aa57600080fd5b813561089781612183565b600080604083850312156121c857600080fd5b50508035926020909101359150565b6000602082840312156121e957600080fd5b5035919050565b6000806040838503121561220357600080fd5b82359150602083013561221581612183565b809150509250929050565b60008060006060848603121561223557600080fd5b833561224081612183565b9250602084013561225081612183565b929592945050506040919091013590565b8015158114610f3557600080fd5b60006020828403121561228157600080fd5b813561089781612261565b600080600080600060a086880312156122a457600080fd5b85356122af81612183565b945060208601356122bf81612183565b935060408601356122cf81612183565b925060608601356122df81612183565b949793965091946080013592915050565b6020808252603a908201527f556e74616e676c6564426173653a204d75737420686176652061646d696e207260408201527f6f6c6520746f20706572666f726d207468697320616374696f6e000000000000606082015260800190565b60208082526030908201527f4d696e7465644e6f726d616c5447453a2063616c6c6572206d7573742062652060408201526f37bbb732b91037b91036b0b730b3b2b960811b606082015260800190565b6000602082840312156123af57600080fd5b5051919050565b634e487b7160e01b600052601160045260246000fd5b808201808211156105cb576105cb6123b6565b60208082526030908201527f4d696e7465644e6f726d616c5447453a2043616c6c6572206d7573742062652060408201526f37bbb732b91037b91036b0b730b3b2b960811b606082015260800190565b818103818111156105cb576105cb6123b6565b60006020828403121561245457600080fd5b815160ff8116811461089757600080fd5b600181815b808511156124a0578160001904821115612486576124866123b6565b8085161561249357918102915b93841c939080029061246a565b509250929050565b6000826124b7575060016105cb565b816124c4575060006105cb565b81600181146124da57600281146124e457612500565b60019150506105cb565b60ff8411156124f5576124f56123b6565b50506001821b6105cb565b5060208310610133831016604e8410600b8410161715612523575081810a6105cb565b61252d8383612465565b8060001904821115612541576125416123b6565b029392505050565b600061089760ff8416836124a8565b80820281158282048414176105cb576105cb6123b6565b60008261258c57634e487b7160e01b600052601260045260246000fd5b500490565b6000602082840312156125a357600080fd5b815161089781612261565b6000602082840312156125c057600080fd5b815161089781612183565b634e487b7160e01b600052602160045260246000fd5b60005b838110156125fc5781810151838201526020016125e4565b50506000910152565b7f416363657373436f6e74726f6c3a206163636f756e742000000000000000000081526000835161263d8160178501602088016125e1565b7001034b99036b4b9b9b4b733903937b6329607d1b601791840191820152835161266e8160288401602088016125e1565b01602801949350505050565b60208152600082518060208401526126998160408501602087016125e1565b601f01601f19169190910160400192915050565b634e487b7160e01b600052603260045260246000fd5b634e487b7160e01b600052604160045260246000fd5b6000816126e8576126e86123b6565b506000190190565b634e487b7160e01b600052603160045260246000fdfeb19546dff01e856fb3f010c267a7b1c60363cf8a4664e21cc89c26224620214ea26469706673582212201344ef07a30441d2ee006b60c41c22b6f069b83689283fbbd4f6836366f2a6cf64736f6c63430008130033",
  "devdoc": {
    "author": "Untangled Team",
    "details": "Note sale for JOT",
    "events": {
      "Initialized(uint8)": {
        "details": "Triggered when the contract has been initialized or reinitialized."
      },
      "Paused(address)": {
        "details": "Emitted when the pause is triggered by `account`."
      },
      "RoleAdminChanged(bytes32,bytes32,bytes32)": {
        "details": "Emitted when `newAdminRole` is set as ``role``'s admin role, replacing `previousAdminRole` `DEFAULT_ADMIN_ROLE` is the starting admin for all roles, despite {RoleAdminChanged} not being emitted signaling this. _Available since v3.1._"
      },
      "RoleGranted(bytes32,address,address)": {
        "details": "Emitted when `account` is granted `role`. `sender` is the account that originated the contract call, an admin role bearer except when using {AccessControl-_setupRole}."
      },
      "RoleRevoked(bytes32,address,address)": {
        "details": "Emitted when `account` is revoked `role`. `sender` is the account that originated the contract call:   - if using `revokeRole`, it is the admin role bearer   - if using `renounceRole`, it is the role bearer (i.e. `account`)"
      },
      "Unpaused(address)": {
        "details": "Emitted when the pause is lifted by `account`."
      }
    },
    "kind": "dev",
    "methods": {
      "buyTokens(address,address,uint256)": {
        "params": {
          "beneficiary": "wallet receives note token",
          "currencyAmount": "amount of currency used for purchase",
          "payee": "pay for purchase"
        }
      },
      "getRoleAdmin(bytes32)": {
        "details": "Returns the admin role that controls `role`. See {grantRole} and {revokeRole}. To change a role's admin, use {_setRoleAdmin}."
      },
      "getRoleMember(bytes32,uint256)": {
        "details": "Returns one of the accounts that have `role`. `index` must be a value between 0 and {getRoleMemberCount}, non-inclusive. Role bearers are not sorted in any particular way, and their ordering may change at any point. WARNING: When using {getRoleMember} and {getRoleMemberCount}, make sure you perform all queries on the same block. See the following https://forum.openzeppelin.com/t/iterating-over-elements-on-enumerableset-in-openzeppelin-contracts/2296[forum post] for more information."
      },
      "getRoleMemberCount(bytes32)": {
        "details": "Returns the number of accounts that have `role`. Can be used together with {getRoleMember} to enumerate all bearers of a role."
      },
      "grantRole(bytes32,address)": {
        "details": "Grants `role` to `account`. If `account` had not been already granted `role`, emits a {RoleGranted} event. Requirements: - the caller must have ``role``'s admin role. May emit a {RoleGranted} event."
      },
      "hasRole(bytes32,address)": {
        "details": "Returns `true` if `account` has been granted `role`."
      },
      "onRedeem(uint256)": {
        "params": {
          "currencyAmount": "amount of currency investor want to redeem"
        }
      },
      "paused()": {
        "details": "Returns true if the contract is paused, and false otherwise."
      },
      "renounceRole(bytes32,address)": {
        "details": "Revokes `role` from the calling account. Roles are often managed via {grantRole} and {revokeRole}: this function's purpose is to provide a mechanism for accounts to lose their privileges if they are compromised (such as when a trusted device is misplaced). If the calling account had been revoked `role`, emits a {RoleRevoked} event. Requirements: - the caller must be `account`. May emit a {RoleRevoked} event."
      },
      "revokeRole(bytes32,address)": {
        "details": "Revokes `role` from `account`. If `account` had been granted `role`, emits a {RoleRevoked} event. Requirements: - the caller must have ``role``'s admin role. May emit a {RoleRevoked} event."
      },
      "setInitialAmount(uint256)": {
        "params": {
          "_initialAmount": "Expected minimum amount of JOT before SOT start"
        }
      },
      "setMinBidAmount(uint256)": {
        "params": {
          "_minBidAmount": "Expected minimum amount"
        }
      },
      "supportsInterface(bytes4)": {
        "details": "See {IERC165-supportsInterface}."
      }
    },
    "stateVariables": {
      "_currencyRaised": {
        "details": "Amount of currency raised"
      },
      "currency": {
        "details": "The token being sold"
      },
      "firstNoteTokenMintedTimestamp": {
        "details": "Timestamp at which the first asset is collected to pool"
      },
      "minBidAmount": {
        "details": "Minimum currency bid amount for note token"
      },
      "pool": {
        "details": "Pool address which this sale belongs to"
      },
      "token": {
        "details": "The token being sold"
      },
      "tokenRaised": {
        "details": "Amount of token raised"
      },
      "totalCap": {
        "details": "Target raised currency amount"
      }
    },
    "title": "MintedNormalTGE",
    "version": 1
  },
  "userdoc": {
    "kind": "user",
    "methods": {
      "buyTokens(address,address,uint256)": {
        "notice": "Allows users to buy note token"
      },
      "getCurrencyRemainAmount()": {
        "notice": "Calculates the remaining amount of currency available for purchase"
      },
      "getTokenRemainAmount()": {
        "notice": "Retrieves the remaining token balance held by the MintedNormalTGE contract"
      },
      "isDistributedFully()": {
        "notice": "Check if the total amount of currency raised is equal to the total cap"
      },
      "isUnderTotalCap(uint256)": {
        "notice": "Checks if the sum of the current currency raised and the specified currency amount is less than or equal to the total cap"
      },
      "onRedeem(uint256)": {
        "notice": "Catch event redeem token"
      },
      "setHasStarted(bool)": {
        "notice": "Set hasStarted variable"
      },
      "setInitialAmount(uint256)": {
        "notice": "Setup initial amount currency raised for JOT condition"
      },
      "setMinBidAmount(uint256)": {
        "notice": "Setup minimum bid amount in currency for note token"
      },
      "setOpeningTime(uint256)": {
        "notice": "Set openingTime"
      },
      "totalCapReached()": {
        "notice": "Checks if the total amount of currency raised is greater than or equal to the total cap"
      }
    },
    "version": 1
  },
  "storageLayout": {
    "storage": [
      {
        "astId": 759,
        "contract": "contracts/protocol/note-sale/MintedNormalTGE.sol:MintedNormalTGE",
        "label": "_initialized",
        "offset": 0,
        "slot": "0",
        "type": "t_uint8"
      },
      {
        "astId": 762,
        "contract": "contracts/protocol/note-sale/MintedNormalTGE.sol:MintedNormalTGE",
        "label": "_initializing",
        "offset": 1,
        "slot": "0",
        "type": "t_bool"
      },
      {
        "astId": 4972,
        "contract": "contracts/protocol/note-sale/MintedNormalTGE.sol:MintedNormalTGE",
        "label": "__gap",
        "offset": 0,
        "slot": "1",
        "type": "t_array(t_uint256)50_storage"
      },
      {
        "astId": 942,
        "contract": "contracts/protocol/note-sale/MintedNormalTGE.sol:MintedNormalTGE",
        "label": "_paused",
        "offset": 0,
        "slot": "51",
        "type": "t_bool"
      },
      {
        "astId": 1047,
        "contract": "contracts/protocol/note-sale/MintedNormalTGE.sol:MintedNormalTGE",
        "label": "__gap",
        "offset": 0,
        "slot": "52",
        "type": "t_array(t_uint256)49_storage"
      },
      {
        "astId": 1062,
        "contract": "contracts/protocol/note-sale/MintedNormalTGE.sol:MintedNormalTGE",
        "label": "_status",
        "offset": 0,
        "slot": "101",
        "type": "t_uint256"
      },
      {
        "astId": 1131,
        "contract": "contracts/protocol/note-sale/MintedNormalTGE.sol:MintedNormalTGE",
        "label": "__gap",
        "offset": 0,
        "slot": "102",
        "type": "t_array(t_uint256)49_storage"
      },
      {
        "astId": 6262,
        "contract": "contracts/protocol/note-sale/MintedNormalTGE.sol:MintedNormalTGE",
        "label": "__gap",
        "offset": 0,
        "slot": "151",
        "type": "t_array(t_uint256)50_storage"
      },
      {
        "astId": 184,
        "contract": "contracts/protocol/note-sale/MintedNormalTGE.sol:MintedNormalTGE",
        "label": "_roles",
        "offset": 0,
        "slot": "201",
        "type": "t_mapping(t_bytes32,t_struct(RoleData)179_storage)"
      },
      {
        "astId": 479,
        "contract": "contracts/protocol/note-sale/MintedNormalTGE.sol:MintedNormalTGE",
        "label": "__gap",
        "offset": 0,
        "slot": "202",
        "type": "t_array(t_uint256)49_storage"
      },
      {
        "astId": 33,
        "contract": "contracts/protocol/note-sale/MintedNormalTGE.sol:MintedNormalTGE",
        "label": "_roleMembers",
        "offset": 0,
        "slot": "251",
        "type": "t_mapping(t_bytes32,t_struct(AddressSet)7572_storage)"
      },
      {
        "astId": 143,
        "contract": "contracts/protocol/note-sale/MintedNormalTGE.sol:MintedNormalTGE",
        "label": "__gap",
        "offset": 0,
        "slot": "252",
        "type": "t_array(t_uint256)49_storage"
      },
      {
        "astId": 10782,
        "contract": "contracts/protocol/note-sale/MintedNormalTGE.sol:MintedNormalTGE",
        "label": "__gap",
        "offset": 0,
        "slot": "301",
        "type": "t_array(t_uint256)50_storage"
      },
      {
        "astId": 21892,
        "contract": "contracts/protocol/note-sale/MintedNormalTGE.sol:MintedNormalTGE",
        "label": "registry",
        "offset": 0,
        "slot": "351",
        "type": "t_contract(Registry)28621"
      },
      {
        "astId": 21895,
        "contract": "contracts/protocol/note-sale/MintedNormalTGE.sol:MintedNormalTGE",
        "label": "pool",
        "offset": 0,
        "slot": "352",
        "type": "t_address"
      },
      {
        "astId": 21897,
        "contract": "contracts/protocol/note-sale/MintedNormalTGE.sol:MintedNormalTGE",
        "label": "hasStarted",
        "offset": 20,
        "slot": "352",
        "type": "t_bool"
      },
      {
        "astId": 21900,
        "contract": "contracts/protocol/note-sale/MintedNormalTGE.sol:MintedNormalTGE",
        "label": "token",
        "offset": 0,
        "slot": "353",
        "type": "t_address"
      },
      {
        "astId": 21903,
        "contract": "contracts/protocol/note-sale/MintedNormalTGE.sol:MintedNormalTGE",
        "label": "currency",
        "offset": 0,
        "slot": "354",
        "type": "t_address"
      },
      {
        "astId": 21906,
        "contract": "contracts/protocol/note-sale/MintedNormalTGE.sol:MintedNormalTGE",
        "label": "firstNoteTokenMintedTimestamp",
        "offset": 0,
        "slot": "355",
        "type": "t_uint256"
      },
      {
        "astId": 21909,
        "contract": "contracts/protocol/note-sale/MintedNormalTGE.sol:MintedNormalTGE",
        "label": "_currencyRaised",
        "offset": 0,
        "slot": "356",
        "type": "t_uint256"
      },
      {
        "astId": 21912,
        "contract": "contracts/protocol/note-sale/MintedNormalTGE.sol:MintedNormalTGE",
        "label": "tokenRaised",
        "offset": 0,
        "slot": "357",
        "type": "t_uint256"
      },
      {
        "astId": 21915,
        "contract": "contracts/protocol/note-sale/MintedNormalTGE.sol:MintedNormalTGE",
        "label": "totalCap",
        "offset": 0,
        "slot": "358",
        "type": "t_uint256"
      },
      {
        "astId": 21918,
        "contract": "contracts/protocol/note-sale/MintedNormalTGE.sol:MintedNormalTGE",
        "label": "minBidAmount",
        "offset": 0,
        "slot": "359",
        "type": "t_uint256"
      },
      {
        "astId": 21920,
        "contract": "contracts/protocol/note-sale/MintedNormalTGE.sol:MintedNormalTGE",
        "label": "initialAmount",
        "offset": 0,
        "slot": "360",
        "type": "t_uint256"
      },
      {
        "astId": 21922,
        "contract": "contracts/protocol/note-sale/MintedNormalTGE.sol:MintedNormalTGE",
        "label": "openingTime",
        "offset": 0,
        "slot": "361",
        "type": "t_uint256"
      },
      {
        "astId": 21926,
        "contract": "contracts/protocol/note-sale/MintedNormalTGE.sol:MintedNormalTGE",
        "label": "_currencyRaisedByInvestor",
        "offset": 0,
        "slot": "362",
        "type": "t_mapping(t_address,t_uint256)"
      }
    ],
    "types": {
      "t_address": {
        "encoding": "inplace",
        "label": "address",
        "numberOfBytes": "20"
      },
      "t_array(t_bytes32)dyn_storage": {
        "base": "t_bytes32",
        "encoding": "dynamic_array",
        "label": "bytes32[]",
        "numberOfBytes": "32"
      },
      "t_array(t_uint256)49_storage": {
        "base": "t_uint256",
        "encoding": "inplace",
        "label": "uint256[49]",
        "numberOfBytes": "1568"
      },
      "t_array(t_uint256)50_storage": {
        "base": "t_uint256",
        "encoding": "inplace",
        "label": "uint256[50]",
        "numberOfBytes": "1600"
      },
      "t_bool": {
        "encoding": "inplace",
        "label": "bool",
        "numberOfBytes": "1"
      },
      "t_bytes32": {
        "encoding": "inplace",
        "label": "bytes32",
        "numberOfBytes": "32"
      },
      "t_contract(Registry)28621": {
        "encoding": "inplace",
        "label": "contract Registry",
        "numberOfBytes": "20"
      },
      "t_mapping(t_address,t_bool)": {
        "encoding": "mapping",
        "key": "t_address",
        "label": "mapping(address => bool)",
        "numberOfBytes": "32",
        "value": "t_bool"
      },
      "t_mapping(t_address,t_uint256)": {
        "encoding": "mapping",
        "key": "t_address",
        "label": "mapping(address => uint256)",
        "numberOfBytes": "32",
        "value": "t_uint256"
      },
      "t_mapping(t_bytes32,t_struct(AddressSet)7572_storage)": {
        "encoding": "mapping",
        "key": "t_bytes32",
        "label": "mapping(bytes32 => struct EnumerableSetUpgradeable.AddressSet)",
        "numberOfBytes": "32",
        "value": "t_struct(AddressSet)7572_storage"
      },
      "t_mapping(t_bytes32,t_struct(RoleData)179_storage)": {
        "encoding": "mapping",
        "key": "t_bytes32",
        "label": "mapping(bytes32 => struct AccessControlUpgradeable.RoleData)",
        "numberOfBytes": "32",
        "value": "t_struct(RoleData)179_storage"
      },
      "t_mapping(t_bytes32,t_uint256)": {
        "encoding": "mapping",
        "key": "t_bytes32",
        "label": "mapping(bytes32 => uint256)",
        "numberOfBytes": "32",
        "value": "t_uint256"
      },
      "t_struct(AddressSet)7572_storage": {
        "encoding": "inplace",
        "label": "struct EnumerableSetUpgradeable.AddressSet",
        "members": [
          {
            "astId": 7571,
            "contract": "contracts/protocol/note-sale/MintedNormalTGE.sol:MintedNormalTGE",
            "label": "_inner",
            "offset": 0,
            "slot": "0",
            "type": "t_struct(Set)7257_storage"
          }
        ],
        "numberOfBytes": "64"
      },
      "t_struct(RoleData)179_storage": {
        "encoding": "inplace",
        "label": "struct AccessControlUpgradeable.RoleData",
        "members": [
          {
            "astId": 176,
            "contract": "contracts/protocol/note-sale/MintedNormalTGE.sol:MintedNormalTGE",
            "label": "members",
            "offset": 0,
            "slot": "0",
            "type": "t_mapping(t_address,t_bool)"
          },
          {
            "astId": 178,
            "contract": "contracts/protocol/note-sale/MintedNormalTGE.sol:MintedNormalTGE",
            "label": "adminRole",
            "offset": 0,
            "slot": "1",
            "type": "t_bytes32"
          }
        ],
        "numberOfBytes": "64"
      },
      "t_struct(Set)7257_storage": {
        "encoding": "inplace",
        "label": "struct EnumerableSetUpgradeable.Set",
        "members": [
          {
            "astId": 7252,
            "contract": "contracts/protocol/note-sale/MintedNormalTGE.sol:MintedNormalTGE",
            "label": "_values",
            "offset": 0,
            "slot": "0",
            "type": "t_array(t_bytes32)dyn_storage"
          },
          {
            "astId": 7256,
            "contract": "contracts/protocol/note-sale/MintedNormalTGE.sol:MintedNormalTGE",
            "label": "_indexes",
            "offset": 0,
            "slot": "1",
            "type": "t_mapping(t_bytes32,t_uint256)"
          }
        ],
        "numberOfBytes": "64"
      },
      "t_uint256": {
        "encoding": "inplace",
        "label": "uint256",
        "numberOfBytes": "32"
      },
      "t_uint8": {
        "encoding": "inplace",
        "label": "uint8",
        "numberOfBytes": "1"
      }
    }
  }
}