{
  "address": "0x0798db6Cbf916138990c5a7503eFaC39C67AB2fD",
  "abi": [
    {
      "anonymous": false,
      "inputs": [
        {
          "indexed": false,
          "internalType": "uint8",
          "name": "version",
          "type": "uint8"
        }
      ],
      "name": "Initialized",
      "type": "event"
    },
    {
      "anonymous": false,
      "inputs": [
        {
          "indexed": false,
          "internalType": "address",
          "name": "pool",
          "type": "address"
        },
        {
          "indexed": false,
          "internalType": "address",
          "name": "user",
          "type": "address"
        }
      ],
      "name": "OrderCreated",
      "type": "event"
    },
    {
      "anonymous": false,
      "inputs": [
        {
          "indexed": false,
          "internalType": "address",
          "name": "pool",
          "type": "address"
        },
        {
          "indexed": false,
          "internalType": "address",
          "name": "user",
          "type": "address"
        },
        {
          "indexed": false,
          "internalType": "uint256",
          "name": "batchId",
          "type": "uint256"
        }
      ],
      "name": "OrderExecuted",
      "type": "event"
    },
    {
      "anonymous": false,
      "inputs": [
        {
          "indexed": false,
          "internalType": "address",
          "name": "account",
          "type": "address"
        }
      ],
      "name": "Paused",
      "type": "event"
    },
    {
      "anonymous": false,
      "inputs": [
        {
          "indexed": true,
          "internalType": "bytes32",
          "name": "role",
          "type": "bytes32"
        },
        {
          "indexed": true,
          "internalType": "bytes32",
          "name": "previousAdminRole",
          "type": "bytes32"
        },
        {
          "indexed": true,
          "internalType": "bytes32",
          "name": "newAdminRole",
          "type": "bytes32"
        }
      ],
      "name": "RoleAdminChanged",
      "type": "event"
    },
    {
      "anonymous": false,
      "inputs": [
        {
          "indexed": true,
          "internalType": "bytes32",
          "name": "role",
          "type": "bytes32"
        },
        {
          "indexed": true,
          "internalType": "address",
          "name": "account",
          "type": "address"
        },
        {
          "indexed": true,
          "internalType": "address",
          "name": "sender",
          "type": "address"
        }
      ],
      "name": "RoleGranted",
      "type": "event"
    },
    {
      "anonymous": false,
      "inputs": [
        {
          "indexed": true,
          "internalType": "bytes32",
          "name": "role",
          "type": "bytes32"
        },
        {
          "indexed": true,
          "internalType": "address",
          "name": "account",
          "type": "address"
        },
        {
          "indexed": true,
          "internalType": "address",
          "name": "sender",
          "type": "address"
        }
      ],
      "name": "RoleRevoked",
      "type": "event"
    },
    {
      "anonymous": false,
      "inputs": [
        {
          "indexed": false,
          "internalType": "address",
          "name": "account",
          "type": "address"
        }
      ],
      "name": "Unpaused",
      "type": "event"
    },
    {
      "inputs": [],
      "name": "DEFAULT_ADMIN_ROLE",
      "outputs": [
        {
          "internalType": "bytes32",
          "name": "",
          "type": "bytes32"
        }
      ],
      "stateMutability": "view",
      "type": "function"
    },
    {
      "inputs": [
        {
          "internalType": "address",
          "name": "pool",
          "type": "address"
        },
        {
          "internalType": "uint256",
          "name": "executionBatchSize",
          "type": "uint256"
        }
      ],
      "name": "closeEpoch",
      "outputs": [],
      "stateMutability": "nonpayable",
      "type": "function"
    },
    {
      "inputs": [
        {
          "internalType": "address",
          "name": "pool",
          "type": "address"
        },
        {
          "components": [
            {
              "internalType": "uint256",
              "name": "sotCurrencyAmount",
              "type": "uint256"
            },
            {
              "internalType": "uint256",
              "name": "jotCurrencyAmount",
              "type": "uint256"
            },
            {
              "internalType": "bool",
              "name": "allSOTIncomeOnly",
              "type": "bool"
            },
            {
              "internalType": "bool",
              "name": "allJOTIncomeOnly",
              "type": "bool"
            }
          ],
          "internalType": "struct NoteTokenVault.Order",
          "name": "order",
          "type": "tuple"
        }
      ],
      "name": "createOrder",
      "outputs": [],
      "stateMutability": "nonpayable",
      "type": "function"
    },
    {
      "inputs": [
        {
          "internalType": "address",
          "name": "pool",
          "type": "address"
        },
        {
          "components": [
            {
              "internalType": "address",
              "name": "user",
              "type": "address"
            },
            {
              "internalType": "uint256",
              "name": "sotIncomeClaimAmount",
              "type": "uint256"
            },
            {
              "internalType": "uint256",
              "name": "jotIncomeClaimAmount",
              "type": "uint256"
            },
            {
              "internalType": "uint256",
              "name": "sotCapitalClaimAmount",
              "type": "uint256"
            },
            {
              "internalType": "uint256",
              "name": "jotCapitalClaimAmount",
              "type": "uint256"
            }
          ],
          "internalType": "struct NoteTokenVault.ExecutionOrder[]",
          "name": "executionOrders",
          "type": "tuple[]"
        }
      ],
      "name": "executeOrders",
      "outputs": [],
      "stateMutability": "nonpayable",
      "type": "function"
    },
    {
      "inputs": [
        {
          "internalType": "address",
          "name": "pool",
          "type": "address"
        }
      ],
      "name": "getBatchInfor",
      "outputs": [
        {
          "components": [
            {
              "internalType": "uint256",
              "name": "batchSize",
              "type": "uint256"
            },
            {
              "internalType": "uint256",
              "name": "executed",
              "type": "uint256"
            }
          ],
          "internalType": "struct NoteTokenVault.BatchInfor",
          "name": "",
          "type": "tuple"
        }
      ],
      "stateMutability": "view",
      "type": "function"
    },
    {
      "inputs": [
        {
          "internalType": "address",
          "name": "pool",
          "type": "address"
        }
      ],
      "name": "getEpochInfor",
      "outputs": [
        {
          "components": [
            {
              "internalType": "uint256",
              "name": "sotPrice",
              "type": "uint256"
            },
            {
              "internalType": "uint256",
              "name": "jotPrice",
              "type": "uint256"
            },
            {
              "internalType": "uint256",
              "name": "timestamp",
              "type": "uint256"
            },
            {
              "internalType": "bool",
              "name": "redeemDisabled",
              "type": "bool"
            },
            {
              "internalType": "bool",
              "name": "epochClosed",
              "type": "bool"
            }
          ],
          "internalType": "struct NoteTokenVault.EpochInfor",
          "name": "",
          "type": "tuple"
        }
      ],
      "stateMutability": "view",
      "type": "function"
    },
    {
      "inputs": [
        {
          "internalType": "address",
          "name": "pool",
          "type": "address"
        },
        {
          "internalType": "address",
          "name": "user",
          "type": "address"
        }
      ],
      "name": "getOrder",
      "outputs": [
        {
          "components": [
            {
              "internalType": "uint256",
              "name": "sotCurrencyAmount",
              "type": "uint256"
            },
            {
              "internalType": "uint256",
              "name": "jotCurrencyAmount",
              "type": "uint256"
            },
            {
              "internalType": "bool",
              "name": "allSOTIncomeOnly",
              "type": "bool"
            },
            {
              "internalType": "bool",
              "name": "allJOTIncomeOnly",
              "type": "bool"
            }
          ],
          "internalType": "struct NoteTokenVault.Order",
          "name": "",
          "type": "tuple"
        }
      ],
      "stateMutability": "view",
      "type": "function"
    },
    {
      "inputs": [
        {
          "internalType": "bytes32",
          "name": "role",
          "type": "bytes32"
        }
      ],
      "name": "getRoleAdmin",
      "outputs": [
        {
          "internalType": "bytes32",
          "name": "",
          "type": "bytes32"
        }
      ],
      "stateMutability": "view",
      "type": "function"
    },
    {
      "inputs": [
        {
          "internalType": "bytes32",
          "name": "role",
          "type": "bytes32"
        },
        {
          "internalType": "uint256",
          "name": "index",
          "type": "uint256"
        }
      ],
      "name": "getRoleMember",
      "outputs": [
        {
          "internalType": "address",
          "name": "",
          "type": "address"
        }
      ],
      "stateMutability": "view",
      "type": "function"
    },
    {
      "inputs": [
        {
          "internalType": "bytes32",
          "name": "role",
          "type": "bytes32"
        }
      ],
      "name": "getRoleMemberCount",
      "outputs": [
        {
          "internalType": "uint256",
          "name": "",
          "type": "uint256"
        }
      ],
      "stateMutability": "view",
      "type": "function"
    },
    {
      "inputs": [
        {
          "internalType": "bytes32",
          "name": "role",
          "type": "bytes32"
        },
        {
          "internalType": "address",
          "name": "account",
          "type": "address"
        }
      ],
      "name": "grantRole",
      "outputs": [],
      "stateMutability": "nonpayable",
      "type": "function"
    },
    {
      "inputs": [
        {
          "internalType": "bytes32",
          "name": "role",
          "type": "bytes32"
        },
        {
          "internalType": "address",
          "name": "account",
          "type": "address"
        }
      ],
      "name": "hasRole",
      "outputs": [
        {
          "internalType": "bool",
          "name": "",
          "type": "bool"
        }
      ],
      "stateMutability": "view",
      "type": "function"
    },
    {
      "inputs": [],
      "name": "initialize",
      "outputs": [],
      "stateMutability": "nonpayable",
      "type": "function"
    },
    {
      "inputs": [
        {
          "internalType": "address",
          "name": "pool",
          "type": "address"
        }
      ],
      "name": "openEpoch",
      "outputs": [],
      "stateMutability": "nonpayable",
      "type": "function"
    },
    {
      "inputs": [],
      "name": "paused",
      "outputs": [
        {
          "internalType": "bool",
          "name": "",
          "type": "bool"
        }
      ],
      "stateMutability": "view",
      "type": "function"
    },
    {
      "inputs": [
        {
          "internalType": "address",
          "name": "pool",
          "type": "address"
        }
      ],
      "name": "redeemDisabled",
      "outputs": [
        {
          "internalType": "bool",
          "name": "",
          "type": "bool"
        }
      ],
      "stateMutability": "view",
      "type": "function"
    },
    {
      "inputs": [
        {
          "internalType": "bytes32",
          "name": "role",
          "type": "bytes32"
        },
        {
          "internalType": "address",
          "name": "account",
          "type": "address"
        }
      ],
      "name": "renounceRole",
      "outputs": [],
      "stateMutability": "nonpayable",
      "type": "function"
    },
    {
      "inputs": [
        {
          "internalType": "bytes32",
          "name": "role",
          "type": "bytes32"
        },
        {
          "internalType": "address",
          "name": "account",
          "type": "address"
        }
      ],
      "name": "revokeRole",
      "outputs": [],
      "stateMutability": "nonpayable",
      "type": "function"
    },
    {
      "inputs": [
        {
          "internalType": "address",
          "name": "pool",
          "type": "address"
        },
        {
          "internalType": "uint256",
          "name": "_feePercentage",
          "type": "uint256"
        },
        {
          "internalType": "uint256",
          "name": "_freeTimestamp",
          "type": "uint256"
        }
      ],
      "name": "setFeeInfor",
      "outputs": [],
      "stateMutability": "nonpayable",
      "type": "function"
    },
    {
      "inputs": [
        {
          "internalType": "address",
          "name": "pool",
          "type": "address"
        },
        {
          "internalType": "bool",
          "name": "_redeemDisabled",
          "type": "bool"
        }
      ],
      "name": "setPoolRedeemDisabled",
      "outputs": [],
      "stateMutability": "nonpayable",
      "type": "function"
    },
    {
      "inputs": [
        {
          "internalType": "bytes4",
          "name": "interfaceId",
          "type": "bytes4"
        }
      ],
      "name": "supportsInterface",
      "outputs": [
        {
          "internalType": "bool",
          "name": "",
          "type": "bool"
        }
      ],
      "stateMutability": "view",
      "type": "function"
    }
  ],
  "transactionHash": "0x91bafdd5963b320c8b5b4182cd5a73a6eccca08b1647a1e6f71c934877cb833e",
  "args": [],
  "numDeployments": 10,
  "solcInputHash": "a11161120e8673631de79ed6df6433e5",
  "bytecode": "0x608060405234801561001057600080fd5b50612638806100206000396000f3fe608060405234801561001057600080fd5b50600436106101375760003560e01c80637cc600e4116100b8578063a217fddf1161007c578063a217fddf14610354578063b778c9ee1461035c578063ca15c8731461036f578063d547741f14610382578063db9af1fc14610395578063fc62b0a7146103a857600080fd5b80637cc600e41461028a5780638129fc1c1461029d5780639010d07c146102a557806391d14854146102d0578063966851f1146102e357600080fd5b80632f2ff15d116100ff5780632f2ff15d1461021657806336568abe1461022957806349a1801b1461023c5780634ce945191461024f5780635c975abb1461027f57600080fd5b806301ffc9a71461013c5780631454c1421461016457806314d9db971461017957806322bc8b5d146101d2578063248a9ca3146101e5575b600080fd5b61014f61014a3660046120c0565b610477565b60405190151581526020015b60405180910390f35b6101776101723660046120ff565b6104a2565b005b61018c6101873660046120ff565b610565565b60405161015b9190600060a08201905082518252602083015160208301526040830151604083015260608301511515606083015260808301511515608083015292915050565b6101776101e036600461211c565b6105ff565b6102086101f336600461215d565b60009081526097602052604090206001015490565b60405190815260200161015b565b610177610224366004612176565b610676565b610177610237366004612176565b6106a0565b61017761024a3660046121b4565b61071e565b61014f61025d3660046120ff565b6001600160a01b0316600090815261012e602052604090206003015460ff1690565b60335460ff1661014f565b6101776102983660046121e2565b610766565b6101776108a4565b6102b86102b336600461220e565b6109d0565b6040516001600160a01b03909116815260200161015b565b61014f6102de366004612176565b6109ef565b6103396102f13660046120ff565b6040805180820190915260008082526020820152506001600160a01b031660009081526101306020908152604091829020825180840190935280548352600101549082015290565b6040805182518152602092830151928101929092520161015b565b610208600081565b61017761036a366004612230565b610a1a565b61020861037d36600461215d565b610a49565b610177610390366004612176565b610a60565b6101776103a3366004612265565b610a85565b6104406103b63660046122ed565b604080516080810182526000808252602082018190529181018290526060810191909152506001600160a01b03918216600090815261012d602090815260408083209390941682529182528290208251608081018452815481526001820154928101929092526002015460ff80821615159383019390935261010090049091161515606082015290565b60405161015b9190815181526020808301519082015260408083015115159082015260609182015115159181019190915260800190565b60006001600160e01b03198216635a05180f60e01b148061049c575061049c82611361565b92915050565b6000805160206125e38339815191526104ba81611396565b6001600160a01b038216600090815261013060205260409020600181015490541461053e5760405162461bcd60e51b815260206004820152602960248201527f63757272656e7420626174636820686176656e2774206265656e2066756c6c7960448201526808195e1958dd5d195960ba1b60648201526084015b60405180910390fd5b506001600160a01b0316600090815261012e60205260409020600301805461ff0019169055565b61059b6040518060a001604052806000815260200160008152602001600081526020016000151581526020016000151581525090565b506001600160a01b0316600090815261012e6020908152604091829020825160a0810184528154815260018201549281019290925260028101549282019290925260039091015460ff80821615156060840152610100909104161515608082015290565b6001600160a01b038216600090815261012d602090815260408083203384529091529020819061062f828261231b565b5050604080516001600160a01b03841681523360208201527f87ae5ac82b62cc3d79a46528db4091b2c47aa8ab748e1ea48160b5389394d47a910160405180910390a15050565b60008281526097602052604090206001015461069181611396565b61069b83836113a0565b505050565b6001600160a01b03811633146107105760405162461bcd60e51b815260206004820152602f60248201527f416363657373436f6e74726f6c3a2063616e206f6e6c792072656e6f756e636560448201526e103937b632b9903337b91039b2b63360891b6064820152608401610535565b61071a82826113c2565b5050565b6000805160206125e383398151915261073681611396565b506001600160a01b0391909116600090815261012e60205260409020600301805460ff1916911515919091179055565b6000805160206125e383398151915261077e81611396565b6001600160a01b038316600090815261012e6020526040902060030154610100900460ff16156107e75760405162461bcd60e51b8152602060048201526014602482015273195c1bd8da08185b1c9958591e4818db1bdcd95960621b6044820152606401610535565b600080846001600160a01b0316630e9bf4e46040518163ffffffff1660e01b81526004016040805180830381865afa158015610827573d6000803e3d6000fd5b505050506040513d601f19601f8201168201806040525081019061084b919061236d565b6001600160a01b03909616600090815261012e602090815260408083206001808201959095559889554260028a01556003909801805461ff00191661010017905561013090529586209485559390930193909355505050565b600054610100900460ff16158080156108c45750600054600160ff909116105b806108de5750303b1580156108de575060005460ff166001145b6109415760405162461bcd60e51b815260206004820152602e60248201527f496e697469616c697a61626c653a20636f6e747261637420697320616c72656160448201526d191e481a5b9a5d1a585b1a5e995960921b6064820152608401610535565b6000805460ff191660011790558015610964576000805461ff0019166101001790555b61096c6113e4565b610974611417565b61097c611445565b61098760003361146e565b80156109cd576000805461ff0019169055604051600181527f7f26b83ff96e1f2b6a682f133852f6798a09c465da95921460cefb38474024989060200160405180910390a15b50565b600082815260c9602052604081206109e89083611478565b9392505050565b60009182526097602090815260408084206001600160a01b0393909316845291905290205460ff1690565b6000610a2581611396565b506001600160a01b03909216600090815261012f6020526040902090815560010155565b600081815260c96020526040812061049c90611484565b600082815260976020526040902060010154610a7b81611396565b61069b83836113c2565b6000805160206125e3833981519152610a9d81611396565b6001600160a01b038416600090815261012e602052604090206003015460ff610100909104161515600114610b0b5760405162461bcd60e51b8152602060048201526014602482015273195c1bd8da081a185d995b89dd0818db1bdcd95960621b6044820152606401610535565b6001600160a01b038416600090815261013060205260409020805460019091015410610b705760405162461bcd60e51b815260206004820152601460248201527318985d18da08199d5b1b1e48195e1958dd5d195960621b6044820152606401610535565b6000846001600160a01b031663febd60186040518163ffffffff1660e01b8152600401602060405180830381865afa158015610bb0573d6000803e3d6000fd5b505050506040513d601f19601f82011682018060405250810190610bd49190612391565b90506000856001600160a01b0316632b71b4506040518163ffffffff1660e01b8152600401602060405180830381865afa158015610c16573d6000803e3d6000fd5b505050506040513d601f19601f82011682018060405250810190610c3a9190612391565b905060008060008060005b88811015610fdc57610d048b8b8b84818110610c6357610c636123ae565b610c7992602060a09092020190810191506120ff565b8c8c85818110610c8b57610c8b6123ae565b905060a00201606001358d8d86818110610ca757610ca76123ae565b905060a0020160200135610cbb91906123da565b8d8d86818110610ccd57610ccd6123ae565b905060a00201608001358e8e87818110610ce957610ce96123ae565b905060a0020160400135610cfd91906123da565b8b8b61148e565b610db98b8b8b84818110610d1a57610d1a6123ae565b610d3092602060a09092020190810191506120ff565b8c8c85818110610d4257610d426123ae565b905060a00201606001358d8d86818110610d5e57610d5e6123ae565b905060a0020160200135610d7291906123da565b8d8d86818110610d8457610d846123ae565b905060a00201608001358e8e87818110610da057610da06123ae565b905060a0020160400135610db491906123da565b611a68565b60008a8a83818110610dcd57610dcd6123ae565b905060a00201608001358b8b84818110610de957610de96123ae565b905060a0020160600135610dfd91906123da565b905060008b8b84818110610e1357610e136123ae565b905060a00201604001358c8c85818110610e2f57610e2f6123ae565b905060a0020160200135610e4391906123da565b905060008c8c85818110610e5957610e596123ae565b905060a00201602001358d8d86818110610e7557610e756123ae565b905060a0020160600135610e8991906123da565b905060008d8d86818110610e9f57610e9f6123ae565b905060a00201604001358e8e87818110610ebb57610ebb6123ae565b905060a0020160800135610ecf91906123da565b9050610edb82886123da565b9650610ee781876123da565b9550610ef3838a6123da565b9850610eff84896123da565b9750610f348f8f8f88818110610f1757610f176123ae565b610f2d92602060a09092020190810191506120ff565b8686611b4a565b8e60008f8f88818110610f4957610f496123ae565b610f5f92602060a09092020190810191506120ff565b6001600160a01b0383811660008181526101306020908152604091829020600101548251938452938516908301528101919091529091507f889f0643d669fbac53cbc7d1826992b9bce1fab5e9644034cffb9c0137fe9dd19060600160405180910390a15050505050508080610fd4906123ed565b915050610c45565b50604051637b85393760e11b8152600481018590526001600160a01b038b169063f70a726e90602401600060405180830381600087803b15801561101f57600080fd5b505af1158015611033573d6000803e3d6000fd5b5050604051630616b3dd60e21b8152600481018690526001600160a01b038d16925063185acf749150602401600060405180830381600087803b15801561107957600080fd5b505af115801561108d573d6000803e3d6000fd5b5050604051631d514ebd60e11b815260006004820152602481018590526001600160a01b038d169250633aa29d7a9150604401600060405180830381600087803b1580156110da57600080fd5b505af11580156110ee573d6000803e3d6000fd5b50505050816000146111bc57896001600160a01b0316636456a3ee6040518163ffffffff1660e01b8152600401602060405180830381865afa158015611138573d6000803e3d6000fd5b505050506040513d601f19601f8201168201806040525081019061115c9190612391565b6001600160a01b031663d7d55a4a836040518263ffffffff1660e01b815260040161118991815260200190565b600060405180830381600087803b1580156111a357600080fd5b505af11580156111b7573d6000803e3d6000fd5b505050505b801561128457896001600160a01b031663221dc5936040518163ffffffff1660e01b8152600401602060405180830381865afa158015611200573d6000803e3d6000fd5b505050506040513d601f19601f820116820180604052508101906112249190612391565b6001600160a01b031663d7d55a4a826040518263ffffffff1660e01b815260040161125191815260200190565b600060405180830381600087803b15801561126b57600080fd5b505af115801561127f573d6000803e3d6000fd5b505050505b896001600160a01b03166349110ac46040518163ffffffff1660e01b8152600401602060405180830381865afa1580156112c2573d6000803e3d6000fd5b505050506040513d601f19601f820116820180604052508101906112e69190612406565b6113285760405162461bcd60e51b8152602060048201526013602482015272657863656564206d696e46697273744c6f737360681b6044820152606401610535565b6001600160a01b038a16600090815261013060205260408120600101805491611350836123ed565b919050555050505050505050505050565b60006001600160e01b03198216637965db0b60e01b148061049c57506301ffc9a760e01b6001600160e01b031983161461049c565b6109cd8133611c36565b6113aa8282611c8f565b600082815260c96020526040902061069b9082611d15565b6113cc8282611d2a565b600082815260c96020526040902061069b9082611d91565b600054610100900460ff1661140b5760405162461bcd60e51b815260040161053590612423565b6033805460ff19169055565b600054610100900460ff1661143e5760405162461bcd60e51b815260040161053590612423565b600160fb55565b600054610100900460ff1661146c5760405162461bcd60e51b815260040161053590612423565b565b61071a82826113a0565b60006109e88383611da6565b600061049c825490565b6001600160a01b03808716600090815261012d6020908152604080832093891683529290522054841115806114ec57506001600160a01b03808716600090815261012d602090815260408083209389168352929052206002015460ff165b6115445760405162461bcd60e51b8152602060048201526024808201527f736f7420636c61696d20616d6f756e7420626967676572207468616e206f7264604482015263195c995960e21b6064820152608401610535565b6001600160a01b03808716600090815261012d6020908152604080832093891683529290522060010154831115806115aa57506001600160a01b03868116600090815261012d6020908152604080832093891683529290522060020154610100900460ff165b6116025760405162461bcd60e51b8152602060048201526024808201527f6a6f7420636c61696d20616d6f756e7420626967676572207468616e206f7264604482015263195c995960e21b6064820152608401610535565b6001600160a01b038616600090815261012e602052604081205481901561164a576001600160a01b038816600090815261012e6020526040902054611647908761246e565b91505b6001600160a01b038816600090815261012e602052604090206001015415611696576001600160a01b038816600090815261012e6020526040902060010154611693908661246e565b90505b6001600160a01b0384161561176657604051636eb1769f60e11b81526001600160a01b03888116600483015230602483015283919086169063dd62ed3e90604401602060405180830381865afa1580156116f4573d6000803e3d6000fd5b505050506040513d601f19601f820116820180604052508101906117189190612490565b10156117665760405162461bcd60e51b815260206004820152601e60248201527f6e6f7420656e6f75676820736f7420746f6b656e20616c6c6f77616e636500006044820152606401610535565b6001600160a01b0383161561183657604051636eb1769f60e11b81526001600160a01b03888116600483015230602483015282919085169063dd62ed3e90604401602060405180830381865afa1580156117c4573d6000803e3d6000fd5b505050506040513d601f19601f820116820180604052508101906117e89190612490565b10156118365760405162461bcd60e51b815260206004820152601e60248201527f6e6f7420656e6f756768206a6f7420746f6b656e20616c6c6f77616e636500006044820152606401610535565b60008211801561184e57506001600160a01b03841615155b1561194a576001600160a01b0384166323b872dd883061187686670de0b6b3a76400006124a9565b6040516001600160e01b031960e086901b1681526001600160a01b03938416600482015292909116602483015260448201526064016020604051808303816000875af11580156118ca573d6000803e3d6000fd5b505050506040513d601f19601f820116820180604052508101906118ee9190612406565b50604051630852cd8d60e31b8152600481018390526001600160a01b038516906342966c6890602401600060405180830381600087803b15801561193157600080fd5b505af1158015611945573d6000803e3d6000fd5b505050505b60008111801561196257506001600160a01b03831615155b15611a5e576001600160a01b0383166323b872dd883061198a85670de0b6b3a76400006124a9565b6040516001600160e01b031960e086901b1681526001600160a01b03938416600482015292909116602483015260448201526064016020604051808303816000875af11580156119de573d6000803e3d6000fd5b505050506040513d601f19601f82011682018060405250810190611a029190612406565b50604051630852cd8d60e31b8152600481018290526001600160a01b038416906342966c6890602401600060405180830381600087803b158015611a4557600080fd5b505af1158015611a59573d6000803e3d6000fd5b505050505b5050505050505050565b6001600160a01b03808516600090815261012d60209081526040808320938716835292905220548211611ad3576001600160a01b03808516600090815261012d6020908152604080832093871683529290529081208054849290611acd9084906124c0565b90915550505b6001600160a01b03808516600090815261012d60209081526040808320938716835292905220600101548111611b44576001600160a01b03808516600090815261012d6020908152604080832093871683529290529081206001018054839290611b3e9084906124c0565b90915550505b50505050565b6001600160a01b038416600090815261012f6020526040812060010154421015611bac57611b7b61271060646124a9565b6001600160a01b038616600090815261012f6020526040902054611b9f90856124a9565b611ba9919061246e565b90505b6001600160a01b038516637f3bd56e8583611bc786886123da565b611bd191906124c0565b6040516001600160e01b031960e085901b1681526001600160a01b0390921660048301526024820152604401600060405180830381600087803b158015611c1757600080fd5b505af1158015611c2b573d6000803e3d6000fd5b505050505050505050565b611c4082826109ef565b61071a57611c4d81611dd0565b611c58836020611de2565b604051602001611c699291906124f7565b60408051601f198184030181529082905262461bcd60e51b82526105359160040161256c565b611c9982826109ef565b61071a5760008281526097602090815260408083206001600160a01b03851684529091529020805460ff19166001179055611cd13390565b6001600160a01b0316816001600160a01b0316837f2f8788117e7eff1d82e926ec794901d17c78024a50270940304540a733656f0d60405160405180910390a45050565b60006109e8836001600160a01b038416611f7e565b611d3482826109ef565b1561071a5760008281526097602090815260408083206001600160a01b0385168085529252808320805460ff1916905551339285917ff6391f5c32d9c69d2a47ea670b442974b53935d1edc7fd64eb21e047a839171b9190a45050565b60006109e8836001600160a01b038416611fcd565b6000826000018281548110611dbd57611dbd6123ae565b9060005260206000200154905092915050565b606061049c6001600160a01b03831660145b60606000611df18360026124a9565b611dfc9060026123da565b67ffffffffffffffff811115611e1457611e1461259f565b6040519080825280601f01601f191660200182016040528015611e3e576020820181803683370190505b509050600360fc1b81600081518110611e5957611e596123ae565b60200101906001600160f81b031916908160001a905350600f60fb1b81600181518110611e8857611e886123ae565b60200101906001600160f81b031916908160001a9053506000611eac8460026124a9565b611eb79060016123da565b90505b6001811115611f2f576f181899199a1a9b1b9c1cb0b131b232b360811b85600f1660108110611eeb57611eeb6123ae565b1a60f81b828281518110611f0157611f016123ae565b60200101906001600160f81b031916908160001a90535060049490941c93611f28816125b5565b9050611eba565b5083156109e85760405162461bcd60e51b815260206004820181905260248201527f537472696e67733a20686578206c656e67746820696e73756666696369656e746044820152606401610535565b6000818152600183016020526040812054611fc55750815460018181018455600084815260208082209093018490558454848252828601909352604090209190915561049c565b50600061049c565b600081815260018301602052604081205480156120b6576000611ff16001836124c0565b8554909150600090612005906001906124c0565b905081811461206a576000866000018281548110612025576120256123ae565b9060005260206000200154905080876000018481548110612048576120486123ae565b6000918252602080832090910192909255918252600188019052604090208390555b855486908061207b5761207b6125cc565b60019003818190600052602060002001600090559055856001016000868152602001908152602001600020600090556001935050505061049c565b600091505061049c565b6000602082840312156120d257600080fd5b81356001600160e01b0319811681146109e857600080fd5b6001600160a01b03811681146109cd57600080fd5b60006020828403121561211157600080fd5b81356109e8816120ea565b60008082840360a081121561213057600080fd5b833561213b816120ea565b92506080601f198201121561214f57600080fd5b506020830190509250929050565b60006020828403121561216f57600080fd5b5035919050565b6000806040838503121561218957600080fd5b82359150602083013561219b816120ea565b809150509250929050565b80151581146109cd57600080fd5b600080604083850312156121c757600080fd5b82356121d2816120ea565b9150602083013561219b816121a6565b600080604083850312156121f557600080fd5b8235612200816120ea565b946020939093013593505050565b6000806040838503121561222157600080fd5b50508035926020909101359150565b60008060006060848603121561224557600080fd5b8335612250816120ea565b95602085013595506040909401359392505050565b60008060006040848603121561227a57600080fd5b8335612285816120ea565b9250602084013567ffffffffffffffff808211156122a257600080fd5b818601915086601f8301126122b657600080fd5b8135818111156122c557600080fd5b87602060a0830285010111156122da57600080fd5b6020830194508093505050509250925092565b6000806040838503121561230057600080fd5b823561230b816120ea565b9150602083013561219b816120ea565b813581556020820135600182015560028101604083013561233b816121a6565b8154606085013561234b816121a6565b61ff0081151560081b1660ff8415151661ffff19841617178455505050505050565b6000806040838503121561238057600080fd5b505080516020909101519092909150565b6000602082840312156123a357600080fd5b81516109e8816120ea565b634e487b7160e01b600052603260045260246000fd5b634e487b7160e01b600052601160045260246000fd5b8082018082111561049c5761049c6123c4565b6000600182016123ff576123ff6123c4565b5060010190565b60006020828403121561241857600080fd5b81516109e8816121a6565b6020808252602b908201527f496e697469616c697a61626c653a20636f6e7472616374206973206e6f74206960408201526a6e697469616c697a696e6760a81b606082015260800190565b60008261248b57634e487b7160e01b600052601260045260246000fd5b500490565b6000602082840312156124a257600080fd5b5051919050565b808202811582820484141761049c5761049c6123c4565b8181038181111561049c5761049c6123c4565b60005b838110156124ee5781810151838201526020016124d6565b50506000910152565b7f416363657373436f6e74726f6c3a206163636f756e742000000000000000000081526000835161252f8160178501602088016124d3565b7001034b99036b4b9b9b4b733903937b6329607d1b60179184019182015283516125608160288401602088016124d3565b01602801949350505050565b602081526000825180602084015261258b8160408501602087016124d3565b601f01601f19169190910160400192915050565b634e487b7160e01b600052604160045260246000fd5b6000816125c4576125c46123c4565b506000190190565b634e487b7160e01b600052603160045260246000fdfe48c56c0d6590b6240b1a1005717522dced5c82a200c197c7d7ad7bf3660f4194a2646970667358221220296e0cf0dcd63611144d3bdfa5e72d8a05884af0f2d8de184185d57268d2416f64736f6c63430008130033",
  "devdoc": {
    "events": {
      "Initialized(uint8)": {
        "details": "Triggered when the contract has been initialized or reinitialized."
      },
      "Paused(address)": {
        "details": "Emitted when the pause is triggered by `account`."
      },
      "RoleAdminChanged(bytes32,bytes32,bytes32)": {
        "details": "Emitted when `newAdminRole` is set as ``role``'s admin role, replacing `previousAdminRole` `DEFAULT_ADMIN_ROLE` is the starting admin for all roles, despite {RoleAdminChanged} not being emitted signaling this. _Available since v3.1._"
      },
      "RoleGranted(bytes32,address,address)": {
        "details": "Emitted when `account` is granted `role`. `sender` is the account that originated the contract call, an admin role bearer except when using {AccessControl-_setupRole}."
      },
      "RoleRevoked(bytes32,address,address)": {
        "details": "Emitted when `account` is revoked `role`. `sender` is the account that originated the contract call:   - if using `revokeRole`, it is the admin role bearer   - if using `renounceRole`, it is the role bearer (i.e. `account`)"
      },
      "Unpaused(address)": {
        "details": "Emitted when the pause is lifted by `account`."
      }
    },
    "kind": "dev",
    "methods": {
      "closeEpoch(address,uint256)": {
        "params": {
          "pool": "address of corresponding pool"
        }
      },
      "createOrder(address,(uint256,uint256,bool,bool))": {
        "params": {
          "order": "the information of the withdraw order",
          "pool": "address of the pool"
        }
      },
      "executeOrders(address,(address,uint256,uint256,uint256,uint256)[])": {
        "params": {
          "executionOrders": "batch of execution orders",
          "pool": "address of the target pool"
        }
      },
      "getRoleAdmin(bytes32)": {
        "details": "Returns the admin role that controls `role`. See {grantRole} and {revokeRole}. To change a role's admin, use {_setRoleAdmin}."
      },
      "getRoleMember(bytes32,uint256)": {
        "details": "Returns one of the accounts that have `role`. `index` must be a value between 0 and {getRoleMemberCount}, non-inclusive. Role bearers are not sorted in any particular way, and their ordering may change at any point. WARNING: When using {getRoleMember} and {getRoleMemberCount}, make sure you perform all queries on the same block. See the following https://forum.openzeppelin.com/t/iterating-over-elements-on-enumerableset-in-openzeppelin-contracts/2296[forum post] for more information."
      },
      "getRoleMemberCount(bytes32)": {
        "details": "Returns the number of accounts that have `role`. Can be used together with {getRoleMember} to enumerate all bearers of a role."
      },
      "grantRole(bytes32,address)": {
        "details": "Grants `role` to `account`. If `account` had not been already granted `role`, emits a {RoleGranted} event. Requirements: - the caller must have ``role``'s admin role. May emit a {RoleGranted} event."
      },
      "hasRole(bytes32,address)": {
        "details": "Returns `true` if `account` has been granted `role`."
      },
      "paused()": {
        "details": "Returns true if the contract is paused, and false otherwise."
      },
      "renounceRole(bytes32,address)": {
        "details": "Revokes `role` from the calling account. Roles are often managed via {grantRole} and {revokeRole}: this function's purpose is to provide a mechanism for accounts to lose their privileges if they are compromised (such as when a trusted device is misplaced). If the calling account had been revoked `role`, emits a {RoleRevoked} event. Requirements: - the caller must be `account`. May emit a {RoleRevoked} event."
      },
      "revokeRole(bytes32,address)": {
        "details": "Revokes `role` from `account`. If `account` had been granted `role`, emits a {RoleRevoked} event. Requirements: - the caller must have ``role``'s admin role. May emit a {RoleRevoked} event."
      },
      "setFeeInfor(address,uint256,uint256)": {
        "params": {
          "_feePercentage": "the fee percentage that will be charge if user withdraw their capital before commitment period end",
          "_freeTimestamp": "the timestamp where commitment period end",
          "pool": "pool address"
        }
      },
      "setPoolRedeemDisabled(address,bool)": {
        "params": {
          "_redeemDisabled": "pool's redeemability",
          "pool": "pool address"
        }
      },
      "supportsInterface(bytes4)": {
        "details": "See {IERC165-supportsInterface}."
      }
    },
    "version": 1
  },
  "userdoc": {
    "kind": "user",
    "methods": {
      "closeEpoch(address,uint256)": {
        "notice": "Close the epoch and snapshot the NoteToken prices at that moment"
      },
      "createOrder(address,(uint256,uint256,bool,bool))": {
        "notice": "Create an order in currency amount"
      },
      "executeOrders(address,(address,uint256,uint256,uint256,uint256)[])": {
        "notice": "Receive the information and execution the epoch"
      },
      "setFeeInfor(address,uint256,uint256)": {
        "notice": "Set the parameter for fee calculation of a pool"
      },
      "setPoolRedeemDisabled(address,bool)": {
        "notice": "Set pool's availability to redeem"
      }
    },
    "version": 1
  },
  "storageLayout": {
    "storage": [
      {
        "astId": 717,
        "contract": "contracts/protocol/pool/NoteTokenVault.sol:NoteTokenVault",
        "label": "_initialized",
        "offset": 0,
        "slot": "0",
        "type": "t_uint8"
      },
      {
        "astId": 720,
        "contract": "contracts/protocol/pool/NoteTokenVault.sol:NoteTokenVault",
        "label": "_initializing",
        "offset": 1,
        "slot": "0",
        "type": "t_bool"
      },
      {
        "astId": 1564,
        "contract": "contracts/protocol/pool/NoteTokenVault.sol:NoteTokenVault",
        "label": "__gap",
        "offset": 0,
        "slot": "1",
        "type": "t_array(t_uint256)50_storage"
      },
      {
        "astId": 900,
        "contract": "contracts/protocol/pool/NoteTokenVault.sol:NoteTokenVault",
        "label": "_paused",
        "offset": 0,
        "slot": "51",
        "type": "t_bool"
      },
      {
        "astId": 1005,
        "contract": "contracts/protocol/pool/NoteTokenVault.sol:NoteTokenVault",
        "label": "__gap",
        "offset": 0,
        "slot": "52",
        "type": "t_array(t_uint256)49_storage"
      },
      {
        "astId": 1837,
        "contract": "contracts/protocol/pool/NoteTokenVault.sol:NoteTokenVault",
        "label": "__gap",
        "offset": 0,
        "slot": "101",
        "type": "t_array(t_uint256)50_storage"
      },
      {
        "astId": 184,
        "contract": "contracts/protocol/pool/NoteTokenVault.sol:NoteTokenVault",
        "label": "_roles",
        "offset": 0,
        "slot": "151",
        "type": "t_mapping(t_bytes32,t_struct(RoleData)179_storage)"
      },
      {
        "astId": 479,
        "contract": "contracts/protocol/pool/NoteTokenVault.sol:NoteTokenVault",
        "label": "__gap",
        "offset": 0,
        "slot": "152",
        "type": "t_array(t_uint256)49_storage"
      },
      {
        "astId": 33,
        "contract": "contracts/protocol/pool/NoteTokenVault.sol:NoteTokenVault",
        "label": "_roleMembers",
        "offset": 0,
        "slot": "201",
        "type": "t_mapping(t_bytes32,t_struct(AddressSet)3147_storage)"
      },
      {
        "astId": 143,
        "contract": "contracts/protocol/pool/NoteTokenVault.sol:NoteTokenVault",
        "label": "__gap",
        "offset": 0,
        "slot": "202",
        "type": "t_array(t_uint256)49_storage"
      },
      {
        "astId": 1020,
        "contract": "contracts/protocol/pool/NoteTokenVault.sol:NoteTokenVault",
        "label": "_status",
        "offset": 0,
        "slot": "251",
        "type": "t_uint256"
      },
      {
        "astId": 1089,
        "contract": "contracts/protocol/pool/NoteTokenVault.sol:NoteTokenVault",
        "label": "__gap",
        "offset": 0,
        "slot": "252",
        "type": "t_array(t_uint256)49_storage"
      },
      {
        "astId": 4591,
        "contract": "contracts/protocol/pool/NoteTokenVault.sol:NoteTokenVault",
        "label": "orders",
        "offset": 0,
        "slot": "301",
        "type": "t_mapping(t_address,t_mapping(t_address,t_struct(Order)4552_storage))"
      },
      {
        "astId": 4596,
        "contract": "contracts/protocol/pool/NoteTokenVault.sol:NoteTokenVault",
        "label": "epochInfor",
        "offset": 0,
        "slot": "302",
        "type": "t_mapping(t_address,t_struct(EpochInfor)4574_storage)"
      },
      {
        "astId": 4601,
        "contract": "contracts/protocol/pool/NoteTokenVault.sol:NoteTokenVault",
        "label": "fees",
        "offset": 0,
        "slot": "303",
        "type": "t_mapping(t_address,t_struct(FeeInfor)4584_storage)"
      },
      {
        "astId": 4606,
        "contract": "contracts/protocol/pool/NoteTokenVault.sol:NoteTokenVault",
        "label": "batchInfor",
        "offset": 0,
        "slot": "304",
        "type": "t_mapping(t_address,t_struct(BatchInfor)4579_storage)"
      }
    ],
    "types": {
      "t_address": {
        "encoding": "inplace",
        "label": "address",
        "numberOfBytes": "20"
      },
      "t_array(t_bytes32)dyn_storage": {
        "base": "t_bytes32",
        "encoding": "dynamic_array",
        "label": "bytes32[]",
        "numberOfBytes": "32"
      },
      "t_array(t_uint256)49_storage": {
        "base": "t_uint256",
        "encoding": "inplace",
        "label": "uint256[49]",
        "numberOfBytes": "1568"
      },
      "t_array(t_uint256)50_storage": {
        "base": "t_uint256",
        "encoding": "inplace",
        "label": "uint256[50]",
        "numberOfBytes": "1600"
      },
      "t_bool": {
        "encoding": "inplace",
        "label": "bool",
        "numberOfBytes": "1"
      },
      "t_bytes32": {
        "encoding": "inplace",
        "label": "bytes32",
        "numberOfBytes": "32"
      },
      "t_mapping(t_address,t_bool)": {
        "encoding": "mapping",
        "key": "t_address",
        "label": "mapping(address => bool)",
        "numberOfBytes": "32",
        "value": "t_bool"
      },
      "t_mapping(t_address,t_mapping(t_address,t_struct(Order)4552_storage))": {
        "encoding": "mapping",
        "key": "t_address",
        "label": "mapping(address => mapping(address => struct NoteTokenVault.Order))",
        "numberOfBytes": "32",
        "value": "t_mapping(t_address,t_struct(Order)4552_storage)"
      },
      "t_mapping(t_address,t_struct(BatchInfor)4579_storage)": {
        "encoding": "mapping",
        "key": "t_address",
        "label": "mapping(address => struct NoteTokenVault.BatchInfor)",
        "numberOfBytes": "32",
        "value": "t_struct(BatchInfor)4579_storage"
      },
      "t_mapping(t_address,t_struct(EpochInfor)4574_storage)": {
        "encoding": "mapping",
        "key": "t_address",
        "label": "mapping(address => struct NoteTokenVault.EpochInfor)",
        "numberOfBytes": "32",
        "value": "t_struct(EpochInfor)4574_storage"
      },
      "t_mapping(t_address,t_struct(FeeInfor)4584_storage)": {
        "encoding": "mapping",
        "key": "t_address",
        "label": "mapping(address => struct NoteTokenVault.FeeInfor)",
        "numberOfBytes": "32",
        "value": "t_struct(FeeInfor)4584_storage"
      },
      "t_mapping(t_address,t_struct(Order)4552_storage)": {
        "encoding": "mapping",
        "key": "t_address",
        "label": "mapping(address => struct NoteTokenVault.Order)",
        "numberOfBytes": "32",
        "value": "t_struct(Order)4552_storage"
      },
      "t_mapping(t_bytes32,t_struct(AddressSet)3147_storage)": {
        "encoding": "mapping",
        "key": "t_bytes32",
        "label": "mapping(bytes32 => struct EnumerableSetUpgradeable.AddressSet)",
        "numberOfBytes": "32",
        "value": "t_struct(AddressSet)3147_storage"
      },
      "t_mapping(t_bytes32,t_struct(RoleData)179_storage)": {
        "encoding": "mapping",
        "key": "t_bytes32",
        "label": "mapping(bytes32 => struct AccessControlUpgradeable.RoleData)",
        "numberOfBytes": "32",
        "value": "t_struct(RoleData)179_storage"
      },
      "t_mapping(t_bytes32,t_uint256)": {
        "encoding": "mapping",
        "key": "t_bytes32",
        "label": "mapping(bytes32 => uint256)",
        "numberOfBytes": "32",
        "value": "t_uint256"
      },
      "t_struct(AddressSet)3147_storage": {
        "encoding": "inplace",
        "label": "struct EnumerableSetUpgradeable.AddressSet",
        "members": [
          {
            "astId": 3146,
            "contract": "contracts/protocol/pool/NoteTokenVault.sol:NoteTokenVault",
            "label": "_inner",
            "offset": 0,
            "slot": "0",
            "type": "t_struct(Set)2832_storage"
          }
        ],
        "numberOfBytes": "64"
      },
      "t_struct(BatchInfor)4579_storage": {
        "encoding": "inplace",
        "label": "struct NoteTokenVault.BatchInfor",
        "members": [
          {
            "astId": 4576,
            "contract": "contracts/protocol/pool/NoteTokenVault.sol:NoteTokenVault",
            "label": "batchSize",
            "offset": 0,
            "slot": "0",
            "type": "t_uint256"
          },
          {
            "astId": 4578,
            "contract": "contracts/protocol/pool/NoteTokenVault.sol:NoteTokenVault",
            "label": "executed",
            "offset": 0,
            "slot": "1",
            "type": "t_uint256"
          }
        ],
        "numberOfBytes": "64"
      },
      "t_struct(EpochInfor)4574_storage": {
        "encoding": "inplace",
        "label": "struct NoteTokenVault.EpochInfor",
        "members": [
          {
            "astId": 4565,
            "contract": "contracts/protocol/pool/NoteTokenVault.sol:NoteTokenVault",
            "label": "sotPrice",
            "offset": 0,
            "slot": "0",
            "type": "t_uint256"
          },
          {
            "astId": 4567,
            "contract": "contracts/protocol/pool/NoteTokenVault.sol:NoteTokenVault",
            "label": "jotPrice",
            "offset": 0,
            "slot": "1",
            "type": "t_uint256"
          },
          {
            "astId": 4569,
            "contract": "contracts/protocol/pool/NoteTokenVault.sol:NoteTokenVault",
            "label": "timestamp",
            "offset": 0,
            "slot": "2",
            "type": "t_uint256"
          },
          {
            "astId": 4571,
            "contract": "contracts/protocol/pool/NoteTokenVault.sol:NoteTokenVault",
            "label": "redeemDisabled",
            "offset": 0,
            "slot": "3",
            "type": "t_bool"
          },
          {
            "astId": 4573,
            "contract": "contracts/protocol/pool/NoteTokenVault.sol:NoteTokenVault",
            "label": "epochClosed",
            "offset": 1,
            "slot": "3",
            "type": "t_bool"
          }
        ],
        "numberOfBytes": "128"
      },
      "t_struct(FeeInfor)4584_storage": {
        "encoding": "inplace",
        "label": "struct NoteTokenVault.FeeInfor",
        "members": [
          {
            "astId": 4581,
            "contract": "contracts/protocol/pool/NoteTokenVault.sol:NoteTokenVault",
            "label": "feePercentage",
            "offset": 0,
            "slot": "0",
            "type": "t_uint256"
          },
          {
            "astId": 4583,
            "contract": "contracts/protocol/pool/NoteTokenVault.sol:NoteTokenVault",
            "label": "freeTimestamp",
            "offset": 0,
            "slot": "1",
            "type": "t_uint256"
          }
        ],
        "numberOfBytes": "64"
      },
      "t_struct(Order)4552_storage": {
        "encoding": "inplace",
        "label": "struct NoteTokenVault.Order",
        "members": [
          {
            "astId": 4545,
            "contract": "contracts/protocol/pool/NoteTokenVault.sol:NoteTokenVault",
            "label": "sotCurrencyAmount",
            "offset": 0,
            "slot": "0",
            "type": "t_uint256"
          },
          {
            "astId": 4547,
            "contract": "contracts/protocol/pool/NoteTokenVault.sol:NoteTokenVault",
            "label": "jotCurrencyAmount",
            "offset": 0,
            "slot": "1",
            "type": "t_uint256"
          },
          {
            "astId": 4549,
            "contract": "contracts/protocol/pool/NoteTokenVault.sol:NoteTokenVault",
            "label": "allSOTIncomeOnly",
            "offset": 0,
            "slot": "2",
            "type": "t_bool"
          },
          {
            "astId": 4551,
            "contract": "contracts/protocol/pool/NoteTokenVault.sol:NoteTokenVault",
            "label": "allJOTIncomeOnly",
            "offset": 1,
            "slot": "2",
            "type": "t_bool"
          }
        ],
        "numberOfBytes": "96"
      },
      "t_struct(RoleData)179_storage": {
        "encoding": "inplace",
        "label": "struct AccessControlUpgradeable.RoleData",
        "members": [
          {
            "astId": 176,
            "contract": "contracts/protocol/pool/NoteTokenVault.sol:NoteTokenVault",
            "label": "members",
            "offset": 0,
            "slot": "0",
            "type": "t_mapping(t_address,t_bool)"
          },
          {
            "astId": 178,
            "contract": "contracts/protocol/pool/NoteTokenVault.sol:NoteTokenVault",
            "label": "adminRole",
            "offset": 0,
            "slot": "1",
            "type": "t_bytes32"
          }
        ],
        "numberOfBytes": "64"
      },
      "t_struct(Set)2832_storage": {
        "encoding": "inplace",
        "label": "struct EnumerableSetUpgradeable.Set",
        "members": [
          {
            "astId": 2827,
            "contract": "contracts/protocol/pool/NoteTokenVault.sol:NoteTokenVault",
            "label": "_values",
            "offset": 0,
            "slot": "0",
            "type": "t_array(t_bytes32)dyn_storage"
          },
          {
            "astId": 2831,
            "contract": "contracts/protocol/pool/NoteTokenVault.sol:NoteTokenVault",
            "label": "_indexes",
            "offset": 0,
            "slot": "1",
            "type": "t_mapping(t_bytes32,t_uint256)"
          }
        ],
        "numberOfBytes": "64"
      },
      "t_uint256": {
        "encoding": "inplace",
        "label": "uint256",
        "numberOfBytes": "32"
      },
      "t_uint8": {
        "encoding": "inplace",
        "label": "uint8",
        "numberOfBytes": "1"
      }
    }
  }
}