{
  "address": "0xB68dE98171E4d1A191c94a0179e7AbcF646A896f",
  "abi": [
    {
      "anonymous": false,
      "inputs": [
        {
          "indexed": false,
          "internalType": "uint8",
          "name": "version",
          "type": "uint8"
        }
      ],
      "name": "Initialized",
      "type": "event"
    },
    {
      "anonymous": false,
      "inputs": [
        {
          "indexed": false,
          "internalType": "address",
          "name": "token",
          "type": "address"
        },
        {
          "indexed": false,
          "internalType": "uint256",
          "name": "tokenId",
          "type": "uint256"
        }
      ],
      "name": "InsertNFTAsset",
      "type": "event"
    },
    {
      "anonymous": false,
      "inputs": [
        {
          "indexed": false,
          "internalType": "address",
          "name": "account",
          "type": "address"
        }
      ],
      "name": "Paused",
      "type": "event"
    },
    {
      "anonymous": false,
      "inputs": [
        {
          "indexed": false,
          "internalType": "address",
          "name": "poolAddress",
          "type": "address"
        },
        {
          "indexed": false,
          "internalType": "uint256",
          "name": "increaseInterestRepay",
          "type": "uint256"
        },
        {
          "indexed": false,
          "internalType": "uint256",
          "name": "increasePrincipalRepay",
          "type": "uint256"
        },
        {
          "indexed": false,
          "internalType": "uint256",
          "name": "timestamp",
          "type": "uint256"
        }
      ],
      "name": "Repay",
      "type": "event"
    },
    {
      "anonymous": false,
      "inputs": [
        {
          "indexed": true,
          "internalType": "bytes32",
          "name": "role",
          "type": "bytes32"
        },
        {
          "indexed": true,
          "internalType": "bytes32",
          "name": "previousAdminRole",
          "type": "bytes32"
        },
        {
          "indexed": true,
          "internalType": "bytes32",
          "name": "newAdminRole",
          "type": "bytes32"
        }
      ],
      "name": "RoleAdminChanged",
      "type": "event"
    },
    {
      "anonymous": false,
      "inputs": [
        {
          "indexed": true,
          "internalType": "bytes32",
          "name": "role",
          "type": "bytes32"
        },
        {
          "indexed": true,
          "internalType": "address",
          "name": "account",
          "type": "address"
        },
        {
          "indexed": true,
          "internalType": "address",
          "name": "sender",
          "type": "address"
        }
      ],
      "name": "RoleGranted",
      "type": "event"
    },
    {
      "anonymous": false,
      "inputs": [
        {
          "indexed": true,
          "internalType": "bytes32",
          "name": "role",
          "type": "bytes32"
        },
        {
          "indexed": true,
          "internalType": "address",
          "name": "account",
          "type": "address"
        },
        {
          "indexed": true,
          "internalType": "address",
          "name": "sender",
          "type": "address"
        }
      ],
      "name": "RoleRevoked",
      "type": "event"
    },
    {
      "anonymous": false,
      "inputs": [
        {
          "indexed": false,
          "internalType": "address",
          "name": "account",
          "type": "address"
        }
      ],
      "name": "Unpaused",
      "type": "event"
    },
    {
      "inputs": [],
      "name": "DEFAULT_ADMIN_ROLE",
      "outputs": [
        {
          "internalType": "bytes32",
          "name": "",
          "type": "bytes32"
        }
      ],
      "stateMutability": "view",
      "type": "function"
    },
    {
      "inputs": [],
      "name": "calcJuniorRatio",
      "outputs": [
        {
          "internalType": "uint256",
          "name": "juniorRatio",
          "type": "uint256"
        }
      ],
      "stateMutability": "view",
      "type": "function"
    },
    {
      "inputs": [],
      "name": "calcTokenPrices",
      "outputs": [
        {
          "internalType": "uint256",
          "name": "juniorTokenPrice",
          "type": "uint256"
        },
        {
          "internalType": "uint256",
          "name": "seniorTokenPrice",
          "type": "uint256"
        }
      ],
      "stateMutability": "view",
      "type": "function"
    },
    {
      "inputs": [
        {
          "internalType": "uint256",
          "name": "_seniorSupply",
          "type": "uint256"
        },
        {
          "internalType": "uint256",
          "name": "_seniorRedeem",
          "type": "uint256"
        }
      ],
      "name": "changeSeniorAsset",
      "outputs": [],
      "stateMutability": "nonpayable",
      "type": "function"
    },
    {
      "inputs": [
        {
          "internalType": "address",
          "name": "recipientWallet",
          "type": "address"
        }
      ],
      "name": "claimCashRemain",
      "outputs": [],
      "stateMutability": "nonpayable",
      "type": "function"
    },
    {
      "inputs": [
        {
          "internalType": "uint256[]",
          "name": "tokenIds",
          "type": "uint256[]"
        },
        {
          "components": [
            {
              "internalType": "address",
              "name": "debtor",
              "type": "address"
            },
            {
              "internalType": "address",
              "name": "principalTokenAddress",
              "type": "address"
            },
            {
              "internalType": "bytes32",
              "name": "termsParam",
              "type": "bytes32"
            },
            {
              "internalType": "uint256",
              "name": "salt",
              "type": "uint256"
            },
            {
              "internalType": "uint256",
              "name": "issuanceBlockTimestamp",
              "type": "uint256"
            },
            {
              "internalType": "uint256",
              "name": "expirationTimestamp",
              "type": "uint256"
            },
            {
              "internalType": "uint8",
              "name": "riskScore",
              "type": "uint8"
            },
            {
              "internalType": "enum Configuration.ASSET_PURPOSE",
              "name": "assetPurpose",
              "type": "uint8"
            }
          ],
          "internalType": "struct DataTypes.LoanEntry[]",
          "name": "loanEntries",
          "type": "tuple[]"
        }
      ],
      "name": "collectAssets",
      "outputs": [
        {
          "internalType": "uint256",
          "name": "",
          "type": "uint256"
        }
      ],
      "stateMutability": "nonpayable",
      "type": "function"
    },
    {
      "inputs": [
        {
          "internalType": "uint256",
          "name": "amount",
          "type": "uint256"
        }
      ],
      "name": "contributeToCapitalReserve",
      "outputs": [],
      "stateMutability": "nonpayable",
      "type": "function"
    },
    {
      "inputs": [],
      "name": "currentNAV",
      "outputs": [
        {
          "internalType": "uint256",
          "name": "nav_",
          "type": "uint256"
        }
      ],
      "stateMutability": "view",
      "type": "function"
    },
    {
      "inputs": [
        {
          "internalType": "bytes32",
          "name": "tokenId",
          "type": "bytes32"
        }
      ],
      "name": "currentNAVAsset",
      "outputs": [
        {
          "internalType": "uint256",
          "name": "",
          "type": "uint256"
        }
      ],
      "stateMutability": "view",
      "type": "function"
    },
    {
      "inputs": [
        {
          "internalType": "uint256",
          "name": "loan",
          "type": "uint256"
        }
      ],
      "name": "debt",
      "outputs": [
        {
          "internalType": "uint256",
          "name": "loanDebt",
          "type": "uint256"
        }
      ],
      "stateMutability": "view",
      "type": "function"
    },
    {
      "inputs": [],
      "name": "debtCeiling",
      "outputs": [
        {
          "internalType": "uint256",
          "name": "",
          "type": "uint256"
        }
      ],
      "stateMutability": "view",
      "type": "function"
    },
    {
      "inputs": [
        {
          "internalType": "uint256",
          "name": "currencyAmount",
          "type": "uint256"
        }
      ],
      "name": "decreaseCapitalReserve",
      "outputs": [],
      "stateMutability": "nonpayable",
      "type": "function"
    },
    {
      "inputs": [
        {
          "internalType": "uint256",
          "name": "currencyAmount",
          "type": "uint256"
        }
      ],
      "name": "decreaseIncomeReserve",
      "outputs": [],
      "stateMutability": "nonpayable",
      "type": "function"
    },
    {
      "inputs": [
        {
          "internalType": "address",
          "name": "usr",
          "type": "address"
        },
        {
          "internalType": "uint256",
          "name": "currencyAmount",
          "type": "uint256"
        }
      ],
      "name": "disburse",
      "outputs": [],
      "stateMutability": "nonpayable",
      "type": "function"
    },
    {
      "inputs": [],
      "name": "discountRate",
      "outputs": [
        {
          "internalType": "uint256",
          "name": "",
          "type": "uint256"
        }
      ],
      "stateMutability": "view",
      "type": "function"
    },
    {
      "inputs": [
        {
          "internalType": "address",
          "name": "tokenAddress",
          "type": "address"
        },
        {
          "internalType": "address",
          "name": "toPoolAddress",
          "type": "address"
        },
        {
          "internalType": "uint256[]",
          "name": "tokenIds",
          "type": "uint256[]"
        }
      ],
      "name": "exportAssets",
      "outputs": [],
      "stateMutability": "nonpayable",
      "type": "function"
    },
    {
      "inputs": [
        {
          "internalType": "bytes32",
          "name": "nft_",
          "type": "bytes32"
        }
      ],
      "name": "futureValue",
      "outputs": [
        {
          "internalType": "uint256",
          "name": "",
          "type": "uint256"
        }
      ],
      "stateMutability": "view",
      "type": "function"
    },
    {
      "inputs": [
        {
          "internalType": "bytes32",
          "name": "agreementId",
          "type": "bytes32"
        }
      ],
      "name": "getAsset",
      "outputs": [
        {
          "components": [
            {
              "internalType": "uint128",
              "name": "futureValue",
              "type": "uint128"
            },
            {
              "internalType": "uint128",
              "name": "maturityDate",
              "type": "uint128"
            },
            {
              "internalType": "uint128",
              "name": "risk",
              "type": "uint128"
            },
            {
              "internalType": "address",
              "name": "debtor",
              "type": "address"
            },
            {
              "internalType": "address",
              "name": "principalTokenAddress",
              "type": "address"
            },
            {
              "internalType": "uint256",
              "name": "salt",
              "type": "uint256"
            },
            {
              "internalType": "uint256",
              "name": "issuanceBlockTimestamp",
              "type": "uint256"
            },
            {
              "internalType": "uint256",
              "name": "expirationTimestamp",
              "type": "uint256"
            },
            {
              "internalType": "enum Configuration.ASSET_PURPOSE",
              "name": "assetPurpose",
              "type": "uint8"
            },
            {
              "internalType": "bytes32",
              "name": "termsParam",
              "type": "bytes32"
            },
            {
              "internalType": "uint256",
              "name": "principalAmount",
              "type": "uint256"
            },
            {
              "internalType": "uint256",
              "name": "termStartUnixTimestamp",
              "type": "uint256"
            },
            {
              "internalType": "uint256",
              "name": "termEndUnixTimestamp",
              "type": "uint256"
            },
            {
              "internalType": "enum UnpackLoanParamtersLib.AmortizationUnitType",
              "name": "amortizationUnitType",
              "type": "uint8"
            },
            {
              "internalType": "uint256",
              "name": "termLengthInAmortizationUnits",
              "type": "uint256"
            },
            {
              "internalType": "uint256",
              "name": "interestRate",
              "type": "uint256"
            }
          ],
          "internalType": "struct DataTypes.NFTDetails",
          "name": "",
          "type": "tuple"
        }
      ],
      "stateMutability": "view",
      "type": "function"
    },
    {
      "inputs": [],
      "name": "getInitializedVersion",
      "outputs": [
        {
          "internalType": "uint256",
          "name": "",
          "type": "uint256"
        }
      ],
      "stateMutability": "view",
      "type": "function"
    },
    {
      "inputs": [
        {
          "internalType": "uint256[]",
          "name": "tokenIds",
          "type": "uint256[]"
        },
        {
          "components": [
            {
              "internalType": "address",
              "name": "debtor",
              "type": "address"
            },
            {
              "internalType": "address",
              "name": "principalTokenAddress",
              "type": "address"
            },
            {
              "internalType": "bytes32",
              "name": "termsParam",
              "type": "bytes32"
            },
            {
              "internalType": "uint256",
              "name": "salt",
              "type": "uint256"
            },
            {
              "internalType": "uint256",
              "name": "issuanceBlockTimestamp",
              "type": "uint256"
            },
            {
              "internalType": "uint256",
              "name": "expirationTimestamp",
              "type": "uint256"
            },
            {
              "internalType": "uint8",
              "name": "riskScore",
              "type": "uint8"
            },
            {
              "internalType": "enum Configuration.ASSET_PURPOSE",
              "name": "assetPurpose",
              "type": "uint8"
            }
          ],
          "internalType": "struct DataTypes.LoanEntry[]",
          "name": "loanEntries",
          "type": "tuple[]"
        }
      ],
      "name": "getLoansValue",
      "outputs": [
        {
          "internalType": "uint256",
          "name": "",
          "type": "uint256"
        },
        {
          "internalType": "uint256[]",
          "name": "",
          "type": "uint256[]"
        }
      ],
      "stateMutability": "view",
      "type": "function"
    },
    {
      "inputs": [],
      "name": "getNFTAssetsLength",
      "outputs": [
        {
          "internalType": "uint256",
          "name": "",
          "type": "uint256"
        }
      ],
      "stateMutability": "view",
      "type": "function"
    },
    {
      "inputs": [],
      "name": "getRepaidAmount",
      "outputs": [
        {
          "internalType": "uint256",
          "name": "",
          "type": "uint256"
        },
        {
          "internalType": "uint256",
          "name": "",
          "type": "uint256"
        }
      ],
      "stateMutability": "view",
      "type": "function"
    },
    {
      "inputs": [],
      "name": "getReserves",
      "outputs": [
        {
          "internalType": "uint256",
          "name": "",
          "type": "uint256"
        },
        {
          "internalType": "uint256",
          "name": "",
          "type": "uint256"
        }
      ],
      "stateMutability": "view",
      "type": "function"
    },
    {
      "inputs": [],
      "name": "getRiskScoresLength",
      "outputs": [
        {
          "internalType": "uint256",
          "name": "",
          "type": "uint256"
        }
      ],
      "stateMutability": "view",
      "type": "function"
    },
    {
      "inputs": [
        {
          "internalType": "bytes32",
          "name": "role",
          "type": "bytes32"
        }
      ],
      "name": "getRoleAdmin",
      "outputs": [
        {
          "internalType": "bytes32",
          "name": "",
          "type": "bytes32"
        }
      ],
      "stateMutability": "view",
      "type": "function"
    },
    {
      "inputs": [
        {
          "internalType": "bytes32",
          "name": "role",
          "type": "bytes32"
        },
        {
          "internalType": "uint256",
          "name": "index",
          "type": "uint256"
        }
      ],
      "name": "getRoleMember",
      "outputs": [
        {
          "internalType": "address",
          "name": "",
          "type": "address"
        }
      ],
      "stateMutability": "view",
      "type": "function"
    },
    {
      "inputs": [
        {
          "internalType": "bytes32",
          "name": "role",
          "type": "bytes32"
        }
      ],
      "name": "getRoleMemberCount",
      "outputs": [
        {
          "internalType": "uint256",
          "name": "",
          "type": "uint256"
        }
      ],
      "stateMutability": "view",
      "type": "function"
    },
    {
      "inputs": [
        {
          "internalType": "bytes32",
          "name": "role",
          "type": "bytes32"
        },
        {
          "internalType": "address",
          "name": "account",
          "type": "address"
        }
      ],
      "name": "grantRole",
      "outputs": [],
      "stateMutability": "nonpayable",
      "type": "function"
    },
    {
      "inputs": [],
      "name": "hasFinishedRedemption",
      "outputs": [
        {
          "internalType": "bool",
          "name": "",
          "type": "bool"
        }
      ],
      "stateMutability": "view",
      "type": "function"
    },
    {
      "inputs": [
        {
          "internalType": "bytes32",
          "name": "role",
          "type": "bytes32"
        },
        {
          "internalType": "address",
          "name": "account",
          "type": "address"
        }
      ],
      "name": "hasRole",
      "outputs": [
        {
          "internalType": "bool",
          "name": "",
          "type": "bool"
        }
      ],
      "stateMutability": "view",
      "type": "function"
    },
    {
      "inputs": [
        {
          "internalType": "uint256",
          "name": "currencyAmount",
          "type": "uint256"
        }
      ],
      "name": "increaseCapitalReserve",
      "outputs": [],
      "stateMutability": "nonpayable",
      "type": "function"
    },
    {
      "inputs": [
        {
          "internalType": "uint256",
          "name": "amount",
          "type": "uint256"
        }
      ],
      "name": "increaseTotalAssetRepaidCurrency",
      "outputs": [],
      "stateMutability": "nonpayable",
      "type": "function"
    },
    {
      "inputs": [
        {
          "internalType": "address",
          "name": "_registryAddress",
          "type": "address"
        },
        {
          "internalType": "bytes",
          "name": "params",
          "type": "bytes"
        }
      ],
      "name": "initialize",
      "outputs": [],
      "stateMutability": "nonpayable",
      "type": "function"
    },
    {
      "inputs": [
        {
          "internalType": "address",
          "name": "_tgeAddress",
          "type": "address"
        },
        {
          "internalType": "enum Configuration.NOTE_TOKEN_TYPE",
          "name": "_noteToken",
          "type": "uint8"
        }
      ],
      "name": "injectTGEAddress",
      "outputs": [],
      "stateMutability": "nonpayable",
      "type": "function"
    },
    {
      "inputs": [],
      "name": "interestRateSOT",
      "outputs": [
        {
          "internalType": "uint256",
          "name": "",
          "type": "uint256"
        }
      ],
      "stateMutability": "view",
      "type": "function"
    },
    {
      "inputs": [],
      "name": "isAdmin",
      "outputs": [
        {
          "internalType": "bool",
          "name": "",
          "type": "bool"
        }
      ],
      "stateMutability": "view",
      "type": "function"
    },
    {
      "inputs": [],
      "name": "isDebtCeilingValid",
      "outputs": [
        {
          "internalType": "bool",
          "name": "",
          "type": "bool"
        }
      ],
      "stateMutability": "view",
      "type": "function"
    },
    {
      "inputs": [],
      "name": "isMinFirstLossValid",
      "outputs": [
        {
          "internalType": "bool",
          "name": "",
          "type": "bool"
        }
      ],
      "stateMutability": "view",
      "type": "function"
    },
    {
      "inputs": [],
      "name": "jotToken",
      "outputs": [
        {
          "internalType": "address",
          "name": "",
          "type": "address"
        }
      ],
      "stateMutability": "view",
      "type": "function"
    },
    {
      "inputs": [
        {
          "internalType": "bytes32",
          "name": "nft_",
          "type": "bytes32"
        }
      ],
      "name": "maturityDate",
      "outputs": [
        {
          "internalType": "uint256",
          "name": "",
          "type": "uint256"
        }
      ],
      "stateMutability": "view",
      "type": "function"
    },
    {
      "inputs": [],
      "name": "minFirstLossCushion",
      "outputs": [
        {
          "internalType": "uint32",
          "name": "",
          "type": "uint32"
        }
      ],
      "stateMutability": "view",
      "type": "function"
    },
    {
      "inputs": [
        {
          "internalType": "uint256",
          "name": "idx",
          "type": "uint256"
        }
      ],
      "name": "nftAssets",
      "outputs": [
        {
          "components": [
            {
              "internalType": "address",
              "name": "tokenAddress",
              "type": "address"
            },
            {
              "internalType": "uint256",
              "name": "tokenId",
              "type": "uint256"
            }
          ],
          "internalType": "struct DataTypes.NFTAsset",
          "name": "",
          "type": "tuple"
        }
      ],
      "stateMutability": "view",
      "type": "function"
    },
    {
      "inputs": [
        {
          "internalType": "address",
          "name": "",
          "type": "address"
        },
        {
          "internalType": "address",
          "name": "",
          "type": "address"
        },
        {
          "internalType": "uint256",
          "name": "tokenId",
          "type": "uint256"
        },
        {
          "internalType": "bytes",
          "name": "",
          "type": "bytes"
        }
      ],
      "name": "onERC721Received",
      "outputs": [
        {
          "internalType": "bytes4",
          "name": "",
          "type": "bytes4"
        }
      ],
      "stateMutability": "nonpayable",
      "type": "function"
    },
    {
      "inputs": [],
      "name": "openingBlockTimestamp",
      "outputs": [
        {
          "internalType": "uint64",
          "name": "",
          "type": "uint64"
        }
      ],
      "stateMutability": "view",
      "type": "function"
    },
    {
      "inputs": [],
      "name": "pause",
      "outputs": [],
      "stateMutability": "nonpayable",
      "type": "function"
    },
    {
      "inputs": [],
      "name": "paused",
      "outputs": [
        {
          "internalType": "bool",
          "name": "",
          "type": "bool"
        }
      ],
      "stateMutability": "view",
      "type": "function"
    },
    {
      "inputs": [],
      "name": "pot",
      "outputs": [
        {
          "internalType": "address",
          "name": "",
          "type": "address"
        }
      ],
      "stateMutability": "view",
      "type": "function"
    },
    {
      "inputs": [],
      "name": "rebase",
      "outputs": [],
      "stateMutability": "nonpayable",
      "type": "function"
    },
    {
      "inputs": [],
      "name": "registry",
      "outputs": [
        {
          "internalType": "contract Registry",
          "name": "",
          "type": "address"
        }
      ],
      "stateMutability": "view",
      "type": "function"
    },
    {
      "inputs": [
        {
          "internalType": "bytes32",
          "name": "role",
          "type": "bytes32"
        },
        {
          "internalType": "address",
          "name": "account",
          "type": "address"
        }
      ],
      "name": "renounceRole",
      "outputs": [],
      "stateMutability": "nonpayable",
      "type": "function"
    },
    {
      "inputs": [
        {
          "internalType": "uint256[]",
          "name": "loans",
          "type": "uint256[]"
        },
        {
          "internalType": "uint256[]",
          "name": "amounts",
          "type": "uint256[]"
        }
      ],
      "name": "repayLoan",
      "outputs": [
        {
          "internalType": "uint256[]",
          "name": "",
          "type": "uint256[]"
        },
        {
          "internalType": "uint256[]",
          "name": "",
          "type": "uint256[]"
        }
      ],
      "stateMutability": "nonpayable",
      "type": "function"
    },
    {
      "inputs": [],
      "name": "reserve",
      "outputs": [
        {
          "internalType": "uint256",
          "name": "",
          "type": "uint256"
        }
      ],
      "stateMutability": "view",
      "type": "function"
    },
    {
      "inputs": [
        {
          "internalType": "bytes32",
          "name": "role",
          "type": "bytes32"
        },
        {
          "internalType": "address",
          "name": "account",
          "type": "address"
        }
      ],
      "name": "revokeRole",
      "outputs": [],
      "stateMutability": "nonpayable",
      "type": "function"
    },
    {
      "inputs": [
        {
          "internalType": "bytes32",
          "name": "nft_",
          "type": "bytes32"
        }
      ],
      "name": "risk",
      "outputs": [
        {
          "internalType": "uint256",
          "name": "risk_",
          "type": "uint256"
        }
      ],
      "stateMutability": "view",
      "type": "function"
    },
    {
      "inputs": [
        {
          "internalType": "uint256",
          "name": "index",
          "type": "uint256"
        }
      ],
      "name": "riskScores",
      "outputs": [
        {
          "components": [
            {
              "internalType": "uint32",
              "name": "daysPastDue",
              "type": "uint32"
            },
            {
              "internalType": "uint32",
              "name": "advanceRate",
              "type": "uint32"
            },
            {
              "internalType": "uint32",
              "name": "penaltyRate",
              "type": "uint32"
            },
            {
              "internalType": "uint32",
              "name": "interestRate",
              "type": "uint32"
            },
            {
              "internalType": "uint32",
              "name": "probabilityOfDefault",
              "type": "uint32"
            },
            {
              "internalType": "uint32",
              "name": "lossGivenDefault",
              "type": "uint32"
            },
            {
              "internalType": "uint32",
              "name": "writeOffAfterGracePeriod",
              "type": "uint32"
            },
            {
              "internalType": "uint32",
              "name": "gracePeriod",
              "type": "uint32"
            },
            {
              "internalType": "uint32",
              "name": "collectionPeriod",
              "type": "uint32"
            },
            {
              "internalType": "uint32",
              "name": "writeOffAfterCollectionPeriod",
              "type": "uint32"
            },
            {
              "internalType": "uint32",
              "name": "discountRate",
              "type": "uint32"
            }
          ],
          "internalType": "struct DataTypes.RiskScore",
          "name": "",
          "type": "tuple"
        }
      ],
      "stateMutability": "view",
      "type": "function"
    },
    {
      "inputs": [],
      "name": "secondTGEAddress",
      "outputs": [
        {
          "internalType": "address",
          "name": "",
          "type": "address"
        }
      ],
      "stateMutability": "view",
      "type": "function"
    },
    {
      "inputs": [],
      "name": "seniorDebtAndBalance",
      "outputs": [
        {
          "internalType": "uint256",
          "name": "",
          "type": "uint256"
        },
        {
          "internalType": "uint256",
          "name": "",
          "type": "uint256"
        }
      ],
      "stateMutability": "view",
      "type": "function"
    },
    {
      "inputs": [
        {
          "internalType": "uint256",
          "name": "_debtCeiling",
          "type": "uint256"
        }
      ],
      "name": "setDebtCeiling",
      "outputs": [],
      "stateMutability": "nonpayable",
      "type": "function"
    },
    {
      "inputs": [
        {
          "internalType": "uint32",
          "name": "_newRate",
          "type": "uint32"
        }
      ],
      "name": "setInterestRateSOT",
      "outputs": [],
      "stateMutability": "nonpayable",
      "type": "function"
    },
    {
      "inputs": [
        {
          "internalType": "uint32",
          "name": "_minFirstLossCushion",
          "type": "uint32"
        }
      ],
      "name": "setMinFirstLossCushion",
      "outputs": [],
      "stateMutability": "nonpayable",
      "type": "function"
    },
    {
      "inputs": [
        {
          "internalType": "address",
          "name": "_pot",
          "type": "address"
        }
      ],
      "name": "setPot",
      "outputs": [],
      "stateMutability": "nonpayable",
      "type": "function"
    },
    {
      "inputs": [
        {
          "internalType": "bytes32",
          "name": "role",
          "type": "bytes32"
        },
        {
          "internalType": "bytes32",
          "name": "adminRole",
          "type": "bytes32"
        }
      ],
      "name": "setRoleAdmin",
      "outputs": [],
      "stateMutability": "nonpayable",
      "type": "function"
    },
    {
      "inputs": [],
      "name": "setUpOpeningBlockTimestamp",
      "outputs": [],
      "stateMutability": "nonpayable",
      "type": "function"
    },
    {
      "inputs": [
        {
          "internalType": "uint32[]",
          "name": "_daysPastDues",
          "type": "uint32[]"
        },
        {
          "internalType": "uint32[]",
          "name": "_ratesAndDefaults",
          "type": "uint32[]"
        },
        {
          "internalType": "uint32[]",
          "name": "_periodsAndWriteOffs",
          "type": "uint32[]"
        }
      ],
      "name": "setupRiskScores",
      "outputs": [],
      "stateMutability": "nonpayable",
      "type": "function"
    },
    {
      "inputs": [],
      "name": "sotToken",
      "outputs": [
        {
          "internalType": "address",
          "name": "",
          "type": "address"
        }
      ],
      "stateMutability": "view",
      "type": "function"
    },
    {
      "inputs": [
        {
          "internalType": "bytes4",
          "name": "interfaceId",
          "type": "bytes4"
        }
      ],
      "name": "supportsInterface",
      "outputs": [
        {
          "internalType": "bool",
          "name": "",
          "type": "bool"
        }
      ],
      "stateMutability": "view",
      "type": "function"
    },
    {
      "inputs": [],
      "name": "tgeAddress",
      "outputs": [
        {
          "internalType": "address",
          "name": "",
          "type": "address"
        }
      ],
      "stateMutability": "view",
      "type": "function"
    },
    {
      "inputs": [],
      "name": "totalAssetRepaidCurrency",
      "outputs": [
        {
          "internalType": "uint256",
          "name": "",
          "type": "uint256"
        }
      ],
      "stateMutability": "view",
      "type": "function"
    },
    {
      "inputs": [],
      "name": "underlyingCurrency",
      "outputs": [
        {
          "internalType": "address",
          "name": "",
          "type": "address"
        }
      ],
      "stateMutability": "view",
      "type": "function"
    },
    {
      "inputs": [],
      "name": "unpause",
      "outputs": [],
      "stateMutability": "nonpayable",
      "type": "function"
    },
    {
      "inputs": [
        {
          "internalType": "bytes32",
          "name": "nftID_",
          "type": "bytes32"
        },
        {
          "internalType": "uint256",
          "name": "risk_",
          "type": "uint256"
        }
      ],
      "name": "updateAssetRiskScore",
      "outputs": [],
      "stateMutability": "nonpayable",
      "type": "function"
    },
    {
      "inputs": [],
      "name": "validatorRequired",
      "outputs": [
        {
          "internalType": "bool",
          "name": "",
          "type": "bool"
        }
      ],
      "stateMutability": "view",
      "type": "function"
    },
    {
      "inputs": [
        {
          "internalType": "address",
          "name": "to",
          "type": "address"
        },
        {
          "internalType": "uint256",
          "name": "amount",
          "type": "uint256"
        }
      ],
      "name": "withdraw",
      "outputs": [],
      "stateMutability": "nonpayable",
      "type": "function"
    },
    {
      "inputs": [
        {
          "internalType": "address[]",
          "name": "tokenAddresses",
          "type": "address[]"
        },
        {
          "internalType": "uint256[]",
          "name": "tokenIds",
          "type": "uint256[]"
        },
        {
          "internalType": "address[]",
          "name": "recipients",
          "type": "address[]"
        }
      ],
      "name": "withdrawAssets",
      "outputs": [],
      "stateMutability": "nonpayable",
      "type": "function"
    },
    {
      "inputs": [
        {
          "internalType": "uint256",
          "name": "loan",
          "type": "uint256"
        }
      ],
      "name": "writeOff",
      "outputs": [],
      "stateMutability": "nonpayable",
      "type": "function"
    }
  ],
  "transactionHash": "0x24fb6bb9561f0471816cbd15adabc3574ae3c98b24325b0c8b96737217b409b3",
  "args": [],
  "numDeployments": 16,
  "solcInputHash": "97e0272c87e65bccea37235cdd7847a9",
  "bytecode": "0x608060405234801561001057600080fd5b50615b4780620000216000396000f3fe608060405234801561001057600080fd5b50600436106104495760003560e01c80636b70f71d11610241578063ba81a9361161013b578063e1c84ea4116100c3578063ed34889511610087578063ed34889514610981578063f3fef3a314610994578063f70a726e146109a7578063fa3908b1146109ba578063febd6018146109f157600080fd5b8063e1c84ea414610938578063e3178bc414610940578063e3adb7f014610953578063e681542d14610966578063e6c0e6d51461097957600080fd5b8063cee7b6a11161010a578063cee7b6a1146108ef578063d1f57894146108f7578063d547741f1461090a578063dd688b0e1461091d578063dec285871461092557600080fd5b8063ba81a936146108a0578063c3d2129d146108b3578063ca15c873146108d4578063cd3293de146108e757600080fd5b806390161705116101c9578063a6c595471161018d578063a6c5954714610862578063af14052c14610875578063b1511cc91461087d578063b3c6501514610890578063b6db75a01461089857600080fd5b8063901617051461081957806391d148541461082c5780639b3e22911461083f578063a217fddf14610852578063a5688a901461085a57600080fd5b80637f3bd56e116102105780637f3bd56e146107c05780638456cb59146107d35780638fd6b71e146107db57806390071cf3146107f35780639010d07c1461080657600080fd5b80636b70f71d1461078957806373ffe3c71461079157806375b1bce7146107a45780637b103999146107ac57600080fd5b80632cbf3da0116103525780634020c8d1116102da5780635648abeb1161029e5780635648abeb14610719578063586fd8a11461072c5780635c975abb1461074d578063644b4ead146107585780636456a3ee1461077857600080fd5b80634020c8d1146106b7578063477035d1146106c257806349110ac4146106ee5780634ba2363a146106f657806353069df61461070e57600080fd5b806336568abe1161032157806336568abe1461064a5780633aa29d7a1461065d5780633b2f880c146106705780633f12dc10146106835780633f4ba83a146106af57600080fd5b80632cbf3da0146105fc5780632cc3ce80146106045780632f2ff15d14610624578063339443571461063757600080fd5b8063185acf74116103d5578063221dc593116103a4578063221dc593146105b0578063248a9ca3146105c15780632b71b450146105e45780632bb14ff0146105ec5780632bcc3682146105f457600080fd5b8063185acf74146105645780631bf51b70146105775780631e0029c81461058a5780631e4e00911461059d57600080fd5b80630902f1ac1161041c5780630902f1ac146104e75780630b7792f1146105035780630bc6bffc1461050b5780630e9bf4e414610530578063150b7a021461053857600080fd5b806301ffc9a71461044e578063065dad8f1461047657806306823e8c146104b457806306aac7ec146104dd575b600080fd5b61046161045c3660046146e2565b6109f9565b60405190151581526020015b60405180910390f35b6104a661048436600461470c565b600090815260146020526040902054600160801b90046001600160801b031690565b60405190815260200161046d565b6104a66104c236600461470c565b6000908152601460205260409020546001600160801b031690565b6104e5610a24565b005b6008546009545b6040805192835260208301919091520161046d565b6002546104a6565b6007546001600160a01b03165b6040516001600160a01b03909116815260200161046d565b6104ee610af5565b61054b610546366004614828565b610ec9565b6040516001600160e01b0319909116815260200161046d565b6104e561057236600461470c565b611042565b6104e56105853660046148d7565b61112f565b6104a661059836600461470c565b6111d4565b6104e56105ab366004614970565b6111e1565b6004546001600160a01b0316610518565b6104a66105cf36600461470c565b600090815260ee602052604090206001015490565b6105186111fb565b600b546104a6565b6001546104a6565b6104a6611278565b61061761061236600461470c565b611284565b60405161046d91906149d5565b6104e5610632366004614ae4565b6113be565b6104a6610645366004614b14565b6113e3565b6104e5610658366004614ae4565b61148f565b6104e561066b366004614970565b61150d565b6104e561067e366004614bc5565b61167b565b6104a661069136600461470c565b6000908152601460205260409020600101546001600160801b031690565b6104e561170b565b60005460ff16610461565b600a5464010000000090046001600160401b03166040516001600160401b03909116815260200161046d565b610461611739565b600a54600160601b90046001600160a01b0316610518565b6020546021546104ee565b6104e561072736600461470c565b611753565b61073f61073a366004614bf3565b6117d6565b60405161046d929190614c99565b60585460ff16610461565b61076b61076636600461470c565b611b7d565b60405161046d9190614cbe565b6003546001600160a01b0316610518565b6104ee611cae565b6104e561079f366004614dca565b611d33565b610461611dd1565b61018454610518906001600160a01b031681565b6104e56107ce366004614de7565b611e49565b6104e5611f2f565b600a5460405163ffffffff909116815260200161046d565b6104e5610801366004614e13565b611f5b565b610518610814366004614970565b61209a565b6104e561082736600461470c565b6120ba565b61046161083a366004614ae4565b61210a565b6104e561084d36600461470c565b612135565b6104a6600081565b6104a66121bf565b6104e56108703660046148d7565b6122d8565b6104e5612375565b6104e561088b36600461470c565b6123d6565b6104a661246f565b610461612485565b6104e56108ae366004614dca565b6124b0565b6108c66108c1366004614f58565b6124fd565b60405161046d929190615010565b6104a66108e236600461470c565b61258e565b6104a66125a6565b600c546104a6565b6104e5610905366004615029565b6125b2565b6104e5610918366004614ae4565b61296b565b610461612990565b6104e561093336600461506e565b6129cb565b600d546104a6565b6104a661094e36600461470c565b612aa7565b6104e5610961366004614970565b612ab4565b6104e561097436600461470c565b612b45565b6018546104a6565b6104e561098f366004614e13565b612c03565b6104e56109a2366004614de7565b612d55565b6104e56109b536600461470c565b612f1c565b6109cd6109c836600461470c565b612fda565b6040805182516001600160a01b03168152602092830151928101929092520161046d565b61051861303b565b60006001600160e01b03198216635a05180f60e01b1480610a1e5750610a1e82613076565b92915050565b6003546001600160a01b03163314610a8f5760405162461bcd60e51b8152602060048201526024808201527f53656375726974697a6174696f6e506f6f6c3a204f6e6c7920746765206164646044820152637265737360e01b60648201526084015b60405180910390fd5b604051632fc9435560e01b815260006004820152730E36d6058D5aE4a91C1bD69bbFa26A71921352D390632fc94355906024015b60006040518083038186803b158015610adb57600080fd5b505af4158015610aef573d6000803e3d6000fd5b50505050565b600080600073B7df8077d23C0Ae26eED5f20c50eB6fc1Ce45Ac9634892cc1660006040518263ffffffff1660e01b8152600401610b3491815260200190565b602060405180830381865af4158015610b51573d6000803e3d6000fd5b505050506040513d601f19601f82011682018060405250810190610b7591906150c6565b604051631c87621560e31b815260006004820181905291925073B7df8077d23C0Ae26eED5f20c50eB6fc1Ce45Ac99063e43b10a890602401602060405180830381865af4158015610bca573d6000803e3d6000fd5b505050506040513d601f19601f82011682018060405250810190610bee91906150c6565b90506000826001600160a01b031663313ce5676040518163ffffffff1660e01b8152600401602060405180830381865afa158015610c30573d6000803e3d6000fd5b505050506040513d601f19601f82011682018060405250810190610c5491906150e3565b610c5f90600a6151fa565b90506000806001600160a01b03851615610cd857846001600160a01b03166318160ddd6040518163ffffffff1660e01b8152600401602060405180830381865afa158015610cb1573d6000803e3d6000fd5b505050506040513d601f19601f82011682018060405250810190610cd59190615209565b91505b6001600160a01b03841615610d4c57836001600160a01b03166318160ddd6040518163ffffffff1660e01b8152600401602060405180830381865afa158015610d25573d6000803e3d6000fd5b505050506040513d601f19601f82011682018060405250810190610d499190615209565b90505b60008073FbD5c61f8214c894421Fd8Fd639F4DA36c5CE5366328774cad610d7360006130ab565b610d7d60006130d3565b604051639a1140b960e01b81526000600482015273FbD5c61f8214c894421Fd8Fd639F4DA36c5CE53690639a1140b990602401602060405180830381865af4158015610dcd573d6000803e3d6000fd5b505050506040513d601f19601f82011682018060405250810190610df19190615209565b60235460405160e086901b6001600160e01b031916815260048101949094526024840192909252604483015260648201526084810187905260a4810186905260c4016040805180830381865af4158015610e4f573d6000803e3d6000fd5b505050506040513d601f19601f82011682018060405250810190610e739190615222565b90925090506b033b2e3c9fd0803ce8000000610e8f8684615246565b610e99919061525d565b6b033b2e3c9fd0803ce8000000610eb08784615246565b610eba919061525d565b98509850505050505050509091565b610184546000903390610ee4906001600160a01b03166130e7565b6001600160a01b0316816001600160a01b031614610f625760405162461bcd60e51b815260206004820152603560248201527f53656375726974697a6174696f6e506f6f6c3a204d75737420626520746f6b656044820152741b881a5cdcdd595908189e48155b9d185b99db1959605a1b6064820152608401610a86565b6040805180820182526001600160a01b03838116808352602080840189815260028054600181018255600082905295517f405787fa12a823e0f2b7631cc41b3ba8828b3321ca811111fa75cd3aa3bb5ace96820296870180546001600160a01b0319169190961617909455517f405787fa12a823e0f2b7631cc41b3ba8828b3321ca811111fa75cd3aa3bb5acf909401939093558351908152918201879052917ff1c19e8856063adce43b5f307c6ac9d0af46fd0787c590550c51d7cf02d2e5f4910160405180910390a150630a85bd0160e11b9150505b949350505050565b61104a6130f4565b61018454611060906001600160a01b031661313a565b6001600160a01b0316336001600160a01b031614806110a5575061018454611090906001600160a01b0316613147565b6001600160a01b0316336001600160a01b0316145b6110c15760405162461bcd60e51b8152600401610a869061527f565b6040516338ca404b60e21b8152600060048201526024810182905273B7df8077d23C0Ae26eED5f20c50eB6fc1Ce45Ac99063e329012c906044015b60006040518083038186803b15801561111457600080fd5b505af4158015611128573d6000803e3d6000fd5b5050505050565b6111376130f4565b600080516020615af283398151915261114f81613154565b6040516318d6411560e31b8152730E36d6058D5aE4a91C1bD69bbFa26A71921352D39063c6b208a890611193906000908b908b908b908b908b908b9060040161532a565b60006040518083038186803b1580156111ab57600080fd5b505af41580156111bf573d6000803e3d6000fd5b505050506111cb612375565b50505050505050565b6000610a1e60008361315e565b60006111ec81613154565b6111f68383613261565b505050565b604051632449660b60e11b81526000600482018190529073B7df8077d23C0Ae26eED5f20c50eB6fc1Ce45Ac990634892cc16906024015b602060405180830381865af415801561124f573d6000803e3d6000fd5b505050506040513d601f19601f8201168201806040525081019061127391906150c6565b905090565b600061127360006130ab565b61128c61465f565b60008281526014602090815260409182902082516102008101845281546001600160801b038082168352600160801b9091048116938201939093526001808301549093169381019390935260028101546001600160a01b0390811660608501526003820154166080840152600481015460a0840152600581015460c0840152600681015460e08401526007810154909161010084019160ff169081111561133557611335614992565b600181111561134657611346614992565b81526008820154602082015260098201546040820152600a8201546060820152600b8201546080820152600c82015460a09091019060ff16600581111561138f5761138f614992565b60058111156113a0576113a0614992565b8152600d8201546020820152600e9091015460409091015292915050565b600082815260ee60205260409020600101546113d981613154565b6111f683836132ac565b60006113ed6130f4565b611405335b610184546001600160a01b0316906132cf565b604051637f337ae160e11b8152730E36d6058D5aE4a91C1bD69bbFa26A71921352D39063fe66f5c2906114459060009089908990899089906004016153ac565b602060405180830381865af4158015611462573d6000803e3d6000fd5b505050506040513d601f19601f820116820180604052508101906114869190615209565b95945050505050565b6001600160a01b03811633146114ff5760405162461bcd60e51b815260206004820152602f60248201527f416363657373436f6e74726f6c3a2063616e206f6e6c792072656e6f756e636560448201526e103937b632b9903337b91039b2b63360891b6064820152608401610a86565b6115098282613338565b5050565b61018454611523906001600160a01b031661313a565b6001600160a01b0316336001600160a01b03161480611568575061018454611553906001600160a01b0316613147565b6001600160a01b0316336001600160a01b0316145b6115845760405162461bcd60e51b8152600401610a869061527f565b73FbD5c61f8214c894421Fd8Fd639F4DA36c5CE536632fb8626260006115aa60006130ab565b6115b460006130d3565b6040516001600160e01b031960e086901b168152600481019390935260248301919091526044820152606481018590526084810184905260a40160006040518083038186803b15801561160657600080fd5b505af415801561161a573d6000803e3d6000fd5b5050505060008211156115095761162f611739565b6115095760405162461bcd60e51b815260206004820152601a60248201527f506f6f6c3a2045786365656473204d696e46697273744c6f73730000000000006044820152606401610a86565b6116836130f4565b61169b335b610184546001600160a01b03169061335b565b6040516317f8caf760e31b815273B7df8077d23C0Ae26eED5f20c50eB6fc1Ce45Ac99063bfc657b8906116d79060009086908690600401615487565b60006040518083038186803b1580156116ef57600080fd5b505af4158015611703573d6000803e3d6000fd5b505050505050565b611713612485565b61172f5760405162461bcd60e51b8152600401610a86906154b4565b6117376133d0565b565b60006117436121bf565b600a5463ffffffff161115919050565b61175b6130f4565b60405163b21b589960e01b8152600060048201523360248201526044810182905273B7df8077d23C0Ae26eED5f20c50eB6fc1Ce45Ac99063b21b58999060640160006040518083038186803b1580156117b357600080fd5b505af41580156117c7573d6000803e3d6000fd5b505050506117d3612375565b50565b61018454606090819033906117f3906001600160a01b0316613422565b6001600160a01b03161461183a5760405162461bcd60e51b815260206004820152600e60248201526d1b9bdd08185d5d1a1bdc9a5e995960921b6044820152606401610a86565b8483811461187b5760405162461bcd60e51b815260206004820152600e60248201526d092dcecc2d8d2c840d8cadccee8d60931b6044820152606401610a86565b6000816001600160401b038111156118955761189561474a565b6040519080825280602002602001820160405280156118be578160200160208202803683370190505b50905060005b828110156119765760008061191a60008c8c868181106118e6576118e6615511565b9050602002013560009081526010820160209081526040808320548352600e90930190522060018101546004909101549091565b9150915061194360008c8c8681811061193557611935615511565b90506020020135848461342f565b84848151811061195557611955615511565b6020026020010181815250505050808061196e90615527565b9150506118c4565b50600080738FD7C82Ff6A91B08aA8AB4EE049b0fCCe57AE562632f3e0ce060008c8c8c8c6040518663ffffffff1660e01b81526004016119ba959493929190615540565b600060405180830381865af41580156119d7573d6000803e3d6000fd5b505050506040513d6000823e601f3d908101601f191682016040526119ff91908101906155d4565b9150915060008060005b86811015611af0576000868281518110611a2557611a25615511565b6020026020010151858381518110611a3f57611a3f615511565b6020026020010151611a51919061562d565b905080868381518110611a6657611a66615511565b602002602001015111611a9f57858281518110611a8557611a85615511565b602002602001015184611a989190615640565b9350611add565b611aa98185615640565b935080868381518110611abe57611abe615511565b6020026020010151611ad0919061562d565b611ada9084615640565b92505b5080611ae881615527565b915050611a09565b508160006008016000828254611b069190615640565b909155505060098054829190600090611b20908490615640565b909155505060408051308152602081018490529081018290524260608201527f2fe77b1c99aca6b022b8efc6e3e8dd1b48b30748709339b65c50ef3263443e099060800160405180910390a150919a909950975050505050505050565b6040805161016081018252600080825260208201819052918101829052606081018290526080810182905260a0810182905260c0810182905260e08101829052610100810182905261012081018290526101408101919091526001805483908110611bea57611bea615511565b600091825260209182902060408051610160810182526002909302909101805463ffffffff808216855264010000000080830482169686019690965268010000000000000000808304821694860194909452600160601b820481166060860152600160801b820481166080860152600160a01b8204811660a0860152600160c01b8204811660c0860152600160e01b909104811660e08501526001909101548082166101008501529384048116610120840152920490911661014082015292915050565b604051639a1140b960e01b815260006004820181905290819073FbD5c61f8214c894421Fd8Fd639F4DA36c5CE53690639a1140b990602401602060405180830381865af4158015611d03573d6000803e3d6000fd5b505050506040513d601f19601f82011682018060405250810190611d279190615209565b60235490939092509050565b611d3b6130f4565b611d53600080516020615af28339815191523361210a565b80611d715750611d71600080516020615ad28339815191523361210a565b611d8d5760405162461bcd60e51b8152600401610a8690615653565b604051635b56e10160e01b81526000600482015263ffffffff8216602482015273B7df8077d23C0Ae26eED5f20c50eB6fc1Ce45Ac990635b56e101906044016110fc565b604051638d372cf960e01b81526000600482018190529073B7df8077d23C0Ae26eED5f20c50eB6fc1Ce45Ac990638d372cf9906024015b602060405180830381865af4158015611e25573d6000803e3d6000fd5b505050506040513d601f19601f8201168201806040525081019061127391906156a8565b611e516130f4565b61018454611e67906001600160a01b0316613147565b6001600160a01b0316336001600160a01b031614611ee15760405162461bcd60e51b815260206004820152603160248201527f53656375726974697a6174696f6e506f6f6c3a2043616c6c6572206d75737420604482015270189948139bdd19551bdad95b95985d5b1d607a1b6064820152608401610a86565b604051630837ca3160e11b8152600060048201526001600160a01b03831660248201526044810182905273B7df8077d23C0Ae26eED5f20c50eB6fc1Ce45Ac99063106f9462906064016116d7565b611f37612485565b611f535760405162461bcd60e51b8152600401610a86906154b4565b61173761347f565b611f636130f4565b600080516020615ad2833981519152611f7b81613154565b604051638d372cf960e01b81526000600482015273B7df8077d23C0Ae26eED5f20c50eB6fc1Ce45Ac990638d372cf990602401602060405180830381865af4158015611fcb573d6000803e3d6000fd5b505050506040513d601f19601f82011682018060405250810190611fef91906156a8565b6120535760405162461bcd60e51b815260206004820152602f60248201527f53656375726974697a6174696f6e506f6f6c3a20526564656d7074696f6e206860448201526e185cc81b9bdd08199a5b9a5cda1959608a1b6064820152608401610a86565b604051637d7c571760e11b8152600060048201526001600160a01b038316602482015273B7df8077d23C0Ae26eED5f20c50eB6fc1Ce45Ac99063faf8ae2e906044016116d7565b6000828152610120602052604081206120b390836134bc565b9392505050565b6120c26130f4565b6120cb336113f2565b604051637538156560e01b8152600060048201526024810182905273B7df8077d23C0Ae26eED5f20c50eB6fc1Ce45Ac9906375381565906044016110fc565b600091825260ee602090815260408084206001600160a01b0393909316845291905290205460ff1690565b600080516020615af283398151915261214d81613154565b604051632915c6ef60e21b81526000600482015260248101839052738FD7C82Ff6A91B08aA8AB4EE049b0fCCe57AE5629063a4571bbc9060440160006040518083038186803b15801561219f57600080fd5b505af41580156121b3573d6000803e3d6000fd5b50505050611509612375565b600073FbD5c61f8214c894421Fd8Fd639F4DA36c5CE53663937e8cbf6121e560006130ab565b6121ef60006130d3565b604051639a1140b960e01b81526000600482015273FbD5c61f8214c894421Fd8Fd639F4DA36c5CE53690639a1140b990602401602060405180830381865af415801561223f573d6000803e3d6000fd5b505050506040513d601f19601f820116820180604052508101906122639190615209565b60235460405160e086901b6001600160e01b03191681526004810194909452602484019290925260448301526064820152608401602060405180830381865af41580156122b4573d6000803e3d6000fd5b505050506040513d601f19601f820116820180604052508101906112739190615209565b6122e06130f4565b600080516020615ad28339815191526122f881613154565b60405163d37cc71360e01b8152730E36d6058D5aE4a91C1bD69bbFa26A71921352D39063d37cc7139061233c906002908b908b908b908b908b908b90600401615701565b60006040518083038186803b15801561235457600080fd5b505af4158015612368573d6000803e3d6000fd5b5050505050505050505050565b73FbD5c61f8214c894421Fd8Fd639F4DA36c5CE53663c1a5db1c600061239b60006130ab565b6123a560006130d3565b6040516001600160e01b031960e086901b168152600481019390935260248301919091526044820152606401610ac3565b6123de6130f4565b6123f6600080516020615af28339815191523361210a565b806124145750612414600080516020615ad28339815191523361210a565b6124305760405162461bcd60e51b8152600401610a8690615653565b60405163070f0cf160e01b8152600060048201526024810182905273B7df8077d23C0Ae26eED5f20c50eB6fc1Ce45Ac99063070f0cf1906044016110fc565b600061247d60255460ff1690565b60ff16905090565b600061249f600080516020615ad28339815191523361210a565b80611273575061127360003361210a565b6124b933611688565b60405163ece6e31360e01b81526000600482015263ffffffff8216602482015273B7df8077d23C0Ae26eED5f20c50eB6fc1Ce45Ac99063ece6e313906044016110fc565b60006060730E36d6058D5aE4a91C1bD69bbFa26A71921352D363aa12d15f600086866040518463ffffffff1660e01b815260040161253d93929190615743565b600060405180830381865af415801561255a573d6000803e3d6000fd5b505050506040513d6000823e601f3d908101601f19168201604052612582919081019061582e565b915091505b9250929050565b600081815261012060205260408120610a1e906134c8565b600061127360006130d3565b602554610100900460ff16158080156125d25750602554600160ff909116105b806125ec5750303b1580156125ec575060255460ff166001145b61264f5760405162461bcd60e51b815260206004820152602e60248201527f496e697469616c697a61626c653a20636f6e747261637420697320616c72656160448201526d191e481a5b9a5d1a585b1a5e995960921b6064820152608401610a86565b6025805460ff191660011790558015612672576025805461ff0019166101001790555b61267b336134d2565b6001600160a01b0383166126d15760405162461bcd60e51b815260206004820181905260248201527f526567697374727920616464726573732063616e6e6f7420626520656d7074796044820152606401610a86565b61018480546001600160a01b0319166001600160a01b0385161790558151600090612705906020908501810190850161586a565b80519091506001600160a01b03166127585760405162461bcd60e51b8152602060048201526016602482015275506f6f6c3a20496e76616c69642063757272656e637960501b6044820152606401610a86565b8051600780546001600160a01b0319166001600160a01b0390921691909117905560408101516000805460ff1916911515919091178155600a80546bffffffffffffffffffffffff1630600160601b0217905560208201516127ba919061351a565b6127c9600082606001516135f4565b805160405163095ea7b360e01b815230600482015260001960248201526001600160a01b039091169063095ea7b3906044016020604051808303816000875af115801561281a573d6000803e3d6000fd5b505050506040513d601f19601f8201168201806040525081019061283e91906156a8565b61288a5760405162461bcd60e51b815260206004820152601e60248201527f506f6f6c3a2043757272656e637920617070726f76616c206661696c656400006044820152606401610a86565b610184546128a0906001600160a01b03166130e7565b610184546001600160a01b039182169163a22cb465916128c09116613422565b6040516001600160e01b031960e084901b1681526001600160a01b03909116600482015260016024820152604401600060405180830381600087803b15801561290857600080fd5b505af115801561291c573d6000803e3d6000fd5b505050505080156111f6576025805461ff0019169055604051600181527f7f26b83ff96e1f2b6a682f133852f6798a09c465da95921460cefb38474024989060200160405180910390a1505050565b600082815260ee602052604090206001015461298681613154565b6111f68383613338565b6040516303954afb60e51b81526000600482018190529073B7df8077d23C0Ae26eED5f20c50eB6fc1Ce45Ac9906372a95f6090602401611e08565b6129d36130f4565b6129db61362b565b6129f3600080516020615af28339815191523361210a565b80612a115750612a11600080516020615ad28339815191523361210a565b612a2d5760405162461bcd60e51b8152600401610a8690615653565b604051639178a8a160e01b8152730E36d6058D5aE4a91C1bD69bbFa26A71921352D390639178a8a190612a6d9060029088908890889088906004016158e6565b60006040518083038186803b158015612a8557600080fd5b505af4158015612a99573d6000803e3d6000fd5b50505050610aef6001608a55565b6000610a1e60008361368b565b600080516020615af2833981519152612acc81613154565b6040516356a5a29960e01b8152600060048201526024810184905260448101839052738FD7C82Ff6A91B08aA8AB4EE049b0fCCe57AE562906356a5a2999060640160006040518083038186803b158015612b2557600080fd5b505af4158015612b39573d6000803e3d6000fd5b505050506111f6612375565b612b4d6130f4565b61018454612b63906001600160a01b031661313a565b6001600160a01b0316336001600160a01b03161480612ba8575061018454612b93906001600160a01b0316613147565b6001600160a01b0316336001600160a01b0316145b612bc45760405162461bcd60e51b8152600401610a869061527f565b60405163289cbccd60e21b8152600060048201526024810182905273B7df8077d23C0Ae26eED5f20c50eB6fc1Ce45Ac99063a272f334906044016110fc565b612c0b6130f4565b612c1361362b565b612c2b600080516020615af28339815191523361210a565b80612c495750612c49600080516020615ad28339815191523361210a565b612c655760405162461bcd60e51b8152600401610a8690615653565b604051635cd35d6360e11b8152600060048201526001600160a01b038216602482015273B7df8077d23C0Ae26eED5f20c50eB6fc1Ce45Ac99063b9a6bac69060440160006040518083038186803b158015612cbf57600080fd5b505af4158015612cd3573d6000803e3d6000fd5b505061018454612cee92506001600160a01b0316905061313a565b60405163dc90f9fd60e01b81526001600160a01b038381166004830152919091169063dc90f9fd90602401600060405180830381600087803b158015612d3357600080fd5b505af1158015612d47573d6000803e3d6000fd5b505050506117d36001608a55565b612d5d6130f4565b612d66336113f2565b612d907f59abfac6520ec36a6556b2a4dd949cc40007459bcd5cd2507f1e5cc77b6bc97e8361210a565b612df55760405162461bcd60e51b815260206004820152603060248201527f53656375726974697a6174696f6e506f6f6c3a204f6e6c79204f726967696e6160448201526f3a37b91031b0b710323930bbb237bbb760811b6064820152608401610a86565b61018454612e0b906001600160a01b0316613147565b604051634ce9451960e01b81523060048201526001600160a01b039190911690634ce9451990602401602060405180830381865afa158015612e51573d6000803e3d6000fd5b505050506040513d601f19601f82011682018060405250810190612e7591906156a8565b15612ece5760405162461bcd60e51b815260206004820152602360248201527f53656375726974697a6174696f6e506f6f6c3a207769746864726177207061756044820152621cd95960ea1b6064820152608401610a86565b604051635d46333760e11b8152600060048201526001600160a01b03831660248201526044810182905273B7df8077d23C0Ae26eED5f20c50eB6fc1Ce45Ac99063ba8c666e906064016116d7565b612f246130f4565b61018454612f3a906001600160a01b031661313a565b6001600160a01b0316336001600160a01b03161480612f7f575061018454612f6a906001600160a01b0316613147565b6001600160a01b0316336001600160a01b0316145b612f9b5760405162461bcd60e51b8152600401610a869061527f565b604051637564542160e11b8152600060048201526024810182905273B7df8077d23C0Ae26eED5f20c50eB6fc1Ce45Ac99063eac8a842906044016110fc565b6040805180820190915260008082526020820152600280548390811061300257613002615511565b60009182526020918290206040805180820190915260029092020180546001600160a01b03168252600101549181019190915292915050565b604051631c87621560e31b81526000600482018190529073B7df8077d23C0Ae26eED5f20c50eB6fc1Ce45Ac99063e43b10a890602401611232565b60006001600160e01b03198216637965db0b60e01b1480610a1e57506301ffc9a760e01b6001600160e01b0319831614610a1e565b6000806000806130ba856136b9565b925092509250611486836130ce84846137be565b6137be565b6000610a1e826009015483600801546137be565b6000610a1e82600561380e565b60585460ff16156117375760405162461bcd60e51b815260206004820152601060248201526f14185d5cd8589b194e881c185d5cd95960821b6044820152606401610a86565b6000610a1e82600061380e565b6000610a1e82600961380e565b6117d38133613893565b6000818152601083016020908152604080832054808452600e860190925282206001810154600482015460059092015490919065ffffffffffff16421061320b576000838152600e870160205260409020600181015460028201546005909201546131d1929065ffffffffffff166138ec565b6000848152600e880160205260409020600481015460038201546005909201549294506132089290919065ffffffffffff166138ec565b90505b80600003613239576000858152600f8701602052604090205461322f90839061390c565b9350505050610a1e565b61322f8161325c8489600f0160008a81526020019081526020016000205461390c565b61390c565b600082815260ee6020526040808220600101805490849055905190918391839186917fbd79b86ffe0ab8e8776151514217cd7cacd52c909f66475c3af44e129f0b00ff9190a4505050565b6132b68282613918565b6000828152610120602052604090206111f6908261399e565b6132d882613422565b6001600160a01b0316816001600160a01b0316146115095760405162461bcd60e51b815260206004820152601960248201527f52656769737472793a204f6e6c79204c6f616e4b65726e656c000000000000006044820152606401610a86565b61334282826139b3565b6000828152610120602052604090206111f69082613a1a565b6133648261313a565b6001600160a01b0316816001600160a01b0316146115095760405162461bcd60e51b8152602060048201526024808201527f52656769737472793a204f6e6c792053656375726974697a6174696f6e4d616e60448201526330b3b2b960e11b6064820152608401610a86565b6133d8613a2f565b6058805460ff191690557f5db9ee0a495bf2e6ff9c91a7834c1ba4fdd244a5e8aa4e537bd38aeae4b073aa335b6040516001600160a01b03909116815260200160405180910390a1565b6000610a1e82600661380e565b60008160000361345c576000848152600f8601602052604090205461345590849061390c565b905061103a565b6134558261325c8588600f0160008981526020019081526020016000205461390c565b6134876130f4565b6058805460ff191660011790557f62e78cea01bee320cd4e420270b5ea74000d11b0c9f74754ebdbfc544b05a2586134053390565b60006120b38383613a78565b6000610a1e825490565b602554610100900460ff166134f95760405162461bcd60e51b8152600401610a8690615924565b613501613aa2565b613509613ad5565b613511613afc565b6117d381613b23565b6135276127106064615246565b8163ffffffff1611156135a25760405162461bcd60e51b815260206004820152603b60248201527f53656375726974697a6174696f6e506f6f6c3a206d696e46697273744c6f737360448201527f43757368696f6e2069732067726561746572207468616e2031303000000000006064820152608401610a86565b600a8201805463ffffffff191663ffffffff83169081179091556040519081527f091193ea2a1d71a11f3479abe1d30b1ba8fecf8b18e1c728e3ee787de54d0399906020015b60405180910390a15050565b600d82018190556040518181527f3fb30b6090e6989c6819119c2885012949e75471ed4ce5e80c9be541ea0e2f3f906020016135e8565b6002608a540361367d5760405162461bcd60e51b815260206004820152601f60248201527f5265656e7472616e637947756172643a207265656e7472616e742063616c6c006044820152606401610a86565b6002608a55565b6001608a55565b60008060008061369b8686613bee565b9250925092506136af836130ce84846137be565b9695505050505050565b601a810154601c8201546018830154601b8401546000938493849391929091908385036136fb576000836136ec8a613d5a565b965096509650505050506137b7565b60008061370742613dcc565b9050825b8181101561377b57600081815260168c016020526040902054801561376657613757846130ce836137528a6137408989613de8565b6b033b2e3c9fd0803ce8000000613e38565b613ef6565b93506137638a826137be565b99505b506137748162015180615640565b905061370b565b5061379761379187613752876137408689613de8565b83613f19565b6137a1868a6137be565b6137aa8c613d5a565b9850985098505050505050505b9193909250565b6000826137cb8382615640565b9150811015610a1e5760405162461bcd60e51b815260206004820152600f60248201526e1cd859994b5859190b59985a5b1959608a1b6044820152606401610a86565b6000826001600160a01b031663bcaa0c5583600981111561383157613831614992565b6040516001600160e01b031960e084901b16815260ff9091166004820152602401602060405180830381865afa15801561386f573d6000803e3d6000fd5b505050506040513d601f19601f820116820180604052508101906120b391906150c6565b61389d828261210a565b611509576138aa81613f35565b6138b5836020613f47565b6040516020016138c6929190615993565b60408051601f198184030181529082905262461bcd60e51b8252610a8691600401615a08565b600081421061390457613901848484426140e2565b93505b509192915050565b60006120b38284613ef6565b613922828261210a565b61150957600082815260ee602090815260408083206001600160a01b03851684529091529020805460ff1916600117905561395a3390565b6001600160a01b0316816001600160a01b0316837f2f8788117e7eff1d82e926ec794901d17c78024a50270940304540a733656f0d60405160405180910390a45050565b60006120b3836001600160a01b0384166140fb565b6139bd828261210a565b1561150957600082815260ee602090815260408083206001600160a01b0385168085529252808320805460ff1916905551339285917ff6391f5c32d9c69d2a47ea670b442974b53935d1edc7fd64eb21e047a839171b9190a45050565b60006120b3836001600160a01b03841661414a565b60585460ff166117375760405162461bcd60e51b815260206004820152601460248201527314185d5cd8589b194e881b9bdd081c185d5cd95960621b6044820152606401610a86565b6000826000018281548110613a8f57613a8f615511565b9060005260206000200154905092915050565b602554610100900460ff16613ac95760405162461bcd60e51b8152600401610a8690615924565b6058805460ff19169055565b602554610100900460ff166136845760405162461bcd60e51b8152600401610a8690615924565b602554610100900460ff166117375760405162461bcd60e51b8152600401610a8690615924565b602554610100900460ff16613b4a5760405162461bcd60e51b8152600401610a8690615924565b6001600160a01b038116613b5b5750335b613b66600033614244565b613b7e600080516020615ad283398151915282614244565b613bb67f59abfac6520ec36a6556b2a4dd949cc40007459bcd5cd2507f1e5cc77b6bc97e600080516020615ad2833981519152613261565b6117d37f21702c8af46127c7fa207f89d0b0a8441bb32959a0ac7df790e9ab1a25c98926600080516020615af2833981519152613261565b60188201546000828152601d84016020908152604080832054601b870154601e880190935290832054929384938493849391613c2a8a8a61424e565b15613c82576000613c3b8b8b614281565b9050613c7e613c4a8c8c61315e565b8c6017018381548110613c5f57613c5f615511565b60009182526020909120600290910201546001600160801b0316613ef6565b9550505b82600003613c9c57600097509550929350613d5392505050565b600080613ca842613dcc565b60008c815260148e01602052604081205491925090613cd690600160801b90046001600160801b0316613dcc565b9050848110158015613ce757508181105b15613d1e5760008c815260148e0160205260409020546001600160801b0316613d18816137528a6137408787613de8565b909a5092505b613d39613d33876137528a613740878b613de8565b84613f19565b613d43858c6137be565b899a509a509a5050505050505050505b9250925092565b6000805b6017830154811015613dc657613db2826130ce613d9d8685613d8e6b033b2e3c9fd0803ce80000006103e8615246565b613d989190615640565b614400565b866017018581548110613c5f57613c5f615511565b915080613dbe81615527565b915050613d5e565b50919050565b6000613ddb620151808361525d565b610a1e9062015180615246565b600082613df5838261562d565b9150811115610a1e5760405162461bcd60e51b815260206004820152600f60248201526e1cd859994b5cdd588b59985a5b1959608a1b6044820152606401610a86565b6000838015613ed857600184168015613e5357859250613e57565b8392505b50600283046002850494505b8415613ed2578586028687820414613e7a57600080fd5b81810181811015613e8a57600080fd5b8590049650506001851615613ec7578583028387820414158715151615613eb057600080fd5b81810181811015613ec057600080fd5b8590049350505b600285049450613e63565b50613eee565b838015613ee85760009250613eec565b8392505b505b509392505050565b60006b033b2e3c9fd0803ce8000000613f0f84846144c0565b6120b3919061525d565b600082821115613f2b57506000610a1e565b6120b38383613de8565b6060610a1e6001600160a01b03831660145b60606000613f56836002615246565b613f61906002615640565b6001600160401b03811115613f7857613f7861474a565b6040519080825280601f01601f191660200182016040528015613fa2576020820181803683370190505b509050600360fc1b81600081518110613fbd57613fbd615511565b60200101906001600160f81b031916908160001a905350600f60fb1b81600181518110613fec57613fec615511565b60200101906001600160f81b031916908160001a9053506000614010846002615246565b61401b906001615640565b90505b6001811115614093576f181899199a1a9b1b9c1cb0b131b232b360811b85600f166010811061404f5761404f615511565b1a60f81b82828151811061406557614065615511565b60200101906001600160f81b031916908160001a90535060049490941c9361408c81615a3b565b905061401e565b5083156120b35760405162461bcd60e51b815260206004820181905260248201527f537472696e67733a20686578206c656e67746820696e73756666696369656e746044820152606401610a86565b60006114866140f585613740868661562d565b86613ef6565b600081815260018301602052604081205461414257508154600181810184556000848152602080822090930184905584548482528286019093526040902091909155610a1e565b506000610a1e565b6000818152600183016020526040812054801561423357600061416e60018361562d565b85549091506000906141829060019061562d565b90508181146141e75760008660000182815481106141a2576141a2615511565b90600052602060002001549050808760000184815481106141c5576141c5615511565b6000918252602080832090910192909255918252600188019052604090208390555b85548690806141f8576141f8615a52565b600190038181906000526020600020016000905590558560010160008681526020019081526020016000206000905560019350505050610a1e565b6000915050610a1e565b5092915050565b61150982826132ac565b60006142686b033b2e3c9fd0803ce80000006103e8615246565b6000928352601093909301602052506040902054101590565b60008181526014830160205260408120548290600160801b90046001600160801b0316826142ae42613dcc565b905060006142bc8785614522565b90506000600182604001516142d19190615a68565b90506001600160801b036000805b60178b01546001600160801b03821610156143e95760008b601701826001600160801b03168154811061431457614314615511565b906000526020600020906002020160000160109054906101000a90046001600160801b03169050846001600160801b03168c601701836001600160801b03168154811061436357614363615511565b60009182526020909120600160029092020101546001600160801b031614801561439f5750826001600160801b0316816001600160801b031610155b80156143ca57506143b38162015180615a88565b6143c6906001600160801b031689615640565b8710155b156143d6578193508092505b50806143e181615aab565b9150506142df565b50506001600160801b031698975050505050505050565b6000818152600e8301602052604081206001810154600482015482546005909301549192909165ffffffffffff1642106144a0576000858152600e87016020526040902060018101546002820154600590920154614466929065ffffffffffff166138ec565b6000868152600e8801602052604090206004810154600382015460059092015492955061449d9290919065ffffffffffff166138ec565b91505b816000036144b25761322f838261390c565b61322f8261325c858461390c565b60008115806144e4575082826144d68183615246565b92506144e2908361525d565b145b610a1e5760405162461bcd60e51b815260206004820152600f60248201526e1cd859994b5b5d5b0b59985a5b1959608a1b6044820152606401610a86565b61452a61465f565b600082815260148401602090815260409182902082516102008101845281546001600160801b038082168352600160801b9091048116938201939093526001808301549093169381019390935260028101546001600160a01b0390811660608501526003820154166080840152600481015460a0840152600581015460c0840152600681015460e08401526007810154909161010084019160ff16908111156145d5576145d5614992565b60018111156145e6576145e6614992565b81526008820154602082015260098201546040820152600a8201546060820152600b8201546080820152600c82015460a09091019060ff16600581111561462f5761462f614992565b600581111561464057614640614992565b8152600d8201546020820152600e909101546040909101529392505050565b6040805161020081018252600080825260208201819052918101829052606081018290526080810182905260a0810182905260c0810182905260e0810182905261010081018290526101208101829052610140810182905261016081018290526101808101829052906101a0820190815260200160008152602001600081525090565b6000602082840312156146f457600080fd5b81356001600160e01b0319811681146120b357600080fd5b60006020828403121561471e57600080fd5b5035919050565b6001600160a01b03811681146117d357600080fd5b803561474581614725565b919050565b634e487b7160e01b600052604160045260246000fd5b60405161010081016001600160401b03811182821017156147835761478361474a565b60405290565b604051601f8201601f191681016001600160401b03811182821017156147b1576147b161474a565b604052919050565b600082601f8301126147ca57600080fd5b81356001600160401b038111156147e3576147e361474a565b6147f6601f8201601f1916602001614789565b81815284602083860101111561480b57600080fd5b816020850160208301376000918101602001919091529392505050565b6000806000806080858703121561483e57600080fd5b843561484981614725565b9350602085013561485981614725565b92506040850135915060608501356001600160401b0381111561487b57600080fd5b614887878288016147b9565b91505092959194509250565b60008083601f8401126148a557600080fd5b5081356001600160401b038111156148bc57600080fd5b6020830191508360208260051b850101111561258757600080fd5b600080600080600080606087890312156148f057600080fd5b86356001600160401b038082111561490757600080fd5b6149138a838b01614893565b9098509650602089013591508082111561492c57600080fd5b6149388a838b01614893565b9096509450604089013591508082111561495157600080fd5b5061495e89828a01614893565b979a9699509497509295939492505050565b6000806040838503121561498357600080fd5b50508035926020909101359150565b634e487b7160e01b600052602160045260246000fd5b600281106117d3576117d3614992565b6149c1816149a8565b9052565b600681106149c1576149c1614992565b81516001600160801b0316815261020081016020830151614a0160208401826001600160801b03169052565b506040830151614a1c60408401826001600160801b03169052565b506060830151614a3760608401826001600160a01b03169052565b506080830151614a5260808401826001600160a01b03169052565b5060a083015160a083015260c083015160c083015260e083015160e083015261010080840151614a84828501826149b8565b505061012083810151908301526101408084015190830152610160808401519083015261018080840151908301526101a080840151614ac5828501826149c5565b50506101c083810151908301526101e092830151929091019190915290565b60008060408385031215614af757600080fd5b823591506020830135614b0981614725565b809150509250929050565b60008060008060408587031215614b2a57600080fd5b84356001600160401b0380821115614b4157600080fd5b614b4d88838901614893565b90965094506020870135915080821115614b6657600080fd5b818701915087601f830112614b7a57600080fd5b813581811115614b8957600080fd5b8860208260081b8501011115614b9e57600080fd5b95989497505060200194505050565b600281106117d357600080fd5b803561474581614bad565b60008060408385031215614bd857600080fd5b8235614be381614725565b91506020830135614b0981614bad565b60008060008060408587031215614c0957600080fd5b84356001600160401b0380821115614c2057600080fd5b614c2c88838901614893565b90965094506020870135915080821115614c4557600080fd5b50614c5287828801614893565b95989497509550505050565b600081518084526020808501945080840160005b83811015614c8e57815187529582019590820190600101614c72565b509495945050505050565b604081526000614cac6040830185614c5e565b82810360208401526114868185614c5e565b815163ffffffff16815261016081016020830151614ce4602084018263ffffffff169052565b506040830151614cfc604084018263ffffffff169052565b506060830151614d14606084018263ffffffff169052565b506080830151614d2c608084018263ffffffff169052565b5060a0830151614d4460a084018263ffffffff169052565b5060c0830151614d5c60c084018263ffffffff169052565b5060e0830151614d7460e084018263ffffffff169052565b506101008381015163ffffffff81168483015250506101208381015163ffffffff81168483015250506101408381015163ffffffff8116848301525b505092915050565b63ffffffff811681146117d357600080fd5b600060208284031215614ddc57600080fd5b81356120b381614db8565b60008060408385031215614dfa57600080fd5b8235614e0581614725565b946020939093013593505050565b600060208284031215614e2557600080fd5b81356120b381614725565b60006001600160401b03821115614e4957614e4961474a565b5060051b60200190565b60ff811681146117d357600080fd5b803561474581614e53565b600082601f830112614e7e57600080fd5b81356020614e93614e8e83614e30565b614789565b82815260089290921b84018101918181019086841115614eb257600080fd5b8286015b84811015614f4d576101008189031215614ed05760008081fd5b614ed8614760565b8135614ee381614725565b8152614ef082860161473a565b8186015260408281013590820152606080830135908201526080808301359082015260a0808301359082015260c0614f29818401614e62565b9082015260e0614f3a838201614bba565b9082015283529183019161010001614eb6565b509695505050505050565b60008060408385031215614f6b57600080fd5b82356001600160401b0380821115614f8257600080fd5b818501915085601f830112614f9657600080fd5b81356020614fa6614e8e83614e30565b82815260059290921b84018101918181019089841115614fc557600080fd5b948201945b83861015614fe357853582529482019490820190614fca565b96505086013592505080821115614ff957600080fd5b5061500685828601614e6d565b9150509250929050565b82815260406020820152600061103a6040830184614c5e565b6000806040838503121561503c57600080fd5b823561504781614725565b915060208301356001600160401b0381111561506257600080fd5b615006858286016147b9565b6000806000806060858703121561508457600080fd5b843561508f81614725565b9350602085013561509f81614725565b925060408501356001600160401b038111156150ba57600080fd5b614c5287828801614893565b6000602082840312156150d857600080fd5b81516120b381614725565b6000602082840312156150f557600080fd5b81516120b381614e53565b634e487b7160e01b600052601160045260246000fd5b600181815b8085111561515157816000190482111561513757615137615100565b8085161561514457918102915b93841c939080029061511b565b509250929050565b60008261516857506001610a1e565b8161517557506000610a1e565b816001811461518b5760028114615195576151b1565b6001915050610a1e565b60ff8411156151a6576151a6615100565b50506001821b610a1e565b5060208310610133831016604e8410600b84101617156151d4575081810a610a1e565b6151de8383615116565b80600019048211156151f2576151f2615100565b029392505050565b60006120b360ff841683615159565b60006020828403121561521b57600080fd5b5051919050565b6000806040838503121561523557600080fd5b505080516020909101519092909150565b8082028115828204841417610a1e57610a1e615100565b60008261527a57634e487b7160e01b600052601260045260246000fd5b500490565b6020808252604a908201527f53656375726974697a6174696f6e506f6f6c3a2043616c6c6572206d7573742060408201527f62652053656375726974697a6174696f6e4d616e61676572206f72204e6f7465606082015269151bdad95b95985d5b1d60b21b608082015260a00190565b8183526000602080850194508260005b85811015614c8e57813561531281614db8565b63ffffffff16875295820195908201906001016152ff565b87815260806020820152600061534460808301888a6152ef565b82810360408401526153578187896152ef565b9050828103606084015261536c8185876152ef565b9a9950505050505050505050565b81835260006001600160fb1b0383111561539357600080fd5b8260051b80836020870137939093016020019392505050565b60006060878352602081818501526153c7828501888a61537a565b8481036040868101919091528682528791830160005b888110156154775783356153f081614725565b6001600160a01b039081168352848601359061540b82614725565b1682860152838301358383015285840135868301526080808501359083015260a0808501359083015260c0615441818601614e62565b60ff169083015260e0615455858201614bba565b615461828501826149b8565b50506101009384019391909101906001016153dd565b509b9a5050505050505050505050565b8381526001600160a01b0383166020820152606081016154a6836149a8565b826040830152949350505050565b6020808252603a908201527f556e74616e676c6564426173653a204d75737420686176652061646d696e207260408201527f6f6c6520746f20706572666f726d207468697320616374696f6e000000000000606082015260800190565b634e487b7160e01b600052603260045260246000fd5b60006001820161553957615539615100565b5060010190565b85815260606020820152600061555a60608301868861537a565b828103604084015261556d81858761537a565b98975050505050505050565b600082601f83011261558a57600080fd5b8151602061559a614e8e83614e30565b82815260059290921b840181019181810190868411156155b957600080fd5b8286015b84811015614f4d57805183529183019183016155bd565b600080604083850312156155e757600080fd5b82516001600160401b03808211156155fe57600080fd5b61560a86838701615579565b9350602085015191508082111561562057600080fd5b5061500685828601615579565b81810381811115610a1e57610a1e615100565b80820180821115610a1e57610a1e615100565b60208082526025908201527f506f6f6c3a204e6f7420616e20706f6f6c2061646d696e206f7220706f6f6c2060408201526437bbb732b960d91b606082015260800190565b8051801515811461474557600080fd5b6000602082840312156156ba57600080fd5b6120b382615698565b8183526000602080850194508260005b85811015614c8e5781356156e681614725565b6001600160a01b0316875295820195908201906001016156d3565b87815260806020820152600061571b60808301888a6156c3565b828103604084015261572e81878961537a565b9050828103606084015261536c8185876156c3565b600060608083018684526020828186015281875180845260809350838701915082890160005b8281101561578557815184529284019290840190600101615769565b50505085810360408781019190915287518083528389019284019060005b8181101561581d57845180516001600160a01b03908116855287820151168785015284810151858501528881015189850152878101518885015260a0808201519085015260c08082015160ff169085015260e09081015190615807818601836149b8565b50509385019361010092909201916001016157a3565b50909b9a5050505050505050505050565b6000806040838503121561584157600080fd5b8251915060208301516001600160401b0381111561585e57600080fd5b61500685828601615579565b60006080828403121561587c57600080fd5b604051608081018181106001600160401b038211171561589e5761589e61474a565b60405282516158ac81614725565b815260208301516158bc81614db8565b60208201526158cd60408401615698565b6040820152606083015160608201528091505092915050565b8581526001600160a01b03858116602083015284166040820152608060608201819052600090615919908301848661537a565b979650505050505050565b6020808252602b908201527f496e697469616c697a61626c653a20636f6e7472616374206973206e6f74206960408201526a6e697469616c697a696e6760a81b606082015260800190565b60005b8381101561598a578181015183820152602001615972565b50506000910152565b7f416363657373436f6e74726f6c3a206163636f756e74200000000000000000008152600083516159cb81601785016020880161596f565b7001034b99036b4b9b9b4b733903937b6329607d1b60179184019182015283516159fc81602884016020880161596f565b01602801949350505050565b6020815260008251806020840152615a2781604085016020870161596f565b601f01601f19169190910160400192915050565b600081615a4a57615a4a615100565b506000190190565b634e487b7160e01b600052603160045260246000fd5b6001600160801b0382811682821603908082111561423d5761423d615100565b6001600160801b03818116838216028082169190828114614db057614db0615100565b60006001600160801b03808316818103615ac757615ac7615100565b600101939250505056feb19546dff01e856fb3f010c267a7b1c60363cf8a4664e21cc89c26224620214e3e9c05fb0f9da4414e033bb9bf190a6e2072adf7e3077394fce683220513b8d7a26469706673582212209581f4ea251fee3939e1a3b33143ba1ae963ddc8e21f10c93dbcd87c4c707d8664736f6c63430008130033",
  "deployedBytecode": "0x608060405234801561001057600080fd5b50600436106104495760003560e01c80636b70f71d11610241578063ba81a9361161013b578063e1c84ea4116100c3578063ed34889511610087578063ed34889514610981578063f3fef3a314610994578063f70a726e146109a7578063fa3908b1146109ba578063febd6018146109f157600080fd5b8063e1c84ea414610938578063e3178bc414610940578063e3adb7f014610953578063e681542d14610966578063e6c0e6d51461097957600080fd5b8063cee7b6a11161010a578063cee7b6a1146108ef578063d1f57894146108f7578063d547741f1461090a578063dd688b0e1461091d578063dec285871461092557600080fd5b8063ba81a936146108a0578063c3d2129d146108b3578063ca15c873146108d4578063cd3293de146108e757600080fd5b806390161705116101c9578063a6c595471161018d578063a6c5954714610862578063af14052c14610875578063b1511cc91461087d578063b3c6501514610890578063b6db75a01461089857600080fd5b8063901617051461081957806391d148541461082c5780639b3e22911461083f578063a217fddf14610852578063a5688a901461085a57600080fd5b80637f3bd56e116102105780637f3bd56e146107c05780638456cb59146107d35780638fd6b71e146107db57806390071cf3146107f35780639010d07c1461080657600080fd5b80636b70f71d1461078957806373ffe3c71461079157806375b1bce7146107a45780637b103999146107ac57600080fd5b80632cbf3da0116103525780634020c8d1116102da5780635648abeb1161029e5780635648abeb14610719578063586fd8a11461072c5780635c975abb1461074d578063644b4ead146107585780636456a3ee1461077857600080fd5b80634020c8d1146106b7578063477035d1146106c257806349110ac4146106ee5780634ba2363a146106f657806353069df61461070e57600080fd5b806336568abe1161032157806336568abe1461064a5780633aa29d7a1461065d5780633b2f880c146106705780633f12dc10146106835780633f4ba83a146106af57600080fd5b80632cbf3da0146105fc5780632cc3ce80146106045780632f2ff15d14610624578063339443571461063757600080fd5b8063185acf74116103d5578063221dc593116103a4578063221dc593146105b0578063248a9ca3146105c15780632b71b450146105e45780632bb14ff0146105ec5780632bcc3682146105f457600080fd5b8063185acf74146105645780631bf51b70146105775780631e0029c81461058a5780631e4e00911461059d57600080fd5b80630902f1ac1161041c5780630902f1ac146104e75780630b7792f1146105035780630bc6bffc1461050b5780630e9bf4e414610530578063150b7a021461053857600080fd5b806301ffc9a71461044e578063065dad8f1461047657806306823e8c146104b457806306aac7ec146104dd575b600080fd5b61046161045c3660046146e2565b6109f9565b60405190151581526020015b60405180910390f35b6104a661048436600461470c565b600090815260146020526040902054600160801b90046001600160801b031690565b60405190815260200161046d565b6104a66104c236600461470c565b6000908152601460205260409020546001600160801b031690565b6104e5610a24565b005b6008546009545b6040805192835260208301919091520161046d565b6002546104a6565b6007546001600160a01b03165b6040516001600160a01b03909116815260200161046d565b6104ee610af5565b61054b610546366004614828565b610ec9565b6040516001600160e01b0319909116815260200161046d565b6104e561057236600461470c565b611042565b6104e56105853660046148d7565b61112f565b6104a661059836600461470c565b6111d4565b6104e56105ab366004614970565b6111e1565b6004546001600160a01b0316610518565b6104a66105cf36600461470c565b600090815260ee602052604090206001015490565b6105186111fb565b600b546104a6565b6001546104a6565b6104a6611278565b61061761061236600461470c565b611284565b60405161046d91906149d5565b6104e5610632366004614ae4565b6113be565b6104a6610645366004614b14565b6113e3565b6104e5610658366004614ae4565b61148f565b6104e561066b366004614970565b61150d565b6104e561067e366004614bc5565b61167b565b6104a661069136600461470c565b6000908152601460205260409020600101546001600160801b031690565b6104e561170b565b60005460ff16610461565b600a5464010000000090046001600160401b03166040516001600160401b03909116815260200161046d565b610461611739565b600a54600160601b90046001600160a01b0316610518565b6020546021546104ee565b6104e561072736600461470c565b611753565b61073f61073a366004614bf3565b6117d6565b60405161046d929190614c99565b60585460ff16610461565b61076b61076636600461470c565b611b7d565b60405161046d9190614cbe565b6003546001600160a01b0316610518565b6104ee611cae565b6104e561079f366004614dca565b611d33565b610461611dd1565b61018454610518906001600160a01b031681565b6104e56107ce366004614de7565b611e49565b6104e5611f2f565b600a5460405163ffffffff909116815260200161046d565b6104e5610801366004614e13565b611f5b565b610518610814366004614970565b61209a565b6104e561082736600461470c565b6120ba565b61046161083a366004614ae4565b61210a565b6104e561084d36600461470c565b612135565b6104a6600081565b6104a66121bf565b6104e56108703660046148d7565b6122d8565b6104e5612375565b6104e561088b36600461470c565b6123d6565b6104a661246f565b610461612485565b6104e56108ae366004614dca565b6124b0565b6108c66108c1366004614f58565b6124fd565b60405161046d929190615010565b6104a66108e236600461470c565b61258e565b6104a66125a6565b600c546104a6565b6104e5610905366004615029565b6125b2565b6104e5610918366004614ae4565b61296b565b610461612990565b6104e561093336600461506e565b6129cb565b600d546104a6565b6104a661094e36600461470c565b612aa7565b6104e5610961366004614970565b612ab4565b6104e561097436600461470c565b612b45565b6018546104a6565b6104e561098f366004614e13565b612c03565b6104e56109a2366004614de7565b612d55565b6104e56109b536600461470c565b612f1c565b6109cd6109c836600461470c565b612fda565b6040805182516001600160a01b03168152602092830151928101929092520161046d565b61051861303b565b60006001600160e01b03198216635a05180f60e01b1480610a1e5750610a1e82613076565b92915050565b6003546001600160a01b03163314610a8f5760405162461bcd60e51b8152602060048201526024808201527f53656375726974697a6174696f6e506f6f6c3a204f6e6c7920746765206164646044820152637265737360e01b60648201526084015b60405180910390fd5b604051632fc9435560e01b81526000600482015273__$e2770451a2a37dcdd32d3c1720bab879c1$__90632fc94355906024015b60006040518083038186803b158015610adb57600080fd5b505af4158015610aef573d6000803e3d6000fd5b50505050565b600080600073__$f05580c97a29e5f8396272b0644dfc5da8$__634892cc1660006040518263ffffffff1660e01b8152600401610b3491815260200190565b602060405180830381865af4158015610b51573d6000803e3d6000fd5b505050506040513d601f19601f82011682018060405250810190610b7591906150c6565b604051631c87621560e31b815260006004820181905291925073__$f05580c97a29e5f8396272b0644dfc5da8$__9063e43b10a890602401602060405180830381865af4158015610bca573d6000803e3d6000fd5b505050506040513d601f19601f82011682018060405250810190610bee91906150c6565b90506000826001600160a01b031663313ce5676040518163ffffffff1660e01b8152600401602060405180830381865afa158015610c30573d6000803e3d6000fd5b505050506040513d601f19601f82011682018060405250810190610c5491906150e3565b610c5f90600a6151fa565b90506000806001600160a01b03851615610cd857846001600160a01b03166318160ddd6040518163ffffffff1660e01b8152600401602060405180830381865afa158015610cb1573d6000803e3d6000fd5b505050506040513d601f19601f82011682018060405250810190610cd59190615209565b91505b6001600160a01b03841615610d4c57836001600160a01b03166318160ddd6040518163ffffffff1660e01b8152600401602060405180830381865afa158015610d25573d6000803e3d6000fd5b505050506040513d601f19601f82011682018060405250810190610d499190615209565b90505b60008073__$a68f613c3bdb728f6ba077784ec1fd15de$__6328774cad610d7360006130ab565b610d7d60006130d3565b604051639a1140b960e01b81526000600482015273__$a68f613c3bdb728f6ba077784ec1fd15de$__90639a1140b990602401602060405180830381865af4158015610dcd573d6000803e3d6000fd5b505050506040513d601f19601f82011682018060405250810190610df19190615209565b60235460405160e086901b6001600160e01b031916815260048101949094526024840192909252604483015260648201526084810187905260a4810186905260c4016040805180830381865af4158015610e4f573d6000803e3d6000fd5b505050506040513d601f19601f82011682018060405250810190610e739190615222565b90925090506b033b2e3c9fd0803ce8000000610e8f8684615246565b610e99919061525d565b6b033b2e3c9fd0803ce8000000610eb08784615246565b610eba919061525d565b98509850505050505050509091565b610184546000903390610ee4906001600160a01b03166130e7565b6001600160a01b0316816001600160a01b031614610f625760405162461bcd60e51b815260206004820152603560248201527f53656375726974697a6174696f6e506f6f6c3a204d75737420626520746f6b656044820152741b881a5cdcdd595908189e48155b9d185b99db1959605a1b6064820152608401610a86565b6040805180820182526001600160a01b03838116808352602080840189815260028054600181018255600082905295517f405787fa12a823e0f2b7631cc41b3ba8828b3321ca811111fa75cd3aa3bb5ace96820296870180546001600160a01b0319169190961617909455517f405787fa12a823e0f2b7631cc41b3ba8828b3321ca811111fa75cd3aa3bb5acf909401939093558351908152918201879052917ff1c19e8856063adce43b5f307c6ac9d0af46fd0787c590550c51d7cf02d2e5f4910160405180910390a150630a85bd0160e11b9150505b949350505050565b61104a6130f4565b61018454611060906001600160a01b031661313a565b6001600160a01b0316336001600160a01b031614806110a5575061018454611090906001600160a01b0316613147565b6001600160a01b0316336001600160a01b0316145b6110c15760405162461bcd60e51b8152600401610a869061527f565b6040516338ca404b60e21b8152600060048201526024810182905273__$f05580c97a29e5f8396272b0644dfc5da8$__9063e329012c906044015b60006040518083038186803b15801561111457600080fd5b505af4158015611128573d6000803e3d6000fd5b5050505050565b6111376130f4565b600080516020615af283398151915261114f81613154565b6040516318d6411560e31b815273__$e2770451a2a37dcdd32d3c1720bab879c1$__9063c6b208a890611193906000908b908b908b908b908b908b9060040161532a565b60006040518083038186803b1580156111ab57600080fd5b505af41580156111bf573d6000803e3d6000fd5b505050506111cb612375565b50505050505050565b6000610a1e60008361315e565b60006111ec81613154565b6111f68383613261565b505050565b604051632449660b60e11b81526000600482018190529073__$f05580c97a29e5f8396272b0644dfc5da8$__90634892cc16906024015b602060405180830381865af415801561124f573d6000803e3d6000fd5b505050506040513d601f19601f8201168201806040525081019061127391906150c6565b905090565b600061127360006130ab565b61128c61465f565b60008281526014602090815260409182902082516102008101845281546001600160801b038082168352600160801b9091048116938201939093526001808301549093169381019390935260028101546001600160a01b0390811660608501526003820154166080840152600481015460a0840152600581015460c0840152600681015460e08401526007810154909161010084019160ff169081111561133557611335614992565b600181111561134657611346614992565b81526008820154602082015260098201546040820152600a8201546060820152600b8201546080820152600c82015460a09091019060ff16600581111561138f5761138f614992565b60058111156113a0576113a0614992565b8152600d8201546020820152600e9091015460409091015292915050565b600082815260ee60205260409020600101546113d981613154565b6111f683836132ac565b60006113ed6130f4565b611405335b610184546001600160a01b0316906132cf565b604051637f337ae160e11b815273__$e2770451a2a37dcdd32d3c1720bab879c1$__9063fe66f5c2906114459060009089908990899089906004016153ac565b602060405180830381865af4158015611462573d6000803e3d6000fd5b505050506040513d601f19601f820116820180604052508101906114869190615209565b95945050505050565b6001600160a01b03811633146114ff5760405162461bcd60e51b815260206004820152602f60248201527f416363657373436f6e74726f6c3a2063616e206f6e6c792072656e6f756e636560448201526e103937b632b9903337b91039b2b63360891b6064820152608401610a86565b6115098282613338565b5050565b61018454611523906001600160a01b031661313a565b6001600160a01b0316336001600160a01b03161480611568575061018454611553906001600160a01b0316613147565b6001600160a01b0316336001600160a01b0316145b6115845760405162461bcd60e51b8152600401610a869061527f565b73__$a68f613c3bdb728f6ba077784ec1fd15de$__632fb8626260006115aa60006130ab565b6115b460006130d3565b6040516001600160e01b031960e086901b168152600481019390935260248301919091526044820152606481018590526084810184905260a40160006040518083038186803b15801561160657600080fd5b505af415801561161a573d6000803e3d6000fd5b5050505060008211156115095761162f611739565b6115095760405162461bcd60e51b815260206004820152601a60248201527f506f6f6c3a2045786365656473204d696e46697273744c6f73730000000000006044820152606401610a86565b6116836130f4565b61169b335b610184546001600160a01b03169061335b565b6040516317f8caf760e31b815273__$f05580c97a29e5f8396272b0644dfc5da8$__9063bfc657b8906116d79060009086908690600401615487565b60006040518083038186803b1580156116ef57600080fd5b505af4158015611703573d6000803e3d6000fd5b505050505050565b611713612485565b61172f5760405162461bcd60e51b8152600401610a86906154b4565b6117376133d0565b565b60006117436121bf565b600a5463ffffffff161115919050565b61175b6130f4565b60405163b21b589960e01b8152600060048201523360248201526044810182905273__$f05580c97a29e5f8396272b0644dfc5da8$__9063b21b58999060640160006040518083038186803b1580156117b357600080fd5b505af41580156117c7573d6000803e3d6000fd5b505050506117d3612375565b50565b61018454606090819033906117f3906001600160a01b0316613422565b6001600160a01b03161461183a5760405162461bcd60e51b815260206004820152600e60248201526d1b9bdd08185d5d1a1bdc9a5e995960921b6044820152606401610a86565b8483811461187b5760405162461bcd60e51b815260206004820152600e60248201526d092dcecc2d8d2c840d8cadccee8d60931b6044820152606401610a86565b6000816001600160401b038111156118955761189561474a565b6040519080825280602002602001820160405280156118be578160200160208202803683370190505b50905060005b828110156119765760008061191a60008c8c868181106118e6576118e6615511565b9050602002013560009081526010820160209081526040808320548352600e90930190522060018101546004909101549091565b9150915061194360008c8c8681811061193557611935615511565b90506020020135848461342f565b84848151811061195557611955615511565b6020026020010181815250505050808061196e90615527565b9150506118c4565b5060008073__$7f0f8de4978e89001c10ba53aee4a3ea4c$__632f3e0ce060008c8c8c8c6040518663ffffffff1660e01b81526004016119ba959493929190615540565b600060405180830381865af41580156119d7573d6000803e3d6000fd5b505050506040513d6000823e601f3d908101601f191682016040526119ff91908101906155d4565b9150915060008060005b86811015611af0576000868281518110611a2557611a25615511565b6020026020010151858381518110611a3f57611a3f615511565b6020026020010151611a51919061562d565b905080868381518110611a6657611a66615511565b602002602001015111611a9f57858281518110611a8557611a85615511565b602002602001015184611a989190615640565b9350611add565b611aa98185615640565b935080868381518110611abe57611abe615511565b6020026020010151611ad0919061562d565b611ada9084615640565b92505b5080611ae881615527565b915050611a09565b508160006008016000828254611b069190615640565b909155505060098054829190600090611b20908490615640565b909155505060408051308152602081018490529081018290524260608201527f2fe77b1c99aca6b022b8efc6e3e8dd1b48b30748709339b65c50ef3263443e099060800160405180910390a150919a909950975050505050505050565b6040805161016081018252600080825260208201819052918101829052606081018290526080810182905260a0810182905260c0810182905260e08101829052610100810182905261012081018290526101408101919091526001805483908110611bea57611bea615511565b600091825260209182902060408051610160810182526002909302909101805463ffffffff808216855264010000000080830482169686019690965268010000000000000000808304821694860194909452600160601b820481166060860152600160801b820481166080860152600160a01b8204811660a0860152600160c01b8204811660c0860152600160e01b909104811660e08501526001909101548082166101008501529384048116610120840152920490911661014082015292915050565b604051639a1140b960e01b815260006004820181905290819073__$a68f613c3bdb728f6ba077784ec1fd15de$__90639a1140b990602401602060405180830381865af4158015611d03573d6000803e3d6000fd5b505050506040513d601f19601f82011682018060405250810190611d279190615209565b60235490939092509050565b611d3b6130f4565b611d53600080516020615af28339815191523361210a565b80611d715750611d71600080516020615ad28339815191523361210a565b611d8d5760405162461bcd60e51b8152600401610a8690615653565b604051635b56e10160e01b81526000600482015263ffffffff8216602482015273__$f05580c97a29e5f8396272b0644dfc5da8$__90635b56e101906044016110fc565b604051638d372cf960e01b81526000600482018190529073__$f05580c97a29e5f8396272b0644dfc5da8$__90638d372cf9906024015b602060405180830381865af4158015611e25573d6000803e3d6000fd5b505050506040513d601f19601f8201168201806040525081019061127391906156a8565b611e516130f4565b61018454611e67906001600160a01b0316613147565b6001600160a01b0316336001600160a01b031614611ee15760405162461bcd60e51b815260206004820152603160248201527f53656375726974697a6174696f6e506f6f6c3a2043616c6c6572206d75737420604482015270189948139bdd19551bdad95b95985d5b1d607a1b6064820152608401610a86565b604051630837ca3160e11b8152600060048201526001600160a01b03831660248201526044810182905273__$f05580c97a29e5f8396272b0644dfc5da8$__9063106f9462906064016116d7565b611f37612485565b611f535760405162461bcd60e51b8152600401610a86906154b4565b61173761347f565b611f636130f4565b600080516020615ad2833981519152611f7b81613154565b604051638d372cf960e01b81526000600482015273__$f05580c97a29e5f8396272b0644dfc5da8$__90638d372cf990602401602060405180830381865af4158015611fcb573d6000803e3d6000fd5b505050506040513d601f19601f82011682018060405250810190611fef91906156a8565b6120535760405162461bcd60e51b815260206004820152602f60248201527f53656375726974697a6174696f6e506f6f6c3a20526564656d7074696f6e206860448201526e185cc81b9bdd08199a5b9a5cda1959608a1b6064820152608401610a86565b604051637d7c571760e11b8152600060048201526001600160a01b038316602482015273__$f05580c97a29e5f8396272b0644dfc5da8$__9063faf8ae2e906044016116d7565b6000828152610120602052604081206120b390836134bc565b9392505050565b6120c26130f4565b6120cb336113f2565b604051637538156560e01b8152600060048201526024810182905273__$f05580c97a29e5f8396272b0644dfc5da8$__906375381565906044016110fc565b600091825260ee602090815260408084206001600160a01b0393909316845291905290205460ff1690565b600080516020615af283398151915261214d81613154565b604051632915c6ef60e21b8152600060048201526024810183905273__$7f0f8de4978e89001c10ba53aee4a3ea4c$__9063a4571bbc9060440160006040518083038186803b15801561219f57600080fd5b505af41580156121b3573d6000803e3d6000fd5b50505050611509612375565b600073__$a68f613c3bdb728f6ba077784ec1fd15de$__63937e8cbf6121e560006130ab565b6121ef60006130d3565b604051639a1140b960e01b81526000600482015273__$a68f613c3bdb728f6ba077784ec1fd15de$__90639a1140b990602401602060405180830381865af415801561223f573d6000803e3d6000fd5b505050506040513d601f19601f820116820180604052508101906122639190615209565b60235460405160e086901b6001600160e01b03191681526004810194909452602484019290925260448301526064820152608401602060405180830381865af41580156122b4573d6000803e3d6000fd5b505050506040513d601f19601f820116820180604052508101906112739190615209565b6122e06130f4565b600080516020615ad28339815191526122f881613154565b60405163d37cc71360e01b815273__$e2770451a2a37dcdd32d3c1720bab879c1$__9063d37cc7139061233c906002908b908b908b908b908b908b90600401615701565b60006040518083038186803b15801561235457600080fd5b505af4158015612368573d6000803e3d6000fd5b5050505050505050505050565b73__$a68f613c3bdb728f6ba077784ec1fd15de$__63c1a5db1c600061239b60006130ab565b6123a560006130d3565b6040516001600160e01b031960e086901b168152600481019390935260248301919091526044820152606401610ac3565b6123de6130f4565b6123f6600080516020615af28339815191523361210a565b806124145750612414600080516020615ad28339815191523361210a565b6124305760405162461bcd60e51b8152600401610a8690615653565b60405163070f0cf160e01b8152600060048201526024810182905273__$f05580c97a29e5f8396272b0644dfc5da8$__9063070f0cf1906044016110fc565b600061247d60255460ff1690565b60ff16905090565b600061249f600080516020615ad28339815191523361210a565b80611273575061127360003361210a565b6124b933611688565b60405163ece6e31360e01b81526000600482015263ffffffff8216602482015273__$f05580c97a29e5f8396272b0644dfc5da8$__9063ece6e313906044016110fc565b6000606073__$e2770451a2a37dcdd32d3c1720bab879c1$__63aa12d15f600086866040518463ffffffff1660e01b815260040161253d93929190615743565b600060405180830381865af415801561255a573d6000803e3d6000fd5b505050506040513d6000823e601f3d908101601f19168201604052612582919081019061582e565b915091505b9250929050565b600081815261012060205260408120610a1e906134c8565b600061127360006130d3565b602554610100900460ff16158080156125d25750602554600160ff909116105b806125ec5750303b1580156125ec575060255460ff166001145b61264f5760405162461bcd60e51b815260206004820152602e60248201527f496e697469616c697a61626c653a20636f6e747261637420697320616c72656160448201526d191e481a5b9a5d1a585b1a5e995960921b6064820152608401610a86565b6025805460ff191660011790558015612672576025805461ff0019166101001790555b61267b336134d2565b6001600160a01b0383166126d15760405162461bcd60e51b815260206004820181905260248201527f526567697374727920616464726573732063616e6e6f7420626520656d7074796044820152606401610a86565b61018480546001600160a01b0319166001600160a01b0385161790558151600090612705906020908501810190850161586a565b80519091506001600160a01b03166127585760405162461bcd60e51b8152602060048201526016602482015275506f6f6c3a20496e76616c69642063757272656e637960501b6044820152606401610a86565b8051600780546001600160a01b0319166001600160a01b0390921691909117905560408101516000805460ff1916911515919091178155600a80546bffffffffffffffffffffffff1630600160601b0217905560208201516127ba919061351a565b6127c9600082606001516135f4565b805160405163095ea7b360e01b815230600482015260001960248201526001600160a01b039091169063095ea7b3906044016020604051808303816000875af115801561281a573d6000803e3d6000fd5b505050506040513d601f19601f8201168201806040525081019061283e91906156a8565b61288a5760405162461bcd60e51b815260206004820152601e60248201527f506f6f6c3a2043757272656e637920617070726f76616c206661696c656400006044820152606401610a86565b610184546128a0906001600160a01b03166130e7565b610184546001600160a01b039182169163a22cb465916128c09116613422565b6040516001600160e01b031960e084901b1681526001600160a01b03909116600482015260016024820152604401600060405180830381600087803b15801561290857600080fd5b505af115801561291c573d6000803e3d6000fd5b505050505080156111f6576025805461ff0019169055604051600181527f7f26b83ff96e1f2b6a682f133852f6798a09c465da95921460cefb38474024989060200160405180910390a1505050565b600082815260ee602052604090206001015461298681613154565b6111f68383613338565b6040516303954afb60e51b81526000600482018190529073__$f05580c97a29e5f8396272b0644dfc5da8$__906372a95f6090602401611e08565b6129d36130f4565b6129db61362b565b6129f3600080516020615af28339815191523361210a565b80612a115750612a11600080516020615ad28339815191523361210a565b612a2d5760405162461bcd60e51b8152600401610a8690615653565b604051639178a8a160e01b815273__$e2770451a2a37dcdd32d3c1720bab879c1$__90639178a8a190612a6d9060029088908890889088906004016158e6565b60006040518083038186803b158015612a8557600080fd5b505af4158015612a99573d6000803e3d6000fd5b50505050610aef6001608a55565b6000610a1e60008361368b565b600080516020615af2833981519152612acc81613154565b6040516356a5a29960e01b815260006004820152602481018490526044810183905273__$7f0f8de4978e89001c10ba53aee4a3ea4c$__906356a5a2999060640160006040518083038186803b158015612b2557600080fd5b505af4158015612b39573d6000803e3d6000fd5b505050506111f6612375565b612b4d6130f4565b61018454612b63906001600160a01b031661313a565b6001600160a01b0316336001600160a01b03161480612ba8575061018454612b93906001600160a01b0316613147565b6001600160a01b0316336001600160a01b0316145b612bc45760405162461bcd60e51b8152600401610a869061527f565b60405163289cbccd60e21b8152600060048201526024810182905273__$f05580c97a29e5f8396272b0644dfc5da8$__9063a272f334906044016110fc565b612c0b6130f4565b612c1361362b565b612c2b600080516020615af28339815191523361210a565b80612c495750612c49600080516020615ad28339815191523361210a565b612c655760405162461bcd60e51b8152600401610a8690615653565b604051635cd35d6360e11b8152600060048201526001600160a01b038216602482015273__$f05580c97a29e5f8396272b0644dfc5da8$__9063b9a6bac69060440160006040518083038186803b158015612cbf57600080fd5b505af4158015612cd3573d6000803e3d6000fd5b505061018454612cee92506001600160a01b0316905061313a565b60405163dc90f9fd60e01b81526001600160a01b038381166004830152919091169063dc90f9fd90602401600060405180830381600087803b158015612d3357600080fd5b505af1158015612d47573d6000803e3d6000fd5b505050506117d36001608a55565b612d5d6130f4565b612d66336113f2565b612d907f59abfac6520ec36a6556b2a4dd949cc40007459bcd5cd2507f1e5cc77b6bc97e8361210a565b612df55760405162461bcd60e51b815260206004820152603060248201527f53656375726974697a6174696f6e506f6f6c3a204f6e6c79204f726967696e6160448201526f3a37b91031b0b710323930bbb237bbb760811b6064820152608401610a86565b61018454612e0b906001600160a01b0316613147565b604051634ce9451960e01b81523060048201526001600160a01b039190911690634ce9451990602401602060405180830381865afa158015612e51573d6000803e3d6000fd5b505050506040513d601f19601f82011682018060405250810190612e7591906156a8565b15612ece5760405162461bcd60e51b815260206004820152602360248201527f53656375726974697a6174696f6e506f6f6c3a207769746864726177207061756044820152621cd95960ea1b6064820152608401610a86565b604051635d46333760e11b8152600060048201526001600160a01b03831660248201526044810182905273__$f05580c97a29e5f8396272b0644dfc5da8$__9063ba8c666e906064016116d7565b612f246130f4565b61018454612f3a906001600160a01b031661313a565b6001600160a01b0316336001600160a01b03161480612f7f575061018454612f6a906001600160a01b0316613147565b6001600160a01b0316336001600160a01b0316145b612f9b5760405162461bcd60e51b8152600401610a869061527f565b604051637564542160e11b8152600060048201526024810182905273__$f05580c97a29e5f8396272b0644dfc5da8$__9063eac8a842906044016110fc565b6040805180820190915260008082526020820152600280548390811061300257613002615511565b60009182526020918290206040805180820190915260029092020180546001600160a01b03168252600101549181019190915292915050565b604051631c87621560e31b81526000600482018190529073__$f05580c97a29e5f8396272b0644dfc5da8$__9063e43b10a890602401611232565b60006001600160e01b03198216637965db0b60e01b1480610a1e57506301ffc9a760e01b6001600160e01b0319831614610a1e565b6000806000806130ba856136b9565b925092509250611486836130ce84846137be565b6137be565b6000610a1e826009015483600801546137be565b6000610a1e82600561380e565b60585460ff16156117375760405162461bcd60e51b815260206004820152601060248201526f14185d5cd8589b194e881c185d5cd95960821b6044820152606401610a86565b6000610a1e82600061380e565b6000610a1e82600961380e565b6117d38133613893565b6000818152601083016020908152604080832054808452600e860190925282206001810154600482015460059092015490919065ffffffffffff16421061320b576000838152600e870160205260409020600181015460028201546005909201546131d1929065ffffffffffff166138ec565b6000848152600e880160205260409020600481015460038201546005909201549294506132089290919065ffffffffffff166138ec565b90505b80600003613239576000858152600f8701602052604090205461322f90839061390c565b9350505050610a1e565b61322f8161325c8489600f0160008a81526020019081526020016000205461390c565b61390c565b600082815260ee6020526040808220600101805490849055905190918391839186917fbd79b86ffe0ab8e8776151514217cd7cacd52c909f66475c3af44e129f0b00ff9190a4505050565b6132b68282613918565b6000828152610120602052604090206111f6908261399e565b6132d882613422565b6001600160a01b0316816001600160a01b0316146115095760405162461bcd60e51b815260206004820152601960248201527f52656769737472793a204f6e6c79204c6f616e4b65726e656c000000000000006044820152606401610a86565b61334282826139b3565b6000828152610120602052604090206111f69082613a1a565b6133648261313a565b6001600160a01b0316816001600160a01b0316146115095760405162461bcd60e51b8152602060048201526024808201527f52656769737472793a204f6e6c792053656375726974697a6174696f6e4d616e60448201526330b3b2b960e11b6064820152608401610a86565b6133d8613a2f565b6058805460ff191690557f5db9ee0a495bf2e6ff9c91a7834c1ba4fdd244a5e8aa4e537bd38aeae4b073aa335b6040516001600160a01b03909116815260200160405180910390a1565b6000610a1e82600661380e565b60008160000361345c576000848152600f8601602052604090205461345590849061390c565b905061103a565b6134558261325c8588600f0160008981526020019081526020016000205461390c565b6134876130f4565b6058805460ff191660011790557f62e78cea01bee320cd4e420270b5ea74000d11b0c9f74754ebdbfc544b05a2586134053390565b60006120b38383613a78565b6000610a1e825490565b602554610100900460ff166134f95760405162461bcd60e51b8152600401610a8690615924565b613501613aa2565b613509613ad5565b613511613afc565b6117d381613b23565b6135276127106064615246565b8163ffffffff1611156135a25760405162461bcd60e51b815260206004820152603b60248201527f53656375726974697a6174696f6e506f6f6c3a206d696e46697273744c6f737360448201527f43757368696f6e2069732067726561746572207468616e2031303000000000006064820152608401610a86565b600a8201805463ffffffff191663ffffffff83169081179091556040519081527f091193ea2a1d71a11f3479abe1d30b1ba8fecf8b18e1c728e3ee787de54d0399906020015b60405180910390a15050565b600d82018190556040518181527f3fb30b6090e6989c6819119c2885012949e75471ed4ce5e80c9be541ea0e2f3f906020016135e8565b6002608a540361367d5760405162461bcd60e51b815260206004820152601f60248201527f5265656e7472616e637947756172643a207265656e7472616e742063616c6c006044820152606401610a86565b6002608a55565b6001608a55565b60008060008061369b8686613bee565b9250925092506136af836130ce84846137be565b9695505050505050565b601a810154601c8201546018830154601b8401546000938493849391929091908385036136fb576000836136ec8a613d5a565b965096509650505050506137b7565b60008061370742613dcc565b9050825b8181101561377b57600081815260168c016020526040902054801561376657613757846130ce836137528a6137408989613de8565b6b033b2e3c9fd0803ce8000000613e38565b613ef6565b93506137638a826137be565b99505b506137748162015180615640565b905061370b565b5061379761379187613752876137408689613de8565b83613f19565b6137a1868a6137be565b6137aa8c613d5a565b9850985098505050505050505b9193909250565b6000826137cb8382615640565b9150811015610a1e5760405162461bcd60e51b815260206004820152600f60248201526e1cd859994b5859190b59985a5b1959608a1b6044820152606401610a86565b6000826001600160a01b031663bcaa0c5583600981111561383157613831614992565b6040516001600160e01b031960e084901b16815260ff9091166004820152602401602060405180830381865afa15801561386f573d6000803e3d6000fd5b505050506040513d601f19601f820116820180604052508101906120b391906150c6565b61389d828261210a565b611509576138aa81613f35565b6138b5836020613f47565b6040516020016138c6929190615993565b60408051601f198184030181529082905262461bcd60e51b8252610a8691600401615a08565b600081421061390457613901848484426140e2565b93505b509192915050565b60006120b38284613ef6565b613922828261210a565b61150957600082815260ee602090815260408083206001600160a01b03851684529091529020805460ff1916600117905561395a3390565b6001600160a01b0316816001600160a01b0316837f2f8788117e7eff1d82e926ec794901d17c78024a50270940304540a733656f0d60405160405180910390a45050565b60006120b3836001600160a01b0384166140fb565b6139bd828261210a565b1561150957600082815260ee602090815260408083206001600160a01b0385168085529252808320805460ff1916905551339285917ff6391f5c32d9c69d2a47ea670b442974b53935d1edc7fd64eb21e047a839171b9190a45050565b60006120b3836001600160a01b03841661414a565b60585460ff166117375760405162461bcd60e51b815260206004820152601460248201527314185d5cd8589b194e881b9bdd081c185d5cd95960621b6044820152606401610a86565b6000826000018281548110613a8f57613a8f615511565b9060005260206000200154905092915050565b602554610100900460ff16613ac95760405162461bcd60e51b8152600401610a8690615924565b6058805460ff19169055565b602554610100900460ff166136845760405162461bcd60e51b8152600401610a8690615924565b602554610100900460ff166117375760405162461bcd60e51b8152600401610a8690615924565b602554610100900460ff16613b4a5760405162461bcd60e51b8152600401610a8690615924565b6001600160a01b038116613b5b5750335b613b66600033614244565b613b7e600080516020615ad283398151915282614244565b613bb67f59abfac6520ec36a6556b2a4dd949cc40007459bcd5cd2507f1e5cc77b6bc97e600080516020615ad2833981519152613261565b6117d37f21702c8af46127c7fa207f89d0b0a8441bb32959a0ac7df790e9ab1a25c98926600080516020615af2833981519152613261565b60188201546000828152601d84016020908152604080832054601b870154601e880190935290832054929384938493849391613c2a8a8a61424e565b15613c82576000613c3b8b8b614281565b9050613c7e613c4a8c8c61315e565b8c6017018381548110613c5f57613c5f615511565b60009182526020909120600290910201546001600160801b0316613ef6565b9550505b82600003613c9c57600097509550929350613d5392505050565b600080613ca842613dcc565b60008c815260148e01602052604081205491925090613cd690600160801b90046001600160801b0316613dcc565b9050848110158015613ce757508181105b15613d1e5760008c815260148e0160205260409020546001600160801b0316613d18816137528a6137408787613de8565b909a5092505b613d39613d33876137528a613740878b613de8565b84613f19565b613d43858c6137be565b899a509a509a5050505050505050505b9250925092565b6000805b6017830154811015613dc657613db2826130ce613d9d8685613d8e6b033b2e3c9fd0803ce80000006103e8615246565b613d989190615640565b614400565b866017018581548110613c5f57613c5f615511565b915080613dbe81615527565b915050613d5e565b50919050565b6000613ddb620151808361525d565b610a1e9062015180615246565b600082613df5838261562d565b9150811115610a1e5760405162461bcd60e51b815260206004820152600f60248201526e1cd859994b5cdd588b59985a5b1959608a1b6044820152606401610a86565b6000838015613ed857600184168015613e5357859250613e57565b8392505b50600283046002850494505b8415613ed2578586028687820414613e7a57600080fd5b81810181811015613e8a57600080fd5b8590049650506001851615613ec7578583028387820414158715151615613eb057600080fd5b81810181811015613ec057600080fd5b8590049350505b600285049450613e63565b50613eee565b838015613ee85760009250613eec565b8392505b505b509392505050565b60006b033b2e3c9fd0803ce8000000613f0f84846144c0565b6120b3919061525d565b600082821115613f2b57506000610a1e565b6120b38383613de8565b6060610a1e6001600160a01b03831660145b60606000613f56836002615246565b613f61906002615640565b6001600160401b03811115613f7857613f7861474a565b6040519080825280601f01601f191660200182016040528015613fa2576020820181803683370190505b509050600360fc1b81600081518110613fbd57613fbd615511565b60200101906001600160f81b031916908160001a905350600f60fb1b81600181518110613fec57613fec615511565b60200101906001600160f81b031916908160001a9053506000614010846002615246565b61401b906001615640565b90505b6001811115614093576f181899199a1a9b1b9c1cb0b131b232b360811b85600f166010811061404f5761404f615511565b1a60f81b82828151811061406557614065615511565b60200101906001600160f81b031916908160001a90535060049490941c9361408c81615a3b565b905061401e565b5083156120b35760405162461bcd60e51b815260206004820181905260248201527f537472696e67733a20686578206c656e67746820696e73756666696369656e746044820152606401610a86565b60006114866140f585613740868661562d565b86613ef6565b600081815260018301602052604081205461414257508154600181810184556000848152602080822090930184905584548482528286019093526040902091909155610a1e565b506000610a1e565b6000818152600183016020526040812054801561423357600061416e60018361562d565b85549091506000906141829060019061562d565b90508181146141e75760008660000182815481106141a2576141a2615511565b90600052602060002001549050808760000184815481106141c5576141c5615511565b6000918252602080832090910192909255918252600188019052604090208390555b85548690806141f8576141f8615a52565b600190038181906000526020600020016000905590558560010160008681526020019081526020016000206000905560019350505050610a1e565b6000915050610a1e565b5092915050565b61150982826132ac565b60006142686b033b2e3c9fd0803ce80000006103e8615246565b6000928352601093909301602052506040902054101590565b60008181526014830160205260408120548290600160801b90046001600160801b0316826142ae42613dcc565b905060006142bc8785614522565b90506000600182604001516142d19190615a68565b90506001600160801b036000805b60178b01546001600160801b03821610156143e95760008b601701826001600160801b03168154811061431457614314615511565b906000526020600020906002020160000160109054906101000a90046001600160801b03169050846001600160801b03168c601701836001600160801b03168154811061436357614363615511565b60009182526020909120600160029092020101546001600160801b031614801561439f5750826001600160801b0316816001600160801b031610155b80156143ca57506143b38162015180615a88565b6143c6906001600160801b031689615640565b8710155b156143d6578193508092505b50806143e181615aab565b9150506142df565b50506001600160801b031698975050505050505050565b6000818152600e8301602052604081206001810154600482015482546005909301549192909165ffffffffffff1642106144a0576000858152600e87016020526040902060018101546002820154600590920154614466929065ffffffffffff166138ec565b6000868152600e8801602052604090206004810154600382015460059092015492955061449d9290919065ffffffffffff166138ec565b91505b816000036144b25761322f838261390c565b61322f8261325c858461390c565b60008115806144e4575082826144d68183615246565b92506144e2908361525d565b145b610a1e5760405162461bcd60e51b815260206004820152600f60248201526e1cd859994b5b5d5b0b59985a5b1959608a1b6044820152606401610a86565b61452a61465f565b600082815260148401602090815260409182902082516102008101845281546001600160801b038082168352600160801b9091048116938201939093526001808301549093169381019390935260028101546001600160a01b0390811660608501526003820154166080840152600481015460a0840152600581015460c0840152600681015460e08401526007810154909161010084019160ff16908111156145d5576145d5614992565b60018111156145e6576145e6614992565b81526008820154602082015260098201546040820152600a8201546060820152600b8201546080820152600c82015460a09091019060ff16600581111561462f5761462f614992565b600581111561464057614640614992565b8152600d8201546020820152600e909101546040909101529392505050565b6040805161020081018252600080825260208201819052918101829052606081018290526080810182905260a0810182905260c0810182905260e0810182905261010081018290526101208101829052610140810182905261016081018290526101808101829052906101a0820190815260200160008152602001600081525090565b6000602082840312156146f457600080fd5b81356001600160e01b0319811681146120b357600080fd5b60006020828403121561471e57600080fd5b5035919050565b6001600160a01b03811681146117d357600080fd5b803561474581614725565b919050565b634e487b7160e01b600052604160045260246000fd5b60405161010081016001600160401b03811182821017156147835761478361474a565b60405290565b604051601f8201601f191681016001600160401b03811182821017156147b1576147b161474a565b604052919050565b600082601f8301126147ca57600080fd5b81356001600160401b038111156147e3576147e361474a565b6147f6601f8201601f1916602001614789565b81815284602083860101111561480b57600080fd5b816020850160208301376000918101602001919091529392505050565b6000806000806080858703121561483e57600080fd5b843561484981614725565b9350602085013561485981614725565b92506040850135915060608501356001600160401b0381111561487b57600080fd5b614887878288016147b9565b91505092959194509250565b60008083601f8401126148a557600080fd5b5081356001600160401b038111156148bc57600080fd5b6020830191508360208260051b850101111561258757600080fd5b600080600080600080606087890312156148f057600080fd5b86356001600160401b038082111561490757600080fd5b6149138a838b01614893565b9098509650602089013591508082111561492c57600080fd5b6149388a838b01614893565b9096509450604089013591508082111561495157600080fd5b5061495e89828a01614893565b979a9699509497509295939492505050565b6000806040838503121561498357600080fd5b50508035926020909101359150565b634e487b7160e01b600052602160045260246000fd5b600281106117d3576117d3614992565b6149c1816149a8565b9052565b600681106149c1576149c1614992565b81516001600160801b0316815261020081016020830151614a0160208401826001600160801b03169052565b506040830151614a1c60408401826001600160801b03169052565b506060830151614a3760608401826001600160a01b03169052565b506080830151614a5260808401826001600160a01b03169052565b5060a083015160a083015260c083015160c083015260e083015160e083015261010080840151614a84828501826149b8565b505061012083810151908301526101408084015190830152610160808401519083015261018080840151908301526101a080840151614ac5828501826149c5565b50506101c083810151908301526101e092830151929091019190915290565b60008060408385031215614af757600080fd5b823591506020830135614b0981614725565b809150509250929050565b60008060008060408587031215614b2a57600080fd5b84356001600160401b0380821115614b4157600080fd5b614b4d88838901614893565b90965094506020870135915080821115614b6657600080fd5b818701915087601f830112614b7a57600080fd5b813581811115614b8957600080fd5b8860208260081b8501011115614b9e57600080fd5b95989497505060200194505050565b600281106117d357600080fd5b803561474581614bad565b60008060408385031215614bd857600080fd5b8235614be381614725565b91506020830135614b0981614bad565b60008060008060408587031215614c0957600080fd5b84356001600160401b0380821115614c2057600080fd5b614c2c88838901614893565b90965094506020870135915080821115614c4557600080fd5b50614c5287828801614893565b95989497509550505050565b600081518084526020808501945080840160005b83811015614c8e57815187529582019590820190600101614c72565b509495945050505050565b604081526000614cac6040830185614c5e565b82810360208401526114868185614c5e565b815163ffffffff16815261016081016020830151614ce4602084018263ffffffff169052565b506040830151614cfc604084018263ffffffff169052565b506060830151614d14606084018263ffffffff169052565b506080830151614d2c608084018263ffffffff169052565b5060a0830151614d4460a084018263ffffffff169052565b5060c0830151614d5c60c084018263ffffffff169052565b5060e0830151614d7460e084018263ffffffff169052565b506101008381015163ffffffff81168483015250506101208381015163ffffffff81168483015250506101408381015163ffffffff8116848301525b505092915050565b63ffffffff811681146117d357600080fd5b600060208284031215614ddc57600080fd5b81356120b381614db8565b60008060408385031215614dfa57600080fd5b8235614e0581614725565b946020939093013593505050565b600060208284031215614e2557600080fd5b81356120b381614725565b60006001600160401b03821115614e4957614e4961474a565b5060051b60200190565b60ff811681146117d357600080fd5b803561474581614e53565b600082601f830112614e7e57600080fd5b81356020614e93614e8e83614e30565b614789565b82815260089290921b84018101918181019086841115614eb257600080fd5b8286015b84811015614f4d576101008189031215614ed05760008081fd5b614ed8614760565b8135614ee381614725565b8152614ef082860161473a565b8186015260408281013590820152606080830135908201526080808301359082015260a0808301359082015260c0614f29818401614e62565b9082015260e0614f3a838201614bba565b9082015283529183019161010001614eb6565b509695505050505050565b60008060408385031215614f6b57600080fd5b82356001600160401b0380821115614f8257600080fd5b818501915085601f830112614f9657600080fd5b81356020614fa6614e8e83614e30565b82815260059290921b84018101918181019089841115614fc557600080fd5b948201945b83861015614fe357853582529482019490820190614fca565b96505086013592505080821115614ff957600080fd5b5061500685828601614e6d565b9150509250929050565b82815260406020820152600061103a6040830184614c5e565b6000806040838503121561503c57600080fd5b823561504781614725565b915060208301356001600160401b0381111561506257600080fd5b615006858286016147b9565b6000806000806060858703121561508457600080fd5b843561508f81614725565b9350602085013561509f81614725565b925060408501356001600160401b038111156150ba57600080fd5b614c5287828801614893565b6000602082840312156150d857600080fd5b81516120b381614725565b6000602082840312156150f557600080fd5b81516120b381614e53565b634e487b7160e01b600052601160045260246000fd5b600181815b8085111561515157816000190482111561513757615137615100565b8085161561514457918102915b93841c939080029061511b565b509250929050565b60008261516857506001610a1e565b8161517557506000610a1e565b816001811461518b5760028114615195576151b1565b6001915050610a1e565b60ff8411156151a6576151a6615100565b50506001821b610a1e565b5060208310610133831016604e8410600b84101617156151d4575081810a610a1e565b6151de8383615116565b80600019048211156151f2576151f2615100565b029392505050565b60006120b360ff841683615159565b60006020828403121561521b57600080fd5b5051919050565b6000806040838503121561523557600080fd5b505080516020909101519092909150565b8082028115828204841417610a1e57610a1e615100565b60008261527a57634e487b7160e01b600052601260045260246000fd5b500490565b6020808252604a908201527f53656375726974697a6174696f6e506f6f6c3a2043616c6c6572206d7573742060408201527f62652053656375726974697a6174696f6e4d616e61676572206f72204e6f7465606082015269151bdad95b95985d5b1d60b21b608082015260a00190565b8183526000602080850194508260005b85811015614c8e57813561531281614db8565b63ffffffff16875295820195908201906001016152ff565b87815260806020820152600061534460808301888a6152ef565b82810360408401526153578187896152ef565b9050828103606084015261536c8185876152ef565b9a9950505050505050505050565b81835260006001600160fb1b0383111561539357600080fd5b8260051b80836020870137939093016020019392505050565b60006060878352602081818501526153c7828501888a61537a565b8481036040868101919091528682528791830160005b888110156154775783356153f081614725565b6001600160a01b039081168352848601359061540b82614725565b1682860152838301358383015285840135868301526080808501359083015260a0808501359083015260c0615441818601614e62565b60ff169083015260e0615455858201614bba565b615461828501826149b8565b50506101009384019391909101906001016153dd565b509b9a5050505050505050505050565b8381526001600160a01b0383166020820152606081016154a6836149a8565b826040830152949350505050565b6020808252603a908201527f556e74616e676c6564426173653a204d75737420686176652061646d696e207260408201527f6f6c6520746f20706572666f726d207468697320616374696f6e000000000000606082015260800190565b634e487b7160e01b600052603260045260246000fd5b60006001820161553957615539615100565b5060010190565b85815260606020820152600061555a60608301868861537a565b828103604084015261556d81858761537a565b98975050505050505050565b600082601f83011261558a57600080fd5b8151602061559a614e8e83614e30565b82815260059290921b840181019181810190868411156155b957600080fd5b8286015b84811015614f4d57805183529183019183016155bd565b600080604083850312156155e757600080fd5b82516001600160401b03808211156155fe57600080fd5b61560a86838701615579565b9350602085015191508082111561562057600080fd5b5061500685828601615579565b81810381811115610a1e57610a1e615100565b80820180821115610a1e57610a1e615100565b60208082526025908201527f506f6f6c3a204e6f7420616e20706f6f6c2061646d696e206f7220706f6f6c2060408201526437bbb732b960d91b606082015260800190565b8051801515811461474557600080fd5b6000602082840312156156ba57600080fd5b6120b382615698565b8183526000602080850194508260005b85811015614c8e5781356156e681614725565b6001600160a01b0316875295820195908201906001016156d3565b87815260806020820152600061571b60808301888a6156c3565b828103604084015261572e81878961537a565b9050828103606084015261536c8185876156c3565b600060608083018684526020828186015281875180845260809350838701915082890160005b8281101561578557815184529284019290840190600101615769565b50505085810360408781019190915287518083528389019284019060005b8181101561581d57845180516001600160a01b03908116855287820151168785015284810151858501528881015189850152878101518885015260a0808201519085015260c08082015160ff169085015260e09081015190615807818601836149b8565b50509385019361010092909201916001016157a3565b50909b9a5050505050505050505050565b6000806040838503121561584157600080fd5b8251915060208301516001600160401b0381111561585e57600080fd5b61500685828601615579565b60006080828403121561587c57600080fd5b604051608081018181106001600160401b038211171561589e5761589e61474a565b60405282516158ac81614725565b815260208301516158bc81614db8565b60208201526158cd60408401615698565b6040820152606083015160608201528091505092915050565b8581526001600160a01b03858116602083015284166040820152608060608201819052600090615919908301848661537a565b979650505050505050565b6020808252602b908201527f496e697469616c697a61626c653a20636f6e7472616374206973206e6f74206960408201526a6e697469616c697a696e6760a81b606082015260800190565b60005b8381101561598a578181015183820152602001615972565b50506000910152565b7f416363657373436f6e74726f6c3a206163636f756e74200000000000000000008152600083516159cb81601785016020880161596f565b7001034b99036b4b9b9b4b733903937b6329607d1b60179184019182015283516159fc81602884016020880161596f565b01602801949350505050565b6020815260008251806020840152615a2781604085016020870161596f565b601f01601f19169190910160400192915050565b600081615a4a57615a4a615100565b506000190190565b634e487b7160e01b600052603160045260246000fd5b6001600160801b0382811682821603908082111561423d5761423d615100565b6001600160801b03818116838216028082169190828114614db057614db0615100565b60006001600160801b03808316818103615ac757615ac7615100565b600101939250505056feb19546dff01e856fb3f010c267a7b1c60363cf8a4664e21cc89c26224620214e3e9c05fb0f9da4414e033bb9bf190a6e2072adf7e3077394fce683220513b8d7a26469706673582212209581f4ea251fee3939e1a3b33143ba1ae963ddc8e21f10c93dbcd87c4c707d8664736f6c63430008130033",
  "libraries": {
    "PoolAssetLogic": "0x0E36d6058D5aE4a91C1bD69bbFa26A71921352D3",
    "PoolNAVLogic": "0x8FD7C82Ff6A91B08aA8AB4EE049b0fCCe57AE562",
    "TGELogic": "0xB7df8077d23C0Ae26eED5f20c50eB6fc1Ce45Ac9",
    "RebaseLogic": "0xFbD5c61f8214c894421Fd8Fd639F4DA36c5CE536"
  },
  "devdoc": {
    "author": "Untangled Team",
    "events": {
      "Initialized(uint8)": {
        "details": "Triggered when the contract has been initialized or reinitialized."
      },
      "Paused(address)": {
        "details": "Emitted when the pause is triggered by `account`."
      },
      "RoleAdminChanged(bytes32,bytes32,bytes32)": {
        "details": "Emitted when `newAdminRole` is set as ``role``'s admin role, replacing `previousAdminRole` `DEFAULT_ADMIN_ROLE` is the starting admin for all roles, despite {RoleAdminChanged} not being emitted signaling this. _Available since v3.1._"
      },
      "RoleGranted(bytes32,address,address)": {
        "details": "Emitted when `account` is granted `role`. `sender` is the account that originated the contract call, an admin role bearer except when using {AccessControl-_setupRole}."
      },
      "RoleRevoked(bytes32,address,address)": {
        "details": "Emitted when `account` is revoked `role`. `sender` is the account that originated the contract call:   - if using `revokeRole`, it is the admin role bearer   - if using `renounceRole`, it is the role bearer (i.e. `account`)"
      },
      "Unpaused(address)": {
        "details": "Emitted when the pause is lifted by `account`."
      }
    },
    "kind": "dev",
    "methods": {
      "calcJuniorRatio()": {
        "details": "Uses RebaseLogic's calcJuniorRatio method to calculate the junior ratio.",
        "returns": {
          "juniorRatio": "The calculated junior ratio as a uint256 number."
        }
      },
      "changeSeniorAsset(uint256,uint256)": {
        "params": {
          "_seniorRedeem": "senior redeem amount",
          "_seniorSupply": "senior supply amount"
        }
      },
      "currentNAV()": {
        "returns": {
          "nav_": "current NAV"
        }
      },
      "decreaseIncomeReserve(uint256)": {
        "details": "trigger update reserve"
      },
      "disburse(address,uint256)": {
        "details": "Disburses a specified amount of currency to the given user.",
        "params": {
          "currencyAmount": "The amount of currency to disburse.",
          "usr": "The address of the user to receive the currency."
        }
      },
      "getRiskScoresLength()": {
        "returns": {
          "_0": "the length of the risk scores array"
        }
      },
      "getRoleAdmin(bytes32)": {
        "details": "Returns the admin role that controls `role`. See {grantRole} and {revokeRole}. To change a role's admin, use {_setRoleAdmin}."
      },
      "getRoleMember(bytes32,uint256)": {
        "details": "Returns one of the accounts that have `role`. `index` must be a value between 0 and {getRoleMemberCount}, non-inclusive. Role bearers are not sorted in any particular way, and their ordering may change at any point. WARNING: When using {getRoleMember} and {getRoleMemberCount}, make sure you perform all queries on the same block. See the following https://forum.openzeppelin.com/t/iterating-over-elements-on-enumerableset-in-openzeppelin-contracts/2296[forum post] for more information."
      },
      "getRoleMemberCount(bytes32)": {
        "details": "Returns the number of accounts that have `role`. Can be used together with {getRoleMember} to enumerate all bearers of a role."
      },
      "grantRole(bytes32,address)": {
        "details": "Grants `role` to `account`. If `account` had not been already granted `role`, emits a {RoleGranted} event. Requirements: - the caller must have ``role``'s admin role. May emit a {RoleGranted} event."
      },
      "hasRole(bytes32,address)": {
        "details": "Returns `true` if `account` has been granted `role`."
      },
      "increaseCapitalReserve(uint256)": {
        "details": "trigger update reserve when buy note token action happens"
      },
      "increaseTotalAssetRepaidCurrency(uint256)": {
        "details": "trigger update asset value repaid"
      },
      "paused()": {
        "details": "Returns true if the contract is paused, and false otherwise."
      },
      "renounceRole(bytes32,address)": {
        "details": "Revokes `role` from the calling account. Roles are often managed via {grantRole} and {revokeRole}: this function's purpose is to provide a mechanism for accounts to lose their privileges if they are compromised (such as when a trusted device is misplaced). If the calling account had been revoked `role`, emits a {RoleRevoked} event. Requirements: - the caller must be `account`. May emit a {RoleRevoked} event."
      },
      "revokeRole(bytes32,address)": {
        "details": "Revokes `role` from `account`. If `account` had been granted `role`, emits a {RoleRevoked} event. Requirements: - the caller must have ``role``'s admin role. May emit a {RoleRevoked} event."
      },
      "setUpOpeningBlockTimestamp()": {
        "details": "Trigger set up opening block timestamp"
      },
      "supportsInterface(bytes4)": {
        "details": "See {IERC165-supportsInterface}."
      }
    },
    "title": "Untangled's SecuritizationPool contract",
    "version": 1
  },
  "userdoc": {
    "kind": "user",
    "methods": {
      "calcJuniorRatio()": {
        "notice": "Calculate junior ratio based on current NAV, reserve and senior debt/balance."
      },
      "changeSeniorAsset(uint256,uint256)": {
        "notice": "changes the senior asset value based on new supply or redeems"
      },
      "collectAssets(uint256[],(address,address,bytes32,uint256,uint256,uint256,uint8,uint8)[])": {
        "notice": "collects NFT assets from a specified address"
      },
      "currentNAV()": {
        "notice": "calculates and returns the current NAV"
      },
      "exportAssets(address,address,uint256[])": {
        "notice": "exports NFT assets to another pool address"
      },
      "getAsset(bytes32)": {
        "notice": "retrieves loan information"
      },
      "getRiskScoresLength()": {
        "notice": "Riks scores length"
      },
      "hasFinishedRedemption()": {
        "notice": "checks if the redemption process has finished"
      },
      "initialize(address,bytes)": {
        "notice": "CONSTRUCTOR "
      },
      "injectTGEAddress(address,uint8)": {
        "notice": "injects the address of the Token Generation Event (TGE) and the associated token address"
      },
      "isDebtCeilingValid()": {
        "notice": "check current debt ceiling is valid"
      },
      "rebase()": {
        "notice": "rebase the debt and balance of the senior tranche according to the current ratio between senior and junior"
      },
      "setDebtCeiling(uint256)": {
        "notice": "sets debt ceiling value"
      },
      "setMinFirstLossCushion(uint32)": {
        "notice": "sets mint first loss value"
      },
      "setupRiskScores(uint32[],uint32[],uint32[])": {
        "notice": "sets up the risk scores for the contract for pool"
      },
      "withdraw(address,uint256)": {
        "notice": "allows the originator to withdraw from reserve"
      },
      "withdrawAssets(address[],uint256[],address[])": {
        "notice": "withdraws NFT assets from the contract and transfers them to recipients"
      }
    },
    "notice": "Main entry point for senior LPs (a.k.a. capital providers)  Automatically invests across borrower pools using an adjustable strategy.",
    "version": 1
  },
  "storageLayout": {
    "storage": [
      {
        "astId": 18666,
        "contract": "contracts/protocol/pool/Pool.sol:Pool",
        "label": "_poolStorage",
        "offset": 0,
        "slot": "0",
        "type": "t_struct(Storage)9733_storage"
      },
      {
        "astId": 759,
        "contract": "contracts/protocol/pool/Pool.sol:Pool",
        "label": "_initialized",
        "offset": 0,
        "slot": "37",
        "type": "t_uint8"
      },
      {
        "astId": 762,
        "contract": "contracts/protocol/pool/Pool.sol:Pool",
        "label": "_initializing",
        "offset": 1,
        "slot": "37",
        "type": "t_bool"
      },
      {
        "astId": 3600,
        "contract": "contracts/protocol/pool/Pool.sol:Pool",
        "label": "__gap",
        "offset": 0,
        "slot": "38",
        "type": "t_array(t_uint256)50_storage"
      },
      {
        "astId": 942,
        "contract": "contracts/protocol/pool/Pool.sol:Pool",
        "label": "_paused",
        "offset": 0,
        "slot": "88",
        "type": "t_bool"
      },
      {
        "astId": 1047,
        "contract": "contracts/protocol/pool/Pool.sol:Pool",
        "label": "__gap",
        "offset": 0,
        "slot": "89",
        "type": "t_array(t_uint256)49_storage"
      },
      {
        "astId": 1062,
        "contract": "contracts/protocol/pool/Pool.sol:Pool",
        "label": "_status",
        "offset": 0,
        "slot": "138",
        "type": "t_uint256"
      },
      {
        "astId": 1131,
        "contract": "contracts/protocol/pool/Pool.sol:Pool",
        "label": "__gap",
        "offset": 0,
        "slot": "139",
        "type": "t_array(t_uint256)49_storage"
      },
      {
        "astId": 4890,
        "contract": "contracts/protocol/pool/Pool.sol:Pool",
        "label": "__gap",
        "offset": 0,
        "slot": "188",
        "type": "t_array(t_uint256)50_storage"
      },
      {
        "astId": 184,
        "contract": "contracts/protocol/pool/Pool.sol:Pool",
        "label": "_roles",
        "offset": 0,
        "slot": "238",
        "type": "t_mapping(t_bytes32,t_struct(RoleData)179_storage)"
      },
      {
        "astId": 479,
        "contract": "contracts/protocol/pool/Pool.sol:Pool",
        "label": "__gap",
        "offset": 0,
        "slot": "239",
        "type": "t_array(t_uint256)49_storage"
      },
      {
        "astId": 33,
        "contract": "contracts/protocol/pool/Pool.sol:Pool",
        "label": "_roleMembers",
        "offset": 0,
        "slot": "288",
        "type": "t_mapping(t_bytes32,t_struct(AddressSet)6200_storage)"
      },
      {
        "astId": 143,
        "contract": "contracts/protocol/pool/Pool.sol:Pool",
        "label": "__gap",
        "offset": 0,
        "slot": "289",
        "type": "t_array(t_uint256)49_storage"
      },
      {
        "astId": 7924,
        "contract": "contracts/protocol/pool/Pool.sol:Pool",
        "label": "__gap",
        "offset": 0,
        "slot": "338",
        "type": "t_array(t_uint256)50_storage"
      },
      {
        "astId": 17093,
        "contract": "contracts/protocol/pool/Pool.sol:Pool",
        "label": "registry",
        "offset": 0,
        "slot": "388",
        "type": "t_contract(Registry)19073"
      }
    ],
    "types": {
      "t_address": {
        "encoding": "inplace",
        "label": "address",
        "numberOfBytes": "20"
      },
      "t_array(t_bytes32)dyn_storage": {
        "base": "t_bytes32",
        "encoding": "dynamic_array",
        "label": "bytes32[]",
        "numberOfBytes": "32"
      },
      "t_array(t_struct(NFTAsset)9550_storage)dyn_storage": {
        "base": "t_struct(NFTAsset)9550_storage",
        "encoding": "dynamic_array",
        "label": "struct DataTypes.NFTAsset[]",
        "numberOfBytes": "32"
      },
      "t_array(t_struct(RiskScore)9527_storage)dyn_storage": {
        "base": "t_struct(RiskScore)9527_storage",
        "encoding": "dynamic_array",
        "label": "struct DataTypes.RiskScore[]",
        "numberOfBytes": "32"
      },
      "t_array(t_struct(WriteOffGroup)9621_storage)dyn_storage": {
        "base": "t_struct(WriteOffGroup)9621_storage",
        "encoding": "dynamic_array",
        "label": "struct DataTypes.WriteOffGroup[]",
        "numberOfBytes": "32"
      },
      "t_array(t_uint256)49_storage": {
        "base": "t_uint256",
        "encoding": "inplace",
        "label": "uint256[49]",
        "numberOfBytes": "1568"
      },
      "t_array(t_uint256)50_storage": {
        "base": "t_uint256",
        "encoding": "inplace",
        "label": "uint256[50]",
        "numberOfBytes": "1600"
      },
      "t_bool": {
        "encoding": "inplace",
        "label": "bool",
        "numberOfBytes": "1"
      },
      "t_bytes32": {
        "encoding": "inplace",
        "label": "bytes32",
        "numberOfBytes": "32"
      },
      "t_contract(Registry)19073": {
        "encoding": "inplace",
        "label": "contract Registry",
        "numberOfBytes": "20"
      },
      "t_enum(ASSET_PURPOSE)9419": {
        "encoding": "inplace",
        "label": "enum Configuration.ASSET_PURPOSE",
        "numberOfBytes": "1"
      },
      "t_enum(AmortizationUnitType)10262": {
        "encoding": "inplace",
        "label": "enum UnpackLoanParamtersLib.AmortizationUnitType",
        "numberOfBytes": "1"
      },
      "t_mapping(t_address,t_bool)": {
        "encoding": "mapping",
        "key": "t_address",
        "label": "mapping(address => bool)",
        "numberOfBytes": "32",
        "value": "t_bool"
      },
      "t_mapping(t_bytes32,t_struct(AddressSet)6200_storage)": {
        "encoding": "mapping",
        "key": "t_bytes32",
        "label": "mapping(bytes32 => struct EnumerableSetUpgradeable.AddressSet)",
        "numberOfBytes": "32",
        "value": "t_struct(AddressSet)6200_storage"
      },
      "t_mapping(t_bytes32,t_struct(NFTDetails)9594_storage)": {
        "encoding": "mapping",
        "key": "t_bytes32",
        "label": "mapping(bytes32 => struct DataTypes.NFTDetails)",
        "numberOfBytes": "32",
        "value": "t_struct(NFTDetails)9594_storage"
      },
      "t_mapping(t_bytes32,t_struct(RoleData)179_storage)": {
        "encoding": "mapping",
        "key": "t_bytes32",
        "label": "mapping(bytes32 => struct AccessControlUpgradeable.RoleData)",
        "numberOfBytes": "32",
        "value": "t_struct(RoleData)179_storage"
      },
      "t_mapping(t_bytes32,t_uint256)": {
        "encoding": "mapping",
        "key": "t_bytes32",
        "label": "mapping(bytes32 => uint256)",
        "numberOfBytes": "32",
        "value": "t_uint256"
      },
      "t_mapping(t_uint256,t_bytes32)": {
        "encoding": "mapping",
        "key": "t_uint256",
        "label": "mapping(uint256 => bytes32)",
        "numberOfBytes": "32",
        "value": "t_bytes32"
      },
      "t_mapping(t_uint256,t_struct(LoanDetails)9614_storage)": {
        "encoding": "mapping",
        "key": "t_uint256",
        "label": "mapping(uint256 => struct DataTypes.LoanDetails)",
        "numberOfBytes": "32",
        "value": "t_struct(LoanDetails)9614_storage"
      },
      "t_mapping(t_uint256,t_struct(Rate)9609_storage)": {
        "encoding": "mapping",
        "key": "t_uint256",
        "label": "mapping(uint256 => struct DataTypes.Rate)",
        "numberOfBytes": "32",
        "value": "t_struct(Rate)9609_storage"
      },
      "t_mapping(t_uint256,t_uint256)": {
        "encoding": "mapping",
        "key": "t_uint256",
        "label": "mapping(uint256 => uint256)",
        "numberOfBytes": "32",
        "value": "t_uint256"
      },
      "t_struct(AddressSet)6200_storage": {
        "encoding": "inplace",
        "label": "struct EnumerableSetUpgradeable.AddressSet",
        "members": [
          {
            "astId": 6199,
            "contract": "contracts/protocol/pool/Pool.sol:Pool",
            "label": "_inner",
            "offset": 0,
            "slot": "0",
            "type": "t_struct(Set)5885_storage"
          }
        ],
        "numberOfBytes": "64"
      },
      "t_struct(LoanDetails)9614_storage": {
        "encoding": "inplace",
        "label": "struct DataTypes.LoanDetails",
        "members": [
          {
            "astId": 9611,
            "contract": "contracts/protocol/pool/Pool.sol:Pool",
            "label": "borrowed",
            "offset": 0,
            "slot": "0",
            "type": "t_uint128"
          },
          {
            "astId": 9613,
            "contract": "contracts/protocol/pool/Pool.sol:Pool",
            "label": "authWriteOff",
            "offset": 16,
            "slot": "0",
            "type": "t_bool"
          }
        ],
        "numberOfBytes": "32"
      },
      "t_struct(NFTAsset)9550_storage": {
        "encoding": "inplace",
        "label": "struct DataTypes.NFTAsset",
        "members": [
          {
            "astId": 9547,
            "contract": "contracts/protocol/pool/Pool.sol:Pool",
            "label": "tokenAddress",
            "offset": 0,
            "slot": "0",
            "type": "t_address"
          },
          {
            "astId": 9549,
            "contract": "contracts/protocol/pool/Pool.sol:Pool",
            "label": "tokenId",
            "offset": 0,
            "slot": "1",
            "type": "t_uint256"
          }
        ],
        "numberOfBytes": "64"
      },
      "t_struct(NFTDetails)9594_storage": {
        "encoding": "inplace",
        "label": "struct DataTypes.NFTDetails",
        "members": [
          {
            "astId": 9561,
            "contract": "contracts/protocol/pool/Pool.sol:Pool",
            "label": "futureValue",
            "offset": 0,
            "slot": "0",
            "type": "t_uint128"
          },
          {
            "astId": 9563,
            "contract": "contracts/protocol/pool/Pool.sol:Pool",
            "label": "maturityDate",
            "offset": 16,
            "slot": "0",
            "type": "t_uint128"
          },
          {
            "astId": 9565,
            "contract": "contracts/protocol/pool/Pool.sol:Pool",
            "label": "risk",
            "offset": 0,
            "slot": "1",
            "type": "t_uint128"
          },
          {
            "astId": 9567,
            "contract": "contracts/protocol/pool/Pool.sol:Pool",
            "label": "debtor",
            "offset": 0,
            "slot": "2",
            "type": "t_address"
          },
          {
            "astId": 9569,
            "contract": "contracts/protocol/pool/Pool.sol:Pool",
            "label": "principalTokenAddress",
            "offset": 0,
            "slot": "3",
            "type": "t_address"
          },
          {
            "astId": 9571,
            "contract": "contracts/protocol/pool/Pool.sol:Pool",
            "label": "salt",
            "offset": 0,
            "slot": "4",
            "type": "t_uint256"
          },
          {
            "astId": 9573,
            "contract": "contracts/protocol/pool/Pool.sol:Pool",
            "label": "issuanceBlockTimestamp",
            "offset": 0,
            "slot": "5",
            "type": "t_uint256"
          },
          {
            "astId": 9575,
            "contract": "contracts/protocol/pool/Pool.sol:Pool",
            "label": "expirationTimestamp",
            "offset": 0,
            "slot": "6",
            "type": "t_uint256"
          },
          {
            "astId": 9578,
            "contract": "contracts/protocol/pool/Pool.sol:Pool",
            "label": "assetPurpose",
            "offset": 0,
            "slot": "7",
            "type": "t_enum(ASSET_PURPOSE)9419"
          },
          {
            "astId": 9580,
            "contract": "contracts/protocol/pool/Pool.sol:Pool",
            "label": "termsParam",
            "offset": 0,
            "slot": "8",
            "type": "t_bytes32"
          },
          {
            "astId": 9582,
            "contract": "contracts/protocol/pool/Pool.sol:Pool",
            "label": "principalAmount",
            "offset": 0,
            "slot": "9",
            "type": "t_uint256"
          },
          {
            "astId": 9584,
            "contract": "contracts/protocol/pool/Pool.sol:Pool",
            "label": "termStartUnixTimestamp",
            "offset": 0,
            "slot": "10",
            "type": "t_uint256"
          },
          {
            "astId": 9586,
            "contract": "contracts/protocol/pool/Pool.sol:Pool",
            "label": "termEndUnixTimestamp",
            "offset": 0,
            "slot": "11",
            "type": "t_uint256"
          },
          {
            "astId": 9589,
            "contract": "contracts/protocol/pool/Pool.sol:Pool",
            "label": "amortizationUnitType",
            "offset": 0,
            "slot": "12",
            "type": "t_enum(AmortizationUnitType)10262"
          },
          {
            "astId": 9591,
            "contract": "contracts/protocol/pool/Pool.sol:Pool",
            "label": "termLengthInAmortizationUnits",
            "offset": 0,
            "slot": "13",
            "type": "t_uint256"
          },
          {
            "astId": 9593,
            "contract": "contracts/protocol/pool/Pool.sol:Pool",
            "label": "interestRate",
            "offset": 0,
            "slot": "14",
            "type": "t_uint256"
          }
        ],
        "numberOfBytes": "480"
      },
      "t_struct(Rate)9609_storage": {
        "encoding": "inplace",
        "label": "struct DataTypes.Rate",
        "members": [
          {
            "astId": 9596,
            "contract": "contracts/protocol/pool/Pool.sol:Pool",
            "label": "pie",
            "offset": 0,
            "slot": "0",
            "type": "t_uint256"
          },
          {
            "astId": 9598,
            "contract": "contracts/protocol/pool/Pool.sol:Pool",
            "label": "chi",
            "offset": 0,
            "slot": "1",
            "type": "t_uint256"
          },
          {
            "astId": 9600,
            "contract": "contracts/protocol/pool/Pool.sol:Pool",
            "label": "ratePerSecond",
            "offset": 0,
            "slot": "2",
            "type": "t_uint256"
          },
          {
            "astId": 9602,
            "contract": "contracts/protocol/pool/Pool.sol:Pool",
            "label": "penaltyRatePerSecond",
            "offset": 0,
            "slot": "3",
            "type": "t_uint256"
          },
          {
            "astId": 9604,
            "contract": "contracts/protocol/pool/Pool.sol:Pool",
            "label": "penaltyChi",
            "offset": 0,
            "slot": "4",
            "type": "t_uint256"
          },
          {
            "astId": 9606,
            "contract": "contracts/protocol/pool/Pool.sol:Pool",
            "label": "lastUpdated",
            "offset": 0,
            "slot": "5",
            "type": "t_uint48"
          },
          {
            "astId": 9608,
            "contract": "contracts/protocol/pool/Pool.sol:Pool",
            "label": "timeStartPenalty",
            "offset": 6,
            "slot": "5",
            "type": "t_uint48"
          }
        ],
        "numberOfBytes": "192"
      },
      "t_struct(RiskScore)9527_storage": {
        "encoding": "inplace",
        "label": "struct DataTypes.RiskScore",
        "members": [
          {
            "astId": 9506,
            "contract": "contracts/protocol/pool/Pool.sol:Pool",
            "label": "daysPastDue",
            "offset": 0,
            "slot": "0",
            "type": "t_uint32"
          },
          {
            "astId": 9508,
            "contract": "contracts/protocol/pool/Pool.sol:Pool",
            "label": "advanceRate",
            "offset": 4,
            "slot": "0",
            "type": "t_uint32"
          },
          {
            "astId": 9510,
            "contract": "contracts/protocol/pool/Pool.sol:Pool",
            "label": "penaltyRate",
            "offset": 8,
            "slot": "0",
            "type": "t_uint32"
          },
          {
            "astId": 9512,
            "contract": "contracts/protocol/pool/Pool.sol:Pool",
            "label": "interestRate",
            "offset": 12,
            "slot": "0",
            "type": "t_uint32"
          },
          {
            "astId": 9514,
            "contract": "contracts/protocol/pool/Pool.sol:Pool",
            "label": "probabilityOfDefault",
            "offset": 16,
            "slot": "0",
            "type": "t_uint32"
          },
          {
            "astId": 9516,
            "contract": "contracts/protocol/pool/Pool.sol:Pool",
            "label": "lossGivenDefault",
            "offset": 20,
            "slot": "0",
            "type": "t_uint32"
          },
          {
            "astId": 9518,
            "contract": "contracts/protocol/pool/Pool.sol:Pool",
            "label": "writeOffAfterGracePeriod",
            "offset": 24,
            "slot": "0",
            "type": "t_uint32"
          },
          {
            "astId": 9520,
            "contract": "contracts/protocol/pool/Pool.sol:Pool",
            "label": "gracePeriod",
            "offset": 28,
            "slot": "0",
            "type": "t_uint32"
          },
          {
            "astId": 9522,
            "contract": "contracts/protocol/pool/Pool.sol:Pool",
            "label": "collectionPeriod",
            "offset": 0,
            "slot": "1",
            "type": "t_uint32"
          },
          {
            "astId": 9524,
            "contract": "contracts/protocol/pool/Pool.sol:Pool",
            "label": "writeOffAfterCollectionPeriod",
            "offset": 4,
            "slot": "1",
            "type": "t_uint32"
          },
          {
            "astId": 9526,
            "contract": "contracts/protocol/pool/Pool.sol:Pool",
            "label": "discountRate",
            "offset": 8,
            "slot": "1",
            "type": "t_uint32"
          }
        ],
        "numberOfBytes": "64"
      },
      "t_struct(RoleData)179_storage": {
        "encoding": "inplace",
        "label": "struct AccessControlUpgradeable.RoleData",
        "members": [
          {
            "astId": 176,
            "contract": "contracts/protocol/pool/Pool.sol:Pool",
            "label": "members",
            "offset": 0,
            "slot": "0",
            "type": "t_mapping(t_address,t_bool)"
          },
          {
            "astId": 178,
            "contract": "contracts/protocol/pool/Pool.sol:Pool",
            "label": "adminRole",
            "offset": 0,
            "slot": "1",
            "type": "t_bytes32"
          }
        ],
        "numberOfBytes": "64"
      },
      "t_struct(Set)5885_storage": {
        "encoding": "inplace",
        "label": "struct EnumerableSetUpgradeable.Set",
        "members": [
          {
            "astId": 5880,
            "contract": "contracts/protocol/pool/Pool.sol:Pool",
            "label": "_values",
            "offset": 0,
            "slot": "0",
            "type": "t_array(t_bytes32)dyn_storage"
          },
          {
            "astId": 5884,
            "contract": "contracts/protocol/pool/Pool.sol:Pool",
            "label": "_indexes",
            "offset": 0,
            "slot": "1",
            "type": "t_mapping(t_bytes32,t_uint256)"
          }
        ],
        "numberOfBytes": "64"
      },
      "t_struct(Storage)9733_storage": {
        "encoding": "inplace",
        "label": "struct DataTypes.Storage",
        "members": [
          {
            "astId": 9623,
            "contract": "contracts/protocol/pool/Pool.sol:Pool",
            "label": "validatorRequired",
            "offset": 0,
            "slot": "0",
            "type": "t_bool"
          },
          {
            "astId": 9625,
            "contract": "contracts/protocol/pool/Pool.sol:Pool",
            "label": "firstAssetTimestamp",
            "offset": 1,
            "slot": "0",
            "type": "t_uint64"
          },
          {
            "astId": 9629,
            "contract": "contracts/protocol/pool/Pool.sol:Pool",
            "label": "riskScores",
            "offset": 0,
            "slot": "1",
            "type": "t_array(t_struct(RiskScore)9527_storage)dyn_storage"
          },
          {
            "astId": 9633,
            "contract": "contracts/protocol/pool/Pool.sol:Pool",
            "label": "nftAssets",
            "offset": 0,
            "slot": "2",
            "type": "t_array(t_struct(NFTAsset)9550_storage)dyn_storage"
          },
          {
            "astId": 9635,
            "contract": "contracts/protocol/pool/Pool.sol:Pool",
            "label": "tgeAddress",
            "offset": 0,
            "slot": "3",
            "type": "t_address"
          },
          {
            "astId": 9637,
            "contract": "contracts/protocol/pool/Pool.sol:Pool",
            "label": "secondTGEAddress",
            "offset": 0,
            "slot": "4",
            "type": "t_address"
          },
          {
            "astId": 9639,
            "contract": "contracts/protocol/pool/Pool.sol:Pool",
            "label": "sotToken",
            "offset": 0,
            "slot": "5",
            "type": "t_address"
          },
          {
            "astId": 9641,
            "contract": "contracts/protocol/pool/Pool.sol:Pool",
            "label": "jotToken",
            "offset": 0,
            "slot": "6",
            "type": "t_address"
          },
          {
            "astId": 9643,
            "contract": "contracts/protocol/pool/Pool.sol:Pool",
            "label": "underlyingCurrency",
            "offset": 0,
            "slot": "7",
            "type": "t_address"
          },
          {
            "astId": 9645,
            "contract": "contracts/protocol/pool/Pool.sol:Pool",
            "label": "incomeReserve",
            "offset": 0,
            "slot": "8",
            "type": "t_uint256"
          },
          {
            "astId": 9647,
            "contract": "contracts/protocol/pool/Pool.sol:Pool",
            "label": "capitalReserve",
            "offset": 0,
            "slot": "9",
            "type": "t_uint256"
          },
          {
            "astId": 9649,
            "contract": "contracts/protocol/pool/Pool.sol:Pool",
            "label": "minFirstLossCushion",
            "offset": 0,
            "slot": "10",
            "type": "t_uint32"
          },
          {
            "astId": 9651,
            "contract": "contracts/protocol/pool/Pool.sol:Pool",
            "label": "openingBlockTimestamp",
            "offset": 4,
            "slot": "10",
            "type": "t_uint64"
          },
          {
            "astId": 9653,
            "contract": "contracts/protocol/pool/Pool.sol:Pool",
            "label": "pot",
            "offset": 12,
            "slot": "10",
            "type": "t_address"
          },
          {
            "astId": 9655,
            "contract": "contracts/protocol/pool/Pool.sol:Pool",
            "label": "interestRateSOT",
            "offset": 0,
            "slot": "11",
            "type": "t_uint256"
          },
          {
            "astId": 9657,
            "contract": "contracts/protocol/pool/Pool.sol:Pool",
            "label": "totalAssetRepaidCurrency",
            "offset": 0,
            "slot": "12",
            "type": "t_uint256"
          },
          {
            "astId": 9659,
            "contract": "contracts/protocol/pool/Pool.sol:Pool",
            "label": "debtCeiling",
            "offset": 0,
            "slot": "13",
            "type": "t_uint256"
          },
          {
            "astId": 9664,
            "contract": "contracts/protocol/pool/Pool.sol:Pool",
            "label": "rates",
            "offset": 0,
            "slot": "14",
            "type": "t_mapping(t_uint256,t_struct(Rate)9609_storage)"
          },
          {
            "astId": 9668,
            "contract": "contracts/protocol/pool/Pool.sol:Pool",
            "label": "pie",
            "offset": 0,
            "slot": "15",
            "type": "t_mapping(t_uint256,t_uint256)"
          },
          {
            "astId": 9673,
            "contract": "contracts/protocol/pool/Pool.sol:Pool",
            "label": "loanRates",
            "offset": 0,
            "slot": "16",
            "type": "t_mapping(t_uint256,t_uint256)"
          },
          {
            "astId": 9676,
            "contract": "contracts/protocol/pool/Pool.sol:Pool",
            "label": "loanCount",
            "offset": 0,
            "slot": "17",
            "type": "t_uint256"
          },
          {
            "astId": 9680,
            "contract": "contracts/protocol/pool/Pool.sol:Pool",
            "label": "balances",
            "offset": 0,
            "slot": "18",
            "type": "t_mapping(t_uint256,t_uint256)"
          },
          {
            "astId": 9682,
            "contract": "contracts/protocol/pool/Pool.sol:Pool",
            "label": "balance",
            "offset": 0,
            "slot": "19",
            "type": "t_uint256"
          },
          {
            "astId": 9687,
            "contract": "contracts/protocol/pool/Pool.sol:Pool",
            "label": "details",
            "offset": 0,
            "slot": "20",
            "type": "t_mapping(t_bytes32,t_struct(NFTDetails)9594_storage)"
          },
          {
            "astId": 9692,
            "contract": "contracts/protocol/pool/Pool.sol:Pool",
            "label": "loanDetails",
            "offset": 0,
            "slot": "21",
            "type": "t_mapping(t_uint256,t_struct(LoanDetails)9614_storage)"
          },
          {
            "astId": 9696,
            "contract": "contracts/protocol/pool/Pool.sol:Pool",
            "label": "buckets",
            "offset": 0,
            "slot": "22",
            "type": "t_mapping(t_uint256,t_uint256)"
          },
          {
            "astId": 9700,
            "contract": "contracts/protocol/pool/Pool.sol:Pool",
            "label": "writeOffGroups",
            "offset": 0,
            "slot": "23",
            "type": "t_array(t_struct(WriteOffGroup)9621_storage)dyn_storage"
          },
          {
            "astId": 9702,
            "contract": "contracts/protocol/pool/Pool.sol:Pool",
            "label": "discountRate",
            "offset": 0,
            "slot": "24",
            "type": "t_uint256"
          },
          {
            "astId": 9704,
            "contract": "contracts/protocol/pool/Pool.sol:Pool",
            "label": "latestNAV",
            "offset": 0,
            "slot": "25",
            "type": "t_uint256"
          },
          {
            "astId": 9706,
            "contract": "contracts/protocol/pool/Pool.sol:Pool",
            "label": "latestDiscount",
            "offset": 0,
            "slot": "26",
            "type": "t_uint256"
          },
          {
            "astId": 9708,
            "contract": "contracts/protocol/pool/Pool.sol:Pool",
            "label": "lastNAVUpdate",
            "offset": 0,
            "slot": "27",
            "type": "t_uint256"
          },
          {
            "astId": 9710,
            "contract": "contracts/protocol/pool/Pool.sol:Pool",
            "label": "overdueLoans",
            "offset": 0,
            "slot": "28",
            "type": "t_uint256"
          },
          {
            "astId": 9714,
            "contract": "contracts/protocol/pool/Pool.sol:Pool",
            "label": "latestDiscountOfNavAssets",
            "offset": 0,
            "slot": "29",
            "type": "t_mapping(t_bytes32,t_uint256)"
          },
          {
            "astId": 9718,
            "contract": "contracts/protocol/pool/Pool.sol:Pool",
            "label": "overdueLoansOfNavAssets",
            "offset": 0,
            "slot": "30",
            "type": "t_mapping(t_bytes32,t_uint256)"
          },
          {
            "astId": 9722,
            "contract": "contracts/protocol/pool/Pool.sol:Pool",
            "label": "loanToNFT",
            "offset": 0,
            "slot": "31",
            "type": "t_mapping(t_uint256,t_bytes32)"
          },
          {
            "astId": 9724,
            "contract": "contracts/protocol/pool/Pool.sol:Pool",
            "label": "totalPrincipalRepaid",
            "offset": 0,
            "slot": "32",
            "type": "t_uint256"
          },
          {
            "astId": 9726,
            "contract": "contracts/protocol/pool/Pool.sol:Pool",
            "label": "totalInterestRepaid",
            "offset": 0,
            "slot": "33",
            "type": "t_uint256"
          },
          {
            "astId": 9728,
            "contract": "contracts/protocol/pool/Pool.sol:Pool",
            "label": "seniorDebt",
            "offset": 0,
            "slot": "34",
            "type": "t_uint256"
          },
          {
            "astId": 9730,
            "contract": "contracts/protocol/pool/Pool.sol:Pool",
            "label": "seniorBalance",
            "offset": 0,
            "slot": "35",
            "type": "t_uint256"
          },
          {
            "astId": 9732,
            "contract": "contracts/protocol/pool/Pool.sol:Pool",
            "label": "lastUpdateSeniorInterest",
            "offset": 0,
            "slot": "36",
            "type": "t_uint64"
          }
        ],
        "numberOfBytes": "1184"
      },
      "t_struct(WriteOffGroup)9621_storage": {
        "encoding": "inplace",
        "label": "struct DataTypes.WriteOffGroup",
        "members": [
          {
            "astId": 9616,
            "contract": "contracts/protocol/pool/Pool.sol:Pool",
            "label": "percentage",
            "offset": 0,
            "slot": "0",
            "type": "t_uint128"
          },
          {
            "astId": 9618,
            "contract": "contracts/protocol/pool/Pool.sol:Pool",
            "label": "overdueDays",
            "offset": 16,
            "slot": "0",
            "type": "t_uint128"
          },
          {
            "astId": 9620,
            "contract": "contracts/protocol/pool/Pool.sol:Pool",
            "label": "riskIndex",
            "offset": 0,
            "slot": "1",
            "type": "t_uint128"
          }
        ],
        "numberOfBytes": "64"
      },
      "t_uint128": {
        "encoding": "inplace",
        "label": "uint128",
        "numberOfBytes": "16"
      },
      "t_uint256": {
        "encoding": "inplace",
        "label": "uint256",
        "numberOfBytes": "32"
      },
      "t_uint32": {
        "encoding": "inplace",
        "label": "uint32",
        "numberOfBytes": "4"
      },
      "t_uint48": {
        "encoding": "inplace",
        "label": "uint48",
        "numberOfBytes": "6"
      },
      "t_uint64": {
        "encoding": "inplace",
        "label": "uint64",
        "numberOfBytes": "8"
      },
      "t_uint8": {
        "encoding": "inplace",
        "label": "uint8",
        "numberOfBytes": "1"
      }
    }
  }
}