{
  "address": "0x85Dcf6681c499D483BD490a9a5af9eC32856fF05",
  "abi": [
    {
      "anonymous": false,
      "inputs": [
        {
          "indexed": false,
          "internalType": "uint8",
          "name": "version",
          "type": "uint8"
        }
      ],
      "name": "Initialized",
      "type": "event"
    },
    {
      "anonymous": false,
      "inputs": [
        {
          "indexed": false,
          "internalType": "address",
          "name": "token",
          "type": "address"
        },
        {
          "indexed": false,
          "internalType": "uint256",
          "name": "tokenId",
          "type": "uint256"
        }
      ],
      "name": "InsertNFTAsset",
      "type": "event"
    },
    {
      "anonymous": false,
      "inputs": [
        {
          "indexed": false,
          "internalType": "address",
          "name": "account",
          "type": "address"
        }
      ],
      "name": "Paused",
      "type": "event"
    },
    {
      "anonymous": false,
      "inputs": [
        {
          "indexed": true,
          "internalType": "bytes32",
          "name": "role",
          "type": "bytes32"
        },
        {
          "indexed": true,
          "internalType": "bytes32",
          "name": "previousAdminRole",
          "type": "bytes32"
        },
        {
          "indexed": true,
          "internalType": "bytes32",
          "name": "newAdminRole",
          "type": "bytes32"
        }
      ],
      "name": "RoleAdminChanged",
      "type": "event"
    },
    {
      "anonymous": false,
      "inputs": [
        {
          "indexed": true,
          "internalType": "bytes32",
          "name": "role",
          "type": "bytes32"
        },
        {
          "indexed": true,
          "internalType": "address",
          "name": "account",
          "type": "address"
        },
        {
          "indexed": true,
          "internalType": "address",
          "name": "sender",
          "type": "address"
        }
      ],
      "name": "RoleGranted",
      "type": "event"
    },
    {
      "anonymous": false,
      "inputs": [
        {
          "indexed": true,
          "internalType": "bytes32",
          "name": "role",
          "type": "bytes32"
        },
        {
          "indexed": true,
          "internalType": "address",
          "name": "account",
          "type": "address"
        },
        {
          "indexed": true,
          "internalType": "address",
          "name": "sender",
          "type": "address"
        }
      ],
      "name": "RoleRevoked",
      "type": "event"
    },
    {
      "anonymous": false,
      "inputs": [
        {
          "indexed": false,
          "internalType": "address",
          "name": "account",
          "type": "address"
        }
      ],
      "name": "Unpaused",
      "type": "event"
    },
    {
      "inputs": [],
      "name": "BACKEND_ADMIN",
      "outputs": [
        {
          "internalType": "bytes32",
          "name": "",
          "type": "bytes32"
        }
      ],
      "stateMutability": "view",
      "type": "function"
    },
    {
      "inputs": [],
      "name": "DEFAULT_ADMIN_ROLE",
      "outputs": [
        {
          "internalType": "bytes32",
          "name": "",
          "type": "bytes32"
        }
      ],
      "stateMutability": "view",
      "type": "function"
    },
    {
      "inputs": [],
      "name": "ORIGINATOR_ROLE",
      "outputs": [
        {
          "internalType": "bytes32",
          "name": "",
          "type": "bytes32"
        }
      ],
      "stateMutability": "view",
      "type": "function"
    },
    {
      "inputs": [],
      "name": "OWNER_ROLE",
      "outputs": [
        {
          "internalType": "bytes32",
          "name": "",
          "type": "bytes32"
        }
      ],
      "stateMutability": "view",
      "type": "function"
    },
    {
      "inputs": [],
      "name": "POOL_ADMIN_ROLE",
      "outputs": [
        {
          "internalType": "bytes32",
          "name": "",
          "type": "bytes32"
        }
      ],
      "stateMutability": "view",
      "type": "function"
    },
    {
      "inputs": [],
      "name": "SIGNER_ROLE",
      "outputs": [
        {
          "internalType": "bytes32",
          "name": "",
          "type": "bytes32"
        }
      ],
      "stateMutability": "view",
      "type": "function"
    },
    {
      "inputs": [],
      "name": "SUPER_ADMIN",
      "outputs": [
        {
          "internalType": "bytes32",
          "name": "",
          "type": "bytes32"
        }
      ],
      "stateMutability": "view",
      "type": "function"
    },
    {
      "inputs": [],
      "name": "calcJuniorRatio",
      "outputs": [
        {
          "internalType": "uint256",
          "name": "juniorRatio",
          "type": "uint256"
        }
      ],
      "stateMutability": "view",
      "type": "function"
    },
    {
      "inputs": [],
      "name": "calcTokenPrices",
      "outputs": [
        {
          "internalType": "uint256",
          "name": "juniorTokenPrice",
          "type": "uint256"
        },
        {
          "internalType": "uint256",
          "name": "seniorTokenPrice",
          "type": "uint256"
        }
      ],
      "stateMutability": "view",
      "type": "function"
    },
    {
      "inputs": [
        {
          "internalType": "uint256",
          "name": "_seniorSupply",
          "type": "uint256"
        },
        {
          "internalType": "uint256",
          "name": "_seniorRedeem",
          "type": "uint256"
        }
      ],
      "name": "changeSeniorAsset",
      "outputs": [],
      "stateMutability": "nonpayable",
      "type": "function"
    },
    {
      "inputs": [
        {
          "internalType": "address",
          "name": "recipientWallet",
          "type": "address"
        }
      ],
      "name": "claimCashRemain",
      "outputs": [],
      "stateMutability": "nonpayable",
      "type": "function"
    },
    {
      "inputs": [
        {
          "internalType": "uint256[]",
          "name": "tokenIds",
          "type": "uint256[]"
        },
        {
          "components": [
            {
              "internalType": "address",
              "name": "debtor",
              "type": "address"
            },
            {
              "internalType": "address",
              "name": "principalTokenAddress",
              "type": "address"
            },
            {
              "internalType": "bytes32",
              "name": "termsParam",
              "type": "bytes32"
            },
            {
              "internalType": "uint256",
              "name": "salt",
              "type": "uint256"
            },
            {
              "internalType": "uint256",
              "name": "issuanceBlockTimestamp",
              "type": "uint256"
            },
            {
              "internalType": "uint256",
              "name": "expirationTimestamp",
              "type": "uint256"
            },
            {
              "internalType": "uint8",
              "name": "riskScore",
              "type": "uint8"
            },
            {
              "internalType": "enum Configuration.ASSET_PURPOSE",
              "name": "assetPurpose",
              "type": "uint8"
            }
          ],
          "internalType": "struct DataTypes.LoanEntry[]",
          "name": "loanEntries",
          "type": "tuple[]"
        }
      ],
      "name": "collectAssets",
      "outputs": [
        {
          "internalType": "uint256",
          "name": "",
          "type": "uint256"
        }
      ],
      "stateMutability": "nonpayable",
      "type": "function"
    },
    {
      "inputs": [
        {
          "internalType": "address",
          "name": "tokenAddresss",
          "type": "address"
        }
      ],
      "name": "collectERC20Asset",
      "outputs": [],
      "stateMutability": "nonpayable",
      "type": "function"
    },
    {
      "inputs": [],
      "name": "currentNAV",
      "outputs": [
        {
          "internalType": "uint256",
          "name": "nav_",
          "type": "uint256"
        }
      ],
      "stateMutability": "view",
      "type": "function"
    },
    {
      "inputs": [
        {
          "internalType": "bytes32",
          "name": "tokenId",
          "type": "bytes32"
        }
      ],
      "name": "currentNAVAsset",
      "outputs": [
        {
          "internalType": "uint256",
          "name": "",
          "type": "uint256"
        }
      ],
      "stateMutability": "view",
      "type": "function"
    },
    {
      "inputs": [
        {
          "internalType": "uint256",
          "name": "loan",
          "type": "uint256"
        }
      ],
      "name": "debt",
      "outputs": [
        {
          "internalType": "uint256",
          "name": "loanDebt",
          "type": "uint256"
        }
      ],
      "stateMutability": "view",
      "type": "function"
    },
    {
      "inputs": [],
      "name": "debtCeiling",
      "outputs": [
        {
          "internalType": "uint256",
          "name": "",
          "type": "uint256"
        }
      ],
      "stateMutability": "view",
      "type": "function"
    },
    {
      "inputs": [
        {
          "internalType": "uint256",
          "name": "currencyAmount",
          "type": "uint256"
        }
      ],
      "name": "decreaseReserve",
      "outputs": [],
      "stateMutability": "nonpayable",
      "type": "function"
    },
    {
      "inputs": [
        {
          "internalType": "address",
          "name": "usr",
          "type": "address"
        },
        {
          "internalType": "uint256",
          "name": "currencyAmount",
          "type": "uint256"
        }
      ],
      "name": "disburse",
      "outputs": [],
      "stateMutability": "nonpayable",
      "type": "function"
    },
    {
      "inputs": [],
      "name": "discountRate",
      "outputs": [
        {
          "internalType": "uint256",
          "name": "",
          "type": "uint256"
        }
      ],
      "stateMutability": "view",
      "type": "function"
    },
    {
      "inputs": [
        {
          "internalType": "address",
          "name": "tokenAddress",
          "type": "address"
        },
        {
          "internalType": "address",
          "name": "toPoolAddress",
          "type": "address"
        },
        {
          "internalType": "uint256[]",
          "name": "tokenIds",
          "type": "uint256[]"
        }
      ],
      "name": "exportAssets",
      "outputs": [],
      "stateMutability": "nonpayable",
      "type": "function"
    },
    {
      "inputs": [
        {
          "internalType": "bytes32",
          "name": "nft_",
          "type": "bytes32"
        }
      ],
      "name": "futureValue",
      "outputs": [
        {
          "internalType": "uint256",
          "name": "",
          "type": "uint256"
        }
      ],
      "stateMutability": "view",
      "type": "function"
    },
    {
      "inputs": [
        {
          "internalType": "bytes32",
          "name": "agreementId",
          "type": "bytes32"
        }
      ],
      "name": "getAsset",
      "outputs": [
        {
          "components": [
            {
              "internalType": "uint128",
              "name": "futureValue",
              "type": "uint128"
            },
            {
              "internalType": "uint128",
              "name": "maturityDate",
              "type": "uint128"
            },
            {
              "internalType": "uint128",
              "name": "risk",
              "type": "uint128"
            },
            {
              "internalType": "address",
              "name": "debtor",
              "type": "address"
            },
            {
              "internalType": "address",
              "name": "principalTokenAddress",
              "type": "address"
            },
            {
              "internalType": "uint256",
              "name": "salt",
              "type": "uint256"
            },
            {
              "internalType": "uint256",
              "name": "issuanceBlockTimestamp",
              "type": "uint256"
            },
            {
              "internalType": "uint256",
              "name": "expirationTimestamp",
              "type": "uint256"
            },
            {
              "internalType": "enum Configuration.ASSET_PURPOSE",
              "name": "assetPurpose",
              "type": "uint8"
            },
            {
              "internalType": "bytes32",
              "name": "termsParam",
              "type": "bytes32"
            },
            {
              "internalType": "uint256",
              "name": "principalAmount",
              "type": "uint256"
            },
            {
              "internalType": "uint256",
              "name": "termStartUnixTimestamp",
              "type": "uint256"
            },
            {
              "internalType": "uint256",
              "name": "termEndUnixTimestamp",
              "type": "uint256"
            },
            {
              "internalType": "enum UnpackLoanParamtersLib.AmortizationUnitType",
              "name": "amortizationUnitType",
              "type": "uint8"
            },
            {
              "internalType": "uint256",
              "name": "termLengthInAmortizationUnits",
              "type": "uint256"
            },
            {
              "internalType": "uint256",
              "name": "interestRate",
              "type": "uint256"
            }
          ],
          "internalType": "struct DataTypes.NFTDetails",
          "name": "",
          "type": "tuple"
        }
      ],
      "stateMutability": "view",
      "type": "function"
    },
    {
      "inputs": [],
      "name": "getInitializedVersion",
      "outputs": [
        {
          "internalType": "uint256",
          "name": "",
          "type": "uint256"
        }
      ],
      "stateMutability": "view",
      "type": "function"
    },
    {
      "inputs": [],
      "name": "getNFTAssetsLength",
      "outputs": [
        {
          "internalType": "uint256",
          "name": "",
          "type": "uint256"
        }
      ],
      "stateMutability": "view",
      "type": "function"
    },
    {
      "inputs": [],
      "name": "getRepaidAmount",
      "outputs": [
        {
          "internalType": "uint256",
          "name": "",
          "type": "uint256"
        },
        {
          "internalType": "uint256",
          "name": "",
          "type": "uint256"
        }
      ],
      "stateMutability": "view",
      "type": "function"
    },
    {
      "inputs": [],
      "name": "getRiskScoresLength",
      "outputs": [
        {
          "internalType": "uint256",
          "name": "",
          "type": "uint256"
        }
      ],
      "stateMutability": "view",
      "type": "function"
    },
    {
      "inputs": [
        {
          "internalType": "bytes32",
          "name": "role",
          "type": "bytes32"
        }
      ],
      "name": "getRoleAdmin",
      "outputs": [
        {
          "internalType": "bytes32",
          "name": "",
          "type": "bytes32"
        }
      ],
      "stateMutability": "view",
      "type": "function"
    },
    {
      "inputs": [
        {
          "internalType": "bytes32",
          "name": "role",
          "type": "bytes32"
        },
        {
          "internalType": "uint256",
          "name": "index",
          "type": "uint256"
        }
      ],
      "name": "getRoleMember",
      "outputs": [
        {
          "internalType": "address",
          "name": "",
          "type": "address"
        }
      ],
      "stateMutability": "view",
      "type": "function"
    },
    {
      "inputs": [
        {
          "internalType": "bytes32",
          "name": "role",
          "type": "bytes32"
        }
      ],
      "name": "getRoleMemberCount",
      "outputs": [
        {
          "internalType": "uint256",
          "name": "",
          "type": "uint256"
        }
      ],
      "stateMutability": "view",
      "type": "function"
    },
    {
      "inputs": [],
      "name": "getTokenAssetAddresses",
      "outputs": [
        {
          "internalType": "address[]",
          "name": "",
          "type": "address[]"
        }
      ],
      "stateMutability": "view",
      "type": "function"
    },
    {
      "inputs": [],
      "name": "getTokenAssetAddressesLength",
      "outputs": [
        {
          "internalType": "uint256",
          "name": "",
          "type": "uint256"
        }
      ],
      "stateMutability": "view",
      "type": "function"
    },
    {
      "inputs": [
        {
          "internalType": "bytes32",
          "name": "role",
          "type": "bytes32"
        },
        {
          "internalType": "address",
          "name": "account",
          "type": "address"
        }
      ],
      "name": "grantRole",
      "outputs": [],
      "stateMutability": "nonpayable",
      "type": "function"
    },
    {
      "inputs": [],
      "name": "hasFinishedRedemption",
      "outputs": [
        {
          "internalType": "bool",
          "name": "",
          "type": "bool"
        }
      ],
      "stateMutability": "view",
      "type": "function"
    },
    {
      "inputs": [
        {
          "internalType": "bytes32",
          "name": "role",
          "type": "bytes32"
        },
        {
          "internalType": "address",
          "name": "account",
          "type": "address"
        }
      ],
      "name": "hasRole",
      "outputs": [
        {
          "internalType": "bool",
          "name": "",
          "type": "bool"
        }
      ],
      "stateMutability": "view",
      "type": "function"
    },
    {
      "inputs": [
        {
          "internalType": "uint256",
          "name": "principalRepay",
          "type": "uint256"
        },
        {
          "internalType": "uint256",
          "name": "interestRepay",
          "type": "uint256"
        }
      ],
      "name": "increaseRepayAmount",
      "outputs": [],
      "stateMutability": "nonpayable",
      "type": "function"
    },
    {
      "inputs": [
        {
          "internalType": "uint256",
          "name": "currencyAmount",
          "type": "uint256"
        }
      ],
      "name": "increaseReserve",
      "outputs": [],
      "stateMutability": "nonpayable",
      "type": "function"
    },
    {
      "inputs": [
        {
          "internalType": "uint256",
          "name": "amount",
          "type": "uint256"
        }
      ],
      "name": "increaseTotalAssetRepaidCurrency",
      "outputs": [],
      "stateMutability": "nonpayable",
      "type": "function"
    },
    {
      "inputs": [
        {
          "internalType": "address",
          "name": "_registryAddress",
          "type": "address"
        },
        {
          "internalType": "bytes",
          "name": "params",
          "type": "bytes"
        }
      ],
      "name": "initialize",
      "outputs": [],
      "stateMutability": "nonpayable",
      "type": "function"
    },
    {
      "inputs": [
        {
          "internalType": "address",
          "name": "_tgeAddress",
          "type": "address"
        },
        {
          "internalType": "enum Configuration.NOTE_TOKEN_TYPE",
          "name": "_noteToken",
          "type": "uint8"
        }
      ],
      "name": "injectTGEAddress",
      "outputs": [],
      "stateMutability": "nonpayable",
      "type": "function"
    },
    {
      "inputs": [],
      "name": "interestRateSOT",
      "outputs": [
        {
          "internalType": "uint32",
          "name": "",
          "type": "uint32"
        }
      ],
      "stateMutability": "view",
      "type": "function"
    },
    {
      "inputs": [],
      "name": "isAdmin",
      "outputs": [
        {
          "internalType": "bool",
          "name": "",
          "type": "bool"
        }
      ],
      "stateMutability": "view",
      "type": "function"
    },
    {
      "inputs": [],
      "name": "isDebtCeilingValid",
      "outputs": [
        {
          "internalType": "bool",
          "name": "",
          "type": "bool"
        }
      ],
      "stateMutability": "view",
      "type": "function"
    },
    {
      "inputs": [],
      "name": "jotToken",
      "outputs": [
        {
          "internalType": "address",
          "name": "",
          "type": "address"
        }
      ],
      "stateMutability": "view",
      "type": "function"
    },
    {
      "inputs": [
        {
          "internalType": "bytes32",
          "name": "nft_",
          "type": "bytes32"
        }
      ],
      "name": "maturityDate",
      "outputs": [
        {
          "internalType": "uint256",
          "name": "",
          "type": "uint256"
        }
      ],
      "stateMutability": "view",
      "type": "function"
    },
    {
      "inputs": [],
      "name": "minFirstLossCushion",
      "outputs": [
        {
          "internalType": "uint32",
          "name": "",
          "type": "uint32"
        }
      ],
      "stateMutability": "view",
      "type": "function"
    },
    {
      "inputs": [
        {
          "internalType": "uint256",
          "name": "idx",
          "type": "uint256"
        }
      ],
      "name": "nftAssets",
      "outputs": [
        {
          "components": [
            {
              "internalType": "address",
              "name": "tokenAddress",
              "type": "address"
            },
            {
              "internalType": "uint256",
              "name": "tokenId",
              "type": "uint256"
            }
          ],
          "internalType": "struct DataTypes.NFTAsset",
          "name": "",
          "type": "tuple"
        }
      ],
      "stateMutability": "view",
      "type": "function"
    },
    {
      "inputs": [
        {
          "internalType": "address",
          "name": "",
          "type": "address"
        },
        {
          "internalType": "address",
          "name": "",
          "type": "address"
        },
        {
          "internalType": "uint256",
          "name": "tokenId",
          "type": "uint256"
        },
        {
          "internalType": "bytes",
          "name": "",
          "type": "bytes"
        }
      ],
      "name": "onERC721Received",
      "outputs": [
        {
          "internalType": "bytes4",
          "name": "",
          "type": "bytes4"
        }
      ],
      "stateMutability": "nonpayable",
      "type": "function"
    },
    {
      "inputs": [],
      "name": "openingBlockTimestamp",
      "outputs": [
        {
          "internalType": "uint64",
          "name": "",
          "type": "uint64"
        }
      ],
      "stateMutability": "view",
      "type": "function"
    },
    {
      "inputs": [],
      "name": "paidPrincipalAmountSOT",
      "outputs": [
        {
          "internalType": "uint256",
          "name": "",
          "type": "uint256"
        }
      ],
      "stateMutability": "view",
      "type": "function"
    },
    {
      "inputs": [
        {
          "internalType": "address",
          "name": "user",
          "type": "address"
        }
      ],
      "name": "paidPrincipalAmountSOTByInvestor",
      "outputs": [
        {
          "internalType": "uint256",
          "name": "",
          "type": "uint256"
        }
      ],
      "stateMutability": "view",
      "type": "function"
    },
    {
      "inputs": [],
      "name": "pause",
      "outputs": [],
      "stateMutability": "nonpayable",
      "type": "function"
    },
    {
      "inputs": [],
      "name": "paused",
      "outputs": [
        {
          "internalType": "bool",
          "name": "",
          "type": "bool"
        }
      ],
      "stateMutability": "view",
      "type": "function"
    },
    {
      "inputs": [],
      "name": "pot",
      "outputs": [
        {
          "internalType": "address",
          "name": "",
          "type": "address"
        }
      ],
      "stateMutability": "view",
      "type": "function"
    },
    {
      "inputs": [],
      "name": "rebase",
      "outputs": [],
      "stateMutability": "nonpayable",
      "type": "function"
    },
    {
      "inputs": [],
      "name": "registry",
      "outputs": [
        {
          "internalType": "contract Registry",
          "name": "",
          "type": "address"
        }
      ],
      "stateMutability": "view",
      "type": "function"
    },
    {
      "inputs": [
        {
          "internalType": "bytes32",
          "name": "role",
          "type": "bytes32"
        },
        {
          "internalType": "address",
          "name": "account",
          "type": "address"
        }
      ],
      "name": "renounceRole",
      "outputs": [],
      "stateMutability": "nonpayable",
      "type": "function"
    },
    {
      "inputs": [
        {
          "internalType": "uint256[]",
          "name": "loans",
          "type": "uint256[]"
        },
        {
          "internalType": "uint256[]",
          "name": "amounts",
          "type": "uint256[]"
        }
      ],
      "name": "repayLoan",
      "outputs": [
        {
          "internalType": "uint256[]",
          "name": "",
          "type": "uint256[]"
        },
        {
          "internalType": "uint256[]",
          "name": "",
          "type": "uint256[]"
        }
      ],
      "stateMutability": "nonpayable",
      "type": "function"
    },
    {
      "inputs": [],
      "name": "reserve",
      "outputs": [
        {
          "internalType": "uint256",
          "name": "",
          "type": "uint256"
        }
      ],
      "stateMutability": "view",
      "type": "function"
    },
    {
      "inputs": [
        {
          "internalType": "bytes32",
          "name": "role",
          "type": "bytes32"
        },
        {
          "internalType": "address",
          "name": "account",
          "type": "address"
        }
      ],
      "name": "revokeRole",
      "outputs": [],
      "stateMutability": "nonpayable",
      "type": "function"
    },
    {
      "inputs": [
        {
          "internalType": "bytes32",
          "name": "nft_",
          "type": "bytes32"
        }
      ],
      "name": "risk",
      "outputs": [
        {
          "internalType": "uint256",
          "name": "risk_",
          "type": "uint256"
        }
      ],
      "stateMutability": "view",
      "type": "function"
    },
    {
      "inputs": [
        {
          "internalType": "uint256",
          "name": "index",
          "type": "uint256"
        }
      ],
      "name": "riskScores",
      "outputs": [
        {
          "components": [
            {
              "internalType": "uint32",
              "name": "daysPastDue",
              "type": "uint32"
            },
            {
              "internalType": "uint32",
              "name": "advanceRate",
              "type": "uint32"
            },
            {
              "internalType": "uint32",
              "name": "penaltyRate",
              "type": "uint32"
            },
            {
              "internalType": "uint32",
              "name": "interestRate",
              "type": "uint32"
            },
            {
              "internalType": "uint32",
              "name": "probabilityOfDefault",
              "type": "uint32"
            },
            {
              "internalType": "uint32",
              "name": "lossGivenDefault",
              "type": "uint32"
            },
            {
              "internalType": "uint32",
              "name": "writeOffAfterGracePeriod",
              "type": "uint32"
            },
            {
              "internalType": "uint32",
              "name": "gracePeriod",
              "type": "uint32"
            },
            {
              "internalType": "uint32",
              "name": "collectionPeriod",
              "type": "uint32"
            },
            {
              "internalType": "uint32",
              "name": "writeOffAfterCollectionPeriod",
              "type": "uint32"
            },
            {
              "internalType": "uint32",
              "name": "discountRate",
              "type": "uint32"
            }
          ],
          "internalType": "struct DataTypes.RiskScore",
          "name": "",
          "type": "tuple"
        }
      ],
      "stateMutability": "view",
      "type": "function"
    },
    {
      "inputs": [],
      "name": "secondTGEAddress",
      "outputs": [
        {
          "internalType": "address",
          "name": "",
          "type": "address"
        }
      ],
      "stateMutability": "view",
      "type": "function"
    },
    {
      "inputs": [],
      "name": "seniorDebtAndBalance",
      "outputs": [
        {
          "internalType": "uint256",
          "name": "",
          "type": "uint256"
        },
        {
          "internalType": "uint256",
          "name": "",
          "type": "uint256"
        }
      ],
      "stateMutability": "view",
      "type": "function"
    },
    {
      "inputs": [
        {
          "internalType": "uint256",
          "name": "_debtCeiling",
          "type": "uint256"
        }
      ],
      "name": "setDebtCeiling",
      "outputs": [],
      "stateMutability": "nonpayable",
      "type": "function"
    },
    {
      "inputs": [
        {
          "internalType": "uint32",
          "name": "_newRate",
          "type": "uint32"
        }
      ],
      "name": "setInterestRateSOT",
      "outputs": [],
      "stateMutability": "nonpayable",
      "type": "function"
    },
    {
      "inputs": [
        {
          "internalType": "uint32",
          "name": "_minFirstLossCushion",
          "type": "uint32"
        }
      ],
      "name": "setMinFirstLossCushion",
      "outputs": [],
      "stateMutability": "nonpayable",
      "type": "function"
    },
    {
      "inputs": [
        {
          "internalType": "address",
          "name": "_pot",
          "type": "address"
        }
      ],
      "name": "setPot",
      "outputs": [],
      "stateMutability": "nonpayable",
      "type": "function"
    },
    {
      "inputs": [
        {
          "internalType": "bytes32",
          "name": "role",
          "type": "bytes32"
        },
        {
          "internalType": "bytes32",
          "name": "adminRole",
          "type": "bytes32"
        }
      ],
      "name": "setRoleAdmin",
      "outputs": [],
      "stateMutability": "nonpayable",
      "type": "function"
    },
    {
      "inputs": [],
      "name": "setUpOpeningBlockTimestamp",
      "outputs": [],
      "stateMutability": "nonpayable",
      "type": "function"
    },
    {
      "inputs": [
        {
          "internalType": "uint32[]",
          "name": "_daysPastDues",
          "type": "uint32[]"
        },
        {
          "internalType": "uint32[]",
          "name": "_ratesAndDefaults",
          "type": "uint32[]"
        },
        {
          "internalType": "uint32[]",
          "name": "_periodsAndWriteOffs",
          "type": "uint32[]"
        }
      ],
      "name": "setupRiskScores",
      "outputs": [],
      "stateMutability": "nonpayable",
      "type": "function"
    },
    {
      "inputs": [],
      "name": "sotToken",
      "outputs": [
        {
          "internalType": "address",
          "name": "",
          "type": "address"
        }
      ],
      "stateMutability": "view",
      "type": "function"
    },
    {
      "inputs": [],
      "name": "state",
      "outputs": [
        {
          "internalType": "enum DataTypes.CycleState",
          "name": "",
          "type": "uint8"
        }
      ],
      "stateMutability": "view",
      "type": "function"
    },
    {
      "inputs": [
        {
          "internalType": "bytes4",
          "name": "interfaceId",
          "type": "bytes4"
        }
      ],
      "name": "supportsInterface",
      "outputs": [
        {
          "internalType": "bool",
          "name": "",
          "type": "bool"
        }
      ],
      "stateMutability": "view",
      "type": "function"
    },
    {
      "inputs": [],
      "name": "tgeAddress",
      "outputs": [
        {
          "internalType": "address",
          "name": "",
          "type": "address"
        }
      ],
      "stateMutability": "view",
      "type": "function"
    },
    {
      "inputs": [
        {
          "internalType": "uint256",
          "name": "idx",
          "type": "uint256"
        }
      ],
      "name": "tokenAssetAddresses",
      "outputs": [
        {
          "internalType": "address",
          "name": "",
          "type": "address"
        }
      ],
      "stateMutability": "view",
      "type": "function"
    },
    {
      "inputs": [],
      "name": "totalAssetRepaidCurrency",
      "outputs": [
        {
          "internalType": "uint256",
          "name": "",
          "type": "uint256"
        }
      ],
      "stateMutability": "view",
      "type": "function"
    },
    {
      "inputs": [],
      "name": "underlyingCurrency",
      "outputs": [
        {
          "internalType": "address",
          "name": "",
          "type": "address"
        }
      ],
      "stateMutability": "view",
      "type": "function"
    },
    {
      "inputs": [],
      "name": "unpause",
      "outputs": [],
      "stateMutability": "nonpayable",
      "type": "function"
    },
    {
      "inputs": [
        {
          "internalType": "bytes32",
          "name": "nftID_",
          "type": "bytes32"
        },
        {
          "internalType": "uint256",
          "name": "risk_",
          "type": "uint256"
        }
      ],
      "name": "updateAssetRiskScore",
      "outputs": [],
      "stateMutability": "nonpayable",
      "type": "function"
    },
    {
      "inputs": [],
      "name": "validatorRequired",
      "outputs": [
        {
          "internalType": "bool",
          "name": "",
          "type": "bool"
        }
      ],
      "stateMutability": "view",
      "type": "function"
    },
    {
      "inputs": [
        {
          "internalType": "address",
          "name": "to",
          "type": "address"
        },
        {
          "internalType": "uint256",
          "name": "amount",
          "type": "uint256"
        }
      ],
      "name": "withdraw",
      "outputs": [],
      "stateMutability": "nonpayable",
      "type": "function"
    },
    {
      "inputs": [
        {
          "internalType": "address[]",
          "name": "tokenAddresses",
          "type": "address[]"
        },
        {
          "internalType": "uint256[]",
          "name": "tokenIds",
          "type": "uint256[]"
        },
        {
          "internalType": "address[]",
          "name": "recipients",
          "type": "address[]"
        }
      ],
      "name": "withdrawAssets",
      "outputs": [],
      "stateMutability": "nonpayable",
      "type": "function"
    },
    {
      "inputs": [
        {
          "internalType": "address[]",
          "name": "tokenAddresses",
          "type": "address[]"
        },
        {
          "internalType": "address[]",
          "name": "recipients",
          "type": "address[]"
        },
        {
          "internalType": "uint256[]",
          "name": "amounts",
          "type": "uint256[]"
        }
      ],
      "name": "withdrawERC20Assets",
      "outputs": [],
      "stateMutability": "nonpayable",
      "type": "function"
    },
    {
      "inputs": [
        {
          "internalType": "uint256",
          "name": "loan",
          "type": "uint256"
        }
      ],
      "name": "writeOff",
      "outputs": [],
      "stateMutability": "nonpayable",
      "type": "function"
    }
  ],
  "transactionHash": "0x04a040f63b42bd77f6c037d935fe87e5225c689c93cb8f6dd5ca214bac867cf7",
  "args": [],
  "numDeployments": 4,
  "solcInputHash": "deed048fa3beb16e6c43cf148788f147",
  "bytecode": "0x608060405234801561001057600080fd5b50615b6e80620000216000396000f3fe608060405234801561001057600080fd5b50600436106103c75760003560e01c806301ffc9a7146103cc578063065dad8f146103f457806306823e8c1461043257806306aac7ec1461045b5780630b7792f1146104655780630bc6bffc1461046d5780630e9bf4e414610487578063150b7a021461049d5780631bf51b70146104c95780631e0029c8146104dc5780631e4e0091146104ef5780631fbf7c3e14610502578063221dc59314610515578063248a9ca3146105265780632b71b450146105395780632bb14ff0146105415780632bcc3682146105605780632cbf3da0146105685780632cc3ce80146105705780632f2ff15d1461059057806333944357146105a357806336568abe146105b65780633aa29d7a146105c95780633b2f880c146105dc5780633bf4045f146105ef5780633f12dc10146106025780633f4ba83a1461062e5780633ffebce4146106365780634020c8d11461065f578063477035d11461066a5780634ba2363a1461069557806353069df6146106ad578063586fd8a1146106b85780635c975abb146106d95780636421cede146106e4578063644b4ead146106f95780636456a3ee1461071957806365930646146107215780636b70f71d1461073457806373ffe3c71461073c57806375b1bce71461074f5780637b103999146107575780637c7c7c3c1461076b5780637f3bd56e14610792578063832d1362146107a55780638456cb59146107cc5780638fd6b71e146107d457806390071cf3146107e25780639010d07c146107f5578063901617051461080857806391d148541461081b5780639b3e22911461082e578063a03690bb14610841578063a125142b14610854578063a1ebf35d14610869578063a217fddf14610890578063a5688a9014610898578063a6c59547146108a0578063ade0ea6d146108b3578063af14052c146108bb578063b1511cc9146108c3578063b3c65015146108d6578063b6db75a0146108de578063b8f6dba7146108e6578063ba81a936146108fb578063bff8a36d1461090e578063c19d93fb14610921578063ca15c87314610934578063cd3293de14610947578063cee7b6a11461094f578063d1f5789414610957578063d547741f1461096a578063d8ba6f441461097d578063dd688b0e14610990578063dec2858714610998578063df076fe0146109ab578063e1c84ea4146109b3578063e3178bc4146109bb578063e3adb7f0146109ce578063e58378bb146109e1578063e6c0e6d5146109f6578063ed348895146109fe578063f3fef3a314610a11578063fa3908b114610a24578063febd601814610a5b575b600080fd5b6103df6103da366004614895565b610a63565b60405190151581526020015b60405180910390f35b6104246104023660046148bf565b6000908152601d6020526040902054600160801b90046001600160801b031690565b6040519081526020016103eb565b6104246104403660046148bf565b6000908152601d60205260409020546001600160801b031690565b610463610a8e565b005b600254610424565b6009546001600160a01b03165b6040516103eb91906148e5565b61048f610b6d565b6040516103eb9291906148f9565b6104b06104ab3660046149d1565b610f11565b6040516001600160e01b031990911681526020016103eb565b6104636104d7366004614a87565b61108a565b6104246104ea3660046148bf565b611153565b6104636104fd366004614b20565b611160565b6104636105103660046148bf565b61117a565b6006546001600160a01b031661047a565b6104246105343660046148bf565b61127d565b61047a611292565b600d5463ffffffff165b60405163ffffffff90911681526020016103eb565b600154610424565b61042461130f565b61058361057e3660046148bf565b61131b565b6040516103eb9190614b92565b61046361059e366004614c83565b611455565b6104246105b1366004614cb3565b611471565b6104636105c4366004614c83565b61151d565b6104636105d7366004614b20565b61159b565b6104636105ea366004614d69565b61167a565b6104636105fd366004614a87565b61176f565b6104246106103660046148bf565b6000908152601d60205260409020600101546001600160801b031690565b610463611816565b610424610644366004614d97565b6001600160a01b03166000908152600f602052604090205490565b60005460ff166103df565b600b54600160201b90046001600160401b03166040516001600160401b0390911681526020016103eb565b600b54600160601b90046001600160a01b031661047a565b602954602a5461048f565b6106cb6106c6366004614db4565b611844565b6040516103eb929190614e5a565b60615460ff166103df565b6106ec611b84565b6040516103eb9190614e7f565b61070c6107073660046148bf565b611be9565b6040516103eb9190614ecc565b61047a611d14565b61046361072f366004614d97565b611d23565b61048f611dc6565b61046361074a366004614fd8565b611e4b565b6103df611ec6565b61018d5461047a906001600160a01b031681565b6104247fd980155b32cf66e6af51e0972d64b9d5efe0e6f237dfaa4bdc83f990dd79e9c881565b6104636107a0366004614ff5565b611f3e565b6104247f48c56c0d6590b6240b1a1005717522dced5c82a200c197c7d7ad7bf3660f419481565b610463612000565b600b5463ffffffff1661054b565b6104636107f0366004614d97565b61202c565b61047a610803366004614b20565b61215e565b6104636108163660046148bf565b61217e565b6103df610829366004614c83565b6121c9565b61046361083c3660046148bf565b6121f4565b61046361084f366004614b20565b612269565b610424600080516020615b1983398151915281565b6104247fe2f4eaae4a9751e85a3e4a7b9587827a877f29914755229b07a7b2da98285f7081565b610424600081565b6104246122df565b6104636108ae366004614a87565b6123f1565b600c54610424565b61046361248e565b6104636108d13660046148bf565b6124da565b61042461254b565b6103df612561565b610424600080516020615ad983398151915281565b610463610909366004614fd8565b61258c565b61046361091c3660046148bf565b6125d9565b60115460ff166040516103eb9190615021565b6104246109423660046148bf565b61270d565b600a54610424565b600e54610424565b61046361096536600461503b565b612725565b610463610978366004614c83565b612ae6565b61047a61098b3660046148bf565b612b02565b6103df612b34565b6104636109a636600461508a565b612b6f565b600354610424565b601054610424565b6104246109c93660046148bf565b612c28565b6104636109dc366004614b20565b612c35565b610424600080516020615ab983398151915281565b602154610424565b610463610a0c366004614d97565b612c7a565b610463610a1f366004614ff5565b612da1565b610a37610a323660046148bf565b612f7c565b6040805182516001600160a01b0316815260209283015192810192909252016103eb565b61047a612fdd565b60006001600160e01b03198216635a05180f60e01b1480610a885750610a8882613018565b92915050565b610a96611d14565b6001600160a01b0316336001600160a01b031614610b075760405162461bcd60e51b8152602060048201526024808201527f53656375726974697a6174696f6e506f6f6c3a204f6e6c7920746765206164646044820152637265737360e01b60648201526084015b60405180910390fd5b604051632fc9435560e01b81526000600482015273Ec6966f3E686C30a93eDA87500291e1094eF287890632fc94355906024015b60006040518083038186803b158015610b5357600080fd5b505af4158015610b67573d6000803e3d6000fd5b50505050565b6000806000737Edf98b87799Fa2c3772528b1ECC31D157f3F76663e43b10a860006040518263ffffffff1660e01b8152600401610bac91815260200190565b602060405180830381865af4158015610bc9573d6000803e3d6000fd5b505050506040513d601f19601f82011682018060405250810190610bed91906150e2565b604051631c87621560e31b8152600060048201819052919250737Edf98b87799Fa2c3772528b1ECC31D157f3F7669063e43b10a890602401602060405180830381865af4158015610c42573d6000803e3d6000fd5b505050506040513d601f19601f82011682018060405250810190610c6691906150e2565b90506000816001600160a01b031663313ce5676040518163ffffffff1660e01b8152600401602060405180830381865afa158015610ca8573d6000803e3d6000fd5b505050506040513d601f19601f82011682018060405250810190610ccc919061510e565b610cd790600a615225565b905060008073650F71d05Da316F5386e954d77A08c19bf8732Ac6328774cad610d00600061304d565b600a54604051639a1140b960e01b81526000600482015273650F71d05Da316F5386e954d77A08c19bf8732Ac90639a1140b990602401602060405180830381865af4158015610d53573d6000803e3d6000fd5b505050506040513d601f19601f82011682018060405250810190610d779190615234565b6000602c01548a6001600160a01b03166318160ddd6040518163ffffffff1660e01b8152600401602060405180830381865afa158015610dbb573d6000803e3d6000fd5b505050506040513d601f19601f82011682018060405250810190610ddf9190615234565b8a6001600160a01b03166318160ddd6040518163ffffffff1660e01b8152600401602060405180830381865afa158015610e1d573d6000803e3d6000fd5b505050506040513d601f19601f82011682018060405250810190610e419190615234565b6040516001600160e01b031960e089901b1681526004810196909652602486019490945260448501929092526064840152608483015260a482015260c4016040805180830381865af4158015610e9b573d6000803e3d6000fd5b505050506040513d601f19601f82011682018060405250810190610ebf919061524d565b9092509050676765c793fa10079d601b1b610eda8484615271565b610ee49190615288565b676765c793fa10079d601b1b610efa8584615271565b610f049190615288565b9650965050505050509091565b61018d546000903390610f2c906001600160a01b0316613075565b6001600160a01b0316816001600160a01b031614610faa5760405162461bcd60e51b815260206004820152603560248201527f53656375726974697a6174696f6e506f6f6c3a204d75737420626520746f6b656044820152741b881a5cdcdd595908189e48155b9d185b99db1959605a1b6064820152608401610afe565b6040805180820182526001600160a01b0383811682526020820187815260028054600181018255600082905293517f405787fa12a823e0f2b7631cc41b3ba8828b3321ca811111fa75cd3aa3bb5ace94820294850180546001600160a01b0319169190941617909255517f405787fa12a823e0f2b7631cc41b3ba8828b3321ca811111fa75cd3aa3bb5acf9092019190915590517ff1c19e8856063adce43b5f307c6ac9d0af46fd0787c590550c51d7cf02d2e5f49061106d90849088906152aa565b60405180910390a150630a85bd0160e11b9150505b949350505050565b611092613082565b61109a6130c8565b156110b75760405162461bcd60e51b8152600401610afe906152c3565b6110cf335b61018d546001600160a01b0316906130e9565b6040516318d6411560e31b815273Ec6966f3E686C30a93eDA87500291e1094eF28789063c6b208a890611113906000908a908a908a908a908a908a90600401615346565b60006040518083038186803b15801561112b57600080fd5b505af415801561113f573d6000803e3d6000fd5b5050505061114b61248e565b505050505050565b6000610a886000836131b8565b600061116b816132bb565b61117583836132c5565b505050565b611182613082565b61018d54611198906001600160a01b0316613318565b6001600160a01b0316336001600160a01b031614806111dd575061018d546111c8906001600160a01b0316613325565b6001600160a01b0316336001600160a01b0316145b6111f95760405162461bcd60e51b8152600401610afe90615396565b61018d54600090611212906001600160a01b0316613332565b6040516325b5637d60e21b8152909150737Edf98b87799Fa2c3772528b1ECC31D157f3F766906396d58df49061125190600090859087906004016153f4565b60006040518083038186803b15801561126957600080fd5b505af415801561114b573d6000803e3d6000fd5b600090815260f7602052604090206001015490565b604051632449660b60e11b815260006004820181905290737Edf98b87799Fa2c3772528b1ECC31D157f3F76690634892cc16906024015b602060405180830381865af41580156112e6573d6000803e3d6000fd5b505050506040513d601f19601f8201168201806040525081019061130a91906150e2565b905090565b600061130a600061304d565b611323614812565b6000828152601d602090815260409182902082516102008101845281546001600160801b038082168352600160801b9091048116938201939093526001808301549093169381019390935260028101546001600160a01b0390811660608501526003820154166080840152600481015460a0840152600581015460c0840152600681015460e08401526007810154909161010084019160ff16908111156113cc576113cc614b4f565b60018111156113dd576113dd614b4f565b81526008820154602082015260098201546040820152600a8201546060820152600b8201546080820152600c82015460a09091019060ff16600581111561142657611426614b4f565b600581111561143757611437614b4f565b8152600d8201546020820152600e9091015460409091015292915050565b61145e8261127d565b611467816132bb565b611175838361333f565b600061147b613082565b611493335b61018d546001600160a01b031690613362565b604051637f337ae160e11b815273Ec6966f3E686C30a93eDA87500291e1094eF28789063fe66f5c2906114d3906000908990899089908990600401615450565b602060405180830381865af41580156114f0573d6000803e3d6000fd5b505050506040513d601f19601f820116820180604052508101906115149190615234565b95945050505050565b6001600160a01b038116331461158d5760405162461bcd60e51b815260206004820152602f60248201527f416363657373436f6e74726f6c3a2063616e206f6e6c792072656e6f756e636560448201526e103937b632b9903337b91039b2b63360891b6064820152608401610afe565b61159782826133c7565b5050565b61018d546115b1906001600160a01b0316613318565b6001600160a01b0316336001600160a01b031614806115f6575061018d546115e1906001600160a01b0316613325565b6001600160a01b0316336001600160a01b0316145b6116125760405162461bcd60e51b8152600401610afe90615396565b73650F71d05Da316F5386e954d77A08c19bf8732Ac632fb862626000611638600061304d565b600a5460405160e085901b6001600160e01b0319168152600481019390935260248301919091526044820152606481018590526084810184905260a401611251565b611682613082565b60115460ff16600281600281111561169c5761169c614b4f565b036116e65760405162461bcd60e51b815260206004820152601a6024820152794e6f7420696e2069737375696e6720746f6b656e20737461676560301b6044820152606401610afe565b6116fe335b61018d546001600160a01b0316906133ea565b6040516317f8caf760e31b8152737Edf98b87799Fa2c3772528b1ECC31D157f3F7669063bfc657b89061173a906000908790879060040161552b565b60006040518083038186803b15801561175257600080fd5b505af4158015611766573d6000803e3d6000fd5b50505050505050565b611777613082565b61177f61345f565b61179930335b61018d546001600160a01b031691906134b8565b60405163563bc1a160e01b815273Ec6966f3E686C30a93eDA87500291e1094eF28789063563bc1a1906117dc906004908a908a908a908a908a908a908701615596565b60006040518083038186803b1580156117f457600080fd5b505af4158015611808573d6000803e3d6000fd5b5050505061114b6001609355565b61181e612561565b61183a5760405162461bcd60e51b8152600401610afe906155d8565b611842613625565b565b61018d5460609081903390611861906001600160a01b0316613671565b6001600160a01b0316146118875760405162461bcd60e51b8152600401610afe90615632565b848381146118c85760405162461bcd60e51b815260206004820152600e60248201526d092dcecc2d8d2c840d8cadccee8d60931b6044820152606401610afe565b6000816001600160401b038111156118e2576118e261491c565b60405190808252806020026020018201604052801561190b578160200160208202803683370190505b50905060005b828110156119c35760008061196760008c8c868181106119335761193361565a565b9050602002013560009081526019820160209081526040808320548352601790930190522060018101546004909101549091565b9150915061199060008c8c868181106119825761198261565a565b90506020020135848461367e565b8484815181106119a2576119a261565a565b602002602001018181525050505080806119bb90615670565b915050611911565b5060008073bC2190277F5Ad0fD00e91a0176380e1Fb74a3080632f3e0ce060008c8c8c8c6040518663ffffffff1660e01b8152600401611a07959493929190615689565b600060405180830381865af4158015611a24573d6000803e3d6000fd5b505050506040513d6000823e601f3d908101601f19168201604052611a4c9190810190615741565b9150915060008060005b86811015611b3d576000868281518110611a7257611a7261565a565b6020026020010151858381518110611a8c57611a8c61565a565b6020026020010151611a9e919061579a565b905080868381518110611ab357611ab361565a565b602002602001015111611aec57858281518110611ad257611ad261565a565b602002602001015184611ae591906157ad565b9350611b2a565b611af681856157ad565b935080868381518110611b0b57611b0b61565a565b6020026020010151611b1d919061579a565b611b2790846157ad565b92505b5080611b3581615670565b915050611a56565b50816000602a016000828254611b5391906157ad565b909155505060298054829190600090611b6d9084906157ad565b90915550939c929b50919950505050505050505050565b60606000600301805480602002602001604051908101604052809291908181526020018280548015611bdf57602002820191906000526020600020905b81546001600160a01b03168152600190910190602001808311611bc1575b5050505050905090565b6040805161016081018252600080825260208201819052918101829052606081018290526080810182905260a0810182905260c0810182905260e08101829052610100810182905261012081018290526101408101919091526001805483908110611c5657611c5661565a565b600091825260209182902060408051610160810182526002909302909101805463ffffffff8082168552600160201b808304821696860196909652600160401b808304821694860194909452600160601b820481166060860152600160801b820481166080860152600160a01b8204811660a0860152600160c01b8204811660c0860152600160e01b909104811660e08501526001909101548082166101008501529384048116610120840152920490911661014082015292915050565b6005546001600160a01b031690565b611d2b613082565b611d336130c8565b15611d505760405162461bcd60e51b8152600401610afe906152c3565b611d59336116eb565b60405163af2f761760e01b815273Ec6966f3E686C30a93eDA87500291e1094eF28789063af2f761790611d939060009085906004016157c0565b60006040518083038186803b158015611dab57600080fd5b505af4158015611dbf573d6000803e3d6000fd5b5050505050565b604051639a1140b960e01b815260006004820181905290819073650F71d05Da316F5386e954d77A08c19bf8732Ac90639a1140b990602401602060405180830381865af4158015611e1b573d6000803e3d6000fd5b505050506040513d601f19601f82011682018060405250810190611e3f9190615234565b602c5490939092509050565b611e53613082565b611e5b6130c8565b15611e785760405162461bcd60e51b8152600401610afe906152c3565b611e823033611785565b604051635b56e10160e01b81526000600482015263ffffffff82166024820152737Edf98b87799Fa2c3772528b1ECC31D157f3F76690635b56e10190604401611d93565b604051638d372cf960e01b815260006004820181905290737Edf98b87799Fa2c3772528b1ECC31D157f3F76690638d372cf9906024015b602060405180830381865af4158015611f1a573d6000803e3d6000fd5b505050506040513d601f19601f8201168201806040525081019061130a91906157e7565b611f46613082565b61018d54611f5c906001600160a01b0316613325565b6001600160a01b0316336001600160a01b031614611fc45760405162461bcd60e51b81526020600482015260316024820152600080516020615af9833981519152604482015270189948139bdd19551bdad95b95985d5b1d607a1b6064820152608401610afe565b604051630837ca3160e11b8152737Edf98b87799Fa2c3772528b1ECC31D157f3F7669063106f94629061125190600090869086906004016153f4565b612008612561565b6120245760405162461bcd60e51b8152600401610afe906155d8565b6118426136ce565b612034613082565b600080516020615ab983398151915261204c816132bb565b604051638d372cf960e01b815260006004820152737Edf98b87799Fa2c3772528b1ECC31D157f3F76690638d372cf990602401602060405180830381865af415801561209c573d6000803e3d6000fd5b505050506040513d601f19601f820116820180604052508101906120c091906157e7565b6121245760405162461bcd60e51b815260206004820152602f60248201527f53656375726974697a6174696f6e506f6f6c3a20526564656d7074696f6e206860448201526e185cc81b9bdd08199a5b9a5cda1959608a1b6064820152608401610afe565b604051637d7c571760e11b8152737Edf98b87799Fa2c3772528b1ECC31D157f3F7669063faf8ae2e906112519060009086906004016157c0565b600082815261012960205260408120612177908361370b565b9392505050565b612186613082565b61218f33611480565b604051637538156560e01b8152737Edf98b87799Fa2c3772528b1ECC31D157f3F76690637538156590611d939060009085906004016148f9565b600091825260f7602090815260408084206001600160a01b0393909316845291905290205460ff1690565b604051632915c6ef60e21b815273bC2190277F5Ad0fD00e91a0176380e1Fb74a30809063a4571bbc9061222e9060009085906004016148f9565b60006040518083038186803b15801561224657600080fd5b505af415801561225a573d6000803e3d6000fd5b5050505061226661248e565b50565b61018d543390612281906001600160a01b0316613671565b6001600160a01b0316146122a75760405162461bcd60e51b8152600401610afe90615632565b81600060290160008282546122bc91906157ad565b9091555050602a80548291906000906122d69084906157ad565b90915550505050565b600073650F71d05Da316F5386e954d77A08c19bf8732Ac63937e8cbf612305600061304d565b600a54604051639a1140b960e01b81526000600482015273650F71d05Da316F5386e954d77A08c19bf8732Ac90639a1140b990602401602060405180830381865af4158015612358573d6000803e3d6000fd5b505050506040513d601f19601f8201168201806040525081019061237c9190615234565b602c5460405160e086901b6001600160e01b03191681526004810194909452602484019290925260448301526064820152608401602060405180830381865af41580156123cd573d6000803e3d6000fd5b505050506040513d601f19601f8201168201806040525081019061130a9190615234565b6123f9613082565b600080516020615ab9833981519152612411816132bb565b60405163d37cc71360e01b815273Ec6966f3E686C30a93eDA87500291e1094eF28789063d37cc71390612455906002908b908b908b908b908b908b90600401615802565b60006040518083038186803b15801561246d57600080fd5b505af4158015612481573d6000803e3d6000fd5b5050505050505050505050565b73650F71d05Da316F5386e954d77A08c19bf8732Ac63c1a5db1c60006124b4600061304d565b600a546040516001600160e01b031960e086901b168152610b3b93929190600401615844565b6124e2613082565b6124ea6130c8565b156125075760405162461bcd60e51b8152600401610afe906152c3565b6125113033611785565b60405163070f0cf160e01b8152737Edf98b87799Fa2c3772528b1ECC31D157f3F7669063070f0cf190611d939060009085906004016148f9565b6000612559602e5460ff1690565b60ff16905090565b600061257b600080516020615ab9833981519152336121c9565b8061130a575061130a6000336121c9565b612595336116eb565b60405163ece6e31360e01b81526000600482015263ffffffff82166024820152737Edf98b87799Fa2c3772528b1ECC31D157f3F7669063ece6e31390604401611d93565b6125e1613082565b61018d546125f7906001600160a01b0316613318565b6001600160a01b0316336001600160a01b0316148061263c575061018d54612627906001600160a01b0316613325565b6001600160a01b0316336001600160a01b0316145b6126b55760405162461bcd60e51b81526020600482015260506024820152600080516020615af983398151915260448201527f62652053656375726974697a6174696f6e4d616e61676572206f72204469737460648201526f3934b13aba34b7b727b832b930ba37b960811b608482015260a401610afe565b61018d546000906126ce906001600160a01b0316613332565b604051636acb98ed60e01b8152909150737Edf98b87799Fa2c3772528b1ECC31D157f3F76690636acb98ed9061125190600090859087906004016153f4565b600081815261012960205260408120610a8890613717565b602e54610100900460ff16158080156127455750602e54600160ff909116105b8061275f5750303b15801561275f5750602e5460ff166001145b6127c25760405162461bcd60e51b815260206004820152602e60248201527f496e697469616c697a61626c653a20636f6e747261637420697320616c72656160448201526d191e481a5b9a5d1a585b1a5e995960921b6064820152608401610afe565b602e805460ff1916600117905580156127e557602e805461ff0019166101001790555b6127ee33613721565b6001600160a01b0383166128445760405162461bcd60e51b815260206004820181905260248201527f526567697374727920616464726573732063616e6e6f7420626520656d7074796044820152606401610afe565b61018d80546001600160a01b0319166001600160a01b0385161790558151600090612878906020908501810190850161585a565b80519091506001600160a01b03166128cb5760405162461bcd60e51b8152602060048201526016602482015275506f6f6c3a20496e76616c69642063757272656e637960501b6044820152606401610afe565b8051600980546001600160a01b0319166001600160a01b0390921691909117905560408101516000805460ff19908116921515929092178155600b80546001600160601b031630600160601b021790556011805490921690915560208201516129349190613769565b61294360008260600151613841565b805160405163095ea7b360e01b81526001600160a01b039091169063095ea7b390612976903090600019906004016152aa565b6020604051808303816000875af1158015612995573d6000803e3d6000fd5b505050506040513d601f19601f820116820180604052508101906129b991906157e7565b612a055760405162461bcd60e51b815260206004820152601e60248201527f506f6f6c3a2043757272656e637920617070726f76616c206661696c656400006044820152606401610afe565b61018d54612a1b906001600160a01b0316613075565b61018d546001600160a01b039182169163a22cb46591612a3b9116613671565b6040516001600160e01b031960e084901b1681526001600160a01b03909116600482015260016024820152604401600060405180830381600087803b158015612a8357600080fd5b505af1158015612a97573d6000803e3d6000fd5b5050505050801561117557602e805461ff0019169055604051600181527f7f26b83ff96e1f2b6a682f133852f6798a09c465da95921460cefb38474024989060200160405180910390a1505050565b612aef8261127d565b612af8816132bb565b61117583836133c7565b6000806003018281548110612b1957612b1961565a565b6000918252602090912001546001600160a01b031692915050565b6040516303954afb60e51b815260006004820181905290737Edf98b87799Fa2c3772528b1ECC31D157f3F766906372a95f6090602401611efd565b612b77613082565b612b7f61345f565b612b876130c8565b15612ba45760405162461bcd60e51b8152600401610afe906152c3565b612bae3033611785565b604051639178a8a160e01b815273Ec6966f3E686C30a93eDA87500291e1094eF287890639178a8a190612bee9060029088908890889088906004016158d6565b60006040518083038186803b158015612c0657600080fd5b505af4158015612c1a573d6000803e3d6000fd5b50505050610b676001609355565b6000610a88600083613878565b612c3e336110bc565b6040516356a5a29960e01b815273bC2190277F5Ad0fD00e91a0176380e1Fb74a3080906356a5a299906112519060009086908690600401615844565b612c82613082565b612c8a61345f565b612c926130c8565b15612caf5760405162461bcd60e51b8152600401610afe906152c3565b612cb93033611785565b604051635cd35d6360e11b8152737Edf98b87799Fa2c3772528b1ECC31D157f3F7669063b9a6bac690612cf39060009085906004016157c0565b60006040518083038186803b158015612d0b57600080fd5b505af4158015612d1f573d6000803e3d6000fd5b505061018d54612d3a92506001600160a01b03169050613318565b6001600160a01b031663dc90f9fd826040518263ffffffff1660e01b8152600401612d6591906148e5565b600060405180830381600087803b158015612d7f57600080fd5b505af1158015612d93573d6000803e3d6000fd5b505050506122666001609355565b612da9613082565b612db233611480565b612dca600080516020615b19833981519152836121c9565b612e2f5760405162461bcd60e51b815260206004820152603060248201527f53656375726974697a6174696f6e506f6f6c3a204f6e6c79204f726967696e6160448201526f3a37b91031b0b710323930bbb237bbb760811b6064820152608401610afe565b61018d54612e45906001600160a01b0316613325565b6001600160a01b0316634ce94519306040518263ffffffff1660e01b8152600401612e7091906148e5565b602060405180830381865afa158015612e8d573d6000803e3d6000fd5b505050506040513d601f19601f82011682018060405250810190612eb191906157e7565b15612f0a5760405162461bcd60e51b815260206004820152602360248201527f53656375726974697a6174696f6e506f6f6c3a207769746864726177207061756044820152621cd95960ea1b6064820152608401610afe565b61018d54600090612f23906001600160a01b0316613332565b604051630fc3933b60e21b8152600060048201526001600160a01b0380831660248301528516604482015260648101849052909150737Edf98b87799Fa2c3772528b1ECC31D157f3F76690633f0e4cec9060840161173a565b60408051808201909152600080825260208201526002805483908110612fa457612fa461565a565b60009182526020918290206040805180820190915260029092020180546001600160a01b03168252600101549181019190915292915050565b604051631c87621560e31b815260006004820181905290737Edf98b87799Fa2c3772528b1ECC31D157f3F7669063e43b10a8906024016112c9565b60006001600160e01b03198216637965db0b60e01b1480610a8857506301ffc9a760e01b6001600160e01b0319831614610a88565b60008060008061305c856138a6565b9250925092506115148361307084846139aa565b6139aa565b6000610a888260056139fa565b60615460ff16156118425760405162461bcd60e51b815260206004820152601060248201526f14185d5cd8589b194e881c185d5cd95960821b6044820152606401610afe565b6000600260115460ff1660028111156130e3576130e3614b4f565b14905090565b6130f282613318565b6001600160a01b03166391d14854600080516020615ad9833981519152836040518363ffffffff1660e01b815260040161312d9291906157c0565b602060405180830381865afa15801561314a573d6000803e3d6000fd5b505050506040513d601f19601f8201168201806040525081019061316e91906157e7565b6115975760405162461bcd60e51b815260206004820152601b60248201527a2932b3b4b9ba393c9d102737ba1030b7103837b7b61030b236b4b760291b6044820152606401610afe565b60008181526019830160209081526040808320548084526017860190925282206001810154600482015460059092015490919065ffffffffffff16421061326557600083815260178701602052604090206001810154600282015460059092015461322b929065ffffffffffff16613a7f565b60008481526017880160205260409020600481015460038201546005909201549294506132629290919065ffffffffffff16613a7f565b90505b80600003613293576000858152601887016020526040902054613289908390613a9f565b9350505050610a88565b613289816132b6848960180160008a815260200190815260200160002054613a9f565b613a9f565b6122668133613aab565b60006132d08361127d565b600084815260f76020526040808220600101859055519192508391839186917fbd79b86ffe0ab8e8776151514217cd7cacd52c909f66475c3af44e129f0b00ff9190a4505050565b6000610a888260006139fa565b6000610a888260096139fa565b6000610a888260076139fa565b6133498282613b04565b6000828152610129602052604090206111759082613b8a565b61336b82613671565b6001600160a01b0316816001600160a01b0316146115975760405162461bcd60e51b8152602060048201526019602482015278149959da5cdd1c9e4e8813db9b1e48131bd85b92d95c9b995b603a1b6044820152606401610afe565b6133d18282613b9f565b6000828152610129602052604090206111759082613c06565b6133f382613318565b6001600160a01b0316816001600160a01b0316146115975760405162461bcd60e51b8152602060048201526024808201527f52656769737472793a204f6e6c792053656375726974697a6174696f6e4d616e60448201526330b3b2b960e11b6064820152608401610afe565b6002609354036134b15760405162461bcd60e51b815260206004820152601f60248201527f5265656e7472616e637947756172643a207265656e7472616e742063616c6c006044820152606401610afe565b6002609355565b6134c183613318565b6001600160a01b03166391d14854600080516020615ad9833981519152836040518363ffffffff1660e01b81526004016134fc9291906157c0565b602060405180830381865afa158015613519573d6000803e3d6000fd5b505050506040513d601f19601f8201168201806040525081019061353d91906157e7565b806135c05750604051632474521560e21b81526001600160a01b038316906391d148549061357f90600080516020615ab98339815191529085906004016157c0565b602060405180830381865afa15801561359c573d6000803e3d6000fd5b505050506040513d601f19601f820116820180604052508101906135c091906157e7565b6111755760405162461bcd60e51b815260206004820152602960248201527f52656769737472793a204e6f7420616e20706f6f6c2061646d696e206f72207060448201526837b7b61037bbb732b960b91b6064820152608401610afe565b6001609355565b61362d613c1b565b6061805460ff191690557f5db9ee0a495bf2e6ff9c91a7834c1ba4fdd244a5e8aa4e537bd38aeae4b073aa335b60405161366791906148e5565b60405180910390a1565b6000610a888260066139fa565b6000816000036136ab5760008481526018860160205260409020546136a4908490613a9f565b9050611082565b6136a4826132b68588601801600089815260200190815260200160002054613a9f565b6136d6613082565b6061805460ff191660011790557f62e78cea01bee320cd4e420270b5ea74000d11b0c9f74754ebdbfc544b05a25861365a3390565b60006121778383613c64565b6000610a88825490565b602e54610100900460ff166137485760405162461bcd60e51b8152600401610afe90615909565b613750613c8e565b613758613cc1565b613760613ce8565b61226681613d0f565b6137766127106064615271565b8163ffffffff1611156137ef5760405162461bcd60e51b815260206004820152603b60248201527f53656375726974697a6174696f6e506f6f6c3a206d696e46697273744c6f737360448201527a043757368696f6e2069732067726561746572207468616e2031303602c1b6064820152608401610afe565b600b8201805463ffffffff191663ffffffff83169081179091556040519081527f091193ea2a1d71a11f3479abe1d30b1ba8fecf8b18e1c728e3ee787de54d0399906020015b60405180910390a15050565b601082018190556040518181527f3fb30b6090e6989c6819119c2885012949e75471ed4ce5e80c9be541ea0e2f3f90602001613835565b6000806000806138888686613da8565b92509250925061389c8361307084846139aa565b9695505050505050565b60238101546025820154602183015460248401546000938493849391929091908385036138e8576000836138d98a613efc565b965096509650505050506139a3565b6000806138f442613f6d565b9050825b81811015613967576000818152601f8c016020526040902054801561395257613943846130708361393e8a61392d8989613f89565b676765c793fa10079d601b1b613fd9565b614097565b935061394f8a826139aa565b99505b5061396081620151806157ad565b90506138f8565b5061398361397d8761393e8761392d8689613f89565b836140b9565b61398d868a6139aa565b6139968c613efc565b9850985098505050505050505b9193909250565b6000826139b783826157ad565b9150811015610a885760405162461bcd60e51b815260206004820152600f60248201526e1cd859994b5859190b59985a5b1959608a1b6044820152606401610afe565b6000826001600160a01b031663bcaa0c55836009811115613a1d57613a1d614b4f565b6040516001600160e01b031960e084901b16815260ff9091166004820152602401602060405180830381865afa158015613a5b573d6000803e3d6000fd5b505050506040513d601f19601f8201168201806040525081019061217791906150e2565b6000814210613a9757613a94848484426140d5565b93505b509192915050565b60006121778284614097565b613ab582826121c9565b61159757613ac2816140ee565b613acd836020614100565b604051602001613ade929190615978565b60408051601f198184030181529082905262461bcd60e51b8252610afe916004016159e7565b613b0e82826121c9565b61159757600082815260f7602090815260408083206001600160a01b03851684529091529020805460ff19166001179055613b463390565b6001600160a01b0316816001600160a01b0316837f2f8788117e7eff1d82e926ec794901d17c78024a50270940304540a733656f0d60405160405180910390a45050565b6000612177836001600160a01b03841661429b565b613ba982826121c9565b1561159757600082815260f7602090815260408083206001600160a01b0385168085529252808320805460ff1916905551339285917ff6391f5c32d9c69d2a47ea670b442974b53935d1edc7fd64eb21e047a839171b9190a45050565b6000612177836001600160a01b0384166142ea565b60615460ff166118425760405162461bcd60e51b815260206004820152601460248201527314185d5cd8589b194e881b9bdd081c185d5cd95960621b6044820152606401610afe565b6000826000018281548110613c7b57613c7b61565a565b9060005260206000200154905092915050565b602e54610100900460ff16613cb55760405162461bcd60e51b8152600401610afe90615909565b6061805460ff19169055565b602e54610100900460ff1661361e5760405162461bcd60e51b8152600401610afe90615909565b602e54610100900460ff166118425760405162461bcd60e51b8152600401610afe90615909565b602e54610100900460ff16613d365760405162461bcd60e51b8152600401610afe90615909565b6001600160a01b038116613d475750335b613d526000336143e4565b613d6a600080516020615ab9833981519152826143e4565b613d82600080516020615ab9833981519152806132c5565b612266600080516020615b19833981519152600080516020615ab98339815191526132c5565b6021820154600082815260268401602090815260408083205460248701546027880190935290832054929384938493849391613de48a8a6143ee565b15613e3c576000613df58b8b614420565b9050613e38613e048c8c6131b8565b8c6020018381548110613e1957613e1961565a565b60009182526020909120600290910201546001600160801b0316614097565b9550505b82600003613e5657600097509550929350613ef592505050565b600080613e6242613f6d565b90506000613e78613e738e8e61458d565b613f6d565b9050848110158015613e8957508181105b15613ec05760008c8152601d8e0160205260409020546001600160801b0316613eba8161393e8a61392d8787613f89565b909a5092505b613edb613ed58761393e8a61392d878b613f89565b846140b9565b613ee5858c6139aa565b899a509a509a5050505050505050505b9250925092565b6000805b6020830154811015613f6757613f5382613070613f3e8685613f2f676765c793fa10079d601b1b6103e8615271565b613f3991906157ad565b6145b3565b866020018581548110613e1957613e1961565a565b915080613f5f81615670565b915050613f00565b50919050565b6000613f7c6201518083615288565b610a889062015180615271565b600082613f96838261579a565b9150811115610a885760405162461bcd60e51b815260206004820152600f60248201526e1cd859994b5cdd588b59985a5b1959608a1b6044820152606401610afe565b600083801561407957600184168015613ff457859250613ff8565b8392505b50600283046002850494505b841561407357858602868782041461401b57600080fd5b8181018181101561402b57600080fd5b859004965050600185161561406857858302838782041415871515161561405157600080fd5b8181018181101561406157600080fd5b8590049350505b600285049450614004565b5061408f565b838015614089576000925061408d565b8392505b505b509392505050565b6000676765c793fa10079d601b1b6140af8484614673565b6121779190615288565b6000828211156140cb57506000610a88565b6121778383613f89565b60006115146140e88561392d868661579a565b86614097565b6060610a886001600160a01b03831660145b6060600061410f836002615271565b61411a9060026157ad565b6001600160401b038111156141315761413161491c565b6040519080825280601f01601f19166020018201604052801561415b576020820181803683370190505b509050600360fc1b816000815181106141765761417661565a565b60200101906001600160f81b031916908160001a905350600f60fb1b816001815181106141a5576141a561565a565b60200101906001600160f81b031916908160001a90535060006141c9846002615271565b6141d49060016157ad565b90505b600181111561424c576f181899199a1a9b1b9c1cb0b131b232b360811b85600f16601081106142085761420861565a565b1a60f81b82828151811061421e5761421e61565a565b60200101906001600160f81b031916908160001a90535060049490941c9361424581615a1a565b90506141d7565b5083156121775760405162461bcd60e51b815260206004820181905260248201527f537472696e67733a20686578206c656e67746820696e73756666696369656e746044820152606401610afe565b60008181526001830160205260408120546142e257508154600181810184556000848152602080822090930184905584548482528286019093526040902091909155610a88565b506000610a88565b600081815260018301602052604081205480156143d357600061430e60018361579a565b85549091506000906143229060019061579a565b90508181146143875760008660000182815481106143425761434261565a565b90600052602060002001549050808760000184815481106143655761436561565a565b6000918252602080832090910192909255918252600188019052604090208390555b855486908061439857614398615a31565b600190038181906000526020600020016000905590558560010160008681526020019081526020016000206000905560019350505050610a88565b6000915050610a88565b5092915050565b611597828261333f565b6000614407676765c793fa10079d601b1b6103e8615271565b6000928352601993909301602052506040902054101590565b6000818161442e858361458d565b9050600061443b42613f6d565b9050600061444987856146d5565b905060006001826040015161445e9190615a47565b90506001600160801b036000805b60208b01546001600160801b03821610156145765760008b602001826001600160801b0316815481106144a1576144a161565a565b906000526020600020906002020160000160109054906101000a90046001600160801b03169050846001600160801b03168c602001836001600160801b0316815481106144f0576144f061565a565b60009182526020909120600160029092020101546001600160801b031614801561452c5750826001600160801b0316816001600160801b031610155b801561455757506145408162015180615a67565b614553906001600160801b0316896157ad565b8710155b15614563578193508092505b508061456e81615a8a565b91505061446c565b50506001600160801b031698975050505050505050565b6000908152601d919091016020526040902054600160801b90046001600160801b031690565b600081815260178301602052604081206001810154600482015482546005909301549192909165ffffffffffff164210614653576000858152601787016020526040902060018101546002820154600590920154614619929065ffffffffffff16613a7f565b60008681526017880160205260409020600481015460038201546005909201549295506146509290919065ffffffffffff16613a7f565b91505b81600003614665576132898382613a9f565b613289826132b68584613a9f565b6000811580614697575082826146898183615271565b92506146959083615288565b145b610a885760405162461bcd60e51b815260206004820152600f60248201526e1cd859994b5b5d5b0b59985a5b1959608a1b6044820152606401610afe565b6146dd614812565b6000828152601d8401602090815260409182902082516102008101845281546001600160801b038082168352600160801b9091048116938201939093526001808301549093169381019390935260028101546001600160a01b0390811660608501526003820154166080840152600481015460a0840152600581015460c0840152600681015460e08401526007810154909161010084019160ff169081111561478857614788614b4f565b600181111561479957614799614b4f565b81526008820154602082015260098201546040820152600a8201546060820152600b8201546080820152600c82015460a09091019060ff1660058111156147e2576147e2614b4f565b60058111156147f3576147f3614b4f565b8152600d8201546020820152600e909101546040909101529392505050565b6040805161020081018252600080825260208201819052918101829052606081018290526080810182905260a0810182905260c0810182905260e0810182905261010081018290526101208101829052610140810182905261016081018290526101808101829052906101a0820190815260200160008152602001600081525090565b6000602082840312156148a757600080fd5b81356001600160e01b03198116811461217757600080fd5b6000602082840312156148d157600080fd5b5035919050565b6001600160a01b03169052565b6001600160a01b0391909116815260200190565b918252602082015260400190565b6001600160a01b038116811461226657600080fd5b634e487b7160e01b600052604160045260246000fd5b604051601f8201601f191681016001600160401b038111828210171561495a5761495a61491c565b604052919050565b600082601f83011261497357600080fd5b81356001600160401b0381111561498c5761498c61491c565b61499f601f8201601f1916602001614932565b8181528460208386010111156149b457600080fd5b816020850160208301376000918101602001919091529392505050565b600080600080608085870312156149e757600080fd5b84356149f281614907565b93506020850135614a0281614907565b92506040850135915060608501356001600160401b03811115614a2457600080fd5b614a3087828801614962565b91505092959194509250565b60008083601f840112614a4e57600080fd5b5081356001600160401b03811115614a6557600080fd5b6020830191508360208260051b8501011115614a8057600080fd5b9250929050565b60008060008060008060608789031215614aa057600080fd5b86356001600160401b0380821115614ab757600080fd5b614ac38a838b01614a3c565b90985096506020890135915080821115614adc57600080fd5b614ae88a838b01614a3c565b90965094506040890135915080821115614b0157600080fd5b50614b0e89828a01614a3c565b979a9699509497509295939492505050565b60008060408385031215614b3357600080fd5b50508035926020909101359150565b6001600160801b03169052565b634e487b7160e01b600052602160045260246000fd5b6002811061226657612266614b4f565b614b7e81614b65565b9052565b60068110614b7e57614b7e614b4f565b600061020082019050614ba6828451614b42565b6020830151614bb86020840182614b42565b506040830151614bcb6040840182614b42565b506060830151614bde60608401826148d8565b506080830151614bf160808401826148d8565b5060a083015160a083015260c083015160c083015260e083015160e083015261010080840151614c2382850182614b75565b505061012083810151908301526101408084015190830152610160808401519083015261018080840151908301526101a080840151614c6482850182614b82565b50506101c083810151908301526101e092830151929091019190915290565b60008060408385031215614c9657600080fd5b823591506020830135614ca881614907565b809150509250929050565b60008060008060408587031215614cc957600080fd5b84356001600160401b0380821115614ce057600080fd5b614cec88838901614a3c565b90965094506020870135915080821115614d0557600080fd5b818701915087601f830112614d1957600080fd5b813581811115614d2857600080fd5b8860208260081b8501011115614d3d57600080fd5b95989497505060200194505050565b6002811061226657600080fd5b8035614d6481614d4c565b919050565b60008060408385031215614d7c57600080fd5b8235614d8781614907565b91506020830135614ca881614d4c565b600060208284031215614da957600080fd5b813561217781614907565b60008060008060408587031215614dca57600080fd5b84356001600160401b0380821115614de157600080fd5b614ded88838901614a3c565b90965094506020870135915080821115614e0657600080fd5b50614e1387828801614a3c565b95989497509550505050565b600081518084526020808501945080840160005b83811015614e4f57815187529582019590820190600101614e33565b509495945050505050565b604081526000614e6d6040830185614e1f565b82810360208401526115148185614e1f565b6020808252825182820181905260009190848201906040850190845b81811015614ec05783516001600160a01b031683529284019291840191600101614e9b565b50909695505050505050565b815163ffffffff16815261016081016020830151614ef2602084018263ffffffff169052565b506040830151614f0a604084018263ffffffff169052565b506060830151614f22606084018263ffffffff169052565b506080830151614f3a608084018263ffffffff169052565b5060a0830151614f5260a084018263ffffffff169052565b5060c0830151614f6a60c084018263ffffffff169052565b5060e0830151614f8260e084018263ffffffff169052565b506101008381015163ffffffff81168483015250506101208381015163ffffffff81168483015250506101408381015163ffffffff8116848301525b505092915050565b63ffffffff8116811461226657600080fd5b600060208284031215614fea57600080fd5b813561217781614fc6565b6000806040838503121561500857600080fd5b823561501381614907565b946020939093013593505050565b602081016003831061503557615035614b4f565b91905290565b6000806040838503121561504e57600080fd5b823561505981614907565b915060208301356001600160401b0381111561507457600080fd5b61508085828601614962565b9150509250929050565b600080600080606085870312156150a057600080fd5b84356150ab81614907565b935060208501356150bb81614907565b925060408501356001600160401b038111156150d657600080fd5b614e1387828801614a3c565b6000602082840312156150f457600080fd5b815161217781614907565b60ff8116811461226657600080fd5b60006020828403121561512057600080fd5b8151612177816150ff565b634e487b7160e01b600052601160045260246000fd5b600181815b8085111561517c5781600019048211156151625761516261512b565b8085161561516f57918102915b93841c9390800290615146565b509250929050565b60008261519357506001610a88565b816151a057506000610a88565b81600181146151b657600281146151c0576151dc565b6001915050610a88565b60ff8411156151d1576151d161512b565b50506001821b610a88565b5060208310610133831016604e8410600b84101617156151ff575081810a610a88565b6152098383615141565b806000190482111561521d5761521d61512b565b029392505050565b600061217760ff841683615184565b60006020828403121561524657600080fd5b5051919050565b6000806040838503121561526057600080fd5b505080516020909101519092909150565b8082028115828204841417610a8857610a8861512b565b6000826152a557634e487b7160e01b600052601260045260246000fd5b500490565b6001600160a01b03929092168252602082015260400190565b60208082526028908201527f53656375726974697a6174696f6e506f6f6c3a20506f6f6c20696e20636c6f73604082015267656420737461746560c01b606082015260800190565b8183526000602080850194508260005b85811015614e4f57813561532e81614fc6565b63ffffffff168752958201959082019060010161531b565b87815260806020820152600061536060808301888a61530b565b828103604084015261537381878961530b565b9050828103606084015261538881858761530b565b9a9950505050505050505050565b6020808252604a90820152600080516020615af983398151915260408201527f62652053656375726974697a6174696f6e4d616e61676572206f72204e6f7465606082015269151bdad95b95985d5b1d60b21b608082015260a00190565b9283526001600160a01b03919091166020830152604082015260600190565b81835260006001600160fb1b0383111561542c57600080fd5b8260051b80836020870137939093016020019392505050565b8035614d64816150ff565b600060608783526020818185015261546b828501888a615413565b8481036040868101919091528682528791830160005b8881101561551b57833561549481614907565b6001600160a01b03908116835284860135906154af82614907565b1682860152838301358383015285840135868301526080808501359083015260a0808501359083015260c06154e5818601615445565b60ff169083015260e06154f9858201614d59565b61550582850182614b75565b5050610100938401939190910190600101615481565b509b9a5050505050505050505050565b8381526001600160a01b03831660208201526060810161554a83614b65565b826040830152949350505050565b8183526000602080850194508260005b85811015614e4f57813561557b81614907565b6001600160a01b031687529582019590820190600101615568565b8781526080602082015260006155b060808301888a615558565b82810360408401526155c3818789615558565b90508281036060840152615388818587615413565b6020808252603a908201527f556e74616e676c6564426173653a204d75737420686176652061646d696e207260408201527937b632903a37903832b93337b936903a3434b99030b1ba34b7b760311b606082015260800190565b6020808252600e908201526d1b9bdd08185d5d1a1bdc9a5e995960921b604082015260600190565b634e487b7160e01b600052603260045260246000fd5b6000600182016156825761568261512b565b5060010190565b8581526060602082015260006156a3606083018688615413565b82810360408401526156b6818587615413565b98975050505050505050565b600082601f8301126156d357600080fd5b815160206001600160401b038211156156ee576156ee61491c565b8160051b6156fd828201614932565b928352848101820192828101908785111561571757600080fd5b83870192505b848310156157365782518252918301919083019061571d565b979650505050505050565b6000806040838503121561575457600080fd5b82516001600160401b038082111561576b57600080fd5b615777868387016156c2565b9350602085015191508082111561578d57600080fd5b50615080858286016156c2565b81810381811115610a8857610a8861512b565b80820180821115610a8857610a8861512b565b9182526001600160a01b0316602082015260400190565b80518015158114614d6457600080fd5b6000602082840312156157f957600080fd5b612177826157d7565b87815260806020820152600061581c60808301888a615558565b828103604084015261582f818789615413565b90508281036060840152615388818587615558565b9283526020830191909152604082015260600190565b60006080828403121561586c57600080fd5b604051608081016001600160401b038111828210171561588e5761588e61491c565b604052825161589c81614907565b815260208301516158ac81614fc6565b60208201526158bd604084016157d7565b6040820152606083015160608201528091505092915050565b8581526001600160a01b038581166020830152841660408201526080606082018190526000906157369083018486615413565b6020808252602b908201527f496e697469616c697a61626c653a20636f6e7472616374206973206e6f74206960408201526a6e697469616c697a696e6760a81b606082015260800190565b60005b8381101561596f578181015183820152602001615957565b50506000910152565b76020b1b1b2b9b9a1b7b73a3937b61d1030b1b1b7bab73a1604d1b8152600083516159aa816017850160208801615954565b7001034b99036b4b9b9b4b733903937b6329607d1b60179184019182015283516159db816028840160208801615954565b01602801949350505050565b6020815260008251806020840152615a06816040850160208701615954565b601f01601f19169190910160400192915050565b600081615a2957615a2961512b565b506000190190565b634e487b7160e01b600052603160045260246000fd5b6001600160801b038281168282160390808211156143dd576143dd61512b565b6001600160801b03818116838216028082169190828114614fbe57614fbe61512b565b60006001600160801b038281166002600160801b03198101615aae57615aae61512b565b600101939250505056feb19546dff01e856fb3f010c267a7b1c60363cf8a4664e21cc89c26224620214e3e9c05fb0f9da4414e033bb9bf190a6e2072adf7e3077394fce683220513b8d753656375726974697a6174696f6e506f6f6c3a2043616c6c6572206d7573742059abfac6520ec36a6556b2a4dd949cc40007459bcd5cd2507f1e5cc77b6bc97ea26469706673582212204b933c6356e316040f335863ee55f4652d4a874df97666a001acbfb3339b13e764736f6c63430008130033",
  "deployedBytecode": "0x608060405234801561001057600080fd5b50600436106103c75760003560e01c806301ffc9a7146103cc578063065dad8f146103f457806306823e8c1461043257806306aac7ec1461045b5780630b7792f1146104655780630bc6bffc1461046d5780630e9bf4e414610487578063150b7a021461049d5780631bf51b70146104c95780631e0029c8146104dc5780631e4e0091146104ef5780631fbf7c3e14610502578063221dc59314610515578063248a9ca3146105265780632b71b450146105395780632bb14ff0146105415780632bcc3682146105605780632cbf3da0146105685780632cc3ce80146105705780632f2ff15d1461059057806333944357146105a357806336568abe146105b65780633aa29d7a146105c95780633b2f880c146105dc5780633bf4045f146105ef5780633f12dc10146106025780633f4ba83a1461062e5780633ffebce4146106365780634020c8d11461065f578063477035d11461066a5780634ba2363a1461069557806353069df6146106ad578063586fd8a1146106b85780635c975abb146106d95780636421cede146106e4578063644b4ead146106f95780636456a3ee1461071957806365930646146107215780636b70f71d1461073457806373ffe3c71461073c57806375b1bce71461074f5780637b103999146107575780637c7c7c3c1461076b5780637f3bd56e14610792578063832d1362146107a55780638456cb59146107cc5780638fd6b71e146107d457806390071cf3146107e25780639010d07c146107f5578063901617051461080857806391d148541461081b5780639b3e22911461082e578063a03690bb14610841578063a125142b14610854578063a1ebf35d14610869578063a217fddf14610890578063a5688a9014610898578063a6c59547146108a0578063ade0ea6d146108b3578063af14052c146108bb578063b1511cc9146108c3578063b3c65015146108d6578063b6db75a0146108de578063b8f6dba7146108e6578063ba81a936146108fb578063bff8a36d1461090e578063c19d93fb14610921578063ca15c87314610934578063cd3293de14610947578063cee7b6a11461094f578063d1f5789414610957578063d547741f1461096a578063d8ba6f441461097d578063dd688b0e14610990578063dec2858714610998578063df076fe0146109ab578063e1c84ea4146109b3578063e3178bc4146109bb578063e3adb7f0146109ce578063e58378bb146109e1578063e6c0e6d5146109f6578063ed348895146109fe578063f3fef3a314610a11578063fa3908b114610a24578063febd601814610a5b575b600080fd5b6103df6103da366004614895565b610a63565b60405190151581526020015b60405180910390f35b6104246104023660046148bf565b6000908152601d6020526040902054600160801b90046001600160801b031690565b6040519081526020016103eb565b6104246104403660046148bf565b6000908152601d60205260409020546001600160801b031690565b610463610a8e565b005b600254610424565b6009546001600160a01b03165b6040516103eb91906148e5565b61048f610b6d565b6040516103eb9291906148f9565b6104b06104ab3660046149d1565b610f11565b6040516001600160e01b031990911681526020016103eb565b6104636104d7366004614a87565b61108a565b6104246104ea3660046148bf565b611153565b6104636104fd366004614b20565b611160565b6104636105103660046148bf565b61117a565b6006546001600160a01b031661047a565b6104246105343660046148bf565b61127d565b61047a611292565b600d5463ffffffff165b60405163ffffffff90911681526020016103eb565b600154610424565b61042461130f565b61058361057e3660046148bf565b61131b565b6040516103eb9190614b92565b61046361059e366004614c83565b611455565b6104246105b1366004614cb3565b611471565b6104636105c4366004614c83565b61151d565b6104636105d7366004614b20565b61159b565b6104636105ea366004614d69565b61167a565b6104636105fd366004614a87565b61176f565b6104246106103660046148bf565b6000908152601d60205260409020600101546001600160801b031690565b610463611816565b610424610644366004614d97565b6001600160a01b03166000908152600f602052604090205490565b60005460ff166103df565b600b54600160201b90046001600160401b03166040516001600160401b0390911681526020016103eb565b600b54600160601b90046001600160a01b031661047a565b602954602a5461048f565b6106cb6106c6366004614db4565b611844565b6040516103eb929190614e5a565b60615460ff166103df565b6106ec611b84565b6040516103eb9190614e7f565b61070c6107073660046148bf565b611be9565b6040516103eb9190614ecc565b61047a611d14565b61046361072f366004614d97565b611d23565b61048f611dc6565b61046361074a366004614fd8565b611e4b565b6103df611ec6565b61018d5461047a906001600160a01b031681565b6104247fd980155b32cf66e6af51e0972d64b9d5efe0e6f237dfaa4bdc83f990dd79e9c881565b6104636107a0366004614ff5565b611f3e565b6104247f48c56c0d6590b6240b1a1005717522dced5c82a200c197c7d7ad7bf3660f419481565b610463612000565b600b5463ffffffff1661054b565b6104636107f0366004614d97565b61202c565b61047a610803366004614b20565b61215e565b6104636108163660046148bf565b61217e565b6103df610829366004614c83565b6121c9565b61046361083c3660046148bf565b6121f4565b61046361084f366004614b20565b612269565b610424600080516020615b1983398151915281565b6104247fe2f4eaae4a9751e85a3e4a7b9587827a877f29914755229b07a7b2da98285f7081565b610424600081565b6104246122df565b6104636108ae366004614a87565b6123f1565b600c54610424565b61046361248e565b6104636108d13660046148bf565b6124da565b61042461254b565b6103df612561565b610424600080516020615ad983398151915281565b610463610909366004614fd8565b61258c565b61046361091c3660046148bf565b6125d9565b60115460ff166040516103eb9190615021565b6104246109423660046148bf565b61270d565b600a54610424565b600e54610424565b61046361096536600461503b565b612725565b610463610978366004614c83565b612ae6565b61047a61098b3660046148bf565b612b02565b6103df612b34565b6104636109a636600461508a565b612b6f565b600354610424565b601054610424565b6104246109c93660046148bf565b612c28565b6104636109dc366004614b20565b612c35565b610424600080516020615ab983398151915281565b602154610424565b610463610a0c366004614d97565b612c7a565b610463610a1f366004614ff5565b612da1565b610a37610a323660046148bf565b612f7c565b6040805182516001600160a01b0316815260209283015192810192909252016103eb565b61047a612fdd565b60006001600160e01b03198216635a05180f60e01b1480610a885750610a8882613018565b92915050565b610a96611d14565b6001600160a01b0316336001600160a01b031614610b075760405162461bcd60e51b8152602060048201526024808201527f53656375726974697a6174696f6e506f6f6c3a204f6e6c7920746765206164646044820152637265737360e01b60648201526084015b60405180910390fd5b604051632fc9435560e01b81526000600482015273__$e2770451a2a37dcdd32d3c1720bab879c1$__90632fc94355906024015b60006040518083038186803b158015610b5357600080fd5b505af4158015610b67573d6000803e3d6000fd5b50505050565b600080600073__$f05580c97a29e5f8396272b0644dfc5da8$__63e43b10a860006040518263ffffffff1660e01b8152600401610bac91815260200190565b602060405180830381865af4158015610bc9573d6000803e3d6000fd5b505050506040513d601f19601f82011682018060405250810190610bed91906150e2565b604051631c87621560e31b815260006004820181905291925073__$f05580c97a29e5f8396272b0644dfc5da8$__9063e43b10a890602401602060405180830381865af4158015610c42573d6000803e3d6000fd5b505050506040513d601f19601f82011682018060405250810190610c6691906150e2565b90506000816001600160a01b031663313ce5676040518163ffffffff1660e01b8152600401602060405180830381865afa158015610ca8573d6000803e3d6000fd5b505050506040513d601f19601f82011682018060405250810190610ccc919061510e565b610cd790600a615225565b905060008073__$a68f613c3bdb728f6ba077784ec1fd15de$__6328774cad610d00600061304d565b600a54604051639a1140b960e01b81526000600482015273__$a68f613c3bdb728f6ba077784ec1fd15de$__90639a1140b990602401602060405180830381865af4158015610d53573d6000803e3d6000fd5b505050506040513d601f19601f82011682018060405250810190610d779190615234565b6000602c01548a6001600160a01b03166318160ddd6040518163ffffffff1660e01b8152600401602060405180830381865afa158015610dbb573d6000803e3d6000fd5b505050506040513d601f19601f82011682018060405250810190610ddf9190615234565b8a6001600160a01b03166318160ddd6040518163ffffffff1660e01b8152600401602060405180830381865afa158015610e1d573d6000803e3d6000fd5b505050506040513d601f19601f82011682018060405250810190610e419190615234565b6040516001600160e01b031960e089901b1681526004810196909652602486019490945260448501929092526064840152608483015260a482015260c4016040805180830381865af4158015610e9b573d6000803e3d6000fd5b505050506040513d601f19601f82011682018060405250810190610ebf919061524d565b9092509050676765c793fa10079d601b1b610eda8484615271565b610ee49190615288565b676765c793fa10079d601b1b610efa8584615271565b610f049190615288565b9650965050505050509091565b61018d546000903390610f2c906001600160a01b0316613075565b6001600160a01b0316816001600160a01b031614610faa5760405162461bcd60e51b815260206004820152603560248201527f53656375726974697a6174696f6e506f6f6c3a204d75737420626520746f6b656044820152741b881a5cdcdd595908189e48155b9d185b99db1959605a1b6064820152608401610afe565b6040805180820182526001600160a01b0383811682526020820187815260028054600181018255600082905293517f405787fa12a823e0f2b7631cc41b3ba8828b3321ca811111fa75cd3aa3bb5ace94820294850180546001600160a01b0319169190941617909255517f405787fa12a823e0f2b7631cc41b3ba8828b3321ca811111fa75cd3aa3bb5acf9092019190915590517ff1c19e8856063adce43b5f307c6ac9d0af46fd0787c590550c51d7cf02d2e5f49061106d90849088906152aa565b60405180910390a150630a85bd0160e11b9150505b949350505050565b611092613082565b61109a6130c8565b156110b75760405162461bcd60e51b8152600401610afe906152c3565b6110cf335b61018d546001600160a01b0316906130e9565b6040516318d6411560e31b815273__$e2770451a2a37dcdd32d3c1720bab879c1$__9063c6b208a890611113906000908a908a908a908a908a908a90600401615346565b60006040518083038186803b15801561112b57600080fd5b505af415801561113f573d6000803e3d6000fd5b5050505061114b61248e565b505050505050565b6000610a886000836131b8565b600061116b816132bb565b61117583836132c5565b505050565b611182613082565b61018d54611198906001600160a01b0316613318565b6001600160a01b0316336001600160a01b031614806111dd575061018d546111c8906001600160a01b0316613325565b6001600160a01b0316336001600160a01b0316145b6111f95760405162461bcd60e51b8152600401610afe90615396565b61018d54600090611212906001600160a01b0316613332565b6040516325b5637d60e21b815290915073__$f05580c97a29e5f8396272b0644dfc5da8$__906396d58df49061125190600090859087906004016153f4565b60006040518083038186803b15801561126957600080fd5b505af415801561114b573d6000803e3d6000fd5b600090815260f7602052604090206001015490565b604051632449660b60e11b81526000600482018190529073__$f05580c97a29e5f8396272b0644dfc5da8$__90634892cc16906024015b602060405180830381865af41580156112e6573d6000803e3d6000fd5b505050506040513d601f19601f8201168201806040525081019061130a91906150e2565b905090565b600061130a600061304d565b611323614812565b6000828152601d602090815260409182902082516102008101845281546001600160801b038082168352600160801b9091048116938201939093526001808301549093169381019390935260028101546001600160a01b0390811660608501526003820154166080840152600481015460a0840152600581015460c0840152600681015460e08401526007810154909161010084019160ff16908111156113cc576113cc614b4f565b60018111156113dd576113dd614b4f565b81526008820154602082015260098201546040820152600a8201546060820152600b8201546080820152600c82015460a09091019060ff16600581111561142657611426614b4f565b600581111561143757611437614b4f565b8152600d8201546020820152600e9091015460409091015292915050565b61145e8261127d565b611467816132bb565b611175838361333f565b600061147b613082565b611493335b61018d546001600160a01b031690613362565b604051637f337ae160e11b815273__$e2770451a2a37dcdd32d3c1720bab879c1$__9063fe66f5c2906114d3906000908990899089908990600401615450565b602060405180830381865af41580156114f0573d6000803e3d6000fd5b505050506040513d601f19601f820116820180604052508101906115149190615234565b95945050505050565b6001600160a01b038116331461158d5760405162461bcd60e51b815260206004820152602f60248201527f416363657373436f6e74726f6c3a2063616e206f6e6c792072656e6f756e636560448201526e103937b632b9903337b91039b2b63360891b6064820152608401610afe565b61159782826133c7565b5050565b61018d546115b1906001600160a01b0316613318565b6001600160a01b0316336001600160a01b031614806115f6575061018d546115e1906001600160a01b0316613325565b6001600160a01b0316336001600160a01b0316145b6116125760405162461bcd60e51b8152600401610afe90615396565b73__$a68f613c3bdb728f6ba077784ec1fd15de$__632fb862626000611638600061304d565b600a5460405160e085901b6001600160e01b0319168152600481019390935260248301919091526044820152606481018590526084810184905260a401611251565b611682613082565b60115460ff16600281600281111561169c5761169c614b4f565b036116e65760405162461bcd60e51b815260206004820152601a6024820152794e6f7420696e2069737375696e6720746f6b656e20737461676560301b6044820152606401610afe565b6116fe335b61018d546001600160a01b0316906133ea565b6040516317f8caf760e31b815273__$f05580c97a29e5f8396272b0644dfc5da8$__9063bfc657b89061173a906000908790879060040161552b565b60006040518083038186803b15801561175257600080fd5b505af4158015611766573d6000803e3d6000fd5b50505050505050565b611777613082565b61177f61345f565b61179930335b61018d546001600160a01b031691906134b8565b60405163563bc1a160e01b815273__$e2770451a2a37dcdd32d3c1720bab879c1$__9063563bc1a1906117dc906004908a908a908a908a908a908a908701615596565b60006040518083038186803b1580156117f457600080fd5b505af4158015611808573d6000803e3d6000fd5b5050505061114b6001609355565b61181e612561565b61183a5760405162461bcd60e51b8152600401610afe906155d8565b611842613625565b565b61018d5460609081903390611861906001600160a01b0316613671565b6001600160a01b0316146118875760405162461bcd60e51b8152600401610afe90615632565b848381146118c85760405162461bcd60e51b815260206004820152600e60248201526d092dcecc2d8d2c840d8cadccee8d60931b6044820152606401610afe565b6000816001600160401b038111156118e2576118e261491c565b60405190808252806020026020018201604052801561190b578160200160208202803683370190505b50905060005b828110156119c35760008061196760008c8c868181106119335761193361565a565b9050602002013560009081526019820160209081526040808320548352601790930190522060018101546004909101549091565b9150915061199060008c8c868181106119825761198261565a565b90506020020135848461367e565b8484815181106119a2576119a261565a565b602002602001018181525050505080806119bb90615670565b915050611911565b5060008073__$7f0f8de4978e89001c10ba53aee4a3ea4c$__632f3e0ce060008c8c8c8c6040518663ffffffff1660e01b8152600401611a07959493929190615689565b600060405180830381865af4158015611a24573d6000803e3d6000fd5b505050506040513d6000823e601f3d908101601f19168201604052611a4c9190810190615741565b9150915060008060005b86811015611b3d576000868281518110611a7257611a7261565a565b6020026020010151858381518110611a8c57611a8c61565a565b6020026020010151611a9e919061579a565b905080868381518110611ab357611ab361565a565b602002602001015111611aec57858281518110611ad257611ad261565a565b602002602001015184611ae591906157ad565b9350611b2a565b611af681856157ad565b935080868381518110611b0b57611b0b61565a565b6020026020010151611b1d919061579a565b611b2790846157ad565b92505b5080611b3581615670565b915050611a56565b50816000602a016000828254611b5391906157ad565b909155505060298054829190600090611b6d9084906157ad565b90915550939c929b50919950505050505050505050565b60606000600301805480602002602001604051908101604052809291908181526020018280548015611bdf57602002820191906000526020600020905b81546001600160a01b03168152600190910190602001808311611bc1575b5050505050905090565b6040805161016081018252600080825260208201819052918101829052606081018290526080810182905260a0810182905260c0810182905260e08101829052610100810182905261012081018290526101408101919091526001805483908110611c5657611c5661565a565b600091825260209182902060408051610160810182526002909302909101805463ffffffff8082168552600160201b808304821696860196909652600160401b808304821694860194909452600160601b820481166060860152600160801b820481166080860152600160a01b8204811660a0860152600160c01b8204811660c0860152600160e01b909104811660e08501526001909101548082166101008501529384048116610120840152920490911661014082015292915050565b6005546001600160a01b031690565b611d2b613082565b611d336130c8565b15611d505760405162461bcd60e51b8152600401610afe906152c3565b611d59336116eb565b60405163af2f761760e01b815273__$e2770451a2a37dcdd32d3c1720bab879c1$__9063af2f761790611d939060009085906004016157c0565b60006040518083038186803b158015611dab57600080fd5b505af4158015611dbf573d6000803e3d6000fd5b5050505050565b604051639a1140b960e01b815260006004820181905290819073__$a68f613c3bdb728f6ba077784ec1fd15de$__90639a1140b990602401602060405180830381865af4158015611e1b573d6000803e3d6000fd5b505050506040513d601f19601f82011682018060405250810190611e3f9190615234565b602c5490939092509050565b611e53613082565b611e5b6130c8565b15611e785760405162461bcd60e51b8152600401610afe906152c3565b611e823033611785565b604051635b56e10160e01b81526000600482015263ffffffff8216602482015273__$f05580c97a29e5f8396272b0644dfc5da8$__90635b56e10190604401611d93565b604051638d372cf960e01b81526000600482018190529073__$f05580c97a29e5f8396272b0644dfc5da8$__90638d372cf9906024015b602060405180830381865af4158015611f1a573d6000803e3d6000fd5b505050506040513d601f19601f8201168201806040525081019061130a91906157e7565b611f46613082565b61018d54611f5c906001600160a01b0316613325565b6001600160a01b0316336001600160a01b031614611fc45760405162461bcd60e51b81526020600482015260316024820152600080516020615af9833981519152604482015270189948139bdd19551bdad95b95985d5b1d607a1b6064820152608401610afe565b604051630837ca3160e11b815273__$f05580c97a29e5f8396272b0644dfc5da8$__9063106f94629061125190600090869086906004016153f4565b612008612561565b6120245760405162461bcd60e51b8152600401610afe906155d8565b6118426136ce565b612034613082565b600080516020615ab983398151915261204c816132bb565b604051638d372cf960e01b81526000600482015273__$f05580c97a29e5f8396272b0644dfc5da8$__90638d372cf990602401602060405180830381865af415801561209c573d6000803e3d6000fd5b505050506040513d601f19601f820116820180604052508101906120c091906157e7565b6121245760405162461bcd60e51b815260206004820152602f60248201527f53656375726974697a6174696f6e506f6f6c3a20526564656d7074696f6e206860448201526e185cc81b9bdd08199a5b9a5cda1959608a1b6064820152608401610afe565b604051637d7c571760e11b815273__$f05580c97a29e5f8396272b0644dfc5da8$__9063faf8ae2e906112519060009086906004016157c0565b600082815261012960205260408120612177908361370b565b9392505050565b612186613082565b61218f33611480565b604051637538156560e01b815273__$f05580c97a29e5f8396272b0644dfc5da8$__90637538156590611d939060009085906004016148f9565b600091825260f7602090815260408084206001600160a01b0393909316845291905290205460ff1690565b604051632915c6ef60e21b815273__$7f0f8de4978e89001c10ba53aee4a3ea4c$__9063a4571bbc9061222e9060009085906004016148f9565b60006040518083038186803b15801561224657600080fd5b505af415801561225a573d6000803e3d6000fd5b5050505061226661248e565b50565b61018d543390612281906001600160a01b0316613671565b6001600160a01b0316146122a75760405162461bcd60e51b8152600401610afe90615632565b81600060290160008282546122bc91906157ad565b9091555050602a80548291906000906122d69084906157ad565b90915550505050565b600073__$a68f613c3bdb728f6ba077784ec1fd15de$__63937e8cbf612305600061304d565b600a54604051639a1140b960e01b81526000600482015273__$a68f613c3bdb728f6ba077784ec1fd15de$__90639a1140b990602401602060405180830381865af4158015612358573d6000803e3d6000fd5b505050506040513d601f19601f8201168201806040525081019061237c9190615234565b602c5460405160e086901b6001600160e01b03191681526004810194909452602484019290925260448301526064820152608401602060405180830381865af41580156123cd573d6000803e3d6000fd5b505050506040513d601f19601f8201168201806040525081019061130a9190615234565b6123f9613082565b600080516020615ab9833981519152612411816132bb565b60405163d37cc71360e01b815273__$e2770451a2a37dcdd32d3c1720bab879c1$__9063d37cc71390612455906002908b908b908b908b908b908b90600401615802565b60006040518083038186803b15801561246d57600080fd5b505af4158015612481573d6000803e3d6000fd5b5050505050505050505050565b73__$a68f613c3bdb728f6ba077784ec1fd15de$__63c1a5db1c60006124b4600061304d565b600a546040516001600160e01b031960e086901b168152610b3b93929190600401615844565b6124e2613082565b6124ea6130c8565b156125075760405162461bcd60e51b8152600401610afe906152c3565b6125113033611785565b60405163070f0cf160e01b815273__$f05580c97a29e5f8396272b0644dfc5da8$__9063070f0cf190611d939060009085906004016148f9565b6000612559602e5460ff1690565b60ff16905090565b600061257b600080516020615ab9833981519152336121c9565b8061130a575061130a6000336121c9565b612595336116eb565b60405163ece6e31360e01b81526000600482015263ffffffff8216602482015273__$f05580c97a29e5f8396272b0644dfc5da8$__9063ece6e31390604401611d93565b6125e1613082565b61018d546125f7906001600160a01b0316613318565b6001600160a01b0316336001600160a01b0316148061263c575061018d54612627906001600160a01b0316613325565b6001600160a01b0316336001600160a01b0316145b6126b55760405162461bcd60e51b81526020600482015260506024820152600080516020615af983398151915260448201527f62652053656375726974697a6174696f6e4d616e61676572206f72204469737460648201526f3934b13aba34b7b727b832b930ba37b960811b608482015260a401610afe565b61018d546000906126ce906001600160a01b0316613332565b604051636acb98ed60e01b815290915073__$f05580c97a29e5f8396272b0644dfc5da8$__90636acb98ed9061125190600090859087906004016153f4565b600081815261012960205260408120610a8890613717565b602e54610100900460ff16158080156127455750602e54600160ff909116105b8061275f5750303b15801561275f5750602e5460ff166001145b6127c25760405162461bcd60e51b815260206004820152602e60248201527f496e697469616c697a61626c653a20636f6e747261637420697320616c72656160448201526d191e481a5b9a5d1a585b1a5e995960921b6064820152608401610afe565b602e805460ff1916600117905580156127e557602e805461ff0019166101001790555b6127ee33613721565b6001600160a01b0383166128445760405162461bcd60e51b815260206004820181905260248201527f526567697374727920616464726573732063616e6e6f7420626520656d7074796044820152606401610afe565b61018d80546001600160a01b0319166001600160a01b0385161790558151600090612878906020908501810190850161585a565b80519091506001600160a01b03166128cb5760405162461bcd60e51b8152602060048201526016602482015275506f6f6c3a20496e76616c69642063757272656e637960501b6044820152606401610afe565b8051600980546001600160a01b0319166001600160a01b0390921691909117905560408101516000805460ff19908116921515929092178155600b80546001600160601b031630600160601b021790556011805490921690915560208201516129349190613769565b61294360008260600151613841565b805160405163095ea7b360e01b81526001600160a01b039091169063095ea7b390612976903090600019906004016152aa565b6020604051808303816000875af1158015612995573d6000803e3d6000fd5b505050506040513d601f19601f820116820180604052508101906129b991906157e7565b612a055760405162461bcd60e51b815260206004820152601e60248201527f506f6f6c3a2043757272656e637920617070726f76616c206661696c656400006044820152606401610afe565b61018d54612a1b906001600160a01b0316613075565b61018d546001600160a01b039182169163a22cb46591612a3b9116613671565b6040516001600160e01b031960e084901b1681526001600160a01b03909116600482015260016024820152604401600060405180830381600087803b158015612a8357600080fd5b505af1158015612a97573d6000803e3d6000fd5b5050505050801561117557602e805461ff0019169055604051600181527f7f26b83ff96e1f2b6a682f133852f6798a09c465da95921460cefb38474024989060200160405180910390a1505050565b612aef8261127d565b612af8816132bb565b61117583836133c7565b6000806003018281548110612b1957612b1961565a565b6000918252602090912001546001600160a01b031692915050565b6040516303954afb60e51b81526000600482018190529073__$f05580c97a29e5f8396272b0644dfc5da8$__906372a95f6090602401611efd565b612b77613082565b612b7f61345f565b612b876130c8565b15612ba45760405162461bcd60e51b8152600401610afe906152c3565b612bae3033611785565b604051639178a8a160e01b815273__$e2770451a2a37dcdd32d3c1720bab879c1$__90639178a8a190612bee9060029088908890889088906004016158d6565b60006040518083038186803b158015612c0657600080fd5b505af4158015612c1a573d6000803e3d6000fd5b50505050610b676001609355565b6000610a88600083613878565b612c3e336110bc565b6040516356a5a29960e01b815273__$7f0f8de4978e89001c10ba53aee4a3ea4c$__906356a5a299906112519060009086908690600401615844565b612c82613082565b612c8a61345f565b612c926130c8565b15612caf5760405162461bcd60e51b8152600401610afe906152c3565b612cb93033611785565b604051635cd35d6360e11b815273__$f05580c97a29e5f8396272b0644dfc5da8$__9063b9a6bac690612cf39060009085906004016157c0565b60006040518083038186803b158015612d0b57600080fd5b505af4158015612d1f573d6000803e3d6000fd5b505061018d54612d3a92506001600160a01b03169050613318565b6001600160a01b031663dc90f9fd826040518263ffffffff1660e01b8152600401612d6591906148e5565b600060405180830381600087803b158015612d7f57600080fd5b505af1158015612d93573d6000803e3d6000fd5b505050506122666001609355565b612da9613082565b612db233611480565b612dca600080516020615b19833981519152836121c9565b612e2f5760405162461bcd60e51b815260206004820152603060248201527f53656375726974697a6174696f6e506f6f6c3a204f6e6c79204f726967696e6160448201526f3a37b91031b0b710323930bbb237bbb760811b6064820152608401610afe565b61018d54612e45906001600160a01b0316613325565b6001600160a01b0316634ce94519306040518263ffffffff1660e01b8152600401612e7091906148e5565b602060405180830381865afa158015612e8d573d6000803e3d6000fd5b505050506040513d601f19601f82011682018060405250810190612eb191906157e7565b15612f0a5760405162461bcd60e51b815260206004820152602360248201527f53656375726974697a6174696f6e506f6f6c3a207769746864726177207061756044820152621cd95960ea1b6064820152608401610afe565b61018d54600090612f23906001600160a01b0316613332565b604051630fc3933b60e21b8152600060048201526001600160a01b038083166024830152851660448201526064810184905290915073__$f05580c97a29e5f8396272b0644dfc5da8$__90633f0e4cec9060840161173a565b60408051808201909152600080825260208201526002805483908110612fa457612fa461565a565b60009182526020918290206040805180820190915260029092020180546001600160a01b03168252600101549181019190915292915050565b604051631c87621560e31b81526000600482018190529073__$f05580c97a29e5f8396272b0644dfc5da8$__9063e43b10a8906024016112c9565b60006001600160e01b03198216637965db0b60e01b1480610a8857506301ffc9a760e01b6001600160e01b0319831614610a88565b60008060008061305c856138a6565b9250925092506115148361307084846139aa565b6139aa565b6000610a888260056139fa565b60615460ff16156118425760405162461bcd60e51b815260206004820152601060248201526f14185d5cd8589b194e881c185d5cd95960821b6044820152606401610afe565b6000600260115460ff1660028111156130e3576130e3614b4f565b14905090565b6130f282613318565b6001600160a01b03166391d14854600080516020615ad9833981519152836040518363ffffffff1660e01b815260040161312d9291906157c0565b602060405180830381865afa15801561314a573d6000803e3d6000fd5b505050506040513d601f19601f8201168201806040525081019061316e91906157e7565b6115975760405162461bcd60e51b815260206004820152601b60248201527a2932b3b4b9ba393c9d102737ba1030b7103837b7b61030b236b4b760291b6044820152606401610afe565b60008181526019830160209081526040808320548084526017860190925282206001810154600482015460059092015490919065ffffffffffff16421061326557600083815260178701602052604090206001810154600282015460059092015461322b929065ffffffffffff16613a7f565b60008481526017880160205260409020600481015460038201546005909201549294506132629290919065ffffffffffff16613a7f565b90505b80600003613293576000858152601887016020526040902054613289908390613a9f565b9350505050610a88565b613289816132b6848960180160008a815260200190815260200160002054613a9f565b613a9f565b6122668133613aab565b60006132d08361127d565b600084815260f76020526040808220600101859055519192508391839186917fbd79b86ffe0ab8e8776151514217cd7cacd52c909f66475c3af44e129f0b00ff9190a4505050565b6000610a888260006139fa565b6000610a888260096139fa565b6000610a888260076139fa565b6133498282613b04565b6000828152610129602052604090206111759082613b8a565b61336b82613671565b6001600160a01b0316816001600160a01b0316146115975760405162461bcd60e51b8152602060048201526019602482015278149959da5cdd1c9e4e8813db9b1e48131bd85b92d95c9b995b603a1b6044820152606401610afe565b6133d18282613b9f565b6000828152610129602052604090206111759082613c06565b6133f382613318565b6001600160a01b0316816001600160a01b0316146115975760405162461bcd60e51b8152602060048201526024808201527f52656769737472793a204f6e6c792053656375726974697a6174696f6e4d616e60448201526330b3b2b960e11b6064820152608401610afe565b6002609354036134b15760405162461bcd60e51b815260206004820152601f60248201527f5265656e7472616e637947756172643a207265656e7472616e742063616c6c006044820152606401610afe565b6002609355565b6134c183613318565b6001600160a01b03166391d14854600080516020615ad9833981519152836040518363ffffffff1660e01b81526004016134fc9291906157c0565b602060405180830381865afa158015613519573d6000803e3d6000fd5b505050506040513d601f19601f8201168201806040525081019061353d91906157e7565b806135c05750604051632474521560e21b81526001600160a01b038316906391d148549061357f90600080516020615ab98339815191529085906004016157c0565b602060405180830381865afa15801561359c573d6000803e3d6000fd5b505050506040513d601f19601f820116820180604052508101906135c091906157e7565b6111755760405162461bcd60e51b815260206004820152602960248201527f52656769737472793a204e6f7420616e20706f6f6c2061646d696e206f72207060448201526837b7b61037bbb732b960b91b6064820152608401610afe565b6001609355565b61362d613c1b565b6061805460ff191690557f5db9ee0a495bf2e6ff9c91a7834c1ba4fdd244a5e8aa4e537bd38aeae4b073aa335b60405161366791906148e5565b60405180910390a1565b6000610a888260066139fa565b6000816000036136ab5760008481526018860160205260409020546136a4908490613a9f565b9050611082565b6136a4826132b68588601801600089815260200190815260200160002054613a9f565b6136d6613082565b6061805460ff191660011790557f62e78cea01bee320cd4e420270b5ea74000d11b0c9f74754ebdbfc544b05a25861365a3390565b60006121778383613c64565b6000610a88825490565b602e54610100900460ff166137485760405162461bcd60e51b8152600401610afe90615909565b613750613c8e565b613758613cc1565b613760613ce8565b61226681613d0f565b6137766127106064615271565b8163ffffffff1611156137ef5760405162461bcd60e51b815260206004820152603b60248201527f53656375726974697a6174696f6e506f6f6c3a206d696e46697273744c6f737360448201527a043757368696f6e2069732067726561746572207468616e2031303602c1b6064820152608401610afe565b600b8201805463ffffffff191663ffffffff83169081179091556040519081527f091193ea2a1d71a11f3479abe1d30b1ba8fecf8b18e1c728e3ee787de54d0399906020015b60405180910390a15050565b601082018190556040518181527f3fb30b6090e6989c6819119c2885012949e75471ed4ce5e80c9be541ea0e2f3f90602001613835565b6000806000806138888686613da8565b92509250925061389c8361307084846139aa565b9695505050505050565b60238101546025820154602183015460248401546000938493849391929091908385036138e8576000836138d98a613efc565b965096509650505050506139a3565b6000806138f442613f6d565b9050825b81811015613967576000818152601f8c016020526040902054801561395257613943846130708361393e8a61392d8989613f89565b676765c793fa10079d601b1b613fd9565b614097565b935061394f8a826139aa565b99505b5061396081620151806157ad565b90506138f8565b5061398361397d8761393e8761392d8689613f89565b836140b9565b61398d868a6139aa565b6139968c613efc565b9850985098505050505050505b9193909250565b6000826139b783826157ad565b9150811015610a885760405162461bcd60e51b815260206004820152600f60248201526e1cd859994b5859190b59985a5b1959608a1b6044820152606401610afe565b6000826001600160a01b031663bcaa0c55836009811115613a1d57613a1d614b4f565b6040516001600160e01b031960e084901b16815260ff9091166004820152602401602060405180830381865afa158015613a5b573d6000803e3d6000fd5b505050506040513d601f19601f8201168201806040525081019061217791906150e2565b6000814210613a9757613a94848484426140d5565b93505b509192915050565b60006121778284614097565b613ab582826121c9565b61159757613ac2816140ee565b613acd836020614100565b604051602001613ade929190615978565b60408051601f198184030181529082905262461bcd60e51b8252610afe916004016159e7565b613b0e82826121c9565b61159757600082815260f7602090815260408083206001600160a01b03851684529091529020805460ff19166001179055613b463390565b6001600160a01b0316816001600160a01b0316837f2f8788117e7eff1d82e926ec794901d17c78024a50270940304540a733656f0d60405160405180910390a45050565b6000612177836001600160a01b03841661429b565b613ba982826121c9565b1561159757600082815260f7602090815260408083206001600160a01b0385168085529252808320805460ff1916905551339285917ff6391f5c32d9c69d2a47ea670b442974b53935d1edc7fd64eb21e047a839171b9190a45050565b6000612177836001600160a01b0384166142ea565b60615460ff166118425760405162461bcd60e51b815260206004820152601460248201527314185d5cd8589b194e881b9bdd081c185d5cd95960621b6044820152606401610afe565b6000826000018281548110613c7b57613c7b61565a565b9060005260206000200154905092915050565b602e54610100900460ff16613cb55760405162461bcd60e51b8152600401610afe90615909565b6061805460ff19169055565b602e54610100900460ff1661361e5760405162461bcd60e51b8152600401610afe90615909565b602e54610100900460ff166118425760405162461bcd60e51b8152600401610afe90615909565b602e54610100900460ff16613d365760405162461bcd60e51b8152600401610afe90615909565b6001600160a01b038116613d475750335b613d526000336143e4565b613d6a600080516020615ab9833981519152826143e4565b613d82600080516020615ab9833981519152806132c5565b612266600080516020615b19833981519152600080516020615ab98339815191526132c5565b6021820154600082815260268401602090815260408083205460248701546027880190935290832054929384938493849391613de48a8a6143ee565b15613e3c576000613df58b8b614420565b9050613e38613e048c8c6131b8565b8c6020018381548110613e1957613e1961565a565b60009182526020909120600290910201546001600160801b0316614097565b9550505b82600003613e5657600097509550929350613ef592505050565b600080613e6242613f6d565b90506000613e78613e738e8e61458d565b613f6d565b9050848110158015613e8957508181105b15613ec05760008c8152601d8e0160205260409020546001600160801b0316613eba8161393e8a61392d8787613f89565b909a5092505b613edb613ed58761393e8a61392d878b613f89565b846140b9565b613ee5858c6139aa565b899a509a509a5050505050505050505b9250925092565b6000805b6020830154811015613f6757613f5382613070613f3e8685613f2f676765c793fa10079d601b1b6103e8615271565b613f3991906157ad565b6145b3565b866020018581548110613e1957613e1961565a565b915080613f5f81615670565b915050613f00565b50919050565b6000613f7c6201518083615288565b610a889062015180615271565b600082613f96838261579a565b9150811115610a885760405162461bcd60e51b815260206004820152600f60248201526e1cd859994b5cdd588b59985a5b1959608a1b6044820152606401610afe565b600083801561407957600184168015613ff457859250613ff8565b8392505b50600283046002850494505b841561407357858602868782041461401b57600080fd5b8181018181101561402b57600080fd5b859004965050600185161561406857858302838782041415871515161561405157600080fd5b8181018181101561406157600080fd5b8590049350505b600285049450614004565b5061408f565b838015614089576000925061408d565b8392505b505b509392505050565b6000676765c793fa10079d601b1b6140af8484614673565b6121779190615288565b6000828211156140cb57506000610a88565b6121778383613f89565b60006115146140e88561392d868661579a565b86614097565b6060610a886001600160a01b03831660145b6060600061410f836002615271565b61411a9060026157ad565b6001600160401b038111156141315761413161491c565b6040519080825280601f01601f19166020018201604052801561415b576020820181803683370190505b509050600360fc1b816000815181106141765761417661565a565b60200101906001600160f81b031916908160001a905350600f60fb1b816001815181106141a5576141a561565a565b60200101906001600160f81b031916908160001a90535060006141c9846002615271565b6141d49060016157ad565b90505b600181111561424c576f181899199a1a9b1b9c1cb0b131b232b360811b85600f16601081106142085761420861565a565b1a60f81b82828151811061421e5761421e61565a565b60200101906001600160f81b031916908160001a90535060049490941c9361424581615a1a565b90506141d7565b5083156121775760405162461bcd60e51b815260206004820181905260248201527f537472696e67733a20686578206c656e67746820696e73756666696369656e746044820152606401610afe565b60008181526001830160205260408120546142e257508154600181810184556000848152602080822090930184905584548482528286019093526040902091909155610a88565b506000610a88565b600081815260018301602052604081205480156143d357600061430e60018361579a565b85549091506000906143229060019061579a565b90508181146143875760008660000182815481106143425761434261565a565b90600052602060002001549050808760000184815481106143655761436561565a565b6000918252602080832090910192909255918252600188019052604090208390555b855486908061439857614398615a31565b600190038181906000526020600020016000905590558560010160008681526020019081526020016000206000905560019350505050610a88565b6000915050610a88565b5092915050565b611597828261333f565b6000614407676765c793fa10079d601b1b6103e8615271565b6000928352601993909301602052506040902054101590565b6000818161442e858361458d565b9050600061443b42613f6d565b9050600061444987856146d5565b905060006001826040015161445e9190615a47565b90506001600160801b036000805b60208b01546001600160801b03821610156145765760008b602001826001600160801b0316815481106144a1576144a161565a565b906000526020600020906002020160000160109054906101000a90046001600160801b03169050846001600160801b03168c602001836001600160801b0316815481106144f0576144f061565a565b60009182526020909120600160029092020101546001600160801b031614801561452c5750826001600160801b0316816001600160801b031610155b801561455757506145408162015180615a67565b614553906001600160801b0316896157ad565b8710155b15614563578193508092505b508061456e81615a8a565b91505061446c565b50506001600160801b031698975050505050505050565b6000908152601d919091016020526040902054600160801b90046001600160801b031690565b600081815260178301602052604081206001810154600482015482546005909301549192909165ffffffffffff164210614653576000858152601787016020526040902060018101546002820154600590920154614619929065ffffffffffff16613a7f565b60008681526017880160205260409020600481015460038201546005909201549295506146509290919065ffffffffffff16613a7f565b91505b81600003614665576132898382613a9f565b613289826132b68584613a9f565b6000811580614697575082826146898183615271565b92506146959083615288565b145b610a885760405162461bcd60e51b815260206004820152600f60248201526e1cd859994b5b5d5b0b59985a5b1959608a1b6044820152606401610afe565b6146dd614812565b6000828152601d8401602090815260409182902082516102008101845281546001600160801b038082168352600160801b9091048116938201939093526001808301549093169381019390935260028101546001600160a01b0390811660608501526003820154166080840152600481015460a0840152600581015460c0840152600681015460e08401526007810154909161010084019160ff169081111561478857614788614b4f565b600181111561479957614799614b4f565b81526008820154602082015260098201546040820152600a8201546060820152600b8201546080820152600c82015460a09091019060ff1660058111156147e2576147e2614b4f565b60058111156147f3576147f3614b4f565b8152600d8201546020820152600e909101546040909101529392505050565b6040805161020081018252600080825260208201819052918101829052606081018290526080810182905260a0810182905260c0810182905260e0810182905261010081018290526101208101829052610140810182905261016081018290526101808101829052906101a0820190815260200160008152602001600081525090565b6000602082840312156148a757600080fd5b81356001600160e01b03198116811461217757600080fd5b6000602082840312156148d157600080fd5b5035919050565b6001600160a01b03169052565b6001600160a01b0391909116815260200190565b918252602082015260400190565b6001600160a01b038116811461226657600080fd5b634e487b7160e01b600052604160045260246000fd5b604051601f8201601f191681016001600160401b038111828210171561495a5761495a61491c565b604052919050565b600082601f83011261497357600080fd5b81356001600160401b0381111561498c5761498c61491c565b61499f601f8201601f1916602001614932565b8181528460208386010111156149b457600080fd5b816020850160208301376000918101602001919091529392505050565b600080600080608085870312156149e757600080fd5b84356149f281614907565b93506020850135614a0281614907565b92506040850135915060608501356001600160401b03811115614a2457600080fd5b614a3087828801614962565b91505092959194509250565b60008083601f840112614a4e57600080fd5b5081356001600160401b03811115614a6557600080fd5b6020830191508360208260051b8501011115614a8057600080fd5b9250929050565b60008060008060008060608789031215614aa057600080fd5b86356001600160401b0380821115614ab757600080fd5b614ac38a838b01614a3c565b90985096506020890135915080821115614adc57600080fd5b614ae88a838b01614a3c565b90965094506040890135915080821115614b0157600080fd5b50614b0e89828a01614a3c565b979a9699509497509295939492505050565b60008060408385031215614b3357600080fd5b50508035926020909101359150565b6001600160801b03169052565b634e487b7160e01b600052602160045260246000fd5b6002811061226657612266614b4f565b614b7e81614b65565b9052565b60068110614b7e57614b7e614b4f565b600061020082019050614ba6828451614b42565b6020830151614bb86020840182614b42565b506040830151614bcb6040840182614b42565b506060830151614bde60608401826148d8565b506080830151614bf160808401826148d8565b5060a083015160a083015260c083015160c083015260e083015160e083015261010080840151614c2382850182614b75565b505061012083810151908301526101408084015190830152610160808401519083015261018080840151908301526101a080840151614c6482850182614b82565b50506101c083810151908301526101e092830151929091019190915290565b60008060408385031215614c9657600080fd5b823591506020830135614ca881614907565b809150509250929050565b60008060008060408587031215614cc957600080fd5b84356001600160401b0380821115614ce057600080fd5b614cec88838901614a3c565b90965094506020870135915080821115614d0557600080fd5b818701915087601f830112614d1957600080fd5b813581811115614d2857600080fd5b8860208260081b8501011115614d3d57600080fd5b95989497505060200194505050565b6002811061226657600080fd5b8035614d6481614d4c565b919050565b60008060408385031215614d7c57600080fd5b8235614d8781614907565b91506020830135614ca881614d4c565b600060208284031215614da957600080fd5b813561217781614907565b60008060008060408587031215614dca57600080fd5b84356001600160401b0380821115614de157600080fd5b614ded88838901614a3c565b90965094506020870135915080821115614e0657600080fd5b50614e1387828801614a3c565b95989497509550505050565b600081518084526020808501945080840160005b83811015614e4f57815187529582019590820190600101614e33565b509495945050505050565b604081526000614e6d6040830185614e1f565b82810360208401526115148185614e1f565b6020808252825182820181905260009190848201906040850190845b81811015614ec05783516001600160a01b031683529284019291840191600101614e9b565b50909695505050505050565b815163ffffffff16815261016081016020830151614ef2602084018263ffffffff169052565b506040830151614f0a604084018263ffffffff169052565b506060830151614f22606084018263ffffffff169052565b506080830151614f3a608084018263ffffffff169052565b5060a0830151614f5260a084018263ffffffff169052565b5060c0830151614f6a60c084018263ffffffff169052565b5060e0830151614f8260e084018263ffffffff169052565b506101008381015163ffffffff81168483015250506101208381015163ffffffff81168483015250506101408381015163ffffffff8116848301525b505092915050565b63ffffffff8116811461226657600080fd5b600060208284031215614fea57600080fd5b813561217781614fc6565b6000806040838503121561500857600080fd5b823561501381614907565b946020939093013593505050565b602081016003831061503557615035614b4f565b91905290565b6000806040838503121561504e57600080fd5b823561505981614907565b915060208301356001600160401b0381111561507457600080fd5b61508085828601614962565b9150509250929050565b600080600080606085870312156150a057600080fd5b84356150ab81614907565b935060208501356150bb81614907565b925060408501356001600160401b038111156150d657600080fd5b614e1387828801614a3c565b6000602082840312156150f457600080fd5b815161217781614907565b60ff8116811461226657600080fd5b60006020828403121561512057600080fd5b8151612177816150ff565b634e487b7160e01b600052601160045260246000fd5b600181815b8085111561517c5781600019048211156151625761516261512b565b8085161561516f57918102915b93841c9390800290615146565b509250929050565b60008261519357506001610a88565b816151a057506000610a88565b81600181146151b657600281146151c0576151dc565b6001915050610a88565b60ff8411156151d1576151d161512b565b50506001821b610a88565b5060208310610133831016604e8410600b84101617156151ff575081810a610a88565b6152098383615141565b806000190482111561521d5761521d61512b565b029392505050565b600061217760ff841683615184565b60006020828403121561524657600080fd5b5051919050565b6000806040838503121561526057600080fd5b505080516020909101519092909150565b8082028115828204841417610a8857610a8861512b565b6000826152a557634e487b7160e01b600052601260045260246000fd5b500490565b6001600160a01b03929092168252602082015260400190565b60208082526028908201527f53656375726974697a6174696f6e506f6f6c3a20506f6f6c20696e20636c6f73604082015267656420737461746560c01b606082015260800190565b8183526000602080850194508260005b85811015614e4f57813561532e81614fc6565b63ffffffff168752958201959082019060010161531b565b87815260806020820152600061536060808301888a61530b565b828103604084015261537381878961530b565b9050828103606084015261538881858761530b565b9a9950505050505050505050565b6020808252604a90820152600080516020615af983398151915260408201527f62652053656375726974697a6174696f6e4d616e61676572206f72204e6f7465606082015269151bdad95b95985d5b1d60b21b608082015260a00190565b9283526001600160a01b03919091166020830152604082015260600190565b81835260006001600160fb1b0383111561542c57600080fd5b8260051b80836020870137939093016020019392505050565b8035614d64816150ff565b600060608783526020818185015261546b828501888a615413565b8481036040868101919091528682528791830160005b8881101561551b57833561549481614907565b6001600160a01b03908116835284860135906154af82614907565b1682860152838301358383015285840135868301526080808501359083015260a0808501359083015260c06154e5818601615445565b60ff169083015260e06154f9858201614d59565b61550582850182614b75565b5050610100938401939190910190600101615481565b509b9a5050505050505050505050565b8381526001600160a01b03831660208201526060810161554a83614b65565b826040830152949350505050565b8183526000602080850194508260005b85811015614e4f57813561557b81614907565b6001600160a01b031687529582019590820190600101615568565b8781526080602082015260006155b060808301888a615558565b82810360408401526155c3818789615558565b90508281036060840152615388818587615413565b6020808252603a908201527f556e74616e676c6564426173653a204d75737420686176652061646d696e207260408201527937b632903a37903832b93337b936903a3434b99030b1ba34b7b760311b606082015260800190565b6020808252600e908201526d1b9bdd08185d5d1a1bdc9a5e995960921b604082015260600190565b634e487b7160e01b600052603260045260246000fd5b6000600182016156825761568261512b565b5060010190565b8581526060602082015260006156a3606083018688615413565b82810360408401526156b6818587615413565b98975050505050505050565b600082601f8301126156d357600080fd5b815160206001600160401b038211156156ee576156ee61491c565b8160051b6156fd828201614932565b928352848101820192828101908785111561571757600080fd5b83870192505b848310156157365782518252918301919083019061571d565b979650505050505050565b6000806040838503121561575457600080fd5b82516001600160401b038082111561576b57600080fd5b615777868387016156c2565b9350602085015191508082111561578d57600080fd5b50615080858286016156c2565b81810381811115610a8857610a8861512b565b80820180821115610a8857610a8861512b565b9182526001600160a01b0316602082015260400190565b80518015158114614d6457600080fd5b6000602082840312156157f957600080fd5b612177826157d7565b87815260806020820152600061581c60808301888a615558565b828103604084015261582f818789615413565b90508281036060840152615388818587615558565b9283526020830191909152604082015260600190565b60006080828403121561586c57600080fd5b604051608081016001600160401b038111828210171561588e5761588e61491c565b604052825161589c81614907565b815260208301516158ac81614fc6565b60208201526158bd604084016157d7565b6040820152606083015160608201528091505092915050565b8581526001600160a01b038581166020830152841660408201526080606082018190526000906157369083018486615413565b6020808252602b908201527f496e697469616c697a61626c653a20636f6e7472616374206973206e6f74206960408201526a6e697469616c697a696e6760a81b606082015260800190565b60005b8381101561596f578181015183820152602001615957565b50506000910152565b76020b1b1b2b9b9a1b7b73a3937b61d1030b1b1b7bab73a1604d1b8152600083516159aa816017850160208801615954565b7001034b99036b4b9b9b4b733903937b6329607d1b60179184019182015283516159db816028840160208801615954565b01602801949350505050565b6020815260008251806020840152615a06816040850160208701615954565b601f01601f19169190910160400192915050565b600081615a2957615a2961512b565b506000190190565b634e487b7160e01b600052603160045260246000fd5b6001600160801b038281168282160390808211156143dd576143dd61512b565b6001600160801b03818116838216028082169190828114614fbe57614fbe61512b565b60006001600160801b038281166002600160801b03198101615aae57615aae61512b565b600101939250505056feb19546dff01e856fb3f010c267a7b1c60363cf8a4664e21cc89c26224620214e3e9c05fb0f9da4414e033bb9bf190a6e2072adf7e3077394fce683220513b8d753656375726974697a6174696f6e506f6f6c3a2043616c6c6572206d7573742059abfac6520ec36a6556b2a4dd949cc40007459bcd5cd2507f1e5cc77b6bc97ea26469706673582212204b933c6356e316040f335863ee55f4652d4a874df97666a001acbfb3339b13e764736f6c63430008130033",
  "libraries": {
    "PoolAssetLogic": "0xEc6966f3E686C30a93eDA87500291e1094eF2878",
    "PoolNAVLogic": "0xbC2190277F5Ad0fD00e91a0176380e1Fb74a3080",
    "TGELogic": "0x7Edf98b87799Fa2c3772528b1ECC31D157f3F766",
    "RebaseLogic": "0x650F71d05Da316F5386e954d77A08c19bf8732Ac"
  },
  "devdoc": {
    "author": "Untangled Team",
    "events": {
      "Initialized(uint8)": {
        "details": "Triggered when the contract has been initialized or reinitialized."
      },
      "Paused(address)": {
        "details": "Emitted when the pause is triggered by `account`."
      },
      "RoleAdminChanged(bytes32,bytes32,bytes32)": {
        "details": "Emitted when `newAdminRole` is set as ``role``'s admin role, replacing `previousAdminRole` `DEFAULT_ADMIN_ROLE` is the starting admin for all roles, despite {RoleAdminChanged} not being emitted signaling this. _Available since v3.1._"
      },
      "RoleGranted(bytes32,address,address)": {
        "details": "Emitted when `account` is granted `role`. `sender` is the account that originated the contract call, an admin role bearer except when using {AccessControl-_setupRole}."
      },
      "RoleRevoked(bytes32,address,address)": {
        "details": "Emitted when `account` is revoked `role`. `sender` is the account that originated the contract call:   - if using `revokeRole`, it is the admin role bearer   - if using `renounceRole`, it is the role bearer (i.e. `account`)"
      },
      "Unpaused(address)": {
        "details": "Emitted when the pause is lifted by `account`."
      }
    },
    "kind": "dev",
    "methods": {
      "changeSeniorAsset(uint256,uint256)": {
        "params": {
          "_seniorRedeem": "senior redeem amount",
          "_seniorSupply": "senior supply amount"
        }
      },
      "currentNAV()": {
        "returns": {
          "nav_": "current NAV"
        }
      },
      "decreaseReserve(uint256)": {
        "details": "trigger update reserve"
      },
      "disburse(address,uint256)": {
        "details": "Disburses a specified amount of currency to the given user.",
        "params": {
          "currencyAmount": "The amount of currency to disburse.",
          "usr": "The address of the user to receive the currency."
        }
      },
      "getRiskScoresLength()": {
        "returns": {
          "_0": "the length of the risk scores array"
        }
      },
      "getRoleAdmin(bytes32)": {
        "details": "Returns the admin role that controls `role`. See {grantRole} and {revokeRole}. To change a role's admin, use {_setRoleAdmin}."
      },
      "getRoleMember(bytes32,uint256)": {
        "details": "Returns one of the accounts that have `role`. `index` must be a value between 0 and {getRoleMemberCount}, non-inclusive. Role bearers are not sorted in any particular way, and their ordering may change at any point. WARNING: When using {getRoleMember} and {getRoleMemberCount}, make sure you perform all queries on the same block. See the following https://forum.openzeppelin.com/t/iterating-over-elements-on-enumerableset-in-openzeppelin-contracts/2296[forum post] for more information."
      },
      "getRoleMemberCount(bytes32)": {
        "details": "Returns the number of accounts that have `role`. Can be used together with {getRoleMember} to enumerate all bearers of a role."
      },
      "grantRole(bytes32,address)": {
        "details": "Grants `role` to `account`. If `account` had not been already granted `role`, emits a {RoleGranted} event. Requirements: - the caller must have ``role``'s admin role. May emit a {RoleGranted} event."
      },
      "hasRole(bytes32,address)": {
        "details": "Returns `true` if `account` has been granted `role`."
      },
      "increaseReserve(uint256)": {
        "details": "trigger update reserve when buy note token action happens"
      },
      "increaseTotalAssetRepaidCurrency(uint256)": {
        "details": "trigger update asset value repaid"
      },
      "paused()": {
        "details": "Returns true if the contract is paused, and false otherwise."
      },
      "renounceRole(bytes32,address)": {
        "details": "Revokes `role` from the calling account. Roles are often managed via {grantRole} and {revokeRole}: this function's purpose is to provide a mechanism for accounts to lose their privileges if they are compromised (such as when a trusted device is misplaced). If the calling account had been revoked `role`, emits a {RoleRevoked} event. Requirements: - the caller must be `account`. May emit a {RoleRevoked} event."
      },
      "revokeRole(bytes32,address)": {
        "details": "Revokes `role` from `account`. If `account` had been granted `role`, emits a {RoleRevoked} event. Requirements: - the caller must have ``role``'s admin role. May emit a {RoleRevoked} event."
      },
      "setUpOpeningBlockTimestamp()": {
        "details": "Trigger set up opening block timestamp"
      },
      "supportsInterface(bytes4)": {
        "details": "See {IERC165-supportsInterface}."
      }
    },
    "title": "Untangled's SecuritizationPool contract",
    "version": 1
  },
  "userdoc": {
    "kind": "user",
    "methods": {
      "changeSeniorAsset(uint256,uint256)": {
        "notice": "changes the senior asset value based on new supply or redeems"
      },
      "collectAssets(uint256[],(address,address,bytes32,uint256,uint256,uint256,uint8,uint8)[])": {
        "notice": "collects NFT assets from a specified address"
      },
      "collectERC20Asset(address)": {
        "notice": "collects ERC20 assets from specified senders"
      },
      "currentNAV()": {
        "notice": "calculates and returns the current NAV"
      },
      "exportAssets(address,address,uint256[])": {
        "notice": "exports NFT assets to another pool address"
      },
      "getAsset(bytes32)": {
        "notice": "retrieves loan information"
      },
      "getRiskScoresLength()": {
        "notice": "Riks scores length"
      },
      "getTokenAssetAddresses()": {
        "notice": "A view function that returns an array of token asset addresses"
      },
      "getTokenAssetAddressesLength()": {
        "notice": "A view function that returns the length of the token asset addresses array"
      },
      "hasFinishedRedemption()": {
        "notice": "checks if the redemption process has finished"
      },
      "initialize(address,bytes)": {
        "notice": "CONSTRUCTOR "
      },
      "injectTGEAddress(address,uint8)": {
        "notice": "injects the address of the Token Generation Event (TGE) and the associated token address"
      },
      "isDebtCeilingValid()": {
        "notice": "check current debt ceiling is valid"
      },
      "rebase()": {
        "notice": "rebase the debt and balance of the senior tranche according to the current ratio between senior and junior"
      },
      "setDebtCeiling(uint256)": {
        "notice": "sets debt ceiling value"
      },
      "setMinFirstLossCushion(uint32)": {
        "notice": "sets mint first loss value"
      },
      "setupRiskScores(uint32[],uint32[],uint32[])": {
        "notice": "sets up the risk scores for the contract for pool"
      },
      "withdraw(address,uint256)": {
        "notice": "allows the originator to withdraw from reserve"
      },
      "withdrawAssets(address[],uint256[],address[])": {
        "notice": "withdraws NFT assets from the contract and transfers them to recipients"
      },
      "withdrawERC20Assets(address[],address[],uint256[])": {
        "notice": "withdraws ERC20 assets from the contract and transfers them to recipients\\ound"
      }
    },
    "notice": "Main entry point for senior LPs (a.k.a. capital providers)  Automatically invests across borrower pools using an adjustable strategy.",
    "version": 1
  },
  "storageLayout": {
    "storage": [
      {
        "astId": 28820,
        "contract": "contracts/protocol/pool/Pool.sol:Pool",
        "label": "_poolStorage",
        "offset": 0,
        "slot": "0",
        "type": "t_struct(Storage)15434_storage"
      },
      {
        "astId": 759,
        "contract": "contracts/protocol/pool/Pool.sol:Pool",
        "label": "_initialized",
        "offset": 0,
        "slot": "46",
        "type": "t_uint8"
      },
      {
        "astId": 762,
        "contract": "contracts/protocol/pool/Pool.sol:Pool",
        "label": "_initializing",
        "offset": 1,
        "slot": "46",
        "type": "t_bool"
      },
      {
        "astId": 5888,
        "contract": "contracts/protocol/pool/Pool.sol:Pool",
        "label": "__gap",
        "offset": 0,
        "slot": "47",
        "type": "t_array(t_uint256)50_storage"
      },
      {
        "astId": 942,
        "contract": "contracts/protocol/pool/Pool.sol:Pool",
        "label": "_paused",
        "offset": 0,
        "slot": "97",
        "type": "t_bool"
      },
      {
        "astId": 1047,
        "contract": "contracts/protocol/pool/Pool.sol:Pool",
        "label": "__gap",
        "offset": 0,
        "slot": "98",
        "type": "t_array(t_uint256)49_storage"
      },
      {
        "astId": 1062,
        "contract": "contracts/protocol/pool/Pool.sol:Pool",
        "label": "_status",
        "offset": 0,
        "slot": "147",
        "type": "t_uint256"
      },
      {
        "astId": 1131,
        "contract": "contracts/protocol/pool/Pool.sol:Pool",
        "label": "__gap",
        "offset": 0,
        "slot": "148",
        "type": "t_array(t_uint256)49_storage"
      },
      {
        "astId": 7178,
        "contract": "contracts/protocol/pool/Pool.sol:Pool",
        "label": "__gap",
        "offset": 0,
        "slot": "197",
        "type": "t_array(t_uint256)50_storage"
      },
      {
        "astId": 184,
        "contract": "contracts/protocol/pool/Pool.sol:Pool",
        "label": "_roles",
        "offset": 0,
        "slot": "247",
        "type": "t_mapping(t_bytes32,t_struct(RoleData)179_storage)"
      },
      {
        "astId": 479,
        "contract": "contracts/protocol/pool/Pool.sol:Pool",
        "label": "__gap",
        "offset": 0,
        "slot": "248",
        "type": "t_array(t_uint256)49_storage"
      },
      {
        "astId": 33,
        "contract": "contracts/protocol/pool/Pool.sol:Pool",
        "label": "_roleMembers",
        "offset": 0,
        "slot": "297",
        "type": "t_mapping(t_bytes32,t_struct(AddressSet)8488_storage)"
      },
      {
        "astId": 143,
        "contract": "contracts/protocol/pool/Pool.sol:Pool",
        "label": "__gap",
        "offset": 0,
        "slot": "298",
        "type": "t_array(t_uint256)49_storage"
      },
      {
        "astId": 12741,
        "contract": "contracts/protocol/pool/Pool.sol:Pool",
        "label": "__gap",
        "offset": 0,
        "slot": "347",
        "type": "t_array(t_uint256)50_storage"
      },
      {
        "astId": 27148,
        "contract": "contracts/protocol/pool/Pool.sol:Pool",
        "label": "registry",
        "offset": 0,
        "slot": "397",
        "type": "t_contract(Registry)31579"
      }
    ],
    "types": {
      "t_address": {
        "encoding": "inplace",
        "label": "address",
        "numberOfBytes": "20"
      },
      "t_array(t_address)dyn_storage": {
        "base": "t_address",
        "encoding": "dynamic_array",
        "label": "address[]",
        "numberOfBytes": "32"
      },
      "t_array(t_bytes32)dyn_storage": {
        "base": "t_bytes32",
        "encoding": "dynamic_array",
        "label": "bytes32[]",
        "numberOfBytes": "32"
      },
      "t_array(t_struct(NFTAsset)15216_storage)dyn_storage": {
        "base": "t_struct(NFTAsset)15216_storage",
        "encoding": "dynamic_array",
        "label": "struct DataTypes.NFTAsset[]",
        "numberOfBytes": "32"
      },
      "t_array(t_struct(RiskScore)15193_storage)dyn_storage": {
        "base": "t_struct(RiskScore)15193_storage",
        "encoding": "dynamic_array",
        "label": "struct DataTypes.RiskScore[]",
        "numberOfBytes": "32"
      },
      "t_array(t_struct(WriteOffGroup)15287_storage)dyn_storage": {
        "base": "t_struct(WriteOffGroup)15287_storage",
        "encoding": "dynamic_array",
        "label": "struct DataTypes.WriteOffGroup[]",
        "numberOfBytes": "32"
      },
      "t_array(t_uint256)49_storage": {
        "base": "t_uint256",
        "encoding": "inplace",
        "label": "uint256[49]",
        "numberOfBytes": "1568"
      },
      "t_array(t_uint256)50_storage": {
        "base": "t_uint256",
        "encoding": "inplace",
        "label": "uint256[50]",
        "numberOfBytes": "1600"
      },
      "t_bool": {
        "encoding": "inplace",
        "label": "bool",
        "numberOfBytes": "1"
      },
      "t_bytes32": {
        "encoding": "inplace",
        "label": "bytes32",
        "numberOfBytes": "32"
      },
      "t_contract(Registry)31579": {
        "encoding": "inplace",
        "label": "contract Registry",
        "numberOfBytes": "20"
      },
      "t_enum(ASSET_PURPOSE)15082": {
        "encoding": "inplace",
        "label": "enum Configuration.ASSET_PURPOSE",
        "numberOfBytes": "1"
      },
      "t_enum(AmortizationUnitType)15963": {
        "encoding": "inplace",
        "label": "enum UnpackLoanParamtersLib.AmortizationUnitType",
        "numberOfBytes": "1"
      },
      "t_enum(CycleState)15161": {
        "encoding": "inplace",
        "label": "enum DataTypes.CycleState",
        "numberOfBytes": "1"
      },
      "t_mapping(t_address,t_bool)": {
        "encoding": "mapping",
        "key": "t_address",
        "label": "mapping(address => bool)",
        "numberOfBytes": "32",
        "value": "t_bool"
      },
      "t_mapping(t_address,t_mapping(t_address,t_uint256))": {
        "encoding": "mapping",
        "key": "t_address",
        "label": "mapping(address => mapping(address => uint256))",
        "numberOfBytes": "32",
        "value": "t_mapping(t_address,t_uint256)"
      },
      "t_mapping(t_address,t_uint256)": {
        "encoding": "mapping",
        "key": "t_address",
        "label": "mapping(address => uint256)",
        "numberOfBytes": "32",
        "value": "t_uint256"
      },
      "t_mapping(t_bytes32,t_struct(AddressSet)8488_storage)": {
        "encoding": "mapping",
        "key": "t_bytes32",
        "label": "mapping(bytes32 => struct EnumerableSetUpgradeable.AddressSet)",
        "numberOfBytes": "32",
        "value": "t_struct(AddressSet)8488_storage"
      },
      "t_mapping(t_bytes32,t_struct(NFTDetails)15260_storage)": {
        "encoding": "mapping",
        "key": "t_bytes32",
        "label": "mapping(bytes32 => struct DataTypes.NFTDetails)",
        "numberOfBytes": "32",
        "value": "t_struct(NFTDetails)15260_storage"
      },
      "t_mapping(t_bytes32,t_struct(RoleData)179_storage)": {
        "encoding": "mapping",
        "key": "t_bytes32",
        "label": "mapping(bytes32 => struct AccessControlUpgradeable.RoleData)",
        "numberOfBytes": "32",
        "value": "t_struct(RoleData)179_storage"
      },
      "t_mapping(t_bytes32,t_uint256)": {
        "encoding": "mapping",
        "key": "t_bytes32",
        "label": "mapping(bytes32 => uint256)",
        "numberOfBytes": "32",
        "value": "t_uint256"
      },
      "t_mapping(t_uint256,t_bytes32)": {
        "encoding": "mapping",
        "key": "t_uint256",
        "label": "mapping(uint256 => bytes32)",
        "numberOfBytes": "32",
        "value": "t_bytes32"
      },
      "t_mapping(t_uint256,t_struct(LoanDetails)15280_storage)": {
        "encoding": "mapping",
        "key": "t_uint256",
        "label": "mapping(uint256 => struct DataTypes.LoanDetails)",
        "numberOfBytes": "32",
        "value": "t_struct(LoanDetails)15280_storage"
      },
      "t_mapping(t_uint256,t_struct(Rate)15275_storage)": {
        "encoding": "mapping",
        "key": "t_uint256",
        "label": "mapping(uint256 => struct DataTypes.Rate)",
        "numberOfBytes": "32",
        "value": "t_struct(Rate)15275_storage"
      },
      "t_mapping(t_uint256,t_uint256)": {
        "encoding": "mapping",
        "key": "t_uint256",
        "label": "mapping(uint256 => uint256)",
        "numberOfBytes": "32",
        "value": "t_uint256"
      },
      "t_struct(AddressSet)8488_storage": {
        "encoding": "inplace",
        "label": "struct EnumerableSetUpgradeable.AddressSet",
        "members": [
          {
            "astId": 8487,
            "contract": "contracts/protocol/pool/Pool.sol:Pool",
            "label": "_inner",
            "offset": 0,
            "slot": "0",
            "type": "t_struct(Set)8173_storage"
          }
        ],
        "numberOfBytes": "64"
      },
      "t_struct(LoanDetails)15280_storage": {
        "encoding": "inplace",
        "label": "struct DataTypes.LoanDetails",
        "members": [
          {
            "astId": 15277,
            "contract": "contracts/protocol/pool/Pool.sol:Pool",
            "label": "borrowed",
            "offset": 0,
            "slot": "0",
            "type": "t_uint128"
          },
          {
            "astId": 15279,
            "contract": "contracts/protocol/pool/Pool.sol:Pool",
            "label": "authWriteOff",
            "offset": 16,
            "slot": "0",
            "type": "t_bool"
          }
        ],
        "numberOfBytes": "32"
      },
      "t_struct(NFTAsset)15216_storage": {
        "encoding": "inplace",
        "label": "struct DataTypes.NFTAsset",
        "members": [
          {
            "astId": 15213,
            "contract": "contracts/protocol/pool/Pool.sol:Pool",
            "label": "tokenAddress",
            "offset": 0,
            "slot": "0",
            "type": "t_address"
          },
          {
            "astId": 15215,
            "contract": "contracts/protocol/pool/Pool.sol:Pool",
            "label": "tokenId",
            "offset": 0,
            "slot": "1",
            "type": "t_uint256"
          }
        ],
        "numberOfBytes": "64"
      },
      "t_struct(NFTDetails)15260_storage": {
        "encoding": "inplace",
        "label": "struct DataTypes.NFTDetails",
        "members": [
          {
            "astId": 15227,
            "contract": "contracts/protocol/pool/Pool.sol:Pool",
            "label": "futureValue",
            "offset": 0,
            "slot": "0",
            "type": "t_uint128"
          },
          {
            "astId": 15229,
            "contract": "contracts/protocol/pool/Pool.sol:Pool",
            "label": "maturityDate",
            "offset": 16,
            "slot": "0",
            "type": "t_uint128"
          },
          {
            "astId": 15231,
            "contract": "contracts/protocol/pool/Pool.sol:Pool",
            "label": "risk",
            "offset": 0,
            "slot": "1",
            "type": "t_uint128"
          },
          {
            "astId": 15233,
            "contract": "contracts/protocol/pool/Pool.sol:Pool",
            "label": "debtor",
            "offset": 0,
            "slot": "2",
            "type": "t_address"
          },
          {
            "astId": 15235,
            "contract": "contracts/protocol/pool/Pool.sol:Pool",
            "label": "principalTokenAddress",
            "offset": 0,
            "slot": "3",
            "type": "t_address"
          },
          {
            "astId": 15237,
            "contract": "contracts/protocol/pool/Pool.sol:Pool",
            "label": "salt",
            "offset": 0,
            "slot": "4",
            "type": "t_uint256"
          },
          {
            "astId": 15239,
            "contract": "contracts/protocol/pool/Pool.sol:Pool",
            "label": "issuanceBlockTimestamp",
            "offset": 0,
            "slot": "5",
            "type": "t_uint256"
          },
          {
            "astId": 15241,
            "contract": "contracts/protocol/pool/Pool.sol:Pool",
            "label": "expirationTimestamp",
            "offset": 0,
            "slot": "6",
            "type": "t_uint256"
          },
          {
            "astId": 15244,
            "contract": "contracts/protocol/pool/Pool.sol:Pool",
            "label": "assetPurpose",
            "offset": 0,
            "slot": "7",
            "type": "t_enum(ASSET_PURPOSE)15082"
          },
          {
            "astId": 15246,
            "contract": "contracts/protocol/pool/Pool.sol:Pool",
            "label": "termsParam",
            "offset": 0,
            "slot": "8",
            "type": "t_bytes32"
          },
          {
            "astId": 15248,
            "contract": "contracts/protocol/pool/Pool.sol:Pool",
            "label": "principalAmount",
            "offset": 0,
            "slot": "9",
            "type": "t_uint256"
          },
          {
            "astId": 15250,
            "contract": "contracts/protocol/pool/Pool.sol:Pool",
            "label": "termStartUnixTimestamp",
            "offset": 0,
            "slot": "10",
            "type": "t_uint256"
          },
          {
            "astId": 15252,
            "contract": "contracts/protocol/pool/Pool.sol:Pool",
            "label": "termEndUnixTimestamp",
            "offset": 0,
            "slot": "11",
            "type": "t_uint256"
          },
          {
            "astId": 15255,
            "contract": "contracts/protocol/pool/Pool.sol:Pool",
            "label": "amortizationUnitType",
            "offset": 0,
            "slot": "12",
            "type": "t_enum(AmortizationUnitType)15963"
          },
          {
            "astId": 15257,
            "contract": "contracts/protocol/pool/Pool.sol:Pool",
            "label": "termLengthInAmortizationUnits",
            "offset": 0,
            "slot": "13",
            "type": "t_uint256"
          },
          {
            "astId": 15259,
            "contract": "contracts/protocol/pool/Pool.sol:Pool",
            "label": "interestRate",
            "offset": 0,
            "slot": "14",
            "type": "t_uint256"
          }
        ],
        "numberOfBytes": "480"
      },
      "t_struct(Rate)15275_storage": {
        "encoding": "inplace",
        "label": "struct DataTypes.Rate",
        "members": [
          {
            "astId": 15262,
            "contract": "contracts/protocol/pool/Pool.sol:Pool",
            "label": "pie",
            "offset": 0,
            "slot": "0",
            "type": "t_uint256"
          },
          {
            "astId": 15264,
            "contract": "contracts/protocol/pool/Pool.sol:Pool",
            "label": "chi",
            "offset": 0,
            "slot": "1",
            "type": "t_uint256"
          },
          {
            "astId": 15266,
            "contract": "contracts/protocol/pool/Pool.sol:Pool",
            "label": "ratePerSecond",
            "offset": 0,
            "slot": "2",
            "type": "t_uint256"
          },
          {
            "astId": 15268,
            "contract": "contracts/protocol/pool/Pool.sol:Pool",
            "label": "penaltyRatePerSecond",
            "offset": 0,
            "slot": "3",
            "type": "t_uint256"
          },
          {
            "astId": 15270,
            "contract": "contracts/protocol/pool/Pool.sol:Pool",
            "label": "penaltyChi",
            "offset": 0,
            "slot": "4",
            "type": "t_uint256"
          },
          {
            "astId": 15272,
            "contract": "contracts/protocol/pool/Pool.sol:Pool",
            "label": "lastUpdated",
            "offset": 0,
            "slot": "5",
            "type": "t_uint48"
          },
          {
            "astId": 15274,
            "contract": "contracts/protocol/pool/Pool.sol:Pool",
            "label": "timeStartPenalty",
            "offset": 6,
            "slot": "5",
            "type": "t_uint48"
          }
        ],
        "numberOfBytes": "192"
      },
      "t_struct(RiskScore)15193_storage": {
        "encoding": "inplace",
        "label": "struct DataTypes.RiskScore",
        "members": [
          {
            "astId": 15172,
            "contract": "contracts/protocol/pool/Pool.sol:Pool",
            "label": "daysPastDue",
            "offset": 0,
            "slot": "0",
            "type": "t_uint32"
          },
          {
            "astId": 15174,
            "contract": "contracts/protocol/pool/Pool.sol:Pool",
            "label": "advanceRate",
            "offset": 4,
            "slot": "0",
            "type": "t_uint32"
          },
          {
            "astId": 15176,
            "contract": "contracts/protocol/pool/Pool.sol:Pool",
            "label": "penaltyRate",
            "offset": 8,
            "slot": "0",
            "type": "t_uint32"
          },
          {
            "astId": 15178,
            "contract": "contracts/protocol/pool/Pool.sol:Pool",
            "label": "interestRate",
            "offset": 12,
            "slot": "0",
            "type": "t_uint32"
          },
          {
            "astId": 15180,
            "contract": "contracts/protocol/pool/Pool.sol:Pool",
            "label": "probabilityOfDefault",
            "offset": 16,
            "slot": "0",
            "type": "t_uint32"
          },
          {
            "astId": 15182,
            "contract": "contracts/protocol/pool/Pool.sol:Pool",
            "label": "lossGivenDefault",
            "offset": 20,
            "slot": "0",
            "type": "t_uint32"
          },
          {
            "astId": 15184,
            "contract": "contracts/protocol/pool/Pool.sol:Pool",
            "label": "writeOffAfterGracePeriod",
            "offset": 24,
            "slot": "0",
            "type": "t_uint32"
          },
          {
            "astId": 15186,
            "contract": "contracts/protocol/pool/Pool.sol:Pool",
            "label": "gracePeriod",
            "offset": 28,
            "slot": "0",
            "type": "t_uint32"
          },
          {
            "astId": 15188,
            "contract": "contracts/protocol/pool/Pool.sol:Pool",
            "label": "collectionPeriod",
            "offset": 0,
            "slot": "1",
            "type": "t_uint32"
          },
          {
            "astId": 15190,
            "contract": "contracts/protocol/pool/Pool.sol:Pool",
            "label": "writeOffAfterCollectionPeriod",
            "offset": 4,
            "slot": "1",
            "type": "t_uint32"
          },
          {
            "astId": 15192,
            "contract": "contracts/protocol/pool/Pool.sol:Pool",
            "label": "discountRate",
            "offset": 8,
            "slot": "1",
            "type": "t_uint32"
          }
        ],
        "numberOfBytes": "64"
      },
      "t_struct(RoleData)179_storage": {
        "encoding": "inplace",
        "label": "struct AccessControlUpgradeable.RoleData",
        "members": [
          {
            "astId": 176,
            "contract": "contracts/protocol/pool/Pool.sol:Pool",
            "label": "members",
            "offset": 0,
            "slot": "0",
            "type": "t_mapping(t_address,t_bool)"
          },
          {
            "astId": 178,
            "contract": "contracts/protocol/pool/Pool.sol:Pool",
            "label": "adminRole",
            "offset": 0,
            "slot": "1",
            "type": "t_bytes32"
          }
        ],
        "numberOfBytes": "64"
      },
      "t_struct(Set)8173_storage": {
        "encoding": "inplace",
        "label": "struct EnumerableSetUpgradeable.Set",
        "members": [
          {
            "astId": 8168,
            "contract": "contracts/protocol/pool/Pool.sol:Pool",
            "label": "_values",
            "offset": 0,
            "slot": "0",
            "type": "t_array(t_bytes32)dyn_storage"
          },
          {
            "astId": 8172,
            "contract": "contracts/protocol/pool/Pool.sol:Pool",
            "label": "_indexes",
            "offset": 0,
            "slot": "1",
            "type": "t_mapping(t_bytes32,t_uint256)"
          }
        ],
        "numberOfBytes": "64"
      },
      "t_struct(Storage)15434_storage": {
        "encoding": "inplace",
        "label": "struct DataTypes.Storage",
        "members": [
          {
            "astId": 15289,
            "contract": "contracts/protocol/pool/Pool.sol:Pool",
            "label": "validatorRequired",
            "offset": 0,
            "slot": "0",
            "type": "t_bool"
          },
          {
            "astId": 15291,
            "contract": "contracts/protocol/pool/Pool.sol:Pool",
            "label": "firstAssetTimestamp",
            "offset": 1,
            "slot": "0",
            "type": "t_uint64"
          },
          {
            "astId": 15295,
            "contract": "contracts/protocol/pool/Pool.sol:Pool",
            "label": "riskScores",
            "offset": 0,
            "slot": "1",
            "type": "t_array(t_struct(RiskScore)15193_storage)dyn_storage"
          },
          {
            "astId": 15299,
            "contract": "contracts/protocol/pool/Pool.sol:Pool",
            "label": "nftAssets",
            "offset": 0,
            "slot": "2",
            "type": "t_array(t_struct(NFTAsset)15216_storage)dyn_storage"
          },
          {
            "astId": 15302,
            "contract": "contracts/protocol/pool/Pool.sol:Pool",
            "label": "tokenAssetAddresses",
            "offset": 0,
            "slot": "3",
            "type": "t_array(t_address)dyn_storage"
          },
          {
            "astId": 15306,
            "contract": "contracts/protocol/pool/Pool.sol:Pool",
            "label": "existsTokenAssetAddress",
            "offset": 0,
            "slot": "4",
            "type": "t_mapping(t_address,t_bool)"
          },
          {
            "astId": 15308,
            "contract": "contracts/protocol/pool/Pool.sol:Pool",
            "label": "tgeAddress",
            "offset": 0,
            "slot": "5",
            "type": "t_address"
          },
          {
            "astId": 15310,
            "contract": "contracts/protocol/pool/Pool.sol:Pool",
            "label": "secondTGEAddress",
            "offset": 0,
            "slot": "6",
            "type": "t_address"
          },
          {
            "astId": 15312,
            "contract": "contracts/protocol/pool/Pool.sol:Pool",
            "label": "sotToken",
            "offset": 0,
            "slot": "7",
            "type": "t_address"
          },
          {
            "astId": 15314,
            "contract": "contracts/protocol/pool/Pool.sol:Pool",
            "label": "jotToken",
            "offset": 0,
            "slot": "8",
            "type": "t_address"
          },
          {
            "astId": 15316,
            "contract": "contracts/protocol/pool/Pool.sol:Pool",
            "label": "underlyingCurrency",
            "offset": 0,
            "slot": "9",
            "type": "t_address"
          },
          {
            "astId": 15318,
            "contract": "contracts/protocol/pool/Pool.sol:Pool",
            "label": "reserve",
            "offset": 0,
            "slot": "10",
            "type": "t_uint256"
          },
          {
            "astId": 15320,
            "contract": "contracts/protocol/pool/Pool.sol:Pool",
            "label": "minFirstLossCushion",
            "offset": 0,
            "slot": "11",
            "type": "t_uint32"
          },
          {
            "astId": 15322,
            "contract": "contracts/protocol/pool/Pool.sol:Pool",
            "label": "openingBlockTimestamp",
            "offset": 4,
            "slot": "11",
            "type": "t_uint64"
          },
          {
            "astId": 15324,
            "contract": "contracts/protocol/pool/Pool.sol:Pool",
            "label": "pot",
            "offset": 12,
            "slot": "11",
            "type": "t_address"
          },
          {
            "astId": 15326,
            "contract": "contracts/protocol/pool/Pool.sol:Pool",
            "label": "paidPrincipalAmountSOT",
            "offset": 0,
            "slot": "12",
            "type": "t_uint256"
          },
          {
            "astId": 15328,
            "contract": "contracts/protocol/pool/Pool.sol:Pool",
            "label": "interestRateSOT",
            "offset": 0,
            "slot": "13",
            "type": "t_uint32"
          },
          {
            "astId": 15330,
            "contract": "contracts/protocol/pool/Pool.sol:Pool",
            "label": "totalAssetRepaidCurrency",
            "offset": 0,
            "slot": "14",
            "type": "t_uint256"
          },
          {
            "astId": 15334,
            "contract": "contracts/protocol/pool/Pool.sol:Pool",
            "label": "paidPrincipalAmountSOTByInvestor",
            "offset": 0,
            "slot": "15",
            "type": "t_mapping(t_address,t_uint256)"
          },
          {
            "astId": 15336,
            "contract": "contracts/protocol/pool/Pool.sol:Pool",
            "label": "debtCeiling",
            "offset": 0,
            "slot": "16",
            "type": "t_uint256"
          },
          {
            "astId": 15339,
            "contract": "contracts/protocol/pool/Pool.sol:Pool",
            "label": "state",
            "offset": 0,
            "slot": "17",
            "type": "t_enum(CycleState)15161"
          },
          {
            "astId": 15345,
            "contract": "contracts/protocol/pool/Pool.sol:Pool",
            "label": "lockedDistributeBalances",
            "offset": 0,
            "slot": "18",
            "type": "t_mapping(t_address,t_mapping(t_address,t_uint256))"
          },
          {
            "astId": 15347,
            "contract": "contracts/protocol/pool/Pool.sol:Pool",
            "label": "totalLockedDistributeBalance",
            "offset": 0,
            "slot": "19",
            "type": "t_uint256"
          },
          {
            "astId": 15353,
            "contract": "contracts/protocol/pool/Pool.sol:Pool",
            "label": "lockedRedeemBalances",
            "offset": 0,
            "slot": "20",
            "type": "t_mapping(t_address,t_mapping(t_address,t_uint256))"
          },
          {
            "astId": 15357,
            "contract": "contracts/protocol/pool/Pool.sol:Pool",
            "label": "totalLockedRedeemBalances",
            "offset": 0,
            "slot": "21",
            "type": "t_mapping(t_address,t_uint256)"
          },
          {
            "astId": 15359,
            "contract": "contracts/protocol/pool/Pool.sol:Pool",
            "label": "totalRedeemedCurrency",
            "offset": 0,
            "slot": "22",
            "type": "t_uint256"
          },
          {
            "astId": 15365,
            "contract": "contracts/protocol/pool/Pool.sol:Pool",
            "label": "rates",
            "offset": 0,
            "slot": "23",
            "type": "t_mapping(t_uint256,t_struct(Rate)15275_storage)"
          },
          {
            "astId": 15369,
            "contract": "contracts/protocol/pool/Pool.sol:Pool",
            "label": "pie",
            "offset": 0,
            "slot": "24",
            "type": "t_mapping(t_uint256,t_uint256)"
          },
          {
            "astId": 15374,
            "contract": "contracts/protocol/pool/Pool.sol:Pool",
            "label": "loanRates",
            "offset": 0,
            "slot": "25",
            "type": "t_mapping(t_uint256,t_uint256)"
          },
          {
            "astId": 15377,
            "contract": "contracts/protocol/pool/Pool.sol:Pool",
            "label": "loanCount",
            "offset": 0,
            "slot": "26",
            "type": "t_uint256"
          },
          {
            "astId": 15381,
            "contract": "contracts/protocol/pool/Pool.sol:Pool",
            "label": "balances",
            "offset": 0,
            "slot": "27",
            "type": "t_mapping(t_uint256,t_uint256)"
          },
          {
            "astId": 15383,
            "contract": "contracts/protocol/pool/Pool.sol:Pool",
            "label": "balance",
            "offset": 0,
            "slot": "28",
            "type": "t_uint256"
          },
          {
            "astId": 15388,
            "contract": "contracts/protocol/pool/Pool.sol:Pool",
            "label": "details",
            "offset": 0,
            "slot": "29",
            "type": "t_mapping(t_bytes32,t_struct(NFTDetails)15260_storage)"
          },
          {
            "astId": 15393,
            "contract": "contracts/protocol/pool/Pool.sol:Pool",
            "label": "loanDetails",
            "offset": 0,
            "slot": "30",
            "type": "t_mapping(t_uint256,t_struct(LoanDetails)15280_storage)"
          },
          {
            "astId": 15397,
            "contract": "contracts/protocol/pool/Pool.sol:Pool",
            "label": "buckets",
            "offset": 0,
            "slot": "31",
            "type": "t_mapping(t_uint256,t_uint256)"
          },
          {
            "astId": 15401,
            "contract": "contracts/protocol/pool/Pool.sol:Pool",
            "label": "writeOffGroups",
            "offset": 0,
            "slot": "32",
            "type": "t_array(t_struct(WriteOffGroup)15287_storage)dyn_storage"
          },
          {
            "astId": 15403,
            "contract": "contracts/protocol/pool/Pool.sol:Pool",
            "label": "discountRate",
            "offset": 0,
            "slot": "33",
            "type": "t_uint256"
          },
          {
            "astId": 15405,
            "contract": "contracts/protocol/pool/Pool.sol:Pool",
            "label": "latestNAV",
            "offset": 0,
            "slot": "34",
            "type": "t_uint256"
          },
          {
            "astId": 15407,
            "contract": "contracts/protocol/pool/Pool.sol:Pool",
            "label": "latestDiscount",
            "offset": 0,
            "slot": "35",
            "type": "t_uint256"
          },
          {
            "astId": 15409,
            "contract": "contracts/protocol/pool/Pool.sol:Pool",
            "label": "lastNAVUpdate",
            "offset": 0,
            "slot": "36",
            "type": "t_uint256"
          },
          {
            "astId": 15411,
            "contract": "contracts/protocol/pool/Pool.sol:Pool",
            "label": "overdueLoans",
            "offset": 0,
            "slot": "37",
            "type": "t_uint256"
          },
          {
            "astId": 15415,
            "contract": "contracts/protocol/pool/Pool.sol:Pool",
            "label": "latestDiscountOfNavAssets",
            "offset": 0,
            "slot": "38",
            "type": "t_mapping(t_bytes32,t_uint256)"
          },
          {
            "astId": 15419,
            "contract": "contracts/protocol/pool/Pool.sol:Pool",
            "label": "overdueLoansOfNavAssets",
            "offset": 0,
            "slot": "39",
            "type": "t_mapping(t_bytes32,t_uint256)"
          },
          {
            "astId": 15423,
            "contract": "contracts/protocol/pool/Pool.sol:Pool",
            "label": "loanToNFT",
            "offset": 0,
            "slot": "40",
            "type": "t_mapping(t_uint256,t_bytes32)"
          },
          {
            "astId": 15425,
            "contract": "contracts/protocol/pool/Pool.sol:Pool",
            "label": "totalPrincipalRepaid",
            "offset": 0,
            "slot": "41",
            "type": "t_uint256"
          },
          {
            "astId": 15427,
            "contract": "contracts/protocol/pool/Pool.sol:Pool",
            "label": "totalInterestRepaid",
            "offset": 0,
            "slot": "42",
            "type": "t_uint256"
          },
          {
            "astId": 15429,
            "contract": "contracts/protocol/pool/Pool.sol:Pool",
            "label": "seniorDebt",
            "offset": 0,
            "slot": "43",
            "type": "t_uint256"
          },
          {
            "astId": 15431,
            "contract": "contracts/protocol/pool/Pool.sol:Pool",
            "label": "seniorBalance",
            "offset": 0,
            "slot": "44",
            "type": "t_uint256"
          },
          {
            "astId": 15433,
            "contract": "contracts/protocol/pool/Pool.sol:Pool",
            "label": "lastUpdateSeniorInterest",
            "offset": 0,
            "slot": "45",
            "type": "t_uint64"
          }
        ],
        "numberOfBytes": "1472"
      },
      "t_struct(WriteOffGroup)15287_storage": {
        "encoding": "inplace",
        "label": "struct DataTypes.WriteOffGroup",
        "members": [
          {
            "astId": 15282,
            "contract": "contracts/protocol/pool/Pool.sol:Pool",
            "label": "percentage",
            "offset": 0,
            "slot": "0",
            "type": "t_uint128"
          },
          {
            "astId": 15284,
            "contract": "contracts/protocol/pool/Pool.sol:Pool",
            "label": "overdueDays",
            "offset": 16,
            "slot": "0",
            "type": "t_uint128"
          },
          {
            "astId": 15286,
            "contract": "contracts/protocol/pool/Pool.sol:Pool",
            "label": "riskIndex",
            "offset": 0,
            "slot": "1",
            "type": "t_uint128"
          }
        ],
        "numberOfBytes": "64"
      },
      "t_uint128": {
        "encoding": "inplace",
        "label": "uint128",
        "numberOfBytes": "16"
      },
      "t_uint256": {
        "encoding": "inplace",
        "label": "uint256",
        "numberOfBytes": "32"
      },
      "t_uint32": {
        "encoding": "inplace",
        "label": "uint32",
        "numberOfBytes": "4"
      },
      "t_uint48": {
        "encoding": "inplace",
        "label": "uint48",
        "numberOfBytes": "6"
      },
      "t_uint64": {
        "encoding": "inplace",
        "label": "uint64",
        "numberOfBytes": "8"
      },
      "t_uint8": {
        "encoding": "inplace",
        "label": "uint8",
        "numberOfBytes": "1"
      }
    }
  }
}