{
  "address": "0x3a79589B730cdE2BA2A78800211f0f9Ab3EaF117",
  "abi": [
    {
      "anonymous": false,
      "inputs": [
        {
          "indexed": false,
          "internalType": "uint8",
          "name": "version",
          "type": "uint8"
        }
      ],
      "name": "Initialized",
      "type": "event"
    },
    {
      "anonymous": false,
      "inputs": [
        {
          "indexed": false,
          "internalType": "address",
          "name": "account",
          "type": "address"
        }
      ],
      "name": "Paused",
      "type": "event"
    },
    {
      "anonymous": false,
      "inputs": [
        {
          "indexed": true,
          "internalType": "bytes32",
          "name": "role",
          "type": "bytes32"
        },
        {
          "indexed": true,
          "internalType": "bytes32",
          "name": "previousAdminRole",
          "type": "bytes32"
        },
        {
          "indexed": true,
          "internalType": "bytes32",
          "name": "newAdminRole",
          "type": "bytes32"
        }
      ],
      "name": "RoleAdminChanged",
      "type": "event"
    },
    {
      "anonymous": false,
      "inputs": [
        {
          "indexed": true,
          "internalType": "bytes32",
          "name": "role",
          "type": "bytes32"
        },
        {
          "indexed": true,
          "internalType": "address",
          "name": "account",
          "type": "address"
        },
        {
          "indexed": true,
          "internalType": "address",
          "name": "sender",
          "type": "address"
        }
      ],
      "name": "RoleGranted",
      "type": "event"
    },
    {
      "anonymous": false,
      "inputs": [
        {
          "indexed": true,
          "internalType": "bytes32",
          "name": "role",
          "type": "bytes32"
        },
        {
          "indexed": true,
          "internalType": "address",
          "name": "account",
          "type": "address"
        },
        {
          "indexed": true,
          "internalType": "address",
          "name": "sender",
          "type": "address"
        }
      ],
      "name": "RoleRevoked",
      "type": "event"
    },
    {
      "anonymous": false,
      "inputs": [
        {
          "indexed": false,
          "internalType": "address",
          "name": "account",
          "type": "address"
        }
      ],
      "name": "Unpaused",
      "type": "event"
    },
    {
      "inputs": [],
      "name": "BACKEND_ADMIN",
      "outputs": [
        {
          "internalType": "bytes32",
          "name": "",
          "type": "bytes32"
        }
      ],
      "stateMutability": "view",
      "type": "function"
    },
    {
      "inputs": [],
      "name": "DAY_LENGTH_IN_SECONDS",
      "outputs": [
        {
          "internalType": "uint256",
          "name": "",
          "type": "uint256"
        }
      ],
      "stateMutability": "view",
      "type": "function"
    },
    {
      "inputs": [],
      "name": "DEFAULT_ADMIN_ROLE",
      "outputs": [
        {
          "internalType": "bytes32",
          "name": "",
          "type": "bytes32"
        }
      ],
      "stateMutability": "view",
      "type": "function"
    },
    {
      "inputs": [],
      "name": "HOUR_LENGTH_IN_SECONDS",
      "outputs": [
        {
          "internalType": "uint256",
          "name": "",
          "type": "uint256"
        }
      ],
      "stateMutability": "view",
      "type": "function"
    },
    {
      "inputs": [],
      "name": "MINUTE_LENGTH_IN_SECONDS",
      "outputs": [
        {
          "internalType": "uint256",
          "name": "",
          "type": "uint256"
        }
      ],
      "stateMutability": "view",
      "type": "function"
    },
    {
      "inputs": [],
      "name": "ORIGINATOR_ROLE",
      "outputs": [
        {
          "internalType": "bytes32",
          "name": "",
          "type": "bytes32"
        }
      ],
      "stateMutability": "view",
      "type": "function"
    },
    {
      "inputs": [],
      "name": "OWNER_ROLE",
      "outputs": [
        {
          "internalType": "bytes32",
          "name": "",
          "type": "bytes32"
        }
      ],
      "stateMutability": "view",
      "type": "function"
    },
    {
      "inputs": [],
      "name": "POOL_ADMIN_ROLE",
      "outputs": [
        {
          "internalType": "bytes32",
          "name": "",
          "type": "bytes32"
        }
      ],
      "stateMutability": "view",
      "type": "function"
    },
    {
      "inputs": [],
      "name": "RATE_SCALING_FACTOR",
      "outputs": [
        {
          "internalType": "uint256",
          "name": "",
          "type": "uint256"
        }
      ],
      "stateMutability": "view",
      "type": "function"
    },
    {
      "inputs": [],
      "name": "SIGNER_ROLE",
      "outputs": [
        {
          "internalType": "bytes32",
          "name": "",
          "type": "bytes32"
        }
      ],
      "stateMutability": "view",
      "type": "function"
    },
    {
      "inputs": [],
      "name": "SUPER_ADMIN",
      "outputs": [
        {
          "internalType": "bytes32",
          "name": "",
          "type": "bytes32"
        }
      ],
      "stateMutability": "view",
      "type": "function"
    },
    {
      "inputs": [],
      "name": "YEAR_LENGTH_IN_DAYS",
      "outputs": [
        {
          "internalType": "uint256",
          "name": "",
          "type": "uint256"
        }
      ],
      "stateMutability": "view",
      "type": "function"
    },
    {
      "inputs": [],
      "name": "YEAR_LENGTH_IN_SECONDS",
      "outputs": [
        {
          "internalType": "uint256",
          "name": "",
          "type": "uint256"
        }
      ],
      "stateMutability": "view",
      "type": "function"
    },
    {
      "inputs": [
        {
          "internalType": "address",
          "name": "tokenAddress",
          "type": "address"
        },
        {
          "internalType": "address[]",
          "name": "investors",
          "type": "address[]"
        }
      ],
      "name": "calcCorrespondingAssetValue",
      "outputs": [
        {
          "internalType": "uint256[]",
          "name": "values",
          "type": "uint256[]"
        }
      ],
      "stateMutability": "view",
      "type": "function"
    },
    {
      "inputs": [
        {
          "internalType": "address",
          "name": "tokenAddress",
          "type": "address"
        },
        {
          "internalType": "address",
          "name": "investor",
          "type": "address"
        }
      ],
      "name": "calcCorrespondingTotalAssetValue",
      "outputs": [
        {
          "internalType": "uint256",
          "name": "",
          "type": "uint256"
        }
      ],
      "stateMutability": "view",
      "type": "function"
    },
    {
      "inputs": [
        {
          "internalType": "address",
          "name": "pool",
          "type": "address"
        },
        {
          "internalType": "address",
          "name": "tokenAddress",
          "type": "address"
        }
      ],
      "name": "calcTokenPrice",
      "outputs": [
        {
          "internalType": "uint256",
          "name": "",
          "type": "uint256"
        }
      ],
      "stateMutability": "view",
      "type": "function"
    },
    {
      "inputs": [
        {
          "internalType": "address",
          "name": "poolAddress",
          "type": "address"
        }
      ],
      "name": "getApprovedReserved",
      "outputs": [
        {
          "internalType": "uint256",
          "name": "approvedReserved",
          "type": "uint256"
        }
      ],
      "stateMutability": "view",
      "type": "function"
    },
    {
      "inputs": [
        {
          "internalType": "address",
          "name": "poolAddress",
          "type": "address"
        },
        {
          "internalType": "bytes32",
          "name": "tokenId",
          "type": "bytes32"
        }
      ],
      "name": "getAssetInterestRate",
      "outputs": [
        {
          "internalType": "uint256",
          "name": "",
          "type": "uint256"
        }
      ],
      "stateMutability": "view",
      "type": "function"
    },
    {
      "inputs": [
        {
          "internalType": "address",
          "name": "poolAddress",
          "type": "address"
        },
        {
          "internalType": "bytes32[]",
          "name": "tokenIds",
          "type": "bytes32[]"
        }
      ],
      "name": "getAssetInterestRates",
      "outputs": [
        {
          "internalType": "uint256[]",
          "name": "",
          "type": "uint256[]"
        }
      ],
      "stateMutability": "view",
      "type": "function"
    },
    {
      "inputs": [
        {
          "internalType": "address",
          "name": "poolAddress",
          "type": "address"
        },
        {
          "internalType": "bytes32[]",
          "name": "tokenIds",
          "type": "bytes32[]"
        }
      ],
      "name": "getAssetRiskScores",
      "outputs": [
        {
          "internalType": "uint256[]",
          "name": "",
          "type": "uint256[]"
        }
      ],
      "stateMutability": "view",
      "type": "function"
    },
    {
      "inputs": [
        {
          "internalType": "address",
          "name": "pool",
          "type": "address"
        }
      ],
      "name": "getCashBalance",
      "outputs": [
        {
          "internalType": "uint256",
          "name": "",
          "type": "uint256"
        }
      ],
      "stateMutability": "view",
      "type": "function"
    },
    {
      "inputs": [
        {
          "internalType": "address",
          "name": "poolAddress",
          "type": "address"
        },
        {
          "internalType": "bytes32[]",
          "name": "tokenIds",
          "type": "bytes32[]"
        }
      ],
      "name": "getDebtAssetValues",
      "outputs": [
        {
          "internalType": "uint256[]",
          "name": "debtAssetsValues",
          "type": "uint256[]"
        }
      ],
      "stateMutability": "view",
      "type": "function"
    },
    {
      "inputs": [
        {
          "internalType": "address",
          "name": "poolAddress",
          "type": "address"
        },
        {
          "internalType": "bytes32",
          "name": "tokenId",
          "type": "bytes32"
        }
      ],
      "name": "getExpectedAssetValue",
      "outputs": [
        {
          "internalType": "uint256",
          "name": "",
          "type": "uint256"
        }
      ],
      "stateMutability": "view",
      "type": "function"
    },
    {
      "inputs": [
        {
          "internalType": "address",
          "name": "poolAddress",
          "type": "address"
        },
        {
          "internalType": "bytes32[]",
          "name": "tokenIds",
          "type": "bytes32[]"
        }
      ],
      "name": "getExpectedAssetValues",
      "outputs": [
        {
          "internalType": "uint256[]",
          "name": "expectedAssetsValues",
          "type": "uint256[]"
        }
      ],
      "stateMutability": "view",
      "type": "function"
    },
    {
      "inputs": [
        {
          "internalType": "address",
          "name": "poolAddress",
          "type": "address"
        }
      ],
      "name": "getExpectedAssetsValue",
      "outputs": [
        {
          "internalType": "uint256",
          "name": "expectedAssetsValue",
          "type": "uint256"
        }
      ],
      "stateMutability": "view",
      "type": "function"
    },
    {
      "inputs": [
        {
          "internalType": "address",
          "name": "poolAddress",
          "type": "address"
        }
      ],
      "name": "getExpectedLATAssetValue",
      "outputs": [
        {
          "internalType": "uint256",
          "name": "",
          "type": "uint256"
        }
      ],
      "stateMutability": "view",
      "type": "function"
    },
    {
      "inputs": [
        {
          "internalType": "address",
          "name": "poolAddress",
          "type": "address"
        }
      ],
      "name": "getExternalTokenInfos",
      "outputs": [
        {
          "components": [
            {
              "internalType": "address",
              "name": "poolAddress",
              "type": "address"
            },
            {
              "internalType": "address",
              "name": "noteTokenAddress",
              "type": "address"
            },
            {
              "internalType": "uint256",
              "name": "balance",
              "type": "uint256"
            },
            {
              "internalType": "uint256",
              "name": "apy",
              "type": "uint256"
            }
          ],
          "internalType": "struct DataTypes.NoteToken[]",
          "name": "noteTokens",
          "type": "tuple[]"
        }
      ],
      "stateMutability": "view",
      "type": "function"
    },
    {
      "inputs": [],
      "name": "getInitializedVersion",
      "outputs": [
        {
          "internalType": "uint256",
          "name": "",
          "type": "uint256"
        }
      ],
      "stateMutability": "view",
      "type": "function"
    },
    {
      "inputs": [
        {
          "internalType": "address",
          "name": "securitizationPool",
          "type": "address"
        }
      ],
      "name": "getJOTTokenPrice",
      "outputs": [
        {
          "internalType": "uint256",
          "name": "",
          "type": "uint256"
        }
      ],
      "stateMutability": "view",
      "type": "function"
    },
    {
      "inputs": [
        {
          "internalType": "address",
          "name": "poolAddress",
          "type": "address"
        }
      ],
      "name": "getJuniorRatio",
      "outputs": [
        {
          "internalType": "uint256",
          "name": "",
          "type": "uint256"
        }
      ],
      "stateMutability": "view",
      "type": "function"
    },
    {
      "inputs": [
        {
          "internalType": "address",
          "name": "poolAddress",
          "type": "address"
        },
        {
          "internalType": "uint256",
          "name": "sotRequest",
          "type": "uint256"
        }
      ],
      "name": "getMaxAvailableReserve",
      "outputs": [
        {
          "internalType": "uint256",
          "name": "",
          "type": "uint256"
        },
        {
          "internalType": "uint256",
          "name": "",
          "type": "uint256"
        },
        {
          "internalType": "uint256",
          "name": "",
          "type": "uint256"
        }
      ],
      "stateMutability": "view",
      "type": "function"
    },
    {
      "inputs": [
        {
          "internalType": "address",
          "name": "poolAddress",
          "type": "address"
        }
      ],
      "name": "getPoolValue",
      "outputs": [
        {
          "internalType": "uint256",
          "name": "",
          "type": "uint256"
        }
      ],
      "stateMutability": "view",
      "type": "function"
    },
    {
      "inputs": [
        {
          "internalType": "bytes32",
          "name": "role",
          "type": "bytes32"
        }
      ],
      "name": "getRoleAdmin",
      "outputs": [
        {
          "internalType": "bytes32",
          "name": "",
          "type": "bytes32"
        }
      ],
      "stateMutability": "view",
      "type": "function"
    },
    {
      "inputs": [
        {
          "internalType": "bytes32",
          "name": "role",
          "type": "bytes32"
        },
        {
          "internalType": "uint256",
          "name": "index",
          "type": "uint256"
        }
      ],
      "name": "getRoleMember",
      "outputs": [
        {
          "internalType": "address",
          "name": "",
          "type": "address"
        }
      ],
      "stateMutability": "view",
      "type": "function"
    },
    {
      "inputs": [
        {
          "internalType": "bytes32",
          "name": "role",
          "type": "bytes32"
        }
      ],
      "name": "getRoleMemberCount",
      "outputs": [
        {
          "internalType": "uint256",
          "name": "",
          "type": "uint256"
        }
      ],
      "stateMutability": "view",
      "type": "function"
    },
    {
      "inputs": [
        {
          "internalType": "address",
          "name": "securitizationPool",
          "type": "address"
        }
      ],
      "name": "getSOTTokenPrice",
      "outputs": [
        {
          "internalType": "uint256",
          "name": "",
          "type": "uint256"
        }
      ],
      "stateMutability": "view",
      "type": "function"
    },
    {
      "inputs": [
        {
          "internalType": "address[]",
          "name": "pools",
          "type": "address[]"
        },
        {
          "internalType": "address[]",
          "name": "tokenAddresses",
          "type": "address[]"
        }
      ],
      "name": "getTokenPrices",
      "outputs": [
        {
          "internalType": "uint256[]",
          "name": "tokenPrices",
          "type": "uint256[]"
        }
      ],
      "stateMutability": "view",
      "type": "function"
    },
    {
      "inputs": [
        {
          "internalType": "address[]",
          "name": "tokenAddresses",
          "type": "address[]"
        },
        {
          "internalType": "address[]",
          "name": "investors",
          "type": "address[]"
        }
      ],
      "name": "getTokenValues",
      "outputs": [
        {
          "internalType": "uint256[]",
          "name": "tokenValues",
          "type": "uint256[]"
        }
      ],
      "stateMutability": "view",
      "type": "function"
    },
    {
      "inputs": [
        {
          "internalType": "bytes32",
          "name": "role",
          "type": "bytes32"
        },
        {
          "internalType": "address",
          "name": "account",
          "type": "address"
        }
      ],
      "name": "grantRole",
      "outputs": [],
      "stateMutability": "nonpayable",
      "type": "function"
    },
    {
      "inputs": [
        {
          "internalType": "bytes32",
          "name": "role",
          "type": "bytes32"
        },
        {
          "internalType": "address",
          "name": "account",
          "type": "address"
        }
      ],
      "name": "hasRole",
      "outputs": [
        {
          "internalType": "bool",
          "name": "",
          "type": "bool"
        }
      ],
      "stateMutability": "view",
      "type": "function"
    },
    {
      "inputs": [
        {
          "internalType": "contract Registry",
          "name": "_registry",
          "type": "address"
        }
      ],
      "name": "initialize",
      "outputs": [],
      "stateMutability": "nonpayable",
      "type": "function"
    },
    {
      "inputs": [],
      "name": "isAdmin",
      "outputs": [
        {
          "internalType": "bool",
          "name": "",
          "type": "bool"
        }
      ],
      "stateMutability": "view",
      "type": "function"
    },
    {
      "inputs": [],
      "name": "pause",
      "outputs": [],
      "stateMutability": "nonpayable",
      "type": "function"
    },
    {
      "inputs": [],
      "name": "paused",
      "outputs": [
        {
          "internalType": "bool",
          "name": "",
          "type": "bool"
        }
      ],
      "stateMutability": "view",
      "type": "function"
    },
    {
      "inputs": [],
      "name": "registry",
      "outputs": [
        {
          "internalType": "contract Registry",
          "name": "",
          "type": "address"
        }
      ],
      "stateMutability": "view",
      "type": "function"
    },
    {
      "inputs": [
        {
          "internalType": "bytes32",
          "name": "role",
          "type": "bytes32"
        },
        {
          "internalType": "address",
          "name": "account",
          "type": "address"
        }
      ],
      "name": "renounceRole",
      "outputs": [],
      "stateMutability": "nonpayable",
      "type": "function"
    },
    {
      "inputs": [
        {
          "internalType": "bytes32",
          "name": "role",
          "type": "bytes32"
        },
        {
          "internalType": "address",
          "name": "account",
          "type": "address"
        }
      ],
      "name": "revokeRole",
      "outputs": [],
      "stateMutability": "nonpayable",
      "type": "function"
    },
    {
      "inputs": [
        {
          "internalType": "bytes32",
          "name": "role",
          "type": "bytes32"
        },
        {
          "internalType": "bytes32",
          "name": "adminRole",
          "type": "bytes32"
        }
      ],
      "name": "setRoleAdmin",
      "outputs": [],
      "stateMutability": "nonpayable",
      "type": "function"
    },
    {
      "inputs": [
        {
          "internalType": "address",
          "name": "poolAddress",
          "type": "address"
        },
        {
          "internalType": "uint256",
          "name": "expectedSOTCurrencyAmount",
          "type": "uint256"
        },
        {
          "internalType": "uint256",
          "name": "sotRequest",
          "type": "uint256"
        }
      ],
      "name": "solveReserveEquation",
      "outputs": [
        {
          "internalType": "uint256",
          "name": "",
          "type": "uint256"
        }
      ],
      "stateMutability": "view",
      "type": "function"
    },
    {
      "inputs": [
        {
          "internalType": "bytes4",
          "name": "interfaceId",
          "type": "bytes4"
        }
      ],
      "name": "supportsInterface",
      "outputs": [
        {
          "internalType": "bool",
          "name": "",
          "type": "bool"
        }
      ],
      "stateMutability": "view",
      "type": "function"
    },
    {
      "inputs": [],
      "name": "unpause",
      "outputs": [],
      "stateMutability": "nonpayable",
      "type": "function"
    }
  ],
  "transactionHash": "0x000062b3b0503b9bc564d9fcd7618fa3d4be5516fa26e860f8faaa57df1f87d9",
  "args": [],
  "numDeployments": 3,
  "solcInputHash": "deed048fa3beb16e6c43cf148788f147",
  "bytecode": "0x608060405234801561001057600080fd5b50613890806100206000396000f3fe608060405234801561001057600080fd5b50600436106102515760003560e01c806301ffc9a71461025657806305459dc11461027e578063077629821461029f5780631e4e0091146102a75780632288b226146102bc5780632416f5d1146102dc578063248a9ca3146102ef57806327f6ad99146103025780632814705a1461030a5780632f2ff15d1461031d57806336568abe146103305780633d8da9b6146103435780633f4ba83a146103565780634a7b31401461035e5780634d8a2bc5146103715780635c975abb1461038457806362fac5fc1461038f5780636f69c96f146103a257806371b237d6146103aa578063741d08d4146103d85780637b103999146103eb5780637c7c7c3c1461040c5780637d78014f146104335780637f26468d14610446578063832d1362146104595780638456cb591461048057806384bc71fe146104885780639010d07c146104a857806391adfa92146104bb57806391d14854146104ce5780639608d07b146104e1578063a125142b146104f4578063a1ebf35d14610509578063a217fddf14610530578063a3771fbd14610538578063a70336cc1461054b578063ab15de521461055e578063b3c6501514610567578063b6db75a014610572578063b8f6dba71461057a578063bd0c8502146105a1578063c31566d0146105b4578063c4d66de8146105c7578063ca15c873146105da578063cda63bc7146105ed578063d547741f14610600578063dfb2394b14610613578063e2eda54114610626578063e58378bb1461062f578063fd127a4114610644578063fe8319c41461064c575b600080fd5b610269610264366004612f64565b61065f565b60405190151581526020015b60405180910390f35b61029161028c366004612fa3565b61068a565b604051908152602001610275565b6102916107a8565b6102ba6102b5366004612fc0565b6107c1565b005b6102cf6102ca36600461302d565b6107db565b6040516102759190613081565b6102916102ea366004612fa3565b61088c565b6102916102fd3660046130b9565b6109bd565b610291603c81565b6102cf6103183660046130d2565b6109d2565b6102ba61032b36600461313d565b610aac565b6102ba61033e36600461313d565b610ac8565b61029161035136600461316d565b610b4b565b6102ba610b57565b61029161036c366004612fa3565b610b85565b61029161037f366004612fa3565b610bc5565b60335460ff16610269565b61029161039d366004612fa3565b610c9f565b610291610d0b565b6103bd6103b836600461319b565b610d16565b60408051938452602084019290925290820152606001610275565b6102cf6103e63660046130d2565b6111b5565b61015f546103ff906001600160a01b031681565b60405161027591906131c7565b6102917fd980155b32cf66e6af51e0972d64b9d5efe0e6f237dfaa4bdc83f990dd79e9c881565b610291610441366004612fa3565b61128b565b61029161045436600461316d565b6112cb565b6102917f48c56c0d6590b6240b1a1005717522dced5c82a200c197c7d7ad7bf3660f419481565b6102ba61144d565b61049b610496366004612fa3565b611479565b60405161027591906131db565b6103ff6104b6366004612fc0565b611774565b6102916104c9366004612fa3565b61178c565b6102696104dc36600461313d565b6118d8565b6102cf6104ef36600461302d565b611903565b61029160008051602061383b83398151915281565b6102917fe2f4eaae4a9751e85a3e4a7b9587827a877f29914755229b07a7b2da98285f7081565b610291600081565b61029161054636600461319b565b611a14565b6102cf61055936600461302d565b611a8f565b61029161016d81565b60005460ff16610291565b610269611b1c565b6102917f3e9c05fb0f9da4414e033bb9bf190a6e2072adf7e3077394fce683220513b8d781565b6102916105af366004612fa3565b611b4c565b6102916105c236600461324b565b611bb8565b6102ba6105d5366004612fa3565b611ffe565b6102916105e83660046130b9565b612182565b6102cf6105fb36600461302d565b612199565b6102ba61060e36600461313d565b6122b0565b61029161062136600461319b565b6122cc565b61029161271081565b61029160008051602061381b83398151915281565b61029161233a565b6102cf61065a36600461302d565b61235d565b60006001600160e01b03198216635a05180f60e01b1480610684575061068482612468565b92915050565b6000816106968161128b565b6106a09083613296565b91506000816001600160a01b031663df076fe06040518163ffffffff1660e01b8152600401602060405180830381865afa1580156106e2573d6000803e3d6000fd5b505050506040513d601f19601f8201168201806040525081019061070691906132a9565b905060005b818110156107a05760405163362e9bd160e21b8152600481018290526000906001600160a01b0385169063d8ba6f4490602401602060405180830381865afa15801561075b573d6000803e3d6000fd5b505050506040513d601f19601f8201168201806040525081019061077f91906132d2565b905061078b8187610b4b565b6107959086613296565b94505060010161070b565b505050919050565b6107b3603c806132ef565b6107be9060186132ef565b81565b60006107cc8161249d565b6107d683836124aa565b505050565b6060816000816001600160401b038111156107f8576107f8613306565b604051908082528060200260200182016040528015610821578160200160208202803683370190505b50905060005b8281101561088057610851878787848181106108455761084561331c565b90506020020135611a14565b8282815181106108635761086361331c565b60209081029190910101528061087881613332565b915050610827565b509150505b9392505050565b6000816001600160a01b0316630bc6bffc6040518163ffffffff1660e01b8152600401602060405180830381865afa1580156108cc573d6000803e3d6000fd5b505050506040513d601f19601f820116820180604052508101906108f091906132d2565b6001600160a01b03166370a08231836001600160a01b0316634ba2363a6040518163ffffffff1660e01b8152600401602060405180830381865afa15801561093c573d6000803e3d6000fd5b505050506040513d601f19601f8201168201806040525081019061096091906132d2565b6040518263ffffffff1660e01b815260040161097c91906131c7565b602060405180830381865afa158015610999573d6000803e3d6000fd5b505050506040513d601f19601f8201168201806040525081019061068491906132a9565b600090815260c9602052604090206001015490565b6060836001600160401b038111156109ec576109ec613306565b604051908082528060200260200182016040528015610a15578160200160208202803683370190505b50905060005b84811015610aa357610a74868683818110610a3857610a3861331c565b9050602002016020810190610a4d9190612fa3565b858584818110610a5f57610a5f61331c565b90506020020160208101906104549190612fa3565b828281518110610a8657610a8661331c565b602090810291909101015280610a9b81613332565b915050610a1b565b50949350505050565b610ab5826109bd565b610abe8161249d565b6107d683836124fd565b6001600160a01b0381163314610b3d5760405162461bcd60e51b815260206004820152602f60248201527f416363657373436f6e74726f6c3a2063616e206f6e6c792072656e6f756e636560448201526e103937b632b9903337b91039b2b63360891b60648201526084015b60405180910390fd5b610b47828261251f565b5050565b60006108858383612541565b610b5f611b1c565b610b7b5760405162461bcd60e51b8152600401610b349061334b565b610b836126a8565b565b6000816001600160a01b031663a5688a906040518163ffffffff1660e01b8152600401602060405180830381865afa158015610999573d6000803e3d6000fd5b6000816001600160a01b038116610c165760405162461bcd60e51b8152602060048201526015602482015274141bdbdb081dd85cc81b9bdd0819195c1b1bde5959605a1b6044820152606401610b34565b6000610c218461068a565b90506000846001600160a01b031663cd3293de6040518163ffffffff1660e01b8152600401602060405180830381865afa158015610c63573d6000803e3d6000fd5b505050506040513d601f19601f82011682018060405250810190610c8791906132a9565b90506000610c958383613296565b9695505050505050565b600080826001600160a01b0316630e9bf4e46040518163ffffffff1660e01b81526004016040805180830381865afa158015610cdf573d6000803e3d6000fd5b505050506040513d601f19601f82011682018060405250810190610d0391906133a5565b949350505050565b6107be603c806132ef565b6000806000808590506000816001600160a01b031663febd60186040518163ffffffff1660e01b8152600401602060405180830381865afa158015610d5f573d6000803e3d6000fd5b505050506040513d601f19601f82011682018060405250810190610d8391906132d2565b90506000826001600160a01b0316632b71b4506040518163ffffffff1660e01b8152600401602060405180830381865afa158015610dc5573d6000803e3d6000fd5b505050506040513d601f19601f82011682018060405250810190610de991906132d2565b90506000610e60846001600160a01b031663cd3293de6040518163ffffffff1660e01b8152600401602060405180830381865afa158015610e2e573d6000803e3d6000fd5b505050506040513d601f19601f82011682018060405250810190610e5291906132a9565b610e5b8b61178c565b6126f4565b905060008089600003610f7b57610e778b856112cb565b90506000846001600160a01b03166318160ddd6040518163ffffffff1660e01b8152600401602060405180830381865afa158015610eb9573d6000803e3d6000fd5b505050506040513d601f19601f82011682018060405250810190610edd91906132a9565b9050610f658483876001600160a01b031663313ce5676040518163ffffffff1660e01b8152600401602060405180830381865afa158015610f22573d6000803e3d6000fd5b505050506040513d601f19601f82011682018060405250810190610f4691906133c9565b610f5190600a6134d0565b610f5b90856132ef565b610e5b91906134f5565b9950600098508997506111ae9650505050505050565b6000610f878c876112cb565b905080600003610fa75783600080995099509950505050505050506111ae565b6000866001600160a01b031663313ce5676040518163ffffffff1660e01b8152600401602060405180830381865afa158015610fe7573d6000803e3d6000fd5b505050506040513d601f19601f8201168201806040525081019061100b91906133c9565b61101690600a6134d0565b611020838e6132ef565b61102a91906134f5565b90508085116110cb578482886001600160a01b031663313ce5676040518163ffffffff1660e01b8152600401602060405180830381865afa158015611073573d6000803e3d6000fd5b505050506040513d601f19601f8201168201806040525081019061109791906133c9565b6110a290600a6134d0565b6110ac90886132ef565b6110b691906134f5565b60009a509a509a5050505050505050506111ae565b6110d58d876112cb565b925060006110e48e838f611bb8565b90508360000361110f576110f88282613296565b8d60009b509b509b505050505050505050506111ae565b83876001600160a01b031663313ce5676040518163ffffffff1660e01b8152600401602060405180830381865afa15801561114e573d6000803e3d6000fd5b505050506040513d601f19601f8201168201806040525081019061117291906133c9565b61117d90600a6134d0565b61118790836132ef565b61119191906134f5565b945061119d8282613296565b9b508c9a5093985050505050505050505b9250925092565b6060816001600160401b038111156111cf576111cf613306565b6040519080825280602002602001820160405280156111f8578160200160208202803683370190505b50905060005b82811015610aa35761125c86868381811061121b5761121b61331c565b90506020020160208101906112309190612fa3565b8585848181106112425761124261331c565b90506020020160208101906112579190612fa3565b612541565b82828151811061126e5761126e61331c565b60209081029190910101528061128381613332565b9150506111fe565b6000816001600160a01b0316632cbf3da06040518163ffffffff1660e01b8152600401602060405180830381865afa158015610999573d6000803e3d6000fd5b600080839050600080856001600160a01b0316630e9bf4e46040518163ffffffff1660e01b81526004016040805180830381865afa158015611311573d6000803e3d6000fd5b505050506040513d601f19601f8201168201806040525081019061133591906133a5565b91509150826001600160a01b031663febd60186040518163ffffffff1660e01b8152600401602060405180830381865afa158015611377573d6000803e3d6000fd5b505050506040513d601f19601f8201168201806040525081019061139b91906132d2565b6001600160a01b0316856001600160a01b0316036113bd579250610684915050565b826001600160a01b0316632b71b4506040518163ffffffff1660e01b8152600401602060405180830381865afa1580156113fb573d6000803e3d6000fd5b505050506040513d601f19601f8201168201806040525081019061141f91906132d2565b6001600160a01b0316856001600160a01b031603611441575091506106849050565b50600095945050505050565b611455611b1c565b6114715760405162461bcd60e51b8152600401610b349061334b565b610b8361270a565b606060008290506000816001600160a01b031663df076fe06040518163ffffffff1660e01b8152600401602060405180830381865afa1580156114c0573d6000803e3d6000fd5b505050506040513d601f19601f820116820180604052508101906114e491906132a9565b9050806001600160401b038111156114fe576114fe613306565b60405190808252806020026020018201604052801561155057816020015b60408051608081018252600080825260208083018290529282018190526060820152825260001990920191018161151c5790505b50925060005b818110156107a05760405163362e9bd160e21b8152600481018290526000906001600160a01b0385169063d8ba6f4490602401602060405180830381865afa1580156115a6573d6000803e3d6000fd5b505050506040513d601f19601f820116820180604052508101906115ca91906132d2565b905060008190506000816001600160a01b0316631755ff216040518163ffffffff1660e01b8152600401602060405180830381865afa158015611611573d6000803e3d6000fd5b505050506040513d601f19601f8201168201806040525081019061163591906132d2565b90506000816001600160a01b0316632bb14ff06040518163ffffffff1660e01b8152600401602060405180830381865afa158015611677573d6000803e3d6000fd5b505050506040513d601f19601f8201168201806040525081019061169b9190613517565b63ffffffff1690506040518060800160405280836001600160a01b03168152602001856001600160a01b03168152602001846001600160a01b03166370a082318c6040518263ffffffff1660e01b81526004016116f891906131c7565b602060405180830381865afa158015611715573d6000803e3d6000fd5b505050506040513d601f19601f8201168201806040525081019061173991906132a9565b8152602001828152508886815181106117545761175461331c565b60200260200101819052505050505061176d8160010190565b9050611556565b600082815260fb602052604081206108859083612747565b600080826001600160a01b0316634ba2363a6040518163ffffffff1660e01b8152600401602060405180830381865afa1580156117cd573d6000803e3d6000fd5b505050506040513d601f19601f820116820180604052508101906117f191906132d2565b90506000836001600160a01b0316630bc6bffc6040518163ffffffff1660e01b8152600401602060405180830381865afa158015611833573d6000803e3d6000fd5b505050506040513d601f19601f8201168201806040525081019061185791906132d2565b604051636eb1769f60e11b81526001600160a01b038481166004830152868116602483015291925060009183169063dd62ed3e90604401602060405180830381865afa1580156118ab573d6000803e3d6000fd5b505050506040513d601f19601f820116820180604052508101906118cf91906132a9565b95945050505050565b600091825260c9602090815260408084206001600160a01b0393909316845291905290205460ff1690565b6060816001600160401b0381111561191d5761191d613306565b604051908082528060200260200182016040528015611946578160200160208202803683370190505b5090508360005b83811015611a0b57816001600160a01b031663e3178bc48686848181106119765761197661331c565b905060200201356040518263ffffffff1660e01b815260040161199b91815260200190565b602060405180830381865afa1580156119b8573d6000803e3d6000fd5b505050506040513d601f19601f820116820180604052508101906119dc91906132a9565b8382815181106119ee576119ee61331c565b602090810291909101015280611a0381613332565b91505061194d565b50509392505050565b6040516259879d60e71b81526004810182905260009081906001600160a01b03851690632cc3ce809060240161020060405180830381865afa158015611a5e573d6000803e3d6000fd5b505050506040513d601f19601f82011682018060405250810190611a8291906135a9565b6101e00151949350505050565b606081806001600160401b03811115611aaa57611aaa613306565b604051908082528060200260200182016040528015611ad3578160200160208202803683370190505b50915060005b81811015611a0b57611af7868686848181106112425761124261331c565b838281518110611b0957611b0961331c565b6020908102919091010152600101611ad9565b6000611b3660008051602061381b833981519152336118d8565b80611b475750611b476000336118d8565b905090565b600080826001600160a01b0316630e9bf4e46040518163ffffffff1660e01b81526004016040805180830381865afa158015611b8c573d6000803e3d6000fd5b505050506040513d601f19601f82011682018060405250810190611bb091906133a5565b509392505050565b6000808490506000816001600160a01b031663febd60186040518163ffffffff1660e01b8152600401602060405180830381865afa158015611bfe573d6000803e3d6000fd5b505050506040513d601f19601f82011682018060405250810190611c2291906132d2565b90506000826001600160a01b0316638fd6b71e6040518163ffffffff1660e01b8152600401602060405180830381865afa158015611c64573d6000803e3d6000fd5b505050506040513d601f19601f82011682018060405250810190611c889190613517565b90506000876001600160a01b031663477035d16040518163ffffffff1660e01b8152600401602060405180830381865afa158015611cca573d6000803e3d6000fd5b505050506040513d601f19601f82011682018060405250810190611cee91906136a0565b9050600087611cfc8a610bc5565b611d0691906136c9565b90506000896001600160a01b0316632cbf3da06040518163ffffffff1660e01b8152600401602060405180830381865afa158015611d48573d6000803e3d6000fd5b505050506040513d601f19601f82011682018060405250810190611d6c91906132a9565b9050600063ffffffff8516611d8461271060646132ef565b611d8e91906136c9565b905080600003611da8576000975050505050505050610885565b600089876001600160a01b03166318160ddd6040518163ffffffff1660e01b8152600401602060405180830381865afa158015611de9573d6000803e3d6000fd5b505050506040513d601f19601f82011682018060405250810190611e0d91906132a9565b611e1791906136c9565b9050600081611e2961271060646132ef565b84611e358860026132ef565b611e3f91906132ef565b611e4991906134f5565b611e5391906136c9565b90506000611e6461271060646132ef565b611e72906301e133806132ef565b611e856001600160401b038916426136c9565b8f6001600160a01b0316632bb14ff06040518163ffffffff1660e01b8152600401602060405180830381865afa158015611ec3573d6000803e3d6000fd5b505050506040513d601f19601f82011682018060405250810190611ee79190613517565b63ffffffff16611ef788876132ef565b611f0191906132ef565b611f0b91906132ef565b611f1591906134f5565b611f1f87856132ef565b611f2c61271060646132ef565b86611f3860028b6134d0565b611f4291906132ef565b611f4c91906134f5565b611f5691906136c9565b611f6091906136c9565b90506000611f7161271060646132ef565b85611f7d8460046132ef565b611f8791906132ef565b611f9191906134f5565b611f9c6002856134d0565b611fa691906136c9565b90506000611fb58660026132ef565b611fc261271060646132ef565b611fcb84612753565b611fd590876136c9565b611fdf91906132ef565b611fe991906134f5565b9c505050505050505050505050509392505050565b600054610100900460ff161580801561201e5750600054600160ff909116105b806120385750303b158015612038575060005460ff166001145b61209b5760405162461bcd60e51b815260206004820152602e60248201527f496e697469616c697a61626c653a20636f6e747261637420697320616c72656160448201526d191e481a5b9a5d1a585b1a5e995960921b6064820152608401610b34565b6000805460ff1916600117905580156120be576000805461ff0019166101001790555b6120c73361283b565b6001600160a01b03821661211d5760405162461bcd60e51b815260206004820181905260248201527f526567697374727920616464726573732063616e6e6f7420626520656d7074796044820152606401610b34565b61015f80546001600160a01b0319166001600160a01b0384161790558015610b47576000805461ff0019169055604051600181527f7f26b83ff96e1f2b6a682f133852f6798a09c465da95921460cefb38474024989060200160405180910390a15050565b600081815260fb6020526040812061068490612883565b6060816000816001600160401b038111156121b6576121b6613306565b6040519080825280602002602001820160405280156121df578160200160208202803683370190505b5090508560005b838110156122a457816001600160a01b0316633f12dc1088888481811061220f5761220f61331c565b905060200201356040518263ffffffff1660e01b815260040161223491815260200190565b602060405180830381865afa158015612251573d6000803e3d6000fd5b505050506040513d601f19601f8201168201806040525081019061227591906132a9565b8382815181106122875761228761331c565b60209081029190910101528061229c81613332565b9150506121e6565b50909695505050505050565b6122b9826109bd565b6122c28161249d565b6107d6838361251f565b6040516338c5e2f160e21b81526004810182905260009083906001600160a01b0382169063e3178bc490602401602060405180830381865afa158015612316573d6000803e3d6000fd5b505050506040513d601f19601f82011682018060405250810190610d0391906132a9565b61016d612348603c806132ef565b6123539060186132ef565b6107be91906132ef565b6060816001600160401b0381111561237757612377613306565b6040519080825280602002602001820160405280156123a0578160200160208202803683370190505b5090508360005b83811015611a0b57816001600160a01b0316631e0029c88686848181106123d0576123d061331c565b9050602002013560001c6040518263ffffffff1660e01b81526004016123f891815260200190565b602060405180830381865afa158015612415573d6000803e3d6000fd5b505050506040513d601f19601f8201168201806040525081019061243991906132a9565b83828151811061244b5761244b61331c565b60209081029190910101528061246081613332565b9150506123a7565b60006001600160e01b03198216637965db0b60e01b148061068457506301ffc9a760e01b6001600160e01b0319831614610684565b6124a7813361288d565b50565b60006124b5836109bd565b600084815260c96020526040808220600101859055519192508391839186917fbd79b86ffe0ab8e8776151514217cd7cacd52c909f66475c3af44e129f0b00ff9190a4505050565b61250782826128e6565b600082815260fb602052604090206107d6908261296c565b6125298282612981565b600082815260fb602052604090206107d690826129e8565b60008083905060006125b4826001600160a01b0316631755ff216040518163ffffffff1660e01b8152600401602060405180830381865afa15801561258a573d6000803e3d6000fd5b505050506040513d601f19601f820116820180604052508101906125ae91906132d2565b866112cb565b90506000826001600160a01b03166370a08231866040518263ffffffff1660e01b81526004016125e491906131c7565b602060405180830381865afa158015612601573d6000803e3d6000fd5b505050506040513d601f19601f8201168201806040525081019061262591906132a9565b9050826001600160a01b031663313ce5676040518163ffffffff1660e01b8152600401602060405180830381865afa158015612665573d6000803e3d6000fd5b505050506040513d601f19601f8201168201806040525081019061268991906133c9565b61269490600a6134d0565b61269e83836132ef565b610c9591906134f5565b6126b06129fd565b6033805460ff191690557f5db9ee0a495bf2e6ff9c91a7834c1ba4fdd244a5e8aa4e537bd38aeae4b073aa335b6040516126ea91906131c7565b60405180910390a1565b60008183106127035781610885565b5090919050565b612712612a46565b6033805460ff191660011790557f62e78cea01bee320cd4e420270b5ea74000d11b0c9f74754ebdbfc544b05a2586126dd3390565b60006108858383612a8c565b60008160000361276557506000919050565b6000600161277284612ab6565b901c6001901b9050600181848161278b5761278b6134df565b048201901c905060018184816127a3576127a36134df565b048201901c905060018184816127bb576127bb6134df565b048201901c905060018184816127d3576127d36134df565b048201901c905060018184816127eb576127eb6134df565b048201901c90506001818481612803576128036134df565b048201901c9050600181848161281b5761281b6134df565b048201901c905061088581828581612835576128356134df565b046126f4565b600054610100900460ff166128625760405162461bcd60e51b8152600401610b34906136dc565b61286a612b4a565b612872612b7d565b61287a612bab565b6124a781612bd2565b6000610684825490565b61289782826118d8565b610b47576128a481612c6b565b6128af836020612c7d565b6040516020016128c092919061374b565b60408051601f198184030181529082905262461bcd60e51b8252610b34916004016137ba565b6128f082826118d8565b610b4757600082815260c9602090815260408083206001600160a01b03851684529091529020805460ff191660011790556129283390565b6001600160a01b0316816001600160a01b0316837f2f8788117e7eff1d82e926ec794901d17c78024a50270940304540a733656f0d60405160405180910390a45050565b6000610885836001600160a01b038416612e18565b61298b82826118d8565b15610b4757600082815260c9602090815260408083206001600160a01b0385168085529252808320805460ff1916905551339285917ff6391f5c32d9c69d2a47ea670b442974b53935d1edc7fd64eb21e047a839171b9190a45050565b6000610885836001600160a01b038416612e67565b60335460ff16610b835760405162461bcd60e51b815260206004820152601460248201527314185d5cd8589b194e881b9bdd081c185d5cd95960621b6044820152606401610b34565b60335460ff1615610b835760405162461bcd60e51b815260206004820152601060248201526f14185d5cd8589b194e881c185d5cd95960821b6044820152606401610b34565b6000826000018281548110612aa357612aa361331c565b9060005260206000200154905092915050565b600080608083901c15612acb57608092831c92015b604083901c15612add57604092831c92015b602083901c15612aef57602092831c92015b601083901c15612b0157601092831c92015b600883901c15612b1357600892831c92015b600483901c15612b2557600492831c92015b600283901c15612b3757600292831c92015b600183901c156106845760010192915050565b600054610100900460ff16612b715760405162461bcd60e51b8152600401610b34906136dc565b6033805460ff19169055565b600054610100900460ff16612ba45760405162461bcd60e51b8152600401610b34906136dc565b6001606555565b600054610100900460ff16610b835760405162461bcd60e51b8152600401610b34906136dc565b600054610100900460ff16612bf95760405162461bcd60e51b8152600401610b34906136dc565b6001600160a01b038116612c0a5750335b612c15600033612f5a565b612c2d60008051602061381b83398151915282612f5a565b612c4560008051602061381b833981519152806124aa565b6124a760008051602061383b83398151915260008051602061381b8339815191526124aa565b60606106846001600160a01b03831660145b60606000612c8c8360026132ef565b612c97906002613296565b6001600160401b03811115612cae57612cae613306565b6040519080825280601f01601f191660200182016040528015612cd8576020820181803683370190505b509050600360fc1b81600081518110612cf357612cf361331c565b60200101906001600160f81b031916908160001a905350600f60fb1b81600181518110612d2257612d2261331c565b60200101906001600160f81b031916908160001a9053506000612d468460026132ef565b612d51906001613296565b90505b6001811115612dc9576f181899199a1a9b1b9c1cb0b131b232b360811b85600f1660108110612d8557612d8561331c565b1a60f81b828281518110612d9b57612d9b61331c565b60200101906001600160f81b031916908160001a90535060049490941c93612dc2816137ed565b9050612d54565b5083156108855760405162461bcd60e51b815260206004820181905260248201527f537472696e67733a20686578206c656e67746820696e73756666696369656e746044820152606401610b34565b6000818152600183016020526040812054612e5f57508154600181810184556000848152602080822090930184905584548482528286019093526040902091909155610684565b506000610684565b60008181526001830160205260408120548015612f50576000612e8b6001836136c9565b8554909150600090612e9f906001906136c9565b9050818114612f04576000866000018281548110612ebf57612ebf61331c565b9060005260206000200154905080876000018481548110612ee257612ee261331c565b6000918252602080832090910192909255918252600188019052604090208390555b8554869080612f1557612f15613804565b600190038181906000526020600020016000905590558560010160008681526020019081526020016000206000905560019350505050610684565b6000915050610684565b610b4782826124fd565b600060208284031215612f7657600080fd5b81356001600160e01b03198116811461088557600080fd5b6001600160a01b03811681146124a757600080fd5b600060208284031215612fb557600080fd5b813561088581612f8e565b60008060408385031215612fd357600080fd5b50508035926020909101359150565b60008083601f840112612ff457600080fd5b5081356001600160401b0381111561300b57600080fd5b6020830191508360208260051b850101111561302657600080fd5b9250929050565b60008060006040848603121561304257600080fd5b833561304d81612f8e565b925060208401356001600160401b0381111561306857600080fd5b61307486828701612fe2565b9497909650939450505050565b6020808252825182820181905260009190848201906040850190845b818110156122a45783518352928401929184019160010161309d565b6000602082840312156130cb57600080fd5b5035919050565b600080600080604085870312156130e857600080fd5b84356001600160401b03808211156130ff57600080fd5b61310b88838901612fe2565b9096509450602087013591508082111561312457600080fd5b5061313187828801612fe2565b95989497509550505050565b6000806040838503121561315057600080fd5b82359150602083013561316281612f8e565b809150509250929050565b6000806040838503121561318057600080fd5b823561318b81612f8e565b9150602083013561316281612f8e565b600080604083850312156131ae57600080fd5b82356131b981612f8e565b946020939093013593505050565b6001600160a01b0391909116815260200190565b602080825282518282018190526000919060409081850190868401855b8281101561323e57815180516001600160a01b039081168652878201511687860152858101518686015260609081015190850152608090930192908501906001016131f8565b5091979650505050505050565b60008060006060848603121561326057600080fd5b833561326b81612f8e565b95602085013595506040909401359392505050565b634e487b7160e01b600052601160045260246000fd5b8082018082111561068457610684613280565b6000602082840312156132bb57600080fd5b5051919050565b80516132cd81612f8e565b919050565b6000602082840312156132e457600080fd5b815161088581612f8e565b808202811582820484141761068457610684613280565b634e487b7160e01b600052604160045260246000fd5b634e487b7160e01b600052603260045260246000fd5b60006001820161334457613344613280565b5060010190565b6020808252603a908201527f556e74616e676c6564426173653a204d75737420686176652061646d696e207260408201527937b632903a37903832b93337b936903a3434b99030b1ba34b7b760311b606082015260800190565b600080604083850312156133b857600080fd5b505080516020909101519092909150565b6000602082840312156133db57600080fd5b815160ff8116811461088557600080fd5b600181815b8085111561342757816000190482111561340d5761340d613280565b8085161561341a57918102915b93841c93908002906133f1565b509250929050565b60008261343e57506001610684565b8161344b57506000610684565b8160018114613461576002811461346b57613487565b6001915050610684565b60ff84111561347c5761347c613280565b50506001821b610684565b5060208310610133831016604e8410600b84101617156134aa575081810a610684565b6134b483836133ec565b80600019048211156134c8576134c8613280565b029392505050565b600061088560ff84168361342f565b634e487b7160e01b600052601260045260246000fd5b60008261351257634e487b7160e01b600052601260045260246000fd5b500490565b60006020828403121561352957600080fd5b815163ffffffff8116811461088557600080fd5b60405161020081016001600160401b038111828210171561356e57634e487b7160e01b600052604160045260246000fd5b60405290565b80516001600160801b03811681146132cd57600080fd5b8051600281106132cd57600080fd5b8051600681106132cd57600080fd5b600061020082840312156135bc57600080fd5b6135c461353d565b6135cd83613574565b81526135db60208401613574565b60208201526135ec60408401613574565b60408201526135fd606084016132c2565b606082015261360e608084016132c2565b608082015260a083015160a082015260c083015160c082015260e083015160e082015261010061363f81850161358b565b9082015261012083810151908201526101408084015190820152610160808401519082015261018080840151908201526101a061367d81850161359a565b908201526101c083810151908201526101e0928301519281019290925250919050565b6000602082840312156136b257600080fd5b81516001600160401b038116811461088557600080fd5b8181038181111561068457610684613280565b6020808252602b908201527f496e697469616c697a61626c653a20636f6e7472616374206973206e6f74206960408201526a6e697469616c697a696e6760a81b606082015260800190565b60005b8381101561374257818101518382015260200161372a565b50506000910152565b76020b1b1b2b9b9a1b7b73a3937b61d1030b1b1b7bab73a1604d1b81526000835161377d816017850160208801613727565b7001034b99036b4b9b9b4b733903937b6329607d1b60179184019182015283516137ae816028840160208801613727565b01602801949350505050565b60208152600082518060208401526137d9816040850160208701613727565b601f01601f19169190910160400192915050565b6000816137fc576137fc613280565b506000190190565b634e487b7160e01b600052603160045260246000fdfeb19546dff01e856fb3f010c267a7b1c60363cf8a4664e21cc89c26224620214e59abfac6520ec36a6556b2a4dd949cc40007459bcd5cd2507f1e5cc77b6bc97ea2646970667358221220618db41ef47a73f76e8aa8031fae2070c23711f18248afced16b13e741497ca164736f6c63430008130033",
  "devdoc": {
    "author": "Untangled Team",
    "details": "Calculate pool's values",
    "events": {
      "Initialized(uint8)": {
        "details": "Triggered when the contract has been initialized or reinitialized."
      },
      "Paused(address)": {
        "details": "Emitted when the pause is triggered by `account`."
      },
      "RoleAdminChanged(bytes32,bytes32,bytes32)": {
        "details": "Emitted when `newAdminRole` is set as ``role``'s admin role, replacing `previousAdminRole` `DEFAULT_ADMIN_ROLE` is the starting admin for all roles, despite {RoleAdminChanged} not being emitted signaling this. _Available since v3.1._"
      },
      "RoleGranted(bytes32,address,address)": {
        "details": "Emitted when `account` is granted `role`. `sender` is the account that originated the contract call, an admin role bearer except when using {AccessControl-_setupRole}."
      },
      "RoleRevoked(bytes32,address,address)": {
        "details": "Emitted when `account` is revoked `role`. `sender` is the account that originated the contract call:   - if using `revokeRole`, it is the admin role bearer   - if using `renounceRole`, it is the role bearer (i.e. `account`)"
      },
      "Unpaused(address)": {
        "details": "Emitted when the pause is lifted by `account`."
      }
    },
    "kind": "dev",
    "methods": {
      "getExpectedAssetsValue(address)": {
        "details": "iterates over the NFT assets and token assets in the pool, calling getExpectedAssetValue or getExpectedERC20AssetValue for each asset and summing up the values"
      },
      "getRoleAdmin(bytes32)": {
        "details": "Returns the admin role that controls `role`. See {grantRole} and {revokeRole}. To change a role's admin, use {_setRoleAdmin}."
      },
      "getRoleMember(bytes32,uint256)": {
        "details": "Returns one of the accounts that have `role`. `index` must be a value between 0 and {getRoleMemberCount}, non-inclusive. Role bearers are not sorted in any particular way, and their ordering may change at any point. WARNING: When using {getRoleMember} and {getRoleMemberCount}, make sure you perform all queries on the same block. See the following https://forum.openzeppelin.com/t/iterating-over-elements-on-enumerableset-in-openzeppelin-contracts/2296[forum post] for more information."
      },
      "getRoleMemberCount(bytes32)": {
        "details": "Returns the number of accounts that have `role`. Can be used together with {getRoleMember} to enumerate all bearers of a role."
      },
      "grantRole(bytes32,address)": {
        "details": "Grants `role` to `account`. If `account` had not been already granted `role`, emits a {RoleGranted} event. Requirements: - the caller must have ``role``'s admin role. May emit a {RoleGranted} event."
      },
      "hasRole(bytes32,address)": {
        "details": "Returns `true` if `account` has been granted `role`."
      },
      "paused()": {
        "details": "Returns true if the contract is paused, and false otherwise."
      },
      "renounceRole(bytes32,address)": {
        "details": "Revokes `role` from the calling account. Roles are often managed via {grantRole} and {revokeRole}: this function's purpose is to provide a mechanism for accounts to lose their privileges if they are compromised (such as when a trusted device is misplaced). If the calling account had been revoked `role`, emits a {RoleRevoked} event. Requirements: - the caller must be `account`. May emit a {RoleRevoked} event."
      },
      "revokeRole(bytes32,address)": {
        "details": "Revokes `role` from `account`. If `account` had been granted `role`, emits a {RoleRevoked} event. Requirements: - the caller must have ``role``'s admin role. May emit a {RoleRevoked} event."
      },
      "supportsInterface(bytes4)": {
        "details": "See {IERC165-supportsInterface}."
      }
    },
    "title": "SecuritizationPoolValueService",
    "version": 1
  },
  "userdoc": {
    "kind": "user",
    "methods": {
      "calcCorrespondingAssetValue(address,address[])": {
        "notice": "Calculate SOT/JOT asset value for multiple investors"
      },
      "calcCorrespondingTotalAssetValue(address,address)": {
        "notice": "calculates the corresponding total asset value for a specific token address, investor, and end time"
      },
      "calcTokenPrice(address,address)": {
        "notice": "calculates the token price for a specific token address in the securitization pool"
      },
      "getCashBalance(address)": {
        "notice": "the available cash balance in the securitization pool"
      },
      "getExpectedAssetsValue(address)": {
        "notice": "calculates the total expected value of all assets in the securitization pool at a given timestamp"
      },
      "getJOTTokenPrice(address)": {
        "notice": "calculates the token price for the \"JOT\" tranche at the current timestamp"
      },
      "getJuniorRatio(address)": {
        "notice": "returns the rate that belongs to Junior investors at the current time"
      },
      "getSOTTokenPrice(address)": {
        "notice": "current individual asset price for the \"SOT\" tranche at the current timestamp"
      }
    },
    "version": 1
  },
  "storageLayout": {
    "storage": [
      {
        "astId": 759,
        "contract": "contracts/protocol/pool/SecuritizationPoolValueService.sol:SecuritizationPoolValueService",
        "label": "_initialized",
        "offset": 0,
        "slot": "0",
        "type": "t_uint8"
      },
      {
        "astId": 762,
        "contract": "contracts/protocol/pool/SecuritizationPoolValueService.sol:SecuritizationPoolValueService",
        "label": "_initializing",
        "offset": 1,
        "slot": "0",
        "type": "t_bool"
      },
      {
        "astId": 5888,
        "contract": "contracts/protocol/pool/SecuritizationPoolValueService.sol:SecuritizationPoolValueService",
        "label": "__gap",
        "offset": 0,
        "slot": "1",
        "type": "t_array(t_uint256)50_storage"
      },
      {
        "astId": 942,
        "contract": "contracts/protocol/pool/SecuritizationPoolValueService.sol:SecuritizationPoolValueService",
        "label": "_paused",
        "offset": 0,
        "slot": "51",
        "type": "t_bool"
      },
      {
        "astId": 1047,
        "contract": "contracts/protocol/pool/SecuritizationPoolValueService.sol:SecuritizationPoolValueService",
        "label": "__gap",
        "offset": 0,
        "slot": "52",
        "type": "t_array(t_uint256)49_storage"
      },
      {
        "astId": 1062,
        "contract": "contracts/protocol/pool/SecuritizationPoolValueService.sol:SecuritizationPoolValueService",
        "label": "_status",
        "offset": 0,
        "slot": "101",
        "type": "t_uint256"
      },
      {
        "astId": 1131,
        "contract": "contracts/protocol/pool/SecuritizationPoolValueService.sol:SecuritizationPoolValueService",
        "label": "__gap",
        "offset": 0,
        "slot": "102",
        "type": "t_array(t_uint256)49_storage"
      },
      {
        "astId": 7178,
        "contract": "contracts/protocol/pool/SecuritizationPoolValueService.sol:SecuritizationPoolValueService",
        "label": "__gap",
        "offset": 0,
        "slot": "151",
        "type": "t_array(t_uint256)50_storage"
      },
      {
        "astId": 184,
        "contract": "contracts/protocol/pool/SecuritizationPoolValueService.sol:SecuritizationPoolValueService",
        "label": "_roles",
        "offset": 0,
        "slot": "201",
        "type": "t_mapping(t_bytes32,t_struct(RoleData)179_storage)"
      },
      {
        "astId": 479,
        "contract": "contracts/protocol/pool/SecuritizationPoolValueService.sol:SecuritizationPoolValueService",
        "label": "__gap",
        "offset": 0,
        "slot": "202",
        "type": "t_array(t_uint256)49_storage"
      },
      {
        "astId": 33,
        "contract": "contracts/protocol/pool/SecuritizationPoolValueService.sol:SecuritizationPoolValueService",
        "label": "_roleMembers",
        "offset": 0,
        "slot": "251",
        "type": "t_mapping(t_bytes32,t_struct(AddressSet)8488_storage)"
      },
      {
        "astId": 143,
        "contract": "contracts/protocol/pool/SecuritizationPoolValueService.sol:SecuritizationPoolValueService",
        "label": "__gap",
        "offset": 0,
        "slot": "252",
        "type": "t_array(t_uint256)49_storage"
      },
      {
        "astId": 12741,
        "contract": "contracts/protocol/pool/SecuritizationPoolValueService.sol:SecuritizationPoolValueService",
        "label": "__gap",
        "offset": 0,
        "slot": "301",
        "type": "t_array(t_uint256)50_storage"
      },
      {
        "astId": 31270,
        "contract": "contracts/protocol/pool/SecuritizationPoolValueService.sol:SecuritizationPoolValueService",
        "label": "registry",
        "offset": 0,
        "slot": "351",
        "type": "t_contract(Registry)31579"
      },
      {
        "astId": 31305,
        "contract": "contracts/protocol/pool/SecuritizationPoolValueService.sol:SecuritizationPoolValueService",
        "label": "__gap",
        "offset": 0,
        "slot": "352",
        "type": "t_array(t_uint256)49_storage"
      }
    ],
    "types": {
      "t_address": {
        "encoding": "inplace",
        "label": "address",
        "numberOfBytes": "20"
      },
      "t_array(t_bytes32)dyn_storage": {
        "base": "t_bytes32",
        "encoding": "dynamic_array",
        "label": "bytes32[]",
        "numberOfBytes": "32"
      },
      "t_array(t_uint256)49_storage": {
        "base": "t_uint256",
        "encoding": "inplace",
        "label": "uint256[49]",
        "numberOfBytes": "1568"
      },
      "t_array(t_uint256)50_storage": {
        "base": "t_uint256",
        "encoding": "inplace",
        "label": "uint256[50]",
        "numberOfBytes": "1600"
      },
      "t_bool": {
        "encoding": "inplace",
        "label": "bool",
        "numberOfBytes": "1"
      },
      "t_bytes32": {
        "encoding": "inplace",
        "label": "bytes32",
        "numberOfBytes": "32"
      },
      "t_contract(Registry)31579": {
        "encoding": "inplace",
        "label": "contract Registry",
        "numberOfBytes": "20"
      },
      "t_mapping(t_address,t_bool)": {
        "encoding": "mapping",
        "key": "t_address",
        "label": "mapping(address => bool)",
        "numberOfBytes": "32",
        "value": "t_bool"
      },
      "t_mapping(t_bytes32,t_struct(AddressSet)8488_storage)": {
        "encoding": "mapping",
        "key": "t_bytes32",
        "label": "mapping(bytes32 => struct EnumerableSetUpgradeable.AddressSet)",
        "numberOfBytes": "32",
        "value": "t_struct(AddressSet)8488_storage"
      },
      "t_mapping(t_bytes32,t_struct(RoleData)179_storage)": {
        "encoding": "mapping",
        "key": "t_bytes32",
        "label": "mapping(bytes32 => struct AccessControlUpgradeable.RoleData)",
        "numberOfBytes": "32",
        "value": "t_struct(RoleData)179_storage"
      },
      "t_mapping(t_bytes32,t_uint256)": {
        "encoding": "mapping",
        "key": "t_bytes32",
        "label": "mapping(bytes32 => uint256)",
        "numberOfBytes": "32",
        "value": "t_uint256"
      },
      "t_struct(AddressSet)8488_storage": {
        "encoding": "inplace",
        "label": "struct EnumerableSetUpgradeable.AddressSet",
        "members": [
          {
            "astId": 8487,
            "contract": "contracts/protocol/pool/SecuritizationPoolValueService.sol:SecuritizationPoolValueService",
            "label": "_inner",
            "offset": 0,
            "slot": "0",
            "type": "t_struct(Set)8173_storage"
          }
        ],
        "numberOfBytes": "64"
      },
      "t_struct(RoleData)179_storage": {
        "encoding": "inplace",
        "label": "struct AccessControlUpgradeable.RoleData",
        "members": [
          {
            "astId": 176,
            "contract": "contracts/protocol/pool/SecuritizationPoolValueService.sol:SecuritizationPoolValueService",
            "label": "members",
            "offset": 0,
            "slot": "0",
            "type": "t_mapping(t_address,t_bool)"
          },
          {
            "astId": 178,
            "contract": "contracts/protocol/pool/SecuritizationPoolValueService.sol:SecuritizationPoolValueService",
            "label": "adminRole",
            "offset": 0,
            "slot": "1",
            "type": "t_bytes32"
          }
        ],
        "numberOfBytes": "64"
      },
      "t_struct(Set)8173_storage": {
        "encoding": "inplace",
        "label": "struct EnumerableSetUpgradeable.Set",
        "members": [
          {
            "astId": 8168,
            "contract": "contracts/protocol/pool/SecuritizationPoolValueService.sol:SecuritizationPoolValueService",
            "label": "_values",
            "offset": 0,
            "slot": "0",
            "type": "t_array(t_bytes32)dyn_storage"
          },
          {
            "astId": 8172,
            "contract": "contracts/protocol/pool/SecuritizationPoolValueService.sol:SecuritizationPoolValueService",
            "label": "_indexes",
            "offset": 0,
            "slot": "1",
            "type": "t_mapping(t_bytes32,t_uint256)"
          }
        ],
        "numberOfBytes": "64"
      },
      "t_uint256": {
        "encoding": "inplace",
        "label": "uint256",
        "numberOfBytes": "32"
      },
      "t_uint8": {
        "encoding": "inplace",
        "label": "uint8",
        "numberOfBytes": "1"
      }
    }
  }
}