{
  "address": "0xB86000d9b2D7216781F24307C10179773779848A",
  "abi": [
    {
      "anonymous": false,
      "inputs": [
        {
          "indexed": false,
          "internalType": "uint8",
          "name": "version",
          "type": "uint8"
        }
      ],
      "name": "Initialized",
      "type": "event"
    },
    {
      "anonymous": false,
      "inputs": [
        {
          "indexed": true,
          "internalType": "address",
          "name": "jotAddress",
          "type": "address"
        },
        {
          "indexed": false,
          "internalType": "address",
          "name": "tgeAddress",
          "type": "address"
        },
        {
          "indexed": false,
          "internalType": "address",
          "name": "poolAddress",
          "type": "address"
        }
      ],
      "name": "JotDeployed",
      "type": "event"
    },
    {
      "anonymous": false,
      "inputs": [
        {
          "indexed": true,
          "internalType": "address",
          "name": "instanceAddress",
          "type": "address"
        }
      ],
      "name": "NewPoolCreated",
      "type": "event"
    },
    {
      "anonymous": false,
      "inputs": [
        {
          "indexed": true,
          "internalType": "address",
          "name": "instanceAddress",
          "type": "address"
        },
        {
          "indexed": false,
          "internalType": "address",
          "name": "poolOwner",
          "type": "address"
        },
        {
          "components": [
            {
              "internalType": "address",
              "name": "currency",
              "type": "address"
            },
            {
              "internalType": "uint32",
              "name": "minFirstLossCushion",
              "type": "uint32"
            },
            {
              "internalType": "bool",
              "name": "validatorRequired",
              "type": "bool"
            },
            {
              "internalType": "uint256",
              "name": "debtCeiling",
              "type": "uint256"
            }
          ],
          "indexed": false,
          "internalType": "struct DataTypes.NewPoolParams",
          "name": "newPoolParams",
          "type": "tuple"
        }
      ],
      "name": "NewPoolDeployed",
      "type": "event"
    },
    {
      "anonymous": false,
      "inputs": [
        {
          "indexed": true,
          "internalType": "address",
          "name": "investor",
          "type": "address"
        },
        {
          "indexed": true,
          "internalType": "address",
          "name": "tgeAddress",
          "type": "address"
        },
        {
          "indexed": false,
          "internalType": "address",
          "name": "poolAddress",
          "type": "address"
        },
        {
          "indexed": false,
          "internalType": "uint256",
          "name": "amount",
          "type": "uint256"
        },
        {
          "indexed": false,
          "internalType": "uint256",
          "name": "tokenAmount",
          "type": "uint256"
        }
      ],
      "name": "NoteTokenPurchased",
      "type": "event"
    },
    {
      "anonymous": false,
      "inputs": [
        {
          "indexed": false,
          "internalType": "address",
          "name": "account",
          "type": "address"
        }
      ],
      "name": "Paused",
      "type": "event"
    },
    {
      "anonymous": false,
      "inputs": [
        {
          "indexed": true,
          "internalType": "bytes32",
          "name": "role",
          "type": "bytes32"
        },
        {
          "indexed": true,
          "internalType": "bytes32",
          "name": "previousAdminRole",
          "type": "bytes32"
        },
        {
          "indexed": true,
          "internalType": "bytes32",
          "name": "newAdminRole",
          "type": "bytes32"
        }
      ],
      "name": "RoleAdminChanged",
      "type": "event"
    },
    {
      "anonymous": false,
      "inputs": [
        {
          "indexed": true,
          "internalType": "bytes32",
          "name": "role",
          "type": "bytes32"
        },
        {
          "indexed": true,
          "internalType": "address",
          "name": "account",
          "type": "address"
        },
        {
          "indexed": true,
          "internalType": "address",
          "name": "sender",
          "type": "address"
        }
      ],
      "name": "RoleGranted",
      "type": "event"
    },
    {
      "anonymous": false,
      "inputs": [
        {
          "indexed": true,
          "internalType": "bytes32",
          "name": "role",
          "type": "bytes32"
        },
        {
          "indexed": true,
          "internalType": "address",
          "name": "account",
          "type": "address"
        },
        {
          "indexed": true,
          "internalType": "address",
          "name": "sender",
          "type": "address"
        }
      ],
      "name": "RoleRevoked",
      "type": "event"
    },
    {
      "anonymous": false,
      "inputs": [
        {
          "indexed": true,
          "internalType": "address",
          "name": "jotAddress",
          "type": "address"
        },
        {
          "indexed": false,
          "internalType": "address",
          "name": "tgeAddress",
          "type": "address"
        },
        {
          "indexed": false,
          "internalType": "address",
          "name": "poolAddress",
          "type": "address"
        },
        {
          "components": [
            {
              "internalType": "address",
              "name": "issuerTokenController",
              "type": "address"
            },
            {
              "internalType": "address",
              "name": "pool",
              "type": "address"
            },
            {
              "internalType": "uint256",
              "name": "minBidAmount",
              "type": "uint256"
            },
            {
              "internalType": "string",
              "name": "ticker",
              "type": "string"
            },
            {
              "internalType": "uint8",
              "name": "saleType",
              "type": "uint8"
            }
          ],
          "indexed": false,
          "internalType": "struct ISecuritizationManager.TGEParam",
          "name": "tgeParam",
          "type": "tuple"
        },
        {
          "indexed": false,
          "internalType": "uint256",
          "name": "cap",
          "type": "uint256"
        },
        {
          "indexed": false,
          "internalType": "uint256",
          "name": "initialJOTAmount",
          "type": "uint256"
        }
      ],
      "name": "SetupJot",
      "type": "event"
    },
    {
      "anonymous": false,
      "inputs": [
        {
          "indexed": true,
          "internalType": "address",
          "name": "sotAddress",
          "type": "address"
        },
        {
          "indexed": false,
          "internalType": "address",
          "name": "tgeAddress",
          "type": "address"
        },
        {
          "indexed": false,
          "internalType": "address",
          "name": "poolAddress",
          "type": "address"
        },
        {
          "components": [
            {
              "internalType": "address",
              "name": "issuerTokenController",
              "type": "address"
            },
            {
              "internalType": "address",
              "name": "pool",
              "type": "address"
            },
            {
              "internalType": "uint256",
              "name": "minBidAmount",
              "type": "uint256"
            },
            {
              "internalType": "string",
              "name": "ticker",
              "type": "string"
            },
            {
              "internalType": "uint8",
              "name": "saleType",
              "type": "uint8"
            }
          ],
          "indexed": false,
          "internalType": "struct ISecuritizationManager.TGEParam",
          "name": "tgeParam",
          "type": "tuple"
        },
        {
          "indexed": false,
          "internalType": "uint256",
          "name": "cap",
          "type": "uint256"
        },
        {
          "indexed": false,
          "internalType": "uint256",
          "name": "interestRate",
          "type": "uint256"
        }
      ],
      "name": "SetupSot",
      "type": "event"
    },
    {
      "anonymous": false,
      "inputs": [
        {
          "indexed": true,
          "internalType": "address",
          "name": "sotAddress",
          "type": "address"
        },
        {
          "indexed": false,
          "internalType": "address",
          "name": "tgeAddress",
          "type": "address"
        },
        {
          "indexed": false,
          "internalType": "address",
          "name": "poolAddress",
          "type": "address"
        }
      ],
      "name": "SotDeployed",
      "type": "event"
    },
    {
      "anonymous": false,
      "inputs": [
        {
          "indexed": true,
          "internalType": "address",
          "name": "investor",
          "type": "address"
        },
        {
          "indexed": true,
          "internalType": "address",
          "name": "tgeAddress",
          "type": "address"
        },
        {
          "indexed": false,
          "internalType": "uint256",
          "name": "amount",
          "type": "uint256"
        },
        {
          "indexed": false,
          "internalType": "uint256",
          "name": "tokenAmount",
          "type": "uint256"
        }
      ],
      "name": "TokensPurchased",
      "type": "event"
    },
    {
      "anonymous": false,
      "inputs": [
        {
          "indexed": false,
          "internalType": "address",
          "name": "account",
          "type": "address"
        }
      ],
      "name": "Unpaused",
      "type": "event"
    },
    {
      "anonymous": false,
      "inputs": [
        {
          "indexed": false,
          "internalType": "uint256[]",
          "name": "uids",
          "type": "uint256[]"
        }
      ],
      "name": "UpdateAllowedUIDTypes",
      "type": "event"
    },
    {
      "anonymous": false,
      "inputs": [
        {
          "indexed": true,
          "internalType": "address",
          "name": "pot",
          "type": "address"
        },
        {
          "indexed": true,
          "internalType": "address",
          "name": "pool",
          "type": "address"
        }
      ],
      "name": "UpdatePotToPool",
      "type": "event"
    },
    {
      "anonymous": false,
      "inputs": [
        {
          "components": [
            {
              "internalType": "address",
              "name": "tgeAddress",
              "type": "address"
            },
            {
              "internalType": "uint256",
              "name": "totalCap",
              "type": "uint256"
            },
            {
              "internalType": "uint256",
              "name": "minBidAmount",
              "type": "uint256"
            }
          ],
          "indexed": false,
          "internalType": "struct ISecuritizationManager.TGEInfoParam[]",
          "name": "tgeInfos",
          "type": "tuple[]"
        }
      ],
      "name": "UpdateTGEInfo",
      "type": "event"
    },
    {
      "anonymous": false,
      "inputs": [
        {
          "indexed": false,
          "internalType": "address",
          "name": "validator",
          "type": "address"
        }
      ],
      "name": "ValidatorRegistered",
      "type": "event"
    },
    {
      "anonymous": false,
      "inputs": [
        {
          "indexed": false,
          "internalType": "address",
          "name": "validator",
          "type": "address"
        }
      ],
      "name": "ValidatorUnRegistered",
      "type": "event"
    },
    {
      "inputs": [],
      "name": "BACKEND_ADMIN",
      "outputs": [
        {
          "internalType": "bytes32",
          "name": "",
          "type": "bytes32"
        }
      ],
      "stateMutability": "view",
      "type": "function"
    },
    {
      "inputs": [],
      "name": "DEFAULT_ADMIN_ROLE",
      "outputs": [
        {
          "internalType": "bytes32",
          "name": "",
          "type": "bytes32"
        }
      ],
      "stateMutability": "view",
      "type": "function"
    },
    {
      "inputs": [],
      "name": "ORIGINATOR_ROLE",
      "outputs": [
        {
          "internalType": "bytes32",
          "name": "",
          "type": "bytes32"
        }
      ],
      "stateMutability": "view",
      "type": "function"
    },
    {
      "inputs": [],
      "name": "OWNER_ROLE",
      "outputs": [
        {
          "internalType": "bytes32",
          "name": "",
          "type": "bytes32"
        }
      ],
      "stateMutability": "view",
      "type": "function"
    },
    {
      "inputs": [],
      "name": "POOL_ADMIN_ROLE",
      "outputs": [
        {
          "internalType": "bytes32",
          "name": "",
          "type": "bytes32"
        }
      ],
      "stateMutability": "view",
      "type": "function"
    },
    {
      "inputs": [],
      "name": "POOL_INIT_FUNC_SELECTOR",
      "outputs": [
        {
          "internalType": "bytes4",
          "name": "",
          "type": "bytes4"
        }
      ],
      "stateMutability": "view",
      "type": "function"
    },
    {
      "inputs": [],
      "name": "SIGNER_ROLE",
      "outputs": [
        {
          "internalType": "bytes32",
          "name": "",
          "type": "bytes32"
        }
      ],
      "stateMutability": "view",
      "type": "function"
    },
    {
      "inputs": [],
      "name": "SUPER_ADMIN",
      "outputs": [
        {
          "internalType": "bytes32",
          "name": "",
          "type": "bytes32"
        }
      ],
      "stateMutability": "view",
      "type": "function"
    },
    {
      "inputs": [
        {
          "internalType": "address",
          "name": "issuerTokenController",
          "type": "address"
        },
        {
          "internalType": "address",
          "name": "pool",
          "type": "address"
        },
        {
          "internalType": "uint8",
          "name": "saleType",
          "type": "uint8"
        },
        {
          "internalType": "string",
          "name": "ticker",
          "type": "string"
        }
      ],
      "name": "_initialTGEForJOT",
      "outputs": [
        {
          "internalType": "address",
          "name": "",
          "type": "address"
        },
        {
          "internalType": "address",
          "name": "",
          "type": "address"
        }
      ],
      "stateMutability": "nonpayable",
      "type": "function"
    },
    {
      "inputs": [
        {
          "internalType": "uint256",
          "name": "",
          "type": "uint256"
        }
      ],
      "name": "allowedUIDTypes",
      "outputs": [
        {
          "internalType": "uint256",
          "name": "",
          "type": "uint256"
        }
      ],
      "stateMutability": "view",
      "type": "function"
    },
    {
      "inputs": [
        {
          "internalType": "address",
          "name": "tgeAddress",
          "type": "address"
        },
        {
          "internalType": "uint256",
          "name": "currencyAmount",
          "type": "uint256"
        }
      ],
      "name": "buyTokens",
      "outputs": [],
      "stateMutability": "nonpayable",
      "type": "function"
    },
    {
      "inputs": [],
      "name": "factoryAdmin",
      "outputs": [
        {
          "internalType": "address",
          "name": "",
          "type": "address"
        }
      ],
      "stateMutability": "view",
      "type": "function"
    },
    {
      "inputs": [],
      "name": "getInitializedVersion",
      "outputs": [
        {
          "internalType": "uint256",
          "name": "",
          "type": "uint256"
        }
      ],
      "stateMutability": "view",
      "type": "function"
    },
    {
      "inputs": [],
      "name": "getPoolsLength",
      "outputs": [
        {
          "internalType": "uint256",
          "name": "",
          "type": "uint256"
        }
      ],
      "stateMutability": "view",
      "type": "function"
    },
    {
      "inputs": [
        {
          "internalType": "bytes32",
          "name": "role",
          "type": "bytes32"
        }
      ],
      "name": "getRoleAdmin",
      "outputs": [
        {
          "internalType": "bytes32",
          "name": "",
          "type": "bytes32"
        }
      ],
      "stateMutability": "view",
      "type": "function"
    },
    {
      "inputs": [
        {
          "internalType": "bytes32",
          "name": "role",
          "type": "bytes32"
        },
        {
          "internalType": "uint256",
          "name": "index",
          "type": "uint256"
        }
      ],
      "name": "getRoleMember",
      "outputs": [
        {
          "internalType": "address",
          "name": "",
          "type": "address"
        }
      ],
      "stateMutability": "view",
      "type": "function"
    },
    {
      "inputs": [
        {
          "internalType": "bytes32",
          "name": "role",
          "type": "bytes32"
        }
      ],
      "name": "getRoleMemberCount",
      "outputs": [
        {
          "internalType": "uint256",
          "name": "",
          "type": "uint256"
        }
      ],
      "stateMutability": "view",
      "type": "function"
    },
    {
      "inputs": [
        {
          "internalType": "bytes32",
          "name": "role",
          "type": "bytes32"
        },
        {
          "internalType": "address",
          "name": "account",
          "type": "address"
        }
      ],
      "name": "grantRole",
      "outputs": [],
      "stateMutability": "nonpayable",
      "type": "function"
    },
    {
      "inputs": [
        {
          "internalType": "address",
          "name": "sender",
          "type": "address"
        }
      ],
      "name": "hasAllowedUID",
      "outputs": [
        {
          "internalType": "bool",
          "name": "",
          "type": "bool"
        }
      ],
      "stateMutability": "view",
      "type": "function"
    },
    {
      "inputs": [
        {
          "internalType": "bytes32",
          "name": "role",
          "type": "bytes32"
        },
        {
          "internalType": "address",
          "name": "account",
          "type": "address"
        }
      ],
      "name": "hasRole",
      "outputs": [
        {
          "internalType": "bool",
          "name": "",
          "type": "bool"
        }
      ],
      "stateMutability": "view",
      "type": "function"
    },
    {
      "inputs": [
        {
          "internalType": "contract Registry",
          "name": "_registry",
          "type": "address"
        },
        {
          "internalType": "address",
          "name": "_factoryAdmin",
          "type": "address"
        }
      ],
      "name": "initialize",
      "outputs": [],
      "stateMutability": "nonpayable",
      "type": "function"
    },
    {
      "inputs": [],
      "name": "isAdmin",
      "outputs": [
        {
          "internalType": "bool",
          "name": "",
          "type": "bool"
        }
      ],
      "stateMutability": "view",
      "type": "function"
    },
    {
      "inputs": [
        {
          "internalType": "address",
          "name": "",
          "type": "address"
        }
      ],
      "name": "isExistingPools",
      "outputs": [
        {
          "internalType": "bool",
          "name": "",
          "type": "bool"
        }
      ],
      "stateMutability": "view",
      "type": "function"
    },
    {
      "inputs": [
        {
          "internalType": "address",
          "name": "",
          "type": "address"
        }
      ],
      "name": "isExistingTGEs",
      "outputs": [
        {
          "internalType": "bool",
          "name": "",
          "type": "bool"
        }
      ],
      "stateMutability": "view",
      "type": "function"
    },
    {
      "inputs": [
        {
          "internalType": "bytes32",
          "name": "salt",
          "type": "bytes32"
        },
        {
          "internalType": "address",
          "name": "poolOwner",
          "type": "address"
        },
        {
          "internalType": "bytes",
          "name": "params",
          "type": "bytes"
        }
      ],
      "name": "newPoolInstance",
      "outputs": [
        {
          "internalType": "address",
          "name": "",
          "type": "address"
        }
      ],
      "stateMutability": "nonpayable",
      "type": "function"
    },
    {
      "inputs": [],
      "name": "pause",
      "outputs": [],
      "stateMutability": "nonpayable",
      "type": "function"
    },
    {
      "inputs": [],
      "name": "paused",
      "outputs": [
        {
          "internalType": "bool",
          "name": "",
          "type": "bool"
        }
      ],
      "stateMutability": "view",
      "type": "function"
    },
    {
      "inputs": [
        {
          "internalType": "uint256",
          "name": "",
          "type": "uint256"
        }
      ],
      "name": "pools",
      "outputs": [
        {
          "internalType": "address",
          "name": "",
          "type": "address"
        }
      ],
      "stateMutability": "view",
      "type": "function"
    },
    {
      "inputs": [
        {
          "internalType": "address",
          "name": "",
          "type": "address"
        }
      ],
      "name": "potToPool",
      "outputs": [
        {
          "internalType": "address",
          "name": "",
          "type": "address"
        }
      ],
      "stateMutability": "view",
      "type": "function"
    },
    {
      "inputs": [
        {
          "internalType": "address",
          "name": "pot",
          "type": "address"
        }
      ],
      "name": "registerPot",
      "outputs": [],
      "stateMutability": "nonpayable",
      "type": "function"
    },
    {
      "inputs": [
        {
          "internalType": "address",
          "name": "validator",
          "type": "address"
        }
      ],
      "name": "registerValidator",
      "outputs": [],
      "stateMutability": "nonpayable",
      "type": "function"
    },
    {
      "inputs": [],
      "name": "registry",
      "outputs": [
        {
          "internalType": "contract Registry",
          "name": "",
          "type": "address"
        }
      ],
      "stateMutability": "view",
      "type": "function"
    },
    {
      "inputs": [
        {
          "internalType": "bytes32",
          "name": "role",
          "type": "bytes32"
        },
        {
          "internalType": "address",
          "name": "account",
          "type": "address"
        }
      ],
      "name": "renounceRole",
      "outputs": [],
      "stateMutability": "nonpayable",
      "type": "function"
    },
    {
      "inputs": [
        {
          "internalType": "bytes32",
          "name": "role",
          "type": "bytes32"
        },
        {
          "internalType": "address",
          "name": "account",
          "type": "address"
        }
      ],
      "name": "revokeRole",
      "outputs": [],
      "stateMutability": "nonpayable",
      "type": "function"
    },
    {
      "inputs": [
        {
          "internalType": "uint256[]",
          "name": "ids",
          "type": "uint256[]"
        }
      ],
      "name": "setAllowedUIDTypes",
      "outputs": [],
      "stateMutability": "nonpayable",
      "type": "function"
    },
    {
      "inputs": [
        {
          "internalType": "address",
          "name": "_factoryAdmin",
          "type": "address"
        }
      ],
      "name": "setFactoryAdmin",
      "outputs": [],
      "stateMutability": "nonpayable",
      "type": "function"
    },
    {
      "inputs": [
        {
          "internalType": "bytes32",
          "name": "role",
          "type": "bytes32"
        },
        {
          "internalType": "bytes32",
          "name": "adminRole",
          "type": "bytes32"
        }
      ],
      "name": "setRoleAdmin",
      "outputs": [],
      "stateMutability": "nonpayable",
      "type": "function"
    },
    {
      "inputs": [
        {
          "components": [
            {
              "internalType": "address",
              "name": "issuerTokenController",
              "type": "address"
            },
            {
              "internalType": "address",
              "name": "pool",
              "type": "address"
            },
            {
              "internalType": "uint256",
              "name": "minBidAmount",
              "type": "uint256"
            },
            {
              "internalType": "string",
              "name": "ticker",
              "type": "string"
            },
            {
              "internalType": "uint8",
              "name": "saleType",
              "type": "uint8"
            }
          ],
          "internalType": "struct ISecuritizationManager.TGEParam",
          "name": "tgeParam",
          "type": "tuple"
        },
        {
          "internalType": "uint256",
          "name": "initialJOTAmount",
          "type": "uint256"
        },
        {
          "internalType": "uint256",
          "name": "cap",
          "type": "uint256"
        }
      ],
      "name": "setUpTGEForJOT",
      "outputs": [],
      "stateMutability": "nonpayable",
      "type": "function"
    },
    {
      "inputs": [
        {
          "components": [
            {
              "internalType": "address",
              "name": "issuerTokenController",
              "type": "address"
            },
            {
              "internalType": "address",
              "name": "pool",
              "type": "address"
            },
            {
              "internalType": "uint256",
              "name": "minBidAmount",
              "type": "uint256"
            },
            {
              "internalType": "string",
              "name": "ticker",
              "type": "string"
            },
            {
              "internalType": "uint8",
              "name": "saleType",
              "type": "uint8"
            }
          ],
          "internalType": "struct ISecuritizationManager.TGEParam",
          "name": "tgeParam",
          "type": "tuple"
        },
        {
          "internalType": "uint256",
          "name": "cap",
          "type": "uint256"
        },
        {
          "internalType": "uint256",
          "name": "interestRate",
          "type": "uint256"
        }
      ],
      "name": "setUpTGEForSOT",
      "outputs": [],
      "stateMutability": "nonpayable",
      "type": "function"
    },
    {
      "inputs": [
        {
          "internalType": "bytes4",
          "name": "interfaceId",
          "type": "bytes4"
        }
      ],
      "name": "supportsInterface",
      "outputs": [
        {
          "internalType": "bool",
          "name": "",
          "type": "bool"
        }
      ],
      "stateMutability": "view",
      "type": "function"
    },
    {
      "inputs": [],
      "name": "unpause",
      "outputs": [],
      "stateMutability": "nonpayable",
      "type": "function"
    },
    {
      "inputs": [
        {
          "internalType": "address",
          "name": "validator",
          "type": "address"
        }
      ],
      "name": "unregisterValidator",
      "outputs": [],
      "stateMutability": "nonpayable",
      "type": "function"
    },
    {
      "inputs": [
        {
          "components": [
            {
              "internalType": "address",
              "name": "tgeAddress",
              "type": "address"
            },
            {
              "internalType": "uint256",
              "name": "totalCap",
              "type": "uint256"
            },
            {
              "internalType": "uint256",
              "name": "minBidAmount",
              "type": "uint256"
            }
          ],
          "internalType": "struct ISecuritizationManager.TGEInfoParam[]",
          "name": "tgeInfos",
          "type": "tuple[]"
        }
      ],
      "name": "updateTgeInfo",
      "outputs": [],
      "stateMutability": "nonpayable",
      "type": "function"
    }
  ],
  "transactionHash": "0x0c1ed8c000a9282aca6229a9ccd1a0cfe8bf264392c3b7e8bc89b8e53896f5a5",
  "args": [],
  "numDeployments": 3,
  "solcInputHash": "deed048fa3beb16e6c43cf148788f147",
  "bytecode": "0x608060405234801561001057600080fd5b50615516806100206000396000f3fe60806040523480156200001157600080fd5b5060043610620002265760003560e01c806301ffc9a7146200022b57806305dfd86f14620002575780630752881a146200027057806317d8ec7f14620002875780631e4e009114620002ab578063248a9ca314620002c25780632c9bdbe014620002e85780632f2ff15d146200031557806336568abe146200032c5780633773194414620003435780633f4ba83a146200037457806340b9a5a1146200037e5780634172f80a146200039557806342275f6414620003bc578063485cc95514620003d3578063505861dd14620003ea5780635c975abb146200040157806363de9474146200040d5780637b10399914620004345780637c7c7c3c1462000449578063832d136214620004715780638456cb5914620004995780639010d07c14620004a357806391d1485414620004ba5780639fca516914620004d1578063a125142b14620004e8578063a1ebf35d14620004ff578063a217fddf1462000527578063ac4afa381462000530578063b3c650151462000547578063b6db75a01462000553578063b8f6dba7146200055d578063b9317d861462000574578063c8174260146200058b578063ca15c87314620005a2578063ce883cdb14620005b9578063d113058c14620005c3578063d547741f14620005ea578063dc90f9fd1462000601578063e2a657f91462000618578063e58378bb146200062f578063f94f5a121462000646578063fa10cd63146200065d575b600080fd5b620002426200023c366004620039da565b62000674565b60405190151581526020015b60405180910390f35b6200026e6200026836600462003a1c565b620006a2565b005b6200026e6200028136600462003a3c565b620006be565b61015f546200029c906001600160a01b031681565b6040516200024e919062003a6b565b6200026e620002bc36600462003a7f565b62000e8a565b620002d9620002d336600462003aa2565b62000ea8565b6040519081526020016200024e565b6200029c620002f936600462003a1c565b610195602052600090815260409020546001600160a01b031681565b6200026e6200032636600462003abc565b62000ebd565b6200026e6200033d36600462003abc565b62000edf565b6200035a600080516020620054c183398151915281565b6040516001600160e01b031990911681526020016200024e565b6200026e62000f5d565b6200026e6200038f36600462003bdf565b62000f92565b62000242620003a636600462003a1c565b6101966020526000908152604090205460ff1681565b6200026e620003cd36600462003bdf565b620011e5565b6200026e620003e436600462003cb1565b62001488565b6200026e620003fb36600462003ce4565b620015ff565b60335460ff1662000242565b620004246200041e36600462003d5d565b620018ed565b6040516200024e92919062003ddb565b610192546200029c906001600160a01b031681565b620002d97fd980155b32cf66e6af51e0972d64b9d5efe0e6f237dfaa4bdc83f990dd79e9c881565b620002d97f48c56c0d6590b6240b1a1005717522dced5c82a200c197c7d7ad7bf3660f419481565b6200026e62001d5e565b6200029c620004b436600462003a7f565b62001d91565b62000242620004cb36600462003abc565b62001db2565b6200026e620004e236600462003a1c565b62001ddd565b620002d9600080516020620054a183398151915281565b620002d97fe2f4eaae4a9751e85a3e4a7b9587827a877f29914755229b07a7b2da98285f7081565b620002d9600081565b6200029c6200054136600462003aa2565b62001edc565b60005460ff16620002d9565b6200024262001f08565b620002d96000805160206200546183398151915281565b6200026e6200058536600462003df5565b62001f3e565b6200026e6200059c36600462003a1c565b62001f8e565b620002d9620005b336600462003aa2565b6200208d565b61019454620002d9565b62000242620005d436600462003a1c565b6101936020526000908152604090205460ff1681565b6200026e620005fb36600462003abc565b620020a6565b6200026e6200061236600462003a1c565b620020c8565b620002d96200062936600462003aa2565b62002227565b620002d96000805160206200544183398151915281565b620002426200065736600462003a1c565b6200224a565b6200029c6200066e36600462003e5c565b620022da565b60006001600160e01b03198216635a05180f60e01b14806200069c57506200069c82620025a0565b92915050565b6000620006af81620025d7565b620006ba82620025e6565b5050565b620006c862002609565b620006d262002651565b6001600160a01b0382166000908152610196602052604090205460ff16620007415760405162461bcd60e51b815260206004820152601d60248201527f534d503a204e6f74652073616c6520646f6573206e6f7420657869737400000060448201526064015b60405180910390fd5b6200074c336200224a565b620007a65760405162461bcd60e51b815260206004820152602360248201527f556e617574686f72697a65642e204d757374206861766520636f72726563742060448201526215525160ea1b606482015260840162000738565b336000818152610195602052604081205484926001600160a01b03918216929184169063dcefa538908415620007dd5784620007df565b335b6040516001600160e01b031960e085901b1681526001600160a01b03928316600482015291166024820152604481018790526064016020604051808303816000875af115801562000834573d6000803e3d6000fd5b505050506040513d601f19601f820116820180604052508101906200085a919062003ecf565b90506000836001600160a01b03166316f0115b6040518163ffffffff1660e01b8152600401602060405180830381865afa1580156200089d573d6000803e3d6000fd5b505050506040513d601f19601f82011682018060405250810190620008c3919062003ee9565b61019254909150620008de906001600160a01b0316620026ac565b6001600160a01b0316634ce94519826040518263ffffffff1660e01b81526004016200090b919062003a6b565b602060405180830381865afa15801562000929573d6000803e3d6000fd5b505050506040513d601f19601f820116820180604052508101906200094f919062003f1f565b15620009955760405162461bcd60e51b815260206004820152601460248201527314d34e88109d5e481d1bdad95b881c185d5cd95960621b604482015260640162000738565b6000846001600160a01b031663fc0c546a6040518163ffffffff1660e01b8152600401602060405180830381865afa158015620009d6573d6000803e3d6000fd5b505050506040513d601f19601f82011682018060405250810190620009fc919062003ee9565b90506000816001600160a01b031662b7f6816040518163ffffffff1660e01b8152600401602060405180830381865afa15801562000a3e573d6000803e3d6000fd5b505050506040513d601f19601f8201168201806040525081019062000a64919062003f3d565b905060001960ff82160162000c1b57876001600160a01b031663fc1ed4376040518163ffffffff1660e01b8152600401602060405180830381865afa15801562000ab2573d6000803e3d6000fd5b505050506040513d601f19601f8201168201806040525081019062000ad8919062003ecf565b886001600160a01b031663998ba4fc6040518163ffffffff1660e01b8152600401602060405180830381865afa15801562000b17573d6000803e3d6000fd5b505050506040513d601f19601f8201168201806040525081019062000b3d919062003ecf565b1062000c1b576000836001600160a01b0316636456a3ee6040518163ffffffff1660e01b8152600401602060405180830381865afa15801562000b84573d6000803e3d6000fd5b505050506040513d601f19601f8201168201806040525081019062000baa919062003ee9565b90506001600160a01b0381161562000c195760405163ea7bb4bd60e01b8152600160048201526001600160a01b0382169063ea7bb4bd90602401600060405180830381600087803b15801562000bff57600080fd5b505af115801562000c14573d6000803e3d6000fd5b505050505b505b604051630fdfbe1f60e11b8152600481018890526001600160a01b03841690631fbf7c3e90602401600060405180830381600087803b15801562000c5e57600080fd5b505af115801562000c73573d6000803e3d6000fd5b505050506001600160a01b0385161562000d46576040516332c9832360e11b81526001600160a01b0386169063659306469062000cb590859060040162003a6b565b600060405180830381600087803b15801562000cd057600080fd5b505af115801562000ce5573d6000803e3d6000fd5b505060405163bff8a36d60e01b8152600481018a90526001600160a01b038816925063bff8a36d9150602401600060405180830381600087803b15801562000d2c57600080fd5b505af115801562000d41573d6000803e3d6000fd5b505050505b60001960ff82160162000dbc57604051631d514ebd60e11b815260006004820181905260248201526001600160a01b03841690633aa29d7a90604401600060405180830381600087803b15801562000d9d57600080fd5b505af115801562000db2573d6000803e3d6000fd5b5050505062000e20565b604051631d514ebd60e11b815260048101889052600060248201526001600160a01b03841690633aa29d7a90604401600060405180830381600087803b15801562000e0657600080fd5b505af115801562000e1b573d6000803e3d6000fd5b505050505b6001600160a01b03881633604080516001600160a01b038781168252602082018c90529181018890529116907fa3a7c380969641ab7502e2ee291d1a50a8178ff950a6f496415f5256483cc86e9060600160405180910390a3505050505050620006ba6001606555565b600062000e9781620025d7565b62000ea38383620026c2565b505050565b600090815260c9602052604090206001015490565b62000ec88262000ea8565b62000ed381620025d7565b62000ea3838362002717565b6001600160a01b038116331462000f515760405162461bcd60e51b815260206004820152602f60248201527f416363657373436f6e74726f6c3a2063616e206f6e6c792072656e6f756e636560448201526e103937b632b9903337b91039b2b63360891b606482015260840162000738565b620006ba82826200273d565b62000f6762001f08565b62000f865760405162461bcd60e51b8152600401620007389062003f73565b62000f9062002763565b565b6020830151604051632474521560e21b81526001600160a01b038216906391d148549062000fd6906000805160206200544183398151915290339060040162003fcd565b602060405180830381865afa15801562000ff4573d6000803e3d6000fd5b505050506040513d601f19601f820116820180604052508101906200101a919062003f1f565b620010395760405162461bcd60e51b8152600401620007389062003fe4565b6000806200105a8660000151876020015188608001518960600151620027b3565b6020880151604051635d40d49b60e11b815263ffffffff8816600482015292945090925082916001600160a01b0382169063ba81a93690602401600060405180830381600087803b158015620010af57600080fd5b505af1158015620010c4573d6000803e3d6000fd5b505060405163e1884b0f60e01b8152600481018a90526001600160a01b038516925063e1884b0f9150602401600060405180830381600087803b1580156200110b57600080fd5b505af115801562001120573d6000803e3d6000fd5b5050506040808a015190516320bfeb5b60e11b81526001600160a01b038516925063417fd6b691620011589160040190815260200190565b600060405180830381600087803b1580156200117357600080fd5b505af115801562001188573d6000803e3d6000fd5b50505050836001600160a01b03167f48ca1e09ad759f60bb96e093a1d5ffeca9f321458d31c9efd815f97dae172d2a848a602001518b8b8b604051620011d395949392919062004090565b60405180910390a25050505050505050565b6020830151604051632474521560e21b81526001600160a01b038216906391d148549062001229906000805160206200544183398151915290339060040162003fcd565b602060405180830381865afa15801562001247573d6000803e3d6000fd5b505050506040513d601f19601f820116820180604052508101906200126d919062003f1f565b6200128c5760405162461bcd60e51b8152600401620007389062003fe4565b600080620012ad8660000151876020015188608001518960600151620018ed565b60405163e1884b0f60e01b815260048101879052919350915081906001600160a01b0382169063e1884b0f90602401600060405180830381600087803b158015620012f757600080fd5b505af11580156200130c573d6000803e3d6000fd5b505060405163ea7bb4bd60e01b8152600160048201526001600160a01b038416925063ea7bb4bd9150602401600060405180830381600087803b1580156200135357600080fd5b505af115801562001368573d6000803e3d6000fd5b50505060408089015190516320bfeb5b60e11b81526001600160a01b038416925063417fd6b691620013a09160040190815260200190565b600060405180830381600087803b158015620013bb57600080fd5b505af1158015620013d0573d6000803e3d6000fd5b505060405163b0efc32960e01b8152600481018990526001600160a01b038416925063b0efc3299150602401600060405180830381600087803b1580156200141757600080fd5b505af11580156200142c573d6000803e3d6000fd5b50505050826001600160a01b03167f5ee7faa0ba36f1438dc92a625f01505a6cc8521a088cae7fcbe0988054a324b98389602001518a898b6040516200147795949392919062004090565b60405180910390a250505050505050565b600054610100900460ff1615808015620014a95750600054600160ff909116105b80620014ce5750620014bb3062002d2b565b158015620014ce575060005460ff166001145b620015335760405162461bcd60e51b815260206004820152602e60248201527f496e697469616c697a61626c653a20636f6e747261637420697320616c72656160448201526d191e481a5b9a5d1a585b1a5e995960921b606482015260840162000738565b6000805460ff19166001179055801562001557576000805461ff0019166101001790555b620015623362002d3a565b6200156d8262002d8d565b620015976000805160206200546183398151915260008051602062005441833981519152620026c2565b61019280546001600160a01b0319166001600160a01b038516179055801562000ea3576000805461ff0019169055604051600181527f7f26b83ff96e1f2b6a682f133852f6798a09c465da95921460cefb3847402498906020015b60405180910390a1505050565b60005b81811015620018ad5782828281811062001620576200162062004110565b62001638926020606090920201908101915062003a1c565b6001600160a01b03166316f0115b6040518163ffffffff1660e01b8152600401602060405180830381865afa15801562001676573d6000803e3d6000fd5b505050506040513d601f19601f820116820180604052508101906200169c919062003ee9565b6001600160a01b03166391d1485460008051602062005441833981519152336040518363ffffffff1660e01b8152600401620016da92919062003fcd565b602060405180830381865afa158015620016f8573d6000803e3d6000fd5b505050506040513d601f19601f820116820180604052508101906200171e919062003f1f565b6200173d5760405162461bcd60e51b8152600401620007389062003fe4565b82828281811062001752576200175262004110565b6200176a926020606090920201908101915062003a1c565b6001600160a01b031663e1884b0f8484848181106200178d576200178d62004110565b905060600201602001356040518263ffffffff1660e01b8152600401620017b691815260200190565b600060405180830381600087803b158015620017d157600080fd5b505af1158015620017e6573d6000803e3d6000fd5b50505050828282818110620017ff57620017ff62004110565b62001817926020606090920201908101915062003a1c565b6001600160a01b031663417fd6b68484848181106200183a576200183a62004110565b905060600201604001356040518263ffffffff1660e01b81526004016200186391815260200190565b600060405180830381600087803b1580156200187e57600080fd5b505af115801562001893573d6000803e3d6000fd5b505050508080620018a4906200413c565b91505062001602565b507f7e6169d470207a6b204933307d1fe4702e07a0834f17f7362fb1e24f901dc88c8282604051620018e192919062004158565b60405180910390a15050565b600080620018fa62002609565b6200190462002651565b6001600160a01b03851660009081526101936020526040902054859060ff16620019425760405162461bcd60e51b81526004016200073890620041bf565b8560006001600160a01b0316816001600160a01b0316632b71b4506040518163ffffffff1660e01b8152600401602060405180830381865afa1580156200198d573d6000803e3d6000fd5b505050506040513d601f19601f82011682018060405250810190620019b3919062003ee9565b6001600160a01b03161462001a125760405162461bcd60e51b815260206004820152602f60248201526000805160206200548183398151915260448201526e3c34b9ba39902527aa103a37b5b2b760891b606482015260840162000738565b6101925460009062001a2d906001600160a01b031662002dc2565b90506000886001600160a01b0316630bc6bffc6040518163ffffffff1660e01b8152600401602060405180830381865afa15801562001a70573d6000803e3d6000fd5b505050506040513d601f19601f8201168201806040525081019062001a96919062003ee9565b90506000826001600160a01b031663841370828b6001856001600160a01b031663313ce5676040518163ffffffff1660e01b8152600401602060405180830381865afa15801562001aeb573d6000803e3d6000fd5b505050506040513d601f19601f8201168201806040525081019062001b11919062003f3d565b8c6040518563ffffffff1660e01b815260040162001b33949392919062004209565b6020604051808303816000875af115801562001b53573d6000803e3d6000fd5b505050506040513d601f19601f8201168201806040525081019062001b79919062003ee9565b6101925490915060009062001b97906001600160a01b031662002dd1565b6001600160a01b03166376d4d7c68d84868e6040518563ffffffff1660e01b815260040162001bca949392919062004265565b6020604051808303816000875af115801562001bea573d6000803e3d6000fd5b505050506040513d601f19601f8201168201806040525081019062001c10919062003ee9565b604051630126845360e51b81529091506001600160a01b038516906324d08a609062001c43908590859060040162003ddb565b600060405180830381600087803b15801562001c5e57600080fd5b505af115801562001c73573d6000803e3d6000fd5b5050604051630ecbe20360e21b81526001600160a01b038e169250633b2f880c915062001ca890849060019060040162004291565b600060405180830381600087803b15801562001cc357600080fd5b505af115801562001cd8573d6000803e3d6000fd5b5050506001600160a01b038083166000908152610196602052604090819020805460ff191660011790555190841691507f099bb66ed93be0b6b29cdbd0be5388839a28e27d0d39dc43072a19d8a71ed9239062001d399084908f9062003ddb565b60405180910390a290965094505050505062001d556001606555565b94509492505050565b62001d6862001f08565b62001d875760405162461bcd60e51b8152600401620007389062003f73565b62000f9062002de0565b600082815260fb6020526040812062001dab908362002e20565b9392505050565b600091825260c9602090815260408084206001600160a01b0393909316845291905290205460ff1690565b6000805160206200546183398151915262001df881620025d7565b6001600160a01b03821662001e215760405162461bcd60e51b81526004016200073890620042ad565b6101925462001e39906001600160a01b031662002e2e565b6001600160a01b0316632f2ff15d60008051602062005421833981519152846040518363ffffffff1660e01b815260040162001e7792919062003fcd565b600060405180830381600087803b15801562001e9257600080fd5b505af115801562001ea7573d6000803e3d6000fd5b505050507fd09501348473474a20c772c79c653e1fd7e8b437e418fe235d277d2c8885325182604051620018e1919062003a6b565b610194818154811062001eee57600080fd5b6000918252602090912001546001600160a01b0316905081565b600062001f25600080516020620054418339815191523362001db2565b8062001f39575062001f3960003362001db2565b905090565b600062001f4b81620025d7565b62001f5a6101c4848462003965565b507f2567070ac9f6f65f8ca84dde489e75853a5bc36fb8044e0597a2f75eabee88308383604051620015f2929190620042fd565b6000805160206200546183398151915262001fa981620025d7565b6001600160a01b03821662001fd25760405162461bcd60e51b81526004016200073890620042ad565b6101925462001fea906001600160a01b031662002e2e565b6001600160a01b031663d547741f60008051602062005421833981519152846040518363ffffffff1660e01b81526004016200202892919062003fcd565b600060405180830381600087803b1580156200204357600080fd5b505af115801562002058573d6000803e3d6000fd5b505050507f05abd4719d2e9b1e5b0f772b7a3b26c9bc48ebaf9a66945092fe09602619aa6b82604051620018e1919062003a6b565b600081815260fb602052604081206200069c9062002e3d565b620020b18262000ea8565b620020bc81620025d7565b62000ea383836200273d565b620020d262002609565b336000908152610193602052604090205460ff166200214b5760405162461bcd60e51b815260206004820152602e60248201527f53656375726974697a6174696f6e4d616e616765723a204f6e6c79205365637560448201526d1c9a5d1a5e985d1a5bdb941bdbdb60921b606482015260840162000738565b6001600160a01b03818116600090815261019560205260409020541615620021cf5760405162461bcd60e51b815260206004820152603060248201527f53656375726974697a6174696f6e4d616e616765723a20706f7420757365642060448201526f199bdc88185b9bdd1a195c881c1bdbdb60821b606482015260840162000738565b6001600160a01b0381166000818152610195602052604080822080546001600160a01b0319163390811790915590519092917fc6dc08fde4be745ee1b3025914ee663853b06abf95b4a4d28ed10187d5d4841291a350565b6101c481815481106200223957600080fd5b600091825260209091200154905081565b6101925460009062002265906001600160a01b031662002e48565b6001600160a01b0316631852f200836101c46040518363ffffffff1660e01b81526004016200229692919062004337565b602060405180830381865afa158015620022b4573d6000803e3d6000fd5b505050506040513d601f19601f820116820180604052508101906200069c919062003f1f565b6000620022e662002609565b600080516020620054618339815191526200230181620025d7565b610192546000906200231c906001600160a01b031662002e57565b61019254604051919250600091600080516020620054c18339815191529162002356916001600160a01b0390911690889060240162004387565b60408051601f198184030181529190526020810180516001600160e01b03166001600160e01b031990931692909217909152905060006200239983838a62002e66565b6001600160a01b03811660008181526101936020526040808220805460ff19166001908117909155610194805491820181559092527fa6f1ac7ad7b125ba5a5e1c96b00ad6914f90a503b1ac3d85a9dadbb4c639df9290910180546001600160a01b0319168317905551632f2ff15d60e01b81529192508291632f2ff15d90620024399060008051602062005441833981519152908c9060040162003fcd565b600060405180830381600087803b1580156200245457600080fd5b505af115801562002469573d6000803e3d6000fd5b5050604051631b2b455f60e11b81526001600160a01b03841692506336568abe91506200249e90600090309060040162003fcd565b600060405180830381600087803b158015620024b957600080fd5b505af1158015620024ce573d6000803e3d6000fd5b50506040516001600160a01b03851692507f84beea356a8ed330e56f7d55aad6858501748effc667b5536021b83e1ca6bbf59150600090a2816001600160a01b03167f2b76fd396ea543a87445df41a6feefb7cbdf87f266f6549a708b2715bfac26918989806020019051810190620025489190620043ad565b604080516001600160a01b039384168152825190931660208085019190915282015163ffffffff168382015281015115156060808401919091520151608082015260a00160405180910390a250979650505050505050565b60006001600160e01b03198216637965db0b60e01b14806200069c57506301ffc9a760e01b6001600160e01b03198316146200069c565b620025e3813362002f79565b50565b61015f80546001600160a01b0319166001600160a01b0392909216919091179055565b60335460ff161562000f905760405162461bcd60e51b815260206004820152601060248201526f14185d5cd8589b194e881c185d5cd95960821b604482015260640162000738565b600260655403620026a55760405162461bcd60e51b815260206004820152601f60248201527f5265656e7472616e637947756172643a207265656e7472616e742063616c6c00604482015260640162000738565b6002606555565b60006200069c82600962002fdd565b6001606555565b6000620026cf8362000ea8565b600084815260c96020526040808220600101859055519192508391839186917fbd79b86ffe0ab8e8776151514217cd7cacd52c909f66475c3af44e129f0b00ff9190a4505050565b62002723828262003068565b600082815260fb6020526040902062000ea39082620030f2565b62002749828262003109565b600082815260fb6020526040902062000ea3908262003173565b6200276d6200318a565b6033805460ff191690557f5db9ee0a495bf2e6ff9c91a7834c1ba4fdd244a5e8aa4e537bd38aeae4b073aa335b604051620027a9919062003a6b565b60405180910390a1565b600080620027c062002609565b620027ca62002651565b6001600160a01b03851660009081526101936020526040902054859060ff16620028085760405162461bcd60e51b81526004016200073890620041bf565b8560006001600160a01b0316816001600160a01b031663febd60186040518163ffffffff1660e01b8152600401602060405180830381865afa15801562002853573d6000803e3d6000fd5b505050506040513d601f19601f8201168201806040525081019062002879919062003ee9565b6001600160a01b031614620028d85760405162461bcd60e51b815260206004820152602f60248201526000805160206200548183398151915260448201526e3c34b9ba399029a7aa103a37b5b2b760891b606482015260840162000738565b61019254600090620028f3906001600160a01b031662002dc2565b90506001600160a01b0381166200295b5760405162461bcd60e51b815260206004820152602560248201527f4e6f746520546f6b656e20466163746f727920776173206e6f742072656769736044820152641d195c995960da1b606482015260840162000738565b6101925460009062002976906001600160a01b031662002dd1565b6001600160a01b031603620029ce5760405162461bcd60e51b815260206004820152601e60248201527f54474520466163746f727920776173206e6f7420726567697374657265640000604482015260640162000738565b6000886001600160a01b0316630bc6bffc6040518163ffffffff1660e01b8152600401602060405180830381865afa15801562002a0f573d6000803e3d6000fd5b505050506040513d601f19601f8201168201806040525081019062002a35919062003ee9565b90506000826001600160a01b031663841370828b6000856001600160a01b031663313ce5676040518163ffffffff1660e01b8152600401602060405180830381865afa15801562002a8a573d6000803e3d6000fd5b505050506040513d601f19601f8201168201806040525081019062002ab0919062003f3d565b8c6040518563ffffffff1660e01b815260040162002ad2949392919062004209565b6020604051808303816000875af115801562002af2573d6000803e3d6000fd5b505050506040513d601f19601f8201168201806040525081019062002b18919062003ee9565b90506001600160a01b03811662002b6e5760405162461bcd60e51b815260206004820152601960248201527814d3d5081d1bdad95b881b5d5cdd0818994818dc99585d1959603a1b604482015260640162000738565b6101925460009062002b89906001600160a01b031662002dd1565b6001600160a01b03166376d4d7c68d84868e6040518563ffffffff1660e01b815260040162002bbc949392919062004265565b6020604051808303816000875af115801562002bdc573d6000803e3d6000fd5b505050506040513d601f19601f8201168201806040525081019062002c02919062003ee9565b604051630126845360e51b81529091506001600160a01b038516906324d08a609062002c35908590859060040162003ddb565b600060405180830381600087803b15801562002c5057600080fd5b505af115801562002c65573d6000803e3d6000fd5b5050604051630ecbe20360e21b81526001600160a01b038e169250633b2f880c915062002c9a90849060009060040162004291565b600060405180830381600087803b15801562002cb557600080fd5b505af115801562002cca573d6000803e3d6000fd5b5050506001600160a01b038083166000908152610196602052604090819020805460ff191660011790555190841691507f9eb8080cc435d0abaf0670d0bc43c907e3459b6baa48729c998c397bafa915149062001d399084908f9062003ddb565b6001600160a01b03163b151590565b600054610100900460ff1662002d645760405162461bcd60e51b815260040162000738906200443b565b62002d6e620031d5565b62002d786200320b565b62002d8262003235565b620025e3816200325f565b600054610100900460ff1662002db75760405162461bcd60e51b815260040162000738906200443b565b620025e38162003308565b60006200069c82600262002fdd565b60006200069c82600362002fdd565b62002dea62002609565b6033805460ff191660011790557f62e78cea01bee320cd4e420270b5ea74000d11b0c9f74754ebdbfc544b05a2586200279a3390565b600062001dab838362003332565b60006200069c82600562002fdd565b60006200069c825490565b60006200069c82600862002fdd565b60006200069c82600162002fdd565b60008062002ef06000846040518060200162002e8290620039b5565b601f1982820381018352601f9091011660408181526001600160a01b038b16602083015230908201526060808201526000608082015260a00160408051601f198184030181529082905262002edb929160200162004486565b6040516020818303038152906040526200335f565b61015f546040516308f2839760e41b81529192506001600160a01b0380841692638f2839709262002f2692169060040162003a6b565b600060405180830381600087803b15801562002f4157600080fd5b505af115801562002f56573d6000803e3d6000fd5b5062002f70925050506001600160a01b0382168562003465565b50949350505050565b62002f85828262001db2565b620006ba5762002f9581620034ab565b62002fa2836020620034be565b60405160200162002fb5929190620044b9565b60408051601f198184030181529082905262461bcd60e51b825262000738916004016200452c565b6000826001600160a01b031663bcaa0c5583600981111562003003576200300362003f5d565b6040516001600160e01b031960e084901b16815260ff9091166004820152602401602060405180830381865afa15801562003042573d6000803e3d6000fd5b505050506040513d601f19601f8201168201806040525081019062001dab919062003ee9565b62003074828262001db2565b620006ba57600082815260c9602090815260408083206001600160a01b03851684529091529020805460ff19166001179055620030ae3390565b6001600160a01b0316816001600160a01b0316837f2f8788117e7eff1d82e926ec794901d17c78024a50270940304540a733656f0d60405160405180910390a45050565b600062001dab836001600160a01b03841662003677565b62003115828262001db2565b15620006ba57600082815260c9602090815260408083206001600160a01b0385168085529252808320805460ff1916905551339285917ff6391f5c32d9c69d2a47ea670b442974b53935d1edc7fd64eb21e047a839171b9190a45050565b600062001dab836001600160a01b038416620036c9565b60335460ff1662000f905760405162461bcd60e51b815260206004820152601460248201527314185d5cd8589b194e881b9bdd081c185d5cd95960621b604482015260640162000738565b600054610100900460ff16620031ff5760405162461bcd60e51b815260040162000738906200443b565b6033805460ff19169055565b600054610100900460ff16620026bb5760405162461bcd60e51b815260040162000738906200443b565b600054610100900460ff1662000f905760405162461bcd60e51b815260040162000738906200443b565b600054610100900460ff16620032895760405162461bcd60e51b815260040162000738906200443b565b6001600160a01b0381166200329b5750335b620032a8600033620037cd565b620032c36000805160206200544183398151915282620037cd565b620032de6000805160206200544183398151915280620026c2565b620025e3600080516020620054a183398151915260008051602062005441833981519152620026c2565b600054610100900460ff16620025e65760405162461bcd60e51b815260040162000738906200443b565b60008260000182815481106200334c576200334c62004110565b9060005260206000200154905092915050565b600083471015620033b35760405162461bcd60e51b815260206004820152601d60248201527f437265617465323a20696e73756666696369656e742062616c616e6365000000604482015260640162000738565b8151600003620034065760405162461bcd60e51b815260206004820181905260248201527f437265617465323a2062797465636f6465206c656e677468206973207a65726f604482015260640162000738565b8282516020840186f590506001600160a01b03811662001dab5760405162461bcd60e51b8152602060048201526019602482015278437265617465323a204661696c6564206f6e206465706c6f7960381b604482015260640162000738565b606062001dab838360006040518060400160405280601e81526020017f416464726573733a206c6f772d6c6576656c2063616c6c206661696c65640000815250620037d9565b60606200069c6001600160a01b03831660145b60606000620034cf83600262004541565b620034dc9060026200455b565b6001600160401b03811115620034f657620034f662003aef565b6040519080825280601f01601f19166020018201604052801562003521576020820181803683370190505b509050600360fc1b816000815181106200353f576200353f62004110565b60200101906001600160f81b031916908160001a905350600f60fb1b8160018151811062003571576200357162004110565b60200101906001600160f81b031916908160001a90535060006200359784600262004541565b620035a49060016200455b565b90505b600181111562003626576f181899199a1a9b1b9c1cb0b131b232b360811b85600f1660108110620035dc57620035dc62004110565b1a60f81b828281518110620035f557620035f562004110565b60200101906001600160f81b031916908160001a90535060049490941c936200361e8162004571565b9050620035a7565b50831562001dab5760405162461bcd60e51b815260206004820181905260248201527f537472696e67733a20686578206c656e67746820696e73756666696369656e74604482015260640162000738565b6000818152600183016020526040812054620036c0575081546001818101845560008481526020808220909301849055845484825282860190935260409020919091556200069c565b5060006200069c565b60008181526001830160205260408120548015620037c2576000620036f06001836200458b565b855490915060009062003706906001906200458b565b9050818114620037725760008660000182815481106200372a576200372a62004110565b906000526020600020015490508087600001848154811062003750576200375062004110565b6000918252602080832090910192909255918252600188019052604090208390555b8554869080620037865762003786620045a1565b6001900381819060005260206000200160009055905585600101600086815260200190815260200160002060009055600193505050506200069c565b60009150506200069c565b620006ba828262002717565b6060824710156200383c5760405162461bcd60e51b815260206004820152602660248201527f416464726573733a20696e73756666696369656e742062616c616e636520666f6044820152651c8818d85b1b60d21b606482015260840162000738565b600080866001600160a01b031685876040516200385a9190620045b7565b60006040518083038185875af1925050503d806000811462003899576040519150601f19603f3d011682016040523d82523d6000602084013e6200389e565b606091505b5091509150620038b187838387620038be565b925050505b949350505050565b60608315620039325782516000036200392a57620038dc8562002d2b565b6200392a5760405162461bcd60e51b815260206004820152601d60248201527f416464726573733a2063616c6c20746f206e6f6e2d636f6e7472616374000000604482015260640162000738565b5081620038b6565b620038b68383815115620039495781518083602001fd5b8060405162461bcd60e51b81526004016200073891906200452c565b828054828255906000526020600020908101928215620039a3579160200282015b82811115620039a357823582559160200191906001019062003986565b50620039b1929150620039c3565b5090565b610e4b80620045d683390190565b5b80821115620039b15760008155600101620039c4565b600060208284031215620039ed57600080fd5b81356001600160e01b03198116811462001dab57600080fd5b6001600160a01b0381168114620025e357600080fd5b60006020828403121562003a2f57600080fd5b813562001dab8162003a06565b6000806040838503121562003a5057600080fd5b823562003a5d8162003a06565b946020939093013593505050565b6001600160a01b0391909116815260200190565b6000806040838503121562003a9357600080fd5b50508035926020909101359150565b60006020828403121562003ab557600080fd5b5035919050565b6000806040838503121562003ad057600080fd5b82359150602083013562003ae48162003a06565b809150509250929050565b634e487b7160e01b600052604160045260246000fd5b60405160a081016001600160401b038111828210171562003b2a5762003b2a62003aef565b60405290565b60006001600160401b038084111562003b4d5762003b4d62003aef565b604051601f8501601f19908116603f0116810190828211818310171562003b785762003b7862003aef565b8160405280935085815286868601111562003b9257600080fd5b858560208301376000602087830101525050509392505050565b600082601f83011262003bbe57600080fd5b62001dab8383356020850162003b30565b60ff81168114620025e357600080fd5b60008060006060848603121562003bf557600080fd5b83356001600160401b038082111562003c0d57600080fd5b9085019060a0828803121562003c2257600080fd5b62003c2c62003b05565b823562003c398162003a06565b8152602083013562003c4b8162003a06565b60208201526040838101359082015260608301358281111562003c6d57600080fd5b62003c7b8982860162003bac565b6060830152506080830135925062003c938362003bcf565b60808101929092525095602085013595506040909401359392505050565b6000806040838503121562003cc557600080fd5b823562003cd28162003a06565b9150602083013562003ae48162003a06565b6000806020838503121562003cf857600080fd5b82356001600160401b038082111562003d1057600080fd5b818501915085601f83011262003d2557600080fd5b81358181111562003d3557600080fd5b86602060608302850101111562003d4b57600080fd5b60209290920196919550909350505050565b6000806000806080858703121562003d7457600080fd5b843562003d818162003a06565b9350602085013562003d938162003a06565b9250604085013562003da58162003bcf565b915060608501356001600160401b0381111562003dc157600080fd5b62003dcf8782880162003bac565b91505092959194509250565b6001600160a01b0392831681529116602082015260400190565b6000806020838503121562003e0957600080fd5b82356001600160401b038082111562003e2157600080fd5b818501915085601f83011262003e3657600080fd5b81358181111562003e4657600080fd5b8660208260051b850101111562003d4b57600080fd5b60008060006060848603121562003e7257600080fd5b83359250602084013562003e868162003a06565b915060408401356001600160401b0381111562003ea257600080fd5b8401601f8101861362003eb457600080fd5b62003ec58682356020840162003b30565b9150509250925092565b60006020828403121562003ee257600080fd5b5051919050565b60006020828403121562003efc57600080fd5b815162001dab8162003a06565b8051801515811462003f1a57600080fd5b919050565b60006020828403121562003f3257600080fd5b62001dab8262003f09565b60006020828403121562003f5057600080fd5b815162001dab8162003bcf565b634e487b7160e01b600052602160045260246000fd5b6020808252603a908201527f556e74616e676c6564426173653a204d75737420686176652061646d696e207260408201527937b632903a37903832b93337b936903a3434b99030b1ba34b7b760311b606082015260800190565b9182526001600160a01b0316602082015260400190565b60208082526038908201527f53656375726974697a6174696f6e4d616e616765723a204e6f742074686520636040820152771bdb9d1c9bdb1b195c881bd9881d1a19481c1c9bda9958dd60421b606082015260800190565b60005b83811015620040595781810151838201526020016200403f565b50506000910152565b600081518084526200407c8160208601602086016200403c565b601f01601f19169290920160200192915050565b600060018060a01b038088168352808716602084015260a060408401528086511660a08401528060208701511660c084015250604085015160e0830152606085015160a0610100840152620040ea61014084018262004062565b60809687015160ff16610120850152606084019590955250509092019190915292915050565b634e487b7160e01b600052603260045260246000fd5b634e487b7160e01b600052601160045260246000fd5b60006001820162004151576200415162004126565b5060010190565b6020808252818101839052600090604080840186845b87811015620041b2578135620041848162003a06565b6001600160a01b0316835281850135858401528382013584840152606092830192909101906001016200416e565b5090979650505050505050565b6020808252602a908201527f53656375726974697a6174696f6e4d616e616765723a20506f6f6c20646f6573604082015269081b9bdd08195e1a5cdd60b21b606082015260800190565b6001600160a01b03851681526000600285106200423657634e487b7160e01b600052602160045260246000fd5b84602083015260ff84166040830152608060608301526200425b608083018462004062565b9695505050505050565b6001600160a01b03948516815292841660208401529216604082015260ff909116606082015260800190565b6001600160a01b0392909216825260ff16602082015260400190565b60208082526030908201527f53656375726974697a6174696f6e4d616e616765723a20496e76616c6964207660408201526f616c696461746f72206164647265737360801b606082015260800190565b6020808252810182905260006001600160fb1b038311156200431e57600080fd5b8260051b80856040850137919091016040019392505050565b6001600160a01b0383168152604060208083018290528354918301829052600084815281812090929091906060850190845b81811015620041b25784548352600194850194928401920162004369565b6001600160a01b0383168152604060208201819052600090620038b69083018462004062565b600060808284031215620043c057600080fd5b604051608081016001600160401b0381118282101715620043e557620043e562003aef565b6040528251620043f58162003a06565b8152602083015163ffffffff811681146200440f57600080fd5b6020820152620044226040840162003f09565b6040820152606083015160608201528091505092915050565b6020808252602b908201527f496e697469616c697a61626c653a20636f6e7472616374206973206e6f74206960408201526a6e697469616c697a696e6760a81b606082015260800190565b600083516200449a8184602088016200403c565b835190830190620044b08183602088016200403c565b01949350505050565b76020b1b1b2b9b9a1b7b73a3937b61d1030b1b1b7bab73a1604d1b815260008351620044ed8160178501602088016200403c565b7001034b99036b4b9b9b4b733903937b6329607d1b6017918401918201528351620045208160288401602088016200403c565b01602801949350505050565b60208152600062001dab602083018462004062565b80820281158282048414176200069c576200069c62004126565b808201808211156200069c576200069c62004126565b60008162004583576200458362004126565b506000190190565b818103818111156200069c576200069c62004126565b634e487b7160e01b600052603160045260246000fd5b60008251620045cb8184602087016200403c565b919091019291505056fe608060405260405162000e4b38038062000e4b833981016040819052620000269162000433565b828162000036828260006200004d565b50620000449050826200007f565b50505062000566565b6200005883620000f1565b600082511180620000665750805b156200007a5762000078838362000133565b505b505050565b7f7e644d79422f17c01e4894b5f4f588d331ebfa28653d42ae832dc59e38c9798f620000c160008051602062000e04833981519152546001600160a01b031690565b604080516001600160a01b03928316815291841660208301520160405180910390a1620000ee8162000162565b50565b620000fc8162000200565b6040516001600160a01b038216907fbc7cd75a20ee27fd9adebab32041f755214dbc6bffa90cc0225b39da2e5c2d3b90600090a250565b60606200015b838360405180606001604052806027815260200162000e246027913962000297565b9392505050565b6001600160a01b038116620001cd5760405162461bcd60e51b815260206004820152602660248201527f455243313936373a206e65772061646d696e20697320746865207a65726f206160448201526564647265737360d01b60648201526084015b60405180910390fd5b8060008051602062000e048339815191525b80546001600160a01b0319166001600160a01b039290921691909117905550565b6200020b8162000316565b6200026f5760405162461bcd60e51b815260206004820152602d60248201527f455243313936373a206e657720696d706c656d656e746174696f6e206973206e60448201526c1bdd08184818dbdb9d1c9858dd609a1b6064820152608401620001c4565b807f360894a13ba1a3210667c828492db98dca3e2076cc3735a920a3ca505d382bbc620001df565b6060600080856001600160a01b031685604051620002b6919062000513565b600060405180830381855af49150503d8060008114620002f3576040519150601f19603f3d011682016040523d82523d6000602084013e620002f8565b606091505b5090925090506200030c8683838762000325565b9695505050505050565b6001600160a01b03163b151590565b60608315620003995782516000036200039157620003438562000316565b620003915760405162461bcd60e51b815260206004820152601d60248201527f416464726573733a2063616c6c20746f206e6f6e2d636f6e74726163740000006044820152606401620001c4565b5081620003a5565b620003a58383620003ad565b949350505050565b815115620003be5781518083602001fd5b8060405162461bcd60e51b8152600401620001c4919062000531565b80516001600160a01b0381168114620003f257600080fd5b919050565b634e487b7160e01b600052604160045260246000fd5b60005b838110156200042a57818101518382015260200162000410565b50506000910152565b6000806000606084860312156200044957600080fd5b6200045484620003da565b92506200046460208501620003da565b60408501519092506001600160401b03808211156200048257600080fd5b818601915086601f8301126200049757600080fd5b815181811115620004ac57620004ac620003f7565b604051601f8201601f19908116603f01168101908382118183101715620004d757620004d7620003f7565b81604052828152896020848701011115620004f157600080fd5b620005048360208301602088016200040d565b80955050505050509250925092565b60008251620005278184602087016200040d565b9190910192915050565b6020815260008251806020840152620005528160408501602087016200040d565b601f01601f19169190910160400192915050565b61088e80620005766000396000f3fe60806040523661001357610011610017565b005b6100115b61001f610169565b6001600160a01b0316330361015f5760606001600160e01b0319600035166364d3180d60e11b810161005a5761005361018a565b9150610157565b63587086bd60e11b6001600160e01b031982160161007a576100536101e1565b63070d7c6960e41b6001600160e01b031982160161009a57610053610227565b621eb96f60e61b6001600160e01b03198216016100b957610053610258565b63a39f25e560e01b6001600160e01b03198216016100d957610053610298565b60405162461bcd60e51b815260206004820152604260248201527f5472616e73706172656e745570677261646561626c6550726f78793a2061646d60448201527f696e2063616e6e6f742066616c6c6261636b20746f2070726f78792074617267606482015261195d60f21b608482015260a4015b60405180910390fd5b815160208301f35b6101676102ac565b565b60006000805160206107f28339815191525b546001600160a01b0316919050565b60606101946102bc565b60006101a33660048184610646565b8101906101b0919061068c565b90506101cd816040518060200160405280600081525060006102c7565b505060408051602081019091526000815290565b60606000806101f33660048184610646565b81019061020091906106bd565b91509150610210828260016102c7565b604051806020016040528060008152509250505090565b60606102316102bc565b60006102403660048184610646565b81019061024d919061068c565b90506101cd816102f3565b60606102626102bc565b600061026c610169565b604080516001600160a01b03831660208201529192500160405160208183030381529060405291505090565b60606102a26102bc565b600061026c61034a565b6101676102b761034a565b610359565b341561016757600080fd5b6102d08361037d565b6000825111806102dd5750805b156102ee576102ec83836103bd565b505b505050565b7f7e644d79422f17c01e4894b5f4f588d331ebfa28653d42ae832dc59e38c9798f61031c610169565b604080516001600160a01b03928316815291841660208301520160405180910390a1610347816103e9565b50565b6000610354610480565b905090565b3660008037600080366000845af43d6000803e808015610378573d6000f35b3d6000fd5b61038681610496565b6040516001600160a01b038216907fbc7cd75a20ee27fd9adebab32041f755214dbc6bffa90cc0225b39da2e5c2d3b90600090a250565b60606103e2838360405180606001604052806027815260200161083260279139610516565b9392505050565b6001600160a01b03811661044e5760405162461bcd60e51b815260206004820152602660248201527f455243313936373a206e65772061646d696e20697320746865207a65726f206160448201526564647265737360d01b606482015260840161014e565b806000805160206107f28339815191525b80546001600160a01b0319166001600160a01b039290921691909117905550565b600060008051602061081283398151915261017b565b61049f8161058e565b6105015760405162461bcd60e51b815260206004820152602d60248201527f455243313936373a206e657720696d706c656d656e746174696f6e206973206e60448201526c1bdd08184818dbdb9d1c9858dd609a1b606482015260840161014e565b8060008051602061081283398151915261045f565b6060600080856001600160a01b03168560405161053391906107a2565b600060405180830381855af49150503d806000811461056e576040519150601f19603f3d011682016040523d82523d6000602084013e610573565b606091505b50915091506105848683838761059d565b9695505050505050565b6001600160a01b03163b151590565b6060831561060a578251600003610603576105b78561058e565b6106035760405162461bcd60e51b815260206004820152601d60248201527f416464726573733a2063616c6c20746f206e6f6e2d636f6e7472616374000000604482015260640161014e565b5081610614565b610614838361061c565b949350505050565b81511561062c5781518083602001fd5b8060405162461bcd60e51b815260040161014e91906107be565b6000808585111561065657600080fd5b8386111561066357600080fd5b5050820193919092039150565b80356001600160a01b038116811461068757600080fd5b919050565b60006020828403121561069e57600080fd5b6103e282610670565b634e487b7160e01b600052604160045260246000fd5b600080604083850312156106d057600080fd5b6106d983610670565b915060208301356001600160401b03808211156106f557600080fd5b818501915085601f83011261070957600080fd5b81358181111561071b5761071b6106a7565b604051601f8201601f19908116603f01168101908382118183101715610743576107436106a7565b8160405282815288602084870101111561075c57600080fd5b8260208601602083013760006020848301015280955050505050509250929050565b60005b83811015610799578181015183820152602001610781565b50506000910152565b600082516107b481846020870161077e565b9190910192915050565b60208152600082518060208401526107dd81604085016020870161077e565b601f01601f1916919091016040019291505056feb53127684a568b3173ae13b9f8a6016e243e63b6e8ee1178d6a717850b5d6103360894a13ba1a3210667c828492db98dca3e2076cc3735a920a3ca505d382bbc416464726573733a206c6f772d6c6576656c2064656c65676174652063616c6c206661696c6564a2646970667358221220836308dad1721966c17e42c0dcd77c72082ea81de3ef95413793e27b5ec9827564736f6c63430008130033b53127684a568b3173ae13b9f8a6016e243e63b6e8ee1178d6a717850b5d6103416464726573733a206c6f772d6c6576656c2064656c65676174652063616c6c206661696c656421702c8af46127c7fa207f89d0b0a8441bb32959a0ac7df790e9ab1a25c98926b19546dff01e856fb3f010c267a7b1c60363cf8a4664e21cc89c26224620214e3e9c05fb0f9da4414e033bb9bf190a6e2072adf7e3077394fce683220513b8d753656375726974697a6174696f6e4d616e616765723a20416c7265616479206559abfac6520ec36a6556b2a4dd949cc40007459bcd5cd2507f1e5cc77b6bc97ed1f578946981755ee8ffb900bf2e79846feedf4642746695df147d68656840a3a2646970667358221220a6f3f8f81553f2d6cf7c4a73db15b6fe683700978535d4208884773553a76d0264736f6c63430008130033",
  "devdoc": {
    "author": "Untangled Team",
    "events": {
      "Initialized(uint8)": {
        "details": "Triggered when the contract has been initialized or reinitialized."
      },
      "Paused(address)": {
        "details": "Emitted when the pause is triggered by `account`."
      },
      "RoleAdminChanged(bytes32,bytes32,bytes32)": {
        "details": "Emitted when `newAdminRole` is set as ``role``'s admin role, replacing `previousAdminRole` `DEFAULT_ADMIN_ROLE` is the starting admin for all roles, despite {RoleAdminChanged} not being emitted signaling this. _Available since v3.1._"
      },
      "RoleGranted(bytes32,address,address)": {
        "details": "Emitted when `account` is granted `role`. `sender` is the account that originated the contract call, an admin role bearer except when using {AccessControl-_setupRole}."
      },
      "RoleRevoked(bytes32,address,address)": {
        "details": "Emitted when `account` is revoked `role`. `sender` is the account that originated the contract call:   - if using `revokeRole`, it is the admin role bearer   - if using `renounceRole`, it is the role bearer (i.e. `account`)"
      },
      "Unpaused(address)": {
        "details": "Emitted when the pause is lifted by `account`."
      }
    },
    "kind": "dev",
    "methods": {
      "buyTokens(address,uint256)": {
        "params": {
          "currencyAmount": "Currency amount investor will pay",
          "tgeAddress": "SOT/JOT token sale instance"
        }
      },
      "getRoleAdmin(bytes32)": {
        "details": "Returns the admin role that controls `role`. See {grantRole} and {revokeRole}. To change a role's admin, use {_setRoleAdmin}."
      },
      "getRoleMember(bytes32,uint256)": {
        "details": "Returns one of the accounts that have `role`. `index` must be a value between 0 and {getRoleMemberCount}, non-inclusive. Role bearers are not sorted in any particular way, and their ordering may change at any point. WARNING: When using {getRoleMember} and {getRoleMemberCount}, make sure you perform all queries on the same block. See the following https://forum.openzeppelin.com/t/iterating-over-elements-on-enumerableset-in-openzeppelin-contracts/2296[forum post] for more information."
      },
      "getRoleMemberCount(bytes32)": {
        "details": "Returns the number of accounts that have `role`. Can be used together with {getRoleMember} to enumerate all bearers of a role."
      },
      "grantRole(bytes32,address)": {
        "details": "Grants `role` to `account`. If `account` had not been already granted `role`, emits a {RoleGranted} event. Requirements: - the caller must have ``role``'s admin role. May emit a {RoleGranted} event."
      },
      "hasRole(bytes32,address)": {
        "details": "Returns `true` if `account` has been granted `role`."
      },
      "newPoolInstance(bytes32,address,bytes)": {
        "details": "Creates a new instance of a securitization pool. Set msg sender as owner of the new pool",
        "params": {
          "params": "params data of the securitization pool"
        }
      },
      "paused()": {
        "details": "Returns true if the contract is paused, and false otherwise."
      },
      "registerPot(address)": {
        "details": "Register pot to pool instance",
        "params": {
          "pot": "Pool linked wallet"
        }
      },
      "renounceRole(bytes32,address)": {
        "details": "Revokes `role` from the calling account. Roles are often managed via {grantRole} and {revokeRole}: this function's purpose is to provide a mechanism for accounts to lose their privileges if they are compromised (such as when a trusted device is misplaced). If the calling account had been revoked `role`, emits a {RoleRevoked} event. Requirements: - the caller must be `account`. May emit a {RoleRevoked} event."
      },
      "revokeRole(bytes32,address)": {
        "details": "Revokes `role` from `account`. If `account` had been granted `role`, emits a {RoleRevoked} event. Requirements: - the caller must have ``role``'s admin role. May emit a {RoleRevoked} event."
      },
      "setUpTGEForJOT((address,address,uint256,string,uint8),uint256,uint256)": {
        "params": {
          "cap": "Cap limit can buy",
          "initialJOTAmount": "Minimum amount of JOT raised in currency before SOT can start",
          "tgeParam": "Parameters for TGE"
        }
      },
      "setUpTGEForSOT((address,address,uint256,string,uint8),uint256,uint256)": {
        "params": {
          "cap": "Cap limit can buy",
          "interestRate": "Interest rate of the token",
          "tgeParam": "Parameters for TGE"
        }
      },
      "supportsInterface(bytes4)": {
        "details": "See {IERC165-supportsInterface}."
      }
    },
    "title": "SecuritizationManager",
    "version": 1
  },
  "userdoc": {
    "kind": "user",
    "methods": {
      "buyTokens(address,uint256)": {
        "notice": "Investor bid for SOT or JOT token"
      },
      "hasAllowedUID(address)": {
        "notice": "Check if an user has valid UID type"
      },
      "newPoolInstance(bytes32,address,bytes)": {
        "notice": "Creates a new securitization pool"
      },
      "setUpTGEForJOT((address,address,uint256,string,uint8),uint256,uint256)": {
        "notice": "sets up the token generation event (TGE) for the junior tranche (JOT) of a securitization pool with additional configuration parameters"
      },
      "setUpTGEForSOT((address,address,uint256,string,uint8),uint256,uint256)": {
        "notice": "Sets up the token generation event (TGE) for the senior tranche (SOT) of a securitization pool with additional configuration parameters"
      }
    },
    "notice": "You can use this contract for creating new pool, setting up note toke sale, buying note token",
    "version": 1
  },
  "storageLayout": {
    "storage": [
      {
        "astId": 759,
        "contract": "contracts/protocol/pool/SecuritizationManager.sol:SecuritizationManager",
        "label": "_initialized",
        "offset": 0,
        "slot": "0",
        "type": "t_uint8"
      },
      {
        "astId": 762,
        "contract": "contracts/protocol/pool/SecuritizationManager.sol:SecuritizationManager",
        "label": "_initializing",
        "offset": 1,
        "slot": "0",
        "type": "t_bool"
      },
      {
        "astId": 5888,
        "contract": "contracts/protocol/pool/SecuritizationManager.sol:SecuritizationManager",
        "label": "__gap",
        "offset": 0,
        "slot": "1",
        "type": "t_array(t_uint256)50_storage"
      },
      {
        "astId": 942,
        "contract": "contracts/protocol/pool/SecuritizationManager.sol:SecuritizationManager",
        "label": "_paused",
        "offset": 0,
        "slot": "51",
        "type": "t_bool"
      },
      {
        "astId": 1047,
        "contract": "contracts/protocol/pool/SecuritizationManager.sol:SecuritizationManager",
        "label": "__gap",
        "offset": 0,
        "slot": "52",
        "type": "t_array(t_uint256)49_storage"
      },
      {
        "astId": 1062,
        "contract": "contracts/protocol/pool/SecuritizationManager.sol:SecuritizationManager",
        "label": "_status",
        "offset": 0,
        "slot": "101",
        "type": "t_uint256"
      },
      {
        "astId": 1131,
        "contract": "contracts/protocol/pool/SecuritizationManager.sol:SecuritizationManager",
        "label": "__gap",
        "offset": 0,
        "slot": "102",
        "type": "t_array(t_uint256)49_storage"
      },
      {
        "astId": 7178,
        "contract": "contracts/protocol/pool/SecuritizationManager.sol:SecuritizationManager",
        "label": "__gap",
        "offset": 0,
        "slot": "151",
        "type": "t_array(t_uint256)50_storage"
      },
      {
        "astId": 184,
        "contract": "contracts/protocol/pool/SecuritizationManager.sol:SecuritizationManager",
        "label": "_roles",
        "offset": 0,
        "slot": "201",
        "type": "t_mapping(t_bytes32,t_struct(RoleData)179_storage)"
      },
      {
        "astId": 479,
        "contract": "contracts/protocol/pool/SecuritizationManager.sol:SecuritizationManager",
        "label": "__gap",
        "offset": 0,
        "slot": "202",
        "type": "t_array(t_uint256)49_storage"
      },
      {
        "astId": 33,
        "contract": "contracts/protocol/pool/SecuritizationManager.sol:SecuritizationManager",
        "label": "_roleMembers",
        "offset": 0,
        "slot": "251",
        "type": "t_mapping(t_bytes32,t_struct(AddressSet)8488_storage)"
      },
      {
        "astId": 143,
        "contract": "contracts/protocol/pool/SecuritizationManager.sol:SecuritizationManager",
        "label": "__gap",
        "offset": 0,
        "slot": "252",
        "type": "t_array(t_uint256)49_storage"
      },
      {
        "astId": 12741,
        "contract": "contracts/protocol/pool/SecuritizationManager.sol:SecuritizationManager",
        "label": "__gap",
        "offset": 0,
        "slot": "301",
        "type": "t_array(t_uint256)50_storage"
      },
      {
        "astId": 12325,
        "contract": "contracts/protocol/pool/SecuritizationManager.sol:SecuritizationManager",
        "label": "factoryAdmin",
        "offset": 0,
        "slot": "351",
        "type": "t_address"
      },
      {
        "astId": 12421,
        "contract": "contracts/protocol/pool/SecuritizationManager.sol:SecuritizationManager",
        "label": "__gap",
        "offset": 0,
        "slot": "352",
        "type": "t_array(t_uint256)50_storage"
      },
      {
        "astId": 28860,
        "contract": "contracts/protocol/pool/SecuritizationManager.sol:SecuritizationManager",
        "label": "registry",
        "offset": 0,
        "slot": "402",
        "type": "t_contract(Registry)31579"
      },
      {
        "astId": 28865,
        "contract": "contracts/protocol/pool/SecuritizationManager.sol:SecuritizationManager",
        "label": "isExistingPools",
        "offset": 0,
        "slot": "403",
        "type": "t_mapping(t_address,t_bool)"
      },
      {
        "astId": 28869,
        "contract": "contracts/protocol/pool/SecuritizationManager.sol:SecuritizationManager",
        "label": "pools",
        "offset": 0,
        "slot": "404",
        "type": "t_array(t_address)dyn_storage"
      },
      {
        "astId": 28874,
        "contract": "contracts/protocol/pool/SecuritizationManager.sol:SecuritizationManager",
        "label": "potToPool",
        "offset": 0,
        "slot": "405",
        "type": "t_mapping(t_address,t_address)"
      },
      {
        "astId": 28879,
        "contract": "contracts/protocol/pool/SecuritizationManager.sol:SecuritizationManager",
        "label": "isExistingTGEs",
        "offset": 0,
        "slot": "406",
        "type": "t_mapping(t_address,t_bool)"
      },
      {
        "astId": 28883,
        "contract": "contracts/protocol/pool/SecuritizationManager.sol:SecuritizationManager",
        "label": "__gap",
        "offset": 0,
        "slot": "407",
        "type": "t_array(t_uint256)45_storage"
      },
      {
        "astId": 28908,
        "contract": "contracts/protocol/pool/SecuritizationManager.sol:SecuritizationManager",
        "label": "allowedUIDTypes",
        "offset": 0,
        "slot": "452",
        "type": "t_array(t_uint256)dyn_storage"
      }
    ],
    "types": {
      "t_address": {
        "encoding": "inplace",
        "label": "address",
        "numberOfBytes": "20"
      },
      "t_array(t_address)dyn_storage": {
        "base": "t_address",
        "encoding": "dynamic_array",
        "label": "address[]",
        "numberOfBytes": "32"
      },
      "t_array(t_bytes32)dyn_storage": {
        "base": "t_bytes32",
        "encoding": "dynamic_array",
        "label": "bytes32[]",
        "numberOfBytes": "32"
      },
      "t_array(t_uint256)45_storage": {
        "base": "t_uint256",
        "encoding": "inplace",
        "label": "uint256[45]",
        "numberOfBytes": "1440"
      },
      "t_array(t_uint256)49_storage": {
        "base": "t_uint256",
        "encoding": "inplace",
        "label": "uint256[49]",
        "numberOfBytes": "1568"
      },
      "t_array(t_uint256)50_storage": {
        "base": "t_uint256",
        "encoding": "inplace",
        "label": "uint256[50]",
        "numberOfBytes": "1600"
      },
      "t_array(t_uint256)dyn_storage": {
        "base": "t_uint256",
        "encoding": "dynamic_array",
        "label": "uint256[]",
        "numberOfBytes": "32"
      },
      "t_bool": {
        "encoding": "inplace",
        "label": "bool",
        "numberOfBytes": "1"
      },
      "t_bytes32": {
        "encoding": "inplace",
        "label": "bytes32",
        "numberOfBytes": "32"
      },
      "t_contract(Registry)31579": {
        "encoding": "inplace",
        "label": "contract Registry",
        "numberOfBytes": "20"
      },
      "t_mapping(t_address,t_address)": {
        "encoding": "mapping",
        "key": "t_address",
        "label": "mapping(address => address)",
        "numberOfBytes": "32",
        "value": "t_address"
      },
      "t_mapping(t_address,t_bool)": {
        "encoding": "mapping",
        "key": "t_address",
        "label": "mapping(address => bool)",
        "numberOfBytes": "32",
        "value": "t_bool"
      },
      "t_mapping(t_bytes32,t_struct(AddressSet)8488_storage)": {
        "encoding": "mapping",
        "key": "t_bytes32",
        "label": "mapping(bytes32 => struct EnumerableSetUpgradeable.AddressSet)",
        "numberOfBytes": "32",
        "value": "t_struct(AddressSet)8488_storage"
      },
      "t_mapping(t_bytes32,t_struct(RoleData)179_storage)": {
        "encoding": "mapping",
        "key": "t_bytes32",
        "label": "mapping(bytes32 => struct AccessControlUpgradeable.RoleData)",
        "numberOfBytes": "32",
        "value": "t_struct(RoleData)179_storage"
      },
      "t_mapping(t_bytes32,t_uint256)": {
        "encoding": "mapping",
        "key": "t_bytes32",
        "label": "mapping(bytes32 => uint256)",
        "numberOfBytes": "32",
        "value": "t_uint256"
      },
      "t_struct(AddressSet)8488_storage": {
        "encoding": "inplace",
        "label": "struct EnumerableSetUpgradeable.AddressSet",
        "members": [
          {
            "astId": 8487,
            "contract": "contracts/protocol/pool/SecuritizationManager.sol:SecuritizationManager",
            "label": "_inner",
            "offset": 0,
            "slot": "0",
            "type": "t_struct(Set)8173_storage"
          }
        ],
        "numberOfBytes": "64"
      },
      "t_struct(RoleData)179_storage": {
        "encoding": "inplace",
        "label": "struct AccessControlUpgradeable.RoleData",
        "members": [
          {
            "astId": 176,
            "contract": "contracts/protocol/pool/SecuritizationManager.sol:SecuritizationManager",
            "label": "members",
            "offset": 0,
            "slot": "0",
            "type": "t_mapping(t_address,t_bool)"
          },
          {
            "astId": 178,
            "contract": "contracts/protocol/pool/SecuritizationManager.sol:SecuritizationManager",
            "label": "adminRole",
            "offset": 0,
            "slot": "1",
            "type": "t_bytes32"
          }
        ],
        "numberOfBytes": "64"
      },
      "t_struct(Set)8173_storage": {
        "encoding": "inplace",
        "label": "struct EnumerableSetUpgradeable.Set",
        "members": [
          {
            "astId": 8168,
            "contract": "contracts/protocol/pool/SecuritizationManager.sol:SecuritizationManager",
            "label": "_values",
            "offset": 0,
            "slot": "0",
            "type": "t_array(t_bytes32)dyn_storage"
          },
          {
            "astId": 8172,
            "contract": "contracts/protocol/pool/SecuritizationManager.sol:SecuritizationManager",
            "label": "_indexes",
            "offset": 0,
            "slot": "1",
            "type": "t_mapping(t_bytes32,t_uint256)"
          }
        ],
        "numberOfBytes": "64"
      },
      "t_uint256": {
        "encoding": "inplace",
        "label": "uint256",
        "numberOfBytes": "32"
      },
      "t_uint8": {
        "encoding": "inplace",
        "label": "uint8",
        "numberOfBytes": "1"
      }
    }
  }
}