{
  "address": "0x6d3d28e5d140aa22DC42C52A4A71177567754180",
  "abi": [
    {
      "anonymous": false,
      "inputs": [
        {
          "indexed": false,
          "internalType": "uint8",
          "name": "version",
          "type": "uint8"
        }
      ],
      "name": "Initialized",
      "type": "event"
    },
    {
      "anonymous": false,
      "inputs": [
        {
          "indexed": true,
          "internalType": "address",
          "name": "jotAddress",
          "type": "address"
        },
        {
          "indexed": false,
          "internalType": "address",
          "name": "tgeAddress",
          "type": "address"
        },
        {
          "indexed": false,
          "internalType": "address",
          "name": "poolAddress",
          "type": "address"
        }
      ],
      "name": "JotDeployed",
      "type": "event"
    },
    {
      "anonymous": false,
      "inputs": [
        {
          "indexed": true,
          "internalType": "address",
          "name": "instanceAddress",
          "type": "address"
        }
      ],
      "name": "NewPoolCreated",
      "type": "event"
    },
    {
      "anonymous": false,
      "inputs": [
        {
          "indexed": true,
          "internalType": "address",
          "name": "instanceAddress",
          "type": "address"
        },
        {
          "indexed": false,
          "internalType": "address",
          "name": "poolOwner",
          "type": "address"
        },
        {
          "components": [
            {
              "internalType": "address",
              "name": "currency",
              "type": "address"
            },
            {
              "internalType": "uint32",
              "name": "minFirstLossCushion",
              "type": "uint32"
            },
            {
              "internalType": "bool",
              "name": "validatorRequired",
              "type": "bool"
            },
            {
              "internalType": "uint256",
              "name": "debtCeiling",
              "type": "uint256"
            }
          ],
          "indexed": false,
          "internalType": "struct DataTypes.NewPoolParams",
          "name": "newPoolParams",
          "type": "tuple"
        }
      ],
      "name": "NewPoolDeployed",
      "type": "event"
    },
    {
      "anonymous": false,
      "inputs": [
        {
          "indexed": true,
          "internalType": "address",
          "name": "investor",
          "type": "address"
        },
        {
          "indexed": true,
          "internalType": "address",
          "name": "tgeAddress",
          "type": "address"
        },
        {
          "indexed": false,
          "internalType": "address",
          "name": "poolAddress",
          "type": "address"
        },
        {
          "indexed": false,
          "internalType": "uint256",
          "name": "amount",
          "type": "uint256"
        },
        {
          "indexed": false,
          "internalType": "uint256",
          "name": "tokenAmount",
          "type": "uint256"
        }
      ],
      "name": "NoteTokenPurchased",
      "type": "event"
    },
    {
      "anonymous": false,
      "inputs": [
        {
          "indexed": false,
          "internalType": "address",
          "name": "account",
          "type": "address"
        }
      ],
      "name": "Paused",
      "type": "event"
    },
    {
      "anonymous": false,
      "inputs": [
        {
          "indexed": true,
          "internalType": "bytes32",
          "name": "role",
          "type": "bytes32"
        },
        {
          "indexed": true,
          "internalType": "bytes32",
          "name": "previousAdminRole",
          "type": "bytes32"
        },
        {
          "indexed": true,
          "internalType": "bytes32",
          "name": "newAdminRole",
          "type": "bytes32"
        }
      ],
      "name": "RoleAdminChanged",
      "type": "event"
    },
    {
      "anonymous": false,
      "inputs": [
        {
          "indexed": true,
          "internalType": "bytes32",
          "name": "role",
          "type": "bytes32"
        },
        {
          "indexed": true,
          "internalType": "address",
          "name": "account",
          "type": "address"
        },
        {
          "indexed": true,
          "internalType": "address",
          "name": "sender",
          "type": "address"
        }
      ],
      "name": "RoleGranted",
      "type": "event"
    },
    {
      "anonymous": false,
      "inputs": [
        {
          "indexed": true,
          "internalType": "bytes32",
          "name": "role",
          "type": "bytes32"
        },
        {
          "indexed": true,
          "internalType": "address",
          "name": "account",
          "type": "address"
        },
        {
          "indexed": true,
          "internalType": "address",
          "name": "sender",
          "type": "address"
        }
      ],
      "name": "RoleRevoked",
      "type": "event"
    },
    {
      "anonymous": false,
      "inputs": [
        {
          "indexed": true,
          "internalType": "address",
          "name": "jotAddress",
          "type": "address"
        },
        {
          "indexed": false,
          "internalType": "address",
          "name": "tgeAddress",
          "type": "address"
        },
        {
          "components": [
            {
              "internalType": "address",
              "name": "issuerTokenController",
              "type": "address"
            },
            {
              "internalType": "address",
              "name": "pool",
              "type": "address"
            },
            {
              "internalType": "uint256",
              "name": "minBidAmount",
              "type": "uint256"
            },
            {
              "internalType": "uint256",
              "name": "totalCap",
              "type": "uint256"
            },
            {
              "internalType": "uint256",
              "name": "openingTime",
              "type": "uint256"
            },
            {
              "internalType": "string",
              "name": "ticker",
              "type": "string"
            },
            {
              "internalType": "uint8",
              "name": "saleType",
              "type": "uint8"
            }
          ],
          "indexed": false,
          "internalType": "struct ISecuritizationManager.TGEParam",
          "name": "tgeParam",
          "type": "tuple"
        },
        {
          "indexed": false,
          "internalType": "uint256",
          "name": "initialJOTAmount",
          "type": "uint256"
        }
      ],
      "name": "SetupJot",
      "type": "event"
    },
    {
      "anonymous": false,
      "inputs": [
        {
          "indexed": true,
          "internalType": "address",
          "name": "sotAddress",
          "type": "address"
        },
        {
          "indexed": false,
          "internalType": "address",
          "name": "tgeAddress",
          "type": "address"
        },
        {
          "components": [
            {
              "internalType": "address",
              "name": "issuerTokenController",
              "type": "address"
            },
            {
              "internalType": "address",
              "name": "pool",
              "type": "address"
            },
            {
              "internalType": "uint256",
              "name": "minBidAmount",
              "type": "uint256"
            },
            {
              "internalType": "uint256",
              "name": "totalCap",
              "type": "uint256"
            },
            {
              "internalType": "uint256",
              "name": "openingTime",
              "type": "uint256"
            },
            {
              "internalType": "string",
              "name": "ticker",
              "type": "string"
            },
            {
              "internalType": "uint8",
              "name": "saleType",
              "type": "uint8"
            }
          ],
          "indexed": false,
          "internalType": "struct ISecuritizationManager.TGEParam",
          "name": "tgeParam",
          "type": "tuple"
        },
        {
          "indexed": false,
          "internalType": "uint256",
          "name": "interestRate",
          "type": "uint256"
        }
      ],
      "name": "SetupSot",
      "type": "event"
    },
    {
      "anonymous": false,
      "inputs": [
        {
          "indexed": true,
          "internalType": "address",
          "name": "sotAddress",
          "type": "address"
        },
        {
          "indexed": false,
          "internalType": "address",
          "name": "tgeAddress",
          "type": "address"
        },
        {
          "indexed": false,
          "internalType": "address",
          "name": "poolAddress",
          "type": "address"
        }
      ],
      "name": "SotDeployed",
      "type": "event"
    },
    {
      "anonymous": false,
      "inputs": [
        {
          "indexed": true,
          "internalType": "address",
          "name": "investor",
          "type": "address"
        },
        {
          "indexed": true,
          "internalType": "address",
          "name": "tgeAddress",
          "type": "address"
        },
        {
          "indexed": false,
          "internalType": "uint256",
          "name": "amount",
          "type": "uint256"
        },
        {
          "indexed": false,
          "internalType": "uint256",
          "name": "tokenAmount",
          "type": "uint256"
        }
      ],
      "name": "TokensPurchased",
      "type": "event"
    },
    {
      "anonymous": false,
      "inputs": [
        {
          "indexed": false,
          "internalType": "address",
          "name": "account",
          "type": "address"
        }
      ],
      "name": "Unpaused",
      "type": "event"
    },
    {
      "anonymous": false,
      "inputs": [
        {
          "indexed": false,
          "internalType": "uint256[]",
          "name": "uids",
          "type": "uint256[]"
        }
      ],
      "name": "UpdateAllowedUIDTypes",
      "type": "event"
    },
    {
      "anonymous": false,
      "inputs": [
        {
          "indexed": true,
          "internalType": "address",
          "name": "pot",
          "type": "address"
        },
        {
          "indexed": true,
          "internalType": "address",
          "name": "pool",
          "type": "address"
        }
      ],
      "name": "UpdatePotToPool",
      "type": "event"
    },
    {
      "anonymous": false,
      "inputs": [
        {
          "components": [
            {
              "internalType": "address",
              "name": "tgeAddress",
              "type": "address"
            },
            {
              "internalType": "uint256",
              "name": "totalCap",
              "type": "uint256"
            },
            {
              "internalType": "uint256",
              "name": "minBidAmount",
              "type": "uint256"
            }
          ],
          "indexed": false,
          "internalType": "struct ISecuritizationManager.TGEInfoParam[]",
          "name": "tgeInfos",
          "type": "tuple[]"
        }
      ],
      "name": "UpdateTGEInfo",
      "type": "event"
    },
    {
      "inputs": [],
      "name": "DEFAULT_ADMIN_ROLE",
      "outputs": [
        {
          "internalType": "bytes32",
          "name": "",
          "type": "bytes32"
        }
      ],
      "stateMutability": "view",
      "type": "function"
    },
    {
      "inputs": [],
      "name": "POOL_INIT_FUNC_SELECTOR",
      "outputs": [
        {
          "internalType": "bytes4",
          "name": "",
          "type": "bytes4"
        }
      ],
      "stateMutability": "view",
      "type": "function"
    },
    {
      "inputs": [
        {
          "internalType": "uint256",
          "name": "",
          "type": "uint256"
        }
      ],
      "name": "allowedUIDTypes",
      "outputs": [
        {
          "internalType": "uint256",
          "name": "",
          "type": "uint256"
        }
      ],
      "stateMutability": "view",
      "type": "function"
    },
    {
      "inputs": [
        {
          "internalType": "address",
          "name": "tgeAddress",
          "type": "address"
        },
        {
          "internalType": "uint256",
          "name": "currencyAmount",
          "type": "uint256"
        }
      ],
      "name": "buyTokens",
      "outputs": [],
      "stateMutability": "nonpayable",
      "type": "function"
    },
    {
      "inputs": [],
      "name": "factoryAdmin",
      "outputs": [
        {
          "internalType": "address",
          "name": "",
          "type": "address"
        }
      ],
      "stateMutability": "view",
      "type": "function"
    },
    {
      "inputs": [],
      "name": "getInitializedVersion",
      "outputs": [
        {
          "internalType": "uint256",
          "name": "",
          "type": "uint256"
        }
      ],
      "stateMutability": "view",
      "type": "function"
    },
    {
      "inputs": [],
      "name": "getPoolsLength",
      "outputs": [
        {
          "internalType": "uint256",
          "name": "",
          "type": "uint256"
        }
      ],
      "stateMutability": "view",
      "type": "function"
    },
    {
      "inputs": [
        {
          "internalType": "bytes32",
          "name": "role",
          "type": "bytes32"
        }
      ],
      "name": "getRoleAdmin",
      "outputs": [
        {
          "internalType": "bytes32",
          "name": "",
          "type": "bytes32"
        }
      ],
      "stateMutability": "view",
      "type": "function"
    },
    {
      "inputs": [
        {
          "internalType": "bytes32",
          "name": "role",
          "type": "bytes32"
        },
        {
          "internalType": "uint256",
          "name": "index",
          "type": "uint256"
        }
      ],
      "name": "getRoleMember",
      "outputs": [
        {
          "internalType": "address",
          "name": "",
          "type": "address"
        }
      ],
      "stateMutability": "view",
      "type": "function"
    },
    {
      "inputs": [
        {
          "internalType": "bytes32",
          "name": "role",
          "type": "bytes32"
        }
      ],
      "name": "getRoleMemberCount",
      "outputs": [
        {
          "internalType": "uint256",
          "name": "",
          "type": "uint256"
        }
      ],
      "stateMutability": "view",
      "type": "function"
    },
    {
      "inputs": [
        {
          "internalType": "bytes32",
          "name": "role",
          "type": "bytes32"
        },
        {
          "internalType": "address",
          "name": "account",
          "type": "address"
        }
      ],
      "name": "grantRole",
      "outputs": [],
      "stateMutability": "nonpayable",
      "type": "function"
    },
    {
      "inputs": [
        {
          "internalType": "address",
          "name": "sender",
          "type": "address"
        }
      ],
      "name": "hasAllowedUID",
      "outputs": [
        {
          "internalType": "bool",
          "name": "",
          "type": "bool"
        }
      ],
      "stateMutability": "view",
      "type": "function"
    },
    {
      "inputs": [
        {
          "internalType": "bytes32",
          "name": "role",
          "type": "bytes32"
        },
        {
          "internalType": "address",
          "name": "account",
          "type": "address"
        }
      ],
      "name": "hasRole",
      "outputs": [
        {
          "internalType": "bool",
          "name": "",
          "type": "bool"
        }
      ],
      "stateMutability": "view",
      "type": "function"
    },
    {
      "inputs": [
        {
          "internalType": "contract Registry",
          "name": "_registry",
          "type": "address"
        },
        {
          "internalType": "address",
          "name": "_factoryAdmin",
          "type": "address"
        }
      ],
      "name": "initialize",
      "outputs": [],
      "stateMutability": "nonpayable",
      "type": "function"
    },
    {
      "inputs": [],
      "name": "isAdmin",
      "outputs": [
        {
          "internalType": "bool",
          "name": "",
          "type": "bool"
        }
      ],
      "stateMutability": "view",
      "type": "function"
    },
    {
      "inputs": [
        {
          "internalType": "address",
          "name": "",
          "type": "address"
        }
      ],
      "name": "isExistingPools",
      "outputs": [
        {
          "internalType": "bool",
          "name": "",
          "type": "bool"
        }
      ],
      "stateMutability": "view",
      "type": "function"
    },
    {
      "inputs": [
        {
          "internalType": "address",
          "name": "",
          "type": "address"
        }
      ],
      "name": "isExistingTGEs",
      "outputs": [
        {
          "internalType": "bool",
          "name": "",
          "type": "bool"
        }
      ],
      "stateMutability": "view",
      "type": "function"
    },
    {
      "inputs": [
        {
          "internalType": "bytes32",
          "name": "salt",
          "type": "bytes32"
        },
        {
          "internalType": "address",
          "name": "poolOwner",
          "type": "address"
        },
        {
          "internalType": "bytes",
          "name": "params",
          "type": "bytes"
        }
      ],
      "name": "newPoolInstance",
      "outputs": [
        {
          "internalType": "address",
          "name": "",
          "type": "address"
        }
      ],
      "stateMutability": "nonpayable",
      "type": "function"
    },
    {
      "inputs": [],
      "name": "pause",
      "outputs": [],
      "stateMutability": "nonpayable",
      "type": "function"
    },
    {
      "inputs": [],
      "name": "paused",
      "outputs": [
        {
          "internalType": "bool",
          "name": "",
          "type": "bool"
        }
      ],
      "stateMutability": "view",
      "type": "function"
    },
    {
      "inputs": [
        {
          "internalType": "uint256",
          "name": "",
          "type": "uint256"
        }
      ],
      "name": "pools",
      "outputs": [
        {
          "internalType": "address",
          "name": "",
          "type": "address"
        }
      ],
      "stateMutability": "view",
      "type": "function"
    },
    {
      "inputs": [
        {
          "internalType": "address",
          "name": "",
          "type": "address"
        }
      ],
      "name": "potToPool",
      "outputs": [
        {
          "internalType": "address",
          "name": "",
          "type": "address"
        }
      ],
      "stateMutability": "view",
      "type": "function"
    },
    {
      "inputs": [
        {
          "internalType": "address",
          "name": "pot",
          "type": "address"
        }
      ],
      "name": "registerPot",
      "outputs": [],
      "stateMutability": "nonpayable",
      "type": "function"
    },
    {
      "inputs": [],
      "name": "registry",
      "outputs": [
        {
          "internalType": "contract Registry",
          "name": "",
          "type": "address"
        }
      ],
      "stateMutability": "view",
      "type": "function"
    },
    {
      "inputs": [
        {
          "internalType": "bytes32",
          "name": "role",
          "type": "bytes32"
        },
        {
          "internalType": "address",
          "name": "account",
          "type": "address"
        }
      ],
      "name": "renounceRole",
      "outputs": [],
      "stateMutability": "nonpayable",
      "type": "function"
    },
    {
      "inputs": [
        {
          "internalType": "bytes32",
          "name": "role",
          "type": "bytes32"
        },
        {
          "internalType": "address",
          "name": "account",
          "type": "address"
        }
      ],
      "name": "revokeRole",
      "outputs": [],
      "stateMutability": "nonpayable",
      "type": "function"
    },
    {
      "inputs": [
        {
          "internalType": "uint256[]",
          "name": "ids",
          "type": "uint256[]"
        }
      ],
      "name": "setAllowedUIDTypes",
      "outputs": [],
      "stateMutability": "nonpayable",
      "type": "function"
    },
    {
      "inputs": [
        {
          "internalType": "address",
          "name": "_factoryAdmin",
          "type": "address"
        }
      ],
      "name": "setFactoryAdmin",
      "outputs": [],
      "stateMutability": "nonpayable",
      "type": "function"
    },
    {
      "inputs": [
        {
          "internalType": "bytes32",
          "name": "role",
          "type": "bytes32"
        },
        {
          "internalType": "bytes32",
          "name": "adminRole",
          "type": "bytes32"
        }
      ],
      "name": "setRoleAdmin",
      "outputs": [],
      "stateMutability": "nonpayable",
      "type": "function"
    },
    {
      "inputs": [
        {
          "components": [
            {
              "internalType": "address",
              "name": "issuerTokenController",
              "type": "address"
            },
            {
              "internalType": "address",
              "name": "pool",
              "type": "address"
            },
            {
              "internalType": "uint256",
              "name": "minBidAmount",
              "type": "uint256"
            },
            {
              "internalType": "uint256",
              "name": "totalCap",
              "type": "uint256"
            },
            {
              "internalType": "uint256",
              "name": "openingTime",
              "type": "uint256"
            },
            {
              "internalType": "string",
              "name": "ticker",
              "type": "string"
            },
            {
              "internalType": "uint8",
              "name": "saleType",
              "type": "uint8"
            }
          ],
          "internalType": "struct ISecuritizationManager.TGEParam",
          "name": "tgeParam",
          "type": "tuple"
        },
        {
          "internalType": "uint256",
          "name": "initialJOTAmount",
          "type": "uint256"
        }
      ],
      "name": "setUpTGEForJOT",
      "outputs": [],
      "stateMutability": "nonpayable",
      "type": "function"
    },
    {
      "inputs": [
        {
          "components": [
            {
              "internalType": "address",
              "name": "issuerTokenController",
              "type": "address"
            },
            {
              "internalType": "address",
              "name": "pool",
              "type": "address"
            },
            {
              "internalType": "uint256",
              "name": "minBidAmount",
              "type": "uint256"
            },
            {
              "internalType": "uint256",
              "name": "totalCap",
              "type": "uint256"
            },
            {
              "internalType": "uint256",
              "name": "openingTime",
              "type": "uint256"
            },
            {
              "internalType": "string",
              "name": "ticker",
              "type": "string"
            },
            {
              "internalType": "uint8",
              "name": "saleType",
              "type": "uint8"
            }
          ],
          "internalType": "struct ISecuritizationManager.TGEParam",
          "name": "tgeParam",
          "type": "tuple"
        },
        {
          "internalType": "uint32",
          "name": "interestRate",
          "type": "uint32"
        }
      ],
      "name": "setUpTGEForSOT",
      "outputs": [],
      "stateMutability": "nonpayable",
      "type": "function"
    },
    {
      "inputs": [
        {
          "internalType": "bytes4",
          "name": "interfaceId",
          "type": "bytes4"
        }
      ],
      "name": "supportsInterface",
      "outputs": [
        {
          "internalType": "bool",
          "name": "",
          "type": "bool"
        }
      ],
      "stateMutability": "view",
      "type": "function"
    },
    {
      "inputs": [],
      "name": "unpause",
      "outputs": [],
      "stateMutability": "nonpayable",
      "type": "function"
    },
    {
      "inputs": [
        {
          "components": [
            {
              "internalType": "address",
              "name": "tgeAddress",
              "type": "address"
            },
            {
              "internalType": "uint256",
              "name": "totalCap",
              "type": "uint256"
            },
            {
              "internalType": "uint256",
              "name": "minBidAmount",
              "type": "uint256"
            }
          ],
          "internalType": "struct ISecuritizationManager.TGEInfoParam[]",
          "name": "tgeInfos",
          "type": "tuple[]"
        }
      ],
      "name": "updateTgeInfo",
      "outputs": [],
      "stateMutability": "nonpayable",
      "type": "function"
    }
  ],
  "transactionHash": "0xafae5e8c10eb2171c6d2a6f1224bd46aa2b649bf46d887c5cac1e698f7b9fd9a",
  "args": [],
  "numDeployments": 13,
  "solcInputHash": "430c0a92c5fceeb5bb1419cc8438605e",
  "bytecode": "0x608060405234801561001057600080fd5b50615244806100206000396000f3fe60806040523480156200001157600080fd5b5060043610620002315760003560e01c80638456cb591162000131578063be7ce91211620000bb578063d547741f1162000086578063d547741f1462000524578063dc90f9fd146200053b578063e2a657f91462000552578063f94f5a121462000569578063fa10cd63146200058057600080fd5b8063be7ce91214620004c5578063ca15c87314620004dc578063ce883cdb14620004f3578063d113058c14620004fd57600080fd5b8063ac4afa3811620000fc578063ac4afa381462000481578063b3c650151462000498578063b6db75a014620004a4578063b9317d8614620004ae57600080fd5b80638456cb5914620004405780639010d07c146200044a57806391d148541462000461578063a217fddf146200047857600080fd5b80632f2ff15d11620001bf5780634172f80a116200018a5780634172f80a14620003ca578063485cc95514620003f1578063505861dd14620004085780635c975abb146200041f5780637b103999146200042b57600080fd5b80632f2ff15d146200035057806336568abe146200036757806337731944146200037e5780633f4ba83a14620003c057600080fd5b806317d8ec7f116200020057806317d8ec7f14620002a95780631e4e009114620002d7578063248a9ca314620002ee5780632c9bdbe0146200032357600080fd5b806301ffc9a7146200023657806305dfd86f14620002625780630752881a146200027b57806314dc96fb1462000292575b600080fd5b6200024d62000247366004620037c8565b62000597565b60405190151581526020015b60405180910390f35b62000279620002733660046200381c565b620005c5565b005b620002796200028c3660046200383c565b620005e1565b62000279620002a336600462003a0f565b62000cc0565b61015f54620002be906001600160a01b031681565b6040516001600160a01b03909116815260200162000259565b62000279620002e836600462003a58565b62000f7d565b62000314620002ff36600462003a7b565b600090815260c9602052604090206001015490565b60405190815260200162000259565b620002be620003343660046200381c565b610195602052600090815260409020546001600160a01b031681565b620002796200036136600462003a95565b62000f9b565b620002796200037836600462003a95565b62000fc4565b620003a67fd1f578946981755ee8ffb900bf2e79846feedf4642746695df147d68656840a381565b6040516001600160e01b0319909116815260200162000259565b6200027962001042565b6200024d620003db3660046200381c565b6101966020526000908152604090205460ff1681565b620002796200040236600462003ac8565b62001077565b620002796200041936600462003afb565b620011e5565b60335460ff166200024d565b61019254620002be906001600160a01b031681565b62000279620014eb565b620002be6200045b36600462003a58565b6200151e565b6200024d6200047236600462003a95565b6200153f565b62000314600081565b620002be6200049236600462003a7b565b6200156a565b60005460ff1662000314565b6200024d62001596565b62000279620004bf36600462003b75565b620015cc565b62000279620004d636600462003bf0565b6200161c565b62000314620004ed36600462003a7b565b6200188f565b6101945462000314565b6200024d6200050e3660046200381c565b6101936020526000908152604090205460ff1681565b620002796200053536600462003a95565b620018a8565b620002796200054c3660046200381c565b620018d1565b620003146200056336600462003a7b565b62001a30565b6200024d6200057a3660046200381c565b62001a53565b620002be6200059136600462003c3d565b62001ae3565b60006001600160e01b03198216635a05180f60e01b1480620005bf5750620005bf8262001e40565b92915050565b6000620005d28162001e77565b620005dd8262001e86565b5050565b620005eb62001ea9565b620005f562001ef1565b6001600160a01b0382166000908152610196602052604090205460ff16620006645760405162461bcd60e51b815260206004820152601d60248201527f534d503a204e6f74652073616c6520646f6573206e6f7420657869737400000060448201526064015b60405180910390fd5b6200066f3362001a53565b620006c95760405162461bcd60e51b815260206004820152602360248201527f556e617574686f72697a65642e204d757374206861766520636f72726563742060448201526215525160ea1b60648201526084016200065b565b8160006001600160a01b03821663dcefa53833336040516001600160e01b031960e085901b1681526001600160a01b03928316600482015291166024820152604481018690526064016020604051808303816000875af115801562000732573d6000803e3d6000fd5b505050506040513d601f19601f8201168201806040525081019062000758919062003cb1565b90506000826001600160a01b03166316f0115b6040518163ffffffff1660e01b8152600401602060405180830381865afa1580156200079b573d6000803e3d6000fd5b505050506040513d601f19601f82011682018060405250810190620007c1919062003ccb565b61019254909150620007dc906001600160a01b031662001f4c565b604051634ce9451960e01b81526001600160a01b0383811660048301529190911690634ce9451990602401602060405180830381865afa15801562000825573d6000803e3d6000fd5b505050506040513d601f19601f820116820180604052508101906200084b919062003cfc565b15620008915760405162461bcd60e51b815260206004820152601460248201527314d34e88109d5e481d1bdad95b881c185d5cd95960621b60448201526064016200065b565b6000836001600160a01b031663fc0c546a6040518163ffffffff1660e01b8152600401602060405180830381865afa158015620008d2573d6000803e3d6000fd5b505050506040513d601f19601f82011682018060405250810190620008f8919062003ccb565b90506000816001600160a01b031662b7f6816040518163ffffffff1660e01b8152600401602060405180830381865afa1580156200093a573d6000803e3d6000fd5b505050506040513d601f19601f8201168201806040525081019062000960919062003d1a565b905060001960ff82160162000b1757866001600160a01b031663fc1ed4376040518163ffffffff1660e01b8152600401602060405180830381865afa158015620009ae573d6000803e3d6000fd5b505050506040513d601f19601f82011682018060405250810190620009d4919062003cb1565b876001600160a01b031663998ba4fc6040518163ffffffff1660e01b8152600401602060405180830381865afa15801562000a13573d6000803e3d6000fd5b505050506040513d601f19601f8201168201806040525081019062000a39919062003cb1565b1062000b17576000836001600160a01b0316636456a3ee6040518163ffffffff1660e01b8152600401602060405180830381865afa15801562000a80573d6000803e3d6000fd5b505050506040513d601f19601f8201168201806040525081019062000aa6919062003ccb565b90506001600160a01b0381161562000b155760405163ea7bb4bd60e01b8152600160048201526001600160a01b0382169063ea7bb4bd90602401600060405180830381600087803b15801562000afb57600080fd5b505af115801562000b10573d6000803e3d6000fd5b505050505b505b60405163e681542d60e01b8152600481018790526001600160a01b0384169063e681542d90602401600060405180830381600087803b15801562000b5a57600080fd5b505af115801562000b6f573d6000803e3d6000fd5b506001925062000b7d915050565b60ff168160ff160362000bf357604051631d514ebd60e11b815260006004820181905260248201526001600160a01b03841690633aa29d7a90604401600060405180830381600087803b15801562000bd457600080fd5b505af115801562000be9573d6000803e3d6000fd5b5050505062000c57565b604051631d514ebd60e11b815260048101879052600060248201526001600160a01b03841690633aa29d7a90604401600060405180830381600087803b15801562000c3d57600080fd5b505af115801562000c52573d6000803e3d6000fd5b505050505b6001600160a01b03871633604080516001600160a01b038781168252602082018b90529181018890529116907fa3a7c380969641ab7502e2ee291d1a50a8178ff950a6f496415f5256483cc86e9060600160405180910390a35050505050620005dd6001606555565b62000cca62001ea9565b60208201516001600160a01b0381166391d14854600080516020620051cf833981519152336040516001600160e01b031960e085901b16815260048101929092526001600160a01b03166024820152604401602060405180830381865afa15801562000d3a573d6000803e3d6000fd5b505050506040513d601f19601f8201168201806040525081019062000d60919062003cfc565b62000d7f5760405162461bcd60e51b81526004016200065b9062003d50565b60008062000da5856000015186602001518760c001518860a00151896080015162001f62565b606087015160405163e1884b0f60e01b81526004810191909152919350915081906001600160a01b0382169063e1884b0f90602401600060405180830381600087803b15801562000df557600080fd5b505af115801562000e0a573d6000803e3d6000fd5b505060405163ea7bb4bd60e01b8152600160048201526001600160a01b038416925063ea7bb4bd9150602401600060405180830381600087803b15801562000e5157600080fd5b505af115801562000e66573d6000803e3d6000fd5b50505060408088015190516320bfeb5b60e11b81526001600160a01b038416925063417fd6b69162000e9e9160040190815260200190565b600060405180830381600087803b15801562000eb957600080fd5b505af115801562000ece573d6000803e3d6000fd5b505060405163b0efc32960e01b8152600481018890526001600160a01b038416925063b0efc3299150602401600060405180830381600087803b15801562000f1557600080fd5b505af115801562000f2a573d6000803e3d6000fd5b50505050826001600160a01b03167fda9fee4a214524cc1e8cbe502032829a6cb487190e7772190455db7f460ece1d83888860405162000f6d9392919062003e6d565b60405180910390a2505050505050565b600062000f8a8162001e77565b62000f96838362002432565b505050565b600082815260c9602052604090206001015462000fb88162001e77565b62000f9683836200247d565b6001600160a01b0381163314620010365760405162461bcd60e51b815260206004820152602f60248201527f416363657373436f6e74726f6c3a2063616e206f6e6c792072656e6f756e636560448201526e103937b632b9903337b91039b2b63360891b60648201526084016200065b565b620005dd8282620024a3565b6200104c62001596565b6200106b5760405162461bcd60e51b81526004016200065b9062003ea3565b62001075620024c9565b565b600054610100900460ff1615808015620010985750600054600160ff909116105b80620010b45750303b158015620010b4575060005460ff166001145b620011195760405162461bcd60e51b815260206004820152602e60248201527f496e697469616c697a61626c653a20636f6e747261637420697320616c72656160448201526d191e481a5b9a5d1a585b1a5e995960921b60648201526084016200065b565b6000805460ff1916600117905580156200113d576000805461ff0019166101001790555b62001148336200251d565b620011538262002570565b6200117d600080516020620051ef833981519152600080516020620051cf83398151915262002432565b61019280546001600160a01b0319166001600160a01b038516179055801562000f96576000805461ff0019169055604051600181527f7f26b83ff96e1f2b6a682f133852f6798a09c465da95921460cefb3847402498906020015b60405180910390a1505050565b620011ef62001ea9565b60005b81811015620014ab5782828281811062001210576200121062003f00565b6200122892602060609092020190810191506200381c565b6001600160a01b03166316f0115b6040518163ffffffff1660e01b8152600401602060405180830381865afa15801562001266573d6000803e3d6000fd5b505050506040513d601f19601f820116820180604052508101906200128c919062003ccb565b6001600160a01b03166391d14854600080516020620051cf833981519152336040516001600160e01b031960e085901b16815260048101929092526001600160a01b03166024820152604401602060405180830381865afa158015620012f6573d6000803e3d6000fd5b505050506040513d601f19601f820116820180604052508101906200131c919062003cfc565b6200133b5760405162461bcd60e51b81526004016200065b9062003d50565b82828281811062001350576200135062003f00565b6200136892602060609092020190810191506200381c565b6001600160a01b031663e1884b0f8484848181106200138b576200138b62003f00565b905060600201602001356040518263ffffffff1660e01b8152600401620013b491815260200190565b600060405180830381600087803b158015620013cf57600080fd5b505af1158015620013e4573d6000803e3d6000fd5b50505050828282818110620013fd57620013fd62003f00565b6200141592602060609092020190810191506200381c565b6001600160a01b031663417fd6b684848481811062001438576200143862003f00565b905060600201604001356040518263ffffffff1660e01b81526004016200146191815260200190565b600060405180830381600087803b1580156200147c57600080fd5b505af115801562001491573d6000803e3d6000fd5b505050508080620014a29062003f2c565b915050620011f2565b507f7e6169d470207a6b204933307d1fe4702e07a0834f17f7362fb1e24f901dc88c8282604051620014df92919062003f48565b60405180910390a15050565b620014f562001596565b620015145760405162461bcd60e51b81526004016200065b9062003ea3565b62001075620025a5565b600082815260fb60205260408120620015389083620025e5565b9392505050565b600091825260c9602090815260408084206001600160a01b0393909316845291905290205460ff1690565b61019481815481106200157c57600080fd5b6000918252602090912001546001600160a01b0316905081565b6000620015b3600080516020620051cf833981519152336200153f565b80620015c75750620015c76000336200153f565b905090565b6000620015d98162001e77565b620015e86101c4848462003753565b507f2567070ac9f6f65f8ca84dde489e75853a5bc36fb8044e0597a2f75eabee88308383604051620011d892919062003faf565b6200162662001ea9565b60208201516001600160a01b0381166391d14854600080516020620051cf833981519152336040516001600160e01b031960e085901b16815260048101929092526001600160a01b03166024820152604401602060405180830381865afa15801562001696573d6000803e3d6000fd5b505050506040513d601f19601f82011682018060405250810190620016bc919062003cfc565b620016db5760405162461bcd60e51b81526004016200065b9062003d50565b60008062001701856000015186602001518760c001518860a001518960800151620025f3565b6020870151604051635d40d49b60e11b815263ffffffff8816600482015292945090925082916001600160a01b0382169063ba81a93690602401600060405180830381600087803b1580156200175657600080fd5b505af11580156200176b573d6000803e3d6000fd5b505050606088015160405163e1884b0f60e01b81526001600160a01b038516925063e1884b0f91620017a39160040190815260200190565b600060405180830381600087803b158015620017be57600080fd5b505af1158015620017d3573d6000803e3d6000fd5b50505060408089015190516320bfeb5b60e11b81526001600160a01b038516925063417fd6b6916200180b9160040190815260200190565b600060405180830381600087803b1580156200182657600080fd5b505af11580156200183b573d6000803e3d6000fd5b50505050836001600160a01b03167fe1e7c5b4c2b4a0257c933ba83dc057c4fcc03fec2e56772607bcb81a7fb5f2448489896040516200187e9392919062003fe9565b60405180910390a250505050505050565b600081815260fb60205260408120620005bf9062002bdd565b600082815260c96020526040902060010154620018c58162001e77565b62000f968383620024a3565b620018db62001ea9565b336000908152610193602052604090205460ff16620019545760405162461bcd60e51b815260206004820152602e60248201527f53656375726974697a6174696f6e4d616e616765723a204f6e6c79205365637560448201526d1c9a5d1a5e985d1a5bdb941bdbdb60921b60648201526084016200065b565b6001600160a01b03818116600090815261019560205260409020541615620019d85760405162461bcd60e51b815260206004820152603060248201527f53656375726974697a6174696f6e4d616e616765723a20706f7420757365642060448201526f199bdc88185b9bdd1a195c881c1bdbdb60821b60648201526084016200065b565b6001600160a01b0381166000818152610195602052604080822080546001600160a01b0319163390811790915590519092917fc6dc08fde4be745ee1b3025914ee663853b06abf95b4a4d28ed10187d5d4841291a350565b6101c4818154811062001a4257600080fd5b600091825260209091200154905081565b6101925460009062001a6e906001600160a01b031662002be8565b6001600160a01b0316631852f200836101c46040518363ffffffff1660e01b815260040162001a9f92919062004025565b602060405180830381865afa15801562001abd573d6000803e3d6000fd5b505050506040513d601f19601f82011682018060405250810190620005bf919062003cfc565b600062001aef62001ea9565b600080516020620051ef83398151915262001b0a8162001e77565b6101925460009062001b25906001600160a01b031662002bf7565b610192546040519192506000917fd1f578946981755ee8ffb900bf2e79846feedf4642746695df147d68656840a39162001b70916001600160a01b0390911690889060240162004075565b60408051601f198184030181529190526020810180516001600160e01b03166001600160e01b0319909316929092179091529050600062001bb383838a62002c06565b6001600160a01b0381811660008181526101936020526040808220805460ff19166001908117909155610194805491820181559092527fa6f1ac7ad7b125ba5a5e1c96b00ad6914f90a503b1ac3d85a9dadbb4c639df9290910180546001600160a01b0319168317905551632f2ff15d60e01b8152600080516020620051cf8339815191526004820152918a166024830152919250829190632f2ff15d90604401600060405180830381600087803b15801562001c6f57600080fd5b505af115801562001c84573d6000803e3d6000fd5b50505050806001600160a01b0316632f2ff15d600080516020620051ef83398151915262001caf3390565b6040516001600160e01b031960e085901b16815260048101929092526001600160a01b03166024820152604401600060405180830381600087803b15801562001cf757600080fd5b505af115801562001d0c573d6000803e3d6000fd5b5050604051631b2b455f60e11b8152600060048201523060248201526001600160a01b03841692506336568abe9150604401600060405180830381600087803b15801562001d5957600080fd5b505af115801562001d6e573d6000803e3d6000fd5b50506040516001600160a01b03851692507f84beea356a8ed330e56f7d55aad6858501748effc667b5536021b83e1ca6bbf59150600090a2816001600160a01b03167f2b76fd396ea543a87445df41a6feefb7cbdf87f266f6549a708b2715bfac2691898980602001905181019062001de891906200409b565b604080516001600160a01b039384168152825190931660208085019190915282015163ffffffff168382015281015115156060808401919091520151608082015260a00160405180910390a250979650505050505050565b60006001600160e01b03198216637965db0b60e01b1480620005bf57506301ffc9a760e01b6001600160e01b0319831614620005bf565b62001e83813362002d13565b50565b61015f80546001600160a01b0319166001600160a01b0392909216919091179055565b60335460ff1615620010755760405162461bcd60e51b815260206004820152601060248201526f14185d5cd8589b194e881c185d5cd95960821b60448201526064016200065b565b60026065540362001f455760405162461bcd60e51b815260206004820152601f60248201527f5265656e7472616e637947756172643a207265656e7472616e742063616c6c0060448201526064016200065b565b6002606555565b6000620005bf82600962002d77565b6001606555565b60008062001f6f62001ea9565b62001f7962001ef1565b6001600160a01b03861660009081526101936020526040902054869060ff1662001fb75760405162461bcd60e51b81526004016200065b9062004122565b8660006001600160a01b0316816001600160a01b0316632b71b4506040518163ffffffff1660e01b8152600401602060405180830381865afa15801562002002573d6000803e3d6000fd5b505050506040513d601f19601f8201168201806040525081019062002028919062003ccb565b6001600160a01b031614620020985760405162461bcd60e51b815260206004820152602f60248201527f53656375726974697a6174696f6e4d616e616765723a20416c7265616479206560448201526e3c34b9ba39902527aa103a37b5b2b760891b60648201526084016200065b565b61019254600090620020b3906001600160a01b031662002e02565b90506000896001600160a01b0316630bc6bffc6040518163ffffffff1660e01b8152600401602060405180830381865afa158015620020f6573d6000803e3d6000fd5b505050506040513d601f19601f820116820180604052508101906200211c919062003ccb565b90506000826001600160a01b031663841370828c6001856001600160a01b031663313ce5676040518163ffffffff1660e01b8152600401602060405180830381865afa15801562002171573d6000803e3d6000fd5b505050506040513d601f19601f8201168201806040525081019062002197919062003d1a565b8d6040518563ffffffff1660e01b8152600401620021b994939291906200418f565b6020604051808303816000875af1158015620021d9573d6000803e3d6000fd5b505050506040513d601f19601f82011682018060405250810190620021ff919062003ccb565b610192549091506000906200221d906001600160a01b031662002e11565b604051631978843f60e31b81526001600160a01b038f811660048301528481166024830152858116604483015260ff8e166064830152608482018c9052919091169063cbc421f89060a4016020604051808303816000875af115801562002288573d6000803e3d6000fd5b505050506040513d601f19601f82011682018060405250810190620022ae919062003ccb565b604051630126845360e51b81526001600160a01b0384811660048301528083166024830152919250908516906324d08a6090604401600060405180830381600087803b158015620022fe57600080fd5b505af115801562002313573d6000803e3d6000fd5b5050604051630ecbe20360e21b81526001600160a01b038f169250633b2f880c915062002348908490600190600401620041d5565b600060405180830381600087803b1580156200236357600080fd5b505af115801562002378573d6000803e3d6000fd5b5050505060016101966000836001600160a01b03166001600160a01b0316815260200190815260200160002060006101000a81548160ff021916908315150217905550816001600160a01b03167f099bb66ed93be0b6b29cdbd0be5388839a28e27d0d39dc43072a19d8a71ed923828e6040516200240c9291906001600160a01b0392831681529116602082015260400190565b60405180910390a2909650945050505050620024286001606555565b9550959350505050565b600082815260c96020526040808220600101805490849055905190918391839186917fbd79b86ffe0ab8e8776151514217cd7cacd52c909f66475c3af44e129f0b00ff9190a4505050565b62002489828262002e20565b600082815260fb6020526040902062000f96908262002eaa565b620024af828262002ec1565b600082815260fb6020526040902062000f96908262002f2b565b620024d362002f42565b6033805460ff191690557f5db9ee0a495bf2e6ff9c91a7834c1ba4fdd244a5e8aa4e537bd38aeae4b073aa335b6040516001600160a01b03909116815260200160405180910390a1565b600054610100900460ff16620025475760405162461bcd60e51b81526004016200065b90620041f4565b6200255162002f8d565b6200255b62002fc3565b6200256562002fed565b62001e838162003017565b600054610100900460ff166200259a5760405162461bcd60e51b81526004016200065b90620041f4565b62001e8381620030f1565b620025af62001ea9565b6033805460ff191660011790557f62e78cea01bee320cd4e420270b5ea74000d11b0c9f74754ebdbfc544b05a258620025003390565b60006200153883836200311b565b6000806200260062001ea9565b6001600160a01b03861660009081526101936020526040902054869060ff166200263e5760405162461bcd60e51b81526004016200065b9062004122565b8660006001600160a01b0316816001600160a01b031663febd60186040518163ffffffff1660e01b8152600401602060405180830381865afa15801562002689573d6000803e3d6000fd5b505050506040513d601f19601f82011682018060405250810190620026af919062003ccb565b6001600160a01b0316146200271f5760405162461bcd60e51b815260206004820152602f60248201527f53656375726974697a6174696f6e4d616e616765723a20416c7265616479206560448201526e3c34b9ba399029a7aa103a37b5b2b760891b60648201526084016200065b565b610192546000906200273a906001600160a01b031662002e02565b90506001600160a01b038116620027a25760405162461bcd60e51b815260206004820152602560248201527f4e6f746520546f6b656e20466163746f727920776173206e6f742072656769736044820152641d195c995960da1b60648201526084016200065b565b61019254600090620027bd906001600160a01b031662002e11565b6001600160a01b031603620028155760405162461bcd60e51b815260206004820152601e60248201527f54474520466163746f727920776173206e6f742072656769737465726564000060448201526064016200065b565b6000896001600160a01b0316630bc6bffc6040518163ffffffff1660e01b8152600401602060405180830381865afa15801562002856573d6000803e3d6000fd5b505050506040513d601f19601f820116820180604052508101906200287c919062003ccb565b90506000826001600160a01b031663841370828c6000856001600160a01b031663313ce5676040518163ffffffff1660e01b8152600401602060405180830381865afa158015620028d1573d6000803e3d6000fd5b505050506040513d601f19601f82011682018060405250810190620028f7919062003d1a565b8d6040518563ffffffff1660e01b81526004016200291994939291906200418f565b6020604051808303816000875af115801562002939573d6000803e3d6000fd5b505050506040513d601f19601f820116820180604052508101906200295f919062003ccb565b90506001600160a01b038116620029b95760405162461bcd60e51b815260206004820152601960248201527f534f5420746f6b656e206d75737420626520637265617465640000000000000060448201526064016200065b565b61019254600090620029d4906001600160a01b031662002e11565b604051631978843f60e31b81526001600160a01b038f811660048301528481166024830152858116604483015260ff8e166064830152608482018c9052919091169063cbc421f89060a4016020604051808303816000875af115801562002a3f573d6000803e3d6000fd5b505050506040513d601f19601f8201168201806040525081019062002a65919062003ccb565b604051630126845360e51b81526001600160a01b0384811660048301528083166024830152919250908516906324d08a6090604401600060405180830381600087803b15801562002ab557600080fd5b505af115801562002aca573d6000803e3d6000fd5b5050604051630ecbe20360e21b81526001600160a01b038f169250633b2f880c915062002aff908490600090600401620041d5565b600060405180830381600087803b15801562002b1a57600080fd5b505af115801562002b2f573d6000803e3d6000fd5b5050505060016101966000836001600160a01b03166001600160a01b0316815260200190815260200160002060006101000a81548160ff021916908315150217905550816001600160a01b03167f9eb8080cc435d0abaf0670d0bc43c907e3459b6baa48729c998c397bafa91514828e60405162002bc39291906001600160a01b0392831681529116602082015260400190565b60405180910390a2909c909b509950505050505050505050565b6000620005bf825490565b6000620005bf82600862002d77565b6000620005bf82600162002d77565b60008062002c906000846040518060200162002c2290620037a3565b601f1982820381018352601f9091011660408181526001600160a01b038b16602083015230908201526060808201526000608082015260a00160408051601f198184030181529082905262002c7b92916020016200423f565b60405160208183030381529060405262003148565b61015f546040516308f2839760e41b81526001600160a01b039182166004820152919250821690638f28397090602401600060405180830381600087803b15801562002cdb57600080fd5b505af115801562002cf0573d6000803e3d6000fd5b5062002d0a925050506001600160a01b0382168562003252565b50949350505050565b62002d1f82826200153f565b620005dd5762002d2f8162003298565b62002d3c836020620032ab565b60405160200162002d4f92919062004272565b60408051601f198184030181529082905262461bcd60e51b82526200065b91600401620042eb565b6000826001600160a01b031663bcaa0c5583600981111562002d9d5762002d9d62003d3a565b6040516001600160e01b031960e084901b16815260ff9091166004820152602401602060405180830381865afa15801562002ddc573d6000803e3d6000fd5b505050506040513d601f19601f8201168201806040525081019062001538919062003ccb565b6000620005bf82600262002d77565b6000620005bf82600362002d77565b62002e2c82826200153f565b620005dd57600082815260c9602090815260408083206001600160a01b03851684529091529020805460ff1916600117905562002e663390565b6001600160a01b0316816001600160a01b0316837f2f8788117e7eff1d82e926ec794901d17c78024a50270940304540a733656f0d60405160405180910390a45050565b600062001538836001600160a01b03841662003465565b62002ecd82826200153f565b15620005dd57600082815260c9602090815260408083206001600160a01b0385168085529252808320805460ff1916905551339285917ff6391f5c32d9c69d2a47ea670b442974b53935d1edc7fd64eb21e047a839171b9190a45050565b600062001538836001600160a01b038416620034b7565b60335460ff16620010755760405162461bcd60e51b815260206004820152601460248201527314185d5cd8589b194e881b9bdd081c185d5cd95960621b60448201526064016200065b565b600054610100900460ff1662002fb75760405162461bcd60e51b81526004016200065b90620041f4565b6033805460ff19169055565b600054610100900460ff1662001f5b5760405162461bcd60e51b81526004016200065b90620041f4565b600054610100900460ff16620010755760405162461bcd60e51b81526004016200065b90620041f4565b600054610100900460ff16620030415760405162461bcd60e51b81526004016200065b90620041f4565b6001600160a01b038116620030535750335b62003060600033620035bb565b6200307b600080516020620051cf83398151915282620035bb565b620030b67f59abfac6520ec36a6556b2a4dd949cc40007459bcd5cd2507f1e5cc77b6bc97e600080516020620051cf83398151915262002432565b62001e837f21702c8af46127c7fa207f89d0b0a8441bb32959a0ac7df790e9ab1a25c98926600080516020620051ef83398151915262002432565b600054610100900460ff1662001e865760405162461bcd60e51b81526004016200065b90620041f4565b600082600001828154811062003135576200313562003f00565b9060005260206000200154905092915050565b6000834710156200319c5760405162461bcd60e51b815260206004820152601d60248201527f437265617465323a20696e73756666696369656e742062616c616e636500000060448201526064016200065b565b8151600003620031ef5760405162461bcd60e51b815260206004820181905260248201527f437265617465323a2062797465636f6465206c656e677468206973207a65726f60448201526064016200065b565b8282516020840186f590506001600160a01b038116620015385760405162461bcd60e51b815260206004820152601960248201527f437265617465323a204661696c6564206f6e206465706c6f790000000000000060448201526064016200065b565b606062001538838360006040518060400160405280601e81526020017f416464726573733a206c6f772d6c6576656c2063616c6c206661696c65640000815250620035c7565b6060620005bf6001600160a01b03831660145b60606000620032bc83600262004300565b620032c99060026200431a565b67ffffffffffffffff811115620032e457620032e46200386b565b6040519080825280601f01601f1916602001820160405280156200330f576020820181803683370190505b509050600360fc1b816000815181106200332d576200332d62003f00565b60200101906001600160f81b031916908160001a905350600f60fb1b816001815181106200335f576200335f62003f00565b60200101906001600160f81b031916908160001a90535060006200338584600262004300565b620033929060016200431a565b90505b600181111562003414576f181899199a1a9b1b9c1cb0b131b232b360811b85600f1660108110620033ca57620033ca62003f00565b1a60f81b828281518110620033e357620033e362003f00565b60200101906001600160f81b031916908160001a90535060049490941c936200340c8162004330565b905062003395565b508315620015385760405162461bcd60e51b815260206004820181905260248201527f537472696e67733a20686578206c656e67746820696e73756666696369656e7460448201526064016200065b565b6000818152600183016020526040812054620034ae57508154600181810184556000848152602080822090930184905584548482528286019093526040902091909155620005bf565b506000620005bf565b60008181526001830160205260408120548015620035b0576000620034de6001836200434a565b8554909150600090620034f4906001906200434a565b90508181146200356057600086600001828154811062003518576200351862003f00565b90600052602060002001549050808760000184815481106200353e576200353e62003f00565b6000918252602080832090910192909255918252600188019052604090208390555b855486908062003574576200357462004360565b600190038181906000526020600020016000905590558560010160008681526020019081526020016000206000905560019350505050620005bf565b6000915050620005bf565b620005dd82826200247d565b6060824710156200362a5760405162461bcd60e51b815260206004820152602660248201527f416464726573733a20696e73756666696369656e742062616c616e636520666f6044820152651c8818d85b1b60d21b60648201526084016200065b565b600080866001600160a01b0316858760405162003648919062004376565b60006040518083038185875af1925050503d806000811462003687576040519150601f19603f3d011682016040523d82523d6000602084013e6200368c565b606091505b50915091506200369f87838387620036ac565b925050505b949350505050565b606083156200372057825160000362003718576001600160a01b0385163b620037185760405162461bcd60e51b815260206004820152601d60248201527f416464726573733a2063616c6c20746f206e6f6e2d636f6e747261637400000060448201526064016200065b565b5081620036a4565b620036a48383815115620037375781518083602001fd5b8060405162461bcd60e51b81526004016200065b9190620042eb565b82805482825590600052602060002090810192821562003791579160200282015b828111156200379157823582559160200191906001019062003774565b506200379f929150620037b1565b5090565b610e3a806200439583390190565b5b808211156200379f5760008155600101620037b2565b600060208284031215620037db57600080fd5b81356001600160e01b0319811681146200153857600080fd5b6001600160a01b038116811462001e8357600080fd5b80356200381781620037f4565b919050565b6000602082840312156200382f57600080fd5b81356200153881620037f4565b600080604083850312156200385057600080fd5b82356200385d81620037f4565b946020939093013593505050565b634e487b7160e01b600052604160045260246000fd5b60405160e0810167ffffffffffffffff81118282101715620038a757620038a76200386b565b60405290565b600067ffffffffffffffff80841115620038cb57620038cb6200386b565b604051601f8501601f19908116603f01168101908282118183101715620038f657620038f66200386b565b816040528093508581528686860111156200391057600080fd5b858560208301376000602087830101525050509392505050565b600082601f8301126200393c57600080fd5b6200153883833560208501620038ad565b60ff8116811462001e8357600080fd5b803562003817816200394d565b600060e082840312156200397d57600080fd5b6200398762003881565b905062003994826200380a565b8152620039a4602083016200380a565b602082015260408201356040820152606082013560608201526080820135608082015260a082013567ffffffffffffffff811115620039e257600080fd5b620039f0848285016200392a565b60a08301525062003a0460c083016200395d565b60c082015292915050565b6000806040838503121562003a2357600080fd5b823567ffffffffffffffff81111562003a3b57600080fd5b62003a49858286016200396a565b95602094909401359450505050565b6000806040838503121562003a6c57600080fd5b50508035926020909101359150565b60006020828403121562003a8e57600080fd5b5035919050565b6000806040838503121562003aa957600080fd5b82359150602083013562003abd81620037f4565b809150509250929050565b6000806040838503121562003adc57600080fd5b823562003ae981620037f4565b9150602083013562003abd81620037f4565b6000806020838503121562003b0f57600080fd5b823567ffffffffffffffff8082111562003b2857600080fd5b818501915085601f83011262003b3d57600080fd5b81358181111562003b4d57600080fd5b86602060608302850101111562003b6357600080fd5b60209290920196919550909350505050565b6000806020838503121562003b8957600080fd5b823567ffffffffffffffff8082111562003ba257600080fd5b818501915085601f83011262003bb757600080fd5b81358181111562003bc757600080fd5b8660208260051b850101111562003b6357600080fd5b63ffffffff8116811462001e8357600080fd5b6000806040838503121562003c0457600080fd5b823567ffffffffffffffff81111562003c1c57600080fd5b62003c2a858286016200396a565b925050602083013562003abd8162003bdd565b60008060006060848603121562003c5357600080fd5b83359250602084013562003c6781620037f4565b9150604084013567ffffffffffffffff81111562003c8457600080fd5b8401601f8101861362003c9657600080fd5b62003ca786823560208401620038ad565b9150509250925092565b60006020828403121562003cc457600080fd5b5051919050565b60006020828403121562003cde57600080fd5b81516200153881620037f4565b805180151581146200381757600080fd5b60006020828403121562003d0f57600080fd5b620015388262003ceb565b60006020828403121562003d2d57600080fd5b815162001538816200394d565b634e487b7160e01b600052602160045260246000fd5b60208082526038908201527f53656375726974697a6174696f6e4d616e616765723a204e6f7420746865206360408201527f6f6e74726f6c6c6572206f66207468652070726f6a6563740000000000000000606082015260800190565b60005b8381101562003dca57818101518382015260200162003db0565b50506000910152565b6000815180845262003ded81602086016020860162003dad565b601f01601f19169290920160200192915050565b600060018060a01b038083511684528060208401511660208501525060408201516040840152606082015160608401526080820151608084015260a082015160e060a085015262003e5660e085018262003dd3565b60c09384015160ff16949093019390935250919050565b6001600160a01b038416815260606020820181905260009062003e939083018562003e01565b9050826040830152949350505050565b6020808252603a908201527f556e74616e676c6564426173653a204d75737420686176652061646d696e207260408201527f6f6c6520746f20706572666f726d207468697320616374696f6e000000000000606082015260800190565b634e487b7160e01b600052603260045260246000fd5b634e487b7160e01b600052601160045260246000fd5b60006001820162003f415762003f4162003f16565b5060010190565b6020808252818101839052600090604080840186845b8781101562003fa257813562003f7481620037f4565b6001600160a01b03168352818501358584015283820135848401526060928301929091019060010162003f5e565b5090979650505050505050565b6020808252810182905260006001600160fb1b0383111562003fd057600080fd5b8260051b80856040850137919091016040019392505050565b6001600160a01b03841681526060602082018190526000906200400f9083018562003e01565b905063ffffffff83166040830152949350505050565b6001600160a01b0383168152604060208083018290528354918301829052600084815281812090929091906060850190845b8181101562003fa25784548352600194850194928401920162004057565b6001600160a01b0383168152604060208201819052600090620036a49083018462003dd3565b600060808284031215620040ae57600080fd5b6040516080810181811067ffffffffffffffff82111715620040d457620040d46200386b565b6040528251620040e481620037f4565b81526020830151620040f68162003bdd565b6020820152620041096040840162003ceb565b6040820152606083015160608201528091505092915050565b6020808252602a908201527f53656375726974697a6174696f6e4d616e616765723a20506f6f6c20646f6573604082015269081b9bdd08195e1a5cdd60b21b606082015260800190565b600281106200418b57634e487b7160e01b600052602160045260246000fd5b9052565b6001600160a01b0385168152620041aa60208201856200416c565b60ff83166040820152608060608201526000620041cb608083018462003dd3565b9695505050505050565b6001600160a01b0383168152604081016200153860208301846200416c565b6020808252602b908201527f496e697469616c697a61626c653a20636f6e7472616374206973206e6f74206960408201526a6e697469616c697a696e6760a81b606082015260800190565b600083516200425381846020880162003dad565b8351908301906200426981836020880162003dad565b01949350505050565b7f416363657373436f6e74726f6c3a206163636f756e7420000000000000000000815260008351620042ac81601785016020880162003dad565b7001034b99036b4b9b9b4b733903937b6329607d1b6017918401918201528351620042df81602884016020880162003dad565b01602801949350505050565b60208152600062001538602083018462003dd3565b8082028115828204841417620005bf57620005bf62003f16565b80820180821115620005bf57620005bf62003f16565b60008162004342576200434262003f16565b506000190190565b81810381811115620005bf57620005bf62003f16565b634e487b7160e01b600052603160045260246000fd5b600082516200438a81846020870162003dad565b919091019291505056fe608060405260405162000e3a38038062000e3a833981016040819052620000269162000424565b828162000036828260006200004d565b50620000449050826200007f565b50505062000557565b6200005883620000f1565b600082511180620000665750805b156200007a5762000078838362000133565b505b505050565b7f7e644d79422f17c01e4894b5f4f588d331ebfa28653d42ae832dc59e38c9798f620000c160008051602062000df3833981519152546001600160a01b031690565b604080516001600160a01b03928316815291841660208301520160405180910390a1620000ee8162000162565b50565b620000fc8162000200565b6040516001600160a01b038216907fbc7cd75a20ee27fd9adebab32041f755214dbc6bffa90cc0225b39da2e5c2d3b90600090a250565b60606200015b838360405180606001604052806027815260200162000e136027913962000297565b9392505050565b6001600160a01b038116620001cd5760405162461bcd60e51b815260206004820152602660248201527f455243313936373a206e65772061646d696e20697320746865207a65726f206160448201526564647265737360d01b60648201526084015b60405180910390fd5b8060008051602062000df38339815191525b80546001600160a01b0319166001600160a01b039290921691909117905550565b6001600160a01b0381163b6200026f5760405162461bcd60e51b815260206004820152602d60248201527f455243313936373a206e657720696d706c656d656e746174696f6e206973206e60448201526c1bdd08184818dbdb9d1c9858dd609a1b6064820152608401620001c4565b807f360894a13ba1a3210667c828492db98dca3e2076cc3735a920a3ca505d382bbc620001df565b6060600080856001600160a01b031685604051620002b6919062000504565b600060405180830381855af49150503d8060008114620002f3576040519150601f19603f3d011682016040523d82523d6000602084013e620002f8565b606091505b5090925090506200030c8683838762000316565b9695505050505050565b606083156200038a57825160000362000382576001600160a01b0385163b620003825760405162461bcd60e51b815260206004820152601d60248201527f416464726573733a2063616c6c20746f206e6f6e2d636f6e74726163740000006044820152606401620001c4565b508162000396565b6200039683836200039e565b949350505050565b815115620003af5781518083602001fd5b8060405162461bcd60e51b8152600401620001c4919062000522565b80516001600160a01b0381168114620003e357600080fd5b919050565b634e487b7160e01b600052604160045260246000fd5b60005b838110156200041b57818101518382015260200162000401565b50506000910152565b6000806000606084860312156200043a57600080fd5b6200044584620003cb565b92506200045560208501620003cb565b60408501519092506001600160401b03808211156200047357600080fd5b818601915086601f8301126200048857600080fd5b8151818111156200049d576200049d620003e8565b604051601f8201601f19908116603f01168101908382118183101715620004c857620004c8620003e8565b81604052828152896020848701011115620004e257600080fd5b620004f5836020830160208801620003fe565b80955050505050509250925092565b6000825162000518818460208701620003fe565b9190910192915050565b602081526000825180602084015262000543816040850160208701620003fe565b601f01601f19169190910160400192915050565b61088c80620005676000396000f3fe60806040523661001357610011610017565b005b6100115b61001f610169565b6001600160a01b0316330361015f5760606001600160e01b0319600035166364d3180d60e11b810161005a5761005361019c565b9150610157565b63587086bd60e11b6001600160e01b031982160161007a576100536101f3565b63070d7c6960e41b6001600160e01b031982160161009a57610053610239565b621eb96f60e61b6001600160e01b03198216016100b95761005361026a565b63a39f25e560e01b6001600160e01b03198216016100d9576100536102aa565b60405162461bcd60e51b815260206004820152604260248201527f5472616e73706172656e745570677261646561626c6550726f78793a2061646d60448201527f696e2063616e6e6f742066616c6c6261636b20746f2070726f78792074617267606482015261195d60f21b608482015260a4015b60405180910390fd5b815160208301f35b6101676102be565b565b60007fb53127684a568b3173ae13b9f8a6016e243e63b6e8ee1178d6a717850b5d61035b546001600160a01b0316919050565b60606101a66102ce565b60006101b53660048184610683565b8101906101c291906106c9565b90506101df816040518060200160405280600081525060006102d9565b505060408051602081019091526000815290565b60606000806102053660048184610683565b81019061021291906106fa565b91509150610222828260016102d9565b604051806020016040528060008152509250505090565b60606102436102ce565b60006102523660048184610683565b81019061025f91906106c9565b90506101df81610305565b60606102746102ce565b600061027e610169565b604080516001600160a01b03831660208201529192500160405160208183030381529060405291505090565b60606102b46102ce565b600061027e61035c565b6101676102c961035c565b61036b565b341561016757600080fd5b6102e28361038f565b6000825111806102ef5750805b15610300576102fe83836103cf565b505b505050565b7f7e644d79422f17c01e4894b5f4f588d331ebfa28653d42ae832dc59e38c9798f61032e610169565b604080516001600160a01b03928316815291841660208301520160405180910390a1610359816103fb565b50565b60006103666104a4565b905090565b3660008037600080366000845af43d6000803e80801561038a573d6000f35b3d6000fd5b610398816104cc565b6040516001600160a01b038216907fbc7cd75a20ee27fd9adebab32041f755214dbc6bffa90cc0225b39da2e5c2d3b90600090a250565b60606103f4838360405180606001604052806027815260200161083060279139610560565b9392505050565b6001600160a01b0381166104605760405162461bcd60e51b815260206004820152602660248201527f455243313936373a206e65772061646d696e20697320746865207a65726f206160448201526564647265737360d01b606482015260840161014e565b807fb53127684a568b3173ae13b9f8a6016e243e63b6e8ee1178d6a717850b5d61035b80546001600160a01b0319166001600160a01b039290921691909117905550565b60007f360894a13ba1a3210667c828492db98dca3e2076cc3735a920a3ca505d382bbc61018d565b6001600160a01b0381163b6105395760405162461bcd60e51b815260206004820152602d60248201527f455243313936373a206e657720696d706c656d656e746174696f6e206973206e60448201526c1bdd08184818dbdb9d1c9858dd609a1b606482015260840161014e565b807f360894a13ba1a3210667c828492db98dca3e2076cc3735a920a3ca505d382bbc610483565b6060600080856001600160a01b03168560405161057d91906107e0565b600060405180830381855af49150503d80600081146105b8576040519150601f19603f3d011682016040523d82523d6000602084013e6105bd565b606091505b50915091506105ce868383876105d8565b9695505050505050565b60608315610647578251600003610640576001600160a01b0385163b6106405760405162461bcd60e51b815260206004820152601d60248201527f416464726573733a2063616c6c20746f206e6f6e2d636f6e7472616374000000604482015260640161014e565b5081610651565b6106518383610659565b949350505050565b8151156106695781518083602001fd5b8060405162461bcd60e51b815260040161014e91906107fc565b6000808585111561069357600080fd5b838611156106a057600080fd5b5050820193919092039150565b80356001600160a01b03811681146106c457600080fd5b919050565b6000602082840312156106db57600080fd5b6103f4826106ad565b634e487b7160e01b600052604160045260246000fd5b6000806040838503121561070d57600080fd5b610716836106ad565b9150602083013567ffffffffffffffff8082111561073357600080fd5b818501915085601f83011261074757600080fd5b813581811115610759576107596106e4565b604051601f8201601f19908116603f01168101908382118183101715610781576107816106e4565b8160405282815288602084870101111561079a57600080fd5b8260208601602083013760006020848301015280955050505050509250929050565b60005b838110156107d75781810151838201526020016107bf565b50506000910152565b600082516107f28184602087016107bc565b9190910192915050565b602081526000825180602084015261081b8160408501602087016107bc565b601f01601f1916919091016040019291505056fe416464726573733a206c6f772d6c6576656c2064656c65676174652063616c6c206661696c6564a26469706673582212203ee2f73ab410cffabdfe09f9ebcfce29461addacfddf586afaf2ba05c7d1b40864736f6c63430008130033b53127684a568b3173ae13b9f8a6016e243e63b6e8ee1178d6a717850b5d6103416464726573733a206c6f772d6c6576656c2064656c65676174652063616c6c206661696c6564b19546dff01e856fb3f010c267a7b1c60363cf8a4664e21cc89c26224620214e3e9c05fb0f9da4414e033bb9bf190a6e2072adf7e3077394fce683220513b8d7a26469706673582212204b949221723a2d042ede41703abd142da3051f5aa4b5778737bf37195ff7440b64736f6c63430008130033",
  "devdoc": {
    "author": "Untangled Team",
    "events": {
      "Initialized(uint8)": {
        "details": "Triggered when the contract has been initialized or reinitialized."
      },
      "Paused(address)": {
        "details": "Emitted when the pause is triggered by `account`."
      },
      "RoleAdminChanged(bytes32,bytes32,bytes32)": {
        "details": "Emitted when `newAdminRole` is set as ``role``'s admin role, replacing `previousAdminRole` `DEFAULT_ADMIN_ROLE` is the starting admin for all roles, despite {RoleAdminChanged} not being emitted signaling this. _Available since v3.1._"
      },
      "RoleGranted(bytes32,address,address)": {
        "details": "Emitted when `account` is granted `role`. `sender` is the account that originated the contract call, an admin role bearer except when using {AccessControl-_setupRole}."
      },
      "RoleRevoked(bytes32,address,address)": {
        "details": "Emitted when `account` is revoked `role`. `sender` is the account that originated the contract call:   - if using `revokeRole`, it is the admin role bearer   - if using `renounceRole`, it is the role bearer (i.e. `account`)"
      },
      "Unpaused(address)": {
        "details": "Emitted when the pause is lifted by `account`."
      }
    },
    "kind": "dev",
    "methods": {
      "buyTokens(address,uint256)": {
        "params": {
          "currencyAmount": "Currency amount investor will pay",
          "tgeAddress": "SOT/JOT token sale instance"
        }
      },
      "getRoleAdmin(bytes32)": {
        "details": "Returns the admin role that controls `role`. See {grantRole} and {revokeRole}. To change a role's admin, use {_setRoleAdmin}."
      },
      "getRoleMember(bytes32,uint256)": {
        "details": "Returns one of the accounts that have `role`. `index` must be a value between 0 and {getRoleMemberCount}, non-inclusive. Role bearers are not sorted in any particular way, and their ordering may change at any point. WARNING: When using {getRoleMember} and {getRoleMemberCount}, make sure you perform all queries on the same block. See the following https://forum.openzeppelin.com/t/iterating-over-elements-on-enumerableset-in-openzeppelin-contracts/2296[forum post] for more information."
      },
      "getRoleMemberCount(bytes32)": {
        "details": "Returns the number of accounts that have `role`. Can be used together with {getRoleMember} to enumerate all bearers of a role."
      },
      "grantRole(bytes32,address)": {
        "details": "Grants `role` to `account`. If `account` had not been already granted `role`, emits a {RoleGranted} event. Requirements: - the caller must have ``role``'s admin role. May emit a {RoleGranted} event."
      },
      "hasRole(bytes32,address)": {
        "details": "Returns `true` if `account` has been granted `role`."
      },
      "newPoolInstance(bytes32,address,bytes)": {
        "details": "Creates a new instance of a securitization pool. Set msg sender as owner of the new pool",
        "params": {
          "params": "params data of the securitization pool"
        }
      },
      "paused()": {
        "details": "Returns true if the contract is paused, and false otherwise."
      },
      "registerPot(address)": {
        "details": "Register pot to pool instance",
        "params": {
          "pot": "Pool linked wallet"
        }
      },
      "renounceRole(bytes32,address)": {
        "details": "Revokes `role` from the calling account. Roles are often managed via {grantRole} and {revokeRole}: this function's purpose is to provide a mechanism for accounts to lose their privileges if they are compromised (such as when a trusted device is misplaced). If the calling account had been revoked `role`, emits a {RoleRevoked} event. Requirements: - the caller must be `account`. May emit a {RoleRevoked} event."
      },
      "revokeRole(bytes32,address)": {
        "details": "Revokes `role` from `account`. If `account` had been granted `role`, emits a {RoleRevoked} event. Requirements: - the caller must have ``role``'s admin role. May emit a {RoleRevoked} event."
      },
      "setUpTGEForJOT((address,address,uint256,uint256,uint256,string,uint8),uint256)": {
        "params": {
          "initialJOTAmount": "Minimum amount of JOT raised in currency before SOT can start",
          "tgeParam": "Parameters for TGE"
        }
      },
      "setUpTGEForSOT((address,address,uint256,uint256,uint256,string,uint8),uint32)": {
        "params": {
          "interestRate": "Interest rate of the token",
          "tgeParam": "Parameters for TGE"
        }
      },
      "supportsInterface(bytes4)": {
        "details": "See {IERC165-supportsInterface}."
      }
    },
    "title": "SecuritizationManager",
    "version": 1
  },
  "userdoc": {
    "kind": "user",
    "methods": {
      "buyTokens(address,uint256)": {
        "notice": "Investor bid for SOT or JOT token"
      },
      "hasAllowedUID(address)": {
        "notice": "Check if an user has valid UID type"
      },
      "newPoolInstance(bytes32,address,bytes)": {
        "notice": "Creates a new securitization pool"
      },
      "setUpTGEForJOT((address,address,uint256,uint256,uint256,string,uint8),uint256)": {
        "notice": "sets up the token generation event (TGE) for the junior tranche (JOT) of a securitization pool with additional configuration parameters"
      },
      "setUpTGEForSOT((address,address,uint256,uint256,uint256,string,uint8),uint32)": {
        "notice": "Sets up the token generation event (TGE) for the senior tranche (SOT) of a securitization pool with additional configuration parameters"
      }
    },
    "notice": "You can use this contract for creating new pool, setting up note toke sale, buying note token",
    "version": 1
  },
  "storageLayout": {
    "storage": [
      {
        "astId": 759,
        "contract": "contracts/protocol/pool/SecuritizationManager.sol:SecuritizationManager",
        "label": "_initialized",
        "offset": 0,
        "slot": "0",
        "type": "t_uint8"
      },
      {
        "astId": 762,
        "contract": "contracts/protocol/pool/SecuritizationManager.sol:SecuritizationManager",
        "label": "_initializing",
        "offset": 1,
        "slot": "0",
        "type": "t_bool"
      },
      {
        "astId": 4972,
        "contract": "contracts/protocol/pool/SecuritizationManager.sol:SecuritizationManager",
        "label": "__gap",
        "offset": 0,
        "slot": "1",
        "type": "t_array(t_uint256)50_storage"
      },
      {
        "astId": 942,
        "contract": "contracts/protocol/pool/SecuritizationManager.sol:SecuritizationManager",
        "label": "_paused",
        "offset": 0,
        "slot": "51",
        "type": "t_bool"
      },
      {
        "astId": 1047,
        "contract": "contracts/protocol/pool/SecuritizationManager.sol:SecuritizationManager",
        "label": "__gap",
        "offset": 0,
        "slot": "52",
        "type": "t_array(t_uint256)49_storage"
      },
      {
        "astId": 1062,
        "contract": "contracts/protocol/pool/SecuritizationManager.sol:SecuritizationManager",
        "label": "_status",
        "offset": 0,
        "slot": "101",
        "type": "t_uint256"
      },
      {
        "astId": 1131,
        "contract": "contracts/protocol/pool/SecuritizationManager.sol:SecuritizationManager",
        "label": "__gap",
        "offset": 0,
        "slot": "102",
        "type": "t_array(t_uint256)49_storage"
      },
      {
        "astId": 6262,
        "contract": "contracts/protocol/pool/SecuritizationManager.sol:SecuritizationManager",
        "label": "__gap",
        "offset": 0,
        "slot": "151",
        "type": "t_array(t_uint256)50_storage"
      },
      {
        "astId": 184,
        "contract": "contracts/protocol/pool/SecuritizationManager.sol:SecuritizationManager",
        "label": "_roles",
        "offset": 0,
        "slot": "201",
        "type": "t_mapping(t_bytes32,t_struct(RoleData)179_storage)"
      },
      {
        "astId": 479,
        "contract": "contracts/protocol/pool/SecuritizationManager.sol:SecuritizationManager",
        "label": "__gap",
        "offset": 0,
        "slot": "202",
        "type": "t_array(t_uint256)49_storage"
      },
      {
        "astId": 33,
        "contract": "contracts/protocol/pool/SecuritizationManager.sol:SecuritizationManager",
        "label": "_roleMembers",
        "offset": 0,
        "slot": "251",
        "type": "t_mapping(t_bytes32,t_struct(AddressSet)7572_storage)"
      },
      {
        "astId": 143,
        "contract": "contracts/protocol/pool/SecuritizationManager.sol:SecuritizationManager",
        "label": "__gap",
        "offset": 0,
        "slot": "252",
        "type": "t_array(t_uint256)49_storage"
      },
      {
        "astId": 10782,
        "contract": "contracts/protocol/pool/SecuritizationManager.sol:SecuritizationManager",
        "label": "__gap",
        "offset": 0,
        "slot": "301",
        "type": "t_array(t_uint256)50_storage"
      },
      {
        "astId": 10526,
        "contract": "contracts/protocol/pool/SecuritizationManager.sol:SecuritizationManager",
        "label": "factoryAdmin",
        "offset": 0,
        "slot": "351",
        "type": "t_address"
      },
      {
        "astId": 10622,
        "contract": "contracts/protocol/pool/SecuritizationManager.sol:SecuritizationManager",
        "label": "__gap",
        "offset": 0,
        "slot": "352",
        "type": "t_array(t_uint256)50_storage"
      },
      {
        "astId": 22231,
        "contract": "contracts/protocol/pool/SecuritizationManager.sol:SecuritizationManager",
        "label": "registry",
        "offset": 0,
        "slot": "402",
        "type": "t_contract(Registry)24666"
      },
      {
        "astId": 22236,
        "contract": "contracts/protocol/pool/SecuritizationManager.sol:SecuritizationManager",
        "label": "isExistingPools",
        "offset": 0,
        "slot": "403",
        "type": "t_mapping(t_address,t_bool)"
      },
      {
        "astId": 22240,
        "contract": "contracts/protocol/pool/SecuritizationManager.sol:SecuritizationManager",
        "label": "pools",
        "offset": 0,
        "slot": "404",
        "type": "t_array(t_address)dyn_storage"
      },
      {
        "astId": 22245,
        "contract": "contracts/protocol/pool/SecuritizationManager.sol:SecuritizationManager",
        "label": "potToPool",
        "offset": 0,
        "slot": "405",
        "type": "t_mapping(t_address,t_address)"
      },
      {
        "astId": 22250,
        "contract": "contracts/protocol/pool/SecuritizationManager.sol:SecuritizationManager",
        "label": "isExistingTGEs",
        "offset": 0,
        "slot": "406",
        "type": "t_mapping(t_address,t_bool)"
      },
      {
        "astId": 22254,
        "contract": "contracts/protocol/pool/SecuritizationManager.sol:SecuritizationManager",
        "label": "__gap",
        "offset": 0,
        "slot": "407",
        "type": "t_array(t_uint256)45_storage"
      },
      {
        "astId": 22279,
        "contract": "contracts/protocol/pool/SecuritizationManager.sol:SecuritizationManager",
        "label": "allowedUIDTypes",
        "offset": 0,
        "slot": "452",
        "type": "t_array(t_uint256)dyn_storage"
      }
    ],
    "types": {
      "t_address": {
        "encoding": "inplace",
        "label": "address",
        "numberOfBytes": "20"
      },
      "t_array(t_address)dyn_storage": {
        "base": "t_address",
        "encoding": "dynamic_array",
        "label": "address[]",
        "numberOfBytes": "32"
      },
      "t_array(t_bytes32)dyn_storage": {
        "base": "t_bytes32",
        "encoding": "dynamic_array",
        "label": "bytes32[]",
        "numberOfBytes": "32"
      },
      "t_array(t_uint256)45_storage": {
        "base": "t_uint256",
        "encoding": "inplace",
        "label": "uint256[45]",
        "numberOfBytes": "1440"
      },
      "t_array(t_uint256)49_storage": {
        "base": "t_uint256",
        "encoding": "inplace",
        "label": "uint256[49]",
        "numberOfBytes": "1568"
      },
      "t_array(t_uint256)50_storage": {
        "base": "t_uint256",
        "encoding": "inplace",
        "label": "uint256[50]",
        "numberOfBytes": "1600"
      },
      "t_array(t_uint256)dyn_storage": {
        "base": "t_uint256",
        "encoding": "dynamic_array",
        "label": "uint256[]",
        "numberOfBytes": "32"
      },
      "t_bool": {
        "encoding": "inplace",
        "label": "bool",
        "numberOfBytes": "1"
      },
      "t_bytes32": {
        "encoding": "inplace",
        "label": "bytes32",
        "numberOfBytes": "32"
      },
      "t_contract(Registry)24666": {
        "encoding": "inplace",
        "label": "contract Registry",
        "numberOfBytes": "20"
      },
      "t_mapping(t_address,t_address)": {
        "encoding": "mapping",
        "key": "t_address",
        "label": "mapping(address => address)",
        "numberOfBytes": "32",
        "value": "t_address"
      },
      "t_mapping(t_address,t_bool)": {
        "encoding": "mapping",
        "key": "t_address",
        "label": "mapping(address => bool)",
        "numberOfBytes": "32",
        "value": "t_bool"
      },
      "t_mapping(t_bytes32,t_struct(AddressSet)7572_storage)": {
        "encoding": "mapping",
        "key": "t_bytes32",
        "label": "mapping(bytes32 => struct EnumerableSetUpgradeable.AddressSet)",
        "numberOfBytes": "32",
        "value": "t_struct(AddressSet)7572_storage"
      },
      "t_mapping(t_bytes32,t_struct(RoleData)179_storage)": {
        "encoding": "mapping",
        "key": "t_bytes32",
        "label": "mapping(bytes32 => struct AccessControlUpgradeable.RoleData)",
        "numberOfBytes": "32",
        "value": "t_struct(RoleData)179_storage"
      },
      "t_mapping(t_bytes32,t_uint256)": {
        "encoding": "mapping",
        "key": "t_bytes32",
        "label": "mapping(bytes32 => uint256)",
        "numberOfBytes": "32",
        "value": "t_uint256"
      },
      "t_struct(AddressSet)7572_storage": {
        "encoding": "inplace",
        "label": "struct EnumerableSetUpgradeable.AddressSet",
        "members": [
          {
            "astId": 7571,
            "contract": "contracts/protocol/pool/SecuritizationManager.sol:SecuritizationManager",
            "label": "_inner",
            "offset": 0,
            "slot": "0",
            "type": "t_struct(Set)7257_storage"
          }
        ],
        "numberOfBytes": "64"
      },
      "t_struct(RoleData)179_storage": {
        "encoding": "inplace",
        "label": "struct AccessControlUpgradeable.RoleData",
        "members": [
          {
            "astId": 176,
            "contract": "contracts/protocol/pool/SecuritizationManager.sol:SecuritizationManager",
            "label": "members",
            "offset": 0,
            "slot": "0",
            "type": "t_mapping(t_address,t_bool)"
          },
          {
            "astId": 178,
            "contract": "contracts/protocol/pool/SecuritizationManager.sol:SecuritizationManager",
            "label": "adminRole",
            "offset": 0,
            "slot": "1",
            "type": "t_bytes32"
          }
        ],
        "numberOfBytes": "64"
      },
      "t_struct(Set)7257_storage": {
        "encoding": "inplace",
        "label": "struct EnumerableSetUpgradeable.Set",
        "members": [
          {
            "astId": 7252,
            "contract": "contracts/protocol/pool/SecuritizationManager.sol:SecuritizationManager",
            "label": "_values",
            "offset": 0,
            "slot": "0",
            "type": "t_array(t_bytes32)dyn_storage"
          },
          {
            "astId": 7256,
            "contract": "contracts/protocol/pool/SecuritizationManager.sol:SecuritizationManager",
            "label": "_indexes",
            "offset": 0,
            "slot": "1",
            "type": "t_mapping(t_bytes32,t_uint256)"
          }
        ],
        "numberOfBytes": "64"
      },
      "t_uint256": {
        "encoding": "inplace",
        "label": "uint256",
        "numberOfBytes": "32"
      },
      "t_uint8": {
        "encoding": "inplace",
        "label": "uint8",
        "numberOfBytes": "1"
      }
    }
  }
}